:100000000C94EB010C9408020C9408020C94080266
:100010000C9408020C9408020C9408020C94080238
:100020000C9408020C9408020C9408170C94080213
:100030000C9408020C9402180C9433180C940802C7
:100040000C9408020C9408020C9408020C94080208
:100050000C940802A208A908AC08B208B808BD08A8
:10006000C308CA08CE08D608250925092509250987
:100070002509250925092509250925092509250910
:100080002509250925092509250925092509250900
:1000900025092509250925092509250925092509F0
:1000A00025092509250925092509250925092509E0
:1000B00025092509250925092509250925092509D0
:1000C00025092509250925092509250925092509C0
:1000D00025092509250925092509250925092509B0
:1000E00025092509250925092509250925092509A0
:1000F0002509250925092509250925092509250990
:10010000250925092509250925092509250925097F
:10011000250925092509DD08E408EA08EF08F5089E
:10012000FB0825092509250925092509140925099B
:10013000250903090809250900090E0925092509CA
:10014000250925092509250925092509250925093F
:10015000250925092509250925092509250925092F
:10016000250925092509250925092509250925091F
:10017000250925092509250925092509250925090F
:1001800025092509250925092509250925092509FF
:1001900025092509250925092509250925092509EF
:1001A00025092509250925092509250925092509DF
:1001B00025092509250925092509250925092509CF
:1001C00025092509250925092509250925092509BF
:1001D00025092509250925092509250925092509AF
:1001E000250925092509250925092509250925099F
:1001F000250925092509250925092509250925098F
:10020000250925092509250925092509250925097E
:10021000250925092509250925092509250925096E
:10022000250925092509250925092509250925095E
:10023000250925092509250925092509250925094E
:100240002509250918092409220920091E091C0964
:100250001A0907634236B79BD8A71A39685618AEF1
:10026000BAAB558C1D3CB7CC5763BD6DEDFD753EEB
:10027000F6177231BF000000803F08000000BE92F8
:100280002449123EABAAAA2ABECDCCCC4C3E0000DB
:100290000080BEABAAAAAA3E00000000BF0000007A
:1002A000803F0000000000084178D3BB4387D11392
:1002B0003D190E3CC3BD4282AD2B3E68EC8276BE3A
:1002C000D98FE1A93E4C80EFFFBE01C4FF7F3F0004
:1002D000000000006E616E00696E660000407A10DA
:1002E000F35A00A0724E18090010A5D4E80000E8E7
:1002F0007648170000E40B54020000CA9A3B000045
:1003000000E1F505000080969800000040420F00D3
:100310000000A08601000000102700000000E80394
:10032000000000006400000000000A00000000005F
:100330000100000000002C76D888DC674F0823DF1E
:10034000C1DFAE59E1B1B796E5E3E453C63AE651F1
:10035000997696E8E6C28426EB898C9B62ED407C18
:100360006FFCEFBC9C9F40F2BAA56FA5F490055AB4
:100370002AF75C936B6CF9676DC11BFCE0E40D47D9
:10038000FEF520E6B500D0ED902E030094357705FC
:100390000080841E080000204E0A000000C80C33B4
:1003A0003333330F986E12831141EF8D2114893B43
:1003B000E65516CFFEE6DB18D1844B381BF77C1DC3
:1003C000901DA4BBE424203284725E228100C9F116
:1003D00024ECA1E53D2711241FBECFE5D8E0DEBF08
:1003E000CDBF12E0A0E6B0E0ECEEF3E402C0059071
:1003F0000D92A637B107D9F725E0A6E7B2E001C014
:100400001D92A331B207E1F70E9439020C94F42146
:100410000C940000CF93DF93CDB7DEB7AE014B5FF6
:100420005F4FFA0161917191AF0180EF93E00E94FB
:100430007A2180EF93E00E948518DF91CF91089593
:100440008C9A8E9ABD9A899A089588E090E00E94CD
:100450005A1862E381E00E944B170E9459080E94DB
:10046000CF040E941E150E94560F80B78B7F80BF5D
:10047000089580E00E94BE110E94200278940E949C
:10048000250281E890E09F938F930E940A020E94C8
:10049000E5060E9468100F900F900E94550A0E9476
:1004A000B10B0E9425040E94DC150E9497168091D2
:1004B000EE030E94DD078091EF030E94A0120E94CC
:1004C00063060E94A10C0E94180F0E94740F0E94E4
:1004D0008A020E94D3020E94E604DFCF83E00E94DA
:1004E000A410BC01660F771F660F771F860F971F3A
:1004F000BC0180E090E00E94A91926E636E646EBB2
:1005000050E40E94601A20E030E040E85AE30E9484
:10051000601A089540910F055091100560911105E2
:100520007091120580917B0290917C02A0917D02D6
:10053000B0917E0284179507A607B70798F583E068
:100540000E94A410893522E0920718F021E0209340
:100550007F028B3821E0920718F422E020937F027B
:100560008E3521E0920718F423E020937F028C5807
:1005700091408C3C910510F410927F0280910F0500
:1005800090911005A0911105B09112058C599F4FC3
:10059000AF4FBF4F80937B0290937C02A0937D026C
:1005A000B0937E02089540910F055091100560911F
:1005B0001105709112058091770290917802A091B7
:1005C0007902B0917A0284179507A607B70708F059
:1005D00086C080917F028130E9F030F0823099F15D
:1005E000833009F467C00895C5988091770290918F
:1005F0007802A0917902B0917A0288539F4FAF4F51
:10060000BF4F8093770290937802A0937902B093C2
:100610007A02089598B380E2892788BB8091770297
:1006200090917802A0917902B0917A0286509F4F02
:10063000AF4FBF4F8093770290937802A0937902D7
:10064000B0937A02089580917602811119C081E0F9
:1006500080937602C59A8091770290917802A0915A
:100660007902B0917A028C509E4FAF4FBF4F80936A
:10067000770290937802A0937902B0937A0208955A
:10068000813069F510927602C59880917702909139
:100690007802A0917902B0917A0284529A4FAF4FBA
:1006A000BF4F8093770290937802A0937902B09322
:1006B0007A020895C59A8091770290917802A0916C
:1006C0007902B0917A0288519C4FAF4FBF4F80930F
:1006D000770290937802A0937902B0937A020895FA
:1006E000379897B1987F8770892B87B9379A089583
:1006F000369A3699FECF84B195B108950E94700361
:100700000E9478030895DC011696ED91FC911797ED
:10071000208130E0F90118960C9002C0F595E7951C
:100720000A94E2F7CF0181700895EDE9F4E01482B4
:1007300081E08583148613861286118616861586B7
:1007400026E330E03783268392E09087E0E7F4E009
:100750001482858314861386128611861686158662
:10076000378326838087EFE7F4E01482858314863D
:10077000138612861186168615863783268396E0A1
:100780009087EDE5F4E01482858314861386128643
:1007900011861686158640E350E05783468393E022
:1007A0009087EEE4F4E01482858314861386128623
:1007B000118616861586378326839087EEE8F4E047
:1007C00014828583148613861286118616861586F2
:1007D00069E370E077836683A4E0A087ECEAF4E045
:1007E00014828583148613861286118616861586D2
:1007F00043E350E0578346838087EBEBF4E01482B9
:10080000858314861386128611861686158637838D
:100810002683A087E0E3F4E01482858314861386A0
:100820001286118616861586778366839087EFE396
:10083000F4E0148285831486138612861186168648
:1008400015865783468310860895DF92EF92FF92B4
:100850000F931F93CF93DF9340910F055091100595
:10086000609111057091120580916C0490916D0456
:10087000A0916E04B0916F0484179507A607B7077F
:1008800008F085C080910F0590911005A091110589
:10089000B09112054496A11DB11D80936C049093F4
:1008A0006D04A0936E04B0936F04C0E6D0E00F2EE9
:1008B000F4E7EF2EF0E0FF2EF02DDD24D3948E012F
:1008C000888199810E948303E881F9819581891744
:1008D000E1F08583813061F488819981DC0119968A
:1008E000ED91FC911A97309709F441C009953FC0EA
:1008F00081113DC088819981DC011B96ED91FC91AD
:100900001C97309721F0099502C0811130C0D801A1
:10091000ED91FC9180819181A281B3810196A11D0D
:10092000B11D80839183A283B383D801ED91FC91A3
:1009300080819181A281B3818897A105B10510F1D1
:1009400084818130F9F00584F685E02D309719F027
:100950008DE994E00995D801ED91FC9111971082F1
:10096000118212821382ED91FC91D4820BC0D801C6
:10097000ED91FC9111971082118212821382ED91F8
:10098000FC9114822296CE15DF0509F098CFDF91F5
:10099000CF911F910F91FF90EF90DF9008950E94EB
:1009A0009503BA98C29AB998C19ABE98C69A8B987C
:1009B000939ABB98C39AD498DC9AA198A99ABC98A8
:1009C000C49AD398DB9AA098A89A089540910F05ED
:1009D000509110056091110570911205809184026B
:1009E00090918502A0918602B091870284179507A5
:1009F000A607B70708F05EC084E00E944E07811189
:100A000059C08091EC039091ED0395FF37C0809120
:100A1000800290918102A0918202B0918302892B81
:100A20008A2B8B2B59F5C09A8091EC039091ED03A2
:100A30009F7D9093ED038093EC0381E090E0A0E034
:100A4000B0E08093800290938102A0938202B093E1
:100A500083028091840290918502A0918602B091D8
:100A600087028C599F4FAF4FBF4F80938402909362
:100A70008502A0938602B09387020895C0981092D1
:100A80008002109281021092820210928302809161
:100A9000840290918502A0918602B0918702C2964D
:100AA000A11DB11D8093840290938502A0938602BC
:100AB000B09387020895B89AC0980895A4E7B0E06B
:100AC000E0EDF4E025ED34E011968C9111978193DF
:100AD0001296E217F307C1F708958091D5041F928B
:100AE0008F9388EA90E09F938F930E940A02E0ED33
:100AF000F4E083811F928F9382811F928F93818173
:100B00001F928F9380811F928F9382EB90E09F932F
:100B10008F930E940A028DB79EB70E960FB6F89477
:100B20009EBF0FBE8DBF08958091D50490E0FC015B
:100B3000E053FB4F2081FC01EE0FFF1FEC58FF4FED
:100B40003081231728F4FC01E053FB4F2F5F2083F3
:100B50000E946D0508958091D50490E0FC01E0535A
:100B6000FB4F2081222329F0FC01E053FB4F215051
:100B700020830E946D0508958091D504843018F477
:100B80008F5F8093D5040E946D0508958091D504F0
:100B9000882319F081508093D5040E946D05089533
:100BA00060ED74E084E00E94F91088E08093EB042B
:100BB0008093E604949896980895CF93E091D60494
:100BC00091E09E0F9093D604F0E0E653FB4F8083B4
:100BD0001F928F9381ED90E09F938F930E940A0262
:100BE000C091D6044C2F50E061E171E08AEC94E0B2
:100BF0000E9426210F900F900F900F90892B91F05B
:100C00008AED90E09F938F930E940A021092D6047F
:100C100086E0EAECF4E0DF011D928A95E9F70F9097
:100C20000F9035C0C63099F58AEE90E09F938F9370
:100C30000E940A0281E08093D70486EC95E09093AD
:100C4000A9048093A8048CEB95E090937C04809396
:100C50007B0480ED95E090938B0480938A048BEA6B
:100C600095E090935A048093590484E995E0909319
:100C70009A04809399048EE595E09093B80480934C
:100C8000B70467E082E00E94FA090F900F90CF91BD
:100C9000089585E00E94DD05089584E00E94DD0549
:100CA000089583E00E94DD05089582E00E94DD053D
:100CB000089581E00E94DD05089580E00E94DD0531
:100CC000089585E0089540910F05509110056091B9
:100CD0001105709112058091880290918902A0916E
:100CE0008A02B0918B0284179507A607B70708F010
:100CF0006BC08091D704813009F066C080910F05E8
:100D000090911005A0911105B0911205C296A11DF8
:100D1000B11D8093880290938902A0938A02B093B8
:100D20008B028091EB04873031F46091D50487EE1B
:100D300094E00E94A2098091E604873051F4E0918A
:100D4000D504F0E0E053FB4F608182EE94E00E9416
:100D5000A2098091EB04883049F58091E60488303F
:100D600029F580910F0590911005A0911105B09182
:100D7000120588519C4FAF4FBF4F809388029093CC
:100D80008902A0938A02B0938B0283E78093FA04CE
:100D900081E68093EE0480E78093EC041092F804DF
:100DA0008AE08093EB048093E60408958091EB043D
:100DB0008A3051F48091E6048A3031F41092EB04C9
:100DC0001092E6041092D70408958DE596E0909372
:100DD000A9048093A80489E596E090937C0480930D
:100DE0007B0485E596E090938B0480938A0481E5EB
:100DF00096E090935A04809359048DE496E0909382
:100E00009A048093990489E496E09093B8048093BF
:100E1000B70460ED74E084E00E944111E0EDF4E07D
:100E200083811F928F9382811F928F9381811F9262
:100E30008F9380811F928F9389EF90E09F938F9380
:100E40000E940A02A0EDB4E0E4E7F0E04EE750E0D3
:100E50008DB79EB70A960FB6F8949EBF0FBE8DBF92
:100E600020E09C918081891718F481818C932F5FF9
:100E700011963296E417F507A1F7222329F060EDC9
:100E800074E084E00E94F9101092D60486E0EAEC47
:100E9000F4E0DF011D928A95E9F70895853030F47A
:100EA000E82FF0E0E053FB4F8081089580E0089543
:100EB00087E191E09F938F930E940A028CED94E06A
:100EC0000E94771781E08093D804949815BC8F9A7C
:100ED000979A0F900F9008951092D80415BC979A86
:100EE000949808959091D804925021E030E0933086
:100EF00010F020E030E0C90108950E9472070097C9
:100F000099F085E291E09F938F930E940A0215BCAD
:100F1000979A9498E8EDF4E08081818381E0808362
:100F20000F900F9081E090E008958091D804813077
:100F3000D9F4949A85B5806385BD85B5806485BDF7
:100F400085B5816085BDE8EDF4E08081818384E032
:100F5000808348EE53E060E070E08CED94E00E9406
:100F60007F1781E090E0089580E090E008958091FF
:100F7000DB0490E0089583E391E09F938F930E94B8
:100F80000A020E947D0785E08093D8040F900F909D
:100F900008950E947207009729F083E08093D80497
:100FA00081E090E008950E947207009729F082E0A6
:100FB0008093D80481E090E00895CF93C82F46E94C
:100FC00050E060E070E08CE892E00E94CB17892B43
:100FD00009F458C09091D8049330E9F028F4913086
:100FE000B9F0923041F04EC0943009F448C09530C9
:100FF00009F442C047C0C093DB042BEEC29FC0017E
:10100000112463E670E00E94CF1F6C5E63BD3AC09E
:101010001092DB0437C0C33378F484E18C0F8093E3
:10102000DB042BEE829FC001112463E670E00E9476
:10103000CF1F6C5E63BD26C08DEC8C0F843178F4BD
:101040008FE08C0F8093DB042BEE829FC001112474
:1010500063E670E00E94CF1F6C5E63BD13C0C09357
:10106000DB042BEEC29FC001112463E670E00E94F6
:10107000CF1F6C5E63BD06C015BC979A03C082E0AB
:101080008093D804CF910895AE9AAD9ADD9ADF9AF5
:10109000DE9AAA9AAF9A0895929A1092EF04C79A8C
:1010A0001092FB04AC9A1092ED04AB9A1092F904E2
:1010B0000895A69AA59AD59AD79AD69AA29AA79A47
:1010C0008A9AE0EFF4E08EEE94E091838083BF9AF9
:1010D0002AEF34E033832283A7EEB4E011963C93E9
:1010E0002E9313969C938E931297A49A2CEE34E031
:1010F00035832483A39A88EF94E097838683E2EE76
:10110000F4E031832083938382830E944C080E9401
:1011100044080895CF93DF93FC01308120917E0035
:10112000321709F495C0EC010E944408E8818E2F23
:1011300090E08F3F910508F088C0FC01E65DFF4F0D
:101140000C94E31FAE98AD98DD98DF98DE98AA98CE
:101150007CC0AD98DD9879C0AE98AD98AF98DE9818
:10116000DF9873C0AE98AD98AF98DD98DF986DC0EA
:10117000AA98AF98AD98DD9868C0AE98AA98AF9835
:10118000DD98DF9862C0AE98AA98AF98DD98DF9896
:10119000DE985BC0AE98AD98DD9857C0AE98AD981C
:1011A000DD98DF98DE98AA98AF984FC0AE98AD98BA
:1011B000DD98DF98AA98AF9848C0AE98AD98DD98B2
:1011C000DE98AA98AF9841C0DD98DF98DE98AA987B
:1011D000AF983BC0AE98DF98DE98AA9836C0AD981D
:1011E000DD98DF98DE98AF9830C0AE98DF98DE9833
:1011F000AA98AF982AC0AE98DE98AA98AF9825C052
:10120000DE98AF9822C0DD98DF98DE98AF981DC0B9
:10121000AE98AD98DE98AA98AF9817C0AE98DD98B2
:10122000DF98AA98AF9811C0DF98DE98AA980DC0F1
:10123000AF980BC0AA9809C0DE9807C0DF9805C018
:10124000DD9803C0AD9801C0AE98888180937E0080
:10125000DF91CF910895CF93DF93EC010E944C086A
:10126000CE010E948A0884E0CE3ED80729F49298E5
:1012700081E08093EF0419C084E0CA3FD80729F4C5
:10128000C79881E08093FB0410C084E0CC3ED8076F
:1012900029F4AC9881E08093ED0407C0C85FD44086
:1012A00021F4AB9881E08093F904DF91CF91089508
:1012B000EF92FF921F93CF93DF93FC01C081D18106
:1012C0002196D183C0839E01ADECBCEC0E94E91F46
:1012D0009695879596958795969587959C01220F6B
:1012E000331F880F991F880F991F880F991F820F2E
:1012F000931FC817D90701F57F011091910214308F
:1013000058F4E12FF0E0EE0FFF1FE051FB4F80811A
:1013100091810E942B0902C00E944C081F5F15306A
:1013200019F01093910202C010929102C039D1407D
:1013300019F4F70111821082DF91CF911F91FF9074
:10134000EF900895FC016436F8F4611108C0A081A3
:10135000B1811C920280F381E02D10820895A0815A
:10136000B1819DEC699F912D112496959695969546
:101370009C930280F381E02D892F880F982F990F7D
:10138000990F890F681B60830895FC01608308959D
:10139000813039F018F0823039F008956093AD0251
:1013A00008956093AC0208956093AC026093AD021F
:1013B0000895882319F0813029F008C08091EB044A
:1013C00090E008958091E60490E008958FEF9FEFFC
:1013D00008958091EB04863021F48091FC04809381
:1013E000EB048091E604863021F48091FD04809323
:1013F000E60408958130A1F018F0823009F10895D3
:10140000663021F48091EB048093FC048091EB041E
:10141000863019F46093FC0408956093EB040895FA
:10142000663021F48091E6048093FD048091E60407
:10143000863019F46093FD0408956093E6040895DE
:10144000663041F48091EB048093FC048091E604C3
:101450008093FD048091EB04863029F46093FD04B1
:101460006093FC0408956093EB046093E604089590
:1014700095E09093EB049093E6048093A70208957F
:1014800068EF8EEE94E00E94C50968EF8AEF94E061
:101490000E94C50968EF8CEE94E00E94C50968EFD0
:1014A00088EF94E00E94C509089580910F059091FE
:1014B0001005A0911105B09112054091960250912E
:1014C00097026091980270919902481759076A072C
:1014D0007B0708F026C18091EB04833009F459C0E2
:1014E00030F4882309F487C0813039F18EC085300B
:1014F00009F474C048F1863009F087C00E946E027A
:1015000020E030E048EC52E40E94601A0E94731917
:101510007093A6026093A5029B0136952795369598
:101520002795ABE7B4E10E94E91F96958795682F50
:1015300087EE94E00E94A20968C06091AD0287EE38
:1015400094E00E94A20961C08091E604843031F0E9
:1015500081E08093EB048093E60457C048515C4FD0
:101560006F4F7F4F4093960250939702609398027B
:101570007093990283E78093FA0481E68093EE04E6
:1015800080E78093EC0481E08093EB048093E60491
:1015900008958091E604833031F081E08093EB047C
:1015A0008093E60432C048515C4F6F4F7F4F4093A9
:1015B00096025093970260939802709399028CE67A
:1015C0008093FA048FE68093EE0480E78093EC0426
:1015D00081E08093EB048093E60417C085E6809356
:1015E000FA0482E78093EE046091A70282EE94E011
:1015F0000E94A2090AC068EF8EEE94E00E94C5091D
:1016000068EF8AEF94E00E94C5098091E60481307A
:1016100019F148F1863019F08D3081F16FC0409199
:10162000A5025091A6029A013695279536952795E1
:10163000ABE7B4E10E94E91F9695879564E6689F41
:101640009001699F300D1124BA01621B730B82EE69
:1016500094E00E94A20952C06091AC0282EE94E034
:101660000E94A2094BC068EF8CEE94E00E94C5096D
:1016700068EF88EF94E00E94C50940C044EF51E054
:1016800060E070E080EA92E00E94CB17892BB1F114
:1016900080919F0281110EC081E080939F0267EFCD
:1016A0008CEE94E00E94C50967EF88EF94E00E94F9
:1016B000C50924C010929F0280919B0290919C02C8
:1016C000A0919D02B0919E020097A105B10529F459
:1016D00061E081E00E94FA0911C00197A109B109F6
:1016E00080939B0290939C02A0939D02B0939E02D4
:1016F00060919A0282EE94E00E94A2098091960283
:1017000090919702A0919802B0919902C296A11D62
:10171000B11D8093960290939702A0939802B09384
:10172000990208950F931F9300910F0510911005D2
:101730002091110530911205DC01CB01800F911F22
:10174000A21FB31F8093A8029093A902A093AA029C
:10175000B093AB0262E0842F0E94FA091F910F91AF
:1017600008958091EB04823029F08091E604823064
:1017700009F078C040910F05509110056091110556
:10178000709112058091920290919302A09194021F
:10179000B091950284179507A607B70708F062C0B5
:1017A00080910F0590911005A0911105B09112053F
:1017B00081559F4FAF4FBF4F8093920290939302FA
:1017C000A0939402B09395028091EB04823061F46F
:1017D000609180008EEE94E00E94C50960918000C7
:1017E0008AEF94E00E94C5098091E604823061F49A
:1017F00060917F008CEE94E00E94C50960917F00AB
:1018000088EF94E00E94C50940910F0550911005A2
:1018100060911105709112058091A8029091A90222
:10182000A091AA02B091AB0284179507A607B7074B
:1018300028F461E082E00E94FA09C5989091800046
:101840009F5F9093800080917F00815080937F0004
:101850009F3F19F499EF90938000883F19F48EEF21
:1018600080937F000895E199FECF9FBB8EBB6DBB37
:10187000E29AE19A0895E199FECF9FBB8EBBE09A70
:101880008DB30895CF93C82F8091EC039091ED0311
:1018900082609093ED038093EC038C2F0E94380AB2
:1018A0000E94BB070E94B6110E940517C093FE0458
:1018B000CF9108951092CA021092C9021092C802E4
:1018C0001092C0021092C1028BEC92E00E94C117EC
:1018D0008BEB92E00E94C1171092FE0408951092C3
:1018E000CA021092C9021092C8021092C00210924D
:1018F000C1028BEC92E00E94C1178BEB92E00E9438
:10190000C1171092FE04089582E491E09F938F9393
:101910000E940A0280910F0590911005A091110577
:10192000B09112058053984FAF4FBF4F8093B702CD
:101930009093B802A093B902B093BA020F900F909F
:1019400008954F925F926F927F928F929F92AF9283
:10195000BF92CF92DF92EF92FF9240910F0550918C
:10196000100560911105709112058091B30290915C
:10197000B402A091B502B091B60284179507A607EC
:10198000B70708F048C28091EC0380FF44C2409141
:101990000F05509110056091110570911205465088
:1019A0005F4F6F4F7F4F4093B3025093B4026093E9
:1019B000B5027093B60281FD2EC20E946E024B01E9
:1019C0005C010E94B707BC0180E090E00E94A91969
:1019D0006B017C0125E935E640ED5FE30E94CD1AFD
:1019E0002B013C01A7019601C501B4010E94601AB8
:1019F00020E030E048EC52E40E9401194B015C0108
:101A000023E333E343E651E4C701B6010E94601AC1
:101A100020E030E048EC52E40E9401199B01AC0147
:101A2000C501B4010E94941820E030E040E450E485
:101A30000E9401194B015C0128E539E344E35CE3B2
:101A4000C301B2010E94601A9B01AC01C501B4013F
:101A50000E9495184B015C0183E00E944E07682F9D
:101A600070E062537109072E000C880B990B0E94DD
:101A7000AB19A70196010E94601A20E030E048EC03
:101A800052E40E940119A50194010E9495186093E7
:101A9000C4027093C5028093C6029093C70280E08F
:101AA0000E94A41042E05BE267E07DE380E00E94D8
:101AB000BD102091C4023091C5024091C6025091E0
:101AC000C7020E945B1A181644F40E947207892B01
:101AD00021F081E08093C80202C01092C80281E028
:101AE0000E944E078111D2C08091C802813009F056
:101AF00088C08091CA02823009F460C028F488232B
:101B000051F0813069F1C2C0833009F462C0843081
:101B100009F463C0BBC081E08093CA020E94B7078A
:101B20002EE1AC01249FC001259F900D112448E8AF
:101B300053E17A01E81AF90AFF92EF9285E591E004
:101B40009F938F930E940A02A70160E070E08BECE4
:101B500092E00E947F170F900F900F900F9096C009
:101B60008BEC92E00E94A117892B09F48FC00E9490
:101B7000C9070E94B7072EE1AC01249FC001259F31
:101B8000900D112448E853E17A01E81AF90AFF920E
:101B9000EF9284E791E09F938F930E940A02A7013E
:101BA00060E070E08BEC92E00E947F1782E080930F
:101BB000CA020F900F900F900F9068C08BEC92E0CC
:101BC0000E94A117892B09F461C083E08093CA02A7
:101BD0005DC081E00E94420C59C08BEC92E00E94F3
:101BE000A117892B09F452C040ED57E060E070E086
:101BF0008BEC92E00E947F178091C9028093CA0209
:101C000045C08091CA028230F1F018F4813031F081
:101C10003DC0833079F1843089F138C08BEC92E09B
:101C20000E94A117892B91F140ED57E060E070E030
:101C30008BEC92E00E947F1784E08093CA0281E0DF
:101C40008093C90223C08BEC92E00E94A117892BDC
:101C5000E9F040ED57E060E070E08BEC92E00E942C
:101C60007F170E94D30784E08093CA0282E08093AA
:101C7000C9020CC081E00E94420C08C08BEC92E0CB
:101C80000E94A117892B11F01092CA0280E00E94D5
:101C90004E078111C0C082E00E944E0790E09093F1
:101CA000C3028093C20281E00E94A4108091EE03DF
:101CB00090E02091C2023091C3022817390720F525
:101CC00040910F055091100560911105709112051A
:101CD0008091B7029091B802A091B902B091BA0276
:101CE00084179507A607B70778F481E08093C002B0
:101CF0008091C102813051F1A8F0823009F44BC0CB
:101D0000833009F451C087C01092C0028091C10293
:101D1000823009F466C0833009F47AC0813009F05A
:101D20007AC046C081E08093C10288E991E09F9328
:101D30008F930E940A024CED55E060E070E08BEB5F
:101D400092E00E947F170F900F9065C08BEB92E09E
:101D50000E94A117892B09F45EC00E9423120497E8
:101D600024F083E08093C10256C040ED57E060E06C
:101D700070E08BEB92E00E947F1782E08093C102BB
:101D80000E94171283EB91E09F938F930E940A02A7
:101D90000F900F9040C08BEB92E00E94A117892B0F
:101DA000D1F11092C10237C082E00E94420C33C0D0
:101DB0008BEB92E00E94A117892B69F140ED57E06F
:101DC00060E070E08BEB92E00E947F171092C102FE
:101DD0008DEC91E09F938F930E940A020F900F90D9
:101DE0001AC08BEB92E00E94A117892BA1F01092F0
:101DF000C1028DEC91E09F938F930E940A026CEADE
:101E00007DE080E090E00E9499120F900F9003C057
:101E100082E00E94420CFF90EF90DF90CF90BF9045
:101E2000AF909F908F907F906F905F904F900895AC
:101E30004EE551E060E070E08EEA92E00E94CB1740
:101E4000892B09F18091FE04813071F492B380E115
:101E5000892782BB8091EC039091ED03906290936F
:101E6000ED038093EC030895823069F492B380E42B
:101E7000892782BB8091EC039091ED03906290934F
:101E8000ED038093EC030895FC01208131816230E1
:101E900058F0329691E041915191240F351F3695BB
:101EA00027959F5F6913F7CFC9010895E6E1F3E035
:101EB0002EE333E081EF91E0819391932E173F075A
:101EC000D9F7E5EFF2E083E193E0119211928E17DA
:101ED0009F07D9F7EDEDF2E081EF92E011921192B8
:101EE0008E179F07D9F70895CF92DF92EF92FF9256
:101EF000CF93DF9340910F0550911005609111052C
:101F0000709112058091D4029091D502A091D602D1
:101F1000B091D70284179507A607B70708F0D1C07C
:101F200080910F0590911005A0911105B0911205B7
:101F30004496A11DB11D8093D4029093D502A09325
:101F4000D602B093D70280E00E947E03EC0160913C
:101F500013037091140380E090E00E94A91921E717
:101F60003DE34AE85EE30E94601A6B017C01BE011A
:101F700080E090E00E94A9199B01AC01C701B60165
:101F80000E9495180E947A19709341036093400350
:101F900020914203E22FF0E0EE0FFF1FEA5EFC4FBC
:101FA0007183608381E0820F8093420382E00E940C
:101FB0007E038032910530F04F979093F402809326
:101FC000F30204C01092F4021092F302E0911503A0
:101FD000F0E0EE0FFF1FEB50FD4F8091F302909168
:101FE000F4029183808381E00E947E039093DB0260
:101FF0008093DA022091D8023091D902211531055F
:1020000071F02817390728F41092DB021092DA02D7
:1020100006C0281B390B3093DB022093DA02C091F3
:10202000DC02EC2FF0E0EE0FFF1FE352FD4F80913A
:10203000DA029091DB0291838083D0911503DF5FF8
:10204000D0931503CF5FC093DC0264E186E193E097
:102050000E94440F90933F0380933E036FE085EF0F
:1020600092E00E94440F90931403809313036AE05C
:102070008DED92E00E94440F9093F2028093F10262
:102080008091D0029091D102A091D202B091D3025E
:102090000196A11DB11D8093D0029093D102A0930F
:1020A000D202B093D30280914203843111F4109292
:1020B0004203CA3011F41092DC02DF3011F41092A6
:1020C0001503DF91CF91FF90EF90DF90CF900895AF
:1020D000CF92DF92EF92FF92CF93DF93C0900F05E4
:1020E000D0901005E0901105F09012058CEDC80E0F
:1020F00085E0D81EE11CF11CCDE0D5E00E94740FF4
:102100008A819B81AC81BD81C816D906EA06FB068F
:10211000A8F78091F1029091F2028093D8029093F7
:10212000D9029F938F9386EE91E09F938F930E94A5
:102130000A020F900F900F900F90DF91CF91FF90B8
:10214000EF90DF90CF900895833018F4813040F005
:102150000CC0833079F480913E0390913F03089541
:10216000809113039091140308958091F10290914E
:10217000F202089580E090E00895CF92DF92EF920E
:10218000FF926A017B01833018F4813050F010C057
:102190008330A9F460913E0370913F0380E090E0AA
:1021A00011C0609113037091140380E090E00AC0A5
:1021B0006091F1027091F20280E090E003C060E073
:1021C00070E0CB010E94A91920E030E040E85AE31A
:1021D0000E94601A20E030E040EA50E40E94601A59
:1021E000A70196010E940119FF90EF90DF90CF9018
:1021F0000895EF92FF920F931F93CF938B0182303C
:1022000059F028F4882391F0813051F134C08330A3
:1022100051F1843021F02FC084E090E026C00E946C
:102220006106282F30E088E090E004C022E030E032
:1022300080E090E0C82F7C01E20EF31E99278E15F6
:102240009F05CCF4F80161918F018C2F90E00E94E2
:10225000330CCF5F8C2F90E08E159F059CF30BC045
:1022600082E090E002C086E090E0C82F7C01F2E0BE
:10227000EF0EF11CE7CFCF911F910F91FF90EF90E0
:102280000895EF92FF920F931F93CF938B018230AB
:1022900059F028F4882391F0813051F134C0833013
:1022A00051F1843021F02FC084E090E026C00E94DC
:1022B0006106282F30E088E090E004C022E030E0A2
:1022C00080E090E0C82F7C01E20EF31E99278E1566
:1022D0009F05CCF48C2F90E00E943B0CF801819379
:1022E0008F01CF5F8C2F90E08E159F059CF30BC064
:1022F00082E090E002C086E090E0C82F7C01F2E02E
:10230000EF0EF11CE7CFCF911F910F91FF90EF904F
:102310000895811105C08CE697E09BBD8ABD0895A4
:10232000823398F490E00A9722273327281B390B31
:10233000220F331F220F331F220F331F820F931FD1
:10234000885F984F9BBD8ABD0895843670F4282F0E
:1023500030E0225331094BEF4203C001439F900DFF
:10236000112480519A4F9BBD8ABD089580E00E9440
:102370008911969885E08093FF040895CF93DF93A9
:102380002FE13EE437BD26BD81B3806381BB19BC1C
:1023900018BC1BBC1ABC8FB582608FBD8EB588611E
:1023A0008EBD8FB580688FBD8EB582608EBD3BBD02
:1023B0002ABD9698CFEFD4E081E088831B8283E02A
:1023C00095E00E9477171986109257038CE092E0EF
:1023D0009F938F930E940A020F900F90DF91CF91ED
:1023E00008959091FF04925021E030E0923010F077
:1023F00020E030E0C90108959091FF049130A1F4EC
:10240000EFEFF4E093E0908383831F928F9389E151
:1024100092E09F938F930E940A020F900F900F906B
:102420000F9081E090E0089580E090E00895809121
:10243000FF049FEF980F923028F4EFEFF4E08183D0
:1024400084E0808308958091080590E008950E94BB
:10245000F1110097D1F080E00E948911EFEFF4E0D4
:1024600081E0808313821F921F9280E392E09F930A
:102470008F930E940A0296980E94840C0F900F90EE
:102480000F900F9081E090E008952091FF04243098
:1024900031F40E9450120E94840C81E090E0089573
:1024A00080910005823029F48093FF040E94271256
:1024B00009C0813071F4EFEFF4E082E08083838122
:1024C0000E946A1210925703EFEFF4E081858F5F4C
:1024D00081870895CF93C82F8091FF049FEF980FB5
:1024E0009330D0F4EFEFF4E082E08083C3838C2F4D
:1024F0000E9489111F92CF9381E492E09F938F9362
:102500000E940A02969A0E94840C0F900F900F90DE
:102510000F9081E090E00BC0843039F40E9450129B
:102520000E94840C81E090E002C080E090E0CF91B6
:102530000895AB01BC0183E095E00E947F170895E8
:10254000CF93DF93C82F4BE450E060E070E082E56A
:1025500093E00E94CB17892B09F4B8C08091FF0447
:102560008430A1F030F4823059F0833009F463C034
:102570009DC0853009F479C0863009F493C096C0B7
:10258000C09302058C2F0E94891190C0809157033F
:10259000811113C04AEF50E060E070E08DE493E0F9
:1025A0000E947F17809157038F5F8093570390910C
:1025B0000205890F0E9489112AC081508930D8F400
:1025C0008DE493E00E94A117019709F54AEF50E0CE
:1025D00060E070E08DE493E00E947F1780915703E4
:1025E0008F5F80935703880F880F90910205890FA2
:1025F0000E9489110CC010925703CFEFD4E08B8159
:102600000E9489118981888389858F5F89872091BC
:1026100002058091570390E0820F911D9F938F9345
:1026200083E592E09F938F930E940A020F900F9090
:102630000F900F903BC088E493E00E949717892B7E
:1026400059F088E493E00E94A117019779F582E0A0
:102650008093FF04969A2AC048EB5BE060E070E04C
:1026600088E493E00E947F1721C083E493E00E94F6
:102670009717892B71F083E493E00E94A1170197CB
:10268000A9F486E08093FF048FE19EE49BBD8ABDA0
:102690000DC04CEA5DE060E070E083E493E00E94EE
:1026A0007F1704C08FE19EE49BBD8ABD83E095E067
:1026B0000E94A117019751F41092080581E692E05B
:1026C0009F938F930E940A020F900F90DF91CF91FA
:1026D0000895EDE9F4E016861586128611861486B3
:1026E0001386E0E7F4E016861586128611861486B6
:1026F000138610928B0410928A04EEE4F4E016869E
:1027000015861486138612861186EEE8F4E0168686
:10271000158614861386128611861092B8041092BC
:10272000B704EBEBF4E01486138616861586128642
:102730001186E0E3F4E01486138616861586128669
:102740001186EFE3F4E0148613861686158612864A
:102750001186089580916003823049F08091EC03E6
:102760009091ED0398609093ED038093EC030895AE
:1027700080916003823049F08091EC039091ED03E9
:1027800080689093ED038093EC0308958091EC03AF
:102790009091ED0392609093ED038093EC03089584
:1027A0008091EC039091ED03997F9093ED038093DA
:1027B000EC031092610308958091EC039091ED0376
:1027C00080629093ED038093EC0308958091EC0375
:1027D0009091ED038F799093ED038093EC03109229
:1027E000610308958091EC039091ED0390629093C2
:1027F000ED038093EC038091EF038B3018F0815050
:102800008093EF036091EF0381E00E94C80961E0CB
:1028100082E00E94FA0908958091EC039091ED0303
:1028200090629093ED038093EC038091EE038B30E4
:1028300018F081508093EE036091EE0380E00E94D7
:10284000C80980E00E94D909029729F461E082E07A
:102850000E94FA0904C061E080E00E94FA098091B8
:1028600060038F5F80936003823019F466E00E94FA
:10287000FA0908958091EC039091ED039062909392
:10288000ED038093EC038091EE03833618F48F5FA1
:102890008093EE036091EE0380E00E94C80980E01F
:1028A0000E94D909029729F461E082E00E94FA09A6
:1028B00004C061E080E00E94FA09809160038F5FAC
:1028C00080936003823019F466E00E94FA0908954B
:1028D0000E94E9098091EC039091ED03977E90931B
:1028E000ED038093EC0310926103809160038823D1
:1028F00019F081508093600380E00E94D90902970B
:1029000029F461E082E00E94FA09089561E080E024
:102910000E94FA0908950E94E9098091EC039091C0
:10292000ED038F779E7F9093ED038093EC031092DD
:10293000610380916003882319F0815080936003C4
:1029400080E00E94D909029729F461E082E00E94A8
:10295000FA09089561E080E00E94FA0908958091E3
:10296000EC039091ED0390629093ED038093EC0360
:102970008091EF03833628F48F5F8093EF030E94EA
:10298000840C6091EF0381E00E94C80961E082E05D
:102990000E94FA090895EBE0F5E08091EE03808350
:1029A0008091EF038183BF0183E00E94F9100895B5
:1029B0008091EC039091ED0390629093ED038093EE
:1029C000EC038091EE038A3038F48AE08093EE03C2
:1029D0006AE080E00E94C8090E94CB140E9472073E
:1029E000892B39F40E9495078091EF030E94FC1116
:1029F00008950E947D070E94271208958091EC039C
:102A00009091ED0390629093ED038093EC0380919D
:102A1000EF038A3038F48AE08093EF036AE081E0C4
:102A20000E94C8090E94F111892B19F00E942712F7
:102A300008958091EF030E946A12089587EC95E152
:102A4000909367048093660460E082E00E94FA0934
:102A50000E94400A69E075E083E00E944111809184
:102A60000A0596EF980F9A3510F48093EF03809142
:102A7000090596EF980F9A3510F48093EE030895A8
:102A80001092600342E068EE73E080E090E00E9404
:102A9000920B0E94580780E00E94BE110E945A0CBF
:102AA0000E94560F0E945B0581E090E09093ED0339
:102AB0008093EC03EDE9F4E08AEA93E19687858759
:102AC0008CE094E19487838788E694E192878187FC
:102AD000E0E7F4E088EB93E1968785878AE394E169
:102AE000948783878BE894E19287818788ED94E1CE
:102AF00090938B0480938A04EEE4F4E086EC93E1F7
:102B00009687858780ED93E19287818782EF93E1B5
:102B100094878387EEE8F4E08CED93E196878587D0
:102B200086EE93E1928781878FEA94E19487838789
:102B30008EEF94E19093B8048093B7046091EE0314
:102B400080E00E94C8096091EF0381E00E94C809FB
:102B50000895109260030E946C070E9469130E94FE
:102B60006F0C0E94E5060E9427121092ED0310924E
:102B7000EC0360E082E00E94FA098091EC039091FE
:102B8000ED038E7F9093ED038093EC0308950E94F4
:102B9000CB148091EC0380FF03C00E94A91502C0F2
:102BA0000E9440158091EC039091ED039062909308
:102BB000ED038093EC03089540910F0550911005AB
:102BC00060911105709112058091580390915903FD
:102BD000A0915A03B0915B0384179507A607B70726
:102BE00008F0A4C08091EC0385FF21C06091EF0341
:102BF0006336E8F46B3040F06F5F6093EF0381E081
:102C00000E94C8090E94840C809164038F5F8093A6
:102C100064038F3060F08091EC039091ED038F7D21
:102C200080649093ED038093EC0310926403809191
:102C3000EC039091ED0391FF21C06091EF036623B7
:102C4000E9F06B3040F061506093EF0381E00E9447
:102C5000C8090E94840C809163038F5F8093630393
:102C60008F3060F08091EC039091ED039D7F946034
:102C70009093ED038093EC03109263038091EC0337
:102C800087FF1DC06091EE036336C8F46F5F6093E9
:102C9000EE0380E00E94C809809162038F5F8093F9
:102CA00062038F3060F08091EC039091ED038F7799
:102CB00091609093ED038093EC03109262038091F6
:102CC000EC039091ED0393FF1DC06091EE036B3018
:102CD000C8F061506093EE0380E00E94C8098091C3
:102CE00061038F5F809361038F3060F08091EC030C
:102CF0009091ED03977F90619093ED038093EC03A7
:102D0000109261038091580390915903A0915A0346
:102D1000B0915B03805B9F4FAF4FBF4F80935803D1
:102D200090935903A0935A03B0935B030895409185
:102D30000F05509110056091110570911205809159
:102D40005C0390915D03A0915E03B0915F038417D3
:102D50009507A607B70708F057C08091EF038336A1
:102D600070F48091EC0386FF0AC00E94840C60918D
:102D7000EF036F5F6093EF0381E00E94C8096091E9
:102D8000EF036B3070F08091EC039091ED0392FFB4
:102D900008C061506093EF0381E00E94C8090E945F
:102DA000840C6091EE03633660F48091EC039091A3
:102DB000ED0390FF06C06F5F6093EE0380E00E941A
:102DC000C8096091EE036B3060F08091EC03909144
:102DD000ED0394FF06C061506093EE0380E00E9413
:102DE000C80980915C0390915D03A0915E03B0914E
:102DF0005F034E96A11DB11D80935C0390935D030C
:102E0000A0935E03B0935F0308950E946913089531
:102E10001F920F920FB60F9211242F933F934F934F
:102E20005F936F937F938F939F93AF93BF93EF9332
:102E3000FF93EDE0F5E080819181C29691838083DC
:102E400080819181883E934088F082819381A48122
:102E5000B5810196A11DB11D82839383A483B5839F
:102E600080819181885E93409183808385E693E0A1
:102E70000E945809FF91EF91BF91AF919F918F915F
:102E80007F916F915F914F913F912F910F900FBE66
:102E90000F901F90189593B7986093BF6CBF8230C6
:102EA00099F028F4882341F0813051F019C0833023
:102EB00079F0843089F014C083B7816083BF13C078
:102EC00083B7826083BF0FC083B7836083BF0BC0AB
:102ED00083B7846083BF07C083B7856083BF03C0A7
:102EE00083B7816083BF89B7826089BF089523E07B
:102EF000FC012483108211821282138208950F93A1
:102F00001F9321E0FC01248300910F05109110050F
:102F10002091110530911205400F511F621F731F40
:102F200040835183628373831F910F91089521E041
:102F300030E0FC018481813011F020E030E0C901F3
:102F40000895FC0184818130B1F480910F05909146
:102F50001005A0911105B091120540815181628147
:102F60007381481759076A077B0740F482E084831E
:102F700081E090E008958FEF9FEF089580E090E06A
:102F8000089521E030E0FC018481833011F020E0DD
:102F900030E0C9010895CF92DF92EF92FF920F9334
:102FA0001F93CF93DF93EC016A017B018C81811128
:102FB00006C083E08C83188219821A821B82CE019C
:102FC0000E94A1178C01019731F4B701A601CE012F
:102FD0000E947F170DC08C81833041F4B701A60198
:102FE000CE010E947F1700E010E002C000E010E078
:102FF000C801DF91CF911F910F91FF90EF90DF906B
:10300000CF9008951F920F920FB60F9211242F9315
:103010003F934F935F938F939F93EF93FF932BB1C6
:103020003CB128718091690390E00196409168035A
:1030300050E08417950739F080936903FC01E45947
:10304000FC4F308301C022E020936703FF91EF9192
:103050009F918F915F914F913F912F910F900FBE54
:103060000F901F9018951F920F920FB60F92112478
:103070008F939F93EF93FF9390916B0380916A03DB
:10308000981771F080916A0390E001968F779927E5
:1030900080936A03FC01E459FC4F80818CB901C024
:1030A0005598FF91EF919F918F910F900FBE0F90C8
:1030B0001F901895F89410926B0310926A03109267
:1030C000690310926803789499231CF422E02BB9C9
:1030D0009F7790BD89B988E98AB986E880BD08954F
:1030E00040916B0350E04F5F5F4F4F775527209122
:1030F0006A0330E042175307D1F3FA01E459FC4F59
:10310000808340936B03559A0895CF93DF93EC012E
:103110008881882331F021960E947018899181114D
:10312000FBCFDF91CF9108955058BB27AA270E946B
:10313000AC180C94211A0E94131A38F00E941A1A23
:1031400020F039F49F3F19F426F40C94101A0EF471
:10315000E095E7FB0C940A1AE92F0E94321A58F303
:10316000BA17620773078407950720F079F4A6F56C
:103170000C94541A0EF4E0950B2EBA2FA02D0B01CF
:10318000B90190010C01CA01A0011124FF27591BAC
:1031900099F0593F50F4503E68F11A16F040A22FB2
:1031A000232F342F4427585FF3CF46953795279523
:1031B000A795F0405395C9F77EF41F16BA0B620B22
:1031C000730B840BBAF09150A1F0FF0FBB1F661F69
:1031D000771F881FC2F70EC0BA0F621F731F841FAC
:1031E00048F4879577956795B795F7959E3F08F0D2
:1031F000B0CF9395880F08F09927EE0F9795879594
:1032000008950E9415190C94211A0E941A1A58F058
:103210000E94131A40F029F45F3F29F00C940A1A17
:1032200051110C94551A0C94101A0E94321A68F31A
:103230009923B1F3552391F3951B550BBB27AA276F
:1032400062177307840738F09F5F5F4F220F331FA9
:10325000441FAA1FA9F335D00E2E3AF0E0E832D071
:1032600091505040E695001CCAF72BD0FE2F29D074
:10327000660F771F881FBB1F261737074807AB0746
:10328000B0E809F0BB0B802DBF01FF2793585F4FBB
:103290003AF09E3F510578F00C940A1A0C94551A96
:1032A0005F3FE4F3983ED4F3869577956795B7959D
:1032B000F7959F5FC9F7880F911D9695879597F9A8
:1032C0000895E1E0660F771F881FBB1F6217730721
:1032D0008407BA0720F0621B730B840BBA0BEE1F36
:1032E00088F7E09508950E947A196894B1110C94BA
:1032F000551A08950E943A1A88F09F5798F0B92FEE
:103300009927B751B0F0E1F0660F771F881F991F1A
:103310001AF0BA95C9F714C0B13091F00E94541A4E
:10332000B1E008950C94541A672F782F8827B85F5E
:1033300039F0B93FCCF3869577956795B395D9F772
:103340003EF490958095709561957F4F8F4F9F4F7C
:103350000895E89409C097FB3EF490958095709588
:1033600061957F4F8F4F9F4F9923A9F0F92F96E9D1
:10337000BB279395F695879577956795B795F11146
:10338000F8CFFAF4BB0F11F460FF1BC06F5F7F4FE3
:103390008F4F9F4F16C0882311F096E911C07723F5
:1033A00021F09EE8872F762F05C0662371F096E8FE
:1033B000862F70E060E02AF09A95660F771F881FCD
:1033C000DAF7880F9695879597F90895990F000871
:1033D000550FAA0BE0E8FEEF16161706E807F907E7
:1033E000C0F012161306E407F50798F0621B730B82
:1033F000840B950B39F40A2661F0232B242B252B03
:1034000021F408950A2609F4A140A6958FEF811DA5
:10341000811D089597F99F6780E870E060E0089546
:103420009FEF80EC089500240A94161617061806DC
:103430000906089500240A941216130614060506B8
:103440000895092E0394000C11F4882352F0BB0F49
:1034500040F4BF2B11F460FF04C06F5F7F4F8F4FAC
:103460009F4F089557FD9058440F551F59F05F3FE7
:1034700071F04795880F97FB991F61F09F3F79F096
:1034800087950895121613061406551FF2CF469518
:10349000F1DF08C0161617061806991FF1CF86959A
:1034A0007105610508940895E894BB27662777277E
:1034B000CB0197F908950E94E61908F48FEF08955B
:1034C0000E94731A0C94211A0E94131A38F00E9459
:1034D0001A1A20F0952311F00C940A1A0C94101A61
:1034E00011240C94551A0E94321A70F3959FC1F35F
:1034F000950F50E0551F629FF001729FBB27F00DA2
:10350000B11D639FAA27F00DB11DAA1F649F6627F6
:10351000B00DA11D661F829F2227B00DA11D621F45
:10352000739FB00DA11D621F839FA00D611D221FFF
:10353000749F3327A00D611D231F849F600D211DE3
:10354000822F762F6A2F11249F5750409AF0F1F066
:1035500088234AF0EE0FFF1FBB1F661F771F881FCF
:1035600091505040A9F79E3F510580F00C940A1AE3
:103570000C94551A5F3FE4F3983ED4F38695779503
:103580006795B795F795E7959F5FC1F7FE2B880F75
:10359000911D9695879597F90895FA01EE0FFF1FF3
:1035A000309621053105A1F16115710561F480386E
:1035B000BFE39B0749F168949038810561F080383A
:1035C000BFEF9B0741F099234AF5FF3FE105310525
:1035D000210519F1E8940894E795D901AA2329F463
:1035E000AB2FBE2FF85FD0F310C0FF5F70F4A6952D
:1035F000E0F7F73950F019F0FF3A38F49F779F93CE
:103600000DD00F9007FC9058089546F00C94101AB6
:1036100060E070E080E89FE308954FE79F775F9355
:103620004F933F932F930E94C81B2F913F914F912F
:103630005F910E94601A0C94251B29F416F00C94DB
:103640000A1A0C94541A0C94101A0E943A1AA8F3ED
:103650009638A0F707F80F92E8942BE33AEA48EB84
:103660005FE70E94761A0F920F920F924DB75EB7E6
:103670000F920E94101CE2E5F2E00E94571B4F914E
:103680005F91EF91FF91E595EE1FFF1F49F0FE5707
:10369000E0684427EE0F441FFA95E1F74195550B7A
:1036A0000E948A1B0F9007FE0C947E1B0895DF93E7
:1036B000CF931F930F93FF92EF92DF927B018C01C8
:1036C000689406C0DA2EEF010E94731AFE01E89496
:1036D000A5912591359145915591A6F3EF010E9451
:1036E000AC18FE019701A801DA9469F7DF90EF901A
:1036F000FF900F911F91CF91DF9108959B01AC0135
:1037000060E070E080E89FE30C9401190C940A1AC1
:103710000C94441C0E943A1AD8F39923C9F3940FCD
:10372000511DA3F39150504094F059F0882332F08A
:10373000660F771F881F91505040C1F79E3F51057B
:103740002CF7880F911D9695879597F908955F3FFF
:10375000ACF0983E9CF0BB27869577956795B7951A
:1037600008F4B1609395C1F7BB0F58F711F460FFEF
:10377000E8CF6F5F7F4F8F4F9F4FE3CF0C94551A69
:1037800016F00C94441C0C94101A68940C940A1AA9
:103790000E943A1AA8F39923C1F3AEF3DF93CF93B3
:1037A0001F930F93FF92C92FDD2788232AF02197BB
:1037B000660F771F881FDAF720E030E040E85FEB04
:1037C0009FE3883920F0803E38F021968F770E9461
:1037D0009518EAE7F2E004C00E949518E7EAF2E0E3
:1037E0000E94571B8B01BE01EC01FB2E6F57710924
:1037F0007595771F880B990B0E94AB1928E132E76A
:1038000041E35FE30E94731AAF2D9801AE01FF9070
:103810000F911F91CF91DF910E94AC180C94211A47
:10382000FA01DC01AA0FBB1F9B01AC01BF5728F4B2
:10383000222733274427507820C0B75190F4AB2F6C
:103840000024469537952795011CA395D2F30020B7
:1038500071F0220F331F441FB395DAF30ED00C948E
:10386000941861307105A0E88A07B94630F49B01CD
:10387000AC016627772788279078309621F020833F
:1038800031834283538308959F3F31F0915020F458
:10389000879577956795B795880F911D969587952C
:1038A00097F90895A0E1B0E0E8E5FCE10C94F81F79
:1038B0007C011B016A01FC0117821682838181FF52
:1038C00044C39E012F5F3F4F3901F7019381F101FE
:1038D00093FD859193FF81911F01882309F431C3E2
:1038E000853239F493FD859193FF81911F018532D3
:1038F00039F4B70190E00E943E2156016501E5CF01
:1039000010E0512C912CFFE1F915D8F08B3279F0B1
:1039100038F4803279F08332A1F4F92DF0612EC0B1
:103920008D3261F0803369F4292D21602DC0392D4D
:103930003260932E892D8460982E2AC0E92DE8608C
:1039400015C097FC2DC020ED280F2A3088F496FE74
:1039500006C03AE0139F200D1124122F19C08AE0EF
:10396000589E200D1124522EE92DE0629E2E10C08B
:103970008E3231F496FCE5C2F92DF0649F2E08C01A
:103980008C3621F4292D2068922E02C0883641F40D
:10399000F10193FD859193FF81911F018111B3CFB7
:1039A0009BEB980F933020F4992D9061805E07C0B7
:1039B0009BE9980F933008F066C1992D9F7E96FF82
:1039C00016E09F73992E853619F49064992E08C0DD
:1039D000863621F4392F3068932E02C01111115010
:1039E00097FE07C01C3350F444244394410E27E053
:1039F0000BC0183038F027E017E005C027E09CE343
:103A0000492E02C0212F412C560184E0A80EB11C82
:103A1000F6016081718182819381042DA3010E944E
:103A200043206C01F981FC87F0FF02C0F3FF06C060
:103A300091FC06C092FE06C000E205C00DE203C084
:103A40000BE201C000E08C858C7019F001115AC2A4
:103A50009BC297FE10C04C0CFC85F4FF04C08A8109
:103A6000813309F44A94141474F528E0241578F588
:103A700088E0482E2CC096FC2AC0812F90E08C153F
:103A80009D059CF03CEFC3163FEFD30674F0892DE3
:103A90008068982E0AC0E2E0F0E0EC0FFD1FE10F15
:103AA000F11D8081803319F411501111F4CF97FE6C
:103AB0000EC044244394410E812F90E0C816D906CD
:103AC0002CF41C1904C04424439401C010E097FE58
:103AD00006C01C141D0434F4C601019605C085E01F
:103AE00090E002C081E090E001110196112331F0D5
:103AF000212F30E02F5F3F4F820F931F252D30E0A5
:103B00008217930714F4581A01C0512C892D89701B
:103B100049F4552039F0B70180E290E00E943E213F
:103B20005A94F7CF002329F0B701802F90E00E942C
:103B30003E2193FC09C0552039F0B70180E390E0A5
:103B40000E943E215A94F7CF97FE4CC04601D7FE03
:103B500002C0812C912CC60188199909F301E80F44
:103B6000F91FFE87ED87960124193109388B2F87BD
:103B7000012F10E01195019511093FEF831693066F
:103B800029F4B7018EE290E00E943E21C814D904C6
:103B90004CF08F8598898815990524F4ED85FE856C
:103BA000818101C080E3F1E08F1A91082D853E8567
:103BB0002F5F3F4F3E872D87801691062CF0B7016F
:103BC00090E00E943E21D9CFC814D90441F49A81D3
:103BD000963320F4953319F43C8534FF81E3B70123
:103BE00090E04EC08A81813319F09C859F7E9C872E
:103BF000B70190E00E943E21111105C094FC18C04D
:103C000085E690E017C0B7018EE290E00E943E2169
:103C10001E5F82E001E0080FF301E80FF11D8081D3
:103C2000B70190E00E943E21802F0113F3CFE6CF31
:103C300085E490E0B7010E943E21D7FC06C0C11484
:103C4000D10441F4EC85E4FF05C0D194C194D108BE
:103C50008DE201C08BE2B70190E00E943E2180E33B
:103C60002AE0C216D1042CF08F5FFAE0CF1AD108F7
:103C7000F7CFB70190E00E943E21B701C601C09680
:103C80000E943E2154C1833631F0833779F0833569
:103C900009F056C020C0560132E0A30EB11CF60157
:103CA0008081898301E010E0630112C05601F2E0D7
:103CB000AF0EB11CF601C080D18096FE03C0612F0B
:103CC00070E002C06FEF7FEFC6010E9433218C01CC
:103CD000F92DFF7714C0560122E0A20EB11CF601A7
:103CE000C080D18096FE03C0612F70E002C06FEFEC
:103CF0007FEFC6010E941B218C01F92DF0689F2ED9
:103D0000F3FD1AC0852D90E008171907A8F4B70134
:103D100080E290E00E943E215A94F4CFF60197FC95
:103D2000859197FE81916F01B70190E00E943E213D
:103D300051105A94015011090115110579F7F7C076
:103D4000843611F0893661F5560197FE09C024E0EA
:103D5000A20EB11CF60160817181828193810AC03B
:103D6000F2E0AF0EB11CF60160817181072E000CEC
:103D7000880B990BF92DFF769F2E97FF09C0909520
:103D80008095709561957F4F8F4F9F4FF0689F2E64
:103D90002AE030E0A3010E949621C82EC6183FC039
:103DA000092D853721F40F7E2AE030E01DC0097F00
:103DB0008F3691F018F4883559F0C3C0803719F068
:103DC000883711F0BEC0006104FF09C0046007C05D
:103DD00094FE08C0066006C028E030E005C020E17F
:103DE00030E002C020E132E0560107FF09C084E064
:103DF000A80EB11CF601608171818281938108C097
:103E0000F2E0AF0EB11CF6016081718180E090E0BC
:103E1000A3010E949621C82EC6180F77902E96FEF9
:103E20000BC0092D0E7FC11650F494FE0AC092FCFF
:103E300008C0092D0E7E05C0DC2C092D03C0DC2C2A
:103E400001C0D12E04FF0DC0FE01EC0DF11D8081DB
:103E5000803311F4097E09C002FF06C0D394D394C5
:103E600004C0802F867809F0D39403FD11C000FFB1
:103E700006C01C2DD51480F4150D1D190DC0D514C8
:103E800058F4B70180E290E00E943E21D394F7CF2E
:103E9000D51410F45D1801C0512C04FF10C0B701F7
:103EA00080E390E00E943E2102FF17C001FD03C0A5
:103EB00088E790E002C088E590E0B7010CC0802F51
:103EC000867859F001FF02C08BE201C080E207FD55
:103ED0008DE2B70190E00E943E21C11638F4B7018F
:103EE00080E390E00E943E211150F7CFCA94F30185
:103EF000EC0DF11D8081B70190E00E943E21C110C0
:103F0000F5CF15C0F4E0F51560F584E0581A93FE7E
:103F10001FC0011127C02C8523FF2AC004ED12E029
:103F2000392D3071932EF8018491811124C05520D0
:103F300009F4E4CCB70180E290E00E943E215A945B
:103F4000F6CFF7018681978126C08FEF9FEF23C0C0
:103F5000B70180E290E00E943E215A945110F8CFC0
:103F6000D8CF512CB701802F90E00E943E21D3CFB3
:103F700008ED12E0D5CF91108052B70190E00E9479
:103F80003E210F5F1F4FCFCF23E0251510F483E0B4
:103F9000BDCF512CC0CF6096E2E10C94142097FB6A
:103FA000072E16F4009407D077FD09D00E942F2029
:103FB00007FC05D03EF4909581959F4F089570952C
:103FC00061957F4F0895EE0FFF1F0590F491E02D4E
:103FD0000994A29FB001B39FC001A39F700D811DE2
:103FE0001124911DB29F700D811D1124911D089502
:103FF0002F923F924F925F926F927F928F929F92F9
:10400000AF92BF92CF92DF92EF92FF920F931F93E6
:10401000CF93DF93CDB7DEB7CA1BDB0B0FB6F89497
:10402000DEBF0FBECDBF09942A88398848885F84D7
:104030006E847D848C849B84AA84B984C884DF8048
:10404000EE80FD800C811B81AA81B981CE0FD11D2C
:104050000FB6F894DEBF0FBECDBFED010895AA1BC9
:10406000BB1B51E107C0AA1FBB1FA617B70710F063
:10407000A61BB70B881F991F5A95A9F78095909595
:10408000BC01CD010895283008F027E03327DA017C
:10409000990F311D87FD916000966105710539F416
:1040A00032602E5F3D9330E32A95E1F708959F3FFC
:1040B00030F080387105610509F03C5F3C5F3D934D
:1040C000913008F08068911DDF93CF931F930F9379
:1040D000FF92EF92192F987F9695E92F96959695D6
:1040E000E90FFF27EA5CFC4F99273327EE24FF24D2
:1040F000A701E70105900894079428F4360FE71EFE
:10410000F81E491F511D660F771F881F991F0694BF
:10411000A1F70590079428F4E70EF81E491F561FD3
:10412000C11D770F881F991F661F0694A1F7059080
:10413000079428F4F80E491F561FC71FD11D880F7A
:10414000991F661F771F0694A1F70590079420F426
:10415000490F561FC71FD81F990F661F771F881F4B
:104160000694A9F784911095177041F0D695C795DC
:1041700057954795F794E7941A95C1F7ECEDF2E05F
:1041800068941590159135916591959105907FE210
:104190007395E118F10A430B560BC90BD009C0F710
:1041A000E10CF11E431F561FC91FD01D7EF4703352
:1041B00011F48A95E6CFE894015030F0080F0AF424
:1041C0000027021708F4202F2395022F7A3328F0B6
:1041D00079E37D932A95E9F710C07D932A9589F6B6
:1041E000069497956795379517951794E118F10AF6
:1041F000430B560BC90BD00998F023957E9173950C
:104200007A3308F070E37C932013B8F77E917061E5
:104210007D9330F0839571E37D9370E32A95E1F708
:104220001124EF90FF900F911F91CF91DF9199276B
:1042300087FD90950895FC01059061507040011034
:10424000D8F7809590958E0F9F1F0895FB01DC0194
:1042500004C08D910190801921F441505040C8F75D
:10426000881B990B0895FC0161507040019001106A
:10427000D8F7809590958E0F9F1F08950F931F93E9
:10428000CF93DF93FB01238121FD03C08FEF9FEFCD
:104290002CC022FF16C046815781248135814217E8
:1042A000530744F4A081B1819D012F5F3F4F3183BB
:1042B00020838C93268137812F5F3F4F378326835E
:1042C00014C08B01EC01FB010084F185E02D099500
:1042D000892BE1F6D80116968D919C91179701963E
:1042E00017969C938E931697CE01DF91CF911F91D5
:1042F0000F910895AEE0B0E0E0E8F1E20C94062002
:104300008C0186E08C831A8309838FEF9FE79E835D
:104310008D83CE0101960E94521CEF81F885E00F3B
:10432000F11F10822E96E4E00C942220FA01AA27B5
:10433000283051F1203181F1E8946F936E7F6E5FE8
:104340007F4F8F4F9F4FAF4FB1E03ED0B4E03CD096
:10435000670F781F891F9A1FA11D680F791F8A1F79
:10436000911DA11D6A0F711D811D911DA11D20D0E0
:1043700009F468943F912AE0269F11243019305D9A
:104380003193DEF6CF010895462F4770405D41938B
:10439000B3E00FD0C9F7F6CF462F4F70405D4A33D8
:1043A00018F0495D31FD4052419302D0A9F7EACFA0
:1043B000B4E0A6959795879577956795BA95C9F7CF
:1043C00000976105710508959B01AC010A2E0694C2
:1043D0005795479537952795BA95C9F7620F731F7B
:0C43E000841F951FA01D0895F894FFCFC6
:1043EC009D0470047F045D044E048E04AC04BB0475
:1043FC0030043F0401000100631463320100FFFE2E
:10440C00F92F2D2D2D2D2D2D2D2D2D2D2D535441A1
:10441C0052542053595354454D2D2D2D2D2D2D2DAA
:10442C002D2D2D2D2D2F0A00636F6E663A202564DD
:10443C000A006D656E75206166746572206368652F
:10444C00636B2025642025642025642025640A0DD7
:10445C0000706173732025640A00636C6561725F80
:10446C0070617373776F72640A00656E7465725F46
:10447C00746F5F6D656E750A006D656E755F726544
:10448C0061642025642025642025642025640A0DA0
:10449C000001000204030564636D6F746F72206980
:1044AC006E69740A0064636D6F746F722073746F3D
:1044BC00700A0064636D6F746F72206572726F7234
:1044CC000A004552524F523A20726573657420743B
:1044DC00696D657200636F756E745F6D6F746F726A
:1044EC005F74696D656F75745F776169743A2025C7
:1044FC00640A0D00636F756E745F6D6F746F725F1D
:10450C0074696D656F75745F6178656C65726174E3
:10451C00653A2025640A0D004552524F52205354DF
:10452C00415455533A204552525F535F57414954B9
:10453C000A0D004552524F52205354415455533A90
:10454C00204552525F535F5452590A0D0045525246
:10455C004F52205354415455533A204552525F53B5
:10456C005F4F4B0A0D004D45415355524520534565
:10457C0052564F2043616C6962726174696F6E2090
:10458C0076616C7565203D2025640A0053455256B2
:10459C004F3A20696E69740A00534552564F5F4476
:1045AC00454C415945445F4F50454E2025640A0007
:1045BC00534552564F5F434C4F5345442025640A94
:1045CC0000534552564F5F4F5050454E45442025A1
:1045DC00640A00534552564F5F5452592025640AC1
:1045EC0000534552564F3A205A65726F20747279B7
:0645FC0020636E740A004A
:00000001FF
