S01600006E6F77795F737465726F776E696B2E73726563FC
S11300000C94EB010C9408020C9408020C94080262
S11300100C9408020C9408020C9408020C94080234
S11300200C9408020C9408020C943E170C940802D9
S11300300C9408020C9438180C9469180C94080257
S11300400C9408020C9408020C9408020C94080204
S11300500C94080286088D08900896089C08A1084C
S1130060A708AE08B208BA08090909090909090963
S113007009090909090909090909090909090909EC
S113008009090909090909090909090909090909DC
S113009009090909090909090909090909090909CC
S11300A009090909090909090909090909090909BC
S11300B009090909090909090909090909090909AC
S11300C0090909090909090909090909090909099C
S11300D0090909090909090909090909090909098C
S11300E0090909090909090909090909090909097C
S11300F0090909090909090909090909090909096C
S1130100090909090909090909090909090909095B
S1130110090909090909C108C808CE08D308D9087A
S1130120DF0809090909090909090909F808090978
S11301300909E708EC080909E408F20809090909AA
S1130140090909090909090909090909090909091B
S1130150090909090909090909090909090909090B
S113016009090909090909090909090909090909FB
S113017009090909090909090909090909090909EB
S113018009090909090909090909090909090909DB
S113019009090909090909090909090909090909CB
S11301A009090909090909090909090909090909BB
S11301B009090909090909090909090909090909AB
S11301C0090909090909090909090909090909099B
S11301D0090909090909090909090909090909098B
S11301E0090909090909090909090909090909097B
S11301F0090909090909090909090909090909096B
S1130200090909090909090909090909090909095A
S1130210090909090909090909090909090909094A
S1130220090909090909090909090909090909093A
S1130230090909090909090909090909090909092A
S113024009090909FC080809060904090209000941
S1130250FE0807634236B79BD8A71A39685618AE0A
S1130260BAAB558C1D3CB7CC5763BD6DEDFD753EE7
S1130270F6177231BF000000803F08000000BE92F4
S11302802449123EABAAAA2ABECDCCCC4C3E0000D7
S11302900080BEABAAAAAA3E00000000BF00000076
S11302A0803F0000000000084178D3BB4387D1138E
S11302B03D190E3CC3BD4282AD2B3E68EC8276BE36
S11302C0D98FE1A93E4C80EFFFBE01C4FF7F3F0000
S11302D0000000006E616E00696E660000407A10D6
S11302E0F35A00A0724E18090010A5D4E80000E8E3
S11302F07648170000E40B54020000CA9A3B000041
S113030000E1F505000080969800000040420F00CF
S11303100000A08601000000102700000000E80390
S1130320000000006400000000000A00000000005B
S11303300100000000002C76D888DC674F0823DF1A
S1130340C1DFAE59E1B1B796E5E3E453C63AE651ED
S1130350997696E8E6C28426EB898C9B62ED407C14
S11303606FFCEFBC9C9F40F2BAA56FA5F490055AB0
S11303702AF75C936B6CF9676DC11BFCE0E40D47D5
S1130380FEF520E6B500D0ED902E030094357705F8
S11303900080841E080000204E0A000000C80C33B0
S11303A03333330F986E12831141EF8D2114893B3F
S11303B0E65516CFFEE6DB18D1844B381BF77C1DBF
S11303C0901DA4BBE424203284725E228100C9F112
S11303D024ECA1E53D2711241FBECFE5D8E0DEBF04
S11303E0CDBF12E0A0E6B0E0E4EEF3E402C0059075
S11303F00D92A631B107D9F724E0A6E1B2E001C01D
S11304001D92A63BB207E1F70E9431020C94F02141
S11304100C940000CF93DF93CDB7DEB7AE014B5FF2
S11304205F4FFA0161917191AF0180E993E00E94FD
S11304307621DF91CF9108958C9A8E9ABD9A899AEC
S1130440089562E381E00E9481170E943D080E94A2
S1130450C7040E9454150E94380F80B78B7F80BF59
S1130460089580E00E94EB110E941C0278940E947F
S1130470210287E890E09F938F930E940A020E94D2
S1130480E3060E944A100F900F900E94390A0E94BE
S1130490950B0E941D040E9412160E94CD16809195
S11304A08E030E94C10780918F030E94D0120E9484
S11304B012060E94840C0E94FA0E0E94560F0E949B
S11304C082020E94CB020E94DE04DFCF83E00E94FE
S11304D08610BC01660F771F660F771F860F971F64
S11304E0BC0180E090E00E94A51926E636E646EBC2
S11304F050E40E945C1A20E030E040E85AE30E9495
S11305005C1A08954091B2045091B3046091B4040C
S11305107091B50480911B0290911C02A0911D0260
S1130520B0911E0284179507A607B70798F583E0D4
S11305300E948610893522E0920718F021E020936A
S11305401F028B3821E0920718F422E020931F0247
S11305508E3521E0920718F423E020931F028C5873
S113056091408C3C910510F410921F028091B204CA
S11305709091B304A091B404B091B5048C599F4FE9
S1130580AF4FBF4F80931B0290931C02A0931D0298
S1130590B0931E0208954091B2045091B304609147
S11305A0B4047091B5048091170290911802A0913F
S11305B01902B0911A0284179507A607B70708F025
S11305C086C080911F028130E9F030F0823099F1C9
S11305D0833009F467C00895C598809117029091FB
S11305E01802A0911902B0911A0288539F4FAF4F7D
S11305F0BF4F8093170290931802A0931902B093EF
S11306001A02089598B380E2892788BB8091170263
S113061090911802A0911902B0911A0286509F4F2E
S1130620AF4FBF4F8093170290931802A093190203
S1130630B0931A02089580911602811119C081E0C5
S113064080931602C59A8091170290911802A09186
S11306501902B0911A028C509E4FAF4FBF4F809336
S1130660170290931802A0931902B0931A020895E6
S1130670813069F510921602C59880911702909105
S11306801802A0911902B0911A0284529A4FAF4FE6
S1130690BF4F8093170290931802A0931902B0934E
S11306A01A020895C59A8091170290911802A09198
S11306B01902B0911A0288519C4FAF4FBF4F8093DB
S11306C0170290931802A0931902B0931A02089586
S11306D0379897B1987F8770892B87B9379A08958F
S11306E0369A3699FECF84B195B108950E94680375
S11306F00E9470030895DC011696ED91FC91179702
S1130700208130E0F90118960C9002C0F595E79528
S11307100A94E2F7CF0181700895EDE3F4E01482C6
S113072081E08583148613861286118616861586C3
S113073026E330E03783268392E09087E0E1F4E01B
S1130740148285831486138612861186168615866E
S1130750378326838087EFE1F4E01482858314864F
S1130760138612861186168615863783268396E0AD
S11307709087EDEFF3E01482858314861386128646
S113078011861686158640E350E05783468393E02E
S11307909087EEEEF3E01482858314861386128626
S11307A0118616861586378326839087EEE2F4E059
S11307B014828583148613861286118616861586FE
S11307C069E370E077836683A4E0A087ECE4F4E057
S11307D014828583148613861286118616861586DE
S11307E043E350E0578346838087EBE5F4E01482CB
S11307F0858314861386128611861686158637839A
S11308002683A087E0EDF3E01482858314861386A3
S11308101286118616861586778366839087EFED98
S1130820F3E0148285831486138612861186168655
S113083015865783468310860895DF92EF92FF92C0
S11308400F931F93CF93DF934091B2045091B3045D
S11308506091B4047091B50480910C0490910D04DE
S1130860A0910E04B0910F0484179507A607B7074B
S113087008F085C08091B2049091B304A091B404AF
S1130880B091B5044496A11DB11D80930C049093BE
S11308900D04A0930E04B0930F04C0E6D0E00F2E15
S11308A0F4E7EF2EF0E0FF2EF02DDD24D3948E013B
S11308B0888199810E947B03E881F9819581891758
S11308C0E1F08583813061F488819981DC01199696
S11308D0ED91FC911A97309709F441C009953FC0F6
S11308E081113DC088819981DC011B96ED91FC91B9
S11308F01C97309721F0099502C0811130C0D801AE
S1130900ED91FC9180819181A281B3810196A11D19
S1130910B11D80839183A283B383D801ED91FC91AF
S113092080819181A281B3818897A105B10510F1DD
S113093084818130F9F00584F685E02D309719F033
S11309408DE394E00995D801ED91FC911197108203
S1130950118212821382ED91FC91D4820BC0D801D2
S1130960ED91FC9111971082118212821382ED9104
S1130970FC9114822296CE15DF0509F098CFDF9101
S1130980CF911F910F91FF90EF90DF9008950E94F7
S11309908D03BA98C29AB998C19ABE98C69A8B9890
S11309A0939ABB98C39AD498DC9AA198A99ABC98B4
S11309B0C49AD398DB9AA098A89A08954091B20457
S11309C05091B3046091B4047091B50480912402F1
S11309D090912502A0912602B091270284179507D1
S11309E0A607B70708F05FC086E00E943207882395
S11309F009F459C080918C0390918D0395FF37C001
S1130A008091200290912102A0912202B0912302B0
S1130A10892B8A2B8B2B59F5C09A80918C0390914A
S1130A208D039F7D90938D0380938C0381E090E0F0
S1130A30A0E0B0E08093200290932102A0932202D0
S1130A40B09323028091240290912502A091260262
S1130A50B09127028C599F4FAF4FBF4F8093240210
S1130A6090932502A0932602B09327020895C0987C
S1130A70109220021092210210922202109223025C
S1130A808091240290912502A0912602B091270220
S1130A90C296A11DB11D8093240290932502A093B8
S1130AA02602B09327020895B89AC09808958091B9
S1130AB07804882319F081508093780408958091F4
S1130AC07804873018F48F5F8093780408958091B8
S1130AD0780490E0FC01E059FB4F2081222329F0A7
S1130AE0FC01E059FB4F2150208308958091780444
S1130AF090E0FC01E059FB4F2081FC01EE0FFF1F49
S1130B00EC58FF4F3081231728F4FC01E059FB4FC8
S1130B102F5F20830895A4E7B0E0E0E7F4E028E73E
S1130B2034E011968C91119781931296E217F30792
S1130B30C1F7089580937A0487E595E0909349047A
S1130B40809348048FE595E090931C0480931B04E4
S1130B5085EC95E090932B0480932A0487E695E036
S1130B609093FA038093F90386E795E090933A040F
S1130B70809339048BE895E090935804809357044C
S1130B8067E082E00E94DE09089560E774E084E093
S1130B900E94DB1088E080938E04809389049498EB
S1130BA096980895CF93E0917904C1E0CE0FC09355
S1130BB07904F0E0E659FB4F80834C2F50E063EC5E
S1130BC070E08AE694E00E942221892B51F0109271
S1130BD0790486E0EAE6F4E0DF011D928A95E9F7FC
S1130BE005C0C63019F481E00E949A05CF9108959A
S1130BF085E00E94D205089584E00E94D2050895FC
S1130C0083E00E94D205089582E00E94D2050895EF
S1130C1081E00E94D205089580E00E94D2050895E3
S1130C2088E008954091B2045091B3046091B404F3
S1130C307091B5048091280290912902A0912A0212
S1130C40B0912B0284179507A607B70708F082C056
S1130C5080917A04882309F47DC04091B2045091B4
S1130C60B3046091B4047091B50446505F4F6F4F64
S1130C707F4F409328025093290260932A02709375
S1130C802B02823039F480917804823018F081E0AC
S1130C908093780480918E04873031F460917804D5
S1130CA08AE894E00E94860980918904873051F48F
S1130CB0E0917804F0E0E059FB4F608185E894E02E
S1130CC00E94860980918E04883049F580918904B8
S1130CD0883029F58091B2049091B304A091B404B2
S1130CE0B091B50488519C4FAF4FBF4F80932802F9
S1130CF090932902A0932A02B0932B0283E7809356
S1130D009D0481E68093910480E780938F04109280
S1130D109B048AE080938E048093890408958091D3
S1130D208E048A3051F4809189048A3031F410920F
S1130D308E041092890410927A04809178048111AF
S1130D4002C00E94DB1180917804813019F483E69B
S1130D500E94DB110895CF92DF92EF92FF92CF931E
S1130D60DF93C090B204D090B304E090B404F09048
S1130D70B50484E1C80ED11CE11CF11CC0EBD4E025
S1130D8012C08DE394E00E947B0381110CC082E0C9
S1130D900E949A058EEA90E09F938F930E940A0224
S1130DA00F900F9009C08A819B81AC81BD818C1505
S1130DB09D05AE05BF0528F3DF91CF91FF90EF901D
S1130DC0DF90CF9008958CE096E09093490480934F
S1130DD0480488E096E090931C0480931B0484E00C
S1130DE096E090932B0480932A0480E096E09093FD
S1130DF0FA038093F9038CEF95E090933A0480937F
S1130E00390488EF95E0909358048093570460E781
S1130E1074E084E00E942311A0E7B4E0E4E7F0E08A
S1130E2044E850E020E09C918081891718F4818186
S1130E308C932F5F11963296E417F507A1F72223BE
S1130E4029F060E774E084E00E94DB1010927904DA
S1130E5086E0EAE6F4E0DF011D928A95E9F70E9454
S1130E60AB060895883030F4E82FF0E0E059FB4FEA
S1130E708081089580E0089589EC90E09F938F939A
S1130E800E940A028FE794E00E94AD1781E08093EC
S1130E907B04949815BC8F9A979A0F900F9008959D
S1130EA010927B0415BC979A9498089590917B04B2
S1130EB0925021E030E0933010F020E030E0C9019E
S1130EC008950E945607009799F087ED90E09F934C
S1130ED08F930E940A0215BC979A9498EBE7F4E06A
S1130EE08081818381E080830F900F9081E090E086
S1130EF0089580917B048130D9F4949A85B58063F8
S1130F0085BD85B5806485BD85B5816085BDEBE70C
S1130F10F4E08081818384E0808348EE53E060E0E4
S1130F2070E08FE794E00E94B51781E090E00895A7
S1130F3080E090E0089580917E0490E0089585EE2D
S1130F4090E09F938F930E940A020E94610785E0BC
S1130F5080937B040F900F9008950E94560700978A
S1130F6029F083E080937B0481E090E008950E945F
S1130F705607009729F082E080937B0481E090E09B
S1130F800895CF93C82F46E950E060E070E08CE20A
S1130F9092E00E940118892B09F458C090917B04B7
S1130FA09330E9F028F49130B9F0923041F04EC01A
S1130FB0943009F448C0953009F442C047C0C09346
S1130FC07E042BEEC29FC001112463E670E00E94F0
S1130FD0CB1F6C5E63BD3AC010927E0437C0C3332E
S1130FE078F484E18C0F80937E042BEE829FC00101
S1130FF0112463E670E00E94CB1F6C5E63BD26C0C3
S11310008DEC8C0F843178F48FE08C0F80937E0408
S11310102BEE829FC001112463E670E00E94CB1F77
S11310206C5E63BD13C0C0937E042BEEC29FC001EF
S1131030112463E670E00E94CB1F6C5E63BD06C0A2
S113104015BC979A03C082E080937B04CF910895E6
S1131050AE9AAD9ADD9ADF9ADE9AAA9AAF9A08956B
S1131060929A10929204C79A10929E04AC9A10928B
S11310709004AB9A10929C040895A69AA59AD59AC6
S1131080D79AD69AA29AA79A8A9AE3E9F4E081E9D0
S113109094E091838083BF9A2DE934E033832283E3
S11310A0AAE8B4E011963C932E9313969C938E93E6
S11310B01297A49A2FE834E035832483A39A8BE90A
S11310C094E097838683E5E8F4E031832083938377
S11310D082830E9430080E9428080895CF93DF93EA
S11310E0FC01308120918400321709F495C0EC0191
S11310F00E942808E8818E2F90E08F3F910508F028
S113110088C0FC01E65DFF4F0C94DF1FAE98AD98DC
S1131110DD98DF98DE98AA987CC0AD98DD9879C0F8
S1131120AE98AD98AF98DE98DF9873C0AE98AD983E
S1131130AF98DD98DF986DC0AA98AF98AD98DD9808
S113114068C0AE98AA98AF98DD98DF9862C0AE9850
S1131150AA98AF98DD98DF98DE985BC0AE98AD98FA
S1131160DD9857C0AE98AD98DD98DF98DE98AA98C0
S1131170AF984FC0AE98AD98DD98DF98AA98AF9815
S113118048C0AE98AD98DD98DE98AA98AF9841C053
S1131190DD98DF98DE98AA98AF983BC0AE98DF98A8
S11311A0DE98AA9836C0AD98DD98DF98DE98AF989F
S11311B030C0AE98DF98DE98AA98AF982AC0AE984F
S11311C0DE98AA98AF9825C0DE98AF9822C0DD9823
S11311D0DF98DE98AF981DC0AE98AD98DE98AA98B7
S11311E0AF9817C0AE98DD98DF98AA98AF9811C051
S11311F0DF98DE98AA980DC0AF980BC0AA9809C0D2
S1131200DE9807C0DF9805C0DD9803C0AD9801C023
S1131210AE98888180938400DF91CF910895CF9315
S1131220DF93EC010E943008CE010E946E0884E036
S1131230C139D80729F4929881E08093920419C0A7
S113124084E0CD39D80729F4C79881E080939E04BF
S113125010C084E0CF38D80729F4AC9881E080939B
S1131260900407C0CB59D44021F4AB9881E080931B
S11312709C04DF91CF910895EF92FF921F93CF9337
S1131280DF93FC01C081D1812196D183C0839E016B
S1131290ADECBCEC0E94E51F9695879596958795D5
S11312A0969587959C01220F331F880F991F880FED
S11312B0991F880F991F820F931FC817D90701F52B
S11312C07F0110913102143058F4E12FF0E0EE0F59
S11312D0FF1FED56FB4F808191810E940F0902C0D0
S11312E00E9430081F5F153019F01093310202C0BC
S11312F010923102C039D14019F4F70111821082E1
S1131300DF91CF911F91FF90EF900895FC01643617
S1131310F8F4611108C0A081B1811C920280F381AC
S1131320E02D10820895A081B1819DEC699F912DDB
S113133011249695969596959C930280F381E02DC1
S1131340892F880F982F990F990F890F681B608335
S11313500895FC0160830895813039F018F08230DB
S113136039F0089560934D02089560934C020895F6
S113137060934C0260934D020895882319F08130E4
S113138029F008C080918E0490E00895809189042A
S113139090E008958FEF9FEF089580918E0486303A
S11313A021F480919F0480938E0480918904863077
S11313B021F48091A0048093890408958130A1F0E0
S11313C018F0823009F10895663021F480918E047A
S11313D080939F0480918E04863019F460939F0457
S11313E0089560938E040895663021F480918904F1
S11313F08093A00480918904863019F46093A0043A
S11314000895609389040895663041F480918E04B0
S113141080939F04809189048093A00480918E041A
S1131420863029F46093A00460939F040895609328
S11314308E0460938904089595E090938E049093AC
S1131440890480934702089568EF81E994E00E943B
S1131450A90968EF8DE994E00E94A90968EF8FE873
S113146094E00E94A90968EF8BE994E00E94A9091D
S113147008958091B2049091B304A091B404B09102
S1131480B504409136025091370260913802709150
S11314903902481759076A077B0708F026C180916B
S11314A08E04833009F459C030F4882309F487C0CA
S11314B0813039F18EC0853009F474C048F186302A
S11314C009F087C00E94660220E030E048EC52E454
S11314D00E945C1A0E946F19709346026093450241
S11314E09B013695279536952795ABE7B4E10E9485
S11314F0E51F96958795682F8AE894E00E948609EF
S113150068C060914D028AE894E00E94860961C037
S113151080918904843031F081E080938E0480933B
S1131520890457C048515C4F6F4F7F4F4093360238
S113153050933702609338027093390283E78093A3
S11315409D0481E68093910480E780938F0481E079
S113155080938E0480938904089580918904833054
S113156031F081E080938E048093890432C0485125
S11315705C4F6F4F7F4F4093360250933702609316
S11315803802709339028CE680939D048FE6809331
S1131590910480E780938F0481E080938E0480938C
S11315A0890417C085E680939D0482E780939104A3
S11315B06091470285E894E00E9486090AC068EFBA
S11315C081E994E00E94A90968EF8DE994E00E9402
S11315D0A90980918904813019F148F1863019F004
S11315E08D3081F16FC040914502509146029A01BD
S11315F03695279536952795ABE7B4E10E94E51F0C
S11316009695879564E6689F9001699F300D112433
S1131610BA01621B730B85E894E00E94860952C0EC
S113162060914C0285E894E00E9486094BC068EF03
S11316308FE894E00E94A90968EF8BE994E00E9486
S1131640A90940C044EF51E060E070E080E492E01A
S11316500E940118892BB1F180913F0281110EC0C3
S113166081E080933F0267EF8FE894E00E94A9092C
S113167067EF8BE994E00E94A90924C010923F020D
S113168080913B0290913C02A0913D02B0913E02B8
S11316900097A105B10529F461E081E00E94DE090B
S11316A011C00197A109B10980933B0290933C02B8
S11316B0A0933D02B0933E0260913A0285E894E023
S11316C00E9486098091360290913702A0913802D7
S11316D0B0913902C296A11DB11D80933602909338
S11316E03702A0933802B093390208950F931F93E1
S11316F00091B2041091B3042091B4043091B50464
S1131700DC01CB01800F911FA21FB31F80934802FD
S113171090934902A0934A02B0934B0262E0842F53
S11317200E94DE091F910F91089580918E048230EA
S113173029F080918904823009F078C04091B20484
S11317405091B3046091B4047091B5048091320255
S113175090913302A0913402B09135028417950719
S1131760A607B70708F062C08091B2049091B30451
S1131770A091B404B091B50481559F4FAF4FBF4FB2
S11317808093320290933302A0933402B0933502D3
S113179080918E04823061F46091860081E994E046
S11317A00E94A909609186008DE994E00E94A9092C
S11317B080918904823061F4609185008FE894E01F
S11317C00E94A909609185008BE994E00E94A9090F
S11317D04091B2045091B3046091B4047091B50483
S11317E08091480290914902A0914A02B0914B0223
S11317F084179507A607B70728F461E082E00E94E2
S1131800DE09C598909186009F5F90938600809131
S113181085008150809385009F3F19F499EF909340
S11318208600883F19F48EEF809385000895E1992E
S1131830FECF9FBB8EBB6DBBE29AE19A0895E199FE
S1131840FECF9FBB8EBBE09A8DB30895CF93C82F74
S113185080918C0390918D03826090938D0380938B
S11318608C038C2F0E941C0A0E949F07C13021F414
S113187081E00E94E11103C080E00E94E1110E9416
S11318803B17C093A104CF91089510926A0210925D
S113189069021092680210926002109261028BE653
S11318A092E00E94F7178BE592E00E94F7171092DE
S11318B0A104089510926A021092690210926802BB
S11318C010926002109261028BE692E00E94F71778
S11318D08BE592E00E94F7171092A104089580917D
S11318E0B2049091B304A091B404B091B5048053B0
S11318F0984FAF4FBF4F8093570290935802A093D5
S11319005902B0935A0208954F925F926F927F9258
S11319108F929F92AF92BF92CF92DF92EF92FF92FB
S11319204091B2045091B3046091B4047091B50431
S11319308091530290915402A0915502B0915602A5
S113194084179507A607B70708F047C280918C0350
S113195080FF43C24091B2045091B3046091B40437
S11319607091B50446505F4F6F4F7F4F40935302C1
S113197050935402609355027093560281FD2DC218
S11319800E9466024B015C010E949B07BC0180E03F
S113199090E00E94A5196B017C0125E935E640ED34
S11319A05FE30E94C91A2B013C01A7019601C501FE
S11319B0B4010E945C1A20E030E048EC52E40E943A
S11319C0FD184B015C0123E333E343E651E4C70113
S11319D0B6010E945C1A20E030E048EC52E40E9418
S11319E0FD189B01AC01C501B4010E94901820E0D0
S11319F030E040E450E40E94FD184B015C0128E50E
S1131A0039E344E35CE3C301B2010E945C1A9B0125
S1131A10AC01C501B4010E9491184B015C0185E041
S1131A200E943207682F70E062537109072E000C80
S1131A30880B990B0E94A719A70196010E945C1AB2
S1131A4020E030E048EC53E40E94FD18A501940125
S1131A500E949118609364027093650280936602F9
S1131A609093670280E00E94861042E05BE267E0A8
S1131A707DE380E00E949F10209164023091650212
S1131A8040916602509167020E94571A181644F456
S1131A900E945607892B21F081E08093680202C0DE
S1131AA01092680283E00E943207882309F4D2C0AE
S1131AB080916802813009F088C080916A02823086
S1131AC009F460C028F4882351F0813069F1C2C060
S1131AD0833009F462C0843009F463C0BBC081E080
S1131AE080936A020E949B072EE1AC01249FC001EF
S1131AF0259F900D112448E853E17A01E81AF90A68
S1131B00FF92EF9284EF90E09F938F930E940A02DA
S1131B10A70160E070E08BE692E00E94B5170F9099
S1131B200F900F900F9096C08BE692E00E94D7170B
S1131B30892B09F48FC00E94AD070E949B072EE1F8
S1131B40AC01249FC001259F900D112448E853E166
S1131B507A01E81AF90AFF92EF9283E191E09F93E8
S1131B608F930E940A02A70160E070E08BE692E086
S1131B700E94B51782E080936A020F900F900F9035
S1131B800F9068C08BE692E00E94D717892B09F466
S1131B9061C083E080936A025DC081E00E94260CEC
S1131BA059C08BE692E00E94D717892B09F452C0E2
S1131BB040ED57E060E070E08BE692E00E94B517DC
S1131BC08091690280936A0245C080916A028230E2
S1131BD0F1F018F4813031F03DC0833079F1843074
S1131BE089F138C08BE692E00E94D717892B91F1D6
S1131BF040ED57E060E070E08BE692E00E94B5179C
S1131C0084E080936A0281E08093690223C08BE6BA
S1131C1092E00E94D717892BE9F040ED57E060E08D
S1131C2070E08BE692E00E94B5170E94B70784E04B
S1131C3080936A0282E0809369020CC081E00E9472
S1131C40260C08C08BE692E00E94D717892B11F06E
S1131C5010926A0282E00E943207882309F4BDC010
S1131C6084E00E94320790E09093630280936202C2
S1131C7081E00E948610209162023091630228174D
S1131C80390720F54091B2045091B3046091B40433
S1131C907091B5048091570290915802A091590215
S1131CA0B0915A0284179507A607B70778F481E024
S1131CB08093600280916102813051F1A8F08230FA
S1131CC009F44BC0833009F451C087C010926002FC
S1131CD080916102823009F466C0833009F47AC0CD
S1131CE0813009F07AC046C081E08093610287E3C5
S1131CF091E09F938F930E940A024CED55E060E0BF
S1131D0070E08BE592E00E94B5170F900F9065C0CC
S1131D108BE592E00E94D717892B09F45EC00E94DC
S1131D205312049724F083E08093610256C040ED7F
S1131D3057E060E070E08BE592E00E94B51782E026
S1131D40809361020E94471282E591E09F938F93F2
S1131D500E940A020F900F9040C08BE592E00E940F
S1131D60D717892BD1F11092610237C082E00E940B
S1131D70260C33C08BE592E00E94D717892B69F1BA
S1131D8040ED57E060E070E08BE592E00E94B5170B
S1131D90109261028CE691E09F938F930E940A0255
S1131DA00F900F901AC08BE592E00E94D717892BF1
S1131DB0A1F0109261028CE691E09F938F930E94B0
S1131DC00A026CEA7DE080E090E00E94C9120F9064
S1131DD00F9003C082E00E94260CFF90EF90DF90EA
S1131DE0CF90BF90AF909F908F907F906F905F90B7
S1131DF04F9008954EE551E060E070E08EE492E08B
S1131E000E940118892B09F18091A104813071F499
S1131E1092B380E1892782BB80918C0390918D03DA
S1131E20906290938D0380938C030895823069F4BB
S1131E3092B380E4892782BB80918C0390918D03B7
S1131E40906290938D0380938C030895FC0120810C
S1131E503181623058F0329691E041915191240FD2
S1131E60351F369527959F5F6913F7CFC9010895EC
S1131E70E6EBF2E02EED32E081EF91E08193919375
S1131E802E173F07D9F7E5E9F2E083EB92E01192D0
S1131E9011928E179F07D9F7EDE7F2E081E992E0FE
S1131EA0119211928E179F07D9F70895CF92DF925E
S1131EB0EF92FF92CF93DF934091B2045091B30419
S1131EC06091B4047091B50480917402909175028C
S1131ED0A0917602B091770284179507A607B707F9
S1131EE008F0D1C08091B2049091B304A091B404DD
S1131EF0B091B5044496A11DB11D809374029093D2
S1131F007502A0937602B093770280E00E94760374
S1131F10EC016091B3027091B40280E090E00E9401
S1131F20A51921E73DE34AE85EE30E945C1A6B01D0
S1131F307C01BE0180E090E00E94A5199B01AC01E8
S1131F40C701B6010E9491180E9476197093E102AC
S1131F506093E0022091E202E22FF0E0EE0FFF1F17
S1131F60EA54FD4F7183608381E0820F8093E20223
S1131F7082E00E9476038032910530F04F9790936F
S1131F8094028093930204C01092940210929302DC
S1131F90E091B502F0E0EE0FFF1FEB56FD4F80918C
S1131FA09302909194029183808381E00E9476034E
S1131FB090937B0280937A02209178023091790287
S1131FC02115310571F02817390728F410927B0286
S1131FD010927A0206C0281B390B30937B0220939F
S1131FE07A02C0917C02EC2FF0E0EE0FFF1FE35861
S1131FF0FD4F80917A0290917B0291838083D091EE
S1132000B502DF5FD093B502CF5FC0937C0264E179
S113201086EB92E00E94260F9093DF028093DE020B
S11320206FE085E992E00E94260F9093B4028093BA
S1132030B3026AE08DE792E00E94260F9093920229
S1132040809391028091700290917102A09172022A
S1132050B09173020196A11DB11D809370029093FB
S11320607102A0937202B09373028091E2028431F0
S113207011F41092E202CA3011F410927C02DF30A3
S113208011F41092B502DF91CF91FF90EF90DF90A1
S1132090CF900895CF92DF92EF92FF92CF93DF9388
S11320A0C090B204D090B304E090B404F090B504AE
S11320B08CEDC80E85E0D81EE11CF11CC0EBD4E009
S11320C00E94560F8A819B81AC81BD81C816D906B6
S11320D0EA06FB06A8F78091910290919202809300
S11320E07802909379029F938F9385E891E09F9370
S11320F08F930E940A020F900F900F900F90DF9120
S1132100CF91FF90EF90DF90CF900895833018F433
S1132110813040F00CC0833079F48091DE029091DC
S1132120DF0208958091B3029091B40208958091E2
S1132130910290919202089580E090E00895CF92E8
S1132140DF92EF92FF926A017B01833018F48130B1
S113215050F010C08330A9F46091DE027091DF0268
S113216080E090E011C06091B3027091B40280E00D
S113217090E00AC0609191027091920280E090E038
S113218003C060E070E0CB010E94A51920E030E0BC
S113219040E85AE30E945C1A20E030E040EA50E450
S11321A00E945C1AA70196010E94FD18FF90EF900F
S11321B0DF90CF900895EF92FF920F931F93CF93E8
S11321C08B01823059F028F4882391F0813051F149
S11321D034C0833051F1843021F02FC084E090E08A
S11321E026C00E941006282F30E088E090E004C04A
S11321F022E030E080E090E0C82F7C01E20EF31E84
S113220099278E159F05CCF4F80161918F018C2FCD
S113221090E00E94170CCF5F8C2F90E08E159F05E5
S11322209CF30BC082E090E002C086E090E0C82FEF
S11322307C01F2E0EF0EF11CE7CFCF911F910F91DB
S1132240FF90EF900895EF92FF920F931F93CF9317
S11322508B01823059F028F4882391F0813051F1B8
S113226034C0833051F1843021F02FC084E090E0F9
S113227026C00E941006282F30E088E090E004C0B9
S113228022E030E080E090E0C82F7C01E20EF31EF3
S113229099278E159F05CCF48C2F90E00E941F0C7B
S11322A0F80181938F01CF5F8C2F90E08E159F05ED
S11322B09CF30BC082E090E002C086E090E0C82F5F
S11322C07C01F2E0EF0EF11CE7CFCF911F910F914B
S11322D0FF90EF9008958F929F92AF92BF92CF920A
S11322E0DF92EF92FF920F931F93CF93DF93F82E19
S11322F080E00E943207C2E3D0E09E01281B31092E
S1132300C9018901000F111F880F991F880F991F98
S1132310880F991F080F191F0053184F81E00E945E
S11323203207C81BD109BE01660F771FCC0FDD1F12
S1132330CC0FDD1FCC0FDD1F6C0F7D1F65507B4F55
S1132340601B710B072E000C880B990B0E94A719B8
S11323504B015C016F2D70E080E090E00E94A519B4
S11323609B01AC01C501B4010E945C1A20E030E07D
S113237046EC52E40E94FD186B017C01B801110F78
S1132380880B990B0E94A7199B01AC01C701B601E8
S11323900E9491180E9476197BBD6ABDDF91CF918E
S11323A01F910F91FF90EF90DF90CF90BF90AF906F
S11323B09F908F90089594E09093A2040E946B11D3
S11323C00895882319F080E00E946B11969886E0A6
S11323D08093A2040895CF93DF932FE13EE437BDA9
S11323E026BD81B3806381BB19BC18BC1BBC1ABC5D
S11323F08FB582608FBD8EB588618EBD8FB58068C4
S11324008FBD8EB582608EBD3BBD2ABD969880E09F
S11324100E946B11C2EAD4E081E088831B8286EAC1
S113242094E00E94AD1719861092F7028BEA91E0AE
S11324309F938F930E940A020F900F90DF91CF9188
S113244008959091A204925021E030E0923010F06F
S113245020E030E0C90108959091A2049130A1F4E4
S1132460E2EAF4E093E0908383831F928F9388EBF6
S113247091E09F938F930E940A020F900F900F9008
S11324800F9081E090E0089580E090E008958091BD
S1132490A2049FEF980F923028F4E2EAF4E08183DB
S11324A085E0808308958091AB0490E008950E94B4
S11324B021120097D1F080E00E946B11E2EAF4E06F
S11324C081E0808313821F921F928FEC91E09F938F
S11324D08F930E940A0296980E946F0C0F900F909F
S11324E00F900F9081E090E008952091A204253090
S11324F031F40E9480120E946F0C81E090E00895F4
S11325008091A304823029F48093A2040E9457127C
S113251009C0813071F4E2EAF4E082E080838381CF
S11325200E949A121092F702E2EAF4E081858F5F2A
S113253081870895CF93C82F8091A2049FEF980FAD
S11325409330D0F4E2EAF4E082E08083C3838C2FFA
S11325500E946B111F92CF9380EE91E09F938F9313
S11325600E940A02969A0E946F0C0F900F900F908F
S11325700F9081E090E00BC0853039F40E94801206
S11325800E946F0C81E090E002C080E090E0CF9167
S11325900895AB01BC0186EA94E00E94B517089542
S11325A0CF93DF93C82F4BE450E060E070E082EFFC
S11325B092E00E940118892B09F4BEC08091A20404
S11325C08530A1F030F4823059F0833009F469C0C9
S11325D0A3C0863009F47FC0873009F499C09CC039
S11325E0C093A5048C2F0E946B1196C08091F702B2
S11325F0811113C04AEF50E060E070E08DEE92E08C
S11326000E94B5178091F7028F5F8093F702909133
S1132610A504890F0E946B1130C08150893008F5E0
S11326208DEE92E00E94D717019739F54AEF50E0FA
S113263060E070E08DEE92E00E94B5178091F702A1
S11326408F5F8093F702C091A50487E00E94320750
S11326509091F702899FC00D11248C2F0E946B1159
S11326600CC01092F702C2EAD4E08B810E946B1175
S11326708981888389858F5F89872091A5048091CA
S1132680F70290E0820F911D9F938F9382EF91E068
S11326909F938F930E940A020F900F900F900F90B8
S11326A03BC088EE92E00E94CD17892B59F088EE4A
S11326B092E00E94D717019779F582E08093A204F3
S11326C0969A2AC048EB5BE060E070E088EE92E006
S11326D00E94B51721C083EE92E00E94CD17892B8A
S11326E071F083EE92E00E94D7170197A9F487E076
S11326F08093A2048FE19EE49BBD8ABD0DC04CEA89
S11327005DE060E070E083EE92E00E94B51704C0E3
S11327108FE19EE49BBD8ABD86EA94E00E94D717B0
S1132720019751F41092AB0480E092E09F938F9351
S11327300E940A020F900F90DF91CF910895EDE36C
S1132740F4E0168615861286118614861386E0E157
S1132750F4E0168615861286118614861386109266
S11327602B0410922A04EEEEF3E0168615861486E6
S1132770138612861186EEE2F4E016861586148618
S11327801386128611861092580410925704EBE5B2
S1132790F4E0148613861686158612861186E0EDFB
S11327A0F3E0148613861686158612861186EFEDDD
S11327B0F3E014861386168615861286118608950C
S11327C080910003823049F080918C0390918D03B5
S11327D0986090938D0380938C03089580910003F7
S11327E0823049F080918C0390918D03806890939E
S11327F08D0380938C03089580918C0390918D03B5
S1132800926090938D0380938C03089580918C0340
S113281090918D03997F90938D0380938C031092F4
S11328200103089580918C0390918D0380629093AD
S11328308D0380938C03089580918C0390918D0374
S11328408F7990938D0380938C03109201030895E4
S113285080918C0390918D03906290938D0380936B
S11328608C0380918F038B3018F0815080938F03F9
S113287060918F0381E00E94AC0961E082E00E94D4
S1132880DE09089580918C0390918D03906290935A
S11328908D0380938C0380918E038B3018F08150CC
S11328A080938E0360918E0380E00E94AC0980E0E7
S11328B00E94BD09029729F461E082E00E94DE09CA
S11328C004C061E080E00E94DE09809100038F5F14
S11328D080930003823019F466E00E94DE090895B3
S11328E080918C0390918D03906290938D038093DB
S11328F08C0380918E03833618F48F5F80938E034C
S113290060918E0380E00E94AC0980E00E94BD09C2
S1132910029729F461E082E00E94DE0904C061E0CC
S113292080E00E94DE09809100038F5F80930003A2
S1132930823019F466E00E94DE0908950E94CD09F0
S113294080918C0390918D03977E90938D03809357
S11329508C031092010380910003882319F08150A5
S11329608093000380E00E94BD09029729F461E08E
S113297082E00E94DE09089561E080E00E94DE09A1
S113298008950E94CD0980918C0390918D038F77D7
S11329909E7F90938D0380938C031092010380910A
S11329A00003882319F081508093000380E00E9483
S11329B0BD09029729F461E082E00E94DE090895CE
S11329C061E080E00E94DE09089580918C0390917B
S11329D08D03906290938D0380938C0380918F0379
S11329E0833628F48F5F80938F030E946F0C60916D
S11329F08F0381E00E94AC0961E082E00E94DE095D
S1132A000895EEEAF4E080918E03808380918F0331
S1132A108183BF0183E00E94DB10089580918C03C1
S1132A2090918D03906290938D0380938C03809199
S1132A308E038A3038F48AE080938E036AE080E063
S1132A400E94AC090E9401150E945607892B39F493
S1132A500E94790780918F030E942C1208950E948E
S1132A6061070E945712089580918C0390918D0301
S1132A70906290938D0380938C0380918F038A30AE
S1132A8038F48AE080938F036AE081E00E94AC0905
S1132A900E942112892B19F00E94571208958091E7
S1132AA08F030E949A1208958DEF95E19093090483
S1132AB08093080460E082E00E94DE090E94240AF8
S1132AC06CEA74E083E00E9423118091AD0496EFD8
S1132AD0980F9A3510F480938F038091AC0496EF8D
S1132AE0980F9A3510F480938E0308951092000382
S1132AF042E068EE73E080E090E00E94760B0E9472
S1132B003C0780E00E94EB110E94450C0E94380FA4
S1132B100E94540581E090E090938D0380938C0390
S1132B20EDE3F4E080EE93E19687858782E494E117
S1132B30948783878EE994E192878187E0E1F4E0CA
S1132B408EEE93E19687858780E794E19487838767
S1132B5081EC94E1928781878EE095E190932B0438
S1132B6080932A04EEEEF3E08CEF93E19687858759
S1132B7086E094E19287818788E294E19487838751
S1132B80EEE2F4E082E194E1968785878CE194E1BA
S1132B909287818785EE94E19487838784E395E126
S1132BA0909358048093570460918E0380E00E94B0
S1132BB0AC0960918F0381E00E94AC0908951092E2
S1132BC000030E9450070E949F130E945A0C0E9407
S1132BD0571210928D0310928C0360E082E00E94E1
S1132BE0DE0980918C0390918D038E7F90938D03E9
S1132BF080938C030E94E30608950E94011580913E
S1132C008C0380FF03C00E94DF1502C00E9476156A
S1132C1080918C0390918D03906290938D038093A7
S1132C208C0308954091B2045091B3046091B404AC
S1132C307091B5048091F8029091F902A091FA0282
S1132C40B091FB0284179507A607B70708F0A4C044
S1132C5080918C0385FF21C060918F036336E8F473
S1132C606B3040F06F5F60938F0381E00E94AC098A
S1132C700E946F0C809104038F5F809304038F3054
S1132C8060F080918C0390918D038F7D806490938C
S1132C908D0380938C031092040380918C03909194
S1132CA08D0391FF21C060918F036623E9F06B309F
S1132CB040F0615060938F0381E00E94AC090E9450
S1132CC06F0C809103038F5F809303038F3060F058
S1132CD080918C0390918D039D7F946090938D03DC
S1132CE080938C031092030380918C0387FF1DC093
S1132CF060918E036336C8F46F5F60938E0380E047
S1132D000E94AC09809102038F5F809302038F308D
S1132D1060F080918C0390918D038F7791609093F4
S1132D208D0380938C031092020380918C03909105
S1132D308D0393FF1DC060918E036B30C8F061500A
S1132D4060938E0380E00E94AC09809101038F5F41
S1132D50809301038F3060F080918C0390918D03F8
S1132D60977F906190938D0380938C03109201035D
S1132D708091F8029091F902A091FA02B091FB02BD
S1132D80805B9F4FAF4FBF4F8093F8029093F9023F
S1132D90A093FA02B093FB0208954091B2045091BB
S1132DA0B3046091B4047091B5048091FC029091D5
S1132DB0FD02A091FE02B091FF0284179507A607B9
S1132DC0B70708F057C080918F03833670F4809161
S1132DD08C0386FF0AC00E946F0C60918F036F5FA3
S1132DE060938F0381E00E94AC0960918F036B3084
S1132DF070F080918C0390918D0392FF08C0615014
S1132E0060938F0381E00E94AC090E946F0C609173
S1132E108E03633660F480918C0390918D0390FF50
S1132E2006C06F5F60938E0380E00E94AC096091DE
S1132E308E036B3060F080918C0390918D0394FF2E
S1132E4006C0615060938E0380E00E94AC098091BB
S1132E50FC029091FD02A091FE02B091FF024E96F9
S1132E60A11DB11D8093FC029093FD02A093FE026C
S1132E70B093FF0208950E949F1308951F920F922A
S1132E800FB60F9211242F933F934F935F936F9339
S1132E907F938F939F93AF93BF93EF93FF93E0EB55
S1132EA0F4E080819181C2969183808380819181B5
S1132EB0883E934088F082819381A481B5810196F4
S1132EC0A11DB11D82839383A483B58380819181E5
S1132ED0885E93409183808385E093E00E943C095F
S1132EE0FF91EF91BF91AF919F918F917F916F91DE
S1132EF05F914F913F912F910F900FBE0F901F90B4
S1132F00189593B7986093BF6CBF823099F028F4FA
S1132F10882341F0813051F019C0833079F0843036
S1132F2089F014C083B7816083BF13C083B7826004
S1132F3083BF0FC083B7836083BF0BC083B7846034
S1132F4083BF07C083B7856083BF03C083B7816035
S1132F5083BF89B7826089BF089523E0FC0124837D
S1132F60108211821282138208950F931F9321E01D
S1132F70FC0124830091B2041091B3042091B404A1
S1132F803091B504400F511F621F731F408351835A
S1132F90628373831F910F91089521E030E0FC0157
S1132FA08481813011F020E030E0C9010895FC01F2
S1132FB084818130B1F48091B2049091B304A091E2
S1132FC0B404B091B5044081518162817381481782
S1132FD059076A077B0740F482E0848381E090E02C
S1132FE008958FEF9FEF089580E090E0089521E029
S1132FF030E0FC018481833011F020E030E0C9012D
S11330000895CF92DF92EF92FF920F931F93CF9385
S1133010DF93EC016A017B018C81811106C083E09E
S11330208C83188219821A821B82CE010E94D717C0
S11330308C01019731F4B701A601CE010E94B517A6
S11330400DC08C81833041F4B701A601CE010E94EA
S1133050B51700E010E002C000E010E0C801DF9105
S1133060CF911F910F91FF90EF90DF90CF90089533
S11330701F920F920FB60F9211242F933F934F93E9
S11330805F938F939F93EF93FF932BB13CB1287180
S11330908091090390E001964091080350E0841761
S11330A0950739F080930903FC01E45FFC4F3083FA
S11330B001C022E020930703FF91EF919F918F912C
S11330C05F914F913F912F910F900FBE0F901F90E2
S11330D018951F920F920FB60F9211248F939F93FE
S11330E0EF93FF9390910B0380910A03981771F06B
S11330F080910A0390E001968F77992780930A03C1
S1133100FC01E45FFC4F80818CB901C05598FF91AC
S1133110EF919F918F910F900FBE0F901F90189574
S11331205058BB27AA270E94A8180C941D1A0E9465
S11331300F1A38F00E94161A20F039F49F3F19F440
S113314026F40C940C1A0EF4E095E7FB0C94061A82
S1133150E92F0E942E1A58F3BA17620773078407DF
S1133160950720F079F4A6F50C94501A0EF4E09526
S11331700B2EBA2FA02D0B01B90190010C01CA012D
S1133180A0011124FF27591B99F0593F50F4503ED8
S113319068F11A16F040A22F232F342F4427585FCA
S11331A0F3CF469537952795A795F0405395C9F7E2
S11331B07EF41F16BA0B620B730B840BBAF091509A
S11331C0A1F0FF0FBB1F661F771F881FC2F70EC039
S11331D0BA0F621F731F841F48F48795779567950C
S11331E0B795F7959E3F08F0B0CF9395880F08F0F8
S11331F09927EE0F9795879508950E9411190C94BD
S11332001D1A0E94161A58F00E940F1A40F029F451
S11332105F3F29F00C94061A51110C94511A0C9426
S11332200C1A0E942E1A68F39923B1F3552391F3D3
S1133230951B550BBB27AA2762177307840738F021
S11332409F5F5F4F220F331F441FAA1FA9F335D07E
S11332500E2E3AF0E0E832D091505040E695001C32
S1133260CAF72BD0FE2F29D0660F771F881FBB1FEC
S1133270261737074807AB07B0E809F0BB0B802DCA
S1133280BF01FF2793585F4F3AF09E3F510578F0F6
S11332900C94061A0C94511A5F3FE4F3983ED4F34D
S11332A0869577956795B795F7959F5FC9F7880FCA
S11332B0911D9695879597F90895E1E0660F771F1C
S11332C0881FBB1F621773078407BA0720F0621BAD
S11332D0730B840BBA0BEE1F88F7E09508950E94D8
S11332E076196894B1110C94511A08950E94361AF3
S11332F088F09F5798F0B92F9927B751B0F0E1F0B3
S1133300660F771F881F991F1AF0BA95C9F714C062
S1133310B13091F00E94501AB1E008950C94501A03
S1133320672F782F8827B85F39F0B93FCCF386959B
S113333077956795B395D9F73EF4909580957095F8
S113334061957F4F8F4F9F4F0895E89409C097FB75
S11333503EF490958095709561957F4F8F4F9F4F68
S11333609923A9F0F92F96E9BB279395F6958795AC
S113337077956795B795F111F8CFFAF4BB0F11F46F
S113338060FF1BC06F5F7F4F8F4F9F4F16C0882316
S113339011F096E911C0772321F09EE8872F762F4C
S11333A005C0662371F096E8862F70E060E02AF08D
S11333B09A95660F771F881FDAF7880F9695879579
S11333C097F90895990F0008550FAA0BE0E8FEEF4E
S11333D016161706E807F907C0F012161306E407D5
S11333E0F50798F0621B730B840B950B39F40A26CE
S11333F061F0232B242B252B21F408950A2609F4AC
S1133400A140A6958FEF811D811D089597F99F67AF
S113341080E870E060E008959FEF80EC0895002458
S11334200A941616170618060906089500240A9425
S113343012161306140605060895092E0394000CAB
S113344011F4882352F0BB0F40F4BF2B11F460FF3A
S113345004C06F5F7F4F8F4F9F4F089557FD905863
S1133460440F551F59F05F3F71F04795880F97FB44
S1133470991F61F09F3F79F08795089512161306FE
S11334801406551FF2CF4695F1DF08C0161617062D
S11334901806991FF1CF8695710561050894089562
S11334A0E894BB2766277727CB0197F908950E94F4
S11334B0E21908F48FEF08950E946F1A0C941D1AF4
S11334C00E940F1A38F00E94161A20F0952311F06A
S11334D00C94061A0C940C1A11240C94511A0E9480
S11334E02E1A70F3959FC1F3950F50E0551F629FFC
S11334F0F001729FBB27F00DB11D639FAA27F00D49
S1133500B11DAA1F649F6627B00DA11D661F829F6F
S11335102227B00DA11D621F739FB00DA11D621F54
S1133520839FA00D611D221F749F3327A00D611D71
S1133530231F849F600D211D822F762F6A2F112453
S11335409F5750409AF0F1F088234AF0EE0FFF1F86
S1133550BB1F661F771F881F91505040A9F79E3FDD
S1133560510580F00C94061A0C94511A5F3FE4F351
S1133570983ED4F3869577956795B795F795E79533
S11335809F5FC1F7FE2B880F911D9695879597F93C
S11335900895FA01EE0FFF1F309621053105A1F1C0
S11335A06115710561F48038BFE39B0749F16894A4
S11335B09038810561F08038BFEF9B0741F0992373
S11335C04AF5FF3FE1053105210519F1E894089416
S11335D0E795D901AA2329F4AB2FBE2FF85FD0F3C6
S11335E010C0FF5F70F4A695E0F7F73950F019F0BA
S11335F0FF3A38F49F779F930DD00F9007FC9058B3
S1133600089546F00C940C1A60E070E080E89FE3A3
S113361008954FE79F775F934F933F932F930E94B3
S1133620C41B2F913F914F915F910E945C1A0C949F
S1133630211B29F416F00C94061A0C94501A0C94BD
S11336400C1A0E94361AA8F39638A0F707F80F92BE
S1133650E8942BE33AEA48EB5FE70E94721A0F9270
S11336600F920F924DB75EB70F920E940C1CE2E5C9
S1133670F2E00E94531B4F915F91EF91FF91E5950A
S1133680EE1FFF1F49F0FE57E0684427EE0F441F6A
S1133690FA95E1F74195550B0E94861B0F9007FEA2
S11336A00C947A1B0895DF93CF931F930F93FF928B
S11336B0EF92DF927B018C01689406C0DA2EEF0151
S11336C00E946F1AFE01E894A591259135914591C8
S11336D05591A6F3EF010E94A818FE019701A801D5
S11336E0DA9469F7DF90EF90FF900F911F91CF91DB
S11336F0DF9108959B01AC0160E070E080E89FE3F6
S11337000C94FD180C94061A0C94401C0E94361A52
S1133710D8F39923C9F3940F511DA3F3915050404A
S113372094F059F0882332F0660F771F881F915068
S11337305040C1F79E3F51052CF7880F911D969577
S1133740879597F908955F3FACF0983E9CF0BB27AE
S1133750869577956795B79508F4B1609395C1F709
S1133760BB0F58F711F460FFE8CF6F5F7F4F8F4FA7
S11337709F4FE3CF0C94511A16F00C94401C0C94F8
S11337800C1A68940C94061A0E94361AA8F399230A
S1133790C1F3AEF3DF93CF931F930F93FF92C92F1F
S11337A0DD2788232AF02197660F771F881FDAF711
S11337B020E030E040E85FEB9FE3883920F0803E72
S11337C038F021968F770E949118EAE7F2E004C05E
S11337D00E949118E7EAF2E00E94531B8B01BE019C
S11337E0EC01FB2E6F5771097595771F880B990BA8
S11337F00E94A71928E132E741E35FE30E946F1AB0
S1133800AF2D9801AE01FF900F911F91CF91DF91E1
S11338100E94A8180C941D1AFA01DC01AA0FBB1F00
S11338209B01AC01BF5728F4222733274427507843
S113383020C0B75190F4AB2F0024469537952795B7
S1133840011CA395D2F3002071F0220F331F441FF3
S1133850B395DAF30ED00C94901861307105A0E89A
S11338608A07B94630F49B01AC016627772788277D
S11338709078309621F020833183428353830895D6
S11338809F3F31F0915020F4879577956795B795D0
S1133890880F911D9695879597F90895A0E1B0E05A
S11338A0E4E5FCE10C94F41F7C011B016A01FC01BA
S11338B017821682838181FF44C39E012F5F3F4F8D
S11338C03901F7019381F10193FD859193FF819172
S11338D01F01882309F431C3853239F493FD85919E
S11338E093FF81911F01853239F4B70190E00E9462
S11338F03A2156016501E5CF10E0512C912CFFE1EE
S1133900F915D8F08B3279F038F4803279F08332BB
S1133910A1F4F92DF0612EC08D3261F0803369F489
S1133920292D21602DC0392D3260932E892D84607C
S1133930982E2AC0E92DE86015C097FC2DC020ED13
S1133940280F2A3088F496FE06C03AE0139F200D13
S11339501124122F19C08AE0589E200D1124522ED2
S1133960E92DE0629E2E10C08E3231F496FCE5C241
S1133970F92DF0649F2E08C08C3621F4292D20687F
S1133980922E02C0883641F4F10193FD859193FF94
S113399081911F018111B3CF9BEB980F933020F4D9
S11339A0992D9061805E07C09BE9980F933008F0D1
S11339B066C1992D9F7E96FF16E09F73992E8536DA
S11339C019F49064992E08C0863621F4392F306892
S11339D0932E02C01111115097FE07C01C3350F4EE
S11339E044244394410E27E00BC0183038F027E0FC
S11339F017E005C027E09CE3492E02C0212F412C8B
S1133A00560184E0A80EB11CF601608171818281A7
S1133A109381042DA3010E943F206C01F981FC874E
S1133A20F0FF02C0F3FF06C091FC06C092FE06C080
S1133A3000E205C00DE203C00BE201C000E08C858A
S1133A408C7019F001115AC29BC297FE10C04C0C25
S1133A50FC85F4FF04C08A81813309F44A94141468
S1133A6074F528E0241578F588E0482E2CC096FCDF
S1133A702AC0812F90E08C159D059CF03CEFC31665
S1133A803FEFD30674F0892D8068982E0AC0E2E0D7
S1133A90F0E0EC0FFD1FE10FF11D8081803319F47C
S1133AA011501111F4CF97FE0EC044244394410EDB
S1133AB0812F90E0C816D9062CF41C1904C04424A4
S1133AC0439401C010E097FE06C01C141D0434F496
S1133AD0C601019605C085E090E002C081E090E057
S1133AE001110196112331F0212F30E02F5F3F4F58
S1133AF0820F931F252D30E08217930714F4581A70
S1133B0001C0512C892D897049F4552039F0B70131
S1133B1080E290E00E943A215A94F7CF002329F0E2
S1133B20B701802F90E00E943A2193FC09C05520F0
S1133B3039F0B70180E390E00E943A215A94F7CF1C
S1133B4097FE4CC04601D7FE02C0812C912CC601C1
S1133B5088199909F301E80FF91FFE87ED8796018B
S1133B6024193109388B2F87012F10E01195019505
S1133B7011093FEF8316930629F4B7018EE290E012
S1133B800E943A21C814D9044CF08F85988988156D
S1133B90990524F4ED85FE85818101C080E3F1E07F
S1133BA08F1A91082D853E852F5F3F4F3E872D87C5
S1133BB0801691062CF0B70190E00E943A21D9CFEB
S1133BC0C814D90441F49A81963320F4953319F436
S1133BD03C8534FF81E3B70190E04EC08A81813394
S1133BE019F09C859F7E9C87B70190E00E943A2142
S1133BF0111105C094FC18C085E690E017C0B70108
S1133C008EE290E00E943A211E5F82E001E0080FFC
S1133C10F301E80FF11D8081B70190E00E943A2181
S1133C20802F0113F3CFE6CF85E490E0B7010E9423
S1133C303A21D7FC06C0C114D10441F4EC85E4FF59
S1133C4005C0D194C194D1088DE201C08BE2B701C3
S1133C5090E00E943A2180E32AE0C216D1042CF0BD
S1133C608F5FFAE0CF1AD108F7CFB70190E00E9436
S1133C703A21B701C601C0960E943A2154C1833645
S1133C8031F0833779F0833509F056C020C05601EE
S1133C9032E0A30EB11CF6018081898301E010E0BB
S1133CA0630112C05601F2E0AF0EB11CF601C080F0
S1133CB0D18096FE03C0612F70E002C06FEF7FEFEA
S1133CC0C6010E942F218C01F92DFF7714C05601E3
S1133CD022E0A20EB11CF601C080D18096FE03C082
S1133CE0612F70E002C06FEF7FEFC6010E941721C1
S1133CF08C01F92DF0689F2EF3FD1AC0852D90E0FC
S1133D0008171907A8F4B70180E290E00E943A214D
S1133D105A94F4CFF60197FC859197FE81916F0137
S1133D20B70190E00E943A2151105A9401501109B0
S1133D300115110579F7F7C0843611F0893661F55C
S1133D40560197FE09C024E0A20EB11CF601608161
S1133D507181828193810AC0F2E0AF0EB11CF60139
S1133D6060817181072E000C880B990BF92DFF7669
S1133D709F2E97FF09C090958095709561957F4F10
S1133D808F4F9F4FF0689F2E2AE030E0A3010E94DE
S1133D909221C82EC6183FC0092D853721F40F7E05
S1133DA02AE030E01DC0097F8F3691F018F4883581
S1133DB059F0C3C0803719F0883711F0BEC00061D4
S1133DC004FF09C0046007C094FE08C0066006C072
S1133DD028E030E005C020E130E002C020E132E01C
S1133DE0560107FF09C084E0A80EB11CF6016081EA
S1133DF071818281938108C0F2E0AF0EB11CF6019B
S1133E006081718180E090E0A3010E949221C82E1C
S1133E10C6180F77902E96FE0BC0092D0E7FC11683
S1133E2050F494FE0AC092FC08C0092D0E7E05C011
S1133E30DC2C092D03C0DC2C01C0D12E04FF0DC0E5
S1133E40FE01EC0DF11D8081803311F4097E09C05F
S1133E5002FF06C0D394D39404C0802F867809F05F
S1133E60D39403FD11C000FF06C01C2DD51480F4AB
S1133E70150D1D190DC0D51458F4B70180E290E05A
S1133E800E943A21D394F7CFD51410F45D1801C0E1
S1133E90512C04FF10C0B70180E390E00E943A2146
S1133EA002FF17C001FD03C088E790E002C088E567
S1133EB090E0B7010CC0802F867859F001FF02C052
S1133EC08BE201C080E207FD8DE2B70190E00E9421
S1133ED03A21C11638F4B70180E390E00E943A21F8
S1133EE01150F7CFCA94F301EC0DF11D8081B70195
S1133EF090E00E943A21C110F5CF15C0F4E0F51509
S1133F0060F584E0581A93FE1FC0011127C02C8568
S1133F1023FF2AC004ED12E0392D3071932EF801ED
S1133F208491811124C0552009F4E4CCB70180E2C6
S1133F3090E00E943A215A94F6CFF7018681978146
S1133F4026C08FEF9FEF23C0B70180E290E00E946C
S1133F503A215A945110F8CFD8CF512CB701802F61
S1133F6090E00E943A21D3CF08ED12E0D5CF911012
S1133F708052B70190E00E943A210F5F1F4FCFCFCC
S1133F8023E0251510F483E0BDCF512CC0CF6096FB
S1133F90E2E10C94102097FB072E16F4009407D04E
S1133FA077FD09D00E942B2007FC05D03EF49095A4
S1133FB081959F4F0895709561957F4F0895EE0FF9
S1133FC0FF1F0590F491E02D0994A29FB001B39FC7
S1133FD0C001A39F700D811D1124911DB29F700D0E
S1133FE0811D1124911D08952F923F924F925F924B
S1133FF06F927F928F929F92AF92BF92CF92DF92F5
S1134000EF92FF920F931F93CF93DF93CDB7DEB759
S1134010CA1BDB0B0FB6F894DEBF0FBECDBF0994ED
S11340202A88398848885F846E847D848C849B8444
S1134030AA84B984C884DF80EE80FD800C811B8152
S1134040AA81B981CE0FD11D0FB6F894DEBF0FBE81
S1134050CDBFED010895AA1BBB1B51E107C0AA1FE8
S1134060BB1FA617B70710F0A61BB70B881F991F15
S11340705A95A9F780959095BC01CD0108952830F3
S113408008F027E03327DA01990F311D87FD91608D
S113409000966105710539F432602E5F3D9330E37B
S11340A02A95E1F708959F3F30F080387105610546
S11340B009F03C5F3C5F3D93913008F08068911DAE
S11340C0DF93CF931F930F93FF92EF92192F987F53
S11340D09695E92F96959695E90FFF27EA5CFC4F94
S11340E099273327EE24FF24A701E70105900894BC
S11340F0079428F4360FE71EF81E491F511D660F5A
S1134100771F881F991F0694A1F70590079428F438
S1134110E70EF81E491F561FC11D770F881F991FF0
S1134120661F0694A1F70590079428F4F80E491F1A
S1134130561FC71FD11D880F991F661F771F06942E
S1134140A1F70590079420F4490F561FC71FD81FE5
S1134150990F661F771F881F0694A9F784911095FD
S1134160177041F0D695C79557954795F794E794FE
S11341701A95C1F7ECEDF2E068941590159135911C
S11341806591959105907FE27395E118F10A430BCF
S1134190560BC90BD009C0F7E10CF11E431F561F83
S11341A0C91FD01D7EF4703311F48A95E6CFE894CC
S11341B0015030F0080F0AF40027021708F4202FEA
S11341C02395022F7A3328F079E37D932A95E9F732
S11341D010C07D932A9589F606949795679537952F
S11341E017951794E118F10A430B560BC90BD00924
S11341F098F023957E9173957A3308F070E37C935D
S11342002013B8F77E9170617D9330F0839571E34C
S11342107D9370E32A95E1F71124EF90FF900F91BD
S11342201F91CF91DF91992787FD90950895FC0107
S11342300590615070400110D8F7809590958E0FCD
S11342409F1F0895FB01DC0104C08D91019080192A
S113425021F441505040C8F7881B990B0895FC0184
S11342606150704001900110D8F7809590958E0FA1
S11342709F1F08950F931F93CF93DF93FB01238117
S113428021FD03C08FEF9FEF2CC022FF16C0468193
S11342905781248135814217530744F4A081B181A9
S11342A09D012F5F3F4F318320838C93268137817B
S11342B02F5F3F4F3783268314C08B01EC01FB0132
S11342C00084F185E02D0995892BE1F6D801169635
S11342D08D919C911797019617969C938E931697A0
S11342E0CE01DF91CF911F910F910895AEE0B0E020
S11342F0ECE7F1E20C9402208C0186E08C831A83B3
S113430009838FEF9FE79E838D83CE0101960E94E0
S11343104E1CEF81F885E00FF11F10822E96E4E029
S11343200C941E20FA01AA27283051F1203181F182
S1134330E8946F936E7F6E5F7F4F8F4F9F4FAF4FA9
S1134340B1E03ED0B4E03CD0670F781F891F9A1FBC
S1134350A11D680F791F8A1F911DA11D6A0F711D70
S1134360811D911DA11D20D009F468943F912AE07C
S1134370269F11243019305D3193DEF6CF01089564
S1134380462F4770405D4193B3E00FD0C9F7F6CF95
S1134390462F4F70405D4A3318F0495D31FD40525D
S11343A0419302D0A9F7EACFB4E0A69597958795F3
S11343B077956795BA95C9F70097610571050895D2
S11343C09B01AC010A2E069457954795379527957E
S11343D0BA95C9F7620F731F841F951FA01D089516
S10743E0F894FFCF7B
S11343E43D0410041F04FD03EE032E044C045B047B
S11343F4D003DF03633263320101010163146332C6
S113440401010A08FFFEF92F2D2D2D2D2D2D2D2D03
S11344142D2D2D53544152542053595354454D2D4D
S11344242D2D2D2D2D2D2D2D2D2D2D2F0A00656E89
S11344347465725F746F5F6D656E755F73657276B4
S11344446F0A0001000204030564636D6F746F72E4
S113445420696E69740A0064636D6F746F722073EB
S1134464746F700A0064636D6F746F722065727286
S11344746F720A00636F756E745F6D6F746F725F31
S113448474696D656F75745F776169743A20256426
S11344940A0D00636F756E745F6D6F746F725F7471
S11344A4696D656F75745F6178656C657261746557
S11344B43A2025640A0D004552524F522053544168
S11344C45455533A204552525F535F574149540A55
S11344D40D004552524F52205354415455533A20DF
S11344E44552525F535F5452590A0D004552524F7C
S11344F452205354415455533A204552525F535F0A
S11345044F4B0A0D004D45415355524520534552D6
S1134514564F2043616C6962726174696F6E2076D0
S1134524616C7565203D2025640A00534552564F3D
S11345343A20696E69740A00534552564F5F4445E4
S11345444C415945445F4F50454E2025640A00535D
S11345544552564F5F434C4F5345442025640A004B
S1134564534552564F5F4F5050454E4544202564A1
S11345740A00534552564F5F5452592025640A0089
S1134584534552564F3A205A65726F2074727920FB
S1094594636E740A0000CE
S9030000FC
