S01600006E6F77795F737465726F776E696B2E73726563FC
S11300000C94EB010C9408020C9408020C94080262
S11300100C9408020C9408020C9408020C94080234
S11300200C9408020C9408020C94C0170C94080257
S11300300C9408020C94BA180C94EB180C94080253
S11300400C9408020C9408020C9408020C94080204
S11300500C940802F708FE08010907090D091209A2
S113006018091F0923092B097A097A097A097A09D7
S11300707A097A097A097A097A097A097A097A0964
S11300807A097A097A097A097A097A097A097A0954
S11300907A097A097A097A097A097A097A097A0944
S11300A07A097A097A097A097A097A097A097A0934
S11300B07A097A097A097A097A097A097A097A0924
S11300C07A097A097A097A097A097A097A097A0914
S11300D07A097A097A097A097A097A097A097A0904
S11300E07A097A097A097A097A097A097A097A09F4
S11300F07A097A097A097A097A097A097A097A09E4
S11301007A097A097A097A097A097A097A097A09D3
S11301107A097A097A09320939093F0944094A09ED
S113012050097A097A097A097A097A0969097A09EE
S11301307A0958095D097A09550963097A097A091E
S11301407A097A097A097A097A097A097A097A0993
S11301507A097A097A097A097A097A097A097A0983
S11301607A097A097A097A097A097A097A097A0973
S11301707A097A097A097A097A097A097A097A0963
S11301807A097A097A097A097A097A097A097A0953
S11301907A097A097A097A097A097A097A097A0943
S11301A07A097A097A097A097A097A097A097A0933
S11301B07A097A097A097A097A097A097A097A0923
S11301C07A097A097A097A097A097A097A097A0913
S11301D07A097A097A097A097A097A097A097A0903
S11301E07A097A097A097A097A097A097A097A09F3
S11301F07A097A097A097A097A097A097A097A09E3
S11302007A097A097A097A097A097A097A097A09D2
S11302107A097A097A097A097A097A097A097A09C2
S11302207A097A097A097A097A097A097A097A09B2
S11302307A097A097A097A097A097A097A097A09A2
S11302407A097A096D0979097709750973097109B8
S11302506F0907634236B79BD8A71A39685618AE98
S1130260BAAB558C1D3CB7CC5763BD6DEDFD753EE7
S1130270F6177231BF000000803F08000000BE92F4
S11302802449123EABAAAA2ABECDCCCC4C3E0000D7
S11302900080BEABAAAAAA3E00000000BF00000076
S11302A0803F0000000000084178D3BB4387D1138E
S11302B03D190E3CC3BD4282AD2B3E68EC8276BE36
S11302C0D98FE1A93E4C80EFFFBE01C4FF7F3F0000
S11302D0000000006E616E00696E660000407A10D6
S11302E0F35A00A0724E18090010A5D4E80000E8E3
S11302F07648170000E40B54020000CA9A3B000041
S113030000E1F505000080969800000040420F00CF
S11303100000A08601000000102700000000E80390
S1130320000000006400000000000A00000000005B
S11303300100000000002C76D888DC674F0823DF1A
S1130340C1DFAE59E1B1B796E5E3E453C63AE651ED
S1130350997696E8E6C28426EB898C9B62ED407C14
S11303606FFCEFBC9C9F40F2BAA56FA5F490055AB0
S11303702AF75C936B6CF9676DC11BFCE0E40D47D5
S1130380FEF520E6B500D0ED902E030094357705F8
S11303900080841E080000204E0A000000C80C33B0
S11303A03333330F986E12831141EF8D2114893B3F
S11303B0E65516CFFEE6DB18D1844B381BF77C1DBF
S11303C0901DA4BBE424203284725E228100C9F112
S11303D024ECA1E53D2711241FBECFE5D8E0DEBF04
S11303E0CDBF12E0A0E6B0E0E8EEF4E402C0059070
S11303F00D92AA31B107D9F724E0AAE1B2E001C015
S11304001D92AD3BB207E1F70E9431020C947222B7
S11304100C940000CF93DF93CDB7DEB7AE014B5FF2
S11304205F4FFA0161917191AF0185E993E00E94F8
S1130430F821DF91CF9108958C9A8E9ABD9A899A6A
S1130440089562E381E00E9403180E94AE080E94AE
S1130450C7040E94D6150E94A90F80B78B7F80BF66
S1130460089580E00E946D120E941C0278940E94FC
S113047021028BE890E09F938F930E940A020E94CE
S1130480EF060E94BB100F900F900E94AA0A0E94D0
S1130490060C0E941D040E9494160E944F1780911E
S11304A092030E944108809193030E9452130E9478
S11304B010060E94F50C0E946B0F0E94C70F0E9449
S11304C082020E94CB020E94DE04DFCF83E00E94FE
S11304D00811BC01660F771F660F771F860F971FE1
S11304E0BC0180E090E00E94271A26E636E646EB3F
S11304F050E40E94DE1A20E030E040E85AE30E9413
S1130500DE1A08954091B9045091BA046091BB0475
S11305107091BC0480911F0290912002A09121024D
S1130520B091220284179507A607B70798F583E0D0
S11305300E940811893522E0920718F021E02093E7
S113054023028B3821E0920718F422E0209323023F
S11305508E3521E0920718F423E0209323028C586F
S113056091408C3C910510F4109223028091B904BF
S11305709091BA04A091BB04B091BC048C599F4FD4
S1130580AF4FBF4F80931F0290932002A09321028C
S1130590B093220208954091B9045091BA04609135
S11305A0BB047091BC0480911B0290911C02A09129
S11305B01D02B0911E0284179507A607B70708F01D
S11305C086C0809123028130E9F030F0823099F1C5
S11305D0833009F467C00895C59880911B029091F7
S11305E01C02A0911D02B0911E0288539F4FAF4F71
S11305F0BF4F80931B0290931C02A0931D02B093E3
S11306001E02089598B380E2892788BB80911B025B
S113061090911C02A0911D02B0911E0286509F4F22
S1130620AF4FBF4F80931B0290931C02A0931D02F7
S1130630B0931E02089580911A02811119C081E0BD
S113064080931A02C59A80911B0290911C02A0917A
S11306501D02B0911E028C509E4FAF4FBF4F80932E
S11306601B0290931C02A0931D02B0931E020895D6
S1130670813069F510921A02C59880911B029091FD
S11306801C02A0911D02B0911E0284529A4FAF4FDA
S1130690BF4F80931B0290931C02A0931D02B09342
S11306A01E020895C59A80911B0290911C02A0918C
S11306B01D02B0911E0288519C4FAF4FBF4F8093D3
S11306C01B0290931C02A0931D02B0931E02089576
S11306D0379897B1987F8770892B87B9379A08958F
S11306E0369A3699FECF84B195B108950E94680375
S11306F00E9470030895DC011696ED91FC91179702
S1130700208130E0F90118960C9002C0F595E79528
S11307100A94E2F7CF0181700895E2E4F4E01482D0
S113072081E08583148613861286118616861586C3
S113073026E330E03783268392E09087E5E1F4E016
S1130740148285831486138612861186168615866E
S1130750378326838087E4E2F4E014828583148659
S1130760138612861186168615863783268396E0AD
S11307709087E2E0F4E0148285831486138612865F
S113078011861686158640E350E05783468393E02E
S11307909087E3EFF3E01482858314861386128630
S11307A0118616861586378326839087E3E3F4E063
S11307B014828583148613861286118616861586FE
S11307C069E370E077836683A4E0A087E1E5F4E061
S11307D014828583148613861286118616861586DE
S11307E043E350E0578346838087E0E6F4E01482D5
S11307F0858314861386128611861686158637839A
S11308002683A087E5EDF3E014828583148613869E
S11308101286118616861586778366839087E4EEA2
S1130820F3E0148285831486138612861186168655
S113083015865783468310860895DF92EF92FF92C0
S11308400F931F93CF93DF934091B9045091BA044F
S11308506091BB047091BC048091110490911204C6
S1130860A0911304B091140484179507A607B70741
S113087008F085C08091B9049091BA04A091BB049A
S1130880B091BC044496A11DB11D809311049093B2
S11308901204A0931304B0931404C0E6D0E00F2E06
S11308A0F4E7EF2EF0E0FF2EF02DDD24D3948E013B
S11308B0888199810E947B03E881F9819581891758
S11308C0E1F08583813061F488819981DC01199696
S11308D0ED91FC911A97309709F441C009953FC0F6
S11308E081113DC088819981DC011B96ED91FC91B9
S11308F01C97309721F0099502C0811130C0D801AE
S1130900ED91FC9180819181A281B3810196A11D19
S1130910B11D80839183A283B383D801ED91FC91AF
S113092080819181A281B3818897A105B10510F1DD
S113093084818130F9F00584F685E02D309719F033
S113094082E494E00995D801ED91FC91119710820D
S1130950118212821382ED91FC91D4820BC0D801D2
S1130960ED91FC9111971082118212821382ED9104
S1130970FC9114822296CE15DF0509F098CFDF9101
S1130980CF911F910F91FF90EF90DF9008950E94F7
S11309908D03BA98C29AB998C19ABE98C69A8B9890
S11309A0939ABB98C39AD498DC9AA198A99ABC98B4
S11309B0C49AD398DB9AA098A89A08954091B90450
S11309C05091BA046091BB047091BC0480912802D8
S11309D090912902A0912A02B0912B0284179507C5
S11309E0A607B70708F05FC086E00E943E07882389
S11309F009F459C0809190039091910395FF37C0F9
S1130A008091240290912502A0912602B0912702A0
S1130A10892B8A2B8B2B59F5C09A80919003909146
S1130A2091039F7D909391038093900381E090E0E4
S1130A30A0E0B0E08093240290932502A0932602C4
S1130A40B09327028091280290912902A0912A0252
S1130A50B0912B028C599F4FAF4FBF4F8093280208
S1130A6090932902A0932A02B0932B020895C09870
S1130A70109224021092250210922602109227024C
S1130A808091280290912902A0912A02B0912B0210
S1130A90C296A11DB11D8093280290932902A093B0
S1130AA02A02B0932B020895B89AC09808958091B1
S1130AB07F04882319F0815080937F0408958091E6
S1130AC07F04893018F48F5F80937F0408958091A8
S1130AD07F0490E0FC01EB58FB4F2081222329F096
S1130AE0FC01EB58FB4F21502083089580917F0433
S1130AF090E0FC01EB58FB4F2081FC01EE0FFF1F3F
S1130B00EC58FF4F3081231728F4FC01EB58FB4FBE
S1130B102F5F20830895A5E7B0E0E5E7F4E02FE731
S1130B2034E08C9181931296E217F307D1F708957C
S1130B308093810487E595E090934E0480934D045F
S1130B408FE595E0909321048093200483EC95E055
S1130B509093300480932F0487E695E09093FF03ED
S1130B608093FE0386E795E090933F0480933E04D0
S1130B708BE895E090935D0480935C0467E082E0E9
S1130B800E944F0A089565E774E084E00E945D11B5
S1130B9088E080939504809390049498969808959F
S1130BA0CF93E0918004C1E0CE0FC0938004F0E0C5
S1130BB0E159FB4F80834C2F50E067EC70E08FE6E7
S1130BC094E00E94A421892B51F01092800486E0C5
S1130BD0EFE6F4E0DF011D928A95E9F705C0C6301F
S1130BE019F481E00E949805CF91089585E00E9450
S1130BF0D005089584E00E94D005089583E00E9402
S1130C00D005089582E00E94D005089581E00E94F5
S1130C10D005089580E00E94D00508958AE00895E3
S1130C204091B9045091BA046091BB047091BC0422
S1130C3080912C0290912D02A0912E02B0912F024E
S1130C4084179507A607B70708F090C08091810420
S1130C50882309F48BC04091B9045091BA0460917F
S1130C60BB047091BC0446505F4F6F4F7F4F40935D
S1130C702C0250932D0260932E0270932F02823027
S1130C8039F480917F04823018F081E080937F04EE
S1130C9080919504873031F460917F0481E994E078
S1130CA00E94F70980919004873051F4E0917F0409
S1130CB0F0E0EB58FB4F60818CE894E00E94F70968
S1130CC080919504883049F580919004883029F505
S1130CD08091B9049091BA04A091BB04B091BC0472
S1130CE088519C4FAF4FBF4F80932C0290932D029D
S1130CF0A0932E02B0932F0283E78093A40481E68D
S1130D008093980480E7809396041092A2048AE06A
S1130D1080939504809390040895809195048A307B
S1130D2051F4809190048A3031F410929504109219
S1130D3090041092810480917F04811102C00E946A
S1130D405D1280917F04813019F483E60E945D1264
S1130D5080917F04883019F48AE00E943B088091D6
S1130D607F04893019F483E60E943B080895CF92EA
S1130D70DF92EF92FF92CF93DF93C090B904D090AB
S1130D80BA04E090BB04F090BC0484E1C80ED11C0A
S1130D90E11CF11CC7EBD4E012C082E494E00E9491
S1130DA07B0381110CC082E00E94980582EB90E0E5
S1130DB09F938F930E940A020F900F9009C08A811B
S1130DC09B81AC81BD818C159D05AE05BF0528F3C3
S1130DD0DF91CF91FF90EF90DF90CF9008958AE05C
S1130DE096E090934E0480934D0486E096E09093B1
S1130DF021048093200482E096E090933004809351
S1130E002F048EEF95E09093FF038093FE038AEF07
S1130E1095E090933F0480933E0486EF95E0909391
S1130E205D0480935C0465E774E084E00E94A5118E
S1130E30A5E7B4E0E4E7F0E048E850E020E09C9166
S1130E408081891718F481818C932F5F11963296D3
S1130E50E417F507A1F7222329F065E774E084E09D
S1130E600E945D111092800486E0EFE6F4E0DF0159
S1130E701D928A95E9F70E94B70608958A3030F4E6
S1130E80E82FF0E0EB58FB4F8081089580E008954F
S1130E90CF92DF92EF92FF920F931F93CF93DF9342
S1130EA08C01809194038230D1F588E00E943E0742
S1130EB0D82F89E00E943E07C82F88E00E943E0791
S1130EC02C2F30E024563F4F281B3109209FC001AE
S1130ED0219F900D309F900D112463E670E00E94D5
S1130EE04D20072E000C880B990B0E94291A2AE921
S1130EF039E949ED5FE30E947F196B017C016D2F95
S1130F0070E080E090E00E94291A9B01AC01C701C7
S1130F10B6010E9413190E94F819862F1EC088E09A
S1130F200E943E07D82F89E00E943E07C82F88E020
S1130F300E943E072C2F30E024563F4F281B3109D6
S1130F40209FC001219F900D309F900D112463E6D6
S1130F5070E00E944D208D2F860FDF91CF911F915D
S1130F600F91FF90EF90DF90CF9008958DEC90E07B
S1130F709F938F930E940A0286E894E00E942F18A0
S1130F8081E080938204949815BC8F9A979A0F906D
S1130F900F9008951092820415BC979A949808951E
S1130FA090918204925021E030E0933010F020E0E0
S1130FB030E0C90108950E94D007009799F08BEDA5
S1130FC090E09F938F930E940A0215BC979A94987D
S1130FD0E2E8F4E08081818381E080830F900F90C8
S1130FE081E090E00895809182048130D9F4949A4C
S1130FF085B5806385BD85B5806485BD85B5816013
S113100085BDE2E8F4E08081818384E0808348EE5A
S113101053E060E070E086E894E00E94371881E0D5
S113102090E0089580E090E008958091850490E038
S1131030089589EE90E09F938F930E940A020E9484
S1131040DB0785E0809382040F900F9008950E943F
S1131050D007009729F083E08093820481E090E038
S113106008950E94D007009729F082E080938204BB
S113107081E090E00895E2E8F4E096E090838383D1
S11310800895CF93C82F46E950E060E070E080E314
S113109092E00E948318892B09F449C0909182043C
S11310A09330B9F028F4913089F0923039F03FC090
S11310B0953079F188F1963099F139C0C09385045F
S11310C08C2F90E00E94480783BD31C010928504A4
S11310D02EC0C33348F484E18C0F8093850490E0E0
S11310E00E94480783BD23C08DEC8C0F843148F4E3
S11310F08FE08C0F8093850490E00E94480783BDA5
S113110016C0C09385048C2F90E00E94480783BDCD
S11311100EC015BC979A0BC082E08093820407C06E
S1131120C09385048C2F90E00E94480783BDCF9123
S11311300895AE9AAD9ADD9ADF9ADE9AAA9AAF9A8A
S11311400895929A10929904C79A1092A504AC9AA1
S113115010929704AB9A1092A3040895A69AA59AA4
S1131160D59AD79AD69AA29AA79A8A9AEAE9F4E0E3
S113117088E994E091838083BF9A24EA34E033833E
S11311802283A1E9B4E011963C932E9313969C9389
S11311908E931297A49A26E934E035832483A39A84
S11311A082EA94E097838683ECE8F4E03183208339
S11311B0938382830E94A1080E9499080895CF9383
S11311C0DF93FC01308120918800321709F495C027
S11311D0EC010E949908E8818E2F90E08F3F9105E1
S11311E008F088C0FC01E65DFF4F0C946120AE98C6
S11311F0AD98DD98DF98DE98AA987CC0AD98DD980C
S113120079C0AE98AD98AF98DE98DF9873C0AE9869
S1131210AD98AF98DD98DF986DC0AA98AF98AD9857
S1131220DD9868C0AE98AA98AF98DD98DF9862C040
S1131230AE98AA98AF98DD98DF98DE985BC0AE9818
S1131240AD98DD9857C0AE98AD98DD98DF98DE98DC
S1131250AA98AF984FC0AE98AD98DD98DF98AA9839
S1131260AF9848C0AE98AD98DD98DE98AA98AF982C
S113127041C0DD98DF98DE98AA98AF983BC0AE983D
S1131280DF98DE98AA9836C0AD98DD98DF98DE988E
S1131290AF9830C0AE98DF98DE98AA98AF982AC06D
S11312A0AE98DE98AA98AF9825C0DE98AF9822C071
S11312B0DD98DF98DE98AF981DC0AE98AD98DE98A3
S11312C0AA98AF9817C0AE98DD98DF98AA98AF98FF
S11312D011C0DF98DE98AA980DC0AF980BC0AA98E9
S11312E009C0DE9807C0DF9805C0DD9803C0AD983B
S11312F001C0AE98888180938800DF91CF910895D2
S1131300CF93DF93EC010E94A108CE010E94DF0875
S113131084E0C839D80729F4929881E0809399042D
S113132019C084E0C43AD80729F4C79881E08093AF
S1131330A50410C084E0C639D80729F4AC9881E02C
S11313408093970407C0C25AD44021F4AB9881E03B
S11313508093A304DF91CF910895EF92FF921F939E
S1131360CF93DF93FC01C081D1812196D183C083C7
S11313709E01ADECBCEC0E946720969587959695EE
S11313808795969587959C01220F331F880F991F87
S1131390880F991F880F991F820F931FC817D907A9
S11313A001F57F0110913502143058F4E12FF0E07B
S11313B0EE0FFF1FE656FB4F808191810E9480094A
S11313C002C00E94A1081F5F153019F01093350266
S11313D002C010923502C039D14019F4F7011182CC
S11313E01082DF91CF911F91FF90EF900895FC013F
S11313F06436F8F4611108C0A081B1811C920280A6
S1131400F381E02D10820895A081B1819DEC699F44
S1131410912D11249695969596959C930280F3812F
S1131420E02D892F880F982F990F990F890F681B2A
S113143060830895FC0160830895813039F018F0C9
S1131440823039F0089560935102089560935002F8
S1131450089560935002609351020895882319F00F
S1131460813029F008C08091950490E0089580911E
S1131470900490E008958FEF9FEF08958091950474
S1131480863021F48091A604809395048091900481
S1131490863021F48091A7048093900408958130CC
S11314A0A1F018F0823009F10895663021F480919A
S11314B095048093A60480919504863019F4609372
S11314C0A6040895609395040895663021F48091EC
S11314D090048093A70480919004863019F460935B
S11314E0A7040895609390040895663041F48091B0
S11314F095048093A604809190048093A70480911E
S11315009504863029F46093A7046093A604089593
S11315106093950460939004089595E090939504E6
S11315209093900480934B02089568EF88E994E0C7
S11315300E941A0A68EF84EA94E00E941A0A68EF8B
S113154086E994E00E941A0A68EF82EA94E00E9415
S11315501A0A08958091B9049091BA04A091BB0429
S1131560B091BC0440913A0250913B0260913C021C
S113157070913D02481759076A077B0708F026C196
S113158080919504833009F459C030F4882309F418
S113159087C0813039F18EC0853009F474C048F1B8
S11315A0863009F087C00E94660220E030E048ECF3
S11315B052E40E94DE1A0E94F11970934A02609369
S11315C049029B013695279536952795ABE7B4E1FB
S11315D00E94672096958795682F81E994E00E9480
S11315E0F70968C06091510281E994E00E94F7090B
S11315F061C080919004843031F081E0809395043F
S11316008093900457C048515C4F6F4F7F4F409375
S11316103A0250933B0260933C0270933D0283E78D
S11316208093A40481E68093980480E780939604D1
S113163081E08093950480939004089580919004B0
S1131640833031F081E0809395048093900432C01C
S113165048515C4F6F4F7F4F40933A0250933B0287
S113166060933C0270933D028CE68093A4048FE661
S11316708093980480E78093960481E08093950496
S11316808093900417C085E68093A40482E7809336
S1131690980460914B028CE894E00E94F7090AC018
S11316A068EF88E994E00E941A0A68EF84EA94E0FB
S11316B00E941A0A80919004813019F148F1863011
S11316C019F08D3081F16FC04091490250914A0266
S11316D09A013695279536952795ABE7B4E10E9494
S11316E067209695879564E6689F9001699F300D01
S11316F01124BA01621B730B8CE894E00E94F70971
S113170052C0609150028CE894E00E94F7094BC0EB
S113171068EF86E994E00E941A0A68EF82EA94E08E
S11317200E941A0A40C044EF51E060E070E084E493
S113173092E00E948318892BB1F1809143028111B8
S11317400EC081E08093430267EF86E994E00E9433
S11317501A0A67EF82EA94E00E941A0A24C01092DF
S1131760430280913F0290914002A0914102B091C6
S113177042020097A105B10529F461E081E00E94CD
S11317804F0A11C00197A109B10980933F029093B8
S11317904002A0934102B093420260913E028CE861
S11317A094E00E94F70980913A0290913B02A09143
S11317B03C02B0913D02C296A11DB11D80933A0234
S11317C090933B02A0933C02B0933D0208950F9383
S11317D01F930091B9041091BA042091BB04309175
S11317E0BC04DC01CB01800F911FA21FB31F8093A7
S11317F04C0290934D02A0934E02B0934F0262E0CC
S1131800842F0E944F0A1F910F910895809195048F
S1131810823029F080919004823009F078C04091A0
S1131820B9045091BA046091BB047091BC048091D6
S1131830360290913702A0913802B0913902841790
S11318409507A607B70708F062C08091B904909184
S1131850BA04A091BB04B091BC0481559F4FAF4F13
S1131860BF4F8093360290933702A0933802B0930F
S1131870390280919504823061F460918A0088E98C
S113188094E00E941A0A60918A0084EA94E00E941B
S11318901A0A80919004823061F46091890086E98B
S11318A094E00E941A0A6091890082EA94E00E94FE
S11318B01A0A4091B9045091BA046091BB04709122
S11318C0BC0480914C0290914D02A0914E02B091C3
S11318D04F0284179507A607B70728F461E082E052
S11318E00E944F0AC59890918A009F5F90938A0046
S11318F0809189008150809389009F3F19F499EF6A
S113190090938A00883F19F48EEF8093890008959C
S1131910E199FECF9FBB8EBB6DBBE29AE19A08951D
S1131920E199FECF9FBB8EBBE09A8DB30895CF9310
S1131930C82F8091900390919103826090939103BA
S1131940809390038C2F0E948D0A0E941908C13045
S113195021F481E00E94631203C080E00E946312BC
S11319600E94BD17C093A804CF91089510926E02EF
S113197010926D0210926C02109264021092650231
S11319808FE692E00E9479188FE592E00E94791820
S11319901092A804089510926E0210926D02109293
S11319A06C0210926402109265028FE692E00E942B
S11319B079188FE592E00E9479181092A80408958E
S11319C08091B9049091BA04A091BB04B091BC0475
S11319D08053984FAF4FBF4F80935B0290935C024C
S11319E0A0935D02B0935E0208954F925F926F924E
S11319F07F928F929F92AF92BF92CF92DF92EF929B
S1131A00FF924091B9045091BA046091BB04709163
S1131A10BC048091570290915802A0915902B09150
S1131A205A0284179507A607B70708F047C28091A2
S1131A30900380FF43C24091B9045091BA0460916D
S1131A40BB047091BC0446505F4F6F4F7F4F40936F
S1131A505702509358026093590270935A0281FDC1
S1131A602DC20E9466024B015C010E941508BC0154
S1131A7080E090E00E94271A6B017C0125E935E69D
S1131A8040ED5FE30E944B1B2B013C01A701960133
S1131A90C501B4010E94DE1A20E030E048EC52E4B3
S1131AA00E947F194B015C0123E333E343E651E4D5
S1131AB0C701B6010E94DE1A20E030E048EC52E48F
S1131AC00E947F199B01AC01C501B4010E94121947
S1131AD020E030E040E450E40E947F194B015C01B7
S1131AE028E539E344E35CE3C301B2010E94DE1A52
S1131AF09B01AC01C501B4010E9413194B015C01A7
S1131B0085E00E943E07682F70E062537109072E3A
S1131B10000C880B990B0E94291AA70196010E94B8
S1131B20DE1A20E030E048EC53E40E947F19A5015E
S1131B3094010E9413196093680270936902809360
S1131B406A0290936B0280E00E94081142E05BE21B
S1131B5067E07DE380E00E942111209168023091CA
S1131B60690240916A0250916B020E94D91A1816B8
S1131B7044F40E94D007892B21F081E080936C0209
S1131B8002C010926C0283E00E943E07882309F48D
S1131B90D2C080916C02813009F088C080916E02BD
S1131BA0823009F460C028F4882351F0813069F14F
S1131BB0C2C0833009F462C0843009F463C0BBC07E
S1131BC081E080936E020E9415082EE1AC01249FEF
S1131BD0C001259F900D112448E853E17A01E81AC9
S1131BE0F90AFF92EF9288EF90E09F938F930E94FF
S1131BF00A02A70160E070E08FE692E00E943718C5
S1131C000F900F900F900F9096C08FE692E00E9475
S1131C105918892B09F48FC00E9427080E941508BF
S1131C202EE1AC01249FC001259F900D112448E8AA
S1131C3053E17A01E81AF90AFF92EF9287E191E001
S1131C409F938F930E940A02A70160E070E08FE6E1
S1131C5092E00E94371882E080936E020F900F90FA
S1131C600F900F9068C08FE692E00E945918892B5C
S1131C7009F461C083E080936E025DC081E00E943C
S1131C80970C59C08FE692E00E945918892B09F4E9
S1131C9052C040ED57E060E070E08FE692E00E94B1
S1131CA0371880916D0280936E0245C080916E0258
S1131CB08230F1F018F4813031F03DC0833079F195
S1131CC0843089F138C08FE692E00E945918892B3C
S1131CD091F140ED57E060E070E08FE692E00E9401
S1131CE0371884E080936E0281E080936D0223C0F4
S1131CF08FE692E00E945918892BE9F040ED57E0F5
S1131D0060E070E08FE692E00E9437180E9431088C
S1131D1084E080936E0282E080936D020CC081E0C7
S1131D200E94970C08C08FE692E00E945918892BF4
S1131D3011F010926E0282E00E943E07882309F49B
S1131D40BDC084E00E943E0790E0909367028093B8
S1131D50660281E00E9408112091660230916702B8
S1131D602817390720F54091B9045091BA046091BD
S1131D70BB047091BC0480915B0290915C02A091C1
S1131D805D02B0915E0284179507A607B70778F441
S1131D9081E08093640280916502813051F1A8F062
S1131DA0823009F44BC0833009F451C087C01092CB
S1131DB0640280916502823009F466C0833009F4BC
S1131DC07AC0813009F07AC046C081E08093650210
S1131DD08BE391E09F938F930E940A024CED55E0B0
S1131DE060E070E08FE592E00E9437180F900F904A
S1131DF065C08FE592E00E945918892B09F45EC0F2
S1131E000E94D512049724F083E08093650256C0A3
S1131E1040ED57E060E070E08FE592E00E943718F3
S1131E2082E0809365020E94C91286E591E09F9347
S1131E308F930E940A020F900F9040C08FE592E0AA
S1131E400E945918892BD1F11092650237C082E0A3
S1131E500E94970C33C08FE592E00E945918892B99
S1131E6069F140ED57E060E070E08FE592E00E9498
S1131E7037181092650280E791E09F938F930E9438
S1131E800A020F900F901AC08FE592E00E94591831
S1131E90892BA1F01092650280E791E09F938F93C4
S1131EA00E940A026CEA7DE080E090E00E944B13FD
S1131EB00F900F9003C082E00E94970CFF90EF9068
S1131EC0DF90CF90BF90AF909F908F907F906F9056
S1131ED05F904F9008954EE551E060E070E082E538
S1131EE092E00E948318892B09F18091A804813023
S1131EF071F492B380E1892782BB80919003909121
S1131F00910390629093910380939003089582309B
S1131F1069F492B380E4892782BB80919003909105
S1131F209103906290939103809390030895FC0130
S1131F3020813181623058F0329691E04191519183
S1131F40240F351F369527959F5F6913F7CFC90175
S1131F500895EAEBF2E022EE32E081EF91E0819322
S1131F6091932E173F07D9F7E9E9F2E087EB92E066
S1131F70119211928E179F07D9F7E1E8F2E085E9F3
S1131F8092E0119211928E179F07D9F70895CF927C
S1131F90DF92EF92FF92CF93DF934091B904509177
S1131FA0BA046091BB047091BC0480917802909152
S1131FB07902A0917A02B0917B0284179507A60753
S1131FC0B70708F0D1C08091B9049091BA04A091E8
S1131FD0BB04B091BC044496A11DB11D809378024A
S1131FE090937902A0937A02B0937B0280E00E94DE
S1131FF07603EC016091B7027091B80280E090E042
S11320000E94271A21E73DE34AE85EE30E94DE1AB4
S11320106B017C01BE0180E090E00E94271A9B01C5
S1132020AC01C701B6010E9413190E94F8197093FC
S1132030E5026093E4022091E602E22FF0E0EE0F65
S1132040FF1FE654FD4F7183608381E0820F80930C
S1132050E60282E00E9476038032910530F04F97C9
S1132060909398028093970204C010929802109261
S11320709702E091B902F0E0EE0FFF1FE756FD4F23
S113208080919702909198029183808381E00E94CD
S1132090760390937F0280937E0220917C0230919C
S11320A07D022115310571F02817390728F41092A3
S11320B07F0210927E0206C0281B390B30937F02E8
S11320C020937E02C0918002EC2FF0E0EE0FFF1F00
S11320D0EF57FD4F80917E0290917F029183808320
S11320E0D091B902DF5FD093B902CF5FC093800271
S11320F064E18AEB92E00E94970F9093E30280934D
S1132100E2026FE089E992E00E94970F9093B8028F
S11321108093B7026AE081E892E00E94970F90935F
S11321209602809395028091740290917502A09119
S11321307602B09177020196A11DB11D80937402BD
S113214090937502A0937602B09377028091E60291
S1132150843111F41092E602CA3011F41092800214
S1132160DF3011F41092B902DF91CF91FF90EF901C
S1132170DF90CF900895CF92DF92EF92FF92CF93AA
S1132180DF93C090B904D090BA04E090BB04F090FF
S1132190BC048CEBC80E82E0D81EE11CF11CC7EB1A
S11321A0D4E00E94C70F8A819B81AC81BD81C8168F
S11321B0D906EA06FB06A8F70E94660220E030E092
S11321C048E851E40E94D91A181624F482E0809356
S11321D0940303C081E080939403809195029091CD
S11321E0960280937C0290937D029F938F9389E85B
S11321F091E09F938F930E940A020F900F900F908B
S11322000F90DF91CF91FF90EF90DF90CF900895E2
S1132210833018F4813040F00CC0833079F480911D
S1132220E2029091E30208958091B7029091B8027E
S113223008958091950290919602089580E090E02F
S11322400895CF92DF92EF92FF926A017B0183306F
S113225018F4813050F010C08330A9F46091E20288
S11322607091E30280E090E011C06091B702709138
S1132270B80280E090E00AC06091950270919602E5
S113228080E090E003C060E070E0CB010E94271A78
S113229020E030E040E85AE30E94DE1A20E030E01B
S11322A040EA50E40E94DE1AA70196010E947F19B9
S11322B0FF90EF90DF90CF900895EF92FF920F93ED
S11322C01F93CF938B01823059F028F4882391F027
S11322D0813051F134C0833051F1843021F02FC06A
S11322E084E090E026C00E940E06282F30E088E0AB
S11322F090E004C022E030E080E090E0C82F7C0150
S1132300E20EF31E99278E159F05CCF4F801619116
S11323108F018C2F90E00E94880CCF5F8C2F90E06F
S11323208E159F059CF30BC082E090E002C086E00E
S113233090E0C82F7C01F2E0EF0EF11CE7CFCF91C3
S11323401F910F91FF90EF900895EF92FF920F93DA
S11323501F93CF938B01823059F028F4882391F096
S1132360813051F134C0833051F1843021F02FC0D9
S113237084E090E026C00E940E06282F30E088E01A
S113238090E004C022E030E080E090E0C82F7C01BF
S1132390E20EF31E99278E159F05CCF48C2F90E046
S11323A00E94900CF80181938F01CF5F8C2F90E0F5
S11323B08E159F059CF30BC082E090E002C086E07E
S11323C090E0C82F7C01F2E0EF0EF11CE7CFCF9133
S11323D01F910F91FF90EF9008958F929F92AF926B
S11323E0BF92CF92DF92EF92FF920F931F93CF93FE
S11323F0DF93F82E80E00E943E07C2E3D0E09E0106
S1132400281B3109C9018901000F111F880F991F69
S1132410880F991F880F991F080F191F0053184F11
S113242081E00E943E07C81BD109BE01660F771FD9
S1132430CC0FDD1FCC0FDD1FCC0FDD1F6C0F7D1FFC
S113244065507B4F601B710B072E000C880B990B9A
S11324500E94291A4B015C016F2D70E080E090E02E
S11324600E94271A9B01AC01C501B4010E94DE1A27
S113247020E030E046EC52E40E947F196B017C01BD
S1132480B801110F880B990B0E94291A9B01AC010A
S1132490C701B6010E9413190E94F8197BBD6ABDD9
S11324A0DF91CF911F910F91FF90EF90DF90CF902C
S11324B0BF90AF909F908F90089594E09093A9045B
S11324C00E94ED110895882319F080E00E94ED1117
S11324D0969886E08093A9040895CF93DF932FE123
S11324E03EE437BD26BD81B3806381BB19BC18BCF3
S11324F01BBC1ABC8FB582608FBD8EB588618EBD42
S11325008FB580688FBD8EB582608EBD3BBD2ABD00
S1132510969880E00E94ED11C9EAD4E081E08883B6
S11325201B828DEA94E00E942F1819861092FB02F8
S11325308FEA91E09F938F930E940A020F900F906D
S1132540DF91CF9108959091A904925021E030E059
S1132550923010F020E030E0C90108959091A90470
S11325609130A1F4E9EAF4E093E0908383831F922D
S11325708F938CEB91E09F938F930E940A020F90AC
S11325800F900F900F9081E090E0089580E090E02C
S113259008958091A9049FEF980F923028F4E9EAF6
S11325A0F4E0818385E0808308958091B20490E013
S11325B008950E94A3120097D1F080E00E94ED11CB
S11325C0E9EAF4E081E0808313821F921F9283ED95
S11325D091E09F938F930E940A0296980E94E00CC8
S11325E00F900F900F900F9081E090E0089520914C
S11325F0A904253031F40E9402130E94E00C81E00A
S113260090E008958091AA04823029F48093A9046B
S11326100E94D91209C0813071F4E9EAF4E082E041
S1132620808383810E941C131092FB02E9EAF4E088
S113263081858F5F81870895CF93C82F8091A904E6
S11326409FEF980F9330D0F4E9EAF4E082E08083BE
S1132650C3838C2F0E94ED111F92CF9384EE91E0DF
S11326609F938F930E940A02969A0E94E00C0F9007
S11326700F900F900F9081E090E00BC0853039F4FB
S11326800E9402130E94E00C81E090E002C080E00E
S113269090E0CF910895AB01BC018DEA94E00E94D3
S11326A037180895CF93DF93C82F4BE450E060E0D0
S11326B070E086EF92E00E948318892B09F4BEC073
S11326C08091A9048530A1F030F4823059F0833030
S11326D009F469C0A3C0863009F47FC0873009F4C7
S11326E099C09CC0C093AC048C2F0E94ED1196C07D
S11326F08091FB02811113C04AEF50E060E070E06A
S113270081EF92E00E9437188091FB028F5F8093E3
S1132710FB029091AC04890F0E94ED1130C08150EE
S1132720893008F581EF92E00E945918019739F534
S11327304AEF50E060E070E081EF92E00E943718C9
S11327408091FB028F5F8093FB02C091AC0487E011
S11327500E943E079091FB02899FC00D11248C2F8B
S11327600E94ED110CC01092FB02C9EAD4E08B81E7
S11327700E94ED118981888389858F5F89872091E3
S1132780AC048091FB0290E0820F911D9F938F9384
S113279086EF91E09F938F930E940A020F900F900F
S11327A00F900F903BC08CEE92E00E944F18892B43
S11327B059F08CEE92E00E945918019779F582E065
S11327C08093A904969A2AC048EB5BE060E070E02D
S11327D08CEE92E00E94371821C087EE92E00E94AE
S11327E04F18892B71F087EE92E00E9459180197D7
S11327F0A9F487E08093A9048FE19EE49BBD8ABD80
S11328000DC04CEA5DE060E070E087EE92E00E946B
S1132810371804C08FE19EE49BBD8ABD8DEA94E025
S11328200E945918019751F41092B20484E092E086
S11328309F938F930E940A020F900F90DF91CF9184
S11328400895E2E4F4E0168615861286118614864D
S11328501386E5E1F4E01686158612861186148641
S113286013861092300410922F04E3EFF3E01686DF
S113287015861486138612861186E3E3F4E0168621
S11328801586148613861286118610925D041092A2
S11328905C04E0E6F4E01486138616861586128638
S11328A01186E5EDF3E014861386168615861286E6
S11328B01186E4EEF3E014861386168615861286D6
S11328C01186089580910403823049F08091900329
S11328D0909191039860909391038093900308954D
S11328E080910403823049F0809190039091910388
S11328F0806890939103809390030895809190034E
S11329009091910392609093910380939003089522
S11329108091900390919103997F90939103809378
S11329209003109205030895809190039091910370
S11329308062909391038093900308958091900313
S1132940909191038F7990939103809390031092C7
S11329500503089580919003909191039062909360
S1132960910380939003809193038B3018F08150EE
S1132970809393036091930381E00E941D0A61E0B8
S113298082E00E944F0A08958091900390919103F0
S113299090629093910380939003809192038B3083
S11329A018F08150809392036091920380E00E941A
S11329B01D0A80E00E942E0A029729F461E082E059
S11329C00E944F0A04C061E080E00E944F0A809197
S11329D004038F5F80930403823019F466E00E943D
S11329E04F0A08958091900390919103906290937F
S11329F091038093900380919203833618F48F5F40
S1132A00809392036091920380E00E941D0A80E00B
S1132A100E942E0A029729F461E082E00E944F0A84
S1132A2004C061E080E00E944F0A809104038F5F3C
S1132A3080930403823019F466E00E944F0A0895DB
S1132A400E943E0A8091900390919103977E909307
S1132A5091038093900310920503809104038823CB
S1132A6019F081508093040380E00E942E0A02979B
S1132A7029F461E082E00E944F0A089561E080E059
S1132A800E944F0A08950E943E0A809190039091FB
S1132A9091038F779E7F909391038093900310927C
S1132AA0050380910403882319F081508093040363
S1132AB080E00E942E0A029729F461E082E00E94DD
S1132AC04F0A089561E080E00E944F0A08958091C2
S1132AD0900390919103906290939103809390035B
S1132AE080919303833628F48F5F809393030E942D
S1132AF0E00C6091930381E00E941D0A61E082E092
S1132B000E944F0A0895E5EBF4E0809192038083DC
S1132B10809193038183BF0183E00E945D11089536
S1132B20809190039091910390629093910380938C
S1132B309003809192038A3038F48AE08093920360
S1132B406AE080E00E941D0A0E9483150E94D0075B
S1132B50892B39F40E94F307809193030E94AE12EB
S1132B6008950E94DB070E94D91208958091900372
S1132B70909191039062909391038093900380913C
S1132B8093038A3038F48AE0809393036AE081E007
S1132B900E941D0A0E94A312892B19F00E94D912C7
S1132BA00895809193030E941C1308958FE796E182
S1132BB090930E0480930D0460E082E00E944F0A1B
S1132BC00E94950A63EB74E083E00E94A511809152
S1132BD0B40496EF980F9A3510F480939303809180
S1132BE0B30496EF980F9A3510F4809392030895E6
S1132BF01092040342E068EE73E080E090E00E94EB
S1132C00E70B0E94B60780E00E946D120E94B60C8A
S1132C100E94A90F0E94540581E090E090939103D3
S1132C2080939003E2E4F4E082E694E1968785875A
S1132C3084EC94E19487838780E295E1928781878D
S1132C40E5E1F4E080E794E19687858782EF94E1FB
S1132C509487838783E495E19287818780E995E16E
S1132C609093300480932F04E3EFF3E08EE794E134
S1132C709687858788E894E1928781878AEA94E138
S1132C8094878387E3E3F4E084E994E19687858776
S1132C908EE994E19287818787E695E1948783871B
S1132CA086EB95E190935D0480935C0460919203BC
S1132CB080E00E941D0A6091930381E00E941D0A36
S1132CC00895109204030E94CA070E9421140E94CE
S1132CD0CB0C0E94D912109291031092900360E0E1
S1132CE082E00E944F0A80919003909191038E7F1D
S1132CF090939103809390030E94EF0608950E949D
S1132D0083158091900380FF03C00E94611602C066
S1132D100E94F81580919003909191039062909392
S1132D2091038093900308954091B9045091BA049B
S1132D306091BB047091BC048091FC029091FD02EF
S1132D40A091FE02B091FF0284179507A607B7076A
S1132D5008F0A4C08091900385FF21C06091930383
S1132D606336E8F46B3040F06F5F6093930381E067
S1132D700E941D0A0E94E00C809108038F5F8093DB
S1132D8008038F3060F080919003909191038F7DC0
S1132D908064909391038093900310920803809130
S1132DA090039091910391FF21C060919303662356
S1132DB0E9F06B3040F061506093930381E00E942E
S1132DC01D0A0E94E00C809107038F5F8093070324
S1132DD08F3060F080919003909191039D7F946077
S1132DE09093910380939003109207038091900332
S1132DF087FF1DC0609192036336C8F46F5F6093D0
S1132E00920380E00E941D0A809106038F5F8093E5
S1132E1006038F3060F080919003909191038F7737
S1132E209160909391038093900310920603809194
S1132E3090039091910393FF1DC0609192036B30B6
S1132E40C8F061506093920380E00E941D0A809153
S1132E5005038F5F809305038F3060F080919003AA
S1132E6090919103977F9061909391038093900345
S1132E70109205038091FC029091FD02A091FE0244
S1132E80B091FF02805B9F4FAF4FBF4F8093FC0216
S1132E909093FD02A093FE02B093FF020895409127
S1132EA0B9045091BA046091BB047091BC04809140
S1132EB0000390910103A0910203B09103038417CE
S1132EC09507A607B70708F057C080919303833688
S1132ED070F48091900386FF0AC00E94E00C609118
S1132EE093036F5F6093930381E00E941D0A6091D6
S1132EF093036B3070F0809190039091910392FF53
S1132F0008C061506093930381E00E941D0A0E94EF
S1132F10E00C60919203633660F480919003909189
S1132F20910390FF06C06F5F6093920380E00E945C
S1132F301D0A609192036B3060F080919003909130
S1132F40910394FF06C061506093920380E00E9455
S1132F501D0A8091000390910103A0910203B09196
S1132F6003034E96A11DB11D8093000390930103AA
S1132F70A0930203B093030308950E9421140895BB
S1132F801F920F920FB60F9211242F933F934F93DA
S1132F905F936F937F938F939F93AF93BF93EF93BD
S1132FA0FF93E7EBF4E080819181C2969183808363
S1132FB080819181883E934088F082819381A481AD
S1132FC0B5810196A11DB11D82839383A483B5832A
S1132FD080819181885E93409183808389E093E02E
S1132FE00E94AD09FF91EF91BF91AF919F918F9195
S1132FF07F916F915F914F913F912F910F900FBEF1
S11330000F901F90189593B7986093BF6CBF823050
S113301099F028F4882341F0813051F019C08330AD
S113302079F0843089F014C083B7816083BF13C002
S113303083B7826083BF0FC083B7836083BF0BC035
S113304083B7846083BF07C083B7856083BF03C031
S113305083B7816083BF89B7826089BF089523E005
S1133060FC012483108211821282138208950F932B
S11330701F9321E0FC0124830091B9041091BA0448
S11330802091BB043091BC04400F511F621F731F79
S113309040835183628373831F910F91089521E0CC
S11330A030E0FC018481813011F020E030E0C9017E
S11330B00895FC0184818130B1F48091B904909128
S11330C0BA04A091BB04B091BC04408151816281D7
S11330D07381481759076A077B0740F482E08483A9
S11330E081E090E008958FEF9FEF089580E090E0F5
S11330F0089521E030E0FC018481833011F020E068
S113310030E0C9010895CF92DF92EF92FF920F93BE
S11331101F93CF93DF93EC016A017B018C818111B2
S113312006C083E08C83188219821A821B82CE0126
S11331300E9459188C01019731F4B701A601CE0100
S11331400E9437180DC08C81833041F4B701A60169
S1133150CE010E94371800E010E002C000E010E049
S1133160C801DF91CF911F910F91FF90EF90DF90F5
S1133170CF9008951F920F920FB60F9211242F93A0
S11331803F934F935F938F939F93EF93FF932BB151
S11331903CB1287180910D0390E0019640910C039D
S11331A050E08417950739F080930D03FC01E05F2C
S11331B0FC4F308301C022E020930B03FF91EF9179
S11331C09F918F915F914F913F912F910F900FBEDF
S11331D00F901F9018951F920F920FB60F92112403
S11331E08F939F93EF93FF9390910F0380910E031E
S11331F0981771F080910E0390E001968F779927CC
S113320080930E03FC01E05FFC4F80818CB901C008
S11332105598FF91EF919F918F910F900FBE0F9052
S11332201F9018955058BB27AA270E942A190C945E
S11332309F1A0E94911A38F00E94981A20F039F4CB
S11332409F3F19F426F40C948E1A0EF4E095E7FBD4
S11332500C94881AE92F0E94B01A58F3BA1762071F
S113326073078407950720F079F4A6F50C94D21A15
S11332700EF4E0950B2EBA2FA02D0B01B90190018D
S11332800C01CA01A0011124FF27591B99F0593FD1
S113329050F4503E68F11A16F040A22F232F342F19
S11332A04427585FF3CF469537952795A795F04067
S11332B05395C9F77EF41F16BA0B620B730B840B7C
S11332C0BAF09150A1F0FF0FBB1F661F771F881F34
S11332D0C2F70EC0BA0F621F731F841F48F487958C
S11332E077956795B795F7959E3F08F0B0CF93957E
S11332F0880F08F09927EE0F9795879508950E94F7
S113330093190C949F1A0E94981A58F00E94911ACB
S113331040F029F45F3F29F00C94881A51110C9461
S1133320D31A0C948E1A0E94B01A68F39923B1F33D
S1133330552391F3951B550BBB27AA2762177307D7
S1133340840738F09F5F5F4F220F331F441FAA1F6B
S1133350A9F335D00E2E3AF0E0E832D09150504027
S1133360E695001CCAF72BD0FE2F29D0660F771FD5
S1133370881FBB1F261737074807AB07B0E809F0BB
S1133380BB0B802DBF01FF2793585F4F3AF09E3F40
S1133390510578F00C94881A0C94D31A5F3FE4F327
S11333A0983ED4F3869577956795B795F7959F5F83
S11333B0C9F7880F911D9695879597F90895E1E0CF
S11333C0660F771F881FBB1F621773078407BA072E
S11333D020F0621B730B840BBA0BEE1F88F7E09589
S11333E008950E94F8196894B1110C94D31A0895A1
S11333F00E94B81A88F09F5798F0B92F9927B751AF
S1133400B0F0E1F0660F771F881F991F1AF0BA9584
S1133410C9F714C0B13091F00E94D21AB1E00895F6
S11334200C94D21A672F782F8827B85F39F0B93FE8
S1133430CCF3869577956795B395D9F73EF4909537
S11334408095709561957F4F8F4F9F4F0895E894B5
S113345009C097FB3EF490958095709561957F4FD8
S11334608F4F9F4F9923A9F0F92F96E9BB27939586
S1133470F695879577956795B795F111F8CFFAF496
S1133480BB0F11F460FF1BC06F5F7F4F8F4F9F4FC7
S113349016C0882311F096E911C0772321F09EE825
S11334A0872F762F05C0662371F096E8862F70E08B
S11334B060E02AF09A95660F771F881FDAF7880F65
S11334C09695879597F90895990F0008550FAA0BBB
S11334D0E0E8FEEF16161706E807F907C0F0121623
S11334E01306E407F50798F0621B730B840B950B26
S11334F039F40A2661F0232B242B252B21F408957B
S11335000A2609F4A140A6958FEF811D811D089517
S113351097F99F6780E870E060E008959FEF80EC82
S1133520089500240A941616170618060906089525
S113353000240A9412161306140605060895092E8B
S11335400394000C11F4882352F0BB0F40F4BF2BFA
S113355011F460FF04C06F5F7F4F8F4F9F4F08953A
S113356057FD9058440F551F59F05F3F71F0479530
S1133570880F97FB991F61F09F3F79F08795089515
S1133580121613061406551FF2CF4695F1DF08C034
S1133590161617061806991FF1CF86957105610551
S11335A008940895E894BB2766277727CB0197F9F9
S11335B008950E94641A08F48FEF08950E94F11A86
S11335C00C949F1A0E94911A38F00E94981A20F0C5
S11335D0952311F00C94881A0C948E1A11240C94CF
S11335E0D31A0E94B01A70F3959FC1F3950F50E05F
S11335F0551F629FF001729FBB27F00DB11D639FA1
S1133600AA27F00DB11DAA1F649F6627B00DA11D46
S1133610661F829F2227B00DA11D621F739FB00DEC
S1133620A11D621F839FA00D611D221F749F33275C
S1133630A00D611D231F849F600D211D822F762FF5
S11336406A2F11249F5750409AF0F1F088234AF0D2
S1133650EE0FFF1FBB1F661F771F881F915050403E
S1133660A9F79E3F510580F00C94881A0C94D31A44
S11336705F3FE4F3983ED4F3869577956795B795C5
S1133680F795E7959F5FC1F7FE2B880F911D9695DF
S1133690879597F90895FA01EE0FFF1F30962105DB
S11336A03105A1F16115710561F48038BFE39B0711
S11336B049F168949038810561F08038BFEF9B0729
S11336C041F099234AF5FF3FE1053105210519F140
S11336D0E8940894E795D901AA2329F4AB2FBE2FC7
S11336E0F85FD0F310C0FF5F70F4A695E0F7F739E8
S11336F050F019F0FF3A38F49F779F930DD00F9054
S113370007FC9058089546F00C948E1A60E070E01F
S113371080E89FE308954FE79F775F934F933F932C
S11337202F930E94461C2F913F914F915F910E94CD
S1133730DE1A0C94A31B29F416F00C94881A0C942A
S1133740D21A0C948E1A0E94B81AA8F39638A0F7CD
S113375007F80F92E8942BE33AEA48EB5FE70E94FC
S1133760F41A0F920F920F924DB75EB70F920E9408
S11337708E1CE2E5F2E00E94D51B4F915F91EF9120
S1133780FF91E595EE1FFF1F49F0FE57E0684427BF
S1133790EE0F441FFA95E1F74195550B0E94081C62
S11337A00F9007FE0C94FC1B0895DF93CF931F9397
S11337B00F93FF92EF92DF927B018C01689406C015
S11337C0DA2EEF010E94F11AFE01E894A5912591E9
S11337D0359145915591A6F3EF010E942A19FE01F6
S11337E09701A801DA9469F7DF90EF90FF900F91A9
S11337F01F91CF91DF9108959B01AC0160E070E0CF
S113380080E89FE30C947F190C94881A0C94C21CD2
S11338100E94B81AD8F39923C9F3940F511DA3F346
S11338209150504094F059F0882332F0660F771F7E
S1133830881F91505040C1F79E3F51052CF7880FC7
S1133840911D9695879597F908955F3FACF0983E42
S11338509CF0BB27869577956795B79508F4B1607A
S11338609395C1F7BB0F58F711F460FFE8CF6F5F72
S11338707F4F8F4F9F4FE3CF0C94D31A16F00C94C5
S1133880C21C0C948E1A68940C94881A0E94B81A5C
S1133890A8F39923C1F3AEF3DF93CF931F930F9350
S11338A0FF92C92FDD2788232AF02197660F771FFF
S11338B0881FDAF720E030E040E85FEB9FE38839C7
S11338C020F0803E38F021968F770E941319EAE7A2
S11338D0F2E004C00E941319E7EAF2E00E94D51B4B
S11338E08B01BE01EC01FB2E6F5771097595771F93
S11338F0880B990B0E94291A28E132E741E35FE320
S11339000E94F11AAF2D9801AE01FF900F911F9103
S1133910CF91DF910E942A190C949F1AFA01DC01BD
S1133920AA0FBB1F9B01AC01BF5728F422273327E2
S11339304427507820C0B75190F4AB2F002446950B
S113394037952795011CA395D2F3002071F0220F1F
S1133950331F441FB395DAF30ED00C94121961305F
S11339607105A0E88A07B94630F49B01AC016627CB
S1133970772788279078309621F0208331834283FB
S1133980538308959F3F31F0915020F487957795A4
S11339906795B795880F911D9695879597F9089522
S11339A0A0E1B0E0E6EDFCE10C9476207C011B0183
S11339B06A01FC0117821682838181FF44C39E0140
S11339C02F5F3F4F3901F7019381F10193FD8591F9
S11339D093FF81911F01882309F431C3853239F49F
S11339E093FD859193FF81911F01853239F4B701CD
S11339F090E00E94BC2156016501E5CF10E0512CF6
S1133A00912CFFE1F915D8F08B3279F038F480323B
S1133A1079F08332A1F4F92DF0612EC08D3261F07A
S1133A20803369F4292D21602DC0392D3260932E05
S1133A30892D8460982E2AC0E92DE86015C097FC72
S1133A402DC020ED280F2A3088F496FE06C03AE0F7
S1133A50139F200D1124122F19C08AE0589E200DA7
S1133A601124522EE92DE0629E2E10C08E3231F4C4
S1133A7096FCE5C2F92DF0649F2E08C08C3621F423
S1133A80292D2068922E02C0883641F4F10193FD5D
S1133A90859193FF81911F018111B3CF9BEB980F07
S1133AA0933020F4992D9061805E07C09BE9980FB4
S1133AB0933008F066C1992D9F7E96FF16E09F73A0
S1133AC0992E853619F49064992E08C0863621F40F
S1133AD0392F3068932E02C01111115097FE07C080
S1133AE01C3350F444244394410E27E00BC0183097
S1133AF038F027E017E005C027E09CE3492E02C018
S1133B00212F412C560184E0A80EB11CF6016081DE
S1133B10718182819381042DA3010E94C1206C01D3
S1133B20F981FC87F0FF02C0F3FF06C091FC06C0D8
S1133B3092FE06C000E205C00DE203C00BE201C024
S1133B4000E08C858C7019F001115AC29BC297FE5B
S1133B5010C04C0CFC85F4FF04C08A81813309F445
S1133B604A94141474F528E0241578F588E0482E56
S1133B702CC096FC2AC0812F90E08C159D059CF0EA
S1133B803CEFC3163FEFD30674F0892D8068982E5E
S1133B900AC0E2E0F0E0EC0FFD1FE10FF11D8081AF
S1133BA0803319F411501111F4CF97FE0EC0442440
S1133BB04394410E812F90E0C816D9062CF41C19A9
S1133BC004C04424439401C010E097FE06C01C14B2
S1133BD01D0434F4C601019605C085E090E002C0DE
S1133BE081E090E001110196112331F0212F30E0A2
S1133BF02F5F3F4F820F931F252D30E082179307CD
S1133C0014F4581A01C0512C892D897049F4552097
S1133C1039F0B70180E290E00E94BC215A94F7CFBA
S1133C20002329F0B701802F90E00E94BC2193FC6F
S1133C3009C0552039F0B70180E390E00E94BC210F
S1133C405A94F7CF97FE4CC04601D7FE02C0812C90
S1133C50912CC60188199909F301E80FF91FFE8711
S1133C60ED87960124193109388B2F87012F10E035
S1133C701195019511093FEF8316930629F4B701B5
S1133C808EE290E00E94BC21C814D9044CF08F85C8
S1133C9098898815990524F4ED85FE85818101C0F4
S1133CA080E3F1E08F1A91082D853E852F5F3F4F09
S1133CB03E872D87801691062CF0B70190E00E9474
S1133CC0BC21D9CFC814D90441F49A81963320F485
S1133CD0953319F43C8534FF81E3B70190E04EC07D
S1133CE08A81813319F09C859F7E9C87B70190E07F
S1133CF00E94BC21111105C094FC18C085E690E017
S1133D0017C0B7018EE290E00E94BC211E5F82E0E2
S1133D1001E0080FF301E80FF11D8081B70190E085
S1133D200E94BC21802F0113F3CFE6CF85E490E0FD
S1133D30B7010E94BC21D7FC06C0C114D10441F4D0
S1133D40EC85E4FF05C0D194C194D1088DE201C093
S1133D508BE2B70190E00E94BC2180E32AE0C21606
S1133D60D1042CF08F5FFAE0CF1AD108F7CFB70156
S1133D7090E00E94BC21B701C601C0960E94BC21FC
S1133D8054C1833631F0833779F0833509F056C056
S1133D9020C0560132E0A30EB11CF6018081898354
S1133DA001E010E0630112C05601F2E0AF0EB11C55
S1133DB0F601C080D18096FE03C0612F70E002C07E
S1133DC06FEF7FEFC6010E94B1218C01F92DFF77BF
S1133DD014C0560122E0A20EB11CF601C080D180AD
S1133DE096FE03C0612F70E002C06FEF7FEFC60143
S1133DF00E9499218C01F92DF0689F2EF3FD1AC0C1
S1133E00852D90E008171907A8F4B70180E290E027
S1133E100E94BC215A94F4CFF60197FC859197FE39
S1133E2081916F01B70190E00E94BC2151105A9416
S1133E30015011090115110579F7F7C0843611F005
S1133E40893661F5560197FE09C024E0A20EB11C23
S1133E50F60160817181828193810AC0F2E0AF0E24
S1133E60B11CF60160817181072E000C880B990B3F
S1133E70F92DFF769F2E97FF09C090958095709538
S1133E8061957F4F8F4F9F4FF0689F2E2AE030E05F
S1133E90A3010E941422C82EC6183FC0092D8537DD
S1133EA021F40F7E2AE030E01DC0097F8F3691F0A7
S1133EB018F4883559F0C3C0803719F0883711F0E9
S1133EC0BEC0006104FF09C0046007C094FE08C0BE
S1133ED0066006C028E030E005C020E130E002C002
S1133EE020E132E0560107FF09C084E0A80EB11CAE
S1133EF0F601608171818281938108C0F2E0AF0E86
S1133F00B11CF6016081718180E090E0A3010E9400
S1133F101422C82EC6180F77902E96FE0BC0092DBA
S1133F200E7FC11650F494FE0AC092FC08C0092DFD
S1133F300E7E05C0DC2C092D03C0DC2C01C0D12E63
S1133F4004FF0DC0FE01EC0DF11D8081803311F4DE
S1133F50097E09C002FF06C0D394D39404C0802F05
S1133F60867809F0D39403FD11C000FF06C01C2D10
S1133F70D51480F4150D1D190DC0D51458F4B701CE
S1133F8080E290E00E94BC21D394F7CFD51410F4C2
S1133F905D1801C0512C04FF10C0B70180E390E00C
S1133FA00E94BC2102FF17C001FD03C088E790E016
S1133FB002C088E590E0B7010CC0802F867859F0E4
S1133FC001FF02C08BE201C080E207FD8DE2B70170
S1133FD090E00E94BC21C11638F4B70180E390E060
S1133FE00E94BC211150F7CFCA94F301EC0DF11DCE
S1133FF08081B70190E00E94BC21C110F5CF15C0AB
S1134000F4E0F51560F584E0581A93FE1FC0011121
S113401027C02C8523FF2AC004ED12E0392D30710E
S1134020932EF8018491811124C0552009F4E4CC25
S1134030B70180E290E00E94BC215A94F6CFF701C8
S11340408681978126C08FEF9FEF23C0B70180E25E
S113405090E00E94BC215A945110F8CFD8CF512C33
S1134060B701802F90E00E94BC21D3CF08ED12E06D
S1134070D5CF91108052B70190E00E94BC210F5F10
S11340801F4FCFCF23E0251510F483E0BDCF512C73
S1134090C0CF6096E2E10C94922097FB072E16F4B1
S11340A0009407D077FD09D00E94AD2007FC05D00D
S11340B03EF4909581959F4F0895709561957F4F3B
S11340C00895EE0FFF1F0590F491E02D0994A29F2F
S11340D0B001B39FC001A39F700D811D1124911DD8
S11340E0B29F700D811D1124911D08952F923F924E
S11340F04F925F926F927F928F929F92AF92BF92F4
S1134100CF92DF92EF92FF920F931F93CF93DF939F
S1134110CDB7DEB7CA1BDB0B0FB6F894DEBF0FBEFC
S1134120CDBF09942A88398848885F846E847D8449
S11341308C849B84AA84B984C884DF80EE80FD804B
S11341400C811B81AA81B981CE0FD11D0FB6F894C1
S1134150DEBF0FBECDBFED010895AA1BBB1B51E10D
S113416007C0AA1FBB1FA617B70710F0A61BB70BE3
S1134170881F991F5A95A9F780959095BC01CD0188
S11341800895283008F027E03327DA01990F311D0C
S113419087FD916000966105710539F432602E5FE8
S11341A03D9330E32A95E1F708959F3F30F080383E
S11341B07105610509F03C5F3C5F3D93913008F067
S11341C08068911DDF93CF931F930F93FF92EF921B
S11341D0192F987F9695E92F96959695E90FFF27C5
S11341E0EA5CFC4F99273327EE24FF24A701E7015B
S11341F005900894079428F4360FE71EF81E491F0B
S1134200511D660F771F881F991F0694A1F705900B
S1134210079428F4E70EF81E491F561FC11D770F97
S1134220881F991F661F0694A1F70590079428F428
S1134230F80E491F561FC71FD11D880F991F661FEF
S1134240771F0694A1F70590079420F4490F561F91
S1134250C71FD81F990F661F771F881F0694A9F7D9
S113426084911095177041F0D695C7955795479549
S1134270F794E7941A95C1F7ECEDF2E06894159081
S1134280159135916591959105907FE27395E118AB
S1134290F10A430B560BC90BD009C0F7E10CF11E10
S11342A0431F561FC91FD01D7EF4703311F48A9525
S11342B0E6CFE894015030F0080F0AF40027021703
S11342C008F4202F2395022F7A3328F079E37D9385
S11342D02A95E9F710C07D932A9589F60694979557
S11342E06795379517951794E118F10A430B560B08
S11342F0C90BD00998F023957E9173957A3308F011
S113430070E37C932013B8F77E9170617D9330F055
S1134310839571E37D9370E32A95E1F71124EF907F
S1134320FF900F911F91CF91DF91992787FD909571
S11343300895FC010590615070400110D8F78095F4
S113434090958E0F9F1F0895FB01DC0104C08D9191
S11343500190801921F441505040C8F7881B990BF3
S11343600895FC016150704001900110D8F78095C8
S113437090958E0F9F1F08950F931F93CF93DF93F4
S1134380FB01238121FD03C08FEF9FEF2CC022FF8F
S113439016C046815781248135814217530744F45E
S11343A0A081B1819D012F5F3F4F318320838C9386
S11343B0268137812F5F3F4F3783268314C08B01BB
S11343C0EC01FB010084F185E02D0995892BE1F6D0
S11343D0D80116968D919C911797019617969C93E8
S11343E08E931697CE01DF91CF911F910F9108956F
S11343F0AEE0B0E0EEEFF1E20C9484208C0186E0B4
S11344008C831A8309838FEF9FE79E838D83CE016C
S113441001960E94D01CEF81F885E00FF11F1082F5
S11344202E96E4E00C94A020FA01AA27283051F13A
S1134430203181F1E8946F936E7F6E5F7F4F8F4FD1
S11344409F4FAF4FB1E03ED0B4E03CD0670F781F30
S1134450891F9A1FA11D680F791F8A1F911DA11D15
S11344606A0F711D811D911DA11D20D009F468944E
S11344703F912AE0269F11243019305D3193DEF6F6
S1134480CF010895462F4770405D4193B3E00FD0AC
S1134490C9F7F6CF462F4F70405D4A3318F0495D97
S11344A031FD4052419302D0A9F7EACFB4E0A6957A
S11344B09795879577956795BA95C9F7009761059C
S11344C0710508959B01AC010A2E069457954795F2
S11344D037952795BA95C9F7620F731F841F951FE7
S10B44E0A01D0895F894FFCF1C
S11344E84204150424040204F3033304510460044D
S11344F8D503E403633263320101010163146332B7
S113450801010A0863146363FFFEF92F2D2D2D2D75
S11345182D2D2D2D2D2D2D535441525420535953A7
S113452854454D2D2D2D2D2D2D2D2D2D2D2D2D2F4E
S11345380A00656E7465725F746F5F6D656E755F92
S1134548736572766F0A0001000204030564636DE3
S11345586F746F7220696E69740A0064636D6F7496
S11345686F722073746F700A0064636D6F746F7276
S1134578206572726F720A00636F756E745F6D6F77
S1134588746F725F74696D656F75745F7761697450
S11345983A2025640A0D00636F756E745F6D6F743D
S11345A86F725F74696D656F75745F6178656C654A
S11345B8726174653A2025640A0D004552524F52BF
S11345C8205354415455533A204552525F535F5730
S11345D84149540A0D004552524F522053544154F4
S11345E855533A204552525F535F5452590A0D00AD
S11345F84552524F52205354415455533A20455230
S1134608525F535F4F4B0A0D004D45415355524578
S113461820534552564F2043616C69627261746934
S11346286F6E2076616C7565203D2025640A005301
S11346384552564F3A20696E69740A0053455256DA
S11346484F5F44454C415945445F4F50454E2025E2
S1134658640A00534552564F5F434C4F5345442018
S113466825640A00534552564F5F4F5050454E45F6
S1134678442025640A00534552564F5F545259202A
S113468825640A00534552564F3A205A65726F20E2
S10D469874727920636E740A000046
S9030000FC
