:100000000C94EB010C9408020C9408020C94080266
:100010000C9408020C9408020C9408020C94080238
:100020000C9408020C9408020C9444170C940802D7
:100030000C9408020C943E180C946F180C9408024F
:100040000C9408020C9408020C9408020C94080208
:100050000C9408029D08A408A708AD08B308B808C6
:10006000BE08C508C908D1082009200920092009AF
:100070002009200920092009200920092009200938
:100080002009200920092009200920092009200928
:100090002009200920092009200920092009200918
:1000A0002009200920092009200920092009200908
:1000B00020092009200920092009200920092009F8
:1000C00020092009200920092009200920092009E8
:1000D00020092009200920092009200920092009D8
:1000E00020092009200920092009200920092009C8
:1000F00020092009200920092009200920092009B8
:1001000020092009200920092009200920092009A7
:10011000200920092009D808DF08E508EA08F008C6
:10012000F608200920092009200920090F092009C3
:100130002009FE0803092009FB08090920092009F4
:100140002009200920092009200920092009200967
:100150002009200920092009200920092009200957
:100160002009200920092009200920092009200947
:100170002009200920092009200920092009200937
:100180002009200920092009200920092009200927
:100190002009200920092009200920092009200917
:1001A0002009200920092009200920092009200907
:1001B00020092009200920092009200920092009F7
:1001C00020092009200920092009200920092009E7
:1001D00020092009200920092009200920092009D7
:1001E00020092009200920092009200920092009C7
:1001F00020092009200920092009200920092009B7
:1002000020092009200920092009200920092009A6
:100210002009200920092009200920092009200996
:100220002009200920092009200920092009200986
:100230002009200920092009200920092009200976
:100240002009200913091F091D091B09190917098C
:10025000150907634236B79BD8A71A39685618AEF6
:10026000BAAB558C1D3CB7CC5763BD6DEDFD753EEB
:10027000F6177231BF000000803F08000000BE92F8
:100280002449123EABAAAA2ABECDCCCC4C3E0000DB
:100290000080BEABAAAAAA3E00000000BF0000007A
:1002A000803F0000000000084178D3BB4387D11392
:1002B0003D190E3CC3BD4282AD2B3E68EC8276BE3A
:1002C000D98FE1A93E4C80EFFFBE01C4FF7F3F0004
:1002D000000000006E616E00696E660000407A10DA
:1002E000F35A00A0724E18090010A5D4E80000E8E7
:1002F0007648170000E40B54020000CA9A3B000045
:1003000000E1F505000080969800000040420F00D3
:100310000000A08601000000102700000000E80394
:10032000000000006400000000000A00000000005F
:100330000100000000002C76D888DC674F0823DF1E
:10034000C1DFAE59E1B1B796E5E3E453C63AE651F1
:10035000997696E8E6C28426EB898C9B62ED407C18
:100360006FFCEFBC9C9F40F2BAA56FA5F490055AB4
:100370002AF75C936B6CF9676DC11BFCE0E40D47D9
:10038000FEF520E6B500D0ED902E030094357705FC
:100390000080841E080000204E0A000000C80C33B4
:1003A0003333330F986E12831141EF8D2114893B43
:1003B000E65516CFFEE6DB18D1844B381BF77C1DC3
:1003C000901DA4BBE424203284725E228100C9F116
:1003D00024ECA1E53D2711241FBECFE5D8E0DEBF08
:1003E000CDBF13E0A0E6B0E0E8EAF4E402C0059077
:1003F0000D92A639B107D9F726E0A6E9B3E001C00E
:100400001D92AE32B207E1F70E9439020C945222DB
:100410000C940000CF93DF93CDB7DEB7AE014B5FF6
:100420005F4FFA0161917191AF018CE095E00E94FC
:10043000D8218CE095E00E94C118DF91CF910895FA
:100440008C9A8E9ABD9A899A089588E090E00E94CD
:10045000961862E381E00E9487170E9454080E9468
:10046000CC040E9468150E94720F80B78B7F80BFFA
:1004700008950E94200278940E9425028FE790E060
:100480009F938F930E940A020E94E0060E94CD1063
:100490000F900F900E94500A0E94AC0B0E94220401
:1004A0000E9426160E94D91680910A050E94D8073C
:1004B00080910B050E94EE120E945E060E947F0C46
:1004C0000E94340F0E94900F0E9487020E94D00267
:1004D0000E94E304DFCF83E00E940911BC01660F94
:1004E000771F660F771F860F971FBC0180E090E093
:1004F0000E94E51926E636E646EB50E40E949C1A77
:1005000020E030E040E85AE30E949C1A08954091B0
:100510002A0650912B0660912C0670912D06809131
:100520009B0390919C03A0919D03B0919E0384171F
:100530009507A607B70798F583E00E94091189354A
:1005400022E0920718F021E020939F038B3821E0EE
:10055000920718F422E020939F038E3521E0920742
:1005600018F423E020939F038C5891408C3C910514
:1005700010F410929F0380912A0690912B06A0916F
:100580002C06B0912D068C599F4FAF4FBF4F8093D3
:100590009B0390939C03A0939D03B0939E030895A7
:1005A00040912A0650912B0660912C0670912D06E1
:1005B0008091970390919803A0919903B0919A0329
:1005C00084179507A607B70708F086C080919F0398
:1005D0008130E9F030F0823099F1833009F467C05E
:1005E0000895C5988091970390919803A0919903DD
:1005F000B0919A0388539F4FAF4FBF4F809397039B
:1006000090939803A0939903B0939A03089598B395
:1006100080E2892788BB8091970390919803A091ED
:100620009903B0919A0386509F4FAF4FBF4F80936D
:10063000970390939803A0939903B0939A03089516
:1006400080919603811119C081E080939603C59A29
:100650008091970390919803A0919903B0919A0388
:100660008C509E4FAF4FBF4F80939703909398034A
:10067000A0939903B0939A030895813069F510927D
:100680009603C5988091970390919803A091990340
:10069000B0919A0384529A4FAF4FBF4F8093970304
:1006A00090939803A0939903B0939A030895C59AE1
:1006B0008091970390919803A0919903B0919A0328
:1006C00088519C4FAF4FBF4F8093970390939803EF
:1006D000A0939903B0939A030895379897B1987FA0
:1006E0008770892B87B9379A0895369A3699FECF45
:1006F00084B195B108950E946D030E947503089519
:10070000DC011696ED91FC911797208130E0F901FC
:1007100018960C9002C0F595E7950A94E2F7CF0180
:1007200081700895E9EBF5E0148281E085831486F9
:100730001386128611861686158626E330E03783E7
:10074000268392E09087ECE8F5E014828583148696
:100750001386128611861686158637832683808730
:10076000EBE9F5E0148285831486138612861186E0
:10077000168615863783268396E09087E9E7F5E0AD
:100780001482858314861386128611861686158632
:1007900040E350E05783468393E09087EAE6F5E034
:1007A0001482858314861386128611861686158612
:1007B000378326839087EAEAF5E0148285831486DE
:1007C0001386128611861686158669E370E0778394
:1007D0006683A4E0A087E8ECF5E0148285831486A4
:1007E0001386128611861686158643E350E05783DA
:1007F00046838087E7EDF5E01482858314861386AF
:10080000128611861686158637832683A087ECE428
:10081000F5E0148285831486138612861186168667
:100820001586778366839087EBE5F5E014828583F0
:10083000148613861286118616861586578346837C
:1008400010860895DF92EF92FF920F931F93CF933C
:10085000DF9340912A0650912B0660912C067091EF
:100860002D068091880590918905A0918A05B09107
:100870008B0584179507A607B70708F085C08091F8
:100880002A0690912B06A0912C06B0912D06449635
:10089000A11DB11D8093880590938905A0938A05B9
:1008A000B0938B05C0E6D0E00F2EF4E7EF2EF0E01A
:1008B000FF2EF02DDD24D3948E01888199810E9432
:1008C0008003E881F98195818917E1F08583813082
:1008D00061F488819981DC011996ED91FC911A9758
:1008E000309709F441C009953FC081113DC088810E
:1008F0009981DC011B96ED91FC911C97309721F0BA
:10090000099502C0811130C0D801ED91FC91808120
:100910009181A281B3810196A11DB11D8083918334
:10092000A283B383D801ED91FC9180819181A28152
:10093000B3818897A105B10510F184818130F9F068
:100940000584F685E02D309719F089EB95E009953F
:10095000D801ED91FC9111971082118212821382BD
:10096000ED91FC91D4820BC0D801ED91FC911197CF
:100970001082118212821382ED91FC9114822296D0
:10098000CE15DF0509F098CFDF91CF911F910F9120
:10099000FF90EF90DF9008950E949203BA98C29A58
:1009A000B998C19ABE98C69A8B98939ABB98C39AE5
:1009B000D498DC9AA198A99ABC98C49AD398DB9A47
:1009C000A098A89A089540912A0650912B0660910C
:1009D0002C0670912D068091A4039091A503A091FF
:1009E000A603B091A70384179507A607B70708F0D9
:1009F00059C0809108059091090595FF37C08091F5
:100A0000A0039091A103A091A203B091A303892B0D
:100A10008A2B8B2B59F5C09A809108059091090576
:100A20009F7D909309058093080581E090E0A0E008
:100A3000B0E08093A0039093A103A093A203B0938E
:100A4000A3038091A4039091A503A091A603B09164
:100A5000A7038C599F4FAF4FBF4F8093A403909330
:100A6000A503A093A603B093A7030895C09810927E
:100A7000A0031092A1031092A2031092A3038091ED
:100A8000A4039091A503A091A603B091A703C296D9
:100A9000A11DB11D8093A4039093A503A093A60369
:100AA000B093A7030895B89AC0980895ECEEF5E0C6
:100AB000A4E7B0E011968C911197808313968C91E6
:100AC0001397818315968C911597828317968C9135
:100AD000838308958091F0051F928F9386EA90E0BA
:100AE0009F938F930E940A02ECEEF5E083811F92A0
:100AF0008F9382811F928F9381811F928F93808128
:100B00001F928F9380EB90E09F938F930E940A0235
:100B10008DB79EB70E960FB6F8949EBF0FBE8DBFD1
:100B200008958091F00590E0FC01E451FA4F208196
:100B3000FC01EE0FFF1FEC58FF4F3081231728F404
:100B4000FC01E451FA4F2F5F20830E946A0508954B
:100B50008091F00590E0FC01E451FA4F20812223BE
:100B600029F0FC01E451FA4F215020830E946A05CC
:100B700008958091F005833018F48F5F8093F0051D
:100B80000E946A0508958091F005882319F081502C
:100B90008093F0050E946A0508956CEE75E084E08C
:100BA0000E945E1188E08093060680930106949867
:100BB00096980895CF93E091F10591E09E0F909360
:100BC000F105F0E0EA51FA4F80831F928F938FEC8A
:100BD00090E09F938F930E940A02C091F1054C2FE1
:100BE00050E06FE071E086EE95E00E9484210F9066
:100BF0000F900F900F90892B91F088ED90E09F93CC
:100C00008F930E940A021092F10586E0E6EEF5E06D
:100C1000DF011D928A95E9F70F900F9035C0C6301D
:100C200099F588EE90E09F938F930E940A0281E0ED
:100C30008093F20583EC95E09093C5058093C405FD
:100C400089EB95E090939805809397058DEC95E05E
:100C50009093A7058093A60588EA95E09093760582
:100C60008093750581E995E09093B6058093B5056D
:100C700086E595E09093D4058093D30567E082E004
:100C80000E94F5090F900F90CF91089585E00E9482
:100C9000DA05089584E00E94DA05089583E00E9451
:100CA000DA05089582E00E94DA05089581E00E9445
:100CB000DA05089580E00E94DA05089540912A0639
:100CC00050912B0660912C0670912D068091A803FF
:100CD0009091A903A091AA03B091AB038417950743
:100CE000A607B70708F06BC08091F205813009F0C4
:100CF00066C080912A0690912B06A0912C06B09197
:100D00002D06C296A11DB11D8093A8039093A9033F
:100D1000A093AA03B093AB0380910606873031F409
:100D20006091F00582E096E00E949D0980910106A5
:100D3000873051F4E091F005F0E0E451FA4F608122
:100D40008DEF95E00E949D0980910606883049F557
:100D500080910106883029F580912A0690912B0612
:100D6000A0912C06B0912D0688519C4FAF4FBF4FDC
:100D70008093A8039093A903A093AA03B093AB0315
:100D800083E78093150681E68093090680E78093C8
:100D90000706109213068AE08093060680930106E8
:100DA0000895809106068A3051F4809101068A30B8
:100DB00031F410920606109201061092F205089581
:100DC0008AE596E09093C5058093C40586E596E094
:100DD000909398058093970582E596E09093A705F8
:100DE0008093A6058EE496E0909376058093750532
:100DF0008AE496E09093B6058093B50586E496E084
:100E00009093D4058093D3056CEE75E084E00E9446
:100E1000A211ECEEF5E083811F928F9382811F92E5
:100E20008F9381811F928F9380811F928F9387EF81
:100E300090E09F938F930E940A02ACEEB5E0E4E746
:100E4000F0E04CE750E08DB79EB70A960FB6F894E5
:100E50009EBF0FBE8DBF20E09C918081891718F442
:100E600081818C932F5F11963296E417F507A1F7D5
:100E7000222329F06CEE75E084E00E945E1110924E
:100E8000F10586E0E6EEF5E0DF011D928A95E9F7CF
:100E90000895843030F4E82FF0E0E451FA4F808177
:100EA000089580E0089585E191E09F938F930E94DB
:100EB0000A0287EF95E00E94B31781E08093F30563
:100EC000949815BC8F9A979A0F900F90089510924E
:100ED000F30515BC979A949808959091F305925054
:100EE00021E030E0933010F020E030E0C9010895B7
:100EF0000E946D07009799F083E291E09F938F9392
:100F00000E940A0215BC979A9498E3EFF5E080815D
:100F1000818381E080830F900F9081E090E00895BD
:100F20008091F3058130D9F4949A85B5806385BDAD
:100F300085B5806485BD85B5816085BDE3EFF5E04D
:100F40008081818384E0808348EE53E060E070E03C
:100F500087EF95E00E94BB1781E090E0089580E064
:100F600090E008958091F60590E0089581E391E086
:100F70009F938F930E940A020E94780785E08093D6
:100F8000F3050F900F9008950E946D07009729F0C8
:100F900083E08093F30581E090E008950E946D075F
:100FA000009729F082E08093F30581E090E00895B6
:100FB000CF93C82F46E950E060E070E08CEA93E000
:100FC0000E940718892B09F458C09091F3059330BB
:100FD000E9F028F49130B9F0923041F04EC09430ED
:100FE00009F448C0953009F442C047C0C093F605E3
:100FF0002BEEC29FC001112463E670E00E940B201B
:101000006C5E63BD3AC01092F60537C0C33378F406
:1010100084E18C0F8093F6052BEE829FC001112492
:1010200063E670E00E940B206C5E63BD26C08DEC11
:101030008C0F843178F48FE08C0F8093F6052BEEC3
:10104000829FC001112463E670E00E940B206C5E59
:1010500063BD13C0C093F6052BEEC29FC0011124DF
:1010600063E670E00E940B206C5E63BD06C015BC99
:10107000979A03C082E08093F305CF910895AE9ACA
:10108000AD9ADD9ADF9ADE9AAA9AAF9A0895929A5B
:1010900010920A06C79A10921606AC9A1092080689
:1010A000AB9A109214060895A69AA59AD59AD79A43
:1010B000D69AA29AA79A8A9AEBE0F6E089E096E09F
:1010C00091838083BF9A25E136E033832283A2E0B7
:1010D000B6E011963C932E9313969C938E931297A1
:1010E000A49A27E036E035832483A39A83E196E02F
:1010F00097838683EDEFF5E03183208393838283AA
:101100000E9447080E943F080895CF93DF93FC0197
:10111000308120917C00321709F495C0EC010E94C7
:101120003F08E8818E2F90E08F3F910508F088C03E
:10113000FC01E65DFF4F0C944120AE98AD98DD9820
:10114000DF98DE98AA987CC0AD98DD9879C0AE98FB
:10115000AD98AF98DE98DF9873C0AE98AD98AF9811
:10116000DD98DF986DC0AA98AF98AD98DD9868C0FB
:10117000AE98AA98AF98DD98DF9862C0AE98AA980A
:10118000AF98DD98DF98DE985BC0AE98AD98DD989B
:1011900057C0AE98AD98DD98DF98DE98AA98AF98C2
:1011A0004FC0AE98AD98DD98DF98AA98AF9848C028
:1011B000AE98AD98DD98DE98AA98AF9841C0DD98BA
:1011C000DF98DE98AA98AF983BC0AE98DF98DE987B
:1011D000AA9836C0AD98DD98DF98DE98AF9830C0F9
:1011E000AE98DF98DE98AA98AF982AC0AE98DE989D
:1011F000AA98AF9825C0DE98AF9822C0DD98DF98F6
:10120000DE98AF981DC0AE98AD98DE98AA98AF98BA
:1012100017C0AE98DD98DF98AA98AF9811C0DF98F4
:10122000DE98AA980DC0AF980BC0AA9809C0DE98A6
:1012300007C0DF9805C0DD9803C0AD9801C0AE9827
:10124000888180937C00DF91CF910895CF93DF93C5
:10125000EC010E944708CE010E94850886E0C93053
:10126000D80729F4929881E080930A0619C086E095
:10127000C531D80729F4C79881E08093160610C0BD
:1012800086E0C730D80729F4AC9881E0809308063F
:1012900007C0C351D64021F4AB9881E08093140677
:1012A000DF91CF910895EF92FF921F93CF93DF9339
:1012B000FC01C081D1812196D183C0839E01ADEC18
:1012C000BCEC0E94472096958795969587959695B4
:1012D00087959C01220F331F880F991F880F991F34
:1012E000880F991F820F931FC817D90701F57F0137
:1012F0001091B103143058F4E12FF0E0EE0FFF1F0E
:10130000E55FF94F808191810E94260902C00E9409
:1013100047081F5F153019F01093B10302C01092F7
:10132000B103C039D14019F4F70111821082DF9165
:10133000CF911F91FF90EF900895FC016436F8F46F
:10134000611108C0A081B1811C920280F381E02D5F
:1013500010820895A081B1819DEC699F912D112487
:101360009695969596959C930280F381E02D892F12
:10137000880F982F990F990F890F681B6083089524
:10138000FC0160830895813039F018F0823039F023
:1013900008956093CD0308956093CC0308956093FE
:1013A000CC036093CD030895882319F0813029F090
:1013B00008C08091060690E008958091010690E0B3
:1013C00008958FEF9FEF089580910606863021F4EF
:1013D000809117068093060680910106863021F4DD
:1013E000809118068093010608958130A1F018F0CD
:1013F000823009F10895663021F4809106068093C9
:10140000170680910606863019F460931706089532
:10141000609306060895663021F48091010680935A
:10142000180680910106863019F460931806089515
:10143000609301060895663041F48091060680931A
:101440001706809101068093180680910606863063
:1014500029F46093180660931706089560930606B2
:1014600060930106089595E0909306069093010617
:101470008093C703089568EF89E096E00E94C00951
:1014800068EF85E196E00E94C00968EF87E096E08A
:101490000E94C00968EF83E196E00E94C0090895A8
:1014A00080912A0690912B06A0912C06B0912D06D2
:1014B0004091B6035091B7036091B8037091B9039E
:1014C000481759076A077B0708F026C1809106066E
:1014D000833009F459C030F4882309F487C081307F
:1014E00039F18EC0853009F474C048F1863009F0B6
:1014F00087C00E946B0220E030E048EC52E40E947A
:101500009C1A0E94AF197093C6036093C5039B0198
:101510003695279536952795ABE7B4E10E9447208D
:1015200096958795682F82E096E00E949D0968C095
:101530006091CD0382E096E00E949D0961C0809198
:101540000106843031F081E0809306068093010625
:1015500057C048515C4F6F4F7F4F4093B603509335
:10156000B7036093B8037093B90383E780931506BC
:1015700081E68093090680E78093070681E08093E7
:10158000060680930106089580910106833031F0AC
:1015900081E0809306068093010632C048515C4F7B
:1015A0006F4F7F4F4093B6035093B7036093B803D8
:1015B0007093B9038CE6809315068FE68093090635
:1015C00080E78093070681E08093060680930106FA
:1015D00017C085E68093150682E78093090660911F
:1015E000C7038DEF95E00E949D090AC068EF89E06E
:1015F00096E00E94C00968EF85E196E00E94C0096C
:1016000080910106813019F148F1863019F08D3052
:1016100081F16FC04091C5035091C6039A01369580
:10162000279536952795ABE7B4E10E94472096951C
:10163000879564E6689F9001699F300D1124BA0177
:10164000621B730B8DEF95E00E949D0952C0609163
:10165000CC038DEF95E00E949D094BC068EF87E0B9
:1016600096E00E94C00968EF83E196E00E94C009FD
:1016700040C044EF51E060E070E080EC93E00E94F5
:101680000718892BB1F18091BF0381110EC081E051
:101690008093BF0367EF87E096E00E94C00967EF81
:1016A00083E196E00E94C00924C01092BF0380919C
:1016B000BB039091BC03A091BD03B091BE03009702
:1016C000A105B10529F461E081E00E94F50911C08E
:1016D0000197A109B1098093BB039093BC03A09328
:1016E000BD03B093BE036091BA038DEF95E00E94F5
:1016F0009D098091B6039091B703A091B803B09172
:10170000B903C296A11DB11D8093B6039093B70390
:10171000A093B803B093B90308950F931F9300915A
:101720002A0610912B0620912C0630912D06DC0103
:10173000CB01800F911FA21FB31F8093C80390930A
:10174000C903A093CA03B093CB0362E0842F0E9425
:10175000F5091F910F91089580910606823029F0B6
:1017600080910106823009F078C040912A0650919C
:101770002B0660912C0670912D068091B2039091FA
:10178000B303A091B403B091B50384179507A607DE
:10179000B70708F062C080912A0690912B06A091AD
:1017A0002C06B0912D0681559F4FAF4FBF4F8093B0
:1017B000B2039093B303A093B403B093B5038091A5
:1017C0000606823061F460917E0089E096E00E9416
:1017D000C00960917E0085E196E00E94C009809179
:1017E0000106823061F460917D0087E096E00E94FE
:1017F000C00960917D0083E196E00E94C00940919C
:101800002A0650912B0660912C0670912D0680912E
:10181000C8039091C903A091CA03B091CB03841768
:101820009507A607B70728F461E082E00E94F50952
:10183000C59890917E009F5F90937E0080917D007F
:10184000815080937D009F3F19F499EF90937E0023
:10185000883F19F48EEF80937D000895E199FECFC3
:101860009FBB8EBB6DBBE29AE19A0895E199FECFD2
:101870009FBB8EBBE09A8DB30895CF93C82F809104
:1018800008059091090582609093090580930805E9
:101890008C2F0E94330A0E94B6070E9413120E94E6
:1018A0004117C0931906CF9108951092E603109244
:1018B000E5031092E4031092DC031092DD0387EE3F
:1018C00093E00E94FD1787ED93E00E94FD171092B0
:1018D000190608951092E6031092E5031092E403AE
:1018E0001092DC031092DD0387EE93E00E94FD1757
:1018F00087ED93E00E94FD171092190608954F920C
:101900005F926F927F928F929F92AF92BF92CF928F
:10191000DF92EF92FF9240912A0650912B06609140
:101920002C0670912D068091D3039091D403A09141
:10193000D503B091D60384179507A607B70708F01B
:1019400086C28091080580FF82C240912A0650918C
:101950002B0660912C0670912D0646505F4F6F4FFD
:101960007F4F4093D3035093D4036093D503709378
:10197000D60381FD6CC20E946B024B015C010E9488
:10198000B207BC0180E090E00E94E5196B017C0188
:1019900025E935E640ED5FE30E94091B2B013C0180
:1019A000A7019601C501B4010E949C1A20E030E015
:1019B00048EC52E40E943D194B015C0123E333E300
:1019C00043E651E4C701B6010E949C1A20E030E0D2
:1019D00048EC52E40E943D199B01AC01C501B401E1
:1019E0000E94D01820E030E040E450E40E943D190D
:1019F0004B015C0128E539E344E35CE3C301B20138
:101A00000E949C1A9B01AC01C501B4010E94D1182F
:101A10004B015C0183E00E944907682F70E062532C
:101A20007109072E000C880B990B0E94E719A7017A
:101A300096010E949C1A20E030E048EC52E40E949B
:101A40003D19A50194010E94D1186093E0037093A1
:101A5000E1038093E2039093E30380E00E94091185
:101A600042E05BE267E07DE380E00E94221120918A
:101A7000E0033091E1034091E2035091E3030E94BF
:101A8000971A181644F40E946D07892B21F081E003
:101A90008093E40302C01092E40381E00E944907AE
:101AA00081110DC18091E403813009F0A8C08091BB
:101AB000E603823009F470C028F4882351F08130A5
:101AC000A9F1FDC0833009F47AC0843009F47BC0E9
:101AD000F6C081E08093E60380E491E09F938F93CA
:101AE0000E940A020E94B2072EE1AC01249FC001AD
:101AF000259F900D112448E853E17A01E81AF90A6C
:101B0000FF92EF928BE591E09F938F930E940A02E0
:101B1000A70160E070E087EE93E00E94BB170F9092
:101B20000F900F900F900F900F90C9C087EE93E029
:101B30000E94DD17892B09F4C2C00E94C4070E94CD
:101B4000B2072EE1AC01249FC001259F900D112406
:101B500048E853E17A01E81AF90AFF92EF928AE71E
:101B600091E09F938F930E940A02A70160E070E0CA
:101B700087EE93E00E94BB1782E08093E6038EE934
:101B800091E09F938F930E940A020F900F900F9005
:101B90000F900F900F9093C087EE93E00E94DD1797
:101BA000892B09F48CC083E08093E6038EEB91E0EF
:101BB0009F938F930E940A020F900F9080C081E044
:101BC0000E943D0C7CC087EE93E00E94DD17892BBC
:101BD00009F475C040ED57E060E070E087EE93E0F7
:101BE0000E94BB178091E5038093E6038AED91E0A4
:101BF0009F938F930E940A020F900F9060C0809174
:101C0000E603823049F118F4813041F058C0833046
:101C100009F441C0843009F442C051C087EE93E01A
:101C20000E94DD17892B09F44AC040ED57E060E0BF
:101C300070E087EE93E00E94BB1784E08093E60398
:101C400081E08093E50381E092E09F938F930E946F
:101C50000A020F900F9033C087EE93E00E94DD17C9
:101C6000892B69F140ED57E060E070E087EE93E08A
:101C70000E94BB170E94CE0784E08093E60382E0B7
:101C80008093E50381E092E09F938F930E940A0284
:101C90000F900F9014C081E00E943D0C10C087EEA1
:101CA00093E00E94DD17892B51F08CE192E09F9325
:101CB0008F930E940A021092E6030F900F9080E02B
:101CC0000E9449078111C3C082E00E94490790E049
:101CD0009093DF038093DE0381E00E9409117C0171
:101CE000FF928F938091DF038F938091DE038F9318
:101CF00085E392E09F938F930E940A028091DE0316
:101D00009091DF030F900F900F900F900F900F9016
:101D10008E159F05D8F49F938F9380E692E09F9352
:101D20008F930E940A0281E08093DC030F900F9052
:101D30000F900F908091DD03813051F1A8F0823037
:101D400009F44BC0833009F451C081C01092DC0308
:101D50008091DD03823009F466C0833009F474C0D9
:101D6000813009F074C046C081E08093DD0387E7CD
:101D700092E09F938F930E940A0244EF51E060E04B
:101D800070E087ED93E00E94BB170F900F905FC04B
:101D900087ED93E00E94DD17892B09F458C00E945B
:101DA0008012049724F083E08093DD0350C04CED53
:101DB00055E060E070E087ED93E00E94BB1782E0A1
:101DC0008093DD030E94741282E992E09F938F93C7
:101DD0000E940A020F900F903AC087ED93E00E9494
:101DE000DD17892BA1F11092DD0331C082E00E9442
:101DF0003D0C2DC087ED93E00E94DD17892B39F152
:101E000040ED57E060E070E087ED93E00E94BB1783
:101E10001092DD038CEA92E09F938F930E940A0256
:101E20000F900F9014C087ED93E00E94DD17892B6F
:101E300071F01092DD038CEA92E09F938F930E94E1
:101E40000A020F900F9003C082E00E943D0CFF90A9
:101E5000EF90DF90CF90BF90AF909F908F907F904A
:101E60006F905F904F9008954EE551E060E070E014
:101E70008EEC93E00E940718892B09F180911906D6
:101E8000813071F492B380E1892782BB809108058B
:101E90009091090590629093090580930805089533
:101EA000823069F492B380E4892782BB809108056F
:101EB0009091090590629093090580930805089513
:101EC000FC0120813181623058F0329691E04191DD
:101ED0005191240F351F369527959F5F6913F7CFD2
:101EE000C9010895E2E3F4E02AE534E081EF91E0EE
:101EF000819391932E173F07D9F7E1E1F4E08FE248
:101F000094E0119211928E179F07D9F7E9EFF3E051
:101F10008DE094E0119211928E179F07D9F70895E2
:101F2000CF92DF92EF92FF920F931F93CF93DF93A5
:101F300040912A0650912B0660912C0670912D0637
:101F40008091F0039091F103A091F203B091F3031B
:101F500084179507A607B70708F016C180912A06CF
:101F600090912B06A0912C06B0912D064496A11DB0
:101F7000B11D8093F0039093F103A093F203B0930B
:101F8000F30380E00E947B03EC0160912F047091C9
:101F9000300480E090E00E94E51921E73DE34AE843
:101FA0005EE30E949C1A6B017C01BE0180E090E020
:101FB0000E94E5199B01AC01C701B6010E94D1182E
:101FC0000E94B61970935D0460935C0420915E04D6
:101FD000E22FF0E0EE0FFF1FEE5CFB4F718360839A
:101FE00081E0820F80935E0482E00E947B03803256
:101FF000910530F04F979093100480930F0404C024
:102000001092100410920F04E0913104F0E0EE0FF2
:10201000FF1FEF5EFB4F80910F049091100491839E
:10202000808381E00E947B039093F7038093F60303
:10203000C091F403D091F503209779F0C817D90720
:1020400028F41092F7031092F60307C09E01281B94
:10205000390B3093F7032093F6038091F803109126
:10206000F6030091F703E82FF0E0EE0FFF1FE750B3
:10207000FC4F10830183909131049F5F9093310452
:102080008F5F8093F80364E182E394E00E94600F25
:1020900090935B0480935A046FE081E194E00E9486
:1020A000600F9093300480932F046AE089EF93E0EF
:1020B0000E94600F90930E0480930D04C090EC0377
:1020C000D090ED03E090EE03F090EF03C701B6016E
:1020D00020EA30E040E050E00E941F20672B682B90
:1020E000692B71F0C701B6012AE030E040E050E012
:1020F0000E941F20672B682B692B09F52097F9F4A4
:10210000DF93CF93809110048F9380910F048F936E
:102110000F931F9380915D048F9380915C048F9344
:1021200085EC92E09F938F930E940A022DB73EB7F1
:10213000265F3F4F0FB6F8943EBF0FBE2DBF809174
:10214000EC039091ED03A091EE03B091EF030196A3
:10215000A11DB11D8093EC039093ED03A093EE03BA
:10216000B093EF0380915E04843111F410925E0409
:102170008091F8038A3011F41092F80380913104B1
:102180008F3011F410923104DF91CF911F910F9194
:10219000FF90EF90DF90CF900895CF92DF92EF9273
:1021A000FF92CF93DF93C0902A06D0902B06E09049
:1021B0002C06F0902D068CEDC80E85E0D81EE11C93
:1021C000F11CC8E2D6E00E94900F8A819B81AC810D
:1021D000BD81C816D906EA06FB06A8F780910D0452
:1021E00090910E048093F4039093F5039F938F9343
:1021F00085E093E09F938F930E940A020F900F90C7
:102200000F900F90DF91CF91FF90EF90DF90CF90E4
:102210000895833018F4813040F00CC0833079F495
:1022200080915A0490915B04089580912F049091BD
:102230003004089580910D0490910E04089580E07B
:1022400090E00895CF92DF92EF92FF926A017B01B6
:10225000833018F4813050F010C08330A9F46091BD
:102260005A0470915B0480E090E011C060912F04EB
:102270007091300480E090E00AC060910D0470918C
:102280000E0480E090E003C060E070E0CB010E94AB
:10229000E51920E030E040E85AE30E949C1A20E073
:1022A00030E040EA50E40E949C1AA70196010E9487
:1022B0003D19FF90EF90DF90CF900895EF92FF923D
:1022C0000F931F93CF938B01823059F028F488230A
:1022D00091F0813019F130C0833029F1843031F030
:1022E0002BC022E030E084E090E021C024E030E028
:1022F00088E090E01CC06894EE24E1F8F12CC0E086
:10230000F80161918F018C2F90E00E942E0CCF5F1D
:102310008C2F90E08E159F059CF30EC022E030E0DC
:1023200082E090E004C022E030E086E090E0C82F38
:102330007901E80EF91EE4CFCF911F910F91FF9024
:10234000EF900895EF92FF920F931F93CF938B011D
:10235000823059F028F4882391F0813019F130C08F
:10236000833029F1843031F02BC022E030E084E06A
:1023700090E021C024E030E088E090E01CC0689448
:10238000EE24E1F8F12CC0E08C2F90E00E94360C96
:10239000F80181938F01CF5F8C2F90E08E159F0500
:1023A0009CF30EC022E030E082E090E004C022E026
:1023B00030E086E090E0C82F7901E80EF91EE4CF06
:1023C000CF911F910F91FF90EF900895811105C05B
:1023D0008CE697E09BBD8ABD0895823398F490E027
:1023E0000A9722273327281B390B220F331F220F6E
:1023F000331F220F331F820F931F885F984F9BBD9F
:102400008ABD0895843670F4282F30E022533109B4
:102410004BEF4203C001439F900D112486559A4F04
:102420009BBD8ABD089580E00E94E611969885E0E4
:1024300080931A060895CF93DF932FE13EE437BDD2
:1024400026BD81B3806381BB19BC18BC1BBC1ABC00
:102450008FB582608FBD8EB588618EBD8FB5806867
:102460008FBD8EB582608EBD3BBD2ABD9698CAE1F8
:10247000D6E081E088831B828EE196E00E94B3174C
:102480001986109273048BE293E09F938F930E94BE
:102490000A020F900F90DF91CF91089590911A0644
:1024A000925021E030E0923010F020E030E0C9019D
:1024B000089590911A069130A1F4EAE1F6E093E0D4
:1024C000908383831F928F9388E393E09F938F93EE
:1024D0000E940A020F900F900F900F9081E090E001
:1024E000089580E090E0089580911A069FEF980F7C
:1024F000923028F4EAE1F6E0818384E08083089555
:102500008091230690E008950E944E120097C1F03A
:1025100080E00E94E611EAE1F6E081E08083138228
:102520001F921F928FE493E09F938F930E940A0261
:1025300096980F900F900F900F9081E090E0089583
:1025400020911A06243021F40E94A91281E090E023
:10255000089580911B06823029F480931A060E9408
:10256000841209C0813071F4EAE1F6E082E08083F0
:1025700083810E94C31210927304EAE1F6E0818520
:102580008F5F81870895CF93C82F80911A069FEFA0
:10259000980F9330C0F4EAE1F6E082E08083C383D1
:1025A0008C2F0E94E6111F92CF9380E693E09F93B9
:1025B0008F930E940A02969A0F900F900F900F909F
:1025C00081E090E009C0843029F40E94A91281E0E2
:1025D00090E002C080E090E0CF910895CF93DF9328
:1025E000C82F4BE450E060E070E08EE694E00E947B
:1025F0000718892B09F4B6C080911A068430A1F01F
:1026000030F4823059F0833009F461C09BC08530CA
:1026100009F477C0863009F491C094C0C0931D06B8
:102620008C2F0E94E6118EC080917304811113C01B
:1026300044E650E060E070E089E694E00E94BB1759
:10264000809173048F5F8093730490911D06890FAE
:102650000E94E61128C081508930C8F489E694E0D0
:102660000E94DD170197F9F444E650E060E070E065
:1026700089E694E00E94BB17809173048F5F80937A
:10268000730490911D06890F0E94E6110CC01092F0
:102690007304CAE1D6E08B810E94E61189818883A8
:1026A00089858F5F898720911D068091730490E052
:1026B000820F911D9F938F9382E793E09F938F9357
:1026C0000E940A020F900F900F900F903BC084E67B
:1026D00094E00E94D317892B59F084E694E00E947D
:1026E000DD17019779F582E080931A06969A2AC041
:1026F00040ED57E060E070E084E694E00E94BB1794
:1027000021C08FE594E00E94D317892B71F08FE5EB
:1027100094E00E94DD170197A9F486E080931A06E1
:102720008FE19EE49BBD8ABD0DC040ED57E060E0A7
:1027300070E08FE594E00E94BB1704C08FE19EE437
:102740009BBD8ABD8EE196E00E94DD17019751F492
:102750001092230680E893E09F938F930E940A02D1
:102760000F900F90DF91CF910895E9EBF5E0168679
:1027700015861286118614861386ECE8F5E0168617
:10278000158612861186148613861092A70510925C
:10279000A605EAE6F5E016861586148613861286E7
:1027A0001186EAEAF5E016861586148613861286E7
:1027B00011861092D4051092D305E7EDF5E014864A
:1027C00013861686158612861186ECE4F5E01486CB
:1027D00013861686158612861186EBE5F5E01486BB
:1027E00013861686158612861186089580917C04BC
:1027F000823049F080910805909109059860909386
:10280000090580930805089580917C04823049F081
:10281000809108059091090580689093090580933F
:10282000080508958091080590910905926090939C
:102830000905809308050895809108059091090580
:10284000997F909309058093080510927D0408955F
:102850008091080590910905806290930905809305
:102860000805089580910805909109058F79909346
:1028700009058093080510927D040895809108054C
:1028800090910905906290930905809308058091C5
:102890000B058B3018F0815080930B0560910B0570
:1028A00081E00E94C30961E082E00E94F509089579
:1028B0008091080590910905906290930905809395
:1028C000080580910B05833618F48F5F80930B0504
:1028D00060910B0581E00E94C30961E082E00E94E3
:1028E000F5090895809108059091090590629093EB
:1028F00009058093080580910A058B3018F08150F6
:1029000080930A0560910A0580E00E94C30980E077
:102910000E94D409029729F461E082E00E94F5093F
:1029200004C061E080E00E94F50980917C048F5F23
:1029300080937C04823019F466E00E94F5090895C2
:102940008091080590910905906290930905809304
:10295000080580910A05833618F48F5F80930A0575
:1029600060910A0580E00E94C30980E00E94D409BA
:10297000029729F461E082E00E94F50904C061E059
:1029800080E00E94F50980917C048F5F80937C0435
:10299000823019F466E00E94F50908950E94E40966
:1029A0008091080590910905977E90930905809381
:1029B000080510927D0480917C04882319F08150D1
:1029C00080937C0480E00E94D409029729F461E09E
:1029D00082E00E94F509089561E080E00E94F50917
:1029E00008950E94E40980910805909109058F7768
:1029F0009E7F909309058093080510927D04809135
:102A00007C04882319F0815080937C0480E00E942C
:102A1000D409029729F461E082E00E94F509089543
:102A200061E080E00E94F5090895E6E2F6E0809119
:102A30000A05808380910B058183BF0183E00E949A
:102A40005E11089580910805909109059062909318
:102A500009058093080580910A058A3038F48AE0D8
:102A600080930A056AE080E00E94C3090E94151560
:102A70000E946D07892B39F40E94900780910B0505
:102A80000E94591208950E9478070E9484120895A6
:102A900080910805909109059062909309058093B3
:102AA000080580910B058A3038F48AE080930B0585
:102AB0006AE081E00E94C3090E944E12892B19F03E
:102AC0000E948412089580910B050E94C3120895FC
:102AD00081E196E1909383058093820560E082E036
:102AE0000E94F5090E943B0A64E276E083E00E94BE
:102AF000A2118091250696EF980F9A3510F48093D5
:102B00000B058091240696EF980F9A3510F4809368
:102B10000A05089510927C0442E068EE73E080E0BC
:102B200090E00E948D0B0E94530780E00E941B12D0
:102B30000E94550C0E94720F0E94530581E090E0A4
:102B40009093090580930805E9EBF5E086EF93E1A2
:102B50009687858782E794E1948783878EEC94E15A
:102B600092878187ECE8F5E084E094E19687858799
:102B700080EA94E19487838781EF94E1928781874B
:102B800082E295E19093A7058093A605EAE6F5E039
:102B900082E194E1968785878CE194E19287818731
:102BA0008EE394E194878387EAEAF5E088E294E192
:102BB0009687858782E394E19287818788E594E10F
:102BC0009487838788E495E19093D4058093D30517
:102BD00060910A0580E00E94C30960910B0581E0C5
:102BE0000E94C309089510927C040E9467070E9406
:102BF000B5130E946A0C0E94E0060E948412109293
:102C000009051092080560E082E00E94F5098091B4
:102C10000805909109058E7F90930905809308051A
:102C200008950E9415158091080580FF03C00E9439
:102C3000F31502C00E948A1580910805909109053C
:102C400090629093090580930805089540912A06A3
:102C500050912B0660912C0670912D068091740482
:102C600090917504A0917604B0917704841795072C
:102C7000A607B70708F09CC08091080585FF1DC016
:102C800060910B056336C8F46F5F60930B0581E0BC
:102C90000E94C309809180048F5F809380048F30ED
:102CA00060F080910805909109058F7D8064909374
:102CB0000905809308051092800480910805909181
:102CC000090591FF1DC060910B056623C9F0615095
:102CD00060930B0581E00E94C30980917F048F5FA0
:102CE00080937F048F3060F08091080590910905F2
:102CF0009D7F9460909309058093080510927F044E
:102D00008091080587FF1DC060910A056336C8F4ED
:102D10006F5F60930A0580E00E94C30980917E0482
:102D20008F5F80937E048F3060F0809108059091D2
:102D300009058F779160909309058093080510929B
:102D40007E04809108059091090593FF1DC0609154
:102D50000A056B30C8F0615060930A0580E00E945C
:102D6000C30980917D048F5F80937D048F3060F074
:102D70008091080590910905977F906190930905CE
:102D80008093080510927D048091740490917504DD
:102D9000A0917604B0917704805B9F4FAF4FBF4FF7
:102DA0008093740490937504A0937604B093770491
:102DB000089540912A0650912B0660912C0670913F
:102DC0002D068091780490917904A0917A04B091B5
:102DD0007B0484179507A607B70708F051C06091D8
:102DE0000B05633650F48091080586FF06C06F5FBF
:102DF00060930B0581E00E94C30960910B056B3065
:102E000060F0809108059091090592FF06C061501D
:102E100060930B0581E00E94C30960910A05633647
:102E200060F4809108059091090590FF06C06F5FDE
:102E300060930A0580E00E94C30960910A056B3027
:102E400060F0809108059091090594FF06C06150DB
:102E500060930A0580E00E94C309809178049091F4
:102E60007904A0917A04B0917B044E96A11DB11D06
:102E70008093780490937904A0937A04B0937B04B0
:102E800008950E94B51308951F920F920FB60F92E6
:102E900011242F933F934F935F936F937F938F935F
:102EA0009F93AF93BF93EF93FF93E8E2F6E08081A7
:102EB0009181C2969183808380819181883E9340E5
:102EC00088F082819381A481B5810196A11DB11DF5
:102ED00082839383A483B58380819181885E9340AC
:102EE0009183808381E894E00E945309FF91EF91E0
:102EF000BF91AF919F918F917F916F915F914F9112
:102F00003F912F910F900FBE0F901F90189593B780
:102F1000986093BF6CBF823099F028F4882341F009
:102F2000813051F019C0833079F0843089F014C0B9
:102F300083B7816083BF13C083B7826083BF0FC034
:102F400083B7836083BF0BC083B7846083BF07C030
:102F500083B7856083BF03C083B7816083BF89B7B0
:102F6000826089BF089523E0FC01248310821182CE
:102F70001282138208950F931F9321E0FC01248392
:102F800000912A0610912B0620912C0630912D06D7
:102F9000400F511F621F731F4083518362837383ED
:102FA0001F910F91089521E030E0FC018481813070
:102FB00011F020E030E0C9010895FC0184818130E6
:102FC000B1F480912A0690912B06A0912C06B09125
:102FD0002D064081518162817381481759076A0724
:102FE0007B0740F482E0848381E090E008958FEFD6
:102FF0009FEF089580E090E0089521E030E0FC012B
:103000008481833011F020E030E0C9010895CF922F
:10301000DF92EF92FF920F931F93CF93DF93EC0118
:103020006A017B018C81811106C083E08C83188248
:1030300019821A821B82CE010E94DD178C01019732
:1030400031F4B701A601CE010E94BB170DC08C81DF
:10305000833041F4B701A601CE010E94BB1700E006
:1030600010E002C000E010E0C801DF91CF911F9195
:103070000F91FF90EF90DF90CF9008951F920F92E5
:103080000FB60F9211242F933F934F935F938F931B
:103090009F93EF93FF932BB13CB1287180918504EE
:1030A00090E001964091840450E08417950739F030
:1030B00080938504FC01E857FB4F308301C022E078
:1030C00020938304FF91EF919F918F915F914F9196
:1030D0003F912F910F900FBE0F901F9018951F9248
:1030E0000F920FB60F9211248F939F93EF93FF933C
:1030F0009091870480918604981771F080918604DE
:1031000090E001968F77992780938604FC01E85719
:10311000FB4F80818CB901C05598FF91EF919F9131
:103120008F910F900FBE0F901F901895F8941092EA
:103130008704109286041092850410928404789477
:1031400099231CF422E02BB99F7790BD89B988E9B7
:103150008AB986E880BD08954091870450E04F5FAA
:103160005F4F4F7755272091860430E04217530771
:10317000D1F3FA01E857FB4F808340938704559AB7
:103180000895CF93DF93EC018881882331F0219655
:103190000E94AC1889918111FBCFDF91CF910895E6
:1031A0005058BB27AA270E94E8180C945D1A0E9469
:1031B0004F1A38F00E94561A20F039F49F3F19F444
:1031C00026F40C944C1A0EF4E095E7FB0C94461A86
:1031D000E92F0E946E1A58F3BA1762077307840723
:1031E000950720F079F4A6F50C94901A0EF4E0956A
:1031F0000B2EBA2FA02D0B01B90190010C01CA01B1
:10320000A0011124FF27591B99F0593F50F4503E5B
:1032100068F11A16F040A22F232F342F4427585F4D
:10322000F3CF469537952795A795F0405395C9F765
:103230007EF41F16BA0B620B730B840BBAF091501D
:10324000A1F0FF0FBB1F661F771F881FC2F70EC0BC
:10325000BA0F621F731F841F48F48795779567958F
:10326000B795F7959E3F08F0B0CF9395880F08F07B
:103270009927EE0F9795879508950E9451190C9400
:103280005D1A0E94561A58F00E944F1A40F029F415
:103290005F3F29F00C94461A51110C94911A0C942A
:1032A0004C1A0E946E1A68F39923B1F3552391F3D7
:1032B000951B550BBB27AA2762177307840738F0A5
:1032C0009F5F5F4F220F331F441FAA1FA9F335D002
:1032D0000E2E3AF0E0E832D091505040E695001CB6
:1032E000CAF72BD0FE2F29D0660F771F881FBB1F70
:1032F000261737074807AB07B0E809F0BB0B802D4E
:10330000BF01FF2793585F4F3AF09E3F510578F079
:103310000C94461A0C94911A5F3FE4F3983ED4F350
:10332000869577956795B795F7959F5FC9F7880F4D
:10333000911D9695879597F90895E1E0660F771F9F
:10334000881FBB1F621773078407BA0720F0621B30
:10335000730B840BBA0BEE1F88F7E09508950E945B
:10336000B6196894B1110C94911A08950E94761AB6
:1033700088F09F5798F0B92F9927B751B0F0E1F036
:10338000660F771F881F991F1AF0BA95C9F714C0E6
:10339000B13091F00E94901AB1E008950C94901A07
:1033A000672F782F8827B85F39F0B93FCCF386951F
:1033B00077956795B395D9F73EF49095809570957C
:1033C00061957F4F8F4F9F4F0895E89409C097FBF9
:1033D0003EF490958095709561957F4F8F4F9F4FEC
:1033E0009923A9F0F92F96E9BB279395F695879530
:1033F00077956795B795F111F8CFFAF4BB0F11F4F3
:1034000060FF1BC06F5F7F4F8F4F9F4F16C0882399
:1034100011F096E911C0772321F09EE8872F762FCF
:1034200005C0662371F096E8862F70E060E02AF010
:103430009A95660F771F881FDAF7880F96958795FC
:1034400097F90895990F0008550FAA0BE0E8FEEFD1
:1034500016161706E807F907C0F012161306E40758
:10346000F50798F0621B730B840B950B39F40A2651
:1034700061F0232B242B252B21F408950A2609F42F
:10348000A140A6958FEF811D811D089597F99F6733
:1034900080E870E060E008959FEF80EC08950024DC
:1034A0000A941616170618060906089500240A94A9
:1034B00012161306140605060895092E0394000C2F
:1034C00011F4882352F0BB0F40F4BF2B11F460FFBE
:1034D00004C06F5F7F4F8F4F9F4F089557FD9058E7
:1034E000440F551F59F05F3F71F04795880F97FBC8
:1034F000991F61F09F3F79F0879508951216130682
:103500001406551FF2CF4695F1DF08C016161706B0
:103510001806991FF1CF86957105610508940895E5
:10352000E894BB2766277727CB0197F908950E9477
:10353000221A08F48FEF08950E94AF1A0C945D1AB6
:103540000E944F1A38F00E94561A20F0952311F06D
:103550000C94461A0C944C1A11240C94911A0E9443
:103560006E1A70F3959FC1F3950F50E0551F629F3F
:10357000F001729FBB27F00DB11D639FAA27F00DCC
:10358000B11DAA1F649F6627B00DA11D661F829FF3
:103590002227B00DA11D621F739FB00DA11D621FD8
:1035A000839FA00D611D221F749F3327A00D611DF5
:1035B000231F849F600D211D822F762F6A2F1124D7
:1035C0009F5750409AF0F1F088234AF0EE0FFF1F0A
:1035D000BB1F661F771F881F91505040A9F79E3F61
:1035E000510580F00C94461A0C94911A5F3FE4F355
:1035F000983ED4F3869577956795B795F795E795B7
:103600009F5FC1F7FE2B880F911D9695879597F9BF
:103610000895FA01EE0FFF1F309621053105A1F143
:103620006115710561F48038BFE39B0749F1689427
:103630009038810561F08038BFEF9B0741F09923F6
:103640004AF5FF3FE1053105210519F1E894089499
:10365000E795D901AA2329F4AB2FBE2FF85FD0F349
:1036600010C0FF5F70F4A695E0F7F73950F019F03D
:10367000FF3A38F49F779F930DD00F9007FC905836
:10368000089546F00C944C1A60E070E080E89FE3E7
:1036900008954FE79F775F934F933F932F930E9437
:1036A000041C2F913F914F915F910E949C1A0C94A2
:1036B000611B29F416F00C94461A0C94901A0C9481
:1036C0004C1A0E94761AA8F39638A0F707F80F92C2
:1036D000E8942BE33AEA48EB5FE70E94B21A0F92B4
:1036E0000F920F924DB75EB70F920E944C1CE2E50D
:1036F000F2E00E94931B4F915F91EF91FF91E5954E
:10370000EE1FFF1F49F0FE57E0684427EE0F441FED
:10371000FA95E1F74195550B0E94C61B0F9007FEE5
:103720000C94BA1B0895DF93CF931F930F93FF92CE
:10373000EF92DF927B018C01689406C0DA2EEF01D4
:103740000E94AF1AFE01E894A5912591359145910B
:103750005591A6F3EF010E94E818FE019701A80118
:10376000DA9469F7DF90EF90FF900F911F91CF915E
:10377000DF9108959B01AC0160E070E080E89FE379
:103780000C943D190C94461A0C94801C0E94761AD5
:10379000D8F39923C9F3940F511DA3F391505040CE
:1037A00094F059F0882332F0660F771F881F9150EC
:1037B0005040C1F79E3F51052CF7880F911D9695FB
:1037C000879597F908955F3FACF0983E9CF0BB2732
:1037D000869577956795B79508F4B1609395C1F78D
:1037E000BB0F58F711F460FFE8CF6F5F7F4F8F4F2B
:1037F0009F4FE3CF0C94911A16F00C94801C0C94FC
:103800004C1A68940C94461A0E94761AA8F39923CD
:10381000C1F3AEF3DF93CF931F930F93FF92C92FA2
:10382000DD2788232AF02197660F771F881FDAF794
:1038300020E030E040E85FEB9FE3883920F0803EF5
:1038400038F021968F770E94D118EAE7F2E004C0A1
:103850000E94D118E7EAF2E00E94931B8B01BE019F
:10386000EC01FB2E6F5771097595771F880B990B2B
:103870000E94E71928E132E741E35FE30E94AF1AB3
:10388000AF2D9801AE01FF900F911F91CF91DF9165
:103890000E94E8180C945D1AFA01DC01AA0FBB1F04
:1038A0009B01AC01BF5728F42227332744275078C7
:1038B00020C0B75190F4AB2F00244695379527953B
:1038C000011CA395D2F3002071F0220F331F441F77
:1038D000B395DAF30ED00C94D01861307105A0E8DE
:1038E0008A07B94630F49B01AC0166277727882701
:1038F0009078309621F0208331834283538308955A
:103900009F3F31F0915020F4879577956795B79553
:10391000880F911D9695879597F90895A0E1B0E0DD
:10392000E4E9FCE10C9456207C011B016A01FC01D6
:1039300017821682838181FF44C39E012F5F3F4F10
:103940003901F7019381F10193FD859193FF8191F5
:103950001F01882309F431C3853239F493FD859121
:1039600093FF81911F01853239F4B70190E00E94E5
:103970009C2156016501E5CF10E0512C912CFFE10F
:10398000F915D8F08B3279F038F4803279F083323F
:10399000A1F4F92DF0612EC08D3261F0803369F40D
:1039A000292D21602DC0392D3260932E892D846000
:1039B000982E2AC0E92DE86015C097FC2DC020ED97
:1039C000280F2A3088F496FE06C03AE0139F200D97
:1039D0001124122F19C08AE0589E200D1124522E56
:1039E000E92DE0629E2E10C08E3231F496FCE5C2C5
:1039F000F92DF0649F2E08C08C3621F4292D206803
:103A0000922E02C0883641F4F10193FD859193FF17
:103A100081911F018111B3CF9BEB980F933020F45C
:103A2000992D9061805E07C09BE9980F933008F054
:103A300066C1992D9F7E96FF16E09F73992E85365D
:103A400019F49064992E08C0863621F4392F306815
:103A5000932E02C01111115097FE07C01C3350F471
:103A600044244394410E27E00BC0183038F027E07F
:103A700017E005C027E09CE3492E02C0212F412C0E
:103A8000560184E0A80EB11CF6016081718182812B
:103A90009381042DA3010E94A1206C01F981FC8770
:103AA000F0FF02C0F3FF06C091FC06C092FE06C004
:103AB00000E205C00DE203C00BE201C000E08C850E
:103AC0008C7019F001115AC29BC297FE10C04C0CA9
:103AD000FC85F4FF04C08A81813309F44A941414EC
:103AE00074F528E0241578F588E0482E2CC096FC63
:103AF0002AC0812F90E08C159D059CF03CEFC316E9
:103B00003FEFD30674F0892D8068982E0AC0E2E05A
:103B1000F0E0EC0FFD1FE10FF11D8081803319F4FF
:103B200011501111F4CF97FE0EC044244394410E5E
:103B3000812F90E0C816D9062CF41C1904C0442427
:103B4000439401C010E097FE06C01C141D0434F419
:103B5000C601019605C085E090E002C081E090E0DA
:103B600001110196112331F0212F30E02F5F3F4FDB
:103B7000820F931F252D30E08217930714F4581AF3
:103B800001C0512C892D897049F4552039F0B701B5
:103B900080E290E00E949C215A94F7CF002329F004
:103BA000B701802F90E00E949C2193FC09C0552012
:103BB00039F0B70180E390E00E949C215A94F7CF3E
:103BC00097FE4CC04601D7FE02C0812C912CC60145
:103BD00088199909F301E80FF91FFE87ED8796010F
:103BE00024193109388B2F87012F10E01195019589
:103BF00011093FEF8316930629F4B7018EE290E096
:103C00000E949C21C814D9044CF08F85988988158E
:103C1000990524F4ED85FE85818101C080E3F1E002
:103C20008F1A91082D853E852F5F3F4F3E872D8748
:103C3000801691062CF0B70190E00E949C21D9CF0C
:103C4000C814D90441F49A81963320F4953319F4B9
:103C50003C8534FF81E3B70190E04EC08A81813317
:103C600019F09C859F7E9C87B70190E00E949C2163
:103C7000111105C094FC18C085E690E017C0B7018B
:103C80008EE290E00E949C211E5F82E001E0080F1E
:103C9000F301E80FF11D8081B70190E00E949C21A3
:103CA000802F0113F3CFE6CF85E490E0B7010E94A7
:103CB0009C21D7FC06C0C114D10441F4EC85E4FF7B
:103CC00005C0D194C194D1088DE201C08BE2B70147
:103CD00090E00E949C2180E32AE0C216D1042CF0DF
:103CE0008F5FFAE0CF1AD108F7CFB70190E00E94BA
:103CF0009C21B701C601C0960E949C2154C1833605
:103D000031F0833779F0833509F056C020C0560171
:103D100032E0A30EB11CF6018081898301E010E03E
:103D2000630112C05601F2E0AF0EB11CF601C08073
:103D3000D18096FE03C0612F70E002C06FEF7FEF6D
:103D4000C6010E9491218C01F92DFF7714C0560104
:103D500022E0A20EB11CF601C080D18096FE03C005
:103D6000612F70E002C06FEF7FEFC6010E947921E2
:103D70008C01F92DF0689F2EF3FD1AC0852D90E07F
:103D800008171907A8F4B70180E290E00E949C216F
:103D90005A94F4CFF60197FC859197FE81916F01BB
:103DA000B70190E00E949C2151105A9401501109D2
:103DB0000115110579F7F7C0843611F0893661F5E0
:103DC000560197FE09C024E0A20EB11CF6016081E5
:103DD0007181828193810AC0F2E0AF0EB11CF601BD
:103DE00060817181072E000C880B990BF92DFF76ED
:103DF0009F2E97FF09C090958095709561957F4F94
:103E00008F4F9F4FF0689F2E2AE030E0A3010E9461
:103E1000F421C82EC6183FC0092D853721F40F7E26
:103E20002AE030E01DC0097F8F3691F018F4883504
:103E300059F0C3C0803719F0883711F0BEC0006157
:103E400004FF09C0046007C094FE08C0066006C0F5
:103E500028E030E005C020E130E002C020E132E09F
:103E6000560107FF09C084E0A80EB11CF60160816D
:103E700071818281938108C0F2E0AF0EB11CF6011E
:103E80006081718180E090E0A3010E94F421C82E3E
:103E9000C6180F77902E96FE0BC0092D0E7FC11607
:103EA00050F494FE0AC092FC08C0092D0E7E05C095
:103EB000DC2C092D03C0DC2C01C0D12E04FF0DC069
:103EC000FE01EC0DF11D8081803311F4097E09C0E3
:103ED00002FF06C0D394D39404C0802F867809F0E3
:103EE000D39403FD11C000FF06C01C2DD51480F42F
:103EF000150D1D190DC0D51458F4B70180E290E0DE
:103F00000E949C21D394F7CFD51410F45D1801C002
:103F1000512C04FF10C0B70180E390E00E949C2167
:103F200002FF17C001FD03C088E790E002C088E5EA
:103F300090E0B7010CC0802F867859F001FF02C0D5
:103F40008BE201C080E207FD8DE2B70190E00E94A4
:103F50009C21C11638F4B70180E390E00E949C21B7
:103F60001150F7CFCA94F301EC0DF11D8081B70118
:103F700090E00E949C21C110F5CF15C0F4E0F5152A
:103F800060F584E0581A93FE1FC0011127C02C85EC
:103F900023FF2AC004ED12E0392D3071932EF80171
:103FA0008491811124C0552009F4E4CCB70180E24A
:103FB00090E00E949C215A94F6CFF7018681978168
:103FC00026C08FEF9FEF23C0B70180E290E00E94F0
:103FD0009C215A945110F8CFD8CF512CB701802F83
:103FE00090E00E949C21D3CF08ED12E0D5CF911034
:103FF0008052B70190E00E949C210F5F1F4FCFCFEE
:1040000023E0251510F483E0BDCF512CC0CF60967E
:10401000E2E10C94722097FB072E16F4009407D06F
:1040200077FD09D00E948D2007FC05D03EF49095C5
:1040300081959F4F0895709561957F4F0895A1E2F6
:104040001A2EAA1BBB1BFD010DC0AA1FBB1FEE1F12
:10405000FF1FA217B307E407F50720F0A21BB30B5D
:10406000E40BF50B661F771F881F991F1A9469F7D9
:1040700060957095809590959B01AC01BD01CF0135
:104080000895EE0FFF1F0590F491E02D0994A29F73
:10409000B001B39FC001A39F700D811D1124911D1C
:1040A000B29F700D811D1124911D08952F923F9292
:1040B0004F925F926F927F928F929F92AF92BF9238
:1040C000CF92DF92EF92FF920F931F93CF93DF93E4
:1040D000CDB7DEB7CA1BDB0B0FB6F894DEBF0FBE41
:1040E000CDBF09942A88398848885F846E847D848E
:1040F0008C849B84AA84B984C884DF80EE80FD8090
:104100000C811B81AA81B981CE0FD11D0FB6F89405
:10411000DEBF0FBECDBFED010895AA1BBB1B51E151
:1041200007C0AA1FBB1FA617B70710F0A61BB70B27
:10413000881F991F5A95A9F780959095BC01CD01CC
:104140000895283008F027E03327DA01990F311D50
:1041500087FD916000966105710539F432602E5F2C
:104160003D9330E32A95E1F708959F3F30F0803882
:104170007105610509F03C5F3C5F3D93913008F0AB
:104180008068911DDF93CF931F930F93FF92EF925F
:10419000192F987F9695E92F96959695E90FFF2709
:1041A000EA5CFC4F99273327EE24FF24A701E7019F
:1041B00005900894079428F4360FE71EF81E491F4F
:1041C000511D660F771F881F991F0694A1F7059050
:1041D000079428F4E70EF81E491F561FC11D770FDC
:1041E000881F991F661F0694A1F70590079428F46D
:1041F000F80E491F561FC71FD11D880F991F661F34
:10420000771F0694A1F70590079420F4490F561FD5
:10421000C71FD81F990F661F771F881F0694A9F71D
:1042200084911095177041F0D695C795579547958D
:10423000F794E7941A95C1F7ECEDF2E068941590C5
:10424000159135916591959105907FE27395E118EF
:10425000F10A430B560BC90BD009C0F7E10CF11E54
:10426000431F561FC91FD01D7EF4703311F48A9569
:10427000E6CFE894015030F0080F0AF40027021747
:1042800008F4202F2395022F7A3328F079E37D93C9
:104290002A95E9F710C07D932A9589F6069497959B
:1042A0006795379517951794E118F10A430B560B4C
:1042B000C90BD00998F023957E9173957A3308F055
:1042C00070E37C932013B8F77E9170617D9330F09A
:1042D000839571E37D9370E32A95E1F71124EF90C4
:1042E000FF900F911F91CF91DF91992787FD9095B6
:1042F0000895FC010590615070400110D8F7809539
:1043000090958E0F9F1F0895FB01DC0104C08D91D5
:104310000190801921F441505040C8F7881B990B37
:104320000895FC016150704001900110D8F780950C
:1043300090958E0F9F1F08950F931F93CF93DF9338
:10434000FB01238121FD03C08FEF9FEF2CC022FFD3
:1043500016C046815781248135814217530744F4A2
:10436000A081B1819D012F5F3F4F318320838C93CA
:10437000268137812F5F3F4F3783268314C08B01FF
:10438000EC01FB010084F185E02D0995892BE1F614
:10439000D80116968D919C911797019617969C932C
:1043A0008E931697CE01DF91CF911F910F910895B3
:1043B000AEE0B0E0EEEDF1E20C9464208C0186E01A
:1043C0008C831A8309838FEF9FE79E838D83CE01B1
:1043D00001960E948E1CEF81F885E00FF11F10827C
:1043E0002E96E4E00C948020FA01AA27283051F19F
:1043F000203181F1E8946F936E7F6E5F7F4F8F4F16
:104400009F4FAF4FB1E03ED0B4E03CD0670F781F74
:10441000891F9A1FA11D680F791F8A1F911DA11D59
:104420006A0F711D811D911DA11D20D009F4689492
:104430003F912AE0269F11243019305D3193DEF63A
:10444000CF010895462F4770405D4193B3E00FD0F0
:10445000C9F7F6CF462F4F70405D4A3318F0495DDB
:1044600031FD4052419302D0A9F7EACFB4E0A695BE
:104470009795879577956795BA95C9F700976105E0
:10448000710508959B01AC010A2E06945795479536
:1044900037952795BA95C9F7620F731F841F951F2B
:0844A000A01D0895F894FFCF60
:1044A800B9058C059B0579056A05AA05C805D705D0
:1044B8004C055B050100010063146332FFFEF92F10
:1044C8002D2D2D2D2D2D2D2D2D2D2D535441525467
:1044D8002053595354454D2D2D2D2D2D2D2D2D2D3A
:1044E8002D2D2D2F0A00636F6E663A2025640A0071
:1044F8006D656E7520616674657220636865636BAF
:104508002025642025642025642025640A0D007078
:104518006173732025640A00636C6561725F706162
:104528007373776F72640A00656E7465725F746F77
:104538005F6D656E750A006D656E755F72656164A5
:104548002025642025642025642025640A0D0001A7
:10455800000204030564636D6F746F7220696E69ED
:10456800740A0064636D6F746F722073746F700ADD
:104578000064636D6F746F72206572726F720A00E7
:104588004552524F52205354415455533A204552A4
:10459800525F4D5F574149540A0D00636F756E7441
:1045A8005F6D6F746F725F74696D656F75745F7737
:1045B8006169743A2025640A0D00636F756E745F33
:1045C8006D6F746F725F74696D656F75745F617814
:1045D800656C65726174653A2025640A0D00455260
:1045E800524F52205354415455533A204552525F2A
:1045F8004D5F4158454C45524154450A0D004552BE
:10460800524F52205354415455533A204552525F09
:104618004D5F4552524F520A0D004552524F52209B
:104628005354415455533A20676F20746F206C617E
:104638007374206265666F726520776169740A0D0C
:10464800004552524F52205354415455533A204535
:1046580052525F4D5F455849540A0D004552524F1A
:1046680052205354415455533A204552525F4D5F9E
:104678004F4B0A0D00736572766F5F6572726F72C9
:104688005F76616C75653A2025642C2066696C74C8
:10469800657265642076616C75653A2025640A0048
:1046A800736572766F5F6572726F725F76616C7533
:1046B800653A2025640A004552524F52205354410E
:1046C8005455533A204552525F535F574149540A53
:1046D8000D004552524F52205354415455533A20DD
:1046E8004552525F535F5452590A0D004552524F7A
:1046F80052205354415455533A204552525F535F08
:104708004F4B0A0D004144435F6E6F742066696C1D
:1047180074657265643A20616363756D2025642C45
:1047280020736572766F2025642C206D6F746F720C
:104738002025642C2063616C6962726174696F6EF4
:104748002025640A004D4541535552452053455292
:10475800564F2043616C6962726174696F6E20768E
:10476800616C7565203D2025640A00534552564FFB
:104778003A20696E69740A00534552564F5F4445A2
:104788004C415945445F4F50454E2025640A00531B
:104798004552564F5F434C4F5345442025640A0009
:1047A800534552564F5F4F5050454E45442025645F
:1047B8000A00534552564F5F5452592025640A0047
:1047C800534552564F3A205A65726F2074727920B9
:0647D800636E740A00008C
:00000001FF
