:100000000C94EB010C9408020C9408020C94080266
:100010000C9408020C9408020C9408020C94080238
:100020000C9408020C9408020C94D3160C94080249
:100030000C9408020C94CD170C94FE170C94080233
:100040000C9408020C9408020C9408020C94080208
:100050000C9408029D08A408A708AD08B308B808C6
:10006000BE08C508C908D1082009200920092009AF
:100070002009200920092009200920092009200938
:100080002009200920092009200920092009200928
:100090002009200920092009200920092009200918
:1000A0002009200920092009200920092009200908
:1000B00020092009200920092009200920092009F8
:1000C00020092009200920092009200920092009E8
:1000D00020092009200920092009200920092009D8
:1000E00020092009200920092009200920092009C8
:1000F00020092009200920092009200920092009B8
:1001000020092009200920092009200920092009A7
:10011000200920092009D808DF08E508EA08F008C6
:10012000F608200920092009200920090F092009C3
:100130002009FE0803092009FB08090920092009F4
:100140002009200920092009200920092009200967
:100150002009200920092009200920092009200957
:100160002009200920092009200920092009200947
:100170002009200920092009200920092009200937
:100180002009200920092009200920092009200927
:100190002009200920092009200920092009200917
:1001A0002009200920092009200920092009200907
:1001B00020092009200920092009200920092009F7
:1001C00020092009200920092009200920092009E7
:1001D00020092009200920092009200920092009D7
:1001E00020092009200920092009200920092009C7
:1001F00020092009200920092009200920092009B7
:1002000020092009200920092009200920092009A6
:100210002009200920092009200920092009200996
:100220002009200920092009200920092009200986
:100230002009200920092009200920092009200976
:100240002009200913091F091D091B09190917098C
:10025000150907634236B79BD8A71A39685618AEF6
:10026000BAAB558C1D3CB7CC5763BD6DEDFD753EEB
:10027000F6177231BF000000803F08000000BE92F8
:100280002449123EABAAAA2ABECDCCCC4C3E0000DB
:100290000080BEABAAAAAA3E00000000BF0000007A
:1002A000803F0000000000084178D3BB4387D11392
:1002B0003D190E3CC3BD4282AD2B3E68EC8276BE3A
:1002C000D98FE1A93E4C80EFFFBE01C4FF7F3F0004
:1002D000000000006E616E00696E660000407A10DA
:1002E000F35A00A0724E18090010A5D4E80000E8E7
:1002F0007648170000E40B54020000CA9A3B000045
:1003000000E1F505000080969800000040420F00D3
:100310000000A08601000000102700000000E80394
:10032000000000006400000000000A00000000005F
:100330000100000000002C76D888DC674F0823DF1E
:10034000C1DFAE59E1B1B796E5E3E453C63AE651F1
:10035000997696E8E6C28426EB898C9B62ED407C18
:100360006FFCEFBC9C9F40F2BAA56FA5F490055AB4
:100370002AF75C936B6CF9676DC11BFCE0E40D47D9
:10038000FEF520E6B500D0ED902E030094357705FC
:100390000080841E080000204E0A000000C80C33B4
:1003A0003333330F986E12831141EF8D2114893B43
:1003B000E65516CFFEE6DB18D1844B381BF77C1DC3
:1003C000901DA4BBE424203284725E228100C9F116
:1003D00024ECA1E53D2711241FBECFE5D8E0DEBF08
:1003E000CDBF13E0A0E6B0E0E2E8F3E402C0059080
:1003F0000D92AA32B107D9F725E0AAE2B3E001C015
:100400001D92A23CB207E1F70E9439020C94BF2171
:100410000C940000CF93DF93CDB7DEB7AE014B5FF6
:100420005F4FFA0161917191AF0180EA94E00E94FF
:10043000452180EA94E00E945018DF91CF91089501
:100440008C9A8E9ABD9A899A089588E090E00E94CD
:10045000251862E381E00E9416170E9454080E944A
:10046000CC040E94F7140E945E0F80B78B7F80BF80
:1004700008950E94200278940E9425028FE790E060
:100480009F938F930E940A020E94E0060E945E10D2
:100490000F900F900E94500A0E94AC0B0E94220401
:1004A0000E94B5150E94681680919E040E94D8078C
:1004B00080919F040E947D120E945E060E947F0C24
:1004C0000E94200F0E947C0F0E9487020E94D0028F
:1004D0000E94E304DFCF83E00E949A10BC01660F04
:1004E000771F660F771F860F971FBC0180E090E093
:1004F0000E94741926E636E646EB50E40E942B1A59
:1005000020E030E040E85AE30E942B1A0895409121
:10051000BE055091BF056091C0057091C1058091E5
:100520002F0390913003A0913103B09132038417CF
:100530009507A607B70798F583E00E949A108935BA
:1005400022E0920718F021E0209333038B3821E05A
:10055000920718F422E0209333038E3521E09207AE
:1005600018F423E0209333038C5891408C3C910580
:1005700010F4109233038091BE059091BF05A091B5
:10058000C005B091C1058C599F4FAF4FBF4F8093AD
:100590002F0390933003A0933103B0933203089557
:1005A0004091BE055091BF056091C0057091C10595
:1005B00080912B0390912C03A0912D03B0912E03D9
:1005C00084179507A607B70708F086C08091330304
:1005D0008130E9F030F0823099F1833009F467C05E
:1005E0000895C59880912B0390912C03A0912D0321
:1005F000B0912E0388539F4FAF4FBF4F80932B0373
:1006000090932C03A0932D03B0932E03089598B3D9
:1006100080E2892788BB80912B0390912C03A091C5
:100620002D03B0912E0386509F4FAF4FBF4F809345
:100630002B0390932C03A0932D03B0932E030895C6
:1006400080912A03811119C081E080932A03C59A01
:1006500080912B0390912C03A0912D03B0912E0338
:100660008C509E4FAF4FBF4F80932B0390932C0322
:10067000A0932D03B0932E030895813069F5109255
:100680002A03C59880912B0390912C03A0912D03F0
:10069000B0912E0384529A4FAF4FBF4F80932B03DC
:1006A00090932C03A0932D03B0932E030895C59A25
:1006B00080912B0390912C03A0912D03B0912E03D8
:1006C00088519C4FAF4FBF4F80932B0390932C03C7
:1006D000A0932D03B0932E030895379897B1987F78
:1006E0008770892B87B9379A0895369A3699FECF45
:1006F00084B195B108950E946D030E947503089519
:10070000DC011696ED91FC911797208130E0F901FC
:1007100018960C9002C0F595E7950A94E2F7CF0180
:1007200081700895EDE4F5E0148281E085831486FC
:100730001386128611861686158626E330E03783E7
:10074000268392E09087E0E2F5E0148285831486A8
:100750001386128611861686158637832683808730
:10076000EFE2F5E0148285831486138612861186E3
:10077000168615863783268396E09087EDE0F5E0B0
:100780001482858314861386128611861686158632
:1007900040E350E05783468393E09087EEEFF4E028
:1007A0001482858314861386128611861686158612
:1007B000378326839087EEE3F5E0148285831486E1
:1007C0001386128611861686158669E370E0778394
:1007D0006683A4E0A087ECE5F5E0148285831486A7
:1007E0001386128611861686158643E350E05783DA
:1007F00046838087EBE6F5E01482858314861386B2
:10080000128611861686158637832683A087E0EE2A
:10081000F4E0148285831486138612861186168668
:100820001586778366839087EFEEF4E014828583E4
:10083000148613861286118616861586578346837C
:1008400010860895DF92EF92FF920F931F93CF933C
:10085000DF934091BE055091BF056091C005709136
:10086000C10580911C0590911D05A0911E05B091B8
:100870001F0584179507A607B70708F085C0809164
:10088000BE059091BF05A091C005B091C1054496E9
:10089000A11DB11D80931C0590931D05A0931E05FD
:1008A000B0931F05C0E6D0E00F2EF4E7EF2EF0E086
:1008B000FF2EF02DDD24D3948E01888199810E9432
:1008C0008003E881F98195818917E1F08583813082
:1008D00061F488819981DC011996ED91FC911A9758
:1008E000309709F441C009953FC081113DC088810E
:1008F0009981DC011B96ED91FC911C97309721F0BA
:10090000099502C0811130C0D801ED91FC91808120
:100910009181A281B3810196A11DB11D8083918334
:10092000A283B383D801ED91FC9180819181A28152
:10093000B3818897A105B10510F184818130F9F068
:100940000584F685E02D309719F08DE495E0099542
:10095000D801ED91FC9111971082118212821382BD
:10096000ED91FC91D4820BC0D801ED91FC911197CF
:100970001082118212821382ED91FC9114822296D0
:10098000CE15DF0509F098CFDF91CF911F910F9120
:10099000FF90EF90DF9008950E949203BA98C29A58
:1009A000B998C19ABE98C69A8B98939ABB98C39AE5
:1009B000D498DC9AA198A99ABC98C49AD398DB9A47
:1009C000A098A89A08954091BE055091BF056091E6
:1009D000C0057091C1058091380390913903A091B1
:1009E0003A03B0913B0384179507A607B70708F0B1
:1009F00059C080919C0490919D0495FF37C08091CF
:100A0000340390913503A0913603B0913703892BBD
:100A10008A2B8B2B59F5C09A80919C0490919D0450
:100A20009F7D90939D0480939C0481E090E0A0E0E2
:100A3000B0E08093340390933503A0933603B093D2
:100A400037038091380390913903A0913A03B09114
:100A50003B038C599F4FAF4FBF4F80933803909308
:100A60003903A0933A03B0933B030895C0981092C2
:100A7000340310923503109236031092370380919D
:100A8000380390913903A0913A03B0913B03C29689
:100A9000A11DB11D8093380390933903A0933A03AD
:100AA000B0933B030895B89AC0980895E0E8F5E044
:100AB000A4E7B0E011968C911197808313968C91E6
:100AC0001397818315968C911597828317968C9135
:100AD00083830895809184051F928F9386EA90E026
:100AE0009F938F930E940A02E0E8F5E083811F92B2
:100AF0008F9382811F928F9381811F928F93808128
:100B00001F928F9380EB90E09F938F930E940A0235
:100B10008DB79EB70E960FB6F8949EBF0FBE8DBFD1
:100B200008958091840590E0FC01E058FA4F2081FF
:100B3000FC01EE0FFF1FEC58FF4F3081231728F404
:100B4000FC01E058FA4F2F5F20830E946A05089548
:100B50008091840590E0FC01E058FA4F2081222327
:100B600029F0FC01E058FA4F215020830E946A05C9
:100B7000089580918405833018F48F5F80938405F5
:100B80000E946A05089580918405882319F0815098
:100B9000809384050E946A05089560E875E084E00A
:100BA0000E94EF1088E080939A05809395059498B1
:100BB00096980895CF93E091850591E09E0F9093CC
:100BC0008505F0E0E658FA4F80831F928F938FECF3
:100BD00090E09F938F930E940A02C09185054C2F4D
:100BE00050E06FE071E08AE795E00E94F1200F90FD
:100BF0000F900F900F90892B91F088ED90E09F93CC
:100C00008F930E940A021092850586E0EAE7F5E0DC
:100C1000DF011D928A95E9F70F900F9035C0C6301D
:100C200099F588EE90E09F938F930E940A0281E0ED
:100C30008093860583EC95E0909359058093580541
:100C400089EB95E090932C0580932B058DEC95E036
:100C500090933B0580933A0588EA95E090930A05C6
:100C60008093090581E995E090934A0580934905B1
:100C700086E595E0909368058093670567E082E0DC
:100C80000E94F5090F900F90CF91089585E00E9482
:100C9000DA05089584E00E94DA05089583E00E9451
:100CA000DA05089582E00E94DA05089581E00E9445
:100CB000DA05089580E00E94DA0508954091BE05A6
:100CC0005091BF056091C0057091C10580913C03B2
:100CD00090913D03A0913E03B0913F038417950787
:100CE000A607B70708F06BC080918605813009F030
:100CF00066C08091BE059091BF05A091C005B091DE
:100D0000C105C296A11DB11D80933C0390933D0384
:100D1000A0933E03B0933F0380919A05873031F44E
:100D20006091840586E995E00E949D098091950572
:100D3000873051F4E0918405F0E0E058FA4F60818B
:100D400081E995E00E949D0980919A05883049F5D6
:100D500080919505883029F58091BE059091BF0559
:100D6000A091C005B091C10588519C4FAF4FBF4FB6
:100D700080933C0390933D03A0933E03B0933F03C5
:100D800083E78093A90581E680939D0580E78093A2
:100D90009B051092A7058AE080939A05809395059C
:100DA000089580919A058A3051F4809195058A3092
:100DB00031F410929A0510929505109286050895C7
:100DC0008AE596E0909359058093580586E596E06C
:100DD00090932C0580932B0582E596E090933B053C
:100DE00080933A058EE496E090930A058093090576
:100DF0008AE496E090934A058093490586E496E05C
:100E0000909368058093670560E875E084E00E9430
:100E10003311E0E8F5E083811F928F9382811F9266
:100E20008F9381811F928F9380811F928F9387EF81
:100E300090E09F938F930E940A02A0E8B5E0E4E758
:100E4000F0E04CE750E08DB79EB70A960FB6F894E5
:100E50009EBF0FBE8DBF20E09C918081891718F442
:100E600081818C932F5F11963296E417F507A1F7D5
:100E7000222329F060E875E084E00E94EF101092D0
:100E8000850586E0EAE7F5E0DF011D928A95E9F73E
:100E90000895843030F4E82FF0E0E058FA4F808174
:100EA000089580E0089585E191E09F938F930E94DB
:100EB0000A028BE895E00E94421781E08093870543
:100EC000949815BC8F9A979A0F900F90089510924E
:100ED000870515BC979A949808959091870592502C
:100EE00021E030E0933010F020E030E0C9010895B7
:100EF0000E946D07009799F083E291E09F938F9392
:100F00000E940A0215BC979A9498E7E8F5E0808160
:100F1000818381E080830F900F9081E090E00895BD
:100F2000809187058130D9F4949A85B5806385BD19
:100F300085B5806485BD85B5816085BDE7E8F5E050
:100F40008081818384E0808348EE53E060E070E03C
:100F50008BE895E00E944A1781E090E0089580E0D8
:100F600090E0089580918A0590E0089581E391E0F2
:100F70009F938F930E940A020E94780785E08093D6
:100F800087050F900F9008950E946D07009729F034
:100F900083E08093870581E090E008950E946D07CB
:100FA000009729F082E08093870581E090E0089522
:100FB000CF93C82F46E950E060E070E080E493E012
:100FC0000E949617892B09F458C090918705933099
:100FD000E9F028F49130B9F0923041F04EC09430ED
:100FE00009F448C0953009F442C047C0C0938A054F
:100FF0002BEEC29FC001112463E670E00E949A1F8D
:101000006C5E63BD3AC010928A0537C0C33378F472
:1010100084E18C0F80938A052BEE829FC0011124FE
:1010200063E670E00E949A1F6C5E63BD26C08DEC83
:101030008C0F843178F48FE08C0F80938A052BEE2F
:10104000829FC001112463E670E00E949A1F6C5ECB
:1010500063BD13C0C0938A052BEEC29FC00111244B
:1010600063E670E00E949A1F6C5E63BD06C015BC0B
:10107000979A03C082E080938705CF910895AE9A36
:10108000AD9ADD9ADF9ADE9AAA9AAF9A0895929A5B
:1010900010929E05C79A1092AA05AC9A10929C05D0
:1010A000AB9A1092A8050895A69AA59AD59AD79AB0
:1010B000D69AA29AA79A8A9AEFE9F5E08DE995E087
:1010C00091838083BF9A29EA35E033832283A6E99E
:1010D000B5E011963C932E9313969C938E931297A2
:1010E000A49A2BE935E035832483A39A87EA95E017
:1010F00097838683E1E9F5E03183208393838283BC
:101100000E9447080E943F080895CF93DF93FC0197
:10111000308120917C00321709F495C0EC010E94C7
:101120003F08E8818E2F90E08F3F910508F088C03E
:10113000FC01E65DFF4F0C94AE1FAE98AD98DD98B4
:10114000DF98DE98AA987CC0AD98DD9879C0AE98FB
:10115000AD98AF98DE98DF9873C0AE98AD98AF9811
:10116000DD98DF986DC0AA98AF98AD98DD9868C0FB
:10117000AE98AA98AF98DD98DF9862C0AE98AA980A
:10118000AF98DD98DF98DE985BC0AE98AD98DD989B
:1011900057C0AE98AD98DD98DF98DE98AA98AF98C2
:1011A0004FC0AE98AD98DD98DF98AA98AF9848C028
:1011B000AE98AD98DD98DE98AA98AF9841C0DD98BA
:1011C000DF98DE98AA98AF983BC0AE98DF98DE987B
:1011D000AA9836C0AD98DD98DF98DE98AF9830C0F9
:1011E000AE98DF98DE98AA98AF982AC0AE98DE989D
:1011F000AA98AF9825C0DE98AF9822C0DD98DF98F6
:10120000DE98AF981DC0AE98AD98DE98AA98AF98BA
:1012100017C0AE98DD98DF98AA98AF9811C0DF98F4
:10122000DE98AA980DC0AF980BC0AA9809C0DE98A6
:1012300007C0DF9805C0DD9803C0AD9801C0AE9827
:10124000888180937C00DF91CF910895CF93DF93C5
:10125000EC010E944708CE010E94850885E0CD3947
:10126000D80729F4929881E080939E0519C085E003
:10127000C93AD80729F4C79881E08093AA0510C01D
:1012800085E0CB39D80729F4AC9881E080939C05A0
:1012900007C0C75AD54021F4AB9881E08093A805D8
:1012A000DF91CF910895EF92FF921F93CF93DF9339
:1012B000FC01C081D1812196D183C0839E01ADEC18
:1012C000BCEC0E94B41F9695879596958795969548
:1012D00087959C01220F331F880F991F880F991F34
:1012E000880F991F820F931FC817D90701F57F0137
:1012F00010914503143058F4E12FF0E0EE0FFF1F7A
:10130000E156FA4F808191810E94260902C00E9415
:1013100047081F5F153019F01093450302C0109263
:101320004503C039D14019F4F70111821082DF91D1
:10133000CF911F91FF90EF900895FC016436F8F46F
:10134000611108C0A081B1811C920280F381E02D5F
:1013500010820895A081B1819DEC699F912D112487
:101360009695969596959C930280F381E02D892F12
:10137000880F982F990F990F890F681B6083089524
:10138000FC0160830895813039F018F0823039F023
:1013900008956093610308956093600308956093D6
:1013A0006003609361030895882319F0813029F068
:1013B00008C080919A0590E008958091950590E08D
:1013C00008958FEF9FEF089580919A05863021F45C
:1013D0008091AB0580939A0580919505863021F424
:1013E0008091AC058093950508958130A1F018F0A7
:1013F000823009F10895663021F480919A05809336
:10140000AB0580919A05863019F46093AB05089579
:1014100060939A050895663021F480919505809334
:10142000AC0580919505863019F46093AC0508955C
:10143000609395050895663041F480919A058093F4
:10144000AB05809195058093AC0580919A05863017
:1014500029F46093AC056093AB05089560939A05F9
:1014600060939505089595E090939A05909395055E
:1014700080935B03089568EF8DE995E00E94C009B1
:1014800068EF89EA95E00E94C00968EF8BE995E072
:101490000E94C00968EF87EA95E00E94C00908959C
:1014A0008091BE059091BF05A091C005B091C10586
:1014B00040914A0350914B0360914C0370914D034E
:1014C000481759076A077B0708F026C180919A05DB
:1014D000833009F459C030F4882309F487C081307F
:1014E00039F18EC0853009F474C048F1863009F0B6
:1014F00087C00E946B0220E030E048EC52E40E947A
:101500002B1A0E943E1970935A03609359039B0152
:101510003695279536952795ABE7B4E10E94B41F21
:1015200096958795682F86E995E00E949D0968C089
:101530006091610386E995E00E949D0961C08091F8
:101540009505843031F081E080939A05809395056C
:1015500057C048515C4F6F4F7F4F40934A035093A1
:101560004B0360934C0370934D0383E78093A9056D
:1015700081E680939D0580E780939B0581E08093C1
:101580009A0580939505089580919505833031F0F3
:1015900081E080939A058093950532C048515C4F55
:1015A0006F4F7F4F40934A0350934B0360934C031C
:1015B00070934D038CE68093A9058FE680939D057B
:1015C00080E780939B0581E080939A058093950541
:1015D00017C085E68093A90582E780939D056091F9
:1015E0005B0381E995E00E949D090AC068EF8DE9DF
:1015F00095E00E94C00968EF89EA95E00E94C00961
:1016000080919505813019F148F1863019F08D30BF
:1016100081F16FC04091590350915A039A01369558
:10162000279536952795ABE7B4E10E94B41F9695B0
:10163000879564E6689F9001699F300D1124BA0177
:10164000621B730B81E995E00E949D0952C0609175
:10165000600381E995E00E949D094BC068EF8BE92A
:1016600095E00E94C00968EF87EA95E00E94C009F2
:1016700040C044EF51E060E070E084E593E00E94F8
:101680009617892BB1F18091530381110EC081E02F
:101690008093530367EF8BE995E00E94C00967EFE1
:1016A00087EA95E00E94C00924C0109253038091FC
:1016B0004F0390915003A0915103B09152030097B2
:1016C000A105B10529F461E081E00E94F50911C08E
:1016D0000197A109B10980934F0390935003A09300
:1016E0005103B093520360914E0381E995E00E944B
:1016F0009D0980914A0390914B03A0914C03B091B6
:101700004D03C296A11DB11D80934A0390934B03D4
:10171000A0934C03B0934D0308950F931F93009132
:10172000BE051091BF052091C0053091C105DC01B7
:10173000CB01800F911FA21FB31F80935C03909376
:101740005D03A0935E03B0935F0362E0842F0E9469
:10175000F5091F910F91089580919A05823029F023
:1017600080919505823009F078C04091BE05509176
:10177000BF056091C0057091C105809146039091AD
:101780004703A0914803B091490384179507A60722
:10179000B70708F062C08091BE059091BF05A09187
:1017A000C005B091C10581559F4FAF4FBF4F80938A
:1017B000460390934703A0934803B0934903809155
:1017C0009A05823061F460917E008DE995E00E9477
:1017D000C00960917E0089EA95E00E94C00980916D
:1017E0009505823061F460917D008BE995E00E945F
:1017F000C00960917D0087EA95E00E94C009409190
:10180000BE055091BF056091C0057091C1058091E2
:101810005C0390915D03A0915E03B0915F03841718
:101820009507A607B70728F461E082E00E94F50952
:10183000C59890917E009F5F90937E0080917D007F
:10184000815080937D009F3F19F499EF90937E0023
:10185000883F19F48EEF80937D000895E199FECFC3
:101860009FBB8EBB6DBBE29AE19A0895E199FECFD2
:101870009FBB8EBBE09A8DB30895CF93C82F809104
:101880009C0490919D04826090939D0480939C049D
:101890008C2F0E94330A0E94B6070E94A2110E9458
:1018A000D016C093AD05CF91089510927A0310928F
:1018B00079031092780310927003109271038BE7F2
:1018C00093E00E948C178BE693E00E948C17109295
:1018D000AD05089510927A0310927903109278035F
:1018E00010927003109271038BE793E00E948C17A3
:1018F0008BE693E00E948C171092AD0508954F92ED
:101900005F926F927F928F929F92AF92BF92CF928F
:10191000DF92EF92FF924091BE055091BF0560911A
:10192000C0057091C1058091670390916803A091F3
:101930006903B0916A0384179507A607B70708F0F3
:1019400072C280919C0480FF6EC24091BE0550918E
:10195000BF056091C0057091C1054C505E4F6F4F3F
:101960007F4F4093670350936803609369037093BC
:101970006A0381FD58C20E946B024B015C010E9408
:10198000B207BC0180E090E00E9474196B017C01F9
:1019900025E935E640ED5FE30E94981A2B013C01F2
:1019A000A7019601C501B4010E942B1A20E030E086
:1019B00048EC52E40E94CC184B015C0123E333E372
:1019C00043E651E4C701B6010E942B1A20E030E043
:1019D00048EC52E40E94CC189B01AC01C501B40153
:1019E0000E945F1820E030E040E450E40E94CC18F0
:1019F0004B015C0128E539E344E35CE3C301B20138
:101A00000E942B1A9B01AC01C501B4010E94601811
:101A10004B015C0183E00E944907682F70E062532C
:101A20007109072E000C880B990B0E947619A701EB
:101A300096010E942B1A20E030E048EC52E40E940C
:101A4000CC18A50194010E946018609374037093F0
:101A50007503809376039093770380E00E949A1039
:101A600042E05BE267E07DE380E00E94B3102091FA
:101A700074033091750340917603509177030E946F
:101A8000261A181644F40E946D07892B21F081E074
:101A90008093780302C01092780381E00E94490786
:101AA00081110DC180917803813009F0A8C0809127
:101AB0007A03823009F470C028F4882351F0813011
:101AC000A9F1FDC0833009F47AC0843009F47BC0E9
:101AD000F6C081E080937A0380E491E09F938F9336
:101AE0000E940A020E94B2072EE1AC01249FC001AD
:101AF000259F900D112448E853E17A01E81AF90A6C
:101B0000FF92EF928BE591E09F938F930E940A02E0
:101B1000A70160E070E08BE793E00E944A170F9006
:101B20000F900F900F900F900F90C9C08BE793E02C
:101B30000E946C17892B09F4C2C00E94C4070E943E
:101B4000B2072EE1AC01249FC001259F900D112406
:101B500048E853E17A01E81AF90AFF92EF928AE71E
:101B600091E09F938F930E940A02A70160E070E0CA
:101B70008BE793E00E944A1782E080937A038EE914
:101B800091E09F938F930E940A020F900F900F9005
:101B90000F900F900F9093C08BE793E00E946C170B
:101BA000892B09F48CC083E080937A038EEB91E05B
:101BB0009F938F930E940A020F900F9080C081E044
:101BC0000E943D0C7CC08BE793E00E946C17892B30
:101BD00009F475C040ED57E060E070E08BE793E0FA
:101BE0000E944A178091790380937A038AED91E0ED
:101BF0009F938F930E940A020F900F9060C0809174
:101C00007A03823049F118F4813041F058C08330B2
:101C100009F441C0843009F442C051C08BE793E01D
:101C20000E946C17892B09F44AC040ED57E060E030
:101C300070E08BE793E00E944A1784E080937A0378
:101C400081E08093790381E092E09F938F930E94DB
:101C50000A020F900F9033C08BE793E00E946C173D
:101C6000892B69F140ED57E060E070E08BE793E08D
:101C70000E944A170E94CE0784E080937A0382E094
:101C80008093790381E092E09F938F930E940A02F0
:101C90000F900F9014C081E00E943D0C10C08BE7A4
:101CA00093E00E946C17892B51F08CE192E09F9396
:101CB0008F930E940A0210927A030F900F9080E097
:101CC0000E9449078111AFC082E00E94490790E05D
:101CD000C296909373038093720381E00E949A10DE
:101CE000209172033091730328173907D8F43F937A
:101CF0002F9385E392E09F938F930E940A0281E0E5
:101D0000809370030F900F900F900F90809171034C
:101D1000813051F1A8F0823009F44BC0833009F4CE
:101D200051C081C01092700380917103823009F418
:101D300066C0833009F474C0813009F074C046C0B5
:101D400081E0809371038CE492E09F938F930E94D3
:101D50000A0244EF51E060E070E08BE693E00E94FD
:101D60004A170F900F905FC08BE693E00E946C17AC
:101D7000892B09F458C00E940F12049724F083E0C5
:101D80008093710350C04CED55E060E070E08BE64D
:101D900093E00E944A1782E0809371030E9403122D
:101DA00087E692E09F938F930E940A020F900F9014
:101DB0003AC08BE693E00E946C17892BA1F1109238
:101DC000710331C082E00E943D0C2DC08BE693E090
:101DD0000E946C17892B39F140ED57E060E070E00C
:101DE0008BE693E00E944A171092710381E892E01B
:101DF0009F938F930E940A020F900F9014C08BE65E
:101E000093E00E946C17892B71F01092710381E8A6
:101E100092E09F938F930E940A020F900F9003C04D
:101E200082E00E943D0CFF90EF90DF90CF90BF903A
:101E3000AF909F908F907F906F905F904F9008959C
:101E40004EE551E060E070E082E693E00E94961774
:101E5000892B09F18091AD05813071F492B380E155
:101E6000892782BB80919C0490919D0490629093FD
:101E70009D0480939C040895823069F492B380E4B9
:101E8000892782BB80919C0490919D0490629093DD
:101E90009D0480939C040895FC012081318162306F
:101EA00058F0329691E041915191240F351F3695AB
:101EB00027959F5F6913F7CFC9010895E6ECF3E01A
:101EC0002EEE33E081EF91E0819391932E173F073F
:101ED000D9F7E5EAF3E083EC93E0119211928E17C3
:101EE0009F07D9F7EDE8F3E081EA93E011921192B0
:101EF0008E179F07D9F70895CF92DF92EF92FF9246
:101F0000CF93DF934091BE055091BF056091C0050E
:101F10007091C1058091840390918503A0918603FF
:101F2000B091870384179507A607B70708F0BFC0CD
:101F30008091BE059091BF05A091C005B091C105EB
:101F40004496A11DB11D8093840390938503A093B3
:101F50008603B093870380E00E947B03EC016091CD
:101F6000C3037091C40380E090E00E94741921E7DC
:101F70003DE34AE85EE30E942B1A6B017C01BE013F
:101F800080E090E00E9474199B01AC01C701B6018A
:101F90000E9460180E9445197093F1036093F0034A
:101FA0002091F203E22FF0E0EE0FFF1FEA53FC4F07
:101FB0007183608381E0820F8093F20382E00E944C
:101FC0007B038032910530F04F979093A403809368
:101FD000A30304C01092A4031092A303E091C503CD
:101FE000F0E0EE0FFF1FEB55FC4F8091A3039091A3
:101FF000A4039183808381E00E947B032091880366
:1020000030918903A901481B590B50938B034093CE
:102010008A03C0918C03EC2FF0E0EE0FFF1FE35713
:10202000FC4F51834083D091C503DF5FD093C5033C
:10203000CF5FC0938C0364E186EC93E00E944C0F69
:102040009093EF038093EE036FE085EA93E00E94A4
:102050004C0F9093C4038093C3036AE08DE893E030
:102060000E944C0F9093A2038093A1038091800360
:1020700090918103A0918203B09183030196A11DE9
:10208000B11D8093800390938103A0938203B0934A
:1020900083038091F203843111F41092F203CA3069
:1020A00011F410928C03DF3011F41092C503DF910C
:1020B000CF91FF90EF90DF90CF900895CF92DF9275
:1020C000EF92FF92CF93DF93C090BE05D090BF05F3
:1020D000E090C005F090C1058CEDC80E85E0D81EDB
:1020E000E11CF11CCCEBD5E00E947C0F8A819B8126
:1020F000AC81BD81C816D906EA06FB06A8F7809117
:10210000A1039091A20380938803909389039F93E6
:102110008F938AE992E09F938F930E940A020F9017
:102120000F900F900F90DF91CF91FF90EF90DF9085
:10213000CF900895833018F4813040F00CC0833084
:1021400079F48091EE039091EF0308958091C30399
:102150009091C40308958091A1039091A2030895E2
:1021600080E090E00895CF92DF92EF92FF926A01B3
:102170007B01833018F4813050F010C08330A9F413
:102180006091EE037091EF0380E090E011C06091E8
:10219000C3037091C40380E090E00AC06091A10382
:1021A0007091A20380E090E003C060E070E0CB019A
:1021B0000E94741920E030E040E85AE30E942B1A94
:1021C00020E030E040EA50E40E942B1AA70196017B
:1021D0000E94CC18FF90EF90DF90CF900895EF927F
:1021E000FF920F931F93CF938B01823059F028F405
:1021F000882391F0813019F130C0833029F1843087
:1022000031F02BC022E030E084E090E021C024E0F7
:1022100030E088E090E01CC06894EE24E1F8F12CF6
:10222000C0E0F80161918F018C2F90E00E942E0C8C
:10223000CF5F8C2F90E08E159F059CF30EC022E09F
:1022400030E082E090E004C022E030E086E090E000
:10225000C82F7901E80EF91EE4CFCF911F910F919D
:10226000FF90EF900895EF92FF920F931F93CF93FB
:102270008B01823059F028F4882391F0813019F1D4
:1022800030C0833029F1843031F02BC022E030E0BF
:1022900084E090E021C024E030E088E090E01CC0C1
:1022A0006894EE24E1F8F12CC0E08C2F90E00E94BD
:1022B000360CF80181938F01CF5F8C2F90E08E1543
:1022C0009F059CF30EC022E030E082E090E004C065
:1022D00022E030E086E090E0C82F7901E80EF91E98
:1022E000E4CFCF911F910F91FF90EF90089581114E
:1022F00005C08CE697E09BBD8ABD0895823390F4BB
:1023000090E022273327281B390B220F331F220F7F
:10231000331F220F331F820F931F885F984F9BBD7F
:102320008ABD0895843668F490E0C297880F991F9B
:10233000880F991F2AEA35E0A901481B590B5BBD9C
:102340004ABD089580E00E947711969885E08093B9
:10235000AE050895CF93DF932FE13EE437BD26BD50
:1023600081B3806381BB19BC18BC1BBC1ABC8FB580
:1023700082608FBD8EB588618EBD8FB580688FBD40
:102380008EB582608EBD3BBD2ABD9698CEEAD5E063
:1023900081E088831B8282EB95E00E9442171986B8
:1023A0001092070480EC92E09F938F930E940A02A0
:1023B0000F900F90DF91CF9108959091AE059250BC
:1023C00021E030E0923010F020E030E0C9010895C3
:1023D0009091AE059130A1F4EEEAF5E093E09083A0
:1023E00083831F928F938DEC92E09F938F930E9433
:1023F0000A020F900F900F900F9081E090E00895E7
:1024000080E090E008958091AE059FEF980F9230A4
:1024100028F4EEEAF5E0818384E0808308958091DA
:10242000B70590E008950E94DD110097C1F080E0AB
:102430000E947711EEEAF5E081E0808313821F921B
:102440001F9284EE92E09F938F930E940A029698C7
:102450000F900F900F900F9081E090E008952091E1
:10246000AE05243021F40E94381281E090E00895F6
:102470008091AF05823029F48093AE050E9413123B
:1024800009C0813071F4EEEAF5E082E08083838157
:102490000E94521210920704EEEAF5E081858F5FE8
:1024A00081870895CF93C82F8091AE059FEF980F35
:1024B0009330C0F4EEEAF5E082E08083C3838C2F92
:1024C0000E9477111F92CF9385EF92E09F938F9395
:1024D0000E940A02969A0F900F900F900F9081E041
:1024E00090E009C0843029F40E94381281E090E025
:1024F00002C080E090E0CF910895CF93DF93C82F82
:102500004BE450E060E070E082E094E00E949617B7
:10251000892B09F4B6C08091AE058430A1F030F467
:10252000823059F0833009F461C09BC0853009F4D2
:1025300077C0863009F491C094C0C093B1058C2F48
:102540000E9477118EC080910704811113C044E668
:1025500050E060E070E08DEF93E00E944A178091B8
:1025600007048F5F809307049091B105890F0E9443
:10257000771128C081508930C8F48DEF93E00E9414
:102580006C170197F9F444E650E060E070E08DEFDD
:1025900093E00E944A17809107048F5F809307049D
:1025A0009091B105890F0E9477110CC01092070419
:1025B000CEEAD5E08B810E94771189818883898555
:1025C0008F5F89872091B1058091070490E0820F89
:1025D000911D9F938F9387E093E09F938F930E9429
:1025E0000A020F900F900F900F903BC088EF93E07E
:1025F0000E946217892B59F088EF93E00E946C17B4
:10260000019779F582E08093AE05969A2AC040ED55
:1026100057E060E070E088EF93E00E944A1721C025
:1026200083EF93E00E946217892B71F083EF93E0B0
:102630000E946C170197A9F486E08093AE058FE1A4
:102640009EE49BBD8ABD0DC040ED57E060E070E0A8
:1026500083EF93E00E944A1704C08FE19EE49BBD84
:102660008ABD82EB95E00E946C17019751F410929D
:10267000B70585E193E09F938F930E940A020F9024
:102680000F90DF91CF910895EDE4F5E01686158661
:102690001286118614861386E0E2F5E0168615860A
:1026A000128611861486138610923B0510923A0505
:1026B000EEEFF4E0168615861486138612861186D0
:1026C000EEE3F5E0168615861486138612861186CB
:1026D0001092680510926705EBE6F5E01486138604
:1026E0001686158612861186E0EEF4E014861386AF
:1026F0001686158612861186EFEEF4E01486138690
:1027000016861586128611860895809110048230EF
:1027100049F080919C0490919D04986090939D0451
:1027200080939C04089580911004823049F0809138
:102730009C0490919D04806890939D0480939C04D8
:10274000089580919C0490919D04926090939D04C3
:1027500080939C04089580919C0490919D04997F9E
:1027600090939D0480939C0410921104089580918D
:102770009C0490919D04806290939D0480939C049E
:10278000089580919C0490919D048F7990939D046D
:1027900080939C0410921104089580919C04909160
:1027A0009D04906290939D0480939C0480919F046B
:1027B0008B3018F0815080939F0460919F0481E0DA
:1027C0000E94C30961E082E00E94F50908958091AA
:1027D0009C0490919D04906290939D0480939C042E
:1027E00080919F04833618F48F5F80939F046091DB
:1027F0009F0481E00E94C30961E082E00E94F50924
:10280000089580919C0490919D04906290939D0402
:1028100080939C0480919E048B3018F081508093AB
:102820009E0460919E0480E00E94C30980E00E94A3
:10283000D409029729F461E082E00E94F50904C0FE
:1028400061E080E00E94F509809110048F5F809321
:102850001004823019F466E00E94F5090895809111
:102860009C0490919D04906290939D0480939C049D
:1028700080919E04833618F48F5F80939E0460914C
:102880009E0480E00E94C30980E00E94D409029760
:1028900029F461E082E00E94F50904C061E080E073
:1028A0000E94F509809110048F5F8093100482309C
:1028B00019F466E00E94F50908950E94E4098091E8
:1028C0009C0490919D04977E90939D0480939C041A
:1028D0001092110480911004882319F08150809384
:1028E000100480E00E94D409029729F461E082E09C
:1028F0000E94F509089561E080E00E94F5090895BD
:102900000E94E40980919C0490919D048F779E7FA2
:1029100090939D0480939C04109211048091100464
:10292000882319F081508093100480E00E94D4091C
:10293000029729F461E082E00E94F509089561E0C0
:1029400080E00E94F5090895EAEBF5E080919E048D
:10295000808380919F048183BF0183E00E94EF10F8
:10296000089580919C0490919D04906290939D04A1
:1029700080939C0480919E048A3038F48AE080938E
:102980009E046AE080E00E94C3090E94A4140E9491
:102990006D07892B39F40E94900780919F040E9453
:1029A000E81108950E9478070E94131208958091FB
:1029B0009C0490919D04906290939D0480939C044C
:1029C00080919F048A3038F48AE080939F046AE003
:1029D00081E00E94C3090E94DD11892B19F00E9439
:1029E0001312089580919F040E945212089580EA64
:1029F00095E1909317058093160560E082E00E94B0
:102A0000F5090E943B0A68EB75E083E00E943311F0
:102A10008091B90596EF980F9A3510F480939F0432
:102A20008091B80596EF980F9A3510F480939E0424
:102A300008951092100442E068EE73E080E090E0A8
:102A40000E948D0B0E94530780E00E94AA110E94F1
:102A5000550C0E945E0F0E94530581E090E0909318
:102A60009D0480939C04EDE4F5E085E893E196876E
:102A7000858781E094E1948783878DE594E192874F
:102A80008187E0E2F5E083E993E1968785878FE22D
:102A900094E19487838780E894E19287818781EB32
:102AA00094E190933B0580933A05EEEFF4E081EAE0
:102AB00093E1968785878BEA93E1928781878DECF6
:102AC00093E194878387EEE3F5E087EB93E19687C4
:102AD000858781EC93E19287818787EE93E19487E4
:102AE000838787ED94E190936805809367056091F3
:102AF0009E0480E00E94C30960919F0481E00E94CF
:102B0000C3090895109210040E9467070E9444139D
:102B10000E946A0C0E94E0060E94131210929D040B
:102B200010929C0460E082E00E94F50980919C0470
:102B300090919D048E7F90939D0480939C040895B2
:102B40000E94A41480919C0480FF03C00E948215FF
:102B500002C00E94191580919C0490919D0490627E
:102B600090939D0480939C0408954091BE055091DC
:102B7000BF056091C0057091C105809108049091D6
:102B80000904A0910A04B0910B0484179507A607C5
:102B9000B70708F09CC080919C0485FF1DC0609120
:102BA0009F046336C8F46F5F60939F0481E00E94C6
:102BB000C309809114048F5F809314048F3060F0F8
:102BC00080919C0490919D048F7D806490939D04DE
:102BD00080939C041092140480919C0490919D0415
:102BE00091FF1DC060919F046623C9F061506093FE
:102BF0009F0481E00E94C309809113048F5F80933A
:102C000013048F3060F080919C0490919D049D7F0F
:102C1000946090939D0480939C041092130480917F
:102C20009C0487FF1DC060919E046336C8F46F5FEB
:102C300060939E0480E00E94C309809112048F5F1C
:102C4000809312048F3060F080919C0490919D04D9
:102C50008F77916090939D0480939C04109212044E
:102C600080919C0490919D0493FF1DC060919E04EF
:102C70006B30C8F0615060939E0480E00E94C309ED
:102C8000809111048F5F809311048F3060F08091E8
:102C90009C0490919D04977F906190939D048093F4
:102CA0009C04109211048091080490910904A09151
:102CB0000A04B0910B04805B9F4FAF4FBF4F8093CE
:102CC000080490930904A0930A04B0930B04089598
:102CD0004091BE055091BF056091C0057091C1053E
:102CE00080910C0490910D04A0910E04B0910F04FA
:102CF00084179507A607B70708F051C060919F0495
:102D0000633650F480919C0486FF06C06F5F609329
:102D10009F0481E00E94C30960919F04662361F0D3
:102D200080919C0490919D0492FF06C06150609335
:102D30009F0481E00E94C30960919E04633660F4A1
:102D400080919C0490919D0490FF06C06F5F6093FA
:102D50009E0480E00E94C30960919E046B3060F085
:102D600080919C0490919D0494FF06C061506093F3
:102D70009E0480E00E94C30980910C0490910D0490
:102D8000A0910E04B0910F044E96A11DB11D809329
:102D90000C0490930D04A0930E04B0930F040895B7
:102DA0000E94441308951F920F920FB60F921124A0
:102DB0002F933F934F935F936F937F938F939F9343
:102DC000AF93BF93EF93FF93ECEBF5E0808191819C
:102DD000C2969183808380819181883E934088F060
:102DE00082819381A481B5810196A11DB11D828349
:102DF0009383A483B58380819181885E934091837E
:102E0000808385E194E00E945309FF91EF91BF9187
:102E1000AF919F918F917F916F915F914F913F9172
:102E20002F910F900FBE0F901F90189593B7986039
:102E300093BF6CBF823099F028F4882341F0813031
:102E400051F019C0833079F0843089F014C083B711
:102E5000816083BF13C083B7826083BF0FC083B715
:102E6000836083BF0BC083B7846083BF07C083B711
:102E7000856083BF03C083B7816083BF89B78260E9
:102E800089BF089523E0FC012483108211821282FD
:102E9000138208950F931F9321E0FC012483009176
:102EA000BE051091BF052091C0053091C105400FAE
:102EB000511F621F731F40835183628373831F916D
:102EC0000F91089521E030E0FC018481813011F000
:102ED00020E030E0C9010895FC0184818130B1F423
:102EE0008091BE059091BF05A091C005B091C1052C
:102EF0004081518162817381481759076A077B07B6
:102F000040F482E0848381E090E008958FEF9FEFAA
:102F1000089580E090E0089521E030E0FC01848194
:102F2000833011F020E030E0C9010895CF92DF92A4
:102F3000EF92FF920F931F93CF93DF93EC016A01FF
:102F40007B018C81811106C083E08C8318821982F9
:102F50001A821B82CE010E946C178C01019731F4FA
:102F6000B701A601CE010E944A170DC08C818330A3
:102F700041F4B701A601CE010E944A1700E010E01B
:102F800002C000E010E0C801DF91CF911F910F91C6
:102F9000FF90EF90DF90CF9008951F920F920FB6A1
:102FA0000F9211242F933F934F935F938F939F938F
:102FB000EF93FF932BB13CB128718091190490E0FD
:102FC00001964091180450E08417950739F08093DA
:102FD0001904FC01E45EFB4F308301C022E0209322
:102FE0001704FF91EF919F918F915F914F913F91C6
:102FF0002F910F900FBE0F901F9018951F920F9258
:103000000FB60F9211248F939F93EF93FF9390919C
:103010001B0480911A04981771F080911A0490E0B3
:1030200001968F77992780931A04FC01E45EFB4F89
:1030300080818CB901C05598FF91EF919F918F913C
:103040000F900FBE0F901F901895F89410921B04CC
:1030500010921A041092190410921804789499236B
:103060001CF422E02BB99F7790BD89B988E98AB911
:1030700086E880BD089540911B0450E04F5F5F4F8C
:103080004F77552720911A0430E042175307D1F3A8
:10309000FA01E45EFB4F808340931B04559A089528
:1030A000CF93DF93EC018881882331F021960E9431
:1030B0003B1889918111FBCFDF91CF910895505832
:1030C000BB27AA270E9477180C94EC190E94DE19DE
:1030D00038F00E94E51920F039F49F3F19F426F4E6
:1030E0000C94DB190EF4E095E7FB0C94D519E92F4D
:1030F0000E94FD1958F3BA176207730784079507F2
:1031000020F079F4A6F50C941F1A0EF4E0950B2E1E
:10311000BA2FA02D0B01B90190010C01CA01A00129
:103120001124FF27591B99F0593F50F4503E68F184
:103130001A16F040A22F232F342F4427585FF3CFC5
:10314000469537952795A795F0405395C9F77EF496
:103150001F16BA0B620B730B840BBAF09150A1F0DF
:10316000FF0FBB1F661F771F881FC2F70EC0BA0F65
:10317000621F731F841F48F4879577956795B795ED
:10318000F7959E3F08F0B0CF9395880F08F09927E8
:10319000EE0F9795879508950E94E0180C94EC190E
:1031A0000E94E51958F00E94DE1940F029F45F3FB3
:1031B00029F00C94D51951110C94201A0C94DB1998
:1031C0000E94FD1968F39923B1F3552391F3951BE0
:1031D000550BBB27AA2762177307840738F09F5F38
:1031E0005F4F220F331F441FAA1FA9F335D00E2EA5
:1031F0003AF0E0E832D091505040E695001CCAF712
:103200002BD0FE2F29D0660F771F881FBB1F2617D4
:1032100037074807AB07B0E809F0BB0B802DBF01AB
:10322000FF2793585F4F3AF09E3F510578F00C947A
:10323000D5190C94201A5F3FE4F3983ED4F3869599
:1032400077956795B795F7959F5FC9F7880F911D9B
:103250009695879597F90895E1E0660F771F881F87
:10326000BB1F621773078407BA0720F0621B730B3A
:10327000840BBA0BEE1F88F7E09508950E9445195C
:103280006894B1110C94201A08950E94051A88F0D0
:103290009F5798F0B92F9927B751B0F0E1F0660F1A
:1032A000771F881F991F1AF0BA95C9F714C0B1305B
:1032B00091F00E941F1AB1E008950C941F1A672F15
:1032C000782F8827B85F39F0B93FCCF3869577958A
:1032D0006795B395D9F73EF4909580957095619573
:1032E0007F4F8F4F9F4F0895E89409C097FB3EF49E
:1032F00090958095709561957F4F8F4F9F4F992343
:10330000A9F0F92F96E9BB279395F69587957795C0
:103310006795B795F111F8CFFAF4BB0F11F460FF80
:103320001BC06F5F7F4F8F4F9F4F16C0882311F0D8
:1033300096E911C0772321F09EE8872F762F05C0EC
:10334000662371F096E8862F70E060E02AF09A9587
:10335000660F771F881FDAF7880F9695879597F97C
:103360000895990F0008550FAA0BE0E8FEEF161616
:103370001706E807F907C0F012161306E407F50769
:1033800098F0621B730B840B950B39F40A2661F0DD
:10339000232B242B252B21F408950A2609F4A14080
:1033A000A6958FEF811D811D089597F99F6780E88D
:1033B00070E060E008959FEF80EC089500240A9487
:1033C0001616170618060906089500240A94121600
:1033D0001306140605060895092E0394000C11F433
:1033E000882352F0BB0F40F4BF2B11F460FF04C0E0
:1033F0006F5F7F4F8F4F9F4F089557FD9058440F39
:10340000551F59F05F3F71F04795880F97FB991F43
:1034100061F09F3F79F08795089512161306140600
:10342000551FF2CF4695F1DF08C01616170618068D
:10343000991FF1CF86957105610508940895E89468
:10344000BB2766277727CB0197F908950E94B1190A
:1034500008F48FEF08950E943E1A0C94EC190E9414
:10346000DE1938F00E94E51920F0952311F00C9434
:10347000D5190C94DB1911240C94201A0E94FD1903
:1034800070F3959FC1F3950F50E0551F629FF001B7
:10349000729FBB27F00DB11D639FAA27F00DB11DD0
:1034A000AA1F649F6627B00DA11D661F829F222759
:1034B000B00DA11D621F739FB00DA11D621F839FE0
:1034C000A00D611D221F749F3327A00D611D231FB6
:1034D000849F600D211D822F762F6A2F11249F5704
:1034E00050409AF0F1F088234AF0EE0FFF1FBB1F07
:1034F000661F771F881F91505040A9F79E3F5105C6
:1035000080F00C94D5190C94201A5F3FE4F3983E98
:10351000D4F3869577956795B795F795E7959F5F6F
:10352000C1F7FE2B880F911D9695879597F9089501
:10353000FA01EE0FFF1F309621053105A1F161154B
:10354000710561F48038BFE39B0749F168949038B6
:10355000810561F08038BFEF9B0741F099234AF560
:10356000FF3FE1053105210519F1E8940894E7953D
:10357000D901AA2329F4AB2FBE2FF85FD0F310C0D6
:10358000FF5F70F4A695E0F7F73950F019F0FF3AB5
:1035900038F49F779F930DD00F9007FC90580895B3
:1035A00046F00C94DB1960E070E080E89FE308953A
:1035B0004FE79F775F934F933F932F930E94931B07
:1035C0002F913F914F915F910E942B1A0C94F01A0A
:1035D00029F416F00C94D5190C941F1A0C94DB19CD
:1035E0000E94051AA8F39638A0F707F80F92E894FE
:1035F0002BE33AEA48EB5FE70E94411A0F920F92E1
:103600000F924DB75EB70F920E94DB1BE2E5F2E02E
:103610000E94221B4F915F91EF91FF91E595EE1F64
:10362000FF1F49F0FE57E0684427EE0F441FFA954C
:10363000E1F74195550B0E94551B0F9007FE0C9426
:10364000491B0895DF93CF931F930F93FF92EF923F
:10365000DF927B018C01689406C0DA2EEF010E9494
:103660003E1AFE01E894A591259135914591559119
:10367000A6F3EF010E947718FE019701A801DA94E2
:1036800069F7DF90EF90FF900F911F91CF91DF913D
:1036900008959B01AC0160E070E080E89FE30C942A
:1036A000CC180C94D5190C940F1C0E94051AD8F351
:1036B0009923C9F3940F511DA3F39150504094F0F6
:1036C00059F0882332F0660F771F881F91505040C1
:1036D000C1F79E3F51052CF7880F911D9695879550
:1036E00097F908955F3FACF0983E9CF0BB27869514
:1036F00077956795B79508F4B1609395C1F7BB0FBF
:1037000058F711F460FFE8CF6F5F7F4F8F4F9F4FE7
:10371000E3CF0C94201A16F00C940F1C0C94DB19B8
:1037200068940C94D5190E94051AA8F39923C1F343
:10373000AEF3DF93CF931F930F93FF92C92FDD2733
:1037400088232AF02197660F771F881FDAF720E079
:1037500030E040E85FEB9FE3883920F0803E38F0AE
:1037600021968F770E946018EAE7F2E004C00E9479
:103770006018E7EAF2E00E94221B8B01BE01EC0117
:10378000FB2E6F5771097595771F880B990B0E9457
:10379000761928E132E741E35FE30E943E1AAF2D3C
:1037A0009801AE01FF900F911F91CF91DF910E9480
:1037B00077180C94EC19FA01DC01AA0FBB1F9B01CE
:1037C000AC01BF5728F4222733274427507820C064
:1037D000B75190F4AB2F0024469537952795011CDF
:1037E000A395D2F3002071F0220F331F441FB3952D
:1037F000DAF30ED00C945F1861307105A0E88A07E7
:10380000B94630F49B01AC0166277727882790786A
:10381000309621F0208331834283538308959F3F64
:1038200031F0915020F4879577956795B795880F7B
:10383000911D9695879597F90895A0E1B0E0E3E290
:10384000FCE10C94C31F7C011B016A01FC0117827F
:103850001682838181FF44C39E012F5F3F4F390150
:10386000F7019381F10193FD859193FF81911F01F0
:10387000882309F431C3853239F493FD859193FF90
:1038800081911F01853239F4B70190E00E9409212E
:1038900056016501E5CF10E0512C912CFFE1F9159F
:1038A000D8F08B3279F038F4803279F08332A1F499
:1038B000F92DF0612EC08D3261F0803369F4292D2D
:1038C00021602DC0392D3260932E892D8460982E71
:1038D0002AC0E92DE86015C097FC2DC020ED280F07
:1038E0002A3088F496FE06C03AE0139F200D11247A
:1038F000122F19C08AE0589E200D1124522EE92D56
:10390000E0629E2E10C08E3231F496FCE5C2F92D95
:10391000F0649F2E08C08C3621F4292D2068922E49
:1039200002C0883641F4F10193FD859193FF8191A6
:103930001F018111B3CF9BEB980F933020F4992D89
:103940009061805E07C09BE9980F933008F066C1D4
:10395000992D9F7E96FF16E09F73992E853619F458
:103960009064992E08C0863621F4392F3068932E42
:1039700002C01111115097FE07C01C3350F44424AB
:103980004394410E27E00BC0183038F027E017E0D1
:1039900005C027E09CE3492E02C0212F412C56018F
:1039A00084E0A80EB11CF60160817181828193814F
:1039B000042DA3010E940E206C01F981FC87F0FF09
:1039C00002C0F3FF06C091FC06C092FE06C000E2F2
:1039D00005C00DE203C00BE201C000E08C858C70D5
:1039E00019F001115AC29BC297FE10C04C0CFC8505
:1039F000F4FF04C08A81813309F44A94141474F5E5
:103A000028E0241578F588E0482E2CC096FC2AC0C2
:103A1000812F90E08C159D059CF03CEFC3163FEF85
:103A2000D30674F0892D8068982E0AC0E2E0F0E099
:103A3000EC0FFD1FE10FF11D8081803319F411504F
:103A40001111F4CF97FE0EC044244394410E812FF0
:103A500090E0C816D9062CF41C1904C044244394E1
:103A600001C010E097FE06C01C141D0434F4C6010A
:103A7000019605C085E090E002C081E090E0011170
:103A80000196112331F0212F30E02F5F3F4F820F3D
:103A9000931F252D30E08217930714F4581A01C0A4
:103AA000512C892D897049F4552039F0B70180E2F5
:103AB00090E00E9409215A94F7CF002329F0B70122
:103AC000802F90E00E94092193FC09C0552039F015
:103AD000B70180E390E00E9409215A94F7CF97FE46
:103AE0004CC04601D7FE02C0812C912CC60188191A
:103AF0009909F301E80FF91FFE87ED879601241954
:103B00003109388B2F87012F10E01195019511098C
:103B10003FEF8316930629F4B7018EE290E00E94EE
:103B20000921C814D9044CF08F8598898815990506
:103B300024F4ED85FE85818101C080E3F1E08F1AD8
:103B400091082D853E852F5F3F4F3E872D8780163C
:103B500091062CF0B70190E00E940921D9CFC8143A
:103B6000D90441F49A81963320F4953319F43C85B5
:103B700034FF81E3B70190E04EC08A81813319F0B0
:103B80009C859F7E9C87B70190E00E9409211111BE
:103B900005C094FC18C085E690E017C0B7018EE21E
:103BA00090E00E9409211E5F82E001E0080FF3010E
:103BB000E80FF11D8081B70190E00E940921802F5C
:103BC0000113F3CFE6CF85E490E0B7010E9409210D
:103BD000D7FC06C0C114D10441F4EC85E4FF05C054
:103BE000D194C194D1088DE201C08BE2B70190E07D
:103BF0000E94092180E32AE0C216D1042CF08F5FD5
:103C0000FAE0CF1AD108F7CFB70190E00E9409215E
:103C1000B701C601C0960E94092154C1833631F014
:103C2000833779F0833509F056C020C0560132E061
:103C3000A30EB11CF6018081898301E010E06301CD
:103C400012C05601F2E0AF0EB11CF601C080D18067
:103C500096FE03C0612F70E002C06FEF7FEFC601D8
:103C60000E94FE208C01F92DFF7714C0560122E03E
:103C7000A20EB11CF601C080D18096FE03C0612F58
:103C800070E002C06FEF7FEFC6010E94E6208C015A
:103C9000F92DF0689F2EF3FD1AC0852D90E00817CE
:103CA0001907A8F4B70180E290E00E9409215A9414
:103CB000F4CFF60197FC859197FE81916F01B701D2
:103CC00090E00E94092151105A94015011090115E8
:103CD000110579F7F7C0843611F0893661F5560180
:103CE00097FE09C024E0A20EB11CF601608171812B
:103CF000828193810AC0F2E0AF0EB11CF6016081AF
:103D00007181072E000C880B990BF92DFF769F2EE1
:103D100097FF09C090958095709561957F4F8F4F63
:103D20009F4FF0689F2E2AE030E0A3010E9461219E
:103D3000C82EC6183FC0092D853721F40F7E2AE012
:103D400030E01DC0097F8F3691F018F4883559F0A6
:103D5000C3C0803719F0883711F0BEC0006104FF7E
:103D600009C0046007C094FE08C0066006C028E0D1
:103D700030E005C020E130E002C020E132E0560131
:103D800007FF09C084E0A80EB11CF60160817181B3
:103D90008281938108C0F2E0AF0EB11CF601608110
:103DA000718180E090E0A3010E946121C82EC618B5
:103DB0000F77902E96FE0BC0092D0E7FC11650F482
:103DC00094FE0AC092FC08C0092D0E7E05C0DC2CB2
:103DD000092D03C0DC2C01C0D12E04FF0DC0FE0153
:103DE000EC0DF11D8081803311F4097E09C002FFC2
:103DF00006C0D394D39404C0802F867809F0D3945E
:103E000003FD11C000FF06C01C2DD51480F4150D54
:103E10001D190DC0D51458F4B70180E290E00E943E
:103E20000921D394F7CFD51410F45D1801C0512C9B
:103E300004FF10C0B70180E390E00E94092102FF57
:103E400017C001FD03C088E790E002C088E590E05C
:103E5000B7010CC0802F867859F001FF02C08BE2B9
:103E600001C080E207FD8DE2B70190E00E940921C8
:103E7000C11638F4B70180E390E00E940921115087
:103E8000F7CFCA94F301EC0DF11D8081B70190E0EA
:103E90000E940921C110F5CF15C0F4E0F51560F5B9
:103EA00084E0581A93FE1FC0011127C02C8523FF00
:103EB0002AC004ED12E0392D3071932EF80184915F
:103EC000811124C0552009F4E4CCB70180E290E0D0
:103ED0000E9409215A94F6CFF7018681978126C066
:103EE0008FEF9FEF23C0B70180E290E00E9409218D
:103EF0005A945110F8CFD8CF512CB701802F90E0B1
:103F00000E940921D3CF08ED12E0D5CF9110805245
:103F1000B70190E00E9409210F5F1F4FCFCF23E030
:103F2000251510F483E0BDCF512CC0CF6096E2E19F
:103F30000C94DF1F97FB072E16F4009407D077FD33
:103F400009D00E94FA1F07FC05D03EF49095819598
:103F50009F4F0895709561957F4F0895EE0FFF1F55
:103F60000590F491E02D0994A29FB001B39FC00188
:103F7000A39F700D811D1124911DB29F700D811D95
:103F80001124911D08952F923F924F925F926F924C
:103F90007F928F929F92AF92BF92CF92DF92EF92D9
:103FA000FF920F931F93CF93DF93CDB7DEB7CA1B5A
:103FB000DB0B0FB6F894DEBF0FBECDBF09942A8885
:103FC000398848885F846E847D848C849B84AA842D
:103FD000B984C884DF80EE80FD800C811B81AA81BA
:103FE000B981CE0FD11D0FB6F894DEBF0FBECDBF85
:103FF000ED010895AA1BBB1B51E107C0AA1FBB1FFF
:10400000A617B70710F0A61BB70B881F991F5A9564
:10401000A9F780959095BC01CD010895283008F04E
:1040200027E03327DA01990F311D87FD9160009653
:104030006105710539F432602E5F3D9330E32A95B6
:10404000E1F708959F3F30F080387105610509F070
:104050003C5F3C5F3D93913008F08068911DDF9399
:10406000CF931F930F93FF92EF92192F987F9695FE
:10407000E92F96959695E90FFF27EA5CFC4F992763
:104080003327EE24FF24A701E70105900894079445
:1040900028F4360FE71EF81E491F511D660F771FC3
:1040A000881F991F0694A1F70590079428F4E70E3E
:1040B000F81E491F561FC11D770F881F991F661FC5
:1040C0000694A1F70590079428F4F80E491F561F8F
:1040D000C71FD11D880F991F661F771F0694A1F770
:1040E0000590079420F4490F561FC71FD81F990F3A
:1040F000661F771F881F0694A9F784911095177083
:1041000041F0D695C79557954795F794E7941A953A
:10411000C1F7ECEDF2E06894159015913591659139
:10412000959105907FE27395E118F10A430B560BC8
:10413000C90BD009C0F7E10CF11E431F561FC91F60
:10414000D01D7EF4703311F48A95E6CFE8940150C7
:1041500030F0080F0AF40027021708F4202F2395E7
:10416000022F7A3328F079E37D932A95E9F710C07E
:104170007D932A9589F606949795679537951795B7
:104180001794E118F10A430B560BC90BD00998F0AC
:1041900023957E9173957A3308F070E37C93201316
:1041A000B8F77E9170617D9330F0839571E37D93D4
:1041B00070E32A95E1F71124EF90FF900F911F9182
:1041C000CF91DF91992787FD90950895FC01059087
:1041D000615070400110D8F7809590958E0F9F1F09
:1041E0000895FB01DC0104C08D910190801921F438
:1041F00041505040C8F7881B990B0895FC0161504D
:10420000704001900110D8F7809590958E0F9F1FF8
:1042100008950F931F93CF93DF93FB01238121FD1B
:1042200003C08FEF9FEF2CC022FF16C0468157813D
:10423000248135814217530744F4A081B1819D0147
:104240002F5F3F4F318320838C93268137812F5FEF
:104250003F4F3783268314C08B01EC01FB010084A0
:10426000F185E02D0995892BE1F6D80116968D91FF
:104270009C911797019617969C938E931697CE0153
:10428000DF91CF911F910F910895AEE0B0E0EBE484
:10429000F1E20C94D11F8C0186E08C831A83098390
:1042A0008FEF9FE79E838D83CE0101960E941D1C98
:1042B000EF81F885E00FF11F10822E96E4E00C9458
:1042C000ED1FFA01AA27283051F1203181F1E8943D
:1042D0006F936E7F6E5F7F4F8F4F9F4FAF4FB1E0F9
:1042E0003ED0B4E03CD0670F781F891F9A1FA11DF4
:1042F000680F791F8A1F911DA11D6A0F711D811DF5
:10430000911DA11D20D009F468943F912AE0269FB9
:1043100011243019305D3193DEF6CF010895462F18
:104320004770405D4193B3E00FD0C9F7F6CF462FF9
:104330004F70405D4A3318F0495D31FD4052419362
:1043400002D0A9F7EACFB4E0A6959795879577951F
:104350006795BA95C9F700976105710508959B01A6
:10436000AC010A2E06945795479537952795BA952F
:10437000C9F7620F731F841F951FA01D0895F8943D
:02438000FFCF6D
:104382004D0520052F050D05FE043E055C056B0558
:10439200E004EF040100010063326332FFFEF92FF3
:1043A2002D2D2D2D2D2D2D2D2D2D2D53544152548E
:1043B2002053595354454D2D2D2D2D2D2D2D2D2D61
:1043C2002D2D2D2F0A00636F6E663A2025640A0098
:1043D2006D656E7520616674657220636865636BD6
:1043E2002025642025642025642025640A0D0070A0
:1043F2006173732025640A00636C6561725F70618A
:104402007373776F72640A00656E7465725F746F9E
:104412005F6D656E750A006D656E755F72656164CC
:104422002025642025642025642025640A0D0001CE
:10443200000204030564636D6F746F7220696E6914
:10444200740A0064636D6F746F722073746F700A04
:104452000064636D6F746F72206572726F720A000E
:104462004552524F52205354415455533A204552CB
:10447200525F4D5F574149540A0D00636F756E7468
:104482005F6D6F746F725F74696D656F75745F775E
:104492006169743A2025640A0D00636F756E745F5A
:1044A2006D6F746F725F74696D656F75745F61783B
:1044B200656C65726174653A2025640A0D00455287
:1044C200524F52205354415455533A204552525F51
:1044D2004D5F4158454C45524154450A0D004552E5
:1044E200524F52205354415455533A204552525F31
:1044F2004D5F4552524F520A0D004552524F5220C3
:104502005354415455533A20676F20746F206C61A5
:104512007374206265666F726520776169740A0D33
:10452200004552524F52205354415455533A20455C
:1045320052525F4D5F455849540A0D004552524F41
:1045420052205354415455533A204552525F4D5FC5
:104552004F4B0A0D00736572766F5F6572726F72F0
:104562005F76616C75653A2025640A004552524FA8
:1045720052205354415455533A204552525F535F8F
:10458200574149540A0D004552524F52205354414B
:104592005455533A204552525F535F5452590A0DB3
:1045A200004552524F52205354415455533A2045DC
:1045B20052525F535F4F4B0A0D004D4541535552C6
:1045C2004520534552564F2043616C6962726174B3
:1045D200696F6E2076616C7565203D2025640A0046
:1045E200534552564F3A20696E69740A0053455238
:1045F200564F5F44454C415945445F4F50454E200C
:1046020025640A00534552564F5F434C4F5345446D
:104612002025640A00534552564F5F4F5050454E75
:1046220045442025640A00534552564F5F5452595F
:104632002025640A00534552564F3A205A65726F3C
:0A4642002074727920636E740A0080
:00000001FF
