S01600006E6F77795F737465726F776E696B2E73726563FC
S11300000C94AA010C94C7010C94C7010C94C70169
S11300100C94C7010C94C7010C94C7010C94C7013C
S11300200C94C7010C94C7010C9416150C94C701C9
S11300300C94C7010C9410160C9441160C94C7012F
S11300400C94C7010C94C7010C94C7010C94C7010C
S11300500C94C701BC06C306C606CC06D206D70656
S1130060DD06E406E806F0063F073F073F073F07C3
S11300703F073F073F073F073F073F073F073F074C
S11300803F073F073F073F073F073F073F073F073C
S11300903F073F073F073F073F073F073F073F072C
S11300A03F073F073F073F073F073F073F073F071C
S11300B03F073F073F073F073F073F073F073F070C
S11300C03F073F073F073F073F073F073F073F07FC
S11300D03F073F073F073F073F073F073F073F07EC
S11300E03F073F073F073F073F073F073F073F07DC
S11300F03F073F073F073F073F073F073F073F07CC
S11301003F073F073F073F073F073F073F073F07BB
S11301103F073F073F07F706FE06040709070F07D7
S113012015073F073F073F073F073F072E073F07D6
S11301303F071D0722073F071A0728073F073F0706
S11301403F073F073F073F073F073F073F073F077B
S11301503F073F073F073F073F073F073F073F076B
S11301603F073F073F073F073F073F073F073F075B
S11301703F073F073F073F073F073F073F073F074B
S11301803F073F073F073F073F073F073F073F073B
S11301903F073F073F073F073F073F073F073F072B
S11301A03F073F073F073F073F073F073F073F071B
S11301B03F073F073F073F073F073F073F073F070B
S11301C03F073F073F073F073F073F073F073F07FB
S11301D03F073F073F073F073F073F073F073F07EB
S11301E03F073F073F073F073F073F073F073F07DB
S11301F03F073F073F073F073F073F073F073F07CB
S11302003F073F073F073F073F073F073F073F07BA
S11302103F073F073F073F073F073F073F073F07AA
S11302203F073F073F073F073F073F073F073F079A
S11302303F073F073F073F073F073F073F073F078A
S11302403F073F0732073E073C073A0738073607A0
S113025034076E616E00696E660000407A10F35ACE
S113026000A0724E18090010A5D4E80000E87648F2
S1130270170000E40B54020000CA9A3B000000E19E
S1130280F505000080969800000040420F00000031
S1130290A08601000000102700000000E803000011
S11302A000006400000000000A00000000000100DB
S11302B0000000002C76D888DC674F0823DFC1DFFC
S11302C0AE59E1B1B796E5E3E453C63AE6519976FF
S11302D096E8E6C28426EB898C9B62ED407C6FFC39
S11302E0EFBC9C9F40F2BAA56FA5F490055A2AF77B
S11302F05C936B6CF9676DC11BFCE0E40D47FEF584
S113030020E6B500D0ED902E0300943577050080EB
S1130310841E080000204E0A000000C80C3333334A
S1130320330F986E12831141EF8D2114893BE655EA
S113033016CFFEE6DB18D1844B381BF77C1D901DCD
S1130340A4BBE424203284725E228100C9F124EC2F
S1130350A1E53D2711241FBECFE5D8E0DEBFCDBF08
S113036012E0A0E6B0E0E4EEFCE302C005900D92DA
S1130370A63BB107D9F725E0A6EBB2E001C01D9278
S1130380AD33B207E1F70E94F8010C94701E0C948F
S11303900000CF93DF93CDB7DEB7AE014B5F5F4F65
S11303A0FA0161917191AF0184E294E00E94F61D1B
S11303B084E294E00E949316DF91CF9108958C9A81
S11303C08E9ABD9A899A089562E381E00E94591534
S11303D00E9473060E94870488E090E00E946816D9
S11303E00E943E130E94350E80B78B7F80BF089514
S11303F00E94DF0178940E94E40187E790E09F93D4
S11304008F930E94C9010F900F900E945A080E9476
S1130410B6090E94DD030E94F8130E94AB14809178
S113042022040E94F705809123040E94C4100E94B4
S113043011050E94890A0E94F70D0E94530E0E9422
S113044042020E948B020E949E04DFCF83E00E943E
S11304501D0FBC01660F771F660F771F860F971F4E
S1130460BC0180E090E00E94BC1726E636E646EB2D
S113047050E40E946E1820E030E040E85AE30E9405
S11304806E1808954091390550913A0560913B05E5
S113049070913C058091BB029091BC02A091BD0279
S11304A0B091BE0284179507A607B70798F583E0B5
S11304B00E941D0F893522E0920718F021E0209355
S11304C0BF028B3821E0920718F422E02093BF0288
S11304D08E3521E0920718F423E02093BF028C5854
S11304E091408C3C910510F41092BF028091390523
S11304F090913A05A0913B05B0913C058C599F4FD2
S1130500AF4FBF4F8093BB029093BC02A093BD0238
S1130510B093BE0208954091390550913A05609117
S11305203B0570913C058091B7029091B802A0916F
S1130530B902B091BA0284179507A607B70708F065
S113054086C08091BF028130E9F030F0823099F1A9
S1130550833009F467C00895C5988091B7029091DB
S1130560B802A091B902B091BA0288539F4FAF4F1D
S1130570BF4F8093B7029093B802A093B902B0938F
S1130580BA02089598B380E2892788BB8091B702A4
S11305909091B802A091B902B091BA0286509F4FCF
S11305A0AF4FBF4F8093B7029093B802A093B902A4
S11305B0B093BA0208958091B602811119C081E006
S11305C08093B602C59A8091B7029091B802A09127
S11305D0B902B091BA028C509E4FAF4FBF4F809377
S11305E0B7029093B802A093B902B093BA020895E7
S11305F0813069F51092B602C5988091B702909146
S1130600B802A091B902B091BA0284529A4FAF4F86
S1130610BF4F8093B7029093B802A093B902B093EE
S1130620BA020895C59A8091B7029091B802A09138
S1130630B902B091BA0288519C4FAF4FBF4F80931B
S1130640B7029093B802A093B902B093BA02089586
S1130650379897B1987F8770892B87B9379A08950F
S1130660369A3699FECF84B195B108950E94280335
S11306700E9430030895DC011696ED91FC911797C2
S1130680208130E0F90118960C9002C0F595E795A9
S11306900A94E2F7CF0181700895E1EDF4E0148249
S11306A081E0858314861386128611861686158644
S11306B026E330E03783268392E09087E4EAF4E08F
S11306C014828583148613861286118616861586EF
S11306D0378326838087E3EBF4E0148285831486D2
S11306E0138612861186168615863783268396E02E
S11306F09087E1E9F4E014828583148613861286D8
S113070011861686158640E350E05783468393E0AE
S11307109087E2E8F4E014828583148613861286B7
S1130720118616861586378326839087E2ECF4E0DB
S1130730148285831486138612861186168615867E
S113074069E370E077836683A4E0A087E0EEF4E0D9
S1130750148285831486138612861186168615865E
S113076043E350E0578346838087EFEEF4E014823E
S1130770858314861386128611861686158637831A
S11307802683A087E4E6F4E0148285831486138626
S11307901286118616861586778366839087E3E72B
S11307A0F4E01482858314861386128611861686D5
S11307B015865783468310860895DF92EF92FF9241
S11307C00F931F93CF93DF934091390550913A05CE
S11307D060913B0570913C058091A0049091A10427
S11307E0A091A204B091A30484179507A607B707A4
S11307F008F085C08091390590913A05A0913B0598
S1130800B0913C054496A11DB11D8093A004909322
S1130810A104A093A204B093A304C0E6D0E00F2ED9
S1130820F4E7EF2EF0E0FF2EF02DDD24D3948E01BB
S1130830888199810E943B03E881F9819581891718
S1130840E1F08583813061F488819981DC01199616
S1130850ED91FC911A97309709F441C009953FC076
S113086081113DC088819981DC011B96ED91FC9139
S11308701C97309721F0099502C0811130C0D8012E
S1130880ED91FC9180819181A281B3810196A11D9A
S1130890B11D80839183A283B383D801ED91FC9130
S11308A080819181A281B3818897A105B10510F15E
S11308B084818130F9F00584F685E02D309719F0B4
S11308C081ED94E00995D801ED91FC911197108286
S11308D0118212821382ED91FC91D4820BC0D80153
S11308E0ED91FC9111971082118212821382ED9185
S11308F0FC9114822296CE15DF0509F098CFDF9182
S1130900CF911F910F91FF90EF90DF9008950E9477
S11309104D03BA98C29AB998C19ABE98C69A8B9850
S1130920939ABB98C39AD498DC9AA198A99ABC9834
S1130930C49AD398DB9AA098A89A0895409139054F
S113094050913A0560913B0570913C058091C40239
S11309509091C502A091C602B091C7028417950771
S1130960A607B70708F059C080912004909121048C
S113097095FF37C08091C0029091C102A091C2023C
S1130980B091C302892B8A2B8B2B59F5C09A809185
S11309902004909121049F7D90932104809320044E
S11309A081E090E0A0E0B0E08093C0029093C102A7
S11309B0A093C202B093C3028091C4029091C50275
S11309C0A091C602B091C7028C599F4FAF4FBF4F41
S11309D08093C4029093C502A093C602B093C70249
S11309E00895C0981092C0021092C1021092C202DF
S11309F01092C3028091C4029091C502A091C602D4
S1130A00B091C702C296A11DB11D8093C4029093F8
S1130A10C502A093C602B093C7020895B89AC098BD
S1130A2008954091390550913A0560913B057091C4
S1130A303C058091C8029091C902A091CA02B0916C
S1130A40CB0284179507A607B70708F054C0809116
S1130A500105813009F04FC080911505873031F4CC
S1130A606091FE0481E195E00E94BC07809110052D
S1130A70873031F46091FF048CE095E00E94BC075C
S1130A8080911505883049F580911005883029F545
S1130A908091390590913A05A0913B05B0913C05B0
S1130AA088519C4FAF4FBF4F8093C8029093C902A7
S1130AB0A093CA02B093CB0283E78093240581E616
S1130AC08093180580E780931605109222058AE02A
S1130AD080931505809310050895809115058A303B
S1130AE051F4809110058A3031F41092150510925A
S1130AF010051092010508958EE990E09F938F935D
S1130B000E94C90186E095E00E94851581E08093EA
S1130B100205949815BC8F9A979A0F900F90089598
S1130B201092020515BC979A949808959091020525
S1130B30925021E030E0933010F020E030E0C90121
S1130B4008950E949605009799F08CEA90E09F938F
S1130B508F930E94C90115BC979A9498E2E0F5E03E
S1130B608081818381E080830F900F9081E090E009
S1130B700895809102058130D9F4949A85B58063F3
S1130B8085BD85B5806485BD85B5816085BDE2E0A0
S1130B90F5E08081818384E0808348EE53E060E067
S1130BA070E086E095E00E948D1581E090E0089564
S1130BB080E090E008958091050590E008958AEB27
S1130BC090E09F938F930E94C9010E94A10585E044
S1130BD0809302050F900F9008950E949605009748
S1130BE029F083E08093020581E090E00895CF939B
S1130BF0C82F46E950E060E070E08CEC92E00E947F
S1130C00D915892B09F458C0909102059330E9F065
S1130C1028F49130B9F0923041F04EC0943009F488
S1130C2048C0953009F442C047C0C09305052DEC77
S1130C30C29FC001112463E670E00E94581C6E5CE0
S1130C4063BD3AC01092050537C0C33378F484E11C
S1130C508C0F809305052DEC829FC001112463E65F
S1130C6070E00E94581C6E5C63BD26C08DEC8C0F36
S1130C70843178F48FE08C0F809305052DEC829FEE
S1130C80C001112463E670E00E94581C6E5C63BDD1
S1130C9013C0C09305052DECC29FC001112463E667
S1130CA070E00E94581C6E5C63BD06C015BC979A28
S1130CB003C082E080930205CF910895AE9AAD9A65
S1130CC0DD9ADF9ADE9AAA9AAF9A0895929A1092C0
S1130CD01905C79A10922505AC9A10921705AB9A7C
S1130CE0109223050895A69AA59AD59AD79AD69ACA
S1130CF0A29AA79A8A9AEAE1F5E088E195E09183BD
S1130D008083BF9A24E235E033832283A1E1B5E0F6
S1130D1011963C932E9313969C938E931297A49AB8
S1130D2026E135E035832483A39A82E295E0978314
S1130D308683ECE0F5E031832083938382830E94F1
S1130D4066060E945E060895CF93DF93FC0130810E
S1130D5020917400321709F495C0EC010E945E06DC
S1130D60E8818E2F90E08F3F910508F088C0FC0148
S1130D70E65DFF4F0C946C1CAE98AD98DD98DF983F
S1130D80DE98AA987CC0AD98DD9879C0AE98AD98ED
S1130D90AF98DE98DF9873C0AE98AD98AF98DD98A1
S1130DA0DF986DC0AA98AF98AD98DD9868C0AE98EA
S1130DB0AA98AF98DD98DF9862C0AE98AA98AF98C9
S1130DC0DD98DF98DE985BC0AE98AD98DD9857C08B
S1130DD0AE98AD98DD98DF98DE98AA98AF984FC08A
S1130DE0AE98AD98DD98DF98AA98AF9848C0AE98B1
S1130DF0AD98DD98DE98AA98AF9841C0DD98DF9849
S1130E00DE98AA98AF983BC0AE98DF98DE98AA986F
S1130E1036C0AD98DD98DF98DE98AF9830C0AE98B4
S1130E20DF98DE98AA98AF982AC0AE98DE98AA9860
S1130E30AF9825C0DE98AF9822C0DD98DF98DE9881
S1130E40AF981DC0AE98AD98DE98AA98AF9817C019
S1130E50AE98DD98DF98AA98AF9811C0DF98DE9815
S1130E60AA980DC0AF980BC0AA9809C0DE9807C015
S1130E70DF9805C0DD9803C0AD9801C0AE988881A5
S1130E8080937400DF91CF910895CF93DF93EC01A9
S1130E900E946606CE010E94A40685E0C831D807E8
S1130EA029F4929881E08093190519C085E0C43231
S1130EB0D80729F4C79881E08093250510C085E000
S1130EC0C631D80729F4AC9881E08093170507C090
S1130ED0C252D54021F4AB9881E080932305DF9181
S1130EE0CF910895EF92FF921F93CF93DF93FC016C
S1130EF0C081D1812196D183C0839E01ADECBCEC2D
S1130F000E94721C969587959695879596958795D8
S1130F109C01220F331F880F991F880F991F880F78
S1130F20991F820F931FC817D90701F57F011091EC
S1130F30D102143058F4E12FF0E0EE0FFF1FE65E0B
S1130F40FA4F808191810E94450702C00E94660683
S1130F501F5F153019F01093D10202C01092D10214
S1130F60C039D14019F4F70111821082DF91CF9179
S1130F701F91FF90EF900895FC016436F8F461111D
S1130F8008C0A081B1811C920280F381E02D1082FF
S1130F900895A081B1819DEC699F912D11249695AE
S1130FA0969596959C930280F381E02D892F880F66
S1130FB0982F990F990F890F681B60830895FC017E
S1130FC060830895813039F018F0823039F0089543
S1130FD06093ED0208956093EC0208956093EC022F
S1130FE06093ED020895882319F0813029F008C038
S1130FF08091150590E008958091100590E0089582
S11310008FEF9FEF089580911505863021F480912C
S113101026058093150580911005863021F4809172
S113102027058093100508958130A1F018F08230CF
S113103009F10895663021F4809115058093260501
S113104080911505863019F4609326050895609300
S113105015050895663021F48091100580932705C5
S113106080911005863019F46093270508956093E4
S113107010050895663041F4809115058093260586
S1131080809110058093270580911505863029F4F9
S11310906093270560932605089560931505609372
S11310A01005089595E0909315059093100580938D
S11310B0E70208958091390590913A05A0913B0586
S11310C0B0913C054091D6025091D7026091D8026C
S11310D07091D902481759076A077B0708F026C19F
S11310E080911505833009F459C030F4882309F43C
S11310F087C0813039F18EC0853009F474C048F15D
S1131100863009F087C00E94260220E030E048ECD7
S113111052E40E946E180E9486177093E602609350
S1131120E5029B013695279536952795ABE7B4E103
S11311300E94721C96958795682F81E195E00E9424
S1131140BC0768C06091ED0281E195E00E94BC0794
S113115061C080911005843031F081E080931505E1
S11311608093100557C048515C4F6F4F7F4F409399
S1131170D6025093D7026093D8027093D90283E7C2
S11311808093240581E68093180580E780931605F3
S113119081E08093150580931005089580911005D2
S11311A0833031F081E0809315058093100532C0BF
S11311B048515C4F6F4F7F4F4093D6025093D702F4
S11311C06093D8027093D9028CE6809324058FE64D
S11311D08093180580E78093160581E080931505B8
S11311E08093100517C085E68093240582E78093D9
S11311F018056091E7028CE095E00E94BC070AC0E4
S113120068EF88E195E00E94DF0768EF84E295E0EB
S11312100E94DF0780911005813019F148F1863072
S113122019F08D3081F16FC04091E5025091E602D2
S11312309A013695279536952795ABE7B4E10E9438
S1131240721C9695879564E6689F9001699F300D9E
S11312501124BA01621B730B8CE095E00E94BC0759
S113126052C06091EC028CE095E00E94BC074BC038
S113127068EF86E195E00E94DF0768EF82E295E07F
S11312800E94DF0740C044EF51E060E070E080EE70
S113129092E00E94D915892BB1F18091DF0281116E
S11312A00EC081E08093DF0267EF86E195E00E9443
S11312B0DF0767EF82E295E00E94DF0724C0109207
S11312C0DF028091DB029091DC02A091DD02B091FB
S11312D0DE020097A105B10529F461E081E00E94D6
S11312E0140811C00197A109B1098093DB029093FE
S11312F0DC02A093DD02B093DE026091DA028CE09E
S113130095E00E94BC078091D6029091D702A091EB
S1131310D802B091D902C296A11DB11D8093D60204
S11313209093D702A093D802B093D90208950F9353
S11313301F930091390510913A0520913B05309196
S11313403C05DC01CB01800F911FA21FB31F8093CA
S1131350E8029093E902A093EA02B093EB0262E000
S1131360842F0E9414081F910F91089580911505F0
S1131370823029F080911005823009F078C04091C4
S1131380390550913A0560913B0570913C05809177
S1131390D2029091D302A091D402B091D5028417C5
S11313A09507A607B70708F062C0809139059091A8
S11313B03A05A0913B05B0913C0581559F4FAF4F35
S11313C0BF4F8093D2029093D302A093D402B093E0
S11313D0D50280911505823061F46091760088E130
S11313E095E00E94DF076091760084E295E00E9418
S11313F0DF0780911005823061F46091750086E109
S113140095E00E94DF076091750082E295E00E94FA
S1131410DF074091390550913A0560913B05709181
S11314203C058091E8029091E902A091EA02B09112
S1131430EB0284179507A607B70728F461E082E05A
S11314400E941408C598909176009F5F909376004F
S1131450809175008150809375009F3F19F499EF36
S113146090937600883F19F48EEF80937500089569
S1131470E199FECF9FBB8EBB6DBBE29AE19A0895C2
S1131480E199FECF9FBB8EBBE09A8DB30895CF93B5
S1131490C82F8091200490912104826090932104AC
S11314A0809320048C2F0E9452080E94DF050E9422
S11314B0E90F0E941315C0932805CF910895109247
S11314C0040310920303109202031092FC02109280
S11314D0FD0285E093E00E94CF1587EF92E00E9421
S11314E0CF15109228050895109204031092030357
S11314F0109202031092FC021092FD0285E093E028
S11315000E94CF1587EF92E00E94CF151092280514
S11315100895CF92DF92EF92FF92CF93DF934091A1
S1131520390550913A0560913B0570913C058091D5
S1131530F3029091F402A091F502B091F60284179F
S11315409507A607B70708F04BC38091200480FFD6
S113155047C34091390550913A0560913B0570911C
S11315603C054C505E4F6F4F7F4F4093F3025093B6
S1131570F4026093F5027093F60281FD31C30E9478
S1131580DB05EC010E9426026B017C0120E030E0C7
S113159040E151E40E940F17882344F40F2EC12C1C
S11315A0D12CF0E1EF2EF1E4FF2EF02DCE010A97BD
S11315B0059778F520E030E040E151E4C701B60139
S11315C00E94A2166B017C01BE0180E090E00E94A3
S11315D0BC179B01AC01C701B6010E946E1820E044
S11315E030E040EC50E40E9414176B017C01BE0112
S11315F0660F771F6F50710980E090E00E94BC175E
S11316009B01AC01C701B6010E94A3160E948D176D
S113161000C1CE010F970A9778F520E030E040E151
S113162051E4C701B6010E94A2166B017C01BE0100
S113163080E090E00E94BC179B01AC01C701B60199
S11316400E946E1820E030E040EC50E40E94141731
S11316506B017C01BE016A507048660F771F80E001
S113166090E00E94BC179B01AC01C701B6010E9427
S1131670A3160E948D17CDC0CE0149970F9778F518
S113168020E030E040E151E4C701B6010E94A21617
S11316906B017C01BE0180E090E00E94BC179B01BD
S11316A0AC01C701B6010E946E1820E030E040ECA6
S11316B050E40E9414176B017C01BE01660F771F72
S11316C06951710980E090E00E94BC179B01AC0154
S11316D0C701B6010E94A3160E948D179AC0CE01BD
S11316E088970A9778F520E030E040E151E4C7019B
S11316F0B6010E94A2166B017C01BE0180E090E05D
S11317000E94BC179B01AC01C701B6010E946E1870
S113171020E030E040EC50E40E9414176B017C019F
S1131720BE0165507048660F771F80E090E00E940C
S1131730BC179B01AC01C701B6010E94A3160E940D
S11317408D1767C0CE01C297449778F520E030E04A
S113175040E151E4C701B6010E94A2166B017C016D
S1131760BE0180E090E00E94BC179B01AC01C70160
S1131770B6010E946E1820E030E040EC50E40E9474
S113178014176B017C01BE016B5F7F4F660F771FDF
S113179080E090E00E94BC179B01AC01C701B60138
S11317A00E94A3160E948D1734C0C634D10578F167
S11317B020E030E040E151E4C701B6010E94A216E6
S11317C06B017C01BE0180E090E00E94BC179B018C
S11317D0AC01C701B6010E946E1820E030E040EC75
S11317E050E40E9414176B017C01BE01665F7F4FB9
S11317F0660F771F80E090E00E94BC179B01AC014C
S1131800C701B6010E94A3160E948D1702C06AE0A8
S113181070E06C597F4F709301036093000380E084
S11318200E941D0FEC010E9426029F938F937F93C9
S11318306F93809101038F93809100038F93DF93C3
S1131840CF9389EC90E09F938F930E94C9018DB749
S11318509EB70A960FB6F8949EBF0FBE8DBF8091B7
S11318600003909101038C179D07B0F481E08093ED
S1131870020380910403823009F484C030F4882385
S1131880F1F0813009F448C0FFC0833009F48DC001
S1131890843009F48EC0F8C01092020380910403CE
S11318A0823009F4C0C020F4813009F49EC0ECC039
S11318B0833009F4D5C0843009F4D6C0E5C081E092
S11318C08093040382EF90E09F938F930E94C90159
S11318D00E94DB052EE1AC01249FC001259F900DE1
S11318E0112448E853E1EA01C81BD90BDF93CF93D5
S11318F08DE091E09F938F930E94C901AE0160E057
S113190070E085E093E00E948D150F900F900F908A
S11319100F900F900F90B8C085E093E00E94AF1530
S1131920892B09F4B1C00E94ED050E94DB052EE16C
S1131930AC01249FC001259F900D112448E853E178
S1131940EA01C81BD90BDF93CF938CE291E09F93FC
S11319508F930E94C901AE0160E070E085E093E0DE
S11319600E948D1582E08093040380E591E09F93AB
S11319708F930E94C9010F900F900F900F900F90BA
S11319800F9082C085E093E00E94AF15892B09F483
S11319907BC083E08093040380E791E09F938F935F
S11319A00E94C9010F900F906FC081E00E94470A06
S11319B06BC085E093E00E94AF15892B09F464C0E5
S11319C040ED57E060E070E085E093E00E948D1503
S11319D080910303809304038CE891E09F938F9399
S11319E00E94C9010F900F904FC085E093E00E94C0
S11319F0AF15892B09F448C040ED57E060E070E072
S1131A0085E093E00E948D1584E08093040381E0D7
S1131A108093030383EB91E09F938F930E94C9010A
S1131A200F900F9031C085E093E00E94AF15892B91
S1131A3059F140ED57E060E070E085E093E00E94EA
S1131A408D1584E08093040382E08093030383EB89
S1131A5091E09F938F930E94C9010F900F9014C03F
S1131A6081E00E94470A10C085E093E00E94AF1510
S1131A70892B51F08EEC91E09F938F930E94C901C2
S1131A80109204030F900F9084E690E09093FF026D
S1131A908093FE0281E00E941D0F2091FE0230918E
S1131AA0FF0228173907D8F43F932F9387EE91E06C
S1131AB09F938F930E94C90181E08093FC020F9051
S1131AC00F900F900F908091FD02813051F1A8F09A
S1131AD0823009F44BC0833009F451C081C01092A4
S1131AE0FC028091FD02823009F466C0833009F45F
S1131AF074C0813009F074C046C081E08093FD0257
S1131B008EEF91E09F938F930E94C90144EF51E0BF
S1131B1060E070E087EF92E00E948D150F900F90C7
S1131B205FC087EF92E00E94AF15892B09F458C07B
S1131B300E945610049724F083E08093FD0250C065
S1131B404CED55E060E070E087EF92E00E948D1567
S1131B5082E08093FD020E944A1089E192E09F9303
S1131B608F930E94C9010F900F903AC087EF92E0C3
S1131B700E94AF15892BA1F11092FD0231C082E0C1
S1131B800E94470A2DC087EF92E00E94AF15892B6F
S1131B9039F140ED57E060E070E087EF92E00E9499
S1131BA08D151092FD0283E392E09F938F930E9420
S1131BB0C9010F900F9014C087EF92E00E94AF15F7
S1131BC0892B71F01092FD0283E392E09F938F932F
S1131BD00E94C9010F900F9003C082E00E94470A3F
S1131BE0DF91CF91FF90EF90DF90CF9008954EE575
S1131BF051E060E070E08EEE92E00E94D915892BEE
S1131C0009F180912805813071F492B380E189272C
S1131C1082BB8091200490912104906290932104CE
S1131C20809320040895823069F492B380E4892774
S1131C3082BB8091200490912104906290932104AE
S1131C40809320040895FC0120813181623058F092
S1131C50329691E041915191240F351F3695279585
S1131C609F5F6913F7CFC9010895EAE4F3E022E71F
S1131C7033E081EF91E0819391932E173F07D9F7D9
S1131C80E9E2F3E087E493E0119211928E179F0743
S1131C90D9F7E1E1F3E085E293E0119211928E1716
S1131CA09F07D9F70895CF92DF92EF92FF92CF93D7
S1131CB0DF934091390550913A0560913B0570914D
S1131CC03C0580910A0390910B03A0910C03B09101
S1131CD00D0384179507A607B70708F0A7C08091DE
S1131CE0390590913A05A0913B05B0913C05C29607
S1131CF0A11DB11D80930A0390930B03A0930C03C1
S1131D00B0930D0380E00E943603EC016091470319
S1131D107091480380E090E00E94BC1721E73DE306
S1131D204AE85EE30E946E186B017C01BE0180E00C
S1131D3090E00E94BC179B01AC01C701B6010E9450
S1131D40A3160E948D1770937503609374032091FA
S1131D507603E22FF0E0EE0FFF1FE65BFC4F71838A
S1131D60608381E0820F8093760382E00E943603D1
S1131D709093280380932703E0914903F0E0EE0F4A
S1131D80FF1FE75DFC4F9183808381E00E9436034F
S1131D90883522E0920728F410920F0310920E0364
S1131DA006C08855924090930F0380930E03C09110
S1131DB01003EC2FF0E0EE0FFF1FEF5EFC4F80915D
S1131DC00E0390910F0391838083D0914903DF5FC9
S1131DD0D0934903CF5FC093100364E18AE493E096
S1131DE00E94230E90937303809372036FE089E241
S1131DF093E00E94230E90934803809347036AE084
S1131E0081E193E00E94230E90932603809325039F
S1131E1080917603843111F410927603CA3011F460
S1131E2010921003DF3011F410924903DF91CF9127
S1131E30FF90EF90DF90CF900895833018F48130B5
S1131E4040F00CC0833079F4809172039091730355
S1131E500895809147039091480308958091250344
S1131E6090912603089580E090E00895EF92FF9208
S1131E700F931F93CF938B01823059F028F488235A
S1131E8091F0813019F130C0833029F1843031F080
S1131E902BC022E030E084E090E021C023E030E079
S1131EA088E090E01CC06894EE24E1F8F12CC0E0D6
S1131EB0F80161918F018C2F90E00E94380ACF5F66
S1131EC08C2F90E08E159F059CF30EC022E030E02D
S1131ED082E090E004C022E030E086E090E0C82F89
S1131EE07901E80EF91EE4CFCF911F910F91FF9075
S1131EF0EF900895EF92FF920F931F93CF938B016E
S1131F00823059F028F4882391F0813019F130C0DF
S1131F10833029F1843031F02BC022E030E084E0BA
S1131F2090E021C023E030E088E090E01CC0689499
S1131F30EE24E1F8F12CC0E08C2F90E00E94400ADE
S1131F40F80181938F01CF5F8C2F90E08E159F0550
S1131F509CF30EC022E030E082E090E004C022E076
S1131F6030E086E090E0C82F7901E80EF91EE4CF56
S1131F70CF911F910F91FF90EF900895811105C0AB
S1131F808CE697E09BBD8ABD0895823390F490E07F
S1131F9022273327281B390B220F331F220F331F0D
S1131FA0220F331F820F931F885F984F9BBD8ABDFA
S1131FB00895843668F490E0C297880F991F880FBB
S1131FC0991F2AEA35E0A901481B590B5BBD4ABD9C
S1131FD0089580E00E94BE0F969885E080932905BD
S1131FE00895CF93DF932FE13EE437BD26BD81B33F
S1131FF0806381BB19BC18BC1BBC1ABC8FB5826042
S11320008FBD8EB588618EBD8FB580688FBD8EB54E
S113201082608EBD3BBD2ABD9698C9E2D5E081E0C1
S113202088831B828DE295E00E94851519861092A3
S11320308B038CE492E09F938F930E94C9010F90CD
S11320400F90DF91CF91089590912905925021E04E
S113205030E0923010F020E030E0C9010895909112
S113206029059130A1F4E9E2F5E093E090838383BC
S11320701F928F9389E592E09F938F930E94C901E9
S11320800F900F900F900F9081E090E0089580E002
S113209090E00895809129059FEF980F923028F4DD
S11320A0E9E2F5E0818384E080830895809132053C
S11320B090E008950E9424100097C1F080E00E94EF
S11320C0BE0FE9E2F5E081E0808313821F921F9244
S11320D080E792E09F938F930E94C90196980F9096
S11320E00F900F900F9081E090E0089520912905C2
S11320F0243021F40E947F1081E090E008958091C3
S11321002A05823029F4809329050E945A1009C0B7
S1132110813071F4E9E2F5E082E0808383810E94FA
S1132120991010928B03E9E2F5E081858F5F818736
S11321300895CF93C82F809129059FEF980F93306E
S1132140C0F4E9E2F5E082E08083C3838C2F0E942F
S1132150BE0F1F92CF9381E892E09F938F930E94CA
S1132160C901969A0F900F900F900F9081E090E024
S113217009C0843029F40E947F1081E090E002C0FD
S113218080E090E0CF910895CF93DF93C82F4BE484
S113219050E060E070E086E893E00E94D915892B56
S11321A009F4B6C0809129058430A1F030F482305E
S11321B059F0833009F461C09BC0853009F477C0BD
S11321C0863009F491C094C0C0932C058C2F0E94D2
S11321D0BE0F8EC080918B03811113C044E650E082
S11321E060E070E081E893E00E948D1580918B039C
S11321F08F5F80938B0390912C05890F0E94BE0FF3
S113220028C081508930C8F481E893E00E94AF155A
S11322100197F9F444E650E060E070E081E893E06F
S11322200E948D1580918B038F5F80938B03909117
S11322302C05890F0E94BE0F0CC010928B03C9E2BB
S1132240D5E08B810E94BE0F8981888389858F5F49
S1132250898720912C0580918B0390E0820F911D3A
S11322609F938F9383E992E09F938F930E94C90178
S11322700F900F900F900F903BC08CE793E00E945B
S1132280A515892B59F08CE793E00E94AF150197AF
S113229079F582E080932905969A2AC040ED57E0AB
S11322A060E070E08CE793E00E948D1521C087E721
S11322B093E00E94A515892B71F087E793E00E94B3
S11322C0AF150197A9F486E0809329058FE19EE478
S11322D09BBD8ABD0DC040ED57E060E070E087E72C
S11322E093E00E948D1504C08FE19EE49BBD8ABDDE
S11322F08DE295E00E94AF15019751F410923205DA
S113230081EA92E09F938F930E94C9010F900F90EE
S1132310DF91CF910895E1EDF4E0168615861286DB
S1132320118614861386E4EAF4E01686158612866E
S11323301186148613861092BF041092BE04E2E83C
S1132340F4E0168615861486138612861186E2EC4E
S1132350F4E016861586148613861286118610926A
S1132360EC041092EB04EFEEF4E014861386168668
S1132370158612861186E4E6F4E014861386168622
S1132380158612861186E3E7F4E014861386168612
S1132390158612861186089580919403823049F03F
S11323A0809120049091210498609093210480935B
S11323B02004089580919403823049F08091200490
S11323C090912104806890932104809320040895BF
S11323D08091200490912104926090932104809331
S11323E0200408958091200490912104997F909372
S11323F02104809320041092950308958091200471
S11324009091210480629093210480932004089584
S113241080912004909121048F79909321048093DA
S11324202004109295030895809120049091210432
S113243090629093210480932004809123048B3034
S113244018F08150809323046091230481E00E945A
S1132450E20761E082E00E9414080895809120045C
S113246090912104906290932104809320048091A0
S11324702304833618F48F5F80932304609123042C
S113248081E00E94E20761E082E00E94140808955E
S11324908091200490912104906290932104809370
S11324A02004809122048B3018F081508093220400
S11324B06091220480E00E94E20780E00E94F3071A
S11324C0029729F461E082E00E94140804C061E0EC
S11324D080E00E941408809194038F5F809394039A
S11324E0823019F466E00E94140808958091200453
S11324F09091210490629093210480932004809110
S11325002204833618F48F5F80932204609122049E
S113251080E00E94E20780E00E94F307029729F41A
S113252061E082E00E94140804C061E080E00E943F
S11325301408809194038F5F80939403823019F47C
S113254066E00E94140808950E9403088091200404
S113255090912104977E90932104809320041092FB
S1132560950380919403882319F0815080939403F8
S113257080E00E94F307029729F461E082E00E9460
S11325801408089561E080E00E94140808950E94F0
S1132590030880912004909121048F779E7F90936B
S11325A0210480932004109295038091940388233E
S11325B019F081508093940380E00E94F3070297FE
S11325C029F461E082E00E941408089561E080E04B
S11325D00E9414080895E5E3F5E0809122048083C5
S11325E0809123048183BF0183E00E94360F089504
S11325F0809120049091210490629093210480930F
S11326002004809122048A3038F48AE080932204E2
S11326106AE080E00E94E2070E94EB120E949605A5
S1132620892B39F40E94B905809123040E942F104C
S113263008950E94A1050E945A10089580912004D3
S113264090912104906290932104809320048091BE
S113265023048A3038F48AE0809323046AE081E01A
S11326600E94E2070E942410892B19F00E945A103C
S11326700895809123040E949910089583EE93E1B4
S113268090939B0480939A0460E082E00E94140873
S113269063E375E083E00E947A0F8091340596EF3E
S11326A0980F9A3510F4809323048091330596EFA4
S11326B0980F9A3510F4809322040895109294038D
S11326C042E068EE73E080E090E00E9497090E9487
S11326D07C0580E00E94F10F0E945F0A0E94350E83
S11326E00E940E0581E090E09093210480932004E1
S11326F0E1EDF4E08CEC91E19687858788E492E142
S11327009487838784EA92E192878187E4EAF4E0FC
S11327108AED91E19687858786E792E1948783879E
S113272087EC92E19287818788EF92E19093BF04CE
S11327308093BE04E2E8F4E088EE91E19687858711
S113274082EF91E19287818784E192E19487838784
S1132750E2ECF4E08EEF91E19687858788E092E1E0
S1132760928781878EE292E1948783878EE193E159
S11327709093EC048093EB046091220480E00E9427
S1132780E2076091230481E00E94E2070895109219
S113279094030E9490050E948B110E94740A0E9467
S11327A05A10109221041092200460E082E00E94EA
S11327B0140880912004909121048E7F9093210429
S11327C08093200408950E94EB128091200480FFDE
S11327D003C00E94C71302C00E945E1380912004AC
S11327E09091210490629093210480932004089591
S11327F04091390550913A0560913B0570913C0533
S113280080918C0390918D03A0918E03B0918F03DE
S113281084179507A607B70708F09CC08091200489
S113282085FF1DC0609123046336C8F46F5F609315
S1132830230481E00E94E207809198038F5F8093D4
S113284098038F3060F080912004909121048F7D53
S113285080649093210480932004109298038091C3
S113286020049091210491FF1DC0609123046623EC
S1132870C9F061506093230481E00E94E2078091D3
S113288097038F5F809397038F3060F080912004CB
S1132890909121049D7F946090932104809320045F
S11328A0109297038091200487FF1DC06091220439
S11328B06336C8F46F5F6093220480E00E94E207ED
S11328C0809196038F5F809396038F3060F08091A0
S11328D02004909121048F77916090932104809338
S11328E0200410929603809120049091210493FF78
S11328F01DC0609122046B30C8F0615060932204C3
S113290080E00E94E207809195038F5F8093950396
S11329108F3060F08091200490912104977F906122
S113292090932104809320041092950380918C034A
S113293090918D03A0918E03B0918F03805B9F4F84
S1132940AF4FBF4F80938C0390938D03A0938E035E
S1132950B0938F0308954091390550913A056091E1
S11329603B0570913C058091900390919103A09157
S11329709203B091930384179507A607B70708F04D
S113298051C060912304633650F48091200486FF83
S113299006C06F5F6093230481E00E94E2076091A8
S11329A02304662361F0809120049091210492FF16
S11329B006C061506093230481E00E94E2076091A5
S11329C02204633660F4809120049091210490FFE6
S11329D006C06F5F6093220480E00E94E20760916A
S11329E022046B3060F0809120049091210494FFC4
S11329F006C061506093220480E00E94E207809147
S1132A00900390919103A0919203B09193034E96F9
S1132A10A11DB11D8093900390939103A093920301
S1132A20B093930308950E948B1108951F920F92FF
S1132A300FB60F9211242F933F934F935F936F938D
S1132A407F938F939F93AF93BF93EF93FF93E7E3AA
S1132A50F5E080819181C296918380838081918108
S1132A60883E934088F082819381A481B581019648
S1132A70A11DB11D82839383A483B5838081918139
S1132A80885E93409183808389E993E00E94720772
S1132A90FF91EF91BF91AF919F918F917F916F9132
S1132AA05F914F913F912F910F900FBE0F901F9008
S1132AB0189593B7986093BF6CBF823099F028F44F
S1132AC0882341F0813051F019C0833079F084308B
S1132AD089F014C083B7816083BF13C083B7826059
S1132AE083BF0FC083B7836083BF0BC083B7846089
S1132AF083BF07C083B7856083BF03C083B781608A
S1132B0083BF89B7826089BF089523E0FC012483D1
S1132B10108211821282138208950F931F9321E071
S1132B20FC0124830091390510913A0520913B055D
S1132B3030913C05400F511F621F731F4083518326
S1132B40628373831F910F91089521E030E0FC01AB
S1132B508481813011F020E030E0C9010895FC0146
S1132B6084818130B1F48091390590913A05A09126
S1132B703B05B0913C0540815181628173814817C6
S1132B8059076A077B0740F482E0848381E090E080
S1132B9008958FEF9FEF089580E090E0089521E07D
S1132BA030E0FC018481833011F020E030E0C90181
S1132BB00895CF92DF92EF92FF920F931F93CF93DA
S1132BC0DF93EC016A017B018C81811106C083E0F3
S1132BD08C83188219821A821B82CE010E94AF153F
S1132BE08C01019731F4B701A601CE010E948D1525
S1132BF00DC08C81833041F4B701A601CE010E943F
S1132C008D1500E010E002C000E010E0C801DF9183
S1132C10CF911F910F91FF90EF90DF90CF90089587
S1132C201F920F920FB60F9211242F933F934F933D
S1132C305F938F939F93EF93FF932BB13CB12871D4
S1132C4080919D0390E0019640919C0350E084178D
S1132C50950739F080939D03FC01E056FC4F3083C7
S1132C6001C022E020939B03FF91EF919F918F91EC
S1132C705F914F913F912F910F900FBE0F901F9036
S1132C8018951F920F920FB60F9211248F939F9352
S1132C90EF93FF9390919F0380919E03981771F097
S1132CA080919E0390E001968F77992780939E03ED
S1132CB0FC01E056FC4F80818CB901C05598FF910E
S1132CC0EF919F918F910F900FBE0F901F901895C9
S1132CD0F89410929F0310929E0310929D031092F9
S1132CE09C03789499231CF422E02BB99F7790BD20
S1132CF089B988E98AB986E880BD089540919F031F
S1132D0050E04F5F5F4F4F77552720919E0330E08F
S1132D1042175307D1F3FA01E056FC4F80834093E6
S1132D209F03559A0895CF93DF93EC0188818823FC
S1132D3031F021960E947E1689918111FBCFDF919B
S1132D40CF9108955058BB27AA270E94BA160C9415
S1132D5034180E94261838F00E942D1820F039F4F7
S1132D609F3F19F426F40C9423180EF4E095E7FB26
S1132D700C941D18E92F0E94451858F3BA176207DE
S1132D8073078407950720F079F4A6F50C94671867
S1132D900EF4E0950B2EBA2FA02D0B01B901900172
S1132DA00C01CA01A0011124FF27591B99F0593FB6
S1132DB050F4503E68F11A16F040A22F232F342FFE
S1132DC04427585FF3CF469537952795A795F0404C
S1132DD05395C9F77EF41F16BA0B620B730B840B61
S1132DE0BAF09150A1F0FF0FBB1F661F771F881F19
S1132DF0C2F70EC0BA0F621F731F841F48F4879571
S1132E0077956795B795F7959E3F08F0B0CF939562
S1132E10880F08F09927EE0F9795879508950E94DB
S1132E20F91708F481E008950E9428170C943418C7
S1132E300E942D1858F00E94261840F029F45F3F94
S1132E4029F00C941D1851110C9468180C94231833
S1132E500E94451868F39923B1F3552391F3951B08
S1132E60550BBB27AA2762177307840738F09F5FA7
S1132E705F4F220F331F441FAA1FA9F335D00E2E14
S1132E803AF0E0E832D091505040E695001CCAF781
S1132E902BD0FE2F29D0660F771F881FBB1F261744
S1132EA037074807AB07B0E809F0BB0B802DBF011B
S1132EB0FF2793585F4F3AF09E3F510578F00C94EA
S1132EC01D180C9468185F3FE4F3983ED4F386957C
S1132ED077956795B795F7959F5FC9F7880F911D0B
S1132EE09695879597F90895E1E0660F771F881FF7
S1132EF0BB1F621773078407BA0720F0621B730BAA
S1132F00840BBA0BEE1F88F7E09508950E948D1785
S1132F106894B1110C94681808950E944D1888F0B3
S1132F209F5798F0B92F9927B751B0F0E1F0660F89
S1132F30771F881F991F1AF0BA95C9F714C0B130CA
S1132F4091F00E946718B1E008950C946718672FF8
S1132F50782F8827B85F39F0B93FCCF386957795F9
S1132F606795B395D9F73EF49095809570956195E2
S1132F707F4F8F4F9F4F0895E89409C097FB3EF40D
S1132F8090958095709561957F4F8F4F9F4F9923B2
S1132F90A9F0F92F96E9BB279395F6958795779530
S1132FA06795B795F111F8CFFAF4BB0F11F460FFF0
S1132FB01BC06F5F7F4F8F4F9F4F16C0882311F048
S1132FC096E911C0772321F09EE8872F762F05C05C
S1132FD0662371F096E8862F70E060E02AF09A95F7
S1132FE0660F771F881FDAF7880F9695879597F9EC
S1132FF00895990F0008550FAA0BE0E8FEEF161686
S11330001706E807F907C0F012161306E407F507D8
S113301098F0621B730B840B950B39F40A2661F04C
S1133020232B242B252B21F408950A2609F4A140EF
S1133030A6958FEF811D811D089597F99F6780E8FC
S113304070E060E008959FEF80EC089500240A94F6
S11330501616170618060906089500240A9412166F
S11330601306140605060895092E0394000C11F4A2
S1133070882352F0BB0F40F4BF2B11F460FF04C04F
S11330806F5F7F4F8F4F9F4F089557FD9058440FA8
S1133090551F59F05F3F71F04795880F97FB991FB3
S11330A061F09F3F79F08795089512161306140670
S11330B0551FF2CF4695F1DF08C0161617061806FD
S11330C0991FF1CF86957105610508940895E894D8
S11330D0BB2766277727CB0197F908950E948118AB
S11330E00C9434180E94261838F00E942D1820F0F1
S11330F0952311F00C941D180C94231811240C948E
S113310068180E94451870F3959FC1F3950F50E01D
S1133110551F629FF001729FBB27F00DB11D639F85
S1133120AA27F00DB11DAA1F649F6627B00DA11D2B
S1133130661F829F2227B00DA11D621F739FB00DD1
S1133140A11D621F839FA00D611D221F749F332741
S1133150A00D611D231F849F600D211D822F762FDA
S11331606A2F11249F5750409AF0F1F088234AF0B7
S1133170EE0FFF1FBB1F661F771F881F9150504023
S1133180A9F79E3F510580F00C941D180C94681803
S11331905F3FE4F3983ED4F3869577956795B795AA
S11331A0F795E7959F5FC1F7FE2B880F911D9695C4
S11331B0879597F90895A0E1B0E0E1EEF8E10C9469
S11331C0811C7C011B016A01FC0117821682838128
S11331D081FF44C39E012F5F3F4F3901F701938163
S11331E0F10193FD859193FF81911F01882309F4D7
S11331F031C3853239F493FD859193FF81911F0189
S1133200853239F4B70190E00E94BA1D5601650178
S1133210E5CF10E0512C912CFFE1F915D8F08B3259
S113322079F038F4803279F08332A1F4F92DF06129
S11332302EC08D3261F0803369F4292D21602DC0B8
S1133240392D3260932E892D8460982E2AC0E92D61
S1133250E86015C097FC2DC020ED280F2A3088F4B3
S113326096FE06C03AE0139F200D1124122F19C0B8
S11332708AE0589E200D1124522EE92DE0629E2EE4
S113328010C08E3231F496FCE5C2F92DF0649F2E05
S113329008C08C3621F4292D2068922E02C088366D
S11332A041F4F10193FD859193FF81911F018111F7
S11332B0B3CF9BEB980F933020F4992D9061805EEF
S11332C007C09BE9980F933008F066C1992D9F7E43
S11332D096FF16E09F73992E853619F49064992E03
S11332E008C0863621F4392F3068932E02C011119C
S11332F0115097FE07C01C3350F444244394410EEC
S113330027E00BC0183038F027E017E005C027E0AD
S11333109CE3492E02C0212F412C560184E0A80EC3
S1133320B11CF6016081718182819381042DA30116
S11333300E94CC1C6C01F981FC87F0FF02C0F3FFF2
S113334006C091FC06C092FE06C000E205C00DE274
S113335003C00BE201C000E08C858C7019F00111F0
S11333605AC29BC297FE10C04C0CFC85F4FF04C0EB
S11333708A81813309F44A94141474F528E02415DD
S113338078F588E0482E2CC096FC2AC0812F90E066
S11333908C159D059CF03CEFC3163FEFD30674F0EB
S11333A0892D8068982E0AC0E2E0F0E0EC0FFD1F42
S11333B0E10FF11D8081803319F411501111F4CF04
S11333C097FE0EC044244394410E812F90E0C8160A
S11333D0D9062CF41C1904C04424439401C010E001
S11333E097FE06C01C141D0434F4C601019605C0E2
S11333F085E090E002C081E090E001110196112384
S113340031F0212F30E02F5F3F4F820F931F252D86
S113341030E08217930714F4581A01C0512C892DF7
S1133420897049F4552039F0B70180E290E00E9498
S1133430BA1D5A94F7CF002329F0B701802F90E0EA
S11334400E94BA1D93FC09C0552039F0B70180E3EE
S113345090E00E94BA1D5A94F7CF97FE4CC04601E3
S1133460D7FE02C0812C912CC60188199909F30159
S1133470E80FF91FFE87ED87960124193109388B6F
S11334802F87012F10E01195019511093FEF831645
S1133490930629F4B7018EE290E00E94BA1DC81485
S11334A0D9044CF08F8598898815990524F4ED8505
S11334B0FE85818101C080E3F1E08F1A91082D859A
S11334C03E852F5F3F4F3E872D87801691062CF057
S11334D0B70190E00E94BA1DD9CFC814D90441F4B1
S11334E09A81963320F4953319F43C8534FF81E3B3
S11334F0B70190E04EC08A81813319F09C859F7E8C
S11335009C87B70190E00E94BA1D111105C094FC7C
S113351018C085E690E017C0B7018EE290E00E94E3
S1133520BA1D1E5F82E001E0080FF301E80FF11DF0
S11335308081B70190E00E94BA1D802F0113F3CF60
S1133540E6CF85E490E0B7010E94BA1DD7FC06C01F
S1133550C114D10441F4EC85E4FF05C0D194C194B5
S1133560D1088DE201C08BE2B70190E00E94BA1D40
S113357080E32AE0C216D1042CF08F5FFAE0CF1A60
S1133580D108F7CFB70190E00E94BA1DB701C60178
S1133590C0960E94BA1D54C1833631F0833779F046
S11335A0833509F056C020C0560132E0A30EB11C89
S11335B0F6018081898301E010E0630112C05601A5
S11335C0F2E0AF0EB11CF601C080D18096FE03C0BC
S11335D0612F70E002C06FEF7FEFC6010E94AF1D44
S11335E08C01F92DFF7714C0560122E0A20EB11C04
S11335F0F601C080D18096FE03C0612F70E002C046
S11336006FEF7FEFC6010E94A41D8C01F92DF068B5
S11336109F2EF3FD1AC0852D90E008171907A8F412
S1133620B70180E290E00E94BA1D5A94F4CFF601EB
S113363097FC859197FE81916F01B70190E00E94FC
S1133640BA1D51105A94015011090115110579F749
S1133650F7C0843611F0893661F5560197FE09C02A
S113366024E0A20EB11CF6016081718182819381F4
S11336700AC0F2E0AF0EB11CF60160817181072E21
S1133680000C880B990BF92DFF769F2E97FF09C02C
S113369090958095709561957F4F8F4F9F4FF068FF
S11336A09F2E2AE030E0A3010E94121EC82EC618E5
S11336B03FC0092D853721F40F7E2AE030E01DC07C
S11336C0097F8F3691F018F4883559F0C3C08037DC
S11336D019F0883711F0BEC0006104FF09C004600E
S11336E007C094FE08C0066006C028E030E005C0AC
S11336F020E130E002C020E132E0560107FF09C0BA
S113370084E0A80EB11CF6016081718182819381ED
S113371008C0F2E0AF0EB11CF6016081718180E057
S113372090E0A3010E94121EC82EC6180F77902E97
S113373096FE0BC0092D0E7FC11650F494FE0AC0EC
S113374092FC08C0092D0E7E05C0DC2C092D03C097
S1133750DC2C01C0D12E04FF0DC0FE01EC0DF11DC7
S11337608081803311F4097E09C002FF06C0D3941E
S1133770D39404C0802F867809F0D39403FD11C03C
S113378000FF06C01C2DD51480F4150D1D190DC0A5
S1133790D51458F4B70180E290E00E94BA1DD39486
S11337A0F7CFD51410F45D1801C0512C04FF10C0DC
S11337B0B70180E390E00E94BA1D02FF17C001FD2B
S11337C003C088E790E002C088E590E0B7010CC030
S11337D0802F867859F001FF02C08BE201C080E29D
S11337E007FD8DE2B70190E00E94BA1DC11638F4BE
S11337F0B70180E390E00E94BA1D1150F7CFCA943C
S1133800F301EC0DF11D8081B70190E00E94BA1D17
S1133810C110F5CF15C0F4E0F51560F584E0581A31
S113382093FE1FC0011127C02C8523FF2AC002E587
S113383012E0392D3071932EF8018491811124C046
S1133840552009F4E4CCB70180E290E00E94BA1D4F
S11338505A94F6CFF7018681978126C08FEF9FEFA8
S113386023C0B70180E290E00E94BA1D5A9451101F
S1133870F8CFD8CF512CB701802F90E00E94BA1D09
S1133880D3CF06E512E0D5CF91108052B70190E076
S11338900E94BA1D0F5F1F4FCFCF23E0251510F4F0
S11338A083E0BDCF512CC0CF6096E2E10C949D1C07
S11338B097FB072E16F4009407D077FD09D00E94D9
S11338C0B81C07FC05D03EF4909581959F4F089550
S11338D0709561957F4F0895EE0FFF1F0590F49149
S11338E0E02D0994A29FB001B39FC001A39F700D66
S11338F0811D1124911DB29F700D811D1124911DF4
S113390008952F923F924F925F926F927F928F927F
S11339109F92AF92BF92CF92DF92EF92FF920F935A
S11339201F93CF93DF93CDB7DEB7CA1BDB0B0FB664
S1133930F894DEBF0FBECDBF09942A883988488821
S11339405F846E847D848C849B84AA84B984C884B7
S1133950DF80EE80FD800C811B81AA81B981CE0FAE
S1133960D11D0FB6F894DEBF0FBECDBFED01089593
S1133970AA1BBB1B51E107C0AA1FBB1FA617B70791
S113398010F0A61BB70B881F991F5A95A9F78095AD
S11339909095BC01CD010895283008F027E0332725
S11339A0DA01990F311D87FD91600096610571055B
S11339B039F432602E5F3D9330E32A95E1F70895A0
S11339C09F3F30F080387105610509F03C5F3C5F32
S11339D03D93913008F08068911DDF93CF931F933E
S11339E00F93FF92EF92192F987F9695E92F969552
S11339F09695E90FFF27EC54FD4F99273327EE24C2
S1133A00FF24A701E70105900894079428F4360FD2
S1133A10E71EF81E491F511D660F771F881F991F47
S1133A200694A1F70590079428F4E70EF81E491FA1
S1133A30561FC11D770F881F991F661F0694A1F793
S1133A400590079428F4F80E491F561FC71FD11D6F
S1133A50880F991F661F771F0694A1F70590079496
S1133A6020F4490F561FC71FD81F990F661F771FD1
S1133A70881F0694A9F784911095177041F0D69584
S1133A80C79557954795F794E7941A95C1F7EAE5D2
S1133A90F2E0689415901591359165919591059092
S1133AA07FE27395E118F10A430B560BC90BD00959
S1133AB0C0F7E10CF11E431F561FC91FD01D7EF431
S1133AC0703311F48A95E6CFE894015030F0080F72
S1133AD00AF40027021708F4202F2395022F7A33C3
S1133AE028F079E37D932A95E9F710C07D932A9510
S1133AF089F6069497956795379517951794E11865
S1133B00F10A430B560BC90BD00998F023957E910B
S1133B1073957A3308F070E37C932013B8F77E91A1
S1133B2070617D9330F0839571E37D9370E32A9502
S1133B30E1F71124EF90FF900F911F91CF91DF9146
S1133B40992787FD90950895FC0105906150704078
S1133B500110D8F7809590958E0F9F1F0895FC0152
S1133B606150704001900110D8F7809590958E0FA8
S1133B709F1F08950F931F93CF93DF93FB0123811E
S1133B8021FD03C08FEF9FEF2CC022FF16C046819A
S1133B905781248135814217530744F4A081B181B0
S1133BA09D012F5F3F4F318320838C932681378182
S1133BB02F5F3F4F3783268314C08B01EC01FB0139
S1133BC00084F185E02D0995892BE1F6D80116963C
S1133BD08D919C911797019617969C938E931697A7
S1133BE0CE01DF91CF911F910F910895AEE0B0E027
S1133BF0ECEFFDE10C948F1C8C0186E08C831A831E
S1133C0009838FEF9FE79E838D83CE0101960E94E7
S1133C10DB18EF81F885E00FF11F10822E96E4E0A7
S1133C200C94AB1CFA01AA27283051F1203181F100
S1133C30E8946F936E7F6E5F7F4F8F4F9F4FAF4FB0
S1133C40B1E03ED0B4E03CD0670F781F891F9A1FC3
S1133C50A11D680F791F8A1F911DA11D6A0F711D77
S1133C60811D911DA11D20D009F468943F912AE083
S1133C70269F11243019305D3193DEF6CF0108956B
S1133C80462F4770405D4193B3E00FD0C9F7F6CF9C
S1133C90462F4F70405D4A3318F0495D31FD405264
S1133CA0419302D0A9F7EACFB4E0A69597958795FA
S1133CB077956795BA95C9F70097610571050895D9
S1133CC09B01AC010A2E0694579547953795279585
S1133CD0BA95C9F7620F731F841F951FA01D08951D
S1073CE0F894FFCF82
S1133CE4D104A404B30491048204C204E004EF04E0
S1133CF464047304FFFEF92F2D2D2D2D2D2D2D2D50
S1133D042D2D2D53544152542053595354454D2D64
S1133D142D2D2D2D2D2D2D2D2D2D2D2F0A006463AC
S1133D246D6F746F7220696E69740A0064636D6FD9
S1133D34746F722073746F700A0064636D6F746FB0
S1133D4472206572726F720A004D4F544F522041B3
S1133D5444433A2025642C204144435F6D61783AFE
S1133D642025642C20766F6C746167653A2025667F
S1133D740A004552524F52205354415455533A2049
S1133D844552525F4D5F574149540A0D00636F75A4
S1133D946E745F6D6F746F725F74696D656F757443
S1133DA45F776169743A2025640A0D00636F756E48
S1133DB4745F6D6F746F725F74696D656F75745F32
S1133DC46178656C65726174653A2025640A0D0036
S1133DD44552524F52205354415455533A2045525C
S1133DE4525F4D5F4158454C45524154450A0D00BC
S1133DF44552524F52205354415455533A2045523C
S1133E04525F4D5F4552524F520A0D004552524F74
S1133E1452205354415455533A20676F20746F20F1
S1133E246C617374206265666F726520776169746E
S1133E340A0D004552524F52205354415455533A9B
S1133E44204552525F4D5F455849540A0D0045526E
S1133E54524F52205354415455533A204552525FC1
S1133E644D5F4F4B0A0D00736572766F5F65727216
S1133E746F725F76616C75653A2025640A00455259
S1133E84524F52205354415455533A204552525F91
S1133E94535F574149540A0D004552524F5220531F
S1133EA454415455533A204552525F535F54525926
S1133EB40A0D004552524F52205354415455533A1B
S1133EC4204552525F535F4F4B0A0D0053455256DF
S1133ED44F3A20696E69740A00534552564F5F4441
S1133EE4454C415945445F4F50454E2025640A00D2
S1133EF4534552564F5F434C4F5345442025640A5F
S1133F0400534552564F5F4F5050454E454420256B
S1133F14640A00534552564F5F5452592025640A8B
S1133F2400534552564F3A205A65726F2074727981
S1093F3420636E740A0014
S9030000FC
