S01600006E6F77795F737465726F776E696B2E73726563FC
S11300000C94AA010C94C7010C94C7010C94C70169
S11300100C94C7010C94C7010C94C7010C94C7013C
S11300200C94C7010C94C7010C94F7160C94C701E7
S11300300C94C7010C94F1170C9422180C94C7016A
S11300400C94C7010C94C7010C94C7010C94C7010C
S11300500C94C701100817081A08200826082B0852
S1130060310838083C084408930893089308930817
S113007093089308930893089308930893089308A4
S11300809308930893089308930893089308930894
S11300909308930893089308930893089308930884
S11300A09308930893089308930893089308930874
S11300B09308930893089308930893089308930864
S11300C09308930893089308930893089308930854
S11300D09308930893089308930893089308930844
S11300E09308930893089308930893089308930834
S11300F09308930893089308930893089308930824
S11301009308930893089308930893089308930813
S11301109308930893084B08520858085D0863082D
S1130120690893089308930893089308820893082E
S113013093087108760893086E087C08930893085E
S113014093089308930893089308930893089308D3
S113015093089308930893089308930893089308C3
S113016093089308930893089308930893089308B3
S113017093089308930893089308930893089308A3
S11301809308930893089308930893089308930893
S11301909308930893089308930893089308930883
S11301A09308930893089308930893089308930873
S11301B09308930893089308930893089308930863
S11301C09308930893089308930893089308930853
S11301D09308930893089308930893089308930843
S11301E09308930893089308930893089308930833
S11301F09308930893089308930893089308930823
S11302009308930893089308930893089308930812
S11302109308930893089308930893089308930802
S113022093089308930893089308930893089308F2
S113023093089308930893089308930893089308E2
S1130240930893088608920890088E088C088A08F8
S113025088086E616E00696E660000407A10F35A79
S113026000A0724E18090010A5D4E80000E87648F2
S1130270170000E40B54020000CA9A3B000000E19E
S1130280F505000080969800000040420F00000031
S1130290A08601000000102700000000E803000011
S11302A000006400000000000A00000000000100DB
S11302B0000000002C76D888DC674F0823DFC1DFFC
S11302C0AE59E1B1B796E5E3E453C63AE6519976FF
S11302D096E8E6C28426EB898C9B62ED407C6FFC39
S11302E0EFBC9C9F40F2BAA56FA5F490055A2AF77B
S11302F05C936B6CF9676DC11BFCE0E40D47FEF584
S113030020E6B500D0ED902E0300943577050080EB
S1130310841E080000204E0A000000C80C3333334A
S1130320330F986E12831141EF8D2114893BE655EA
S113033016CFFEE6DB18D1844B381BF77C1D901DCD
S1130340A4BBE424203284725E228100C9F124EC2F
S1130350A1E53D2711241FBECFE5D8E0DEBFCDBF08
S113036012E0A0E6B0E0E6EAF0E402C005900D92E7
S1130370AA3FB107D9F725E0AAEFB2E001C01D9268
S1130380A238B207E1F70E94FA010C9451200C94B0
S11303900000CF93DF93CDB7DEB7AE014B5F5F4F65
S11303A0FA0161917191AF0189E694E00E94D71F2F
S11303B089E694E00E947418DF91CF9108958C9A95
S11303C08E9ABD9A899A08950E94850662E381E017
S11303D00E943A170E94C7070E94890488E090E0AF
S11303E00E9449180E941F150E94A00F80B78B7F9E
S11303F080BF08950E94DF0178940E94E40187E79A
S113040090E09F938F930E94C9010F900F900E94D8
S1130410AE090E940A0B0E94DF030E94D9150E94B4
S11304208C16809167040E944B07809168040E9497
S1130430A5120E941A060E94DD0B0E94620F0E9400
S1130440BE0F0E9444020E948D020E94A004DFCFCE
S113045083E00E94A910BC01660F771F660F771F07
S1130460860F971FBC0180E090E00E949D1926E64C
S113047036E646EB50E40E944F1A20E030E040E8B4
S11304805AE30E944F1A089540917E0550917F05CA
S113049060918005709181058091FF029091000325
S11304A0A0910103B091020384179507A607B7072B
S11304B098F583E00E94A910893522E0920718F08C
S11304C021E0209303038B3821E0920718F422E003
S11304D0209303038E3521E0920718F423E0209340
S11304E003038C5891408C3C910510F41092030343
S11304F080917E0590917F05A0918005B091810542
S11305008C599F4FAF4FBF4F8093FF0290930003CE
S1130510A0930103B0930203089540917E05509186
S11305207F0560918005709181058091FB02909117
S1130530FC02A091FD02B091FE0284179507A60764
S1130540B70708F086C0809103038130E9F030F0EA
S1130550823099F1833009F467C00895C598809179
S1130560FB029091FC02A091FD02B091FE0288531F
S11305709F4FAF4FBF4F8093FB029093FC02A09319
S1130580FD02B093FE02089598B380E2892788BBE8
S11305908091FB029091FC02A091FD02B091FE02B9
S11305A086509F4FAF4FBF4F8093FB029093FC0246
S11305B0A093FD02B093FE0208958091FA02811186
S11305C019C081E08093FA02C59A8091FB02909150
S11305D0FC02A091FD02B091FE028C509E4FAF4FE1
S11305E0BF4F8093FB029093FC02A093FD02B09353
S11305F0FE020895813069F51092FA02C59880913F
S1130600FB029091FC02A091FD02B091FE02845283
S11306109A4FAF4FBF4F8093FB029093FC02A0937D
S1130620FD02B093FE020895C59A8091FB02909159
S1130630FC02A091FD02B091FE0288519C4FAF4F85
S1130640BF4F8093FB029093FC02A093FD02B093F2
S1130650FE020895379897B1987F8770892B87B9E0
S1130660379A0895369A3699FECF84B195B1089594
S11306700E942A030E9432030895DC011696ED912C
S1130680FC911797208130E0F90118960C9002C074
S1130690F595E7950A94E2F7CF0181700895E6E1B4
S11306A0F5E0148281E08583148613861286118610
S11306B01686158626E330E03783268392E09087FA
S11306C0E9EEF4E01482858314861386128611867B
S11306D016861586378326838087E8EFF4E0148234
S11306E085831486138612861186168615863783AB
S11306F0268396E09087E6EDF4E0148285831486E1
S11307001386128611861686158640E350E05783B9
S1130710468393E09087E7ECF4E0148285831486A3
S1130720138612861186168615863783268390874C
S1130730E7E0F5E014828583148613861286118619
S11307401686158669E370E077836683A4E0A08744
S1130750E5E2F5E0148285831486138612861186F9
S11307601686158643E350E0578346838087E4E387
S1130770F5E0148285831486138612861186168604
S1130780158637832683A087E9EAF4E014828583FB
S113079014861386128611861686158677836683D9
S11307A09087E8EBF4E0148285831486138612861E
S11307B01186168615865783468310860895DF9220
S11307C0EF92FF920F931F93CF93DF9340917E0597
S11307D050917F0560918005709181058091E504B9
S11307E09091E604A091E704B091E804841795077A
S11307F0A607B70708F085C080917E0590917F0514
S1130800A0918005B09181054496A11DB11D8093EE
S1130810E5049093E604A093E704B093E804C0E6EB
S1130820D0E00F2EF4E7EF2EF0E0FF2EF02DDD24C4
S1130830D3948E01888199810E943D03E881F981D6
S113084095818917E1F08583813061F488819981EC
S1130850DC011996ED91FC911A97309709F441C087
S113086009953FC081113DC088819981DC011B96A7
S1130870ED91FC911C97309721F0099502C08111EC
S113088030C0D801ED91FC9180819181A281B38126
S11308900196A11DB11D80839183A283B383D801E6
S11308A0ED91FC9180819181A281B3818897A1050A
S11308B0B10510F184818130F9F00584F685E02DCD
S11308C0309719F086E195E00995D801ED91FC91F6
S11308D011971082118212821382ED91FC91D482BD
S11308E00BC0D801ED91FC911197108211821282F4
S11308F01382ED91FC9114822296CE15DF0509F046
S113090098CFDF91CF911F910F91FF90EF90DF90DF
S113091008950E944F03BA98C29AB998C19ABE9892
S1130920C69A8B98939ABB98C39AD498DC9AA19848
S1130930A99ABC98C49AD398DB9AA098A89A0895C7
S113094040917E0550917F056091800570918105ED
S11309508091080390910903A0910A03B0910B03BD
S113096084179507A607B70708F059C08091650456
S11309709091660495FF37C080910403909105031C
S1130980A0910603B0910703892B8A2B8B2B59F571
S1130990C09A80916504909166049F7D909366044B
S11309A08093650481E090E0A0E0B0E080930403CC
S11309B090930503A0930603B09307038091080363
S11309C090910903A0910A03B0910B038C599F4F96
S11309D0AF4FBF4F8093080390930903A0930A037A
S11309E0B0930B030895C09810920403109205036A
S11309F01092060310920703809108039091090353
S1130A00A0910A03B0910B03C296A11DB11D80935E
S1130A10080390930903A0930A03B0930B0308956A
S1130A20B89AC0980895809110038A3041F4809157
S1130A30460581110BC088E08093100308958091CE
S1130A404605811103C01092100308958091460554
S1130A50813039F480914305823018F081508093BD
S1130A604305089580911003811108C080914605C3
S1130A7081110BC089E0809310030895809146058D
S1130A80811103C0109210030895809146058130AE
S1130A9039F480914305833618F48F5F80934305BE
S1130AA0089580914605813041F490914405923037
S1130AB010F19150909344051EC09091100397300B
S1130AC0A9F481111CC081E08093460510921003A3
S1130AD080914505813011F4969801C0969A949AB4
S1130AE087E080935A05809355050895811107C0C6
S1130AF0109210030895909110039730B9F7089558
S1130B0080911003883041F48091460581110BC017
S1130B1086E080931003089580914605811103C0F7
S1130B2010921003089580914605813039F4809124
S1130B304405833618F48F5F8093440508958091AB
S1130B401003863041F48091460581110BC087E083
S1130B5080931003089580914605811103C010927B
S1130B601003089580914605813071F48091450504
S1130B70811105C081E080934505969808958130E0
S1130B8019F410924505969A0895089508950895C4
S1130B90CF93DF9380911003893041F4809146050F
S1130BA081110BC08AE0809310032BC0809146050D
S1130BB0811103C01092100324C080914605813036
S1130BC001F5809143058436E0F480914405843630
S1130BD0C0F4C3E4D5E068818CE090E00E948C0B03
S1130BE069818DE090E00E948C0B6A818EE090E038
S1130BF00E948C0B88E080935A0580935505949845
S1130C009698DF91CF910895CF93DF938CE090E095
S1130C100E94940BC3E4D5E088838DE090E00E94A9
S1130C20940B89838EE090E00E94940B8A83DF9179
S1130C30CF91089540917E0550917F056091800584
S1130C407091810580910C0390910D03A0910E0386
S1130C50B0910F0384179507A607B70708F054C08F
S1130C6080914605813009F04FC080915A05873044
S1130C7031F46091430586E595E00E941009809166
S1130C805505873031F46091440581E595E00E9473
S1130C90100980915A05883049F5809155058830AE
S1130CA029F580917E0590917F05A0918005B091F2
S1130CB0810588519C4FAF4FBF4F80930C03909395
S1130CC00D03A0930E03B0930F0383E7809369058C
S1130CD081E680935D0580E780935B05109267054C
S1130CE08AE080935A0580935505089580915A05AA
S1130CF08A3051F4809155058A3031F410925A05A6
S1130D001092550510924605089583E195E090935D
S1130D1022058093210582E395E09093F504809366
S1130D20F40488EC95E0909304058093030581E531
S1130D3095E09093D3048093D20480E895E0909357
S1130D401305809312058FE995E090933105809304
S1130D50300585EC95E09093400580933F0586EC43
S1130D6095E09093B5048093B40487EC95E0909358
S1130D70C4048093C3040E9404068091430584360E
S1130D8010F01092430580914405843610F01092BF
S1130D90440580914505823010F010924505089570
S1130DA08EE990E09F938F930E94C9018BE495E0B4
S1130DB00E94661781E080934705949815BC8F9A2A
S1130DC0979A0F900F9008951092470515BC979A23
S1130DD09498089590914705925021E030E0933023
S1130DE010F020E030E0C90108950E94EA0600975F
S1130DF099F08CEA90E09F938F930E94C90115BCEF
S1130E00979A9498E7E4F5E08081818381E0808378
S1130E100F900F9081E090E0089580914705813014
S1130E20D9F4949A85B5806385BD85B5806485BD04
S1130E3085B5816085BDE7E4F5E08081818384E048
S1130E40808348EE53E060E070E08BE495E00E941C
S1130E506E1781E090E0089580E090E0089580911D
S1130E604A0590E008958AEB90E09F938F930E9447
S1130E70C9010E94F50685E0809347050F900F9005
S1130E8008950E94EA06009729F083E080934705BD
S1130E9081E090E00895CF93C82F46E950E060E0E8
S1130EA070E081E193E00E94BA17892B09F458C0DD
S1130EB0909147059330E9F028F49130B9F09230DD
S1130EC041F04EC0943009F448C0953009F442C052
S1130ED047C0C0934A052BEEC29FC001112463E6AC
S1130EE070E00E94391E6C5E63BD3AC010924A05E0
S1130EF037C0C33378F484E18C0F80934A052BEE1A
S1130F00829FC001112463E670E00E94391E6C5E6A
S1130F1063BD26C08DEC8C0F843178F48FE08C0F88
S1130F2080934A052BEE829FC001112463E670E092
S1130F300E94391E6C5E63BD13C0C0934A052BEE3C
S1130F40C29FC001112463E670E00E94391E6C5EEA
S1130F5063BD06C015BC979A03C082E08093470521
S1130F60CF910895AE9AAD9ADD9ADF9ADE9AAA9A45
S1130F70AF9A0895929A10925E05C79A10926A05E4
S1130F80AC9A10925C05AB9A109268050895A69AE3
S1130F90A59AD59AD79AD69AA29AA79A8A9AEFE549
S1130FA0F5E08DE595E091838083BF9A29E635E0ED
S1130FB033832283A6E5B5E011963C932E931396D2
S1130FC09C938E931297A49A2BE535E03583248362
S1130FD0A39A87E695E097838683E1E5F5E031837C
S1130FE02083938382830E94BA070E94B2070895E4
S1130FF0CF93DF93FC01308120917400321709F400
S113100095C0EC010E94B207E8818E2F90E08F3FDB
S1131010910508F088C0FC01E65DFF4F0C944D1E5D
S1131020AE98AD98DD98DF98DE98AA987CC0AD980C
S1131030DD9879C0AE98AD98AF98DE98DF9873C00C
S1131040AE98AD98AF98DD98DF986DC0AA98AF9828
S1131050AD98DD9868C0AE98AA98AF98DD98DF98EF
S113106062C0AE98AA98AF98DD98DF98DE985BC00E
S1131070AE98AD98DD9857C0AE98AD98DD98DF98DE
S1131080DE98AA98AF984FC0AE98AD98DD98DF98D7
S1131090AA98AF9848C0AE98AD98DD98DE98AA9803
S11310A0AF9841C0DD98DF98DE98AA98AF983BC00E
S11310B0AE98DF98DE98AA9836C0AD98DD98DF9890
S11310C0DE98AF9830C0AE98DF98DE98AA98AF98B3
S11310D02AC0AE98DE98AA98AF9825C0DE98AF983B
S11310E022C0DD98DF98DE98AF981DC0AE98AD9809
S11310F0DE98AA98AF9817C0AE98DD98DF98AA98A2
S1131100AF9811C0DF98DE98AA980DC0AF980BC0B5
S1131110AA9809C0DE9807C0DF9805C0DD9803C00F
S1131120AD9801C0AE98888180937400DF91CF910F
S11311300895CF93DF93EC010E94BA07CE010E9479
S1131140F80785E0CD35D80729F4929881E080939B
S11311505E0519C085E0C936D80729F4C79881E02F
S113116080936A0510C085E0CB35D80729F4AC9884
S113117081E080935C0507C0C756D54021F4AB9845
S113118081E080936805DF91CF910895EF92FF92FB
S11311901F93CF93DF93FC01C081D1812196D1832A
S11311A0C0839E01ADECBCEC0E94531E96958795BE
S11311B096958795969587959C01220F331F880FE6
S11311C0991F880F991F880F991F820F931FC817A3
S11311D0D90701F57F0110911603143058F4E12F5B
S11311E0F0E0EE0FFF1FE15AFA4F808191810E94D7
S11311F0990802C00E94BA071F5F153019F01093B6
S1131200160302C010921603C039D14019F4F70135
S113121011821082DF91CF911F91FF90EF9008957A
S1131220FC016436F8F4611108C0A081B1811C92FC
S11312300280F381E02D10820895A081B1819DEC9C
S1131240699F912D11249695969596959C9302806D
S1131250F381E02D892F880F982F990F990F890F0B
S1131260681B60830895FC0160830895813039F020
S113127018F0823039F00895609332030895609332
S113128031030895609331036093320308958823F2
S113129019F0813029F008C080915A0590E0089532
S11312A08091550590E008958FEF9FEF0895809108
S11312B05A05863021F480916B0580935A058091FC
S11312C05505863021F480916C0580935505089569
S11312D08130A1F018F0823009F10895663021F4CC
S11312E080915A0580936B0580915A05863019F4D4
S11312F060936B05089560935A050895663021F450
S11313008091550580936C0580915505863019F4BC
S113131060936C050895609355050895663041F413
S113132080915A0580936B058091550580936C05D7
S113133080915A05863029F460936C0560936B059F
S1131340089560935A0560935505089595E0909328
S11313505A059093550580932C03089580917E053A
S113136090917F05A0918005B091810540911B0368
S113137050911C0360911D0370911E034817590777
S11313806A077B0708F026C180915A05833009F467
S113139059C030F4882309F487C0813039F18EC0F4
S11313A0853009F474C048F1863009F087C00E9482
S11313B0280220E030E048EC52E40E944F1A0E94D8
S11313C0671970932B0360932A039B013695279525
S11313D036952795ABE7B4E10E94531E9695879501
S11313E0682F86E595E00E94100968C06091320379
S11313F086E595E00E94100961C08091550584300E
S113140031F081E080935A058093550557C04851C7
S11314105C4F6F4F7F4F40931B0350931C036093AB
S11314201D0370931E0383E78093690581E680930F
S11314305D0580E780935B0581E080935A05809386
S11314405505089580915505833031F081E08093EE
S11314505A058093550532C048515C4F6F4F7F4FFA
S113146040931B0350931C0360931D0370931E034E
S11314708CE6809369058FE680935D0580E7809311
S11314805B0581E080935A058093550517C085E676
S11314908093690582E780935D0560912C0381E563
S11314A095E00E9410090AC068EF8DE595E00E945E
S11314B0330968EF89E695E00E9433098091550568
S11314C0813019F148F1863019F08D3081F16FC007
S11314D040912A0350912B039A013695279536950E
S11314E02795ABE7B4E10E94531E9695879564E671
S11314F0689F9001699F300D1124BA01621B730B20
S113150081E595E00E94100952C06091310381E5A4
S113151095E00E9410094BC068EF8BE595E00E94AE
S1131520330968EF87E695E00E94330940C044EF31
S113153051E060E070E085E293E00E94BA17892BE5
S1131540B1F18091240381110EC081E080932403C2
S113155067EF8BE595E00E94330967EF87E695E036
S11315600E94330924C01092240380912003909197
S11315702103A0912203B09123030097A105B10593
S113158029F461E081E00E94680911C00197A10972
S1131590B1098093200390932103A0932203B09375
S11315A0230360911F0381E595E00E941009809157
S11315B01B0390911C03A0911D03B0911E03C296BE
S11315C0A11DB11D80931B0390931C03A0931D03C5
S11315D0B0931E0308950F931F9300917E051091FD
S11315E07F052091800530918105DC01CB01800FBE
S11315F0911FA21FB31F80932D0390932E03A093DA
S11316002F03B093300362E0842F0E9468091F9176
S11316100F91089580915A05823029F080915505E3
S1131620823009F078C040917E0550917F05609129
S11316308005709181058091170390911803A09102
S11316401903B0911A0384179507A607B70708F082
S113165062C080917E0590917F05A0918005B09134
S1131660810581559F4FAF4FBF4F809317039093D0
S11316701803A0931903B0931A0380915A0582307A
S113168061F4609176008DE595E00E9433096091E4
S1131690760089E695E00E943309809155058230F1
S11316A061F4609175008BE595E00E9433096091C7
S11316B0750087E695E00E94330940917E055091BC
S11316C07F05609180057091810580912D03909133
S11316D02E03A0912F03B091300384179507A6071A
S11316E0B70728F461E082E00E946809C5989091E8
S11316F076009F5F9093760080917500815080936F
S113170075009F3F19F499EF90937600883F19F480
S11317108EEF809375000895E199FECF9FBB8EBB39
S11317206DBBE29AE19A0895E199FECF9FBB8EBB0F
S1131730E09A8DB30895CF93C82F8091650490915A
S11317406604826090936604809365048C2F0E94E3
S1131750A6090E9433070E94CA110E94F416C0937E
S11317606D05CF9108951092490310924803109289
S1131770470310924103109242038AE493E00E94CB
S1131780B0178CE393E00E94B01710926D05089592
S11317901092490310924803109247031092410398
S11317A0109242038AE493E00E94B0178CE393E022
S11317B00E94B01710926D050895CF92DF92EF92B8
S11317C0FF920F931F93CF93DF9340917E05509127
S11317D07F05609180057091810580913803909117
S11317E03903A0913A03B0913B0384179507A607E8
S11317F0B70708F05EC38091650480FF5AC3409127
S11318007E0550917F0560918005709181054C5053
S11318105E4F6F4F7F4F409338035093390360936B
S11318203A0370933B0381FD44C30E942F07EC01EC
S11318300E9428026B017C0120E030E040E151E489
S11318400E94F018882344F40F2EC12CD12CF0E10F
S1131850EF2EF1E4FF2EF02DCE010A97059778F5CF
S113186020E030E040E151E4C701B6010E94831852
S11318706B017C01BE0180E090E00E949D199B01F8
S1131880AC01C701B6010E944F1A20E030E040ECE1
S113189050E40E94F5186B017C01BE01660F771FAE
S11318A06F50710980E090E00E949D199B01AC018A
S11318B0C701B6010E9484180E946E1900C1CE01AE
S11318C00F970A9778F520E030E040E151E4C70132
S11318D0B6010E9483186B017C01BE0180E090E098
S11318E00E949D199B01AC01C701B6010E944F1AC9
S11318F020E030E040EC50E40E94F5186B017C01DC
S1131900BE016A507048660F771F80E090E00E9425
S11319109D199B01AC01C701B6010E9484180E9465
S11319206E19CDC0CE0149970F9778F520E030E0CD
S113193040E151E4C701B6010E9483186B017C01A8
S1131940BE0180E090E00E949D199B01AC01C7019B
S1131950B6010E944F1A20E030E040EC50E40E94AF
S1131960F5186B017C01BE01660F771F695171097F
S113197080E090E00E949D199B01AC01C701B60173
S11319800E9484180E946E199AC0CE0188970A9703
S113199078F520E030E040E151E4C701B6010E944F
S11319A083186B017C01BE0180E090E00E949D19C8
S11319B09B01AC01C701B6010E944F1A20E030E040
S11319C040EC50E40E94F5186B017C01BE016550A7
S11319D07048660F771F80E090E00E949D199B017C
S11319E0AC01C701B6010E9484180E946E1967C039
S11319F0CE01C297449778F520E030E040E151E40D
S1131A00C701B6010E9483186B017C01BE0180E00E
S1131A1090E00E949D199B01AC01C701B6010E9490
S1131A204F1A20E030E040EC50E40E94F5186B01BE
S1131A307C01BE016B5F7F4F660F771F80E090E0F3
S1131A400E949D199B01AC01C701B6010E94841834
S1131A500E946E1934C0C634D10578F120E030E01C
S1131A6040E151E4C701B6010E9483186B017C0177
S1131A70BE0180E090E00E949D199B01AC01C7016A
S1131A80B6010E944F1A20E030E040EC50E40E947E
S1131A90F5186B017C01BE01665F7F4F660F771FEF
S1131AA080E090E00E949D199B01AC01C701B60142
S1131AB00E9484180E946E1902C06AE070E06C599A
S1131AC07F4F709346036093450380E00E94A91002
S1131AD07C0180E00E94C210D82EC92E42E05BE255
S1131AE067E07DE380E00E94DB10C62FD72F182F1C
S1131AF0092F0E9428020F931F93DF93CF93CF9255
S1131B00DF92809146038F93809145038F93FF92D8
S1131B10EF9289EC90E09F938F930E94C9014DB797
S1131B205EB7445F5F4F0FB6F8945EBF0FBE4DBF04
S1131B3080914503909146038E159F05B0F481E092
S1131B408093470380914903823009F484C030F4C0
S1131B508823F1F0813009F448C0FFC0833009F4D0
S1131B608DC0843009F48EC0F8C010924703809170
S1131B704903823009F4C0C020F4813009F49EC0C6
S1131B80ECC0833009F4D5C0843009F4D6C0E5C074
S1131B9081E08093490385E091E09F938F930E94B5
S1131BA0C9010E942F072EE1AC01249FC001259F8B
S1131BB0900D112448E853E1EA01C81BD90BDF93C7
S1131BC0CF9380E291E09F938F930E94C901AE016D
S1131BD060E070E08AE493E00E946E170F900F902B
S1131BE00F900F900F900F90B8C08AE493E00E947A
S1131BF09017892B09F4B1C00E9441070E942F0756
S1131C002EE1AC01249FC001259F900D112448E8CA
S1131C1053E1EA01C81BD90BDF93CF938FE391E023
S1131C209F938F930E94C901AE0160E070E08AE443
S1131C3093E00E946E1782E08093490383E691E06B
S1131C409F938F930E94C9010F900F900F900F9054
S1131C500F900F9082C08AE493E00E949017892B22
S1131C6009F47BC083E08093490383E891E09F9368
S1131C708F930E94C9010F900F906FC081E00E9462
S1131C809B0B6BC08AE493E00E949017892B09F4A4
S1131C9064C040ED57E060E070E08AE493E00E94A5
S1131CA06E1780914803809349038FE991E09F93D5
S1131CB08F930E94C9010F900F904FC08AE493E064
S1131CC00E949017892B09F448C040ED57E060E06A
S1131CD070E08AE493E00E946E1784E080934903E5
S1131CE081E08093480386EC91E09F938F930E9458
S1131CF0C9010F900F9031C08AE493E00E949017BD
S1131D00892B59F140ED57E060E070E08AE493E0FC
S1131D100E946E1784E08093490382E08093480315
S1131D2086EC91E09F938F930E94C9010F900F90CE
S1131D3014C081E00E949B0B10C08AE493E00E94CF
S1131D409017892B51F081EE91E09F938F930E941D
S1131D50C901109249030F900F9084E690E090938C
S1131D6044038093430381E00E94A910209143031C
S1131D703091440328173907D8F43F932F938AEFFF
S1131D8091E09F938F930E94C90181E08093410366
S1131D900F900F900F900F9080914203813051F17A
S1131DA0A8F0823009F44BC0833009F451C081C0DB
S1131DB01092410380914203823009F466C083305B
S1131DC009F474C0813009F074C046C081E0809386
S1131DD0420381E192E09F938F930E94C90144EFF3
S1131DE051E060E070E08CE393E00E946E170F9086
S1131DF00F905FC08CE393E00E949017892B09F445
S1131E0058C00E943712049724F083E08093420361
S1131E1050C04CED55E060E070E08CE393E00E942C
S1131E206E1782E0809342030E942B128CE292E0B0
S1131E309F938F930E94C9010F900F903AC08CE337
S1131E4093E00E949017892BA1F11092420331C0B4
S1131E5082E00E949B0B2DC08CE393E00E949017BC
S1131E60892B39F140ED57E060E070E08CE393E0BA
S1131E700E946E171092420386E492E09F938F9320
S1131E800E94C9010F900F9014C08CE393E00E944C
S1131E909017892B71F01092420386E492E09F938D
S1131EA08F930E94C9010F900F9003C082E00E949B
S1131EB09B0BDF91CF911F910F91FF90EF90DF90DB
S1131EC0CF9008954EE551E060E070E083E393E045
S1131ED00E94BA17892B09F180916D05813071F444
S1131EE092B380E1892782BB809165049091660456
S1131EF0906290936604809365040895823069F437
S1131F0092B380E4892782BB809165049091660432
S1131F10906290936604809365040895FC01208187
S1131F203181623058F0329691E041915191240F01
S1131F30351F369527959F5F6913F7CFC90108951B
S1131F40EFE8F3E027EB33E081EF91E081939193A5
S1131F502E173F07D9F7EEE6F3E08CE893E01192F1
S1131F6011928E179F07D9F7E6E5F3E08AE693E02E
S1131F70119211928E179F07D9F70895CF92DF928D
S1131F80EF92FF92CF93DF9340917E0550917F05AE
S1131F90609180057091810580914F039091500369
S1131FA0A0915103B091520384179507A607B70770
S1131FB008F0C8C080917E0590917F05A0918005AE
S1131FC0B09181058C509E4FAF4FBF4F80934F030C
S1131FD090935003A0935103B093520380E00E9466
S1131FE03803EC0160918C0370918D0380E090E0E4
S1131FF00E949D1921E73DE34AE85EE30E944F1ADF
S11320006B017C01BE0180E090E00E949D199B0160
S1132010AC01C701B6010E9484180E946E19709326
S1132020BA036093B9032091BB03E22FF0E0EE0FF3
S1132030FF1FE157FC4F7183608381E0820F80931F
S1132040BB0382E00E94380390936D0380936C037A
S1132050E0918E03F0E0EE0FFF1FE259FC4F9183F5
S1132060808381E00E943803883522E0920728F4B7
S1132070109254031092530306C0885592409093D3
S113208054038093530380915503C0915303D0911B
S11320905403E82FF0E0EE0FFF1FEA5AFC4FC08311
S11320A0D18390918E039F5F90938E038F5F809373
S11320B0550364E18FE893E00E948E0F9093B80378
S11320C08093B7036FE08EE693E00E948E0F9093A7
S11320D08D0380938C036AE086E593E00E948E0F63
S11320E090936B0380936A0380916D038F93809127
S11320F06C038F93DF93CF938091BA038F93809176
S1132100B9038F938FE592E09F938F930E94C90147
S11321108DB79EB708960FB6F8949EBF0FBE8DBFBD
S11321208091BB03843111F41092BB038091550359
S11321308A3011F41092550380918E038F3011F47C
S113214010928E03DF91CF91FF90EF90DF90CF90AC
S11321500895833018F4813040F00CC0833079F452
S11321608091B7039091B803089580918C03909166
S11321708D03089580916A0390916B03089580E024
S113218090E00895833018F4813040F00CC083301F
S113219079F48091B9039091BA03089580916C0306
S11321A090916D0308958091530390915403089581
S11321B080E090E00895CF92DF92EF92FF926A015F
S11321C07B01833018F4813050F010C08330A9F4BF
S11321D06091B7037091B80380E090E011C0609102
S11321E08C0370918D0380E090E00AC060916A03D3
S11321F070916B0380E090E003C060E070E0CB017D
S11322000E949D1920E030E040E85AE30E944F1AF2
S113221020E030E040EA50E40E944F1AA701960102
S11322200E94F518FF90EF90DF90CF900895EF9201
S1132230FF920F931F93CF938B01823059F028F4B0
S1132240882391F0813019F130C0833029F1843032
S113225031F02BC022E030E084E090E021C023E0A4
S113226030E088E090E01CC06894EE24E1F8F12CA2
S1132270C0E0F80161918F018C2F90E00E948C0BDB
S1132280CF5F8C2F90E08E159F059CF30EC022E04B
S113229030E082E090E004C022E030E086E090E0AC
S11322A0C82F7901E80EF91EE4CFCF911F910F9149
S11322B0FF90EF900895EF92FF920F931F93CF93A7
S11322C08B01823059F028F4882391F0813019F180
S11322D030C0833029F1843031F02BC022E030E06B
S11322E084E090E021C023E030E088E090E01CC06E
S11322F06894EE24E1F8F12CC0E08C2F90E00E9469
S1132300940BF80181938F01CF5F8C2F90E08E1591
S11323109F059CF30EC022E030E082E090E004C010
S113232022E030E086E090E0C82F7901E80EF91E43
S1132330E4CFCF911F910F91FF90EF9008958111F9
S113234005C08CE697E09BBD8ABD0895823390F466
S113235090E022273327281B390B220F331F220F2B
S1132360331F220F331F820F931F885F984F9BBD2B
S11323708ABD0895843668F490E0C297880F991F47
S1132380880F991F2AEA35E0A901481B590B5BBD48
S11323904ABD089580E00E949F11969885E080933D
S11323A06E050895CF93DF932FE13EE437BD26BD3C
S11323B081B3806381BB19BC18BC1BBC1ABC8FB52C
S11323C082608FBD8EB588618EBD8FB580688FBDEC
S11323D08EB582608EBD3BBD2ABD9698CEE6D5E013
S11323E081E088831B8282E795E00E946617198644
S11323F01092D0038FE892E09F938F930E94C901BB
S11324000F900F90DF91CF91089590916E059250A7
S113241021E030E0923010F020E030E0C90108956E
S113242090916E059130A1F4EEE6F5E093E090838F
S113243083831F928F938CE992E09F938F930E94E2
S1132440C9010F900F900F900F9081E090E00895D4
S113245080E090E0089580916E059FEF980F923090
S113246028F4EEE6F5E0818384E08083089580918A
S1132470770590E008950E9405120097C1F080E06E
S11324800E949F11EEE6F5E081E0808313821F92A3
S11324901F9283EB92E09F938F930E94C9019698B9
S11324A00F900F900F900F9081E090E0089520918D
S11324B06E05243021F40E94601281E090E00895BA
S11324C080916F05823029F480936E050E943B123F
S11324D009C0813071F4EEE6F5E082E08083838107
S11324E00E947A121092D003EEE6F5E081858F5FA8
S11324F081870895CF93C82F80916E059FEF980F21
S11325009330C0F4EEE6F5E082E08083C3838C2F41
S11325100E949F111F92CF9384EC92E09F938F931C
S11325200E94C901969A0F900F900F900F9081E02E
S113253090E009C0843029F40E94601281E090E0A8
S113254002C080E090E0CF910895CF93DF93C82F2D
S11325504BE450E060E070E08BEC93E00E94BA172B
S1132560892B09F4B6C080916E058430A1F030F453
S1132570823059F0833009F461C09BC0853009F47E
S113258077C0863009F491C094C0C09371058C2F34
S11325900E949F118EC08091D003811113C044E624
S11325A050E060E070E086EC93E00E946E1780914A
S11325B0D0038F5F8093D00390917105890F0E949F
S11325C09F1128C081508930C8F486EC93E00E94A2
S11325D090170197F9F444E650E060E070E086EC6F
S11325E093E00E946E178091D0038F5F8093D00395
S11325F090917105890F0E949F110CC01092D00315
S1132600CEE6D5E08B810E949F11898188838985DC
S11326108F5F8987209171058091D00390E0820FAC
S1132620911D9F938F9386ED92E09F938F930E94C9
S1132630C9010F900F900F900F903BC081EC93E075
S11326400E948617892B59F081EC93E00E94901721
S1132650019779F582E080936E05969A2AC040ED41
S113266057E060E070E081EC93E00E946E1721C0B7
S11326708CEB93E00E948617892B71F08CEB93E02E
S11326800E9490170197A9F486E080936E058FE16C
S11326909EE49BBD8ABD0DC040ED57E060E070E054
S11326A08CEB93E00E946E1704C08FE19EE49BBD07
S11326B08ABD82E795E00E949017019751F4109229
S11326C0770584EE92E09F938F930E94C9010F9047
S11326D00F90DF91CF910895E6E1F5E01686158617
S11326E01286118614861386E9EEF4E016861586A2
S11326F0128611861486138610920405109203051F
S1132700E7ECF4E016861586148613861286118685
S1132710E7E0F5E016861586148613861286118680
S11327201092310510923005E4E3F5E01486138627
S11327301686158612861186E9EAF4E01486138655
S11327401686158612861186E8EBF4E01486138645
S1132750168615861286118608958091D9038230D3
S113276049F08091650490916604986090936604A2
S11327708093650408958091D903823049F0809153
S11327806504909166048068909366048093650460
S11327900895809165049091660492609093660414
S11327A08093650408958091650490916604997FEF
S11327B090936604809365041092DA0308958091DF
S11327C06504909166048062909366048093650426
S11327D0089580916504909166048F7990936604BE
S11327E0809365041092DA030895809165049091B2
S11327F066049062909366048093650480916804F3
S11328008B3018F08150809368046091680481E0F3
S11328100E94360961E082E00E946809089580916F
S113282065049091660490629093660480936504B5
S113283080916804833618F48F5F809368046091F4
S1132840680481E00E94360961E082E00E94680920
S11328500895809165049091660490629093660453
S113286080936504809167048B3018F081508093C5
S113287067046091670480E00E94360980E00E944A
S11328804709029729F461E082E00E94680904C0C4
S113289061E080E00E9468098091D9038F5F809392
S11328A0D903823019F466E00E9468090895809182
S11328B06504909166049062909366048093650425
S11328C080916704833618F48F5F80936704609166
S11328D0670480E00E94360980E00E94470902975D
S11328E029F461E082E00E94680904C061E080E0AC
S11328F00E9468098091D9038F5F8093D903823045
S113290019F466E00E94680908950E9457098091AD
S1132910650490916604977E9093660480936504A1
S11329201092DA038091D903882319F0815080939F
S1132930D90380E00E944709029729F461E082E00C
S11329400E946809089561E080E00E946809089582
S11329500E94570980916504909166048F779E7F49
S113296090936604809365041092DA038091D903EE
S1132970882319F081508093D90380E00E9447098D
S1132980029729F461E082E00E946809089561E0F9
S113299080E00E9468090895EAE7F5E08091670401
S11329A08083809168048183BF0183E00E941711B2
S11329B008958091650490916604906290936604F2
S11329C080936504809167048A3038F48AE08093A8
S11329D067046AE080E00E9436090E94CC140E94D9
S11329E0EA06892B39F40E940D07809168040E943D
S11329F0101208950E94F5060E943B1208958091DA
S1132A0065049091660490629093660480936504D3
S1132A10809168048A3038F48AE0809368046AE01C
S1132A2081E00E9436090E940512892B19F00E9448
S1132A303B120895809168040E947A12089584ECF0
S1132A4095E19093E0048093DF0460E082E00E94CB
S1132A50680968E775E083E00E945B11809179055D
S1132A6096EF980F9A3510F4809368048091780556
S1132A7096EF980F9A3510F4809367040895109296
S1132A80D90342E068EE73E080E090E00E94EB0A34
S1132A900E94D00680E00E94D2110E94B30B0E94D3
S1132AA0A00F0E94100581E090E09093660480934B
S1132AB06504E6E1F5E08DEA93E19687858789E28E
S1132AC094E19487838785E894E192878187E9EE8E
S1132AD0F4E08BEB93E19687858787E594E194870F
S1132AE0838788EA94E19287818789ED94E19093C2
S1132AF0040580930305E7ECF4E089EC93E1968701
S1132B00858783ED93E19287818785EF93E19487AD
S1132B108387E7E0F5E08FED93E19687858789EE7B
S1132B2093E1928781878FE094E1948783878FEF85
S1132B3094E190933105809330056091670480E0BF
S1132B400E9436096091680481E00E943609089564
S1132B501092D9030E94E4060E946C130E94C80BD1
S1132B600E943B12109266041092650460E082E0B9
S1132B700E94680980916504909166048E7F909309
S1132B8066048093650408950E94CC1480916504C2
S1132B9080FF03C00E94A81502C00E943F158091C7
S1132BA06504909166049062909366048093650432
S1132BB0089540917E0550917F0560918005709144
S1132BC081058091D1039091D203A091D303B09158
S1132BD0D40384179507A607B70708F09CC0809113
S1132BE0650485FF1DC0609168046336C8F46F5F97
S1132BF06093680481E00E9436098091DD038F5F51
S1132C008093DD038F3060F08091650490916604B9
S1132C108F7D806490936604809365041092DD0335
S1132C20809165049091660491FF1DC060916804D1
S1132C306623C9F061506093680481E00E943609FC
S1132C408091DC038F5F8093DC038F3060F0809190
S1132C506504909166049D7F9460909366048093CC
S1132C6065041092DC038091650487FF1DC06091A8
S1132C7067046336C8F46F5F6093670480E00E9462
S1132C8036098091DB038F5F8093DB038F3060F024
S1132C9080916504909166048F77916090936604A7
S1132CA0809365041092DB0380916504909166041F
S1132CB093FF1DC0609167046B30C8F0615060934E
S1132CC0670480E00E9436098091DA038F5F809365
S1132CD0DA038F3060F08091650490916604977FE9
S1132CE0906190936604809365041092DA03809156
S1132CF0D1039091D203A091D303B091D403805B0C
S1132D009F4FAF4FBF4F8093D1039093D203A093B3
S1132D10D303B093D403089540917E0550917F0569
S1132D2060918005709181058091D5039091D603BF
S1132D30A091D703B091D80384179507A607B707C6
S1132D4008F051C060916804633650F480916504C2
S1132D5086FF06C06F5F6093680481E00E943609B5
S1132D6060916804662361F0809165049091660423
S1132D7092FF06C061506093680481E00E943609A6
S1132D8060916704633660F48091650490916604F1
S1132D9090FF06C06F5F6093670480E00E9436096D
S1132DA0609167046B3060F08091650490916604D3
S1132DB094FF06C061506093670480E00E94360966
S1132DC08091D5039091D603A091D703B091D803F5
S1132DD04E96A11DB11D8093D5039093D603A09365
S1132DE0D703B093D80308950E946C1308951F92DB
S1132DF00F920FB60F9211242F933F934F935F932B
S1132E006F937F938F939F93AF93BF93EF93FF93AE
S1132E10ECE7F5E080819181C29691838083808183
S1132E209181883E934088F082819381A481B58109
S1132E300196A11DB11D82839383A483B5838081F0
S1132E409181885E9340918380838EED93E00E940C
S1132E50C608FF91EF91BF91AF919F918F917F91A0
S1132E606F915F914F913F912F910F900FBE0F90F3
S1132E701F90189593B7986093BF6CBF823099F0F8
S1132E8028F4882341F0813051F019C0833079F05F
S1132E90843089F014C083B7816083BF13C083B7C3
S1132EA0826083BF0FC083B7836083BF0BC083B7C7
S1132EB0846083BF07C083B7856083BF03C083B7C3
S1132EC0816083BF89B7826089BF089523E0FC01D4
S1132ED02483108211821282138208950F931F9308
S1132EE021E0FC01248300917E0510917F0520914F
S1132EF0800530918105400F511F621F731F40836D
S1132F005183628373831F910F91089521E030E010
S1132F10FC018481813011F020E030E0C901089582
S1132F20FC0184818130B1F480917E0590917F050C
S1132F30A0918005B09181054081518162817381A6
S1132F40481759076A077B0740F482E0848381E0CD
S1132F5090E008958FEF9FEF089580E090E008954A
S1132F6021E030E0FC018481833011F020E030E086
S1132F70C9010895CF92DF92EF92FF920F931F93AE
S1132F80CF93DF93EC016A017B018C81811106C030
S1132F9083E08C83188219821A821B82CE010E94DC
S1132FA090178C01019731F4B701A601CE010E945C
S1132FB06E170DC08C81833041F4B701A601CE0198
S1132FC00E946E1700E010E002C000E010E0C801AB
S1132FD0DF91CF911F910F91FF90EF90DF90CF90F1
S1132FE008951F920F920FB60F9211242F933F93BF
S1132FF04F935F938F939F93EF93FF932BB13CB1C8
S113300028718091E20390E001964091E10350E041
S11330108417950739F08093E203FC01EB51FC4FD0
S1133020308301C022E02093E003FF91EF919F9150
S11330308F915F914F913F912F910F900FBE0F9001
S11330401F9018951F920F920FB60F9211248F9311
S11330509F93EF93FF939091E4038091E303981778
S113306071F08091E30390E001968F779927809324
S1133070E303FC01EB51FC4F80818CB901C05598EE
S1133080FF91EF919F918F910F900FBE0F901F9022
S11330901895F8941092E4031092E3031092E2035B
S11330A01092E103789499231CF422E02BB99F77C2
S11330B090BD89B988E98AB986E880BD08954091B0
S11330C0E40350E04F5F5F4F4F7755272091E303B0
S11330D030E042175307D1F3FA01EB51FC4F8083E0
S11330E04093E403559A0895CF93DF93EC018881CC
S11330F0882331F021960E945F1889918111FBCFBA
S1133100DF91CF9108955058BB27AA270E949B189E
S11331100C94151A0E94071A38F00E940E1A20F017
S113312039F49F3F19F426F40C94041A0EF4E09534
S1133130E7FB0C94FE19E92F0E94261A58F3BA17DC
S1133140620773078407950720F079F4A6F50C94B9
S1133150481A0EF4E0950B2EBA2FA02D0B01B901DD
S113316090010C01CA01A0011124FF27591B99F0F9
S1133170593F50F4503E68F11A16F040A22F232F05
S1133180342F4427585FF3CF469537952795A79555
S1133190F0405395C9F77EF41F16BA0B620B730BFC
S11331A0840BBAF09150A1F0FF0FBB1F661F771F6D
S11331B0881FC2F70EC0BA0F621F731F841F48F422
S11331C0879577956795B795F7959E3F08F0B0CFAB
S11331D09395880F08F09927EE0F97958795089592
S11331E00E94DA1908F481E008950E9409190C94E8
S11331F0151A0E940E1A58F00E94071A40F029F47A
S11332005F3F29F00C94FE1951110C94491A0C9447
S1133210041A0E94261A68F39923B1F3552391F3F3
S1133220951B550BBB27AA2762177307840738F031
S11332309F5F5F4F220F331F441FAA1FA9F335D08E
S11332400E2E3AF0E0E832D091505040E695001C42
S1133250CAF72BD0FE2F29D0660F771F881FBB1FFC
S1133260261737074807AB07B0E809F0BB0B802DDA
S1133270BF01FF2793585F4F3AF09E3F510578F006
S11332800C94FE190C94491A5F3FE4F3983ED4F36E
S1133290869577956795B795F7959F5FC9F7880FDA
S11332A0911D9695879597F90895E1E0660F771F2C
S11332B0881FBB1F621773078407BA0720F0621BBD
S11332C0730B840BBA0BEE1F88F7E09508950E94E8
S11332D06E196894B1110C94491A08950E942E1A1B
S11332E088F09F5798F0B92F9927B751B0F0E1F0C3
S11332F0660F771F881F991F1AF0BA95C9F714C073
S1133300B13091F00E94481AB1E008950C94481A23
S1133310672F782F8827B85F39F0B93FCCF38695AB
S113332077956795B395D9F73EF490958095709508
S113333061957F4F8F4F9F4F0895E89409C097FB85
S11333403EF490958095709561957F4F8F4F9F4F78
S11333509923A9F0F92F96E9BB279395F6958795BC
S113336077956795B795F111F8CFFAF4BB0F11F47F
S113337060FF1BC06F5F7F4F8F4F9F4F16C0882326
S113338011F096E911C0772321F09EE8872F762F5C
S113339005C0662371F096E8862F70E060E02AF09D
S11333A09A95660F771F881FDAF7880F9695879589
S11333B097F90895990F0008550FAA0BE0E8FEEF5E
S11333C016161706E807F907C0F012161306E407E5
S11333D0F50798F0621B730B840B950B39F40A26DE
S11333E061F0232B242B252B21F408950A2609F4BC
S11333F0A140A6958FEF811D811D089597F99F67C0
S113340080E870E060E008959FEF80EC0895002468
S11334100A941616170618060906089500240A9435
S113342012161306140605060895092E0394000CBB
S113343011F4882352F0BB0F40F4BF2B11F460FF4A
S113344004C06F5F7F4F8F4F9F4F089557FD905873
S1133450440F551F59F05F3F71F04795880F97FB54
S1133460991F61F09F3F79F087950895121613060E
S11334701406551FF2CF4695F1DF08C0161617063D
S11334801806991FF1CF8695710561050894089572
S1133490E894BB2766277727CB0197F908950E9404
S11334A0621A0C94151A0E94071A38F00E940E1A18
S11334B020F0952311F00C94FE190C94041A112495
S11334C00C94491A0E94261A70F3959FC1F3950F24
S11334D050E0551F629FF001729FBB27F00DB11D94
S11334E0639FAA27F00DB11DAA1F649F6627B00D24
S11334F0A11D661F829F2227B00DA11D621F739F0D
S1133500B00DA11D621F839FA00D611D221F749F1A
S11335103327A00D611D231F849F600D211D822F61
S1133520762F6A2F11249F5750409AF0F1F0882388
S11335304AF0EE0FFF1FBB1F661F771F881F9150B5
S11335405040A9F79E3F510580F00C94FE190C944D
S1133550491A5F3FE4F3983ED4F3869577956795CF
S1133560B795F795E7959F5FC1F7FE2B880F911DDF
S11335709695879597F90895A0E1B0E0E2ECFAE119
S11335800C94621E7C011B016A01FC0117821682E5
S1133590838181FF44C39E012F5F3F4F3901F701AF
S11335A09381F10193FD859193FF81911F018823FC
S11335B009F431C3853239F493FD859193FF8191E8
S11335C01F01853239F4B70190E00E949B1F560118
S11335D06501E5CF10E0512C912CFFE1F915D8F0ED
S11335E08B3279F038F4803279F08332A1F4F92DFA
S11335F0F0612EC08D3261F0803369F4292D216091
S11336002DC0392D3260932E892D8460982E2AC0C6
S1133610E92DE86015C097FC2DC020ED280F2A3055
S113362088F496FE06C03AE0139F200D1124122F51
S113363019C08AE0589E200D1124522EE92DE06213
S11336409E2E10C08E3231F496FCE5C2F92DF06442
S11336509F2E08C08C3621F4292D2068922E02C09A
S1133660883641F4F10193FD859193FF81911F0107
S11336708111B3CF9BEB980F933020F4992D906177
S1133680805E07C09BE9980F933008F066C1992DBE
S11336909F7E96FF16E09F73992E853619F49064E9
S11336A0992E08C0863621F4392F3068932E02C033
S11336B01111115097FE07C01C3350F44424439455
S11336C0410E27E00BC0183038F027E017E005C0A2
S11336D027E09CE3492E02C0212F412C560184E0AF
S11336E0A80EB11CF6016081718182819381042D41
S11336F0A3010E94AD1E6C01F981FC87F0FF02C09A
S1133700F3FF06C091FC06C092FE06C000E205C0AD
S11337100DE203C00BE201C000E08C858C7019F04F
S113372001115AC29BC297FE10C04C0CFC85F4FFD9
S113373004C08A81813309F44A94141474F528E08E
S1133740241578F588E0482E2CC096FC2AC0812FD9
S113375090E08C159D059CF03CEFC3163FEFD3061B
S113376074F0892D8068982E0AC0E2E0F0E0EC0F36
S1133770FD1FE10FF11D8081803319F411501111E7
S1133780F4CF97FE0EC044244394410E812F90E061
S1133790C816D9062CF41C1904C04424439401C04F
S11337A010E097FE06C01C141D0434F4C6010196F3
S11337B005C085E090E002C081E090E0011101962F
S11337C0112331F0212F30E02F5F3F4F820F931FE1
S11337D0252D30E08217930714F4581A01C0512C98
S11337E0892D897049F4552039F0B70180E290E0C1
S11337F00E949B1F5A94F7CF002329F0B701802F12
S113380090E00E949B1F93FC09C0552039F0B7013A
S113381080E390E00E949B1F5A94F7CF97FE4CC020
S11338204601D7FE02C0812C912CC6018819990942
S1133830F301E80FF91FFE87ED879601241931097A
S1133840388B2F87012F10E01195019511093FEF57
S11338508316930629F4B7018EE290E00E949B1F21
S1133860C814D9044CF08F8598898815990524F4D7
S1133870ED85FE85818101C080E3F1E08F1A910816
S11338802D853E852F5F3F4F3E872D8780169106FD
S11338902CF0B70190E00E949B1FD9CFC814D90423
S11338A041F49A81963320F4953319F43C8534FF1E
S11338B081E3B70190E04EC08A81813319F09C8581
S11338C09F7E9C87B70190E00E949B1F111105C049
S11338D094FC18C085E690E017C0B7018EE290E032
S11338E00E949B1F1E5F82E001E0080FF301E80FB6
S11338F0F11D8081B70190E00E949B1F802F01136E
S1133900F3CFE6CF85E490E0B7010E949B1FD7FC7C
S113391006C0C114D10441F4EC85E4FF05C0D19480
S1133920C194D1088DE201C08BE2B70190E00E94FE
S11339309B1F80E32AE0C216D1042CF08F5FFAE0CB
S1133940CF1AD108F7CFB70190E00E949B1FB701AF
S1133950C601C0960E949B1F54C1833631F0833741
S113396079F0833509F056C020C0560132E0A30E29
S1133970B11CF6018081898301E010E0630112C06B
S11339805601F2E0AF0EB11CF601C080D18096FE64
S113399003C0612F70E002C06FEF7FEFC6010E9489
S11339A0901F8C01F92DFF7714C0560122E0A20E5E
S11339B0B11CF601C080D18096FE03C0612F70E077
S11339C002C06FEF7FEFC6010E94851F8C01F92DA5
S11339D0F0689F2EF3FD1AC0852D90E00817190793
S11339E0A8F4B70180E290E00E949B1F5A94F4CFA0
S11339F0F60197FC859197FE81916F01B70190E0E4
S1133A000E949B1F51105A94015011090115110570
S1133A1079F7F7C0843611F0893661F5560197FEBF
S1133A2009C024E0A20EB11CF6016081718182817B
S1133A3093810AC0F2E0AF0EB11CF601608171817E
S1133A40072E000C880B990BF92DFF769F2E97FFFC
S1133A5009C090958095709561957F4F8F4F9F4FCA
S1133A60F0689F2E2AE030E0A3010E94F31FC82EC5
S1133A70C6183FC0092D853721F40F7E2AE030E0B7
S1133A801DC0097F8F3691F018F4883559F0C3C0F2
S1133A90803719F0883711F0BEC0006104FF09C0F7
S1133AA0046007C094FE08C0066006C028E030E049
S1133AB005C020E130E002C020E132E0560107FFFA
S1133AC009C084E0A80EB11CF60160817181828175
S1133AD0938108C0F2E0AF0EB11CF60160817181E0
S1133AE080E090E0A3010E94F31FC82EC6180F7750
S1133AF0902E96FE0BC0092D0E7FC11650F494FE35
S1133B000AC092FC08C0092D0E7E05C0DC2C092DCC
S1133B1003C0DC2C01C0D12E04FF0DC0FE01EC0D4E
S1133B20F11D8081803311F4097E09C002FF06C0B3
S1133B30D394D39404C0802F867809F0D39403FDE2
S1133B4011C000FF06C01C2DD51480F4150D1D19DD
S1133B500DC0D51458F4B70180E290E00E949B1F79
S1133B60D394F7CFD51410F45D1801C0512C04FF81
S1133B7010C0B70180E390E00E949B1F02FF17C0B2
S1133B8001FD03C088E790E002C088E590E0B7013A
S1133B900CC0802F867859F001FF02C08BE201C06F
S1133BA080E207FD8DE2B70190E00E949B1FC116E1
S1133BB038F4B70180E390E00E949B1F1150F7CFC7
S1133BC0CA94F301EC0DF11D8081B70190E00E94CD
S1133BD09B1FC110F5CF15C0F4E0F51560F584E026
S1133BE0581A93FE1FC0011127C02C8523FF2AC039
S1133BF002E512E0392D3071932EF8018491811180
S1133C0024C0552009F4E4CCB70180E290E00E947E
S1133C109B1F5A94F6CFF7018681978126C08FEFB8
S1133C209FEF23C0B70180E290E00E949B1F5A944B
S1133C305110F8CFD8CF512CB701802F90E00E94BB
S1133C409B1FD3CF06E512E0D5CF91108052B70168
S1133C5090E00E949B1F0F5F1F4FCFCF23E02515DD
S1133C6010F483E0BDCF512CC0CF6096E2E10C94F8
S1133C707E1E97FB072E16F4009407D077FD09D01B
S1133C800E94991E07FC05D03EF4909581959F4FA4
S1133C900895709561957F4F0895EE0FFF1F05906D
S1133CA0F491E02D0994A29FB001B39FC001A39F9A
S1133CB0700D811D1124911DB29F700D811D112461
S1133CC0911D08952F923F924F925F926F927F922F
S1133CD08F929F92AF92BF92CF92DF92EF92FF9218
S1133CE00F931F93CF93DF93CDB7DEB7CA1BDB0BC4
S1133CF00FB6F894DEBF0FBECDBF09942A88398869
S1133D0048885F846E847D848C849B84AA84B9846F
S1133D10C884DF80EE80FD800C811B81AA81B9817B
S1133D20CE0FD11D0FB6F894DEBF0FBECDBFED018F
S1133D300895AA1BBB1B51E107C0AA1FBB1FA617EE
S1133D40B70710F0A61BB70B881F991F5A95A9F740
S1133D5080959095BC01CD010895283008F027E0A6
S1133D603327DA01990F311D87FD916000966105B3
S1133D70710539F432602E5F3D9330E32A95E1F703
S1133D8008959F3F30F080387105610509F03C5F6C
S1133D903C5F3D93913008F08068911DDF93CF9391
S1133DA01F930F93FF92EF92192F987F9695E92F07
S1133DB096959695E90FFF27EC54FD4F99273327E5
S1133DC0EE24FF24A701E70105900894079428F442
S1133DD0360FE71EF81E491F511D660F771F881FF7
S1133DE0991F0694A1F70590079428F4E70EF81E8E
S1133DF0491F561FC11D770F881F991F661F069400
S1133E00A1F70590079428F4F80E491F561FC71F01
S1133E10D11D880F991F661F771F0694A1F705907F
S1133E20079420F4490F561FC71FD81F990F661F08
S1133E30771F881F0694A9F784911095177041F095
S1133E40D695C79557954795F794E7941A95C1F772
S1133E50EAE5F2E068941590159135916591959194
S1133E6005907FE27395E118F10A430B560BC90BD9
S1133E70D009C0F7E10CF11E431F561FC91FD01D06
S1133E807EF4703311F48A95E6CFE894015030F053
S1133E90080F0AF40027021708F4202F2395022F95
S1133EA07A3328F079E37D932A95E9F710C07D935E
S1133EB02A9589F6069497956795379517951794DB
S1133EC0E118F10A430B560BC90BD00998F023955E
S1133ED07E9173957A3308F070E37C932013B8F7DE
S1133EE07E9170617D9330F0839571E37D9370E3EF
S1133EF02A95E1F71124EF90FF900F911F91CF9134
S1133F00DF91992787FD90950895FC0105906150F4
S1133F1070400110D8F7809590958E0F9F1F0895DB
S1133F20FC016150704001900110D8F78095909584
S1133F308E0F9F1F08950F931F93CF93DF93FB0161
S1133F40238121FD03C08FEF9FEF2CC022FF16C0F9
S1133F5046815781248135814217530744F4A08157
S1133F60B1819D012F5F3F4F318320838C93268144
S1133F7037812F5F3F4F3783268314C08B01EC01B9
S1133F80FB010084F185E02D0995892BE1F6D80128
S1133F9016968D919C911797019617969C938E93E4
S1133FA01697CE01DF91CF911F910F910895AEE046
S1133FB0B0E0EDEDFFE10C94701E8C0186E08C8383
S1133FC01A8309838FEF9FE79E838D83CE01019629
S1133FD00E94BC1AEF81F885E00FF11F10822E9623
S1133FE0E4E00C948C1EFA01AA27283051F1203108
S1133FF081F1E8946F936E7F6E5F7F4F8F4F9F4F79
S1134000AF4FB1E03ED0B4E03CD0670F781F891FBA
S11340109A1FA11D680F791F8A1F911DA11D6A0F88
S1134020711D811D911DA11D20D009F468943F913B
S11340302AE0269F11243019305D3193DEF6CF013A
S11340400895462F4770405D4193B3E00FD0C9F700
S1134050F6CF462F4F70405D4A3318F0495D31FD6D
S11340604052419302D0A9F7EACFB4E0A6959795C0
S1134070879577956795BA95C9F700976105710596
S113408008959B01AC010A2E0694579547953795E0
S11340902795BA95C9F7620F731F841F951FA01D3A
S10940A00895F894FFCF1F
S11340A61605E904F804D604C704070525053405EE
S11340B6A904B804FFFEF92F2D2D2D2D2D2D2D2D00
S11340C62D2D2D53544152542053595354454D2D9F
S11340D62D2D2D2D2D2D2D2D2D2D2D2F0A006463E7
S11340E66D6F746F7220696E69740A0064636D6F14
S11340F6746F722073746F700A0064636D6F746FEB
S113410672206572726F720A004D4F544F522041ED
S113411644433A2025642C204144435F6D61783A38
S11341262025642C204144435F6E6F5F66696C747E
S113413665723A2025642C2063757272656E743A32
S11341462025660A004552524F5220535441545575
S1134156533A204552525F4D5F574149540A0D0068
S1134166636F756E745F6D6F746F725F74696D657E
S11341766F75745F776169743A2025640A0D00636C
S11341866F756E745F6D6F746F725F74696D656F52
S113419675745F6178656C65726174653A2025642F
S11341A60A0D004552524F52205354415455533A26
S11341B6204552525F4D5F4158454C455241544546
S11341C60A0D004552524F52205354415455533A06
S11341D6204552525F4D5F4552524F520A0D0045DB
S11341E652524F52205354415455533A20676F202C
S11341F6746F206C617374206265666F72652077D4
S11342066169740A0D004552524F52205354415469
S113421655533A204552525F4D5F455849540A0D4D
S1134226004552524F52205354415455533A204557
S113423652525F4D5F4F4B0A0D00736572766F5F86
S11342466572726F725F76616C75653A2025640AD1
S1134256004552524F52205354415455533A204527
S113426652525F535F574149540A0D004552524F0B
S113427652205354415455533A204552525F535F8A
S11342865452590A0D004552524F52205354415428
S113429655533A204552525F535F4F4B0A0D004126
S11342A644435F6E6F742066696C74657265643A24
S11342B620616363756D2025642C20736572766FA7
S11342C62025642C206D6F746F722025640A0053B8
S11342D64552564F3A20696E69740A005345525640
S11342E64F5F44454C415945445F4F50454E202548
S11342F6640A00534552564F5F434C4F534544207E
S113430625640A00534552564F5F4F5050454E455B
S1134316442025640A00534552564F5F545259208F
S113432625640A00534552564F3A205A65726F2047
S10D433674727920636E740A0000AB
S9030000FC
