:100000000C94EB010C9408020C9408020C94080266
:100010000C9408020C9408020C9408020C94080238
:100020000C9408020C9408020C9411170C9408020A
:100030000C9408020C940B180C943C180C940802B5
:100040000C9408020C9408020C9408020C94080208
:100050000C9408029D08A408A708AD08B308B808C6
:10006000BE08C508C908D1082009200920092009AF
:100070002009200920092009200920092009200938
:100080002009200920092009200920092009200928
:100090002009200920092009200920092009200918
:1000A0002009200920092009200920092009200908
:1000B00020092009200920092009200920092009F8
:1000C00020092009200920092009200920092009E8
:1000D00020092009200920092009200920092009D8
:1000E00020092009200920092009200920092009C8
:1000F00020092009200920092009200920092009B8
:1001000020092009200920092009200920092009A7
:10011000200920092009D808DF08E508EA08F008C6
:10012000F608200920092009200920090F092009C3
:100130002009FE0803092009FB08090920092009F4
:100140002009200920092009200920092009200967
:100150002009200920092009200920092009200957
:100160002009200920092009200920092009200947
:100170002009200920092009200920092009200937
:100180002009200920092009200920092009200927
:100190002009200920092009200920092009200917
:1001A0002009200920092009200920092009200907
:1001B00020092009200920092009200920092009F7
:1001C00020092009200920092009200920092009E7
:1001D00020092009200920092009200920092009D7
:1001E00020092009200920092009200920092009C7
:1001F00020092009200920092009200920092009B7
:1002000020092009200920092009200920092009A6
:100210002009200920092009200920092009200996
:100220002009200920092009200920092009200986
:100230002009200920092009200920092009200976
:100240002009200913091F091D091B09190917098C
:10025000150907634236B79BD8A71A39685618AEF6
:10026000BAAB558C1D3CB7CC5763BD6DEDFD753EEB
:10027000F6177231BF000000803F08000000BE92F8
:100280002449123EABAAAA2ABECDCCCC4C3E0000DB
:100290000080BEABAAAAAA3E00000000BF0000007A
:1002A000803F0000000000084178D3BB4387D11392
:1002B0003D190E3CC3BD4282AD2B3E68EC8276BE3A
:1002C000D98FE1A93E4C80EFFFBE01C4FF7F3F0004
:1002D000000000006E616E00696E660000407A10DA
:1002E000F35A00A0724E18090010A5D4E80000E8E7
:1002F0007648170000E40B54020000CA9A3B000045
:1003000000E1F505000080969800000040420F00D3
:100310000000A08601000000102700000000E80394
:10032000000000006400000000000A00000000005F
:100330000100000000002C76D888DC674F0823DF1E
:10034000C1DFAE59E1B1B796E5E3E453C63AE651F1
:10035000997696E8E6C28426EB898C9B62ED407C18
:100360006FFCEFBC9C9F40F2BAA56FA5F490055AB4
:100370002AF75C936B6CF9676DC11BFCE0E40D47D9
:10038000FEF520E6B500D0ED902E030094357705FC
:100390000080841E080000204E0A000000C80C33B4
:1003A0003333330F986E12831141EF8D2114893B43
:1003B000E65516CFFEE6DB18D1844B381BF77C1DC3
:1003C000901DA4BBE424203284725E228100C9F116
:1003D00024ECA1E53D2711241FBECFE5D8E0DEBF08
:1003E000CDBF13E0A0E6B0E0E2E4F4E402C0059083
:1003F0000D92AA35B107D9F725E0AAE5B3E001C00F
:100400001D92A23FB207E1F70E9439020C941F220D
:100410000C940000CF93DF93CDB7DEB7AE014B5FF6
:100420005F4FFA0161917191AF0180ED94E00E94FC
:10043000A52180ED94E00E948E18DF91CF91089560
:100440008C9A8E9ABD9A899A089588E090E00E94CD
:10045000631862E381E00E9454170E9454080E94CE
:10046000CC040E9435150E945E0F80B78B7F80BF41
:1004700008950E94200278940E9425028FE790E060
:100480009F938F930E940A020E94E0060E949B1095
:100490000F900F900E94500A0E94AC0B0E94220401
:1004A0000E94F3150E94A6168091CE040E94D807E0
:1004B0008091CF040E94BB120E945E060E947F0CB6
:1004C0000E94200F0E947C0F0E9487020E94D0028F
:1004D0000E94E304DFCF83E00E94D710BC01660FC7
:1004E000771F660F771F860F971FBC0180E090E093
:1004F0000E94B21926E636E646EB50E40E94691ADD
:1005000020E030E040E85AE30E94691A08954091E3
:10051000EE055091EF056091F0057091F105809125
:100520005F0390916003A0916103B091620384170F
:100530009507A607B70798F583E00E94D71089357D
:1005400022E0920718F021E0209363038B3821E02A
:10055000920718F422E0209363038E3521E092077E
:1005600018F423E0209363038C5891408C3C910550
:1005700010F4109263038091EE059091EF05A09125
:10058000F005B091F1058C599F4FAF4FBF4F80934D
:100590005F0390936003A0936103B0936203089597
:1005A0004091EE055091EF056091F0057091F105D5
:1005B00080915B0390915C03A0915D03B0915E0319
:1005C00084179507A607B70708F086C080916303D4
:1005D0008130E9F030F0823099F1833009F467C05E
:1005E0000895C59880915B0390915C03A0915D0391
:1005F000B0915E0388539F4FAF4FBF4F80935B0313
:1006000090935C03A0935D03B0935E03089598B349
:1006100080E2892788BB80915B0390915C03A09165
:100620005D03B0915E0386509F4FAF4FBF4F8093E5
:100630005B0390935C03A0935D03B0935E03089506
:1006400080915A03811119C081E080935A03C59AA1
:1006500080915B0390915C03A0915D03B0915E0378
:100660008C509E4FAF4FBF4F80935B0390935C03C2
:10067000A0935D03B0935E030895813069F51092F5
:100680005A03C59880915B0390915C03A0915D0330
:10069000B0915E0384529A4FAF4FBF4F80935B037C
:1006A00090935C03A0935D03B0935E030895C59A95
:1006B00080915B0390915C03A0915D03B0915E0318
:1006C00088519C4FAF4FBF4F80935B0390935C0367
:1006D000A0935D03B0935E030895379897B1987F18
:1006E0008770892B87B9379A0895369A3699FECF45
:1006F00084B195B108950E946D030E947503089519
:10070000DC011696ED91FC911797208130E0F901FC
:1007100018960C9002C0F595E7950A94E2F7CF0180
:1007200081700895EDE7F5E0148281E085831486F9
:100730001386128611861686158626E330E03783E7
:10074000268392E09087E0E5F5E0148285831486A5
:100750001386128611861686158637832683808730
:10076000EFE5F5E0148285831486138612861186E0
:10077000168615863783268396E09087EDE3F5E0AD
:100780001482858314861386128611861686158632
:1007900040E350E05783468393E09087EEE2F5E034
:1007A0001482858314861386128611861686158612
:1007B000378326839087EEE6F5E0148285831486DE
:1007C0001386128611861686158669E370E0778394
:1007D0006683A4E0A087ECE8F5E0148285831486A4
:1007E0001386128611861686158643E350E05783DA
:1007F00046838087EBE9F5E01482858314861386AF
:10080000128611861686158637832683A087E0E137
:10081000F5E0148285831486138612861186168667
:100820001586778366839087EFE1F5E014828583F0
:10083000148613861286118616861586578346837C
:1008400010860895DF92EF92FF920F931F93CF933C
:10085000DF934091EE055091EF056091F0057091A6
:10086000F10580914C0590914D05A0914E05B091F8
:100870004F0584179507A607B70708F085C0809134
:10088000EE059091EF05A091F005B091F105449629
:10089000A11DB11D80934C0590934D05A0934E056D
:1008A000B0934F05C0E6D0E00F2EF4E7EF2EF0E056
:1008B000FF2EF02DDD24D3948E01888199810E9432
:1008C0008003E881F98195818917E1F08583813082
:1008D00061F488819981DC011996ED91FC911A9758
:1008E000309709F441C009953FC081113DC088810E
:1008F0009981DC011B96ED91FC911C97309721F0BA
:10090000099502C0811130C0D801ED91FC91808120
:100910009181A281B3810196A11DB11D8083918334
:10092000A283B383D801ED91FC9180819181A28152
:10093000B3818897A105B10510F184818130F9F068
:100940000584F685E02D309719F08DE795E009953F
:10095000D801ED91FC9111971082118212821382BD
:10096000ED91FC91D4820BC0D801ED91FC911197CF
:100970001082118212821382ED91FC9114822296D0
:10098000CE15DF0509F098CFDF91CF911F910F9120
:10099000FF90EF90DF9008950E949203BA98C29A58
:1009A000B998C19ABE98C69A8B98939ABB98C39AE5
:1009B000D498DC9AA198A99ABC98C49AD398DB9A47
:1009C000A098A89A08954091EE055091EF05609186
:1009D000F0057091F1058091680390916903A091F1
:1009E0006A03B0916B0384179507A607B70708F051
:1009F00059C08091CC049091CD0495FF37C080916F
:100A0000640390916503A0916603B0916703892BFD
:100A10008A2B8B2B59F5C09A8091CC049091CD04F0
:100A20009F7D9093CD048093CC0481E090E0A0E082
:100A3000B0E08093640390936503A0936603B09342
:100A400067038091680390916903A0916A03B09154
:100A50006B038C599F4FAF4FBF4F809368039093A8
:100A60006903A0936A03B0936B030895C098109232
:100A700064031092650310926603109267038091DD
:100A8000680390916903A0916A03B0916B03C296C9
:100A9000A11DB11D8093680390936903A0936A031D
:100AA000B0936B030895B89AC0980895E0EBF5E011
:100AB000A4E7B0E011968C911197808313968C91E6
:100AC0001397818315968C911597828317968C9135
:100AD000838308958091B4051F928F9386EA90E0F6
:100AE0009F938F930E940A02E0EBF5E083811F92AF
:100AF0008F9382811F928F9381811F928F93808128
:100B00001F928F9380EB90E09F938F930E940A0235
:100B10008DB79EB70E960FB6F8949EBF0FBE8DBFD1
:100B200008958091B40590E0FC01E055FA4F2081D2
:100B3000FC01EE0FFF1FEC58FF4F3081231728F404
:100B4000FC01E055FA4F2F5F20830E946A0508954B
:100B50008091B40590E0FC01E055FA4F20812223FA
:100B600029F0FC01E055FA4F215020830E946A05CC
:100B700008958091B405833018F48F5F8093B40595
:100B80000E946A0508958091B405882319F0815068
:100B90008093B4050E946A05089560EB75E084E0D7
:100BA0000E942C1188E08093CA058093C505949813
:100BB00096980895CF93E091B50591E09E0F90939C
:100BC000B505F0E0E655FA4F80831F928F938FECC6
:100BD00090E09F938F930E940A02C091B5054C2F1D
:100BE00050E06FE071E08AEA95E00E9451210F9099
:100BF0000F900F900F90892B91F088ED90E09F93CC
:100C00008F930E940A021092B50586E0EAEAF5E0A9
:100C1000DF011D928A95E9F70F900F9035C0C6301D
:100C200099F588EE90E09F938F930E940A0281E0ED
:100C30008093B60583EC95E09093890580938805B1
:100C400089EB95E090935C0580935B058DEC95E0D6
:100C500090936B0580936A0588EA95E090933A0536
:100C60008093390581E995E090937A058093790521
:100C700086E595E0909398058093970567E082E07C
:100C80000E94F5090F900F90CF91089585E00E9482
:100C9000DA05089584E00E94DA05089583E00E9451
:100CA000DA05089582E00E94DA05089581E00E9445
:100CB000DA05089580E00E94DA0508954091EE0576
:100CC0005091EF056091F0057091F10580916C03F2
:100CD00090916D03A0916E03B0916F0384179507F7
:100CE000A607B70708F06BC08091B605813009F000
:100CF00066C08091EE059091EF05A091F005B0914E
:100D0000F105C296A11DB11D80936C0390936D03F4
:100D1000A0936E03B0936F038091CA05873031F4BE
:100D20006091B40586EC95E00E949D098091C5050F
:100D3000873051F4E091B405F0E0E055FA4F60815E
:100D400081EC95E00E949D098091CA05883049F5A3
:100D50008091C505883029F58091EE059091EF05C9
:100D6000A091F005B091F10588519C4FAF4FBF4F56
:100D700080936C0390936D03A0936E03B0936F0305
:100D800083E78093D90581E68093CD0580E7809342
:100D9000CB051092D7058AE08093CA058093C505DC
:100DA00008958091CA058A3051F48091C5058A3032
:100DB00031F41092CA051092C5051092B605089537
:100DC0008AE596E0909389058093880586E596E00C
:100DD00090935C0580935B0582E596E090936B05AC
:100DE00080936A058EE496E090933A0580933905E6
:100DF0008AE496E090937A058093790586E496E0FC
:100E0000909398058093970560EB75E084E00E94CD
:100E10007011E0EBF5E083811F928F9382811F9226
:100E20008F9381811F928F9380811F928F9387EF81
:100E300090E09F938F930E940A02A0EBB5E0E4E755
:100E4000F0E04CE750E08DB79EB70A960FB6F894E5
:100E50009EBF0FBE8DBF20E09C918081891718F442
:100E600081818C932F5F11963296E417F507A1F7D5
:100E7000222329F060EB75E084E00E942C1110928F
:100E8000B50586E0EAEAF5E0DF011D928A95E9F70B
:100E90000895843030F4E82FF0E0E055FA4F808177
:100EA000089580E0089585E191E09F938F930E94DB
:100EB0000A028BEB95E00E94801781E08093B705D2
:100EC000949815BC8F9A979A0F900F90089510924E
:100ED000B70515BC979A949808959091B7059250CC
:100EE00021E030E0933010F020E030E0C9010895B7
:100EF0000E946D07009799F083E291E09F938F9392
:100F00000E940A0215BC979A9498E7EBF5E080815D
:100F1000818381E080830F900F9081E090E00895BD
:100F20008091B7058130D9F4949A85B5806385BDE9
:100F300085B5806485BD85B5816085BDE7EBF5E04D
:100F40008081818384E0808348EE53E060E070E03C
:100F50008BEB95E00E94881781E090E0089580E097
:100F600090E008958091BA0590E0089581E391E0C2
:100F70009F938F930E940A020E94780785E08093D6
:100F8000B7050F900F9008950E946D07009729F004
:100F900083E08093B70581E090E008950E946D079B
:100FA000009729F082E08093B70581E090E00895F2
:100FB000CF93C82F46E950E060E070E080E793E00F
:100FC0000E94D417892B09F458C09091B70593302B
:100FD000E9F028F49130B9F0923041F04EC09430ED
:100FE00009F448C0953009F442C047C0C093BA051F
:100FF0002BEEC29FC001112463E670E00E94D81F4F
:101000006C5E63BD3AC01092BA0537C0C33378F442
:1010100084E18C0F8093BA052BEE829FC0011124CE
:1010200063E670E00E94D81F6C5E63BD26C08DEC45
:101030008C0F843178F48FE08C0F8093BA052BEEFF
:10104000829FC001112463E670E00E94D81F6C5E8D
:1010500063BD13C0C093BA052BEEC29FC00111241B
:1010600063E670E00E94D81F6C5E63BD06C015BCCD
:10107000979A03C082E08093B705CF910895AE9A06
:10108000AD9ADD9ADF9ADE9AAA9AAF9A0895929A5B
:101090001092CE05C79A1092DA05AC9A1092CC0540
:1010A000AB9A1092D8050895A69AA59AD59AD79A80
:1010B000D69AA29AA79A8A9AEFECF5E08DEC95E081
:1010C00091838083BF9A29ED35E033832283A6EC98
:1010D000B5E011963C932E9313969C938E931297A2
:1010E000A49A2BEC35E035832483A39A87ED95E011
:1010F00097838683E1ECF5E03183208393838283B9
:101100000E9447080E943F080895CF93DF93FC0197
:10111000308120917C00321709F495C0EC010E94C7
:101120003F08E8818E2F90E08F3F910508F088C03E
:10113000FC01E65DFF4F0C940E20AE98AD98DD9853
:10114000DF98DE98AA987CC0AD98DD9879C0AE98FB
:10115000AD98AF98DE98DF9873C0AE98AD98AF9811
:10116000DD98DF986DC0AA98AF98AD98DD9868C0FB
:10117000AE98AA98AF98DD98DF9862C0AE98AA980A
:10118000AF98DD98DF98DE985BC0AE98AD98DD989B
:1011900057C0AE98AD98DD98DF98DE98AA98AF98C2
:1011A0004FC0AE98AD98DD98DF98AA98AF9848C028
:1011B000AE98AD98DD98DE98AA98AF9841C0DD98BA
:1011C000DF98DE98AA98AF983BC0AE98DF98DE987B
:1011D000AA9836C0AD98DD98DF98DE98AF9830C0F9
:1011E000AE98DF98DE98AA98AF982AC0AE98DE989D
:1011F000AA98AF9825C0DE98AF9822C0DD98DF98F6
:10120000DE98AF981DC0AE98AD98DE98AA98AF98BA
:1012100017C0AE98DD98DF98AA98AF9811C0DF98F4
:10122000DE98AA980DC0AF980BC0AA9809C0DE98A6
:1012300007C0DF9805C0DD9803C0AD9801C0AE9827
:10124000888180937C00DF91CF910895CF93DF93C5
:10125000EC010E944708CE010E94850885E0CD3C44
:10126000D80729F4929881E08093CE0519C085E0D3
:10127000C93DD80729F4C79881E08093DA0510C0EA
:1012800085E0CB3CD80729F4AC9881E08093CC056D
:1012900007C0C75DD54021F4AB9881E08093D805A5
:1012A000DF91CF910895EF92FF921F93CF93DF9339
:1012B000FC01C081D1812196D183C0839E01ADEC18
:1012C000BCEC0E94142096958795969587959695E7
:1012D00087959C01220F331F880F991F880F991F34
:1012E000880F991F820F931FC817D90701F57F0137
:1012F00010917503143058F4E12FF0E0EE0FFF1F4A
:10130000E153FA4F808191810E94260902C00E9418
:1013100047081F5F153019F01093750302C0109233
:101320007503C039D14019F4F70111821082DF91A1
:10133000CF911F91FF90EF900895FC016436F8F46F
:10134000611108C0A081B1811C920280F381E02D5F
:1013500010820895A081B1819DEC699F912D112487
:101360009695969596959C930280F381E02D892F12
:10137000880F982F990F990F890F681B6083089524
:10138000FC0160830895813039F018F0823039F023
:101390000895609391030895609390030895609376
:1013A0009003609391030895882319F0813029F008
:1013B00008C08091CA0590E008958091C50590E02D
:1013C00008958FEF9FEF08958091CA05863021F42C
:1013D0008091DB058093CA058091C505863021F494
:1013E0008091DC058093C50508958130A1F018F047
:1013F000823009F10895663021F48091CA05809306
:10140000DB058091CA05863019F46093DB050895E9
:101410006093CA050895663021F48091C5058093D4
:10142000DC058091C505863019F46093DC050895CC
:101430006093C5050895663041F48091CA05809394
:10144000DB058091C5058093DC058091CA05863057
:1014500029F46093DC056093DB0508956093CA0569
:101460006093C505089595E09093CA059093C505CE
:1014700080938B03089568EF8DEC95E00E94C0097E
:1014800068EF89ED95E00E94C00968EF8BEC95E06C
:101490000E94C00968EF87ED95E00E94C009089599
:1014A0008091EE059091EF05A091F005B091F105C6
:1014B00040917A0350917B0360917C0370917D038E
:1014C000481759076A077B0708F026C18091CA05AB
:1014D000833009F459C030F4882309F487C081307F
:1014E00039F18EC0853009F474C048F1863009F0B6
:1014F00087C00E946B0220E030E048EC52E40E947A
:10150000691A0E947C1970938A03609389039B0176
:101510003695279536952795ABE7B4E10E941420C0
:1015200096958795682F86EC95E00E949D0968C086
:101530006091910386EC95E00E949D0961C08091C5
:10154000C505843031F081E08093CA058093C505DC
:1015500057C048515C4F6F4F7F4F40937A03509371
:101560007B0360937C0370937D0383E78093D905AD
:1015700081E68093CD0580E78093CB0581E0809361
:10158000CA058093C50508958091C505833031F063
:1015900081E08093CA058093C50532C048515C4FF5
:1015A0006F4F7F4F40937A0350937B0360937C038C
:1015B00070937D038CE68093D9058FE68093CD05EB
:1015C00080E78093CB0581E08093CA058093C505B1
:1015D00017C085E68093D90582E78093CD05609199
:1015E0008B0381EC95E00E949D090AC068EF8DECA9
:1015F00095E00E94C00968EF89ED95E00E94C0095E
:101600008091C505813019F148F1863019F08D308F
:1016100081F16FC04091890350918A039A013695F8
:10162000279536952795ABE7B4E10E94142096954F
:10163000879564E6689F9001699F300D1124BA0177
:10164000621B730B81EC95E00E949D0952C0609172
:10165000900381EC95E00E949D094BC068EF8BECF4
:1016600095E00E94C00968EF87ED95E00E94C009EF
:1016700040C044EF51E060E070E084E893E00E94F5
:10168000D417892BB1F18091830381110EC081E0C1
:101690008093830367EF8BEC95E00E94C00967EFAE
:1016A00087ED95E00E94C00924C0109283038091C9
:1016B0007F0390918003A0918103B09182030097F2
:1016C000A105B10529F461E081E00E94F50911C08E
:1016D0000197A109B10980937F0390938003A093A0
:1016E0008103B093820360917E0381EC95E00E94B8
:1016F0009D0980917A0390917B03A0917C03B09126
:101700007D03C296A11DB11D80937A0390937B0344
:10171000A0937C03B0937D0308950F931F930091D2
:10172000EE051091EF052091F0053091F105DC01F7
:10173000CB01800F911FA21FB31F80938C03909346
:101740008D03A0938E03B0938F0362E0842F0E94D9
:10175000F5091F910F9108958091CA05823029F0F3
:101760008091C505823009F078C04091EE05509116
:10177000EF056091F0057091F105809176039091ED
:101780007703A0917803B091790384179507A60792
:10179000B70708F062C08091EE059091EF05A09127
:1017A000F005B091F10581559F4FAF4FBF4F80932A
:1017B000760390937703A0937803B0937903809195
:1017C000CA05823061F460917E008DEC95E00E9444
:1017D000C00960917E0089ED95E00E94C00980916A
:1017E000C505823061F460917D008BEC95E00E942C
:1017F000C00960917D0087ED95E00E94C00940918D
:10180000EE055091EF056091F0057091F105809122
:101810008C0390918D03A0918E03B0918F03841758
:101820009507A607B70728F461E082E00E94F50952
:10183000C59890917E009F5F90937E0080917D007F
:10184000815080937D009F3F19F499EF90937E0023
:10185000883F19F48EEF80937D000895E199FECFC3
:101860009FBB8EBB6DBBE29AE19A0895E199FECFD2
:101870009FBB8EBBE09A8DB30895CF93C82F809104
:10188000CC049091CD0482609093CD048093CC04DD
:101890008C2F0E94330A0E94B6070E94E0110E941A
:1018A0000E17C093DD05CF9108951092AA031092F0
:1018B000A9031092A8031092A0031092A1038BEA2F
:1018C00093E00E94CA178BE993E00E94CA17109216
:1018D000DD0508951092AA031092A9031092A8039F
:1018E0001092A0031092A1038BEA93E00E94CA1702
:1018F0008BE993E00E94CA171092DD0508954F927C
:101900005F926F927F928F929F92AF92BF92CF928F
:10191000DF92EF92FF924091EE055091EF056091BA
:10192000F0057091F1058091970390919803A09133
:101930009903B0919A0384179507A607B70708F093
:1019400072C28091CC0480FF6EC24091EE0550912E
:10195000EF056091F0057091F1054C505E4F6F4FAF
:101960007F4F40939703509398036093990370932C
:101970009A0381FD58C20E946B024B015C010E94D8
:10198000B207BC0180E090E00E94B2196B017C01BB
:1019900025E935E640ED5FE30E94D61A2B013C01B4
:1019A000A7019601C501B4010E94691A20E030E048
:1019B00048EC52E40E940A194B015C0123E333E333
:1019C00043E651E4C701B6010E94691A20E030E005
:1019D00048EC52E40E940A199B01AC01C501B40114
:1019E0000E949D1820E030E040E450E40E940A1973
:1019F0004B015C0128E539E344E35CE3C301B20138
:101A00000E94691A9B01AC01C501B4010E949E1895
:101A10004B015C0183E00E944907682F70E062532C
:101A20007109072E000C880B990B0E94B419A701AD
:101A300096010E94691A20E030E048EC52E40E94CE
:101A40000A19A50194010E949E186093A403709343
:101A5000A5038093A6039093A70380E00E94D7106C
:101A600042E05BE267E07DE380E00E94F0102091BD
:101A7000A4033091A5034091A6035091A7030E94AF
:101A8000641A181644F40E946D07892B21F081E036
:101A90008093A80302C01092A80381E00E94490726
:101AA00081110DC18091A803813009F0A8C08091F7
:101AB000AA03823009F470C028F4882351F08130E1
:101AC000A9F1FDC0833009F47AC0843009F47BC0E9
:101AD000F6C081E08093AA0380E491E09F938F9306
:101AE0000E940A020E94B2072EE1AC01249FC001AD
:101AF000259F900D112448E853E17A01E81AF90A6C
:101B0000FF92EF928BE591E09F938F930E940A02E0
:101B1000A70160E070E08BEA93E00E9488170F90C5
:101B20000F900F900F900F900F90C9C08BEA93E029
:101B30000E94AA17892B09F4C2C00E94C4070E9400
:101B4000B2072EE1AC01249FC001259F900D112406
:101B500048E853E17A01E81AF90AFF92EF928AE71E
:101B600091E09F938F930E940A02A70160E070E0CA
:101B70008BEA93E00E94881782E08093AA038EE9A3
:101B800091E09F938F930E940A020F900F900F9005
:101B90000F900F900F9093C08BEA93E00E94AA17CA
:101BA000892B09F48CC083E08093AA038EEB91E02B
:101BB0009F938F930E940A020F900F9080C081E044
:101BC0000E943D0C7CC08BEA93E00E94AA17892BEF
:101BD00009F475C040ED57E060E070E08BEA93E0F7
:101BE0000E9488178091A9038093AA038AED91E04F
:101BF0009F938F930E940A020F900F9060C0809174
:101C0000AA03823049F118F4813041F058C0833082
:101C100009F441C0843009F442C051C08BEA93E01A
:101C20000E94AA17892B09F44AC040ED57E060E0F2
:101C300070E08BEA93E00E94881784E08093AA0307
:101C400081E08093A90381E092E09F938F930E94AB
:101C50000A020F900F9033C08BEA93E00E94AA17FC
:101C6000892B69F140ED57E060E070E08BEA93E08A
:101C70000E9488170E94CE0784E08093AA0382E026
:101C80008093A90381E092E09F938F930E940A02C0
:101C90000F900F9014C081E00E943D0C10C08BEAA1
:101CA00093E00E94AA17892B51F08CE192E09F9358
:101CB0008F930E940A021092AA030F900F9080E067
:101CC0000E9449078111AFC082E00E94490790E05D
:101CD000C2969093A3038093A20381E00E94D71041
:101CE0002091A2033091A30328173907D8F43F931A
:101CF0002F9385E392E09F938F930E940A0281E0E5
:101D00008093A0030F900F900F900F908091A103EC
:101D1000813051F1A8F0823009F44BC0833009F4CE
:101D200051C081C01092A0038091A103823009F4B8
:101D300066C0833009F474C0813009F074C046C0B5
:101D400081E08093A1038CE492E09F938F930E94A3
:101D50000A0244EF51E060E070E08BE993E00E94FA
:101D600088170F900F905FC08BE993E00E94AA172D
:101D7000892B09F458C00E944D12049724F083E087
:101D80008093A10350C04CED55E060E070E08BE91A
:101D900093E00E94881782E08093A1030E94411281
:101DA00087E692E09F938F930E940A020F900F9014
:101DB0003AC08BE993E00E94AA17892BA1F11092F7
:101DC000A10331C082E00E943D0C2DC08BE993E05D
:101DD0000E94AA17892B39F140ED57E060E070E0CE
:101DE0008BE993E00E9488171092A10381E892E0AA
:101DF0009F938F930E940A020F900F9014C08BE95B
:101E000093E00E94AA17892B71F01092A10381E838
:101E100092E09F938F930E940A020F900F9003C04D
:101E200082E00E943D0CFF90EF90DF90CF90BF903A
:101E3000AF909F908F907F906F905F904F9008959C
:101E40004EE551E060E070E082E993E00E94D41733
:101E5000892B09F18091DD05813071F492B380E125
:101E6000892782BB8091CC049091CD04906290939D
:101E7000CD048093CC040895823069F492B380E459
:101E8000892782BB8091CC049091CD04906290937D
:101E9000CD048093CC040895FC012081318162300F
:101EA00058F0329691E041915191240F351F3695AB
:101EB00027959F5F6913F7CFC9010895E6EFF3E017
:101EC0002EE134E081EF91E0819391932E173F074B
:101ED000D9F7E5EDF3E083EF93E0119211928E17BD
:101EE0009F07D9F7EDEBF3E081ED93E011921192AA
:101EF0008E179F07D9F70895CF92DF92EF92FF9246
:101F0000CF93DF934091EE055091EF056091F0057E
:101F10007091F1058091B4039091B503A091B6033F
:101F2000B091B70384179507A607B70708F0FCC060
:101F30008091EE059091EF05A091F005B091F1052B
:101F40004496A11DB11D8093B4039093B503A09353
:101F5000B603B093B70380E00E947B03EC0160916D
:101F6000F3037091F40380E090E00E94B21921E73E
:101F70003DE34AE85EE30E94691A6B017C01BE0101
:101F800080E090E00E94B2199B01AC01C701B6014C
:101F90000E949E180E94831970932104609320046C
:101FA00020912204E22FF0E0EE0FFF1FEA50FC4FD9
:101FB0007183608381E0820F8093220482E00E941B
:101FC0007B038032910530F04F979093D403809338
:101FD000D30304C01092D4031092D303E091F5030D
:101FE000F0E0EE0FFF1FEB52FC4F8091D303909176
:101FF000D4039183808381E00E947B032091B80306
:102000003091B9032817390728F41092BB031092B6
:10201000BA0306C0281B390B3093BB032093BA03C5
:102020008091BC03C091BA03D091BB03E82FF0E0CC
:10203000EE0FFF1FE354FC4FC083D1839091F50353
:102040009F5F9093F5038F5F8093BC0364E186EFFD
:1020500093E00E944C0F90931F0480931E046FE046
:1020600085ED93E00E944C0F9093F4038093F3036B
:102070006AE08DEB93E00E944C0F9093D203809323
:10208000D1036091B0037091B1038091B20390913C
:10209000B30320E530E040E050E00E94EC1F672BE6
:1020A000682B692BE1F48091D4038F938091D30343
:1020B0008F93DF93CF93809121048F93809120049D
:1020C0008F938AE992E09F938F930E940A028DB7C3
:1020D0009EB708960FB6F8949EBF0FBE8DBF809135
:1020E000B0039091B103A091B203B091B3030196F4
:1020F000A11DB11D8093B0039093B103A093B203CF
:10210000B093B30380912204843111F4109222041D
:102110008091BC038A3011F41092BC038091F503C6
:102120008F3011F41092F503DF91CF91FF90EF9073
:10213000DF90CF900895CF92DF92EF92FF92CF93EE
:10214000DF93C090EE05D090EF05E090F005F090A1
:10215000F1058CEDC80E85E0D81EE11CF11CCCEE1B
:10216000D5E00E947C0F8A819B81AC81BD81C8161D
:10217000D906EA06FB06A8F78091D1039091D20315
:102180008093B8039093B9039F938F938AEC92E066
:102190009F938F930E940A020F900F900F900F90C1
:1021A000DF91CF91FF90EF90DF90CF900895833033
:1021B00018F4813040F00CC0833079F480911E0413
:1021C00090911F0408958091F3039091F403089572
:1021D0008091D1039091D203089580E090E008951A
:1021E000CF92DF92EF92FF926A017B01833018F465
:1021F000813050F010C08330A9F460911E047091BA
:102200001F0480E090E011C06091F3037091F4032B
:1022100080E090E00AC06091D1037091D20380E029
:1022200090E003C060E070E0CB010E94B21920E0B2
:1022300030E040E85AE30E94691A20E030E040EACA
:1022400050E40E94691AA70196010E940A19FF90A2
:10225000EF90DF90CF900895EF92FF920F931F932E
:10226000CF938B01823059F028F4882391F081308C
:1022700019F130C0833029F1843031F02BC022E0D5
:1022800030E084E090E021C024E030E088E090E09D
:102290001CC06894EE24E1F8F12CC0E0F8016191D3
:1022A0008F018C2F90E00E942E0CCF5F8C2F90E03E
:1022B0008E159F059CF30EC022E030E082E090E096
:1022C00004C022E030E086E090E0C82F7901E80EFB
:1022D000F91EE4CFCF911F910F91FF90EF900895D9
:1022E000EF92FF920F931F93CF938B01823059F09F
:1022F00028F4882391F0813019F130C0833029F11E
:10230000843031F02BC022E030E084E090E021C046
:1023100024E030E088E090E01CC06894EE24E1F80E
:10232000F12CC0E08C2F90E00E94360CF8018193D4
:102330008F01CF5F8C2F90E08E159F059CF30EC010
:1023400022E030E082E090E004C022E030E086E06D
:1023500090E0C82F7901E80EF91EE4CFCF911F91CC
:102360000F91FF90EF900895811105C08CE697E0E2
:102370009BBD8ABD0895823390F490E022273327D5
:10238000281B390B220F331F220F331F220F331F3D
:10239000820F931F885F984F9BBD8ABD0895843636
:1023A00070F4282F30E0225331094BEF4203C00173
:1023B000439F900D112486559A4F9BBD8ABD089569
:1023C00080E00E94B411969885E08093DE05089520
:1023D000CF93DF932FE13EE437BD26BD81B3806309
:1023E00081BB19BC18BC1BBC1ABC8FB582608FBDE9
:1023F0008EB588618EBD8FB580688FBD8EB58260C9
:102400008EBD3BBD2ABD9698CEEDD5E081E0888398
:102410001B8282EE95E00E94801719861092370485
:1024200080EF92E09F938F930E940A020F900F908B
:10243000DF91CF9108959091DE05925021E030E038
:10244000923010F020E030E0C90108959091DE054F
:102450009130A1F4EEEDF5E093E0908383831F9239
:102460008F938DEF92E09F938F930E940A020F90BB
:102470000F900F900F9081E090E0089580E090E041
:1024800008958091DE059FEF980F923028F4EEEDCD
:10249000F5E0818384E0808308958091E70590E0F2
:1024A00008950E941B120097C1F080E00E94B411B1
:1024B000EEEDF5E081E0808313821F921F9284E1AC
:1024C00093E09F938F930E940A0296980F900F902B
:1024D0000F900F9081E090E008952091DE05243068
:1024E00021F40E94761281E090E008958091DF054A
:1024F000823029F48093DE050E94511209C0813098
:1025000071F4EEEDF5E082E0808383810E94901209
:1025100010923704EEEDF5E081858F5F8187089595
:10252000CF93C82F8091DE059FEF980F9330C0F4B2
:10253000EEEDF5E082E08083C3838C2F0E94B4111E
:102540001F92CF9385E293E09F938F930E940A029C
:10255000969A0F900F900F900F9081E090E009C035
:10256000843029F40E94761281E090E002C080E07D
:1025700090E0CF910895CF93DF93C82F4BE450E0C4
:1025800060E070E082E394E00E94D417892B09F4A4
:10259000B6C08091DE058430A1F030F4823059F06D
:1025A000833009F461C09BC0853009F477C0863060
:1025B00009F491C094C0C093E1058C2F0E94B4111E
:1025C0008EC080913704811113C044E650E060E072
:1025D00070E08DE294E00E948817809137048F5F4D
:1025E000809337049091E105890F0E94B41128C0AF
:1025F00081508930C8F48DE294E00E94AA170197B7
:10260000F9F444E650E060E070E08DE294E00E946E
:102610008817809137048F5F809337049091E1058C
:10262000890F0E94B4110CC010923704CEEDD5E092
:102630008B810E94B4118981888389858F5F898706
:102640002091E1058091370490E0820F911D9F93C6
:102650008F9387E393E09F938F930E940A020F90DA
:102660000F900F900F903BC088E294E00E94A0175B
:10267000892B59F088E294E00E94AA17019779F516
:1026800082E08093DE05969A2AC040ED57E060E034
:1026900070E088E294E00E94881721C083E294E011
:1026A0000E94A017892B71F083E294E00E94AA1780
:1026B0000197A9F486E08093DE058FE19EE49BBD3F
:1026C0008ABD0DC040ED57E060E070E083E294E029
:1026D0000E94881704C08FE19EE49BBD8ABD82EEF4
:1026E00095E00E94AA17019751F41092E70585E43E
:1026F00093E09F938F930E940A020F900F90DF91B7
:10270000CF910895EDE7F5E01686158612861186BD
:1027100014861386E0E5F5E0168615861286118686
:102720001486138610926B0510926A05EEE2F5E0AE
:10273000168615861486138612861186EEE6F5E057
:1027400016861586148613861286118610929805B1
:1027500010929705EBE9F5E0148613861686158628
:1027600012861186E0E1F5E014861386168615863A
:1027700012861186EFE1F5E014861386168615861B
:1027800012861186089580914004823049F080912C
:10279000CC049091CD0498609093CD048093CC04A8
:1027A000089580914004823049F08091CC0490914A
:1027B000CD0480689093CD048093CC0408958091DB
:1027C000CC049091CD0492609093CD048093CC047E
:1027D00008958091CC049091CD04997F9093CD047D
:1027E0008093CC041092410408958091CC04909180
:1027F000CD0480629093CD048093CC0408958091A1
:10280000CC049091CD048F799093CD048093CC0427
:102810001092410408958091CC049091CD0490626F
:102820009093CD048093CC048091CF048B3018F02A
:1028300081508093CF046091CF0481E00E94C3094E
:1028400061E082E00E94F50908958091CC049091A6
:10285000CD0490629093CD048093CC048091CF04FA
:10286000833618F48F5F8093CF046091CF0481E0AA
:102870000E94C30961E082E00E94F50908958091F9
:10288000CC049091CD0490629093CD048093CC04BD
:102890008091CE048B3018F081508093CE046091EB
:1028A000CE0480E00E94C30980E00E94D409029710
:1028B00029F461E082E00E94F50904C061E080E053
:1028C0000E94F509809140048F5F8093400482301C
:1028D00019F466E00E94F50908958091CC04909166
:1028E000CD0490629093CD048093CC048091CE046B
:1028F000833618F48F5F8093CE046091CE0480E01D
:102900000E94C30980E00E94D409029729F461E083
:1029100082E00E94F50904C061E080E00E94F509B0
:10292000809140048F5F80934004823019F466E008
:102930000E94F50908950E94E4098091CC049091C9
:10294000CD04977E9093CD048093CC0410924104E3
:1029500080914004882319F081508093400480E0E6
:102960000E94D409029729F461E082E00E94F509EF
:10297000089561E080E00E94F50908950E94E4094D
:102980008091CC049091CD048F779E7F9093CD045D
:102990008093CC041092410480914004882319F064
:1029A00081508093400480E00E94D409029729F46A
:1029B00061E082E00E94F509089561E080E00E94F4
:1029C000F5090895EAEEF5E08091CE0480838091C8
:1029D000CF048183BF0183E00E942C110895809170
:1029E000CC049091CD0490629093CD048093CC045C
:1029F0008091CE048A3038F48AE08093CE046AE075
:102A000080E00E94C3090E94E2140E946D07892B96
:102A100039F40E9490078091CF040E9426120895F5
:102A20000E9478070E94511208958091CC049091E1
:102A3000CD0490629093CD048093CC048091CF0418
:102A40008A3038F48AE08093CF046AE081E00E9403
:102A5000C3090E941B12892B19F00E94511208957C
:102A60008091CF040E94901208958EED95E190938D
:102A700047058093460560E082E00E94F5090E94C8
:102A80003B0A68EE75E083E00E9470118091E905D1
:102A900096EF980F9A3510F48093CF048091E80553
:102AA00096EF980F9A3510F48093CE040895109203
:102AB000400442E068EE73E080E090E00E948D0BFD
:102AC0000E94530780E00E94E8110E94550C0E946A
:102AD0005E0F0E94530581E090E09093CD048093B7
:102AE000CC04EDE7F5E083EC93E1968785878FE3EF
:102AF00094E1948783878BE994E192878187E0E56D
:102B0000F5E081ED93E1968785878DE694E19487E2
:102B100083878EEB94E1928781878FEE94E1909387
:102B20006B0580936A05EEE2F5E08FED93E1968701
:102B3000858789EE93E1928781878BE094E1948782
:102B40008387EEE6F5E085EF93E1968785878FEF43
:102B500093E19287818785E294E19487838785E179
:102B600095E190939805809397056091CE0480E05D
:102B70000E94C3096091CF0481E00E94C3090895B7
:102B8000109240040E9467070E9482130E946A0C00
:102B90000E94E0060E9451121092CD041092CC04C3
:102BA00060E082E00E94F5098091CC049091CD0410
:102BB0008E7F9093CD048093CC0408950E94E214FC
:102BC0008091CC0480FF03C00E94C01502C00E9407
:102BD00057158091CC049091CD0490629093CD04D0
:102BE0008093CC0408954091EE055091EF056091DB
:102BF000F0057091F1058091380490913904A0910D
:102C00003A04B0913B0484179507A607B70708F06C
:102C10009CC08091CC0485FF1DC06091CF046336B9
:102C2000C8F46F5F6093CF0481E00E94C309809174
:102C300044048F5F809344048F3060F08091CC0413
:102C40009091CD048F7D80649093CD048093CC04CB
:102C5000109244048091CC049091CD0491FF1DC04A
:102C60006091CF046623C9F061506093CF0481E086
:102C70000E94C309809143048F5F809343048F3087
:102C800060F08091CC049091CD049D7F94609093EE
:102C9000CD048093CC04109243048091CC0487FF30
:102CA0001DC06091CE046336C8F46F5F6093CE049C
:102CB00080E00E94C309809142048F5F80934204A8
:102CC0008F3060F08091CC049091CD048F7791602B
:102CD0009093CD048093CC04109242048091CC0454
:102CE0009091CD0493FF1DC06091CE046B30C8F06D
:102CF00061506093CE0480E00E94C309809141043A
:102D00008F5F809341048F3060F08091CC0490916C
:102D1000CD04977F90619093CD048093CC04109262
:102D200041048091380490913904A0913A04B09103
:102D30003B04805B9F4FAF4FBF4F8093380490930D
:102D40003904A0933A04B0933B0408954091EE05F2
:102D50005091EF056091F0057091F10580913C0470
:102D600090913D04A0913E04B0913F0484179507D3
:102D7000A607B70708F051C06091CF04633650F43E
:102D80008091CC0486FF06C06F5F6093CF0481E022
:102D90000E94C3096091CF046B3060F08091CC0435
:102DA0009091CD0492FF06C061506093CF0481E002
:102DB0000E94C3096091CE04633660F48091CC0414
:102DC0009091CD0490FF06C06F5F6093CE0480E0C9
:102DD0000E94C3096091CE046B3060F08091CC04F6
:102DE0009091CD0494FF06C061506093CE0480E0C2
:102DF0000E94C30980913C0490913D04A0913E043F
:102E0000B0913F044E96A11DB11D80933C04909358
:102E10003D04A0933E04B0933F0408950E948213A2
:102E200008951F920F920FB60F9211242F933F9384
:102E30004F935F936F937F938F939F93AF93BF93C2
:102E4000EF93FF93ECEEF5E080819181C296918340
:102E5000808380819181883E934088F08281938134
:102E6000A481B5810196A11DB11D82839383A483A2
:102E7000B58380819181885E93409183808385E4CE
:102E800094E00E945309FF91EF91BF91AF919F9100
:102E90008F917F916F915F914F913F912F910F9003
:102EA0000FBE0F901F90189593B7986093BF6CBF9B
:102EB000823099F028F4882341F0813051F019C014
:102EC000833079F0843089F014C083B7816083BF88
:102ED00013C083B7826083BF0FC083B7836083BF93
:102EE0000BC083B7846083BF07C083B7856083BF8F
:102EF00003C083B7816083BF89B7826089BF0895AB
:102F000023E0FC012483108211821282138208952F
:102F10000F931F9321E0FC0124830091EE05109193
:102F2000EF052091F0053091F105400F511F621F10
:102F3000731F40835183628373831F910F910895A0
:102F400021E030E0FC018481813011F020E030E0AC
:102F5000C9010895FC0184818130B1F48091EE05AE
:102F60009091EF05A091F005B091F105408151815C
:102F700062817381481759076A077B0740F482E032
:102F8000848381E090E008958FEF9FEF089580E0C3
:102F900090E0089521E030E0FC018481833011F05D
:102FA00020E030E0C9010895CF92DF92EF92FF92C6
:102FB0000F931F93CF93DF93EC016A017B018C8108
:102FC000811106C083E08C83188219821A821B82C9
:102FD000CE010E94AA178C01019731F4B701A60116
:102FE000CE010E9488170DC08C81833041F4B70157
:102FF000A601CE010E94881700E010E002C000E0A8
:1030000010E0C801DF91CF911F910F91FF90EF90D9
:10301000DF90CF9008951F920F920FB60F92112458
:103020002F933F934F935F938F939F93EF93FF93D0
:103030002BB13CB128718091490490E001964091F8
:10304000480450E08417950739F080934904FC0147
:10305000E45BFB4F308301C022E020934704FF91E3
:10306000EF919F918F915F914F913F912F910F9091
:103070000FBE0F901F9018951F920F920FB60F92D0
:1030800011248F939F93EF93FF9390914B04809122
:103090004A04981771F080914A0490E001968F7766
:1030A000992780934A04FC01E45BFB4F80818CB933
:1030B00001C05598FF91EF919F918F910F900FBE96
:1030C0000F901F901895F89410924B0410924A0498
:1030D0001092490410924804789499231CF422E039
:1030E0002BB99F7790BD89B988E98AB986E880BDF8
:1030F000089540914B0450E04F5F5F4F4F77552745
:1031000020914A0430E042175307D1F3FA01E45BFF
:10311000FB4F808340934B04559A0895CF93DF93E0
:10312000EC018881882331F021960E9479188991D9
:103130008111FBCFDF91CF9108955058BB27AA276B
:103140000E94B5180C942A1A0E941C1A38F00E948A
:10315000231A20F039F49F3F19F426F40C94191A1D
:103160000EF4E095E7FB0C94131AE92F0E943B1A2A
:1031700058F3BA17620773078407950720F079F4AC
:10318000A6F50C945D1A0EF4E0950B2EBA2FA02D27
:103190000B01B90190010C01CA01A0011124FF2704
:1031A000591B99F0593F50F4503E68F11A16F040FF
:1031B000A22F232F342F4427585FF3CF46953795FE
:1031C0002795A795F0405395C9F77EF41F16BA0BC3
:1031D000620B730B840BBAF09150A1F0FF0FBB1F71
:1031E000661F771F881FC2F70EC0BA0F621F731FBA
:1031F000841F48F4879577956795B795F7959E3F17
:1032000008F0B0CF9395880F08F09927EE0F9795A7
:10321000879508950E941E190C942A1A0E94231A59
:1032200058F00E941C1A40F029F45F3F29F00C94DA
:10323000131A51110C945E1A0C94191A0E943B1A1D
:1032400068F39923B1F3552391F3951B550BBB27D5
:10325000AA2762177307840738F09F5F5F4F220F1A
:10326000331F441FAA1FA9F335D00E2E3AF0E0E811
:1032700032D091505040E695001CCAF72BD0FE2F5B
:1032800029D0660F771F881FBB1F261737074807EF
:10329000AB07B0E809F0BB0B802DBF01FF279358A7
:1032A0005F4F3AF09E3F510578F00C94131A0C943E
:1032B0005E1A5F3FE4F3983ED4F386957795679561
:1032C000B795F7959F5FC9F7880F911D96958795DC
:1032D00097F90895E1E0660F771F881FBB1F6217FB
:1032E00073078407BA0720F0621B730B840BBA0BB9
:1032F000EE1F88F7E09508950E9483196894B11134
:103300000C945E1A08950E94431A88F09F5798F013
:10331000B92F9927B751B0F0E1F0660F771F881FDA
:10332000991F1AF0BA95C9F714C0B13091F00E94F4
:103330005D1AB1E008950C945D1A672F782F8827E5
:10334000B85F39F0B93FCCF3869577956795B3951B
:10335000D9F73EF490958095709561957F4F8F4F8A
:103360009F4F0895E89409C097FB3EF4909580958F
:10337000709561957F4F8F4F9F4F9923A9F0F92F3B
:1033800096E9BB279395F695879577956795B795B9
:10339000F111F8CFFAF4BB0F11F460FF1BC06F5F9F
:1033A0007F4F8F4F9F4F16C0882311F096E911C0B1
:1033B000772321F09EE8872F762F05C0662371F0D2
:1033C00096E8862F70E060E02AF09A95660F771FE6
:1033D000881FDAF7880F9695879597F90895990FC2
:1033E0000008550FAA0BE0E8FEEF16161706E807CF
:1033F000F907C0F012161306E407F50798F0621BF0
:10340000730B840B950B39F40A2661F0232B242BC4
:10341000252B21F408950A2609F4A140A6958FEFE3
:10342000811D811D089597F99F6780E870E060E035
:1034300008959FEF80EC089500240A94161617064D
:1034400018060906089500240A9412161306140695
:1034500005060895092E0394000C11F4882352F0F8
:10346000BB0F40F4BF2B11F460FF04C06F5F7F4FB0
:103470008F4F9F4F089557FD9058440F551F59F097
:103480005F3F71F04795880F97FB991F61F09F3F51
:1034900079F087950895121613061406551FF2CF7A
:1034A0004695F1DF08C0161617061806991FF1CFCA
:1034B00086957105610508940895E894BB276627F1
:1034C0007727CB0197F908950E94EF1908F48FEF41
:1034D00008950E947C1A0C942A1A0E941C1A38F033
:1034E0000E94231A20F0952311F00C94131A0C94C7
:1034F000191A11240C945E1A0E943B1A70F3959FBE
:10350000C1F3950F50E0551F629FF001729FBB27DA
:10351000F00DB11D639FAA27F00DB11DAA1F649F76
:103520006627B00DA11D661F829F2227B00DA11D29
:10353000621F739FB00DA11D621F839FA00D611DAF
:10354000221F749F3327A00D611D231F849F600DD0
:10355000211D822F762F6A2F11249F5750409AF0F9
:10356000F1F088234AF0EE0FFF1FBB1F661F771F85
:10357000881F91505040A9F79E3F510580F00C9450
:10358000131A0C945E1A5F3FE4F3983ED4F38695C9
:1035900077956795B795F795E7959F5FC1F7FE2BF0
:1035A000880F911D9695879597F90895FA01EE0F6A
:1035B000FF1F309621053105A1F16115710561F4F8
:1035C0008038BFE39B0749F168949038810561F02A
:1035D0008038BFEF9B0741F099234AF5FF3FE10593
:1035E0003105210519F1E8940894E795D901AA233A
:1035F00029F4AB2FBE2FF85FD0F310C0FF5F70F43B
:10360000A695E0F7F73950F019F0FF3A38F49F77B4
:103610009F930DD00F9007FC9058089546F00C949E
:10362000191A60E070E080E89FE308954FE79F7704
:103630005F934F933F932F930E94D11B2F913F9104
:103640004F915F910E94691A0C942E1B29F416F079
:103650000C94131A0C945D1A0C94191A0E94431AB4
:10366000A8F39638A0F707F80F92E8942BE33AEA0C
:1036700048EB5FE70E947F1A0F920F920F924DB7AF
:103680005EB70F920E94191CE2E5F2E00E94601BF7
:103690004F915F91EF91FF91E595EE1FFF1F49F06C
:1036A000FE57E0684427EE0F441FFA95E1F7419575
:1036B000550B0E94931B0F9007FE0C94871B0895D7
:1036C000DF93CF931F930F93FF92EF92DF927B01D3
:1036D0008C01689406C0DA2EEF010E947C1AFE016C
:1036E000E894A5912591359145915591A6F3EF0167
:1036F0000E94B518FE019701A801DA9469F7DF90DE
:10370000EF90FF900F911F91CF91DF9108959B0152
:10371000AC0160E070E080E89FE30C940A190C941F
:10372000131A0C944D1C0E94431AD8F39923C9F321
:10373000940F511DA3F39150504094F059F08823F9
:1037400032F0660F771F881F91505040C1F79E3F9F
:1037500051052CF7880F911D9695879597F9089537
:103760005F3FACF0983E9CF0BB27869577956795B8
:10377000B79508F4B1609395C1F7BB0F58F711F4F2
:1037800060FFE8CF6F5F7F4F8F4F9F4FE3CF0C9469
:103790005E1A16F00C944D1C0C94191A68940C9433
:1037A000131A0E94431AA8F39923C1F3AEF3DF93CF
:1037B000CF931F930F93FF92C92FDD2788232AF001
:1037C0002197660F771F881FDAF720E030E040E886
:1037D0005FEB9FE3883920F0803E38F021968F77A9
:1037E0000E949E18EAE7F2E004C00E949E18E7EAF1
:1037F000F2E00E94601B8B01BE01EC01FB2E6F57B3
:1038000071097595771F880B990B0E94B41928E1EF
:1038100032E741E35FE30E947C1AAF2D9801AE01CD
:10382000FF900F911F91CF91DF910E94B5180C94DA
:103830002A1AFA01DC01AA0FBB1F9B01AC01BF577A
:1038400028F4222733274427507820C0B75190F41A
:10385000AB2F0024469537952795011CA395D2F3ED
:10386000002071F0220F331F441FB395DAF30ED0FE
:103870000C949D1861307105A0E88A07B94630F4B0
:103880009B01AC016627772788279078309621F036
:10389000208331834283538308959F3F31F09150B9
:1038A00020F4879577956795B795880F911D969524
:1038B000879597F90895A0E1B0E0E1E6FCE10C946A
:1038C00023207C011B016A01FC011782168283817F
:1038D00081FF44C39E012F5F3F4F3901F701938160
:1038E000F10193FD859193FF81911F01882309F4D4
:1038F00031C3853239F493FD859193FF81911F0186
:10390000853239F4B70190E00E94692156016501C2
:10391000E5CF10E0512C912CFFE1F915D8F08B3256
:1039200079F038F4803279F08332A1F4F92DF06126
:103930002EC08D3261F0803369F4292D21602DC0B5
:10394000392D3260932E892D8460982E2AC0E92D5E
:10395000E86015C097FC2DC020ED280F2A3088F4B0
:1039600096FE06C03AE0139F200D1124122F19C0B5
:103970008AE0589E200D1124522EE92DE0629E2EE1
:1039800010C08E3231F496FCE5C2F92DF0649F2E02
:1039900008C08C3621F4292D2068922E02C088366A
:1039A00041F4F10193FD859193FF81911F018111F4
:1039B000B3CF9BEB980F933020F4992D9061805EEC
:1039C00007C09BE9980F933008F066C1992D9F7E40
:1039D00096FF16E09F73992E853619F49064992E00
:1039E00008C0863621F4392F3068932E02C0111199
:1039F000115097FE07C01C3350F444244394410EE9
:103A000027E00BC0183038F027E017E005C027E0AA
:103A10009CE3492E02C0212F412C560184E0A80EC0
:103A2000B11CF6016081718182819381042DA30113
:103A30000E946E206C01F981FC87F0FF02C0F3FF49
:103A400006C091FC06C092FE06C000E205C00DE271
:103A500003C00BE201C000E08C858C7019F00111ED
:103A60005AC29BC297FE10C04C0CFC85F4FF04C0E8
:103A70008A81813309F44A94141474F528E02415DA
:103A800078F588E0482E2CC096FC2AC0812F90E063
:103A90008C159D059CF03CEFC3163FEFD30674F0E8
:103AA000892D8068982E0AC0E2E0F0E0EC0FFD1F3F
:103AB000E10FF11D8081803319F411501111F4CF01
:103AC00097FE0EC044244394410E812F90E0C81607
:103AD000D9062CF41C1904C04424439401C010E0FE
:103AE00097FE06C01C141D0434F4C601019605C0DF
:103AF00085E090E002C081E090E001110196112381
:103B000031F0212F30E02F5F3F4F820F931F252D83
:103B100030E08217930714F4581A01C0512C892DF4
:103B2000897049F4552039F0B70180E290E00E9495
:103B300069215A94F7CF002329F0B701802F90E034
:103B40000E94692193FC09C0552039F0B70180E338
:103B500090E00E9469215A94F7CF97FE4CC046012D
:103B6000D7FE02C0812C912CC60188199909F30156
:103B7000E80FF91FFE87ED87960124193109388B6C
:103B80002F87012F10E01195019511093FEF831642
:103B9000930629F4B7018EE290E00E946921C814CF
:103BA000D9044CF08F8598898815990524F4ED8502
:103BB000FE85818101C080E3F1E08F1A91082D8597
:103BC0003E852F5F3F4F3E872D87801691062CF054
:103BD000B70190E00E946921D9CFC814D90441F4FB
:103BE0009A81963320F4953319F43C8534FF81E3B0
:103BF000B70190E04EC08A81813319F09C859F7E89
:103C00009C87B70190E00E946921111105C094FCC6
:103C100018C085E690E017C0B7018EE290E00E94E0
:103C200069211E5F82E001E0080FF301E80FF11D3A
:103C30008081B70190E00E946921802F0113F3CFAA
:103C4000E6CF85E490E0B7010E946921D7FC06C069
:103C5000C114D10441F4EC85E4FF05C0D194C194B2
:103C6000D1088DE201C08BE2B70190E00E9469218A
:103C700080E32AE0C216D1042CF08F5FFAE0CF1A5D
:103C8000D108F7CFB70190E00E946921B701C601C2
:103C9000C0960E94692154C1833631F0833779F090
:103CA000833509F056C020C0560132E0A30EB11C86
:103CB000F6018081898301E010E0630112C05601A2
:103CC000F2E0AF0EB11CF601C080D18096FE03C0B9
:103CD000612F70E002C06FEF7FEFC6010E945E218E
:103CE0008C01F92DFF7714C0560122E0A20EB11C01
:103CF000F601C080D18096FE03C0612F70E002C043
:103D00006FEF7FEFC6010E9446218C01F92DF0680C
:103D10009F2EF3FD1AC0852D90E008171907A8F40F
:103D2000B70180E290E00E9469215A94F4CFF60135
:103D300097FC859197FE81916F01B70190E00E94F9
:103D4000692151105A94015011090115110579F793
:103D5000F7C0843611F0893661F5560197FE09C027
:103D600024E0A20EB11CF6016081718182819381F1
:103D70000AC0F2E0AF0EB11CF60160817181072E1E
:103D8000000C880B990BF92DFF769F2E97FF09C029
:103D900090958095709561957F4F8F4F9F4FF068FC
:103DA0009F2E2AE030E0A3010E94C121C82EC61830
:103DB0003FC0092D853721F40F7E2AE030E01DC079
:103DC000097F8F3691F018F4883559F0C3C08037D9
:103DD00019F0883711F0BEC0006104FF09C004600B
:103DE00007C094FE08C0066006C028E030E005C0A9
:103DF00020E130E002C020E132E0560107FF09C0B7
:103E000084E0A80EB11CF6016081718182819381EA
:103E100008C0F2E0AF0EB11CF6016081718180E054
:103E200090E0A3010E94C121C82EC6180F77902EE2
:103E300096FE0BC0092D0E7FC11650F494FE0AC0E9
:103E400092FC08C0092D0E7E05C0DC2C092D03C094
:103E5000DC2C01C0D12E04FF0DC0FE01EC0DF11DC4
:103E60008081803311F4097E09C002FF06C0D3941B
:103E7000D39404C0802F867809F0D39403FD11C039
:103E800000FF06C01C2DD51480F4150D1D190DC0A2
:103E9000D51458F4B70180E290E00E946921D394D0
:103EA000F7CFD51410F45D1801C0512C04FF10C0D9
:103EB000B70180E390E00E94692102FF17C001FD75
:103EC00003C088E790E002C088E590E0B7010CC02D
:103ED000802F867859F001FF02C08BE201C080E29A
:103EE00007FD8DE2B70190E00E946921C11638F408
:103EF000B70180E390E00E9469211150F7CFCA9486
:103F0000F301EC0DF11D8081B70190E00E94692161
:103F1000C110F5CF15C0F4E0F51560F584E0581A2E
:103F200093FE1FC0011127C02C8523FF2AC004ED7A
:103F300012E0392D3071932EF8018491811124C043
:103F4000552009F4E4CCB70180E290E00E94692199
:103F50005A94F6CFF7018681978126C08FEF9FEFA5
:103F600023C0B70180E290E00E9469215A94511069
:103F7000F8CFD8CF512CB701802F90E00E94692153
:103F8000D3CF08ED12E0D5CF91108052B70190E069
:103F90000E9469210F5F1F4FCFCF23E0251510F43A
:103FA00083E0BDCF512CC0CF6096E2E10C943F205E
:103FB00097FB072E16F4009407D077FD09D00E94D6
:103FC0005A2007FC05D03EF4909581959F4F0895A7
:103FD000709561957F4F0895A1E21A2EAA1BBB1B15
:103FE000FD010DC0AA1FBB1FEE1FFF1FA217B307C5
:103FF000E407F50720F0A21BB30BE40BF50B661FDB
:10400000771F881F991F1A9469F76095709580959E
:1040100090959B01AC01BD01CF010895EE0FFF1FEC
:104020000590F491E02D0994A29FB001B39FC001C7
:10403000A39F700D811D1124911DB29F700D811DD4
:104040001124911D08952F923F924F925F926F928B
:104050007F928F929F92AF92BF92CF92DF92EF9218
:10406000FF920F931F93CF93DF93CDB7DEB7CA1B99
:10407000DB0B0FB6F894DEBF0FBECDBF09942A88C4
:10408000398848885F846E847D848C849B84AA846C
:10409000B984C884DF80EE80FD800C811B81AA81F9
:1040A000B981CE0FD11D0FB6F894DEBF0FBECDBFC4
:1040B000ED010895AA1BBB1B51E107C0AA1FBB1F3E
:1040C000A617B70710F0A61BB70B881F991F5A95A4
:1040D000A9F780959095BC01CD010895283008F08E
:1040E00027E03327DA01990F311D87FD9160009693
:1040F0006105710539F432602E5F3D9330E32A95F6
:10410000E1F708959F3F30F080387105610509F0AF
:104110003C5F3C5F3D93913008F08068911DDF93D8
:10412000CF931F930F93FF92EF92192F987F96953D
:10413000E92F96959695E90FFF27EA5CFC4F9927A2
:104140003327EE24FF24A701E70105900894079484
:1041500028F4360FE71EF81E491F511D660F771F02
:10416000881F991F0694A1F70590079428F4E70E7D
:10417000F81E491F561FC11D770F881F991F661F04
:104180000694A1F70590079428F4F80E491F561FCE
:10419000C71FD11D880F991F661F771F0694A1F7AF
:1041A0000590079420F4490F561FC71FD81F990F79
:1041B000661F771F881F0694A9F7849110951770C2
:1041C00041F0D695C79557954795F794E7941A957A
:1041D000C1F7ECEDF2E06894159015913591659179
:1041E000959105907FE27395E118F10A430B560B08
:1041F000C90BD009C0F7E10CF11E431F561FC91FA0
:10420000D01D7EF4703311F48A95E6CFE894015006
:1042100030F0080F0AF40027021708F4202F239526
:10422000022F7A3328F079E37D932A95E9F710C0BD
:104230007D932A9589F606949795679537951795F6
:104240001794E118F10A430B560BC90BD00998F0EB
:1042500023957E9173957A3308F070E37C93201355
:10426000B8F77E9170617D9330F0839571E37D9313
:1042700070E32A95E1F71124EF90FF900F911F91C1
:10428000CF91DF91992787FD90950895FC010590C6
:10429000615070400110D8F7809590958E0F9F1F48
:1042A0000895FB01DC0104C08D910190801921F477
:1042B00041505040C8F7881B990B0895FC0161508C
:1042C000704001900110D8F7809590958E0F9F1F38
:1042D00008950F931F93CF93DF93FB01238121FD5B
:1042E00003C08FEF9FEF2CC022FF16C0468157817D
:1042F000248135814217530744F4A081B1819D0187
:104300002F5F3F4F318320838C93268137812F5F2E
:104310003F4F3783268314C08B01EC01FB010084DF
:10432000F185E02D0995892BE1F6D80116968D913E
:104330009C911797019617969C938E931697CE0192
:10434000DF91CF911F910F910895AEE0B0E0EBEABD
:10435000F1E20C9431208C0186E08C831A8309836E
:104360008FEF9FE79E838D83CE0101960E945B1C99
:10437000EF81F885E00FF11F10822E96E4E00C9497
:104380004D20FA01AA27283051F1203181F1E8941B
:104390006F936E7F6E5F7F4F8F4F9F4FAF4FB1E038
:1043A0003ED0B4E03CD0670F781F891F9A1FA11D33
:1043B000680F791F8A1F911DA11D6A0F711D811D34
:1043C000911DA11D20D009F468943F912AE0269FF9
:1043D00011243019305D3193DEF6CF010895462F58
:1043E0004770405D4193B3E00FD0C9F7F6CF462F39
:1043F0004F70405D4A3318F0495D31FD40524193A2
:1044000002D0A9F7EACFB4E0A6959795879577955E
:104410006795BA95C9F700976105710508959B01E5
:10442000AC010A2E06945795479537952795BA956E
:10443000C9F7620F731F841F951FA01D0895F8947C
:02444000FFCFAC
:104442007D0550055F053D052E056E058C059B0516
:1044520010051F050100010063326332FFFEF92FD0
:104462002D2D2D2D2D2D2D2D2D2D2D5354415254CD
:104472002053595354454D2D2D2D2D2D2D2D2D2DA0
:104482002D2D2D2F0A00636F6E663A2025640A00D7
:104492006D656E7520616674657220636865636B15
:1044A2002025642025642025642025640A0D0070DF
:1044B2006173732025640A00636C6561725F7061C9
:1044C2007373776F72640A00656E7465725F746FDE
:1044D2005F6D656E750A006D656E755F726561640C
:1044E2002025642025642025642025640A0D00010E
:1044F200000204030564636D6F746F7220696E6954
:10450200740A0064636D6F746F722073746F700A43
:104512000064636D6F746F72206572726F720A004D
:104522004552524F52205354415455533A2045520A
:10453200525F4D5F574149540A0D00636F756E74A7
:104542005F6D6F746F725F74696D656F75745F779D
:104552006169743A2025640A0D00636F756E745F99
:104562006D6F746F725F74696D656F75745F61787A
:10457200656C65726174653A2025640A0D004552C6
:10458200524F52205354415455533A204552525F90
:104592004D5F4158454C45524154450A0D00455224
:1045A200524F52205354415455533A204552525F70
:1045B2004D5F4552524F520A0D004552524F522002
:1045C2005354415455533A20676F20746F206C61E5
:1045D2007374206265666F726520776169740A0D73
:1045E200004552524F52205354415455533A20459C
:1045F20052525F4D5F455849540A0D004552524F81
:1046020052205354415455533A204552525F4D5F04
:104612004F4B0A0D00736572766F5F6572726F722F
:104622005F76616C75653A2025640A004552524FE7
:1046320052205354415455533A204552525F535FCE
:10464200574149540A0D004552524F52205354418A
:104652005455533A204552525F535F5452590A0DF2
:10466200004552524F52205354415455533A20451B
:1046720052525F535F4F4B0A0D004144435F6E6FCE
:10468200742066696C74657265643A20616363754F
:104692006D2025642C20736572766F2025642C2092
:1046A2006D6F746F722025640A004D454153555257
:1046B2004520534552564F2043616C6962726174C2
:1046C200696F6E2076616C7565203D2025640A0055
:1046D200534552564F3A20696E69740A0053455247
:1046E200564F5F44454C415945445F4F50454E201B
:1046F20025640A00534552564F5F434C4F5345447D
:104702002025640A00534552564F5F4F5050454E84
:1047120045442025640A00534552564F5F5452596E
:104722002025640A00534552564F3A205A65726F4B
:0A4732002074727920636E740A008F
:00000001FF
