S01600006E6F77795F737465726F776E696B2E73726563FC
S11300000C9429010C9446010C9446010C9446016D
S11300100C9446010C9446010C9446010C94460140
S11300200C9446010C9446010C9455130C9446010F
S11300300C9446010C9445140C9476140C944601CB
S11300400C9446010C9446010C9446010C94460110
S11300500C944601B405BB05BE05C405CA05CF050D
S1130060D505DC05E005E80537063706370637060B
S11300703706370637063706370637063706370694
S11300803706370637063706370637063706370684
S11300903706370637063706370637063706370674
S11300A03706370637063706370637063706370664
S11300B03706370637063706370637063706370654
S11300C03706370637063706370637063706370644
S11300D03706370637063706370637063706370634
S11300E03706370637063706370637063706370624
S11300F03706370637063706370637063706370614
S11301003706370637063706370637063706370603
S1130110370637063706EF05F605FC050106070620
S11301200D0637063706370637063706260637061E
S1130130370615061A06370612062006370637064E
S113014037063706370637063706370637063706C3
S113015037063706370637063706370637063706B3
S113016037063706370637063706370637063706A3
S11301703706370637063706370637063706370693
S11301803706370637063706370637063706370683
S11301903706370637063706370637063706370673
S11301A03706370637063706370637063706370663
S11301B03706370637063706370637063706370653
S11301C03706370637063706370637063706370643
S11301D03706370637063706370637063706370633
S11301E03706370637063706370637063706370623
S11301F03706370637063706370637063706370613
S11302003706370637063706370637063706370602
S113021037063706370637063706370637063706F2
S113022037063706370637063706370637063706E2
S113023037063706370637063706370637063706D2
S1130240370637062A0636063406320630062E06E8
S11302502C0611241FBECFE5D8E0DEBFCDBF12E0CF
S1130260A0E6B0E0E2EFF3E302C005900D92A236FF
S1130270B107D9F724E0A2E6B2E001C01D92A53C83
S1130280B207E1F70E946F010C94F7190C94000077
S1130290CF93DF93CDB7DEB7AE014B5F5F4FFA016B
S11302A061917191AF0180EB93E00E941317DF918C
S11302B0CF9108958C9A8E9ABD9A899A089562E393
S11302C081E00E9498130E946B050E9402040E9420
S11302D07B110E941C0D80B78B7F80BF08950E9404
S11302E05A0178940E945F0187E790E09F938F936F
S11302F00E9448010F900F900E9452070E94AE087E
S11303000E9458030E9435120E94E8128091AE03A5
S11303100E94EF048091AF030E944A0F0E9480095B
S11303200E94DE0C0E943A0D0E94BD010E9406024A
S11303300E941904E1CF83E00E94F50DBC01660F11
S1130340771F660F771F860F971FBC0180E090E030
S11303500E94B71526E636E646EB50E40E9469167D
S113036020E030E040E85AE30E94691623E333E3D7
S113037043E35FE30E949E1408954091C1045091A9
S1130380C2046091C3047091C40480916702909187
S11303906802A0916902B0916A0284179507A607C2
S11303A0B70798F583E00E94F50D893522E092079E
S11303B018F021E020936B028B3821E0920718F4A7
S11303C022E020936B028E3521E0920718F423E09B
S11303D020936B028C5891408C3C910510F4109240
S11303E06B028091C1049091C204A091C304B091A6
S11303F0C4048C599F4FAF4FBF4F809367029093B3
S11304006802A0936902B0936A0208954091C104FE
S11304105091C2046091C3047091C404809163023A
S113042090916402A0916502B091660284179507C9
S1130430A607B70708F086C080916B028130E9F007
S113044030F0823099F1833009F467C00895C5987B
S11304508091630290916402A0916502B09166025A
S113046088539F4FAF4FBF4F8093630290936402B2
S1130470A0936502B0936602089598B380E2892739
S113048088BB8091630290916402A0916502B0914F
S1130490660286509F4FAF4FBF4F80936302909385
S11304A06402A0936502B09366020895809162028B
S11304B0811119C081E080936202C59A8091630220
S11304C090916402A0916502B09166028C509E4F97
S11304D0AF4FBF4F8093630290936402A093650271
S11304E0B09366020895813069F510926202C5984E
S11304F08091630290916402A0916502B0916602BA
S113050084529A4FAF4FBF4F80936302909364021B
S1130510A0936502B09366020895C59A8091630220
S113052090916402A0916502B091660288519C4F3B
S1130530AF4FBF4F8093630290936402A093650210
S1130540B09366020895379897B1987F8770892B86
S113055087B9379A0895369A3699FECF84B195B102
S113056008950E94A3020E94AB020895DC0116962E
S1130570ED91FC911797208130E0F90118960C90C9
S113058002C0F595E7950A94E2F7CF0181700895CA
S1130590EDE5F4E0148281E08583148613861286E7
S11305A011861686158626E330E03783268392E08B
S11305B09087E0E3F4E01482858314861386128620
S11305C0118616861586378326838087EFE3F4E049
S11305D014828583148613861286118616861586E0
S11305E03783268396E09087EDE1F4E014828583D7
S11305F014861386128611861686158640E350E00B
S11306005783468393E09087EEE0F4E01482858379
S113061014861386128611861686158637832683DA
S11306209087EEE4F4E014828583148613861286A0
S113063011861686158669E370E077836683A4E0E5
S1130640A087ECE6F4E01482858314861386128670
S113065011861686158643E350E0578346838087C8
S1130660EBE7F4E0148285831486138612861186E0
S11306701686158637832683A087E0EFF3E014827D
S113068085831486138612861186168615867783CB
S113069066839087EFEFF3E01482858314861386D4
S11306A0128611861686158657834683108608950A
S11306B0DF92EF92FF920F931F93CF93DF934091BA
S11306C0C1045091C2046091C3047091C404809128
S11306D02C0490912D04A0912E04B0912F04841722
S11306E09507A607B70708F085C08091C1049091CB
S11306F0C204A091C304B091C4044496A11DB11DC9
S113070080932C0490932D04A0932E04B0932F0473
S1130710C0E6D0E00F2EF4E7EF2EF0E0FF2EF02D30
S1130720DD24D3948E01888199810E94B602E881E8
S1130730F98195818917E1F08583813061F488819D
S11307409981DC011996ED91FC911A97309709F47F
S113075041C009953FC081113DC088819981DC0168
S11307601B96ED91FC911C97309721F0099502C0DE
S1130770811130C0D801ED91FC9180819181A281D9
S1130780B3810196A11DB11D80839183A283B3839C
S1130790D801ED91FC9180819181A281B3818897E8
S11307A0A105B10510F184818130F9F00584F68545
S11307B0E02D309719F08DE594E00995D801ED917D
S11307C0FC9111971082118212821382ED91FC9197
S11307D0D4820BC0D801ED91FC9111971082118243
S11307E012821382ED91FC9114822296CE15DF05BC
S11307F009F098CFDF91CF911F910F91FF90EF9067
S1130800DF9008950E94C802BA98C29AB998C19A12
S1130810BE98C69A8B98939ABB98C39AD498DC9A3C
S1130820A198A99ABC98C49AD398DB9AA098A89A3C
S113083008954091C1045091C2046091C304709121
S1130840C4048091700290917102A0917202B091DF
S1130850730284179507A607B70708F059C080915B
S1130860AC039091AD0395FF37C080916C029091D9
S11308706D02A0916E02B0916F02892B8A2B8B2B93
S113088059F5C09A8091AC039091AD039F7D9093EC
S1130890AD038093AC0381E090E0A0E0B0E08093EE
S11308A06C0290936D02A0936E02B0936F028091DC
S11308B0700290917102A0917202B09173028C59EE
S11308C09F4FAF4FBF4F8093700290937102A093DC
S11308D07202B09373020895C09810926C02109241
S11308E06D0210926E0210926F02809170029091CC
S11308F07102A0917202B0917302C296A11DB11D42
S11309008093700290937102A0937202B093730269
S11309100895B89AC09808958EE894E00E94C4138C
S113092081E080938A04949815BC8F9A97980895CF
S113093010928A0415BC97989498089590918A040B
S1130940925021E030E0933010F020E030E0C90113
S113095008950E949E04009759F015BC97989498A6
S1130960EAE8F4E08081818381E0808381E090E0A3
S1130970089580918A048130D9F4949A85B580626F
S113098085BD85B5806485BD85B5816085BDEAE892
S1130990F4E08081818384E0808348EE53E060E06A
S11309A070E08EE894E00E94CC1381E090E008951A
S11309B080E090E0089580918D0490E008950E9475
S11309C0A90485E080938A0408950E949E040097F8
S11309D029F083E080938A0481E090E00895CF9326
S11309E0C82F46E950E060E070E084E792E00E949E
S11309F00E14892B09F458C090918A049330E9F0BD
S1130A0028F49130B9F0923041F04EC0943009F49A
S1130A1048C0953009F442C047C0C0938D0427E311
S1130A20C29FC001112463E670E00E94D616685389
S1130A3063BD3AC010928D0437C0C33378F484E1A7
S1130A408C0F80938D0427E3829FC001112463E6F9
S1130A5070E00E94D616685363BD26C08DEC8C0FDF
S1130A60843178F48FE08C0F80938D0427E3829F88
S1130A70C001112463E670E00E94D616685363BD7A
S1130A8013C0C0938D0427E3C29FC001112463E601
S1130A9070E00E94D616685363BD06C015BC9798D3
S1130AA003C082E080938A04CF910895AE9AAD9AF0
S1130AB0DD9ADF9ADE9AAA9AAF9A0895929A1092D2
S1130AC0A104C79A1092AD04AC9A10929F04AB9AF9
S1130AD01092AB040895A69AA59AD59AD79AD69A55
S1130AE0A29AA79A8A9AE2EAF4E080EA94E09183CF
S1130AF08083BF9A2CEA34E033832283A9E9B4E0EB
S1130B0011963C932E9313969C938E931297A49ACA
S1130B102EE934E035832483A39A8AEA94E0978308
S1130B208683E4E9F4E031832083938382830E9403
S1130B305E050E9456050895CF93DF93FC01308132
S1130B4020917400321709F495C0EC010E945605F7
S1130B50E8818E2F90E08F3F910508F088C0FC015A
S1130B60E65DFF4F0C94EA16AE98AD98DD98DF98D9
S1130B70DE98AA987CC0AD98DD9879C0AE98AD98FF
S1130B80AF98DE98DF9873C0AE98AD98AF98DD98B3
S1130B90DF986DC0AA98AF98AD98DD9868C0AE98FC
S1130BA0AA98AF98DD98DF9862C0AE98AA98AF98DB
S1130BB0DD98DF98DE985BC0AE98AD98DD9857C09D
S1130BC0AE98AD98DD98DF98DE98AA98AF984FC09C
S1130BD0AE98AD98DD98DF98AA98AF9848C0AE98C3
S1130BE0AD98DD98DE98AA98AF9841C0DD98DF985B
S1130BF0DE98AA98AF983BC0AE98DF98DE98AA9882
S1130C0036C0AD98DD98DF98DE98AF9830C0AE98C6
S1130C10DF98DE98AA98AF982AC0AE98DE98AA9872
S1130C20AF9825C0DE98AF9822C0DD98DF98DE9893
S1130C30AF981DC0AE98AD98DE98AA98AF9817C02B
S1130C40AE98DD98DF98AA98AF9811C0DF98DE9827
S1130C50AA980DC0AF980BC0AA9809C0DE9807C027
S1130C60DF9805C0DD9803C0AD9801C0AE988881B7
S1130C7080937400DF91CF910895CF93DF93EC01BB
S1130C800E945E05CE010E949C0584E0C03AD8070C
S1130C9029F4929881E08093A10419C084E0CC3AAD
S1130CA0D80729F4C79881E08093AD0410C084E08C
S1130CB0CE39D80729F4AC9881E080939F0407C00B
S1130CC0CA5AD44021F4AB9881E08093AB04DF91FD
S1130CD0CF910895EF92FF921F93CF93DF93FC017E
S1130CE0C081D1812196D183C0839E01ADECBCEC3F
S1130CF00E94F01696958795969587959695879573
S1130D009C01220F331F880F991F880F991F880F8A
S1130D10991F820F931FC817D90701F57F011091FE
S1130D207902143058F4E12FF0E0EE0FFF1FEE5576
S1130D30FB4F808191810E943D0602C00E945E05A6
S1130D401F5F153019F01093790202C010927902D6
S1130D50C039D14019F4F70111821082DF91CF918B
S1130D601F91FF90EF900895FC016436F8F461112F
S1130D7008C0A081B1811C920280F381E02D108211
S1130D800895A081B1819DEC699F912D11249695C0
S1130D90969596959C930280F381E02D892F880F78
S1130DA0982F990F990F890F681B60830895FC0190
S1130DB060830895813039F018F0823039F0089555
S1130DC06093950208956093940208956093940249
S1130DD0609395020895882319F0813029F008C0A2
S1130DE080919D0490E008958091980490E0089586
S1130DF08FEF9FEF089580919D04863021F48091B8
S1130E00AE0480939D0480919804863021F48091EF
S1130E10AF048093980408958130A1F018F08230D3
S1130E2009F10895663021F480919D048093AE0405
S1130E3080919D04863019F46093AE040895609304
S1130E409D040895663021F4809198048093AF0442
S1130E5080919804863019F46093AF0408956093E8
S1130E6098040895663041F480919D048093AE0403
S1130E70809198048093AF0480919D04863029F476
S1130E806093AF046093AE04089560939D046093EF
S1130E909804089595E090939D049093980480930A
S1130EA08F0208958091C1049091C204A091C3045B
S1130EB0B091C40440917E0250917F0260918002FF
S1130EC070918102481759076A077B0708F026C109
S1130ED080919D04833009F459C030F4882309F4C7
S1130EE087C0813039F18EC0853009F474C048F16F
S1130EF0863009F087C00E949B0120E030E048EC76
S1130F0052E40E9469160E94811570938E026093C8
S1130F108D029B013695279536952795ABE7B4E16D
S1130F200E94F01696958795682F89E994E00E94AF
S1130F30B40668C06091950289E994E00E94B40601
S1130F4061C080919804843031F081E080939D04E5
S1130F508093980457C048515C4F6F4F7F4F409324
S1130F607E0250937F02609380027093810283E734
S1130F708093AC0481E68093A00480E780939E0470
S1130F8081E080939D04809398040895809198044F
S1130F90833031F081E080939D048093980432C0C3
S1130FA048515C4F6F4F7F4F40937E0250937F02B6
S1130FB060938002709381028CE68093AC048FE688
S1130FC08093A00480E780939E0481E080939D0435
S1130FD08093980417C085E68093AC0482E78093DD
S1130FE0A00460918F0284E994E00E94B4060AC0D0
S1130FF068EF80EA94E00E94D70668EF8CEA94E0F8
S11310000E94D70680919804813019F148F1863006
S113101019F08D3081F16FC040918D0250918E0294
S11310209A013695279536952795ABE7B4E10E944A
S1131030F0169695879564E6689F9001699F300D38
S11310401124BA01621B730B84E994E00E94B40674
S113105052C06091940284E994E00E94B4064BC0AB
S113106068EF8EE994E00E94D70668EF8AEA94E07C
S11310700E94D70640C044EF51E060E070E088E889
S113108092E00E940E14892BB1F1809187028111A4
S11310900EC081E08093870267EF8EE994E00E949E
S11310A0D70667EF8AEA94E00E94D70624C010921C
S11310B087028091830290918402A0918502B0916D
S11310C086020097A105B10529F461E081E00E9440
S11310D00C0711C00197A109B10980938302909371
S11310E08402A0938502B09386026091820284E90F
S11310F094E00E94B40680917E0290917F02A091B8
S11311008002B0918102C296A11DB11D80937E021E
S113111090937F02A0938002B093810208950F936D
S11311201F930091C1041091C2042091C304309113
S1131130C404DC01CB01800F911FA21FB31F809355
S1131140900290939102A0939202B093930262E072
S1131150842F0E940C071F910F91089580919D0484
S1131160823029F080919804823009F078C040914F
S1131170C1045091C2046091C3047091C40480916D
S11311807A0290917B02A0917C02B0917D02841737
S11311909507A607B70708F062C08091C104909133
S11311A0C204A091C304B091C40481559F4FAF4FB2
S11311B0BF4F80937A0290937B02A0937C02B093FA
S11311C07D0280919D04823061F46091760080EA12
S11311D094E00E94D706609176008CEA94E00E9425
S11311E0D70680919804823061F4609175008EE98D
S11311F094E00E94D706609175008AEA94E00E9408
S1131200D7064091C1045091C2046091C304709107
S1131210C4048091900290919102A0919202B091A5
S1131220930284179507A607B70728F461E082E0C4
S11312300E940C07C598909176009F5F909376006A
S1131240809175008150809375009F3F19F499EF48
S113125090937600883F19F48EEF8093750008957B
S1131260E199FECF9FBB8EBB6DBBE29AE19A0895D4
S1131270E199FECF9FBB8EBBE09A8DB30895CF93C7
S1131280C82F8091AC039091AD0382609093AD031D
S11312908093AC038C2F90E00E944A070E94DF04E5
S11312A00E945013C093B004CF9108951092AA02E3
S11312B01092A9021092A8021092A5021092A40200
S11312C08BEA92E00E9404148FE992E00E940414D5
S11312D01092B00408951092AA021092A9021092DA
S11312E0A8021092A5021092A4028BEA92E00E9436
S11312F004148FE992E00E9404141092B00408953B
S1131300CF92DF92EF92FF92CF93DF934091C1048B
S11313105091C2046091C3047091C40480919B02F3
S113132090919C02A0919D02B0919E028417950712
S1131330A607B70708F03BC38091AC0380FF37C30F
S11313404091C1045091C2046091C3047091C404DB
S11313504C505E4F6F4F7F4F40939B0250939C02C3
S113136060939D0270939E0281FD21C30E94DB0461
S1131370EC010E949B016B017C0120E030E040E124
S113138051E40E940A15882344F40F2EC12CD12C59
S1131390F0E1EF2EF1E4FF2EF02DCE010A97059730
S11313A078F520E030E040E151E4C701B6010E9445
S11313B09D146B017C01BE0180E090E00E94B71592
S11313C09B01AC01C701B6010E94691620E030E020
S11313D040EC50E40E940F156B017C01BE01660FC6
S11313E0771F6F50710980E090E00E94B7159B0150
S11313F0AC01C701B6010E949E140E94881500C169
S1131400CE010F970A9778F520E030E040E151E4EF
S1131410C701B6010E949D146B017C01BE0180E0EE
S113142090E00E94B7159B01AC01C701B6010E9470
S1131430691620E030E040EC50E40E940F156B0187
S11314407C01BE016A507048660F771F80E090E00F
S11314500E94B7159B01AC01C701B6010E949E14FE
S11314600E948815CDC0CE0149970F9778F520E0EA
S113147030E040E151E4C701B6010E949D146B01C4
S11314807C01BE0180E090E00E94B7159B01AC0195
S1131490C701B6010E94691620E030E040EC50E438
S11314A00E940F156B017C01BE01660F771F695105
S11314B0710980E090E00E94B7159B01AC01C7015F
S11314C0B6010E949E140E9488159AC0CE01889786
S11314D00A9778F520E030E040E151E4C701B60115
S11314E00E949D146B017C01BE0180E090E00E948B
S11314F0B7159B01AC01C701B6010E94691620E033
S113150030E040EC50E40E940F156B017C01BE01F9
S113151065507048660F771F80E090E00E94B71511
S11315209B01AC01C701B6010E949E140E9488155C
S113153067C0CE01C297449778F520E030E040E1DF
S113154051E4C701B6010E949D146B017C01BE01E8
S113155080E090E00E94B7159B01AC01C701B60181
S11315600E94691620E030E040EC50E40E940F1520
S11315706B017C01BE016B5F7F4F660F771F80E0BC
S113158090E00E94B7159B01AC01C701B6010E940F
S11315909E140E94881534C0C634D10578F120E029
S11315A030E040E151E4C701B6010E949D146B0193
S11315B07C01BE0180E090E00E94B7159B01AC0164
S11315C0C701B6010E94691620E030E040EC50E407
S11315D00E940F156B017C01BE01665F7F4F660F91
S11315E0771F80E090E00E94B7159B01AC01C70112
S11315F0B6010E949E140E94881502C06AE070E041
S11316006C597F4F7093A7026093A6028091AF0339
S113161090E09C01220F331F220F331F820F931F70
S11316206817790710F57F936F938EE990E09F9385
S11316308F930E94480181E08093A8020F900F903D
S11316400F900F908091AA02823009F484C030F484
S11316508823F1F0813009F448C0FFC0833009F4D5
S11316608DC0843009F48EC0F8C01092A802809115
S1131670AA02823009F4C0C020F4813009F49EC06B
S1131680ECC0833009F4D5C0843009F4D6C0E5C079
S113169081E08093AA0285EB90E09F938F930E9450
S11316A048010E94DB042EE1AC01249FC001259F68
S11316B0900D112448E853E1EA01C81BD90BDF93CC
S11316C0CF9380ED90E09F938F930E944801AE01E9
S11316D060E070E08BEA92E00E94CC130F900F90D0
S11316E00F900F900F900F90B8C08BEA92E00E9479
S11316F0E413892B09F4B1C00E94E5040E94DB04C1
S11317002EE1AC01249FC001259F900D112448E8CF
S113171053E1EA01C81BD90BDF93CF938FEE90E01E
S11317209F938F930E944801AE0160E070E08BEAC2
S113173092E00E94CC1382E08093AA0283E191E0BC
S11317409F938F930E9448010F900F900F900F90DA
S11317500F900F9082C08BEA92E00E94E413892BD1
S113176009F47BC083E08093AA0283E391E09F9312
S11317708F930E9448010F900F906FC081E00E94E8
S11317803F096BC08BEA92E00E94E413892B09F4B1
S113179064C040ED57E060E070E08BEA92E00E94A4
S11317A0CC138091A9028093AA028FE491E09F93C5
S11317B08F930E9448010F900F904FC08BEA92E0E4
S11317C00E94E413892B09F448C040ED57E060E01F
S11317D070E08BEA92E00E94CC1384E08093AA022A
S11317E081E08093A90286E791E09F938F930E9402
S11317F048010F900F9031C08BEA92E00E94E413ED
S1131800892B59F140ED57E060E070E08BEA92E0FB
S11318100E94CC1384E08093AA0282E08093A90200
S113182086E791E09F938F930E9448010F900F9059
S113183014C081E00E943F0910C08BEA92E00E942C
S1131840E413892B51F081E991E09F938F930E94D7
S113185048011092AA020F900F908091AF0390E07C
S11318609C01220F331F220F331F820F931F8536D3
S11318709105E0F01F9284E68F938AEA91E09F93AA
S11318808F930E94480181E08093A5020F900F90EE
S11318900F900F908091A402813051F1A8F0823012
S11318A009F44BC0833009F451C081C01092A502E1
S11318B08091A402823009F466C0833009F474C0B4
S11318C0813009F074C046C081E08093A40281ECA9
S11318D091E09F938F930E94480144EF51E060E0B0
S11318E070E08FE992E00E94CC130F900F905FC0DC
S11318F08FE992E00E94E413892B09F458C00E94F6
S1131900DE0E049724F083E08093A40250C04CEDD3
S113191055E060E070E08FE992E00E94CC1382E031
S11319208093A4020E94D20E8CED91E09F938F933A
S11319300E9448010F900F903AC08FE992E00E94F4
S1131940E413892BA1F11092A40231C082E00E9419
S11319503F092DC08FE992E00E94E413892B39F1ED
S113196040ED57E060E070E08FE992E00E94CC1314
S11319701092A40286EF91E09F938F930E944801F6
S11319800F900F9014C08FE992E00E94E413892B0A
S113199071F01092A40286EF91E09F938F930E94BE
S11319A048010F900F9003C082E00E943F09DF912D
S11319B0CF91FF90EF90DF90CF9008954EE551E0E6
S11319C060E070E086E992E00E940E14892B09F130
S11319D08091B004813071F492B380E1892782BB95
S11319E08091AC039091AD0390629093AD0380938A
S11319F0AC030895823069F492B380E4892782BBF2
S1131A008091AC039091AD0390629093AD03809369
S1131A10AC030895FC0120813181623058F0329684
S1131A2091E041915191240F351F369527959F5F81
S1131A306913F7CFC9010895E0EEF2E028E033E03E
S1131A4081EF91E0819391932E173F07D9F7EFEC43
S1131A50F2E08DED92E0119211928E179F07D9F763
S1131A60E7EBF2E08BEC92E0119211928E179F0754
S1131A70D9F70895CF92DF92EF92FF92CF93DF933D
S1131A804091C1045091C2046091C3047091C40494
S1131A908091B0029091B102A091B202B091B302D0
S1131AA084179507A607B70708F098C08091C1046A
S1131AB09091C204A091C304B091C404C296A11D24
S1131AC0B11D8093B0029093B102A093B202B0937F
S1131AD0B30280E00E94B102EC016091DD027091DA
S1131AE0DE0280E090E00E94B71521E73DE34AE87A
S1131AF05EE30E9469166B017C01BE0180E090E008
S1131B000E94B7159B01AC01C701B6010E949E1447
S1131B100E94881570930B0360930A0320910C03B1
S1131B20E22FF0E0EE0FFF1FE052FD4F7183608360
S1131B3081E0820F80930C0382E00E94B1029093B3
S1131B40CE028093CD02E091DF02F0E0EE0FFF1FA2
S1131B50E153FD4F9183808381E00E94B102909311
S1131B60B5028093B402C091B602EC2FF0E0EE0F00
S1131B70FF1FE954FD4F91838083D091DF02DF5F23
S1131B80D093DF02CF5FC093B60264E180EE92E0AF
S1131B900E940A0D909309038093080367E08FEC79
S1131BA092E00E940A0D9093DE028093DD026AE0C7
S1131BB087EB92E00E940A0D9093CC028093CB02B3
S1131BC080910C03843111F410920C03CA3011F487
S1131BD01092B602D73011F41092DF02DF91CF9148
S1131BE0FF90EF90DF90CF900895833018F4813008
S1131BF040F00CC0833079F480910803909109037C
S1131C0008958091DD029091DE0208958091CB02C7
S1131C109091CC02089580E090E00895EF92FF92B5
S1131C200F931F93CF938B01823059F028F48823AC
S1131C3091F0813019F130C0833029F1843031F0D2
S1131C402BC022E030E084E090E021C023E030E0CB
S1131C5088E090E01CC06894EE24E1F8F12CC0E028
S1131C60F80161918F018C2F90E00E943009CF5FC1
S1131C708C2F90E08E159F059CF30EC022E030E07F
S1131C8082E090E004C022E030E086E090E0C82FDB
S1131C907901E80EF91EE4CFCF911F910F91FF90C7
S1131CA0EF900895EF92FF920F931F93CF938B01C0
S1131CB0823059F028F4882391F0813019F130C032
S1131CC0833029F1843031F02BC022E030E084E00D
S1131CD090E021C023E030E088E090E01CC06894EC
S1131CE0EE24E1F8F12CC0E08C2F90E00E9438093A
S1131CF0F80181938F01CF5F8C2F90E08E159F05A3
S1131D009CF30EC022E030E082E090E004C022E0C8
S1131D1030E086E090E0C82F7901E80EF91EE4CFA8
S1131D20CF911F910F91FF90EF900895CF93DF9380
S1131D302FE13EE437BD26BD81B3806381BB19BC6E
S1131D4018BC1BBC1ABC8FB582608FBD8EB5886170
S1131D508EBD8FB580688FBD8EB582608EBD3BBD54
S1131D602ABD9698C1EBD4E081E088831B8285EB81
S1131D7094E00E94C4131986109217038FE092E036
S1131D809F938F930E9448010F900F90DF91CF9102
S1131D90089581E090E02091B104223011F080E0B8
S1131DA090E008958091B1049FEF980F923028F449
S1131DB0E1EBF4E0818383E0808308958091BA04A9
S1131DC090E008958091B1048230B9F41BBC1ABC30
S1131DD0E1EBF4E081E0808313821F921F928CE197
S1131DE092E09F938F930E94480196980F900F90D2
S1131DF00F900F9081E090E00895833029F40E94C1
S1131E00070F81E090E0089580E090E008958091CC
S1131E10B204823029F48093B1040E94E20E09C016
S1131E20813071F4E1EBF4E082E0808383810E94ED
S1131E30210F10921703E1EBF4E081858F5F818716
S1131E4008959091B1042FEF290F2230C8F4E1EBEB
S1131E50F4E092E090838383282F30E03BBD2ABDD9
S1131E601F928F938DE292E09F938F930E9448017B
S1131E70969A0F900F900F900F9081E090E0089544
S1131E80933029F40E94070F81E090E0089580E0E8
S1131E9090E00895CF93C82F44EF51E060E070E0E4
S1131EA082E193E00E940E14892B09F475C080919D
S1131EB0B104823019F0833041F05EC0C093B404A1
S1131EC08C2F90E09BBD8ABD57C080911703811170
S1131ED015C044E650E060E070E08DE093E00E94BD
S1131EE0CC13809117038F5F809317032091B40460
S1131EF090E0820F911D9BBD8ABD2BC0815089301B
S1131F00D8F48DE093E00E94E413019711F544E6C0
S1131F1050E060E070E08DE093E00E94CC1380918B
S1131F2017038F5F809317032091B40490E0820F0E
S1131F30911D9BBD8ABD0DC010921703E1EBF4E027
S1131F40838190E09BBD8ABD8181808381858F5F81
S1131F5081872091B4048091170390E0820F911D32
S1131F609F938F938FE392E09F938F930E944801F6
S1131F700F900F900F900F9085EB94E00E94E41364
S1131F80019751F41092BA048DE492E09F938F93D9
S1131F900E9448010F900F90CF910895EDE5F4E071
S1131FA0168615861286118614861386E0E3F4E0FD
S1131FB016861586128611861486138610924B0493
S1131FC010924A04EEE0F4E0168615861486138611
S1131FD012861186EEE4F4E01686158614861386BE
S1131FE0128611861092780410927704EBE7F4E0DD
S1131FF0148613861686158612861186E0EFF3E0A2
S1132000148613861686158612861186EFEFF3E082
S11320101486138616861586128611860895809175
S11320202003823049F08091AC039091AD03986015
S11320309093AD038093AC03089580912003823084
S113204049F08091AC039091AD0380689093AD0307
S11320508093AC0308958091AC039091AD0392609A
S11320609093AD038093AC0308958091AC03909159
S1132070AD03997F9093AD038093AC031092210339
S113208008958091AC039091AD0380629093AD0369
S11320908093AC0308958091AC039091AD038F7944
S11320A09093AD038093AC03109221030895809123
S11320B0AC039091AD0390629093AD038093AC0315
S11320C08091AF038B3018F081508093AF036091FF
S11320D0AF0381E00E94DA0661E082E00E940C070F
S11320E008958091AC039091AD0390629093AD03F9
S11320F08093AC038091AF03833618F48F5F809391
S1132100AF036091AF0381E00E94DA0661E082E0F0
S11321100E940C0708958091AC039091AD039062E6
S11321209093AD038093AC038091AE038B3018F091
S113213081508093AE036091AE0380E00E94DA0682
S113214080E00E94EB06029729F461E082E00E949D
S11321500C0704C061E080E00E940C07809120031A
S11321608F5F80932003823019F466E00E940C078D
S113217008958091AC039091AD0390629093AD0368
S11321808093AC038091AE03833618F48F5F809301
S1132190AE036091AE0380E00E94DA0680E00E9404
S11321A0EB06029729F461E082E00E940C0704C068
S11321B061E080E00E940C07809120038F5F809390
S11321C02003823019F466E00E940C0708950E94EF
S11321D0FB068091AC039091AD03977E9093AD0381
S11321E08093AC031092210380912003882319F07B
S11321F081508093200380E00E94EB06029729F42B
S113220061E082E00E940C07089561E080E00E9492
S11322100C0708950E94FB068091AC039091AD03D6
S11322208F779E7F9093AD038093AC03109221032C
S113223080912003882319F081508093200380E04B
S11322400E94EB06029729F461E082E00E940C07E9
S1132250089561E080E00E940C070895EDEBF4E03E
S11322608091AE0380838091AF038183BF0183E0BB
S11322700E940E0E08958091AC039091AD0390627C
S11322809093AD038093AC038091AE038A3038F40D
S11322908AE08093AE036AE080E00E94DA060E943E
S11322A02E110E949E04892B19F40E94B9040895EA
S11322B00E94A90408958091AC039091AD039062AB
S11322C09093AD038093AC038091AF038A3038F4CC
S11322D08AE08093AF036AE081E00E94DA060E94FC
S11322E0C90E892B19F00E94E20E08958091AF0364
S11322F00E94210F089580E292E190932704809335
S1132300260460E082E00E940C076BEB74E083E03B
S11323100E94520E8091BC0496EF980F9A3510F4E7
S11323208093AF038091BB0496EF980F9A3510F415
S11323308093AE0308951092200342E068EE73E0A8
S113234080E090E00E948F080E948C0480E00E944C
S1132350960E0E9456090E941C0D0E94890481E079
S113236090E09093AD038093AC03EDE5F4E08FE04F
S113237090E1968785878BE890E19487838787EE41
S113238090E192878187E0E3F4E08DE190E1968724
S1132390858789EB90E1948783878AE091E192872E
S11323A081878BE391E190934B0480934A04EEE0A0
S11323B0F4E08BE290E19687858785E390E192874C
S11323C0818787E590E194878387EEE4F4E081E4F4
S11323D090E1968785878BE490E19287818781E7F6
S11323E090E1948783878BE591E1909378048093BF
S11323F077046091AE0380E00E94DA066091AF0337
S113240081E00E94DA060895109220030E94980445
S11324100E94CE0F0E946B090E94E20E1092AD033F
S11324201092AC0360E082E00E940C078091AC0340
S11324309091AD038E7F9093AD038093AC03089588
S11324400E942E118091AC0380FF03C00E940412ED
S113245002C00E949B118091AC039091AD039062E5
S11324609093AD038093AC0308954091C1045091BF
S1132470C2046091C3047091C404809118039091C4
S11324801903A0911A03B0911B0384179507A6079B
S1132490B70708F09CC08091AC0385FF1DC0609114
S11324A0AF036336C8F46F5F6093AF0381E00E94AB
S11324B0DA06809124038F5F809324038F3060F0C9
S11324C08091AC039091AD038F7D80649093AD03B4
S11324D08093AC03109224038091AC039091AD03DC
S11324E091FF1DC06091AF036623C9F061506093F2
S11324F0AF0381E00E94DA06809123038F5F80930B
S113250023038F3060F08091AC039091AD039D7FE5
S113251094609093AD038093AC0310922303809155
S1132520AC0387FF1DC06091AE036336C8F46F5FD0
S11325306093AE0380E00E94DA06809122038F5FED
S1132540809322038F3060F08091AC039091AD03AF
S11325508F7791609093AD038093AC031092220324
S11325608091AC039091AD0393FF1DC06091AE03C5
S11325706B30C8F061506093AE0380E00E94DA06CD
S1132580809121038F5F809321038F3060F08091CD
S1132590AC039091AD03977F90619093AD038093CA
S11325A0AC03109221038091180390911903A09118
S11325B01A03B0911B03805B9F4FAF4FBF4F8093B3
S11325C0180390931903A0931A03B0931B0308955F
S11325D04091C1045091C2046091C3047091C40439
S11325E080911C0390911D03A0911E03B0911F03C1
S11325F084179507A607B70708F051C06091AF0389
S1132600633650F48091AC0386FF06C06F5F60931D
S1132610AF0381E00E94DA066091AF03662361F0A4
S11326208091AC039091AD0392FF06C0615060931A
S1132630AF0381E00E94DA066091AE03633660F472
S11326408091AC039091AD0390FF06C06F5F6093DF
S1132650AE0380E00E94DA066091AE036B3060F056
S11326608091AC039091AD0394FF06C061506093D8
S1132670AE0380E00E94DA0680911C0390911D0352
S1132680A0911E03B0911F034E96A11DB11D80930E
S11326901C0390931D03A0931E03B0931F0308957E
S11326A00E94CE0F0E94E20E08951F920F920FB661
S11326B00F9211242F933F934F935F936F937F93C4
S11326C08F939F93AF93BF93EF93FF93EFEBF4E05C
S11326D080819181C2969183808380819181883E9B
S11326E0934088F082819381A481B5810196A11DD4
S11326F0B11D82839383A483B58380819181885E95
S113270093409183808385E293E00E946A06FF915F
S1132710EF91BF91AF919F918F917F916F915F9155
S11327204F913F912F910F900FBE0F901F901895CE
S113273093B7986093BF6CBF823099F028F48823D4
S113274041F0813051F019C0833079F0843089F040
S113275014C083B7816083BF13C083B7826083BF13
S11327600FC083B7836083BF0BC083B7846083BF0C
S113277007C083B7856083BF03C083B7816083BF0D
S113278089B7826089BF089523E0FC012483108205
S113279011821282138208950F931F9321E0FC018A
S11327A024830091C1041091C2042091C304309188
S11327B0C404400F511F621F731F408351836283FF
S11327C073831F910F910895FC0184818130B1F4CA
S11327D08091C1049091C204A091C304B091C40437
S11327E04081518162817381481759076A077B07C9
S11327F040F482E0848381E090E008958FEF9FEFBE
S1132800089580E090E0089521E030E0FC018481A7
S1132810833011F020E030E0C9010895CF92DF92B7
S1132820EF92FF920F931F93CF93DF93EC016A0112
S11328307B018C81811106C083E08C83188219820C
S11328401A821B82CE010E94E4138C01019731F499
S1132850B701A601CE010E94CC130DC08C81833038
S113286041F4B701A601CE010E94CC1300E010E0B0
S113287002C000E010E0C801DF91CF911F910F91D9
S1132880FF90EF90DF90CF9008951F920F920FB6B4
S11328900F9211242F933F934F935F938F939F93A2
S11328A0EF93FF932BB13CB128718091290390E001
S11328B001964091280350E08417950739F08093DE
S11328C02903FC01E45DFC4F308301C022E0209326
S11328D02703FF91EF919F918F915F914F913F91CA
S11328E02F910F900FBE0F901F9018951F920F926B
S11328F00FB60F9211248F939F93EF93FF939091B0
S11329002B0380912A03981771F080912A0390E099
S113291001968F77992780932A03FC01E45DFC4F8D
S113292080818CB901C05598FF91EF919F918F914F
S11329300F900FBE0F901F9018955058BB27AA27D1
S11329400E94B5140C942F160E94211638F00E9490
S1132950281620F039F49F3F19F426F40C941E161F
S11329600EF4E095E7FB0C941816E92F0E9440162C
S113297058F3BA17620773078407950720F079F4B0
S1132980A6F50C9462160EF4E0950B2EBA2FA02D2A
S11329900B01B90190010C01CA01A0011124FF2708
S11329A0591B99F0593F50F4503E68F11A16F04003
S11329B0A22F232F342F4427585FF3CF4695379502
S11329C02795A795F0405395C9F77EF41F16BA0BC7
S11329D0620B730B840BBAF09150A1F0FF0FBB1F75
S11329E0661F771F881FC2F70EC0BA0F621F731FBE
S11329F0841F48F4879577956795B795F7959E3F1B
S1132A0008F0B0CF9395880F08F09927EE0F9795AB
S1132A10879508950E94F41508F481E008950E94B2
S1132A2023150C942F160E94281658F00E94211684
S1132A3040F029F45F3F29F00C94181651110C94BE
S1132A4063160C941E160E94401668F39923B1F382
S1132A50552391F3951B550BBB27AA2762177307C0
S1132A60840738F09F5F5F4F220F331F441FAA1F54
S1132A70A9F335D00E2E3AF0E0E832D09150504010
S1132A80E695001CCAF72BD0FE2F29D0660F771FBE
S1132A90881FBB1F261737074807AB07B0E809F0A4
S1132AA0BB0B802DBF01FF2793585F4F3AF09E3F29
S1132AB0510578F00C9418160C9463165F3FE4F3F8
S1132AC0983ED4F3869577956795B795F7959F5F6C
S1132AD0C9F7880F911D9695879597F90895E1E0B8
S1132AE0660F771F881FBB1F621773078407BA0717
S1132AF020F0621B730B840BBA0BEE1F88F7E09572
S1132B0008950E9488156894B1110C946316089571
S1132B100E94481688F09F5798F0B92F9927B7510B
S1132B20B0F0E1F0660F771F881F991F1AF0BA956D
S1132B30C9F714C0B13091F00E946216B1E0089553
S1132B400C946216672F782F8827B85F39F0B93F45
S1132B50CCF3869577956795B395D9F73EF4909520
S1132B608095709561957F4F8F4F9F4F0895E8949E
S1132B7009C097FB3EF490958095709561957F4FC1
S1132B808F4F9F4F9923A9F0F92F96E9BB2793956F
S1132B90F695879577956795B795F111F8CFFAF47F
S1132BA0BB0F11F460FF1BC06F5F7F4F8F4F9F4FB0
S1132BB016C0882311F096E911C0772321F09EE80E
S1132BC0872F762F05C0662371F096E8862F70E074
S1132BD060E02AF09A95660F771F881FDAF7880F4E
S1132BE09695879597F90895990F0008550FAA0BA4
S1132BF0E0E8FEEF16161706E807F907C0F012160C
S1132C001306E407F50798F0621B730B840B950B0E
S1132C1039F40A2661F0232B242B252B21F4089563
S1132C200A2609F4A140A6958FEF811D811D089500
S1132C3097F99F6780E870E060E008959FEF80EC6B
S1132C40089500240A94161617061806090608950E
S1132C5000240A9412161306140605060895092E74
S1132C600394000C11F4882352F0BB0F40F4BF2BE3
S1132C7011F460FF04C06F5F7F4F8F4F9F4F089523
S1132C8057FD9058440F551F59F05F3F71F0479519
S1132C90880F97FB991F61F09F3F79F087950895FE
S1132CA0121613061406551FF2CF4695F1DF08C01D
S1132CB0161617061806991FF1CF8695710561053A
S1132CC008940895E894BB2766277727CB0197F9E2
S1132CD008950E947C160C942F160E94211638F039
S1132CE00E94281620F0952311F00C9418160C94C9
S1132CF01E1611240C9463160E94401670F3959FBF
S1132D00C1F3950F50E0551F629FF001729FBB27DE
S1132D10F00DB11D639FAA27F00DB11DAA1F649F7A
S1132D206627B00DA11D661F829F2227B00DA11D2D
S1132D30621F739FB00DA11D621F839FA00D611DB3
S1132D40221F749F3327A00D611D231F849F600DD4
S1132D50211D822F762F6A2F11249F5750409AF0FD
S1132D60F1F088234AF0EE0FFF1FBB1F661F771F89
S1132D70881F91505040A9F79E3F510580F00C9454
S1132D8018160C9463165F3FE4F3983ED4F38695CB
S1132D9077956795B795F795E7959F5FC1F7FE2BF4
S1132DA0880F911D9695879597F9089597FB072E9F
S1132DB016F4009407D077FD09D00E94FF1607FC93
S1132DC005D03EF4909581959F4F08957095619537
S1132DD07F4F0895EE0FFF1F0590F491E02D0994A5
S1132DE0A29FB001B39FC001A39F700D811D112448
S1132DF0911DB29F700D811D1124911D0895AA1B70
S1132E00BB1B51E107C0AA1FBB1FA617B70710F0D1
S1132E10A61BB70B881F991F5A95A9F78095909503
S1132E20BC01CD010895AEE0B0E0E9E1F7E10C9416
S1132E30CE198C0186E08C831A8309838FEF9FE778
S1132E409E838D83CE0101960E942F17EF81F88512
S1132E50E00FF11F10822E96E4E00C94EA19ABE027
S1132E60B0E0E5E3F7E10C94C0196C017B018A0141
S1132E70FC0117821682838181FFCCC1CE010196A9
S1132E803C01F6019381F70193FD859193FF8191B4
S1132E907F01882309F4BAC1853239F493FD859101
S1132EA093FF81917F01853229F4B60190E00E945D
S1132EB02619E7CF912C212C312CFFE1F315D8F002
S1132EC08B3279F038F4803279F08332A1F4232DF7
S1132ED020611DC08D3261F0803369F4232D21609F
S1132EE016C0832D8260382EE32DE4603E2E2AC066
S1132EF0F32DF8601DC037FC2DC020ED280F2A30BB
S1132F0040F08E32B9F436FC81C1232D2064322E78
S1132F1019C036FE06C08AE0989E200D1124922E18
S1132F2011C0EAE02E9E200D1124222EF32DF06212
S1132F303F2E08C08C3621F4832D8068382E02C0C1
S1132F40883641F4F70193FD859193FF81917F01C8
S1132F508111B3CF982F9F7D9554933028F40C5F43
S1132F601F4F9FE399830DC0833631F0833771F08F
S1132F70833509F059C021C0F801808189830E5F2F
S1132F801F4F88248394912C530113C02801F2E02D
S1132F904F0E511CF801A080B18036FE03C0692D8C
S1132FA070E002C06FEF7FEFC5010E941B194C0156
S1132FB08201F32DFF773F2E16C0280122E0420E36
S1132FC0511CF801A080B18036FE03C0692D70E069
S1132FD002C06FEF7FEFC5010E9410194C01F32D61
S1132FE0F0683F2E820133FC1BC0822D90E08816CE
S1132FF09906B0F4B60180E290E00E9426192A9462
S1133000F4CFF50137FC859137FE81915F01B6015C
S113301090E00E94261921102A9421E0821A910836
S11330208114910471F7E8C0843611F0893641F5B2
S1133030F80137FE07C060817181828193810C5F42
S11330401F4F08C060817181072E000C880B990BFB
S11330500E5F1F4FF32DFF763F2E97FF09C090950B
S11330608095709561957F4F8F4F9F4FF0683F2EED
S11330702AE030E0A3010E946219882E861845C018
S1133080853731F4232D2F7EB22E2AE030E025C07F
S1133090932D997FB92E8F36C1F018F4883579F0C5
S11330A0B5C0803719F0883721F0B0C0E92FE0614E
S11330B0BE2EB4FE0DC0FB2DF460BF2E09C034FE3D
S11330C00AC0292F2660B22E06C028E030E005C0D1
S11330D020E130E002C020E132E0F801B7FE07C091
S11330E060817181828193810C5F1F4F06C0608172
S11330F0718180E090E00E5F1F4FA3010E9462196E
S1133100882E8618FB2DFF773F2E36FE0DC0232D0B
S11331102E7FA22E891458F434FE0BC032FC09C051
S1133120832D8E7EA82E05C0B82CA32C03C0B82CEA
S113313001C0B92CA4FE0FC0FE01E80DF11D808171
S1133140803321F49A2D997EA92E09C0A2FE06C0CF
S1133150B394B39404C08A2D867809F0B394A3FC85
S113316011C0A0FE06C0B21488F4280C922C9B183F
S11331700EC0B21460F4B60180E290E00E942619F9
S1133180B394F7CFB21418F42B1802C0982C212C46
S1133190A4FE10C0B60180E390E00E942619A2FEAE
S11331A017C0A1FC03C088E790E002C088E590E066
S11331B0B6010CC08A2D867859F0A1FE02C08BE2BC
S11331C001C080E2A7FC8DE2B60190E00E942619BE
S11331D0891438F4B60180E390E00E9426199A9489
S11331E0F7CF8A94F301E80DF11D8081B60190E0D8
S11331F00E9426198110F5CF222009F442CEB6018F
S113320080E290E00E9426192A94F6CFF601868186
S1133210978102C08FEF9FEF2B96E2E10C94DC19AB
S1133220FC010590615070400110D8F7809590958D
S11332308E0F9F1F0895FC01615070400190011092
S1133240D8F7809590958E0F9F1F08950F931F9325
S1133250CF93DF93FB01238121FD03C08FEF9FEF09
S11332602CC022FF16C04681578124813581421724
S1133270530744F4A081B1819D012F5F3F4F3183F7
S113328020838C93268137812F5F3F4F378326839A
S113329014C08B01EC01FB010084F185E02D09953C
S11332A0892BE1F6D80116968D919C91179701967A
S11332B017969C938E931697CE01DF91CF911F9111
S11332C00F910895FA01AA27283051F1203181F194
S11332D0E8946F936E7F6E5F7F4F8F4F9F4FAF4F1A
S11332E0B1E03ED0B4E03CD0670F781F891F9A1F2D
S11332F0A11D680F791F8A1F911DA11D6A0F711DE1
S1133300811D911DA11D20D009F468943F912AE0EC
S1133310269F11243019305D3193DEF6CF010895D4
S1133320462F4770405D4193B3E00FD0C9F7F6CF05
S1133330462F4F70405D4A3318F0495D31FD4052CD
S1133340419302D0A9F7EACFB4E0A6959795879563
S113335077956795BA95C9F7009761057105089542
S11333609B01AC010A2E06945795479537952795EE
S1133370BA95C9F7620F731F841F951FA01D089586
S11333802F923F924F925F926F927F928F929F9271
S1133390AF92BF92CF92DF92EF92FF920F931F935F
S11333A0CF93DF93CDB7DEB7CA1BDB0B0FB6F89410
S11333B0DEBF0FBECDBF09942A88398848885F8450
S11333C06E847D848C849B84AA84B984C884DF80C1
S11333D0EE80FD800C811B81AA81B981CE0FD11DA5
S11333E00FB6F894DEBF0FBECDBFED010895F8947B
S10533F0FFCF09
S11333F25D0430043F041D040E044E046C047B047B
S1133402F003FF03FFFEF92F2D2D2D2D2D2D2D2D34
S11334122D2D2D53544152542053595354454D2D5F
S11334222D2D2D2D2D2D2D2D2D2D2D2F0A006D6F92
S1133432746F725F6572726F725F76616C75653AF2
S11334422025640A004552524F5220535441545588
S1133452533A204552525F4D5F574149540A0D0079
S1133462636F756E745F6D6F746F725F74696D658F
S11334726F75745F776169743A2025640A0D00637D
S11334826F756E745F6D6F746F725F74696D656F63
S113349275745F6178656C65726174653A20256440
S11334A20A0D004552524F52205354415455533A37
S11334B2204552525F4D5F4158454C455241544557
S11334C20A0D004552524F52205354415455533A17
S11334D2204552525F4D5F4552524F520A0D0045EC
S11334E252524F52205354415455533A20676F203D
S11334F2746F206C617374206265666F72652077E5
S11335026169740A0D004552524F5220535441547A
S113351255533A204552525F4D5F455849540A0D5E
S1133522004552524F52205354415455533A204568
S113353252525F4D5F4F4B0A0D00736572766F5F97
S11335426572726F725F76616C75653A2025640AE2
S1133552004552524F52205354415455533A204538
S113356252525F535F574149540A0D004552524F1C
S113357252205354415455533A204552525F535F9B
S11335825452590A0D004552524F52205354415439
S113359255533A204552525F535F4F4B0A0D005325
S11335A24552564F3A20696E69740A005345525681
S11335B24F5F434C4F5345442025640A0053455200
S11335C2564F5F4F5050454E45442025640A0053E0
S11335D24552564F5F5452592025640A00534552AE
S11335E2564F3A205A65726F2074727920636E7452
S10535F20A00C9
S9030000FC
