S01600006E6F77795F737465726F776E696B2E73726563FC
S11300000C94EB010C9408020C9408020C94080262
S11300100C9408020C9408020C9408020C94080234
S11300200C9408020C9408020C949D160C9408027B
S11300300C9408020C9497170C94C8170C9408029B
S11300400C9408020C9408020C9408020C94080204
S11300500C94080227082E08310837083D08420886
S113006048084F0853085B08AA08AA08AA08AA085F
S1130070AA08AA08AA08AA08AA08AA08AA08AA08EC
S1130080AA08AA08AA08AA08AA08AA08AA08AA08DC
S1130090AA08AA08AA08AA08AA08AA08AA08AA08CC
S11300A0AA08AA08AA08AA08AA08AA08AA08AA08BC
S11300B0AA08AA08AA08AA08AA08AA08AA08AA08AC
S11300C0AA08AA08AA08AA08AA08AA08AA08AA089C
S11300D0AA08AA08AA08AA08AA08AA08AA08AA088C
S11300E0AA08AA08AA08AA08AA08AA08AA08AA087C
S11300F0AA08AA08AA08AA08AA08AA08AA08AA086C
S1130100AA08AA08AA08AA08AA08AA08AA08AA085B
S1130110AA08AA08AA08620869086F0874087A0875
S11301208008AA08AA08AA08AA08AA089908AA0876
S1130130AA0888088D08AA0885089308AA08AA08A6
S1130140AA08AA08AA08AA08AA08AA08AA08AA081B
S1130150AA08AA08AA08AA08AA08AA08AA08AA080B
S1130160AA08AA08AA08AA08AA08AA08AA08AA08FB
S1130170AA08AA08AA08AA08AA08AA08AA08AA08EB
S1130180AA08AA08AA08AA08AA08AA08AA08AA08DB
S1130190AA08AA08AA08AA08AA08AA08AA08AA08CB
S11301A0AA08AA08AA08AA08AA08AA08AA08AA08BB
S11301B0AA08AA08AA08AA08AA08AA08AA08AA08AB
S11301C0AA08AA08AA08AA08AA08AA08AA08AA089B
S11301D0AA08AA08AA08AA08AA08AA08AA08AA088B
S11301E0AA08AA08AA08AA08AA08AA08AA08AA087B
S11301F0AA08AA08AA08AA08AA08AA08AA08AA086B
S1130200AA08AA08AA08AA08AA08AA08AA08AA085A
S1130210AA08AA08AA08AA08AA08AA08AA08AA084A
S1130220AA08AA08AA08AA08AA08AA08AA08AA083A
S1130230AA08AA08AA08AA08AA08AA08AA08AA082A
S1130240AA08AA089D08A908A708A508A308A10840
S11302509F0807634236B79BD8A71A39685618AE69
S1130260BAAB558C1D3CB7CC5763BD6DEDFD753EE7
S1130270F6177231BF000000803F08000000BE92F4
S11302802449123EABAAAA2ABECDCCCC4C3E0000D7
S11302900080BEABAAAAAA3E00000000BF00000076
S11302A0803F0000000000084178D3BB4387D1138E
S11302B03D190E3CC3BD4282AD2B3E68EC8276BE36
S11302C0D98FE1A93E4C80EFFFBE01C4FF7F3F0000
S11302D0000000006E616E00696E660000407A10D6
S11302E0F35A00A0724E18090010A5D4E80000E8E3
S11302F07648170000E40B54020000CA9A3B000041
S113030000E1F505000080969800000040420F00CF
S11303100000A08601000000102700000000E80390
S1130320000000006400000000000A00000000005B
S11303300100000000002C76D888DC674F0823DF1A
S1130340C1DFAE59E1B1B796E5E3E453C63AE651ED
S1130350997696E8E6C28426EB898C9B62ED407C14
S11303606FFCEFBC9C9F40F2BAA56FA5F490055AB0
S11303702AF75C936B6CF9676DC11BFCE0E40D47D5
S1130380FEF520E6B500D0ED902E030094357705F8
S11303900080841E080000204E0A000000C80C33B0
S11303A03333330F986E12831141EF8D2114893B3F
S11303B0E65516CFFEE6DB18D1844B381BF77C1DBF
S11303C0901DA4BBE424203284725E228100C9F112
S11303D024ECA1E53D2711241FBECFE5D8E0DEBF04
S11303E0CDBF12E0A0E6B0E0EAE5F3E402C0059078
S11303F00D92A23FB107D9F725E0A2EFB2E001C008
S11304001D92AE38B207E1F70E943B020C94AB2177
S11304100C940000CF93DF93CDB7DEB7AE014B5FF2
S11304205F4FFA0161917191AF0188E694E00E94F7
S1130430312188E694E00E941A18DF91CF91089543
S11304408C9A8E9ABD9A899A08950E94A20662E3B4
S113045081E00E94E0160E94DE070E94CC0488E03E
S113046090E00E94EF170E94C3140E94ED0E80B723
S11304708B7F80BF08950E94200278940E942502F9
S11304808FE790E09F938F930E940A020E942A10A4
S11304900F900F900E94DA090E94360B0E942204EA
S11304A00E947F150E943216809166040E946207A2
S11304B0809167040E9449120E9433060E94090C2D
S11304C00E94AF0E0E940B0F0E9487020E94D0026E
S11304D00E94E304DFCF83E00E946610BC01660F34
S11304E0771F660F771F860F971FBC0180E090E08F
S11304F00E943E1926E636E646EB50E40E94F519C2
S113050020E030E040E85AE30E94F5190895409154
S11305108A0550918B0560918C0570918D058091B1
S1130520F7029091F802A091F902B091FA028417AF
S11305309507A607B70798F583E00E9466108935EA
S113054022E0920718F021E02093FB028B3821E08F
S1130550920718F422E02093FB028E3521E09207E3
S113056018F423E02093FB028C5891408C3C9105B5
S113057010F41092FB0280918A0590918B05A09152
S11305808C05B0918D058C599F4FAF4FBF4F809311
S1130590F7029093F802A093F902B093FA02089537
S11305A040918A0550918B0560918C0570918D0561
S11305B08091F3029091F402A091F502B091F602B9
S11305C084179507A607B70708F086C08091FB0239
S11305D08130E9F030F0823099F1833009F467C05A
S11305E00895C5988091F3029091F402A091F502C8
S11305F0B091F60288539F4FAF4FBF4F8093F302E1
S11306009093F402A093F502B093F602089598B380
S113061080E2892788BB8091F3029091F402A09133
S1130620F502B091F60286509F4FAF4FBF4F8093B3
S1130630F3029093F402A093F502B093F6020895A6
S11306408091F202811119C081E08093F202C59A6F
S11306508091F3029091F402A091F502B091F60218
S11306608C509E4FAF4FBF4F8093F3029093F40290
S1130670A093F502B093F6020895813069F51092C3
S1130680F202C5988091F3029091F402A091F502D0
S1130690B091F60284529A4FAF4FBF4F8093F3024A
S11306A09093F402A093F502B093F6020895C59ACC
S11306B08091F3029091F402A091F502B091F602B8
S11306C088519C4FAF4FBF4F8093F3029093F40235
S11306D0A093F502B093F6020895379897B1987FE6
S11306E08770892B87B9379A0895369A3699FECF41
S11306F084B195B108950E946D030E947503089515
S1130700DC011696ED91FC911797208130E0F901F8
S113071018960C9002C0F595E7950A94E2F7CF017C
S113072081700895E5E1F5E0148281E08583148603
S11307301386128611861686158626E330E03783E3
S1130740268392E09087E8EEF4E014828583148691
S1130750138612861186168615863783268380872C
S1130760E7EFF4E0148285831486138612861186DB
S1130770168615863783268396E09087E5EDF4E0A8
S1130780148285831486138612861186168615862E
S113079040E350E05783468393E09087E6ECF4E02F
S11307A0148285831486138612861186168615860E
S11307B0378326839087E6E0F5E0148285831486E8
S11307C01386128611861686158669E370E0778390
S11307D06683A4E0A087E4E2F5E0148285831486AE
S11307E01386128611861686158643E350E05783D6
S11307F046838087E3E3F5E01482858314861386B9
S1130800128611861686158637832683A087E8EA22
S1130810F4E0148285831486138612861186168664
S11308201586778366839087E7EBF4E014828583EB
S11308301486138612861186168615865783468378
S113084010860895DF92EF92FF920F931F93CF9338
S1130850DF9340918A0550918B0560918C057091CE
S11308608D058091E4049091E504A091E604B09193
S1130870E70484179507A607B70708F085C0809199
S11308808A0590918B05A0918C05B0918D054496B5
S1130890A11DB11D8093E4049093E504A093E604A4
S11308A0B093E704C0E6D0E00F2EF4E7EF2EF0E0BB
S11308B0FF2EF02DDD24D3948E01888199810E942E
S11308C08003E881F98195818917E1F0858381307E
S11308D061F488819981DC011996ED91FC911A9754
S11308E0309709F441C009953FC081113DC088810A
S11308F09981DC011B96ED91FC911C97309721F0B6
S1130900099502C0811130C0D801ED91FC9180811C
S11309109181A281B3810196A11DB11D8083918330
S1130920A283B383D801ED91FC9180819181A2814E
S1130930B3818897A105B10510F184818130F9F064
S11309400584F685E02D309719F085E195E0099549
S1130950D801ED91FC9111971082118212821382B9
S1130960ED91FC91D4820BC0D801ED91FC911197CB
S11309701082118212821382ED91FC9114822296CC
S1130980CE15DF0509F098CFDF91CF911F910F911C
S1130990FF90EF90DF9008950E949203BA98C29A54
S11309A0B998C19ABE98C69A8B98939ABB98C39AE1
S11309B0D498DC9AA198A99ABC98C49AD398DB9A43
S11309C0A098A89A089540918A0550918B0560914A
S11309D08C0570918D058091000390910103A09185
S11309E00203B091030384179507A607B70708F01D
S11309F059C0809164049091650495FF37C080913B
S1130A00FC029091FD02A091FE02B091FF02892B9D
S1130A108A2B8B2B59F5C09A8091640490916504BC
S1130A209F7D909365048093640481E090E0A0E04E
S1130A30B0E08093FC029093FD02A093FE02B09379
S1130A40FF028091000390910103A0910203B091F1
S1130A5003038C599F4FAF4FBF4F80930003909374
S1130A600103A0930203B09303030895C098109266
S1130A70FC021092FD021092FE021092FF0280917D
S1130A80000390910103A0910203B0910303C29665
S1130A90A11DB11D8093000390930103A093020351
S1130AA0B09303030895B89AC098089580914C05B3
S1130AB0882319F0815080934C05089580914C054A
S1130AC0843018F48F5F80934C050895E0914C05B1
S1130AD0EE2331F0F0E0E85BFA4F808181508083AF
S1130AE0089520914C05822F90E0FC01EE0FFF1F2A
S1130AF0EC58FF4F3081231730F4FC01E85BFA4FC8
S1130B0080818F5F8083089580915105813071F4D5
S1130B1080915005811105C081E08093500596981D
S1130B200895813019F410925005969A0895089505
S1130B300895089568E475E084E00E94BB1088E09D
S1130B40809366058093610594989698089568E467
S1130B5075E084E00E94FF100895A8E4B5E0E4E79E
S1130B60F0E02CE730E09C918081891710F48181BA
S1130B708C9311963296E217F307A9F70895CF9351
S1130B80E0914D05C1E0CE0FC0934D05F0E0EE5B62
S1130B90FA4F80834C2F50E066EA70E082E495E0DF
S1130BA00E94DD20892B51F010924D0586E0E2E48D
S1130BB0F5E0DF011D928A95E9F73BC0C630C9F51F
S1130BC081E08093520586E595E09093210580931A
S1130BD020058EE595E09093F4048093F3048AE96C
S1130BE095E0909303058093020586E695E0909343
S1130BF0D2048093D10481E795E090931205809309
S1130C00110584E895E09093300580932F0587E9DA
S1130C1095E090933F0580933E0588E995E0909395
S1130C20B4048093B30489E995E09093C30480935A
S1130C30C204CF91089580E00E94BF05089581E029
S1130C400E94BF05089582E00E94BF05089583E0D5
S1130C500E94BF05089584E00E94BF05089585E0C1
S1130C600E94BF05089540918A0550918B056091BB
S1130C708C0570918D058091040390910503A091DA
S1130C800603B091070384179507A607B70708F072
S1130C9058C080915205813009F053C08091660597
S1130CA0873031F460914C0582E695E00E94270973
S1130CB080916105873051F4E0914C05F0E0E85BE8
S1130CC0FA4F60818DE595E00E94270980916605C1
S1130CD0883049F580916105883029F580918A052D
S1130CE090918B05A0918C05B0918D0588519C4FF6
S1130CF0AF4FBF4F8093040390930503A093060363
S1130D00B093070383E78093750581E680936905B3
S1130D1080E780936705109273058AE080936605E7
S1130D20809361050895809166058A3051F480911D
S1130D3061058A3031F410926605109261051092B3
S1130D40510508958BE196E0909321058093200549
S1130D508FE196E09093F4048093F30483E296E0A9
S1130D60909303058093020587E296E09093D20462
S1130D708093D1048BE296E0909312058093110541
S1130D808FE296E09093300580932F050E94A7058B
S1130D900E94AD0580914E05843610F010924E05E8
S1130DA080914F05843610F010924F0580915005C4
S1130DB0823010F01092500508958CEA90E09F93D1
S1130DC08F930E940A0287E595E00E940C1781E048
S1130DD080935305949815BC8F9A979A0F900F900F
S1130DE008951092530515BC979A9498089590917C
S1130DF05305925021E030E0933010F020E030E0D1
S1130E00C90108950E94F706009799F08AEB90E0D3
S1130E109F938F930E940A0215BC979A9498E3E5D6
S1130E20F5E08081818381E080830F900F9081E0E1
S1130E3090E00895809153058130D9F4949A85B552
S1130E40806385BD85B5806485BD85B5816085BDBC
S1130E50E3E5F5E08081818384E0808348EE53E01C
S1130E6060E070E087E595E00E94141781E090E06F
S1130E70089580E090E008958091560590E00895EB
S1130E8088EC90E09F938F930E940A020E940207CD
S1130E9085E0809353050F900F9008950E94F70604
S1130EA0009729F083E08093530581E090E0089552
S1130EB00E94F706009729F082E08093530581E0B1
S1130EC090E00895CF93C82F46E950E060E070E0C9
S1130ED088E093E00E946017892B09F458C0909130
S1130EE053059330E9F028F49130B9F0923041F091
S1130EF04EC0943009F448C0953009F442C047C04C
S1130F00C09356052BEEC29FC001112463E670E026
S1130F100E94641F6C5E63BD3AC01092560537C0D0
S1130F20C33378F484E18C0F809356052BEE829FB3
S1130F30C001112463E670E00E94641F6C5E63BD0F
S1130F4026C08DEC8C0F843178F48FE08C0F809365
S1130F5056052BEE829FC001112463E670E00E94C7
S1130F60641F6C5E63BD13C0C09356052BEEC29F15
S1130F70C001112463E670E00E94641F6C5E63BDCF
S1130F8006C015BC979A03C082E080935305CF91A5
S1130F900895AE9AAD9ADD9ADF9ADE9AAA9AAF9A2C
S1130FA00895929A10926A05C79A10927605AC9A9F
S1130FB010926805AB9A109274050895A69AA59AA2
S1130FC0D59AD79AD69AA29AA79A8A9AEBE6F5E086
S1130FD089E695E091838083BF9A25E735E03383E2
S1130FE02283A2E6B5E011963C932E9313969C932C
S1130FF08E931297A49A27E635E035832483A39A27
S113100083E795E097838683EDE5F5E031832083DC
S1131010938382830E94D1070E94C9070895CF93C6
S1131020DF93FC01308120917C00321709F495C0D4
S1131030EC010E94C907E8818E2F90E08F3F910553
S113104008F088C0FC01E65DFF4F0C949A1FAE982F
S1131050AD98DD98DF98DE98AA987CC0AD98DD98AD
S113106079C0AE98AD98AF98DE98DF9873C0AE980B
S1131070AD98AF98DD98DF986DC0AA98AF98AD98F9
S1131080DD9868C0AE98AA98AF98DD98DF9862C0E2
S1131090AE98AA98AF98DD98DF98DE985BC0AE98BA
S11310A0AD98DD9857C0AE98AD98DD98DF98DE987E
S11310B0AA98AF984FC0AE98AD98DD98DF98AA98DB
S11310C0AF9848C0AE98AD98DD98DE98AA98AF98CE
S11310D041C0DD98DF98DE98AA98AF983BC0AE98DF
S11310E0DF98DE98AA9836C0AD98DD98DF98DE9830
S11310F0AF9830C0AE98DF98DE98AA98AF982AC00F
S1131100AE98DE98AA98AF9825C0DE98AF9822C012
S1131110DD98DF98DE98AF981DC0AE98AD98DE9844
S1131120AA98AF9817C0AE98DD98DF98AA98AF98A0
S113113011C0DF98DE98AA980DC0AF980BC0AA988A
S113114009C0DE9807C0DF9805C0DD9803C0AD98DC
S113115001C0AE98888180937C00DF91CF9108957F
S1131160CF93DF93EC010E94D107CE010E940F08B8
S113117085E0C936D80729F4929881E080936A05FE
S113118019C085E0C537D80729F4C79881E0809352
S1131190760510C085E0C736D80729F4AC9881E0FD
S11311A08093680507C0C357D54021F4AB9881E00C
S11311B080937405DF91CF910895EF92FF921F936E
S11311C0CF93DF93FC01C081D1812196D183C08369
S11311D09E01ADECBCEC0E94A01F96958795969558
S11311E08795969587959C01220F331F880F991F29
S11311F0880F991F880F991F820F931FC817D9074B
S113120001F57F0110910D03143058F4E12FF0E043
S1131210EE0FFF1FE559FA4F808191810E94B008BB
S113122002C00E94D1071F5F153019F010930D03FF
S113123002C010920D03C039D14019F4F701118294
S11312401082DF91CF911F91FF90EF900895FC01E0
S11312506436F8F4611108C0A081B1811C92028047
S1131260F381E02D10820895A081B1819DEC699FE6
S1131270912D11249695969596959C930280F381D1
S1131280E02D892F880F982F990F990F890F681BCC
S113129060830895FC0160830895813039F018F06B
S11312A0823039F0089560932903089560932803E8
S11312B0089560932803609329030895882319F0FF
S11312C0813029F008C08091660590E008958091EE
S11312D0610590E008958FEF9FEF08958091660572
S11312E0863021F4809177058093660580916105AD
S11312F0863021F4809178058093610508958130CA
S1131300A1F018F0823009F10895663021F480913B
S113131066058093770580916605863019F460939D
S113132077050895609366050895663021F48091E9
S113133061058093780580916105863019F4609386
S113134078050895609361050895663041F48091AD
S11313506605809377058091610580937805809177
S11313606605863029F460937805609377050895BF
S11313706093660560936105089595E09093660512
S11313809093610580932303089568EF89E695E0BF
S11313900E944A0968EF85E795E00E944A0968EFD0
S11313A087E695E00E944A0968EF83E795E00E948A
S11313B04A09089580918A0590918B05A0918C0526
S11313C0B0918D0540911203509113036091140361
S11313D070911503481759076A077B0708F026C15F
S11313E080916605833009F459C030F4882309F4E8
S11313F087C0813039F18EC0853009F474C048F15A
S1131400863009F087C00E946B0220E030E048EC8F
S113141052E40E94F5190E94081970932203609304
S113142021039B013695279536952795ABE7B4E1C3
S11314300E94A01F96958795682F82E695E00E94EA
S1131440270968C06091290382E695E00E94270974
S113145061C080916105843031F081E0809366053C
S11314608093610557C048515C4F6F4F7F4F409345
S1131470120350931303609314037093150383E7CB
S11314808093750581E68093690580E780936705FD
S113149081E08093660580936105089580916105DC
S11314A0833031F081E0809366058093610532C01A
S11314B048515C4F6F4F7F4F409312035093130377
S11314C060931403709315038CE6809375058FE67F
S11314D08093690580E78093670581E080936605C2
S11314E08093610517C085E68093750582E7809334
S11314F06905609123038DE595E00E9427090AC0E0
S113150068EF89E695E00E944A0968EF85E795E06F
S11315100E944A0980916105813019F148F18630B1
S113152019F08D3081F16FC0409121035091220355
S11315309A013695279536952795ABE7B4E10E9435
S1131540A01F9695879564E6689F9001699F300D6A
S11315501124BA01621B730B8DE595E00E942709E3
S113156052C0609128038DE595E00E9427094BC085
S113157068EF87E695E00E944A0968EF83E795E003
S11315800E944A0940C044EF51E060E070E08CE101
S113159093E00E946017892BB1F180911B038111A4
S11315A00EC081E080931B0367EF87E695E00E94FD
S11315B04A0967EF83E795E00E944A0924C0109224
S11315C01B038091170390911803A0911903B09104
S11315D01A030097A105B10529F461E081E00E9496
S11315E07F0911C00197A109B10980931703909352
S11315F01803A0931903B0931A03609116038DE5A1
S113160095E00E9427098091120390911303A09101
S11316101403B0911503C296A11DB11D809312034A
S113162090931303A0931403B093150308950F9399
S11316301F9300918A0510918B0520918C053091A0
S11316408D05DC01CB01800F911FA21FB31F809376
S1131650240390932503A0932603B093270362E009
S1131660842F0E947F091F910F9108958091660530
S1131670823029F080916105823009F078C0409170
S11316808A0550918B0560918C0570918D05809130
S11316900E0390910F03A0911003B09111038417CE
S11316A09507A607B70708F062C080918A05909154
S11316B08B05A0918C05B0918D0581559F4FAF4F3F
S11316C0BF4F80930E0390930F03A0931003B09326
S11316D0110380916605823061F460917E0089E691
S11316E095E00E944A0960917E0085E795E00E949A
S11316F04A0980916105823061F460917D0087E63A
S113170095E00E944A0960917D0083E795E00E947C
S11317104A0940918A0550918B0560918C0570911E
S11317208D058091240390912503A0912603B09107
S1131730270384179507A607B70728F461E082E01A
S11317400E947F09C59890917E009F5F90937E00D0
S113175080917D00815080937D009F3F19F499EF23
S113176090937E00883F19F48EEF80937D00089556
S1131770E199FECF9FBB8EBB6DBBE29AE19A0895BF
S1131780E199FECF9FBB8EBBE09A8DB30895CF93B2
S1131790C82F8091640490916504826090936504DD
S11317A0809364048C2F0E94BD090E9440070E940C
S11317B06E110E949A16C0937905CF9108951092E4
S11317C04203109241031092400310923803109286
S11317D0390383E493E00E94561783E393E00E9465
S11317E056171092790508951092420310924103FE
S11317F010924003109238031092390383E493E06B
S11318000E94561783E393E00E94561710927905BD
S113181008954F925F926F927F928F929F92AF92B0
S1131820BF92CF92DF92EF92FF9240918A0550913E
S11318308B0560918C0570918D0580912F0390919B
S11318403003A0913103B091320384179507A607A2
S1131850B70708F077C28091640480FF73C2409197
S11318608A0550918B0560918C0570918D054C50C3
S11318705E4F6F4F7F4F40932F035093300360931D
S113188031037093320381FD5DC20E946B024B01F0
S11318905C010E943C07BC0180E090E00E943E197C
S11318A06B017C0125E935E640ED5FE30E94621A95
S11318B02B013C01A7019601C501B4010E94F51951
S11318C020E030E048EC52E40E9496184B015C01A1
S11318D023E333E343E651E4C701B6010E94F5195B
S11318E020E030E048EC52E40E9496189B01AC01E1
S11318F0C501B4010E94291820E030E040E450E41E
S11319000E9496184B015C0128E539E344E35CE34B
S1131910C301B2010E94F5199B01AC01C501B401D8
S11319200E942A184B015C0160914E0570E06253DD
S11319307109072E000C880B990B0E944019A7010E
S113194096010E94F51920E030E048EC52E40E9430
S11319509618A50194010E942A1860933C03709381
S11319603D0380933E0390933F0380E00E94661002
S113197042E05BE267E07DE380E00E947F1020911B
S11319803C0330913D0340913E0350913F030E943C
S1131990F01918166CF40E94F706892B49F081E0BF
S11319A08093400380915005813009F4A6C1CAC1D7
S11319B01092400380915005813009F0C3C1B1C138
S11319C081E08093420387ED90E09F938F930E9480
S11319D00A020E943C072EE1AC01249FC001259F0E
S11319E0900D112448E853E17A01E81AF90AFF92AC
S11319F0EF9282EF90E09F938F930E940A02A701D7
S1131A0060E070E083E493E00E9414170F900F905D
S1131A100F900F900F900F90BAC083E493E00E9450
S1131A203617892B09F4B3C00E944E070E943C0765
S1131A302EE1AC01249FC001259F900D112448E89C
S1131A4053E17A01E81AF90AFF92EF9281E191E0F9
S1131A509F938F930E940A02A70160E070E083E4E1
S1131A6093E00E94141782E08093420385E391E09F
S1131A709F938F930E940A020F900F900F900F90E4
S1131A800F900F9084C083E493E00E943617892B53
S1131A9009F47DC083E08093420385E591E09F9340
S1131AA08F930E940A020F900F9071C081E00E94F0
S1131AB0C70B6DC083E493E00E943617892B09F4A9
S1131AC066C040ED57E060E070E083E493E00E947C
S1131AD01417809141038093420381E791E09F931F
S1131AE08F930E940A020F900F9051C083E493E0F9
S1131AF00E943617892B09F44AC040ED57E060E094
S1131B0070E083E493E00E94141784E0809342031E
S1131B1081E08093410388E991E09F938F930E9431
S1131B200A020F900F9033C083E493E00E943617AB
S1131B30892B69F140ED57E060E070E083E493E0C5
S1131B400E9414170E94580784E08093420382E0A5
S1131B508093410388E991E09F938F930E940A0246
S1131B600F900F9014C081E00E94C70B10C083E453
S1131B7093E00E943617892B51F083EB91E09F93F9
S1131B808F930E940A02109242030F900F9080914B
S1131B905005813009F0D6C080914E0590E0C29680
S1131BA090933B0380933A0381E00E946610209156
S1131BB03A0330913B0328173907D8F43F932F9306
S1131BC08CEC91E09F938F930E940A0281E08093B2
S1131BD038030F900F900F900F908091390381304C
S1131BE051F1A8F0823009F44BC0833009F452C09B
S1131BF0A9C01092380380913903823009F468C077
S1131C00833009F476C0813009F09CC047C081E07C
S1131C108093390383EE91E09F938F930E940A028D
S1131C2044EF51E060E070E083E393E00E94141716
S1131C300F900F9087C083E393E00E943617892B9F
S1131C4009F480C00E94DB11049724F083E08093A0
S1131C50390378C04CED55E060E070E083E393E035
S1131C600E94141782E0809339030E94CF118EEFF3
S1131C7091E09F938F930E940A020F900F9062C08D
S1131C8083E393E00E943617892B09F45BC010921A
S1131C90390358C082E00E94C70B54C083E393E029
S1131CA00E943617892B09F44DC040ED57E060E0DF
S1131CB070E083E393E00E9414171092390388E1E3
S1131CC092E09F938F930E940A020F900F903AC064
S1131CD083E393E00E943617892BA1F11092390314
S1131CE088E192E09F938F930E940A020F900F90D5
S1131CF029C082E00E94C70B25C080914203823034
S1131D0009F4C1CE38F4882309F45ACE813009F499
S1131D1084CE3DCF833009F4C9CE843009F4CACED1
S1131D2036CF80914203823009F4FECE20F4813014
S1131D3009F4DCCE2CCF833009F415CF843009F4B8
S1131D4016CF25CFFF90EF90DF90CF90BF90AF904C
S1131D509F908F907F906F905F904F9008954EE585
S1131D6051E060E070E08AE293E00E946017892B02
S1131D7009F180917905813071F492B380E189276A
S1131D8082BB809164049091650490629093650491
S1131D90809364040895823069F492B380E48927BF
S1131DA082BB809164049091650490629093650471
S1131DB0809364040895FC0120813181623058F0DD
S1131DC0329691E041915191240F351F3695279514
S1131DD09F5F6913F7CFC9010895EEE8F3E026EB9E
S1131DE033E081EF91E0819391932E173F07D9F768
S1131DF0EDE6F3E08BE893E0119211928E179F07C2
S1131E00D9F7E5E5F3E089E693E0119211928E1794
S1131E109F07D9F70895CF92DF92EF92FF92CF9365
S1131E20DF9340918A0550918B0560918C057091E8
S1131E308D0580914C0390914D03A0914E03B09178
S1131E404F0384179507A607B70708F0FCC08091D5
S1131E508A0590918B05A0918C05B0918D054496CF
S1131E60A11DB11D80934C0390934D03A0934E0389
S1131E70B0934F0380E00E947B03EC0160918B03DD
S1131E8070918C0380E090E00E943E1921E73DE3CD
S1131E904AE85EE30E94F5196B017C01BE0180E013
S1131EA090E00E943E199B01AC01C701B6010E945B
S1131EB02A180E940F197093B9036093B8032091F4
S1131EC0BA03E22FF0E0EE0FFF1FE257FC4F7183DD
S1131ED0608381E0820F8093BA0382E00E947B03D7
S1131EE08032910530F04F9790936C0380936B038D
S1131EF004C010926C0310926B03E0918D03F0E028
S1131F00EE0FFF1FE359FC4F80916B0390916C031C
S1131F109183808381E00E947B0320915003309160
S1131F2051032817390728F41092530310925203CF
S1131F3006C0281B390B309353032093520380911E
S1131F405403C0915203D0915303E82FF0E0EE0FF5
S1131F50FF1FEB5AFC4FC083D18390918D039F5F89
S1131F6090938D038F5F8093540364E18EE893E034
S1131F700E94DB0E9093B7038093B6036FE08DE667
S1131F8093E00E94DB0E90938C0380938B036AE0B2
S1131F9085E593E00E94DB0E90936A0380936903C6
S1131FA0609148037091490380914A0390914B03D7
S1131FB020E530E040E050E00E94781F672B682B5A
S1131FC0692BE1F480916C038F9380916B038F9361
S1131FD0DF93CF938091B9038F938091B8038F934C
S1131FE081E392E09F938F930E940A028DB79EB77C
S1131FF008960FB6F8949EBF0FBE8DBF809148031C
S113200090914903A0914A03B0914B030196A11DFD
S1132010B11D8093480390934903A0934A03B0935E
S11320204B038091BA03843111F41092BA03809166
S113203054038A3011F41092540380918D038F302D
S113204011F410928D03DF91CF91FF90EF90DF9008
S1132050CF900895CF92DF92EF92FF92CF93DF93C8
S1132060C0908A05D0908B05E0908C05F0908D058A
S11320708CEDC80E85E0D81EE11CF11CC8E8D5E043
S11320800E940B0F8A819B81AC81BD81C816D90641
S1132090EA06FB06A8F78091690390916A0380938E
S11320A05003909351039F938F9381E692E09F9303
S11320B08F930E940A020F900F900F900F90DF9160
S11320C0CF91FF90EF90DF90CF900895833018F474
S11320D0813040F00CC0833079F48091B603909144
S11320E0B703089580918B0390918C030895809198
S11320F0690390916A03089580E090E00895CF9277
S1132100DF92EF92FF926A017B01833018F48130F1
S113211050F010C08330A9F46091B6037091B703F6
S113212080E090E011C060918B0370918C0380E09B
S113213090E00AC06091690370916A0380E090E0C6
S113214003C060E070E0CB010E943E1920E030E063
S113215040E85AE30E94F51920E030E040EA50E4F8
S11321600E94F519A70196010E949618FF90EF901E
S1132170DF90CF900895EF92FF920F931F93CF9328
S11321808B01823059F028F4882391F0813019F1C1
S113219030C0833029F1843031F02BC022E030E0AC
S11321A084E090E021C024E030E088E090E01CC0AE
S11321B06894EE24E1F8F12CC0E0F80161918F01FC
S11321C08C2F90E00E94B80BCF5F8C2F90E08E157F
S11321D09F059CF30EC022E030E082E090E004C052
S11321E022E030E086E090E0C82F7901E80EF91E85
S11321F0E4CFCF911F910F91FF90EF900895EF924C
S1132200FF920F931F93CF938B01823059F028F4E0
S1132210882391F0813019F130C0833029F1843062
S113222031F02BC022E030E084E090E021C024E0D3
S113223030E088E090E01CC06894EE24E1F8F12CD2
S1132240C0E08C2F90E00E94C00BF80181938F01B5
S1132250CF5F8C2F90E08E159F059CF30EC022E07B
S113226030E082E090E004C022E030E086E090E0DC
S1132270C82F7901E80EF91EE4CFCF911F910F9179
S1132280FF90EF900895811105C08CE697E09BBD07
S11322908ABD0895823390F490E022273327281BC7
S11322A0390B220F331F220F331F220F331F820FCC
S11322B0931F885F984F9BBD8ABD0895843668F448
S11322C090E0C297880F991F880F991F2AEA35E07A
S11322D0A901481B590B5BBD4ABD089580E00E94CB
S11322E04311969885E080937A050895CF93DF9300
S11322F02FE13EE437BD26BD81B3806381BB19BCA9
S113230018BC1BBC1ABC8FB582608FBD8EB58861AA
S11323108EBD8FB580688FBD8EB582608EBD3BBD8E
S11323202ABD9698CAE7D5E081E088831B828EE7B0
S113233095E00E940C1719861092CF0387E892E06B
S11323409F938F930E940A020F900F90DF91CF9179
S1132350089590917A05925021E030E0923010F087
S113236020E030E0C901089590917A059130A1F4FC
S1132370EAE7F5E093E0908383831F928F9384E9E7
S113238092E09F938F930E940A020F900F900F90F8
S11323900F9081E090E0089580E090E008958091AE
S11323A07A059FEF980F923028F4EAE7F5E08183ED
S11323B084E0808308958091830590E008950E94CD
S11323C0A9110097C1F080E00E944311EAE7F5E00B
S11323D081E0808313821F921F928BEA92E09F9385
S11323E08F930E940A0296980F900F900F900F906F
S11323F081E090E0089520917A05243021F40E9430
S1132400041281E090E0089580917B05823029F4E4
S113241080937A050E94DF1109C0813071F4EAE7E4
S1132420F5E082E0808383810E941E121092CF0324
S1132430EAE7F5E081858F5F81870895CF93C82F00
S113244080917A059FEF980F9330C0F4EAE7F5E0A6
S113245082E08083C3838C2F0E9443111F92CF9309
S11324608CEB92E09F938F930E940A02969A0F90AE
S11324700F900F900F9081E090E009C0843029F410
S11324800E94041281E090E002C080E090E0CF91CD
S11324900895CF93DF93C82F4BE450E060E070E0E1
S11324A08AEC93E00E946017892B09F4B6C08091EE
S11324B07A058430A1F030F4823059F0833009F485
S11324C061C09BC0853009F477C0863009F491C09F
S11324D094C0C0937D058C2F0E9443118EC08091BF
S11324E0CF03811113C044E650E060E070E085EC56
S11324F093E00E9414178091CF038F5F8093CF03E2
S113250090917D05890F0E94431128C08150893024
S1132510C8F485EC93E00E9436170197F9F444E679
S113252050E060E070E085EC93E00E941417809125
S1132530CF038F5F8093CF0390917D05890F0E9415
S113254043110CC01092CF03CAE7D5E08B810E94DF
S113255043118981888389858F5F898720917D05CF
S11325608091CF0390E0820F911D9F938F938EEC07
S113257092E09F938F930E940A020F900F900F9006
S11325800F903BC080EC93E00E942C17892B59F0EC
S113259080EC93E00E943617019779F582E08093EE
S11325A07A05969A2AC040ED57E060E070E080EC2E
S11325B093E00E94141721C08BEB93E00E942C1728
S11325C0892B71F08BEB93E00E9436170197A9F4E5
S11325D086E080937A058FE19EE49BBD8ABD0DC0A1
S11325E040ED57E060E070E08BEB93E00E9414173D
S11325F004C08FE19EE49BBD8ABD8EE795E00E94F6
S11326003617019751F4109283058CED92E09F9355
S11326108F930E940A020F900F90DF91CF9108953B
S1132620E5E1F5E016861586128611861486138672
S1132630E8EEF4E016861586128611861486138653
S11326401092030510920205E6ECF4E01686158656
S11326501486138612861186E6E0F5E01686158642
S113266014861386128611861092300510922F0557
S1132670E3E3F5E014861386168615861286118622
S1132680E8EAF4E014861386168615861286118607
S1132690E7EBF4E0148613861686158612861186F7
S11326A008958091D803823049F080916404909118
S11326B06504986090936504809364040895809100
S11326C0D803823049F08091640490916504806855
S11326D090936504809364040895809164049091B8
S11326E065049260909365048093640408958091D6
S11326F0640490916504997F9093650480936404C5
S11327001092D903089580916404909165048062C5
S11327109093650480936404089580916404909177
S113272065048F7990936504809364041092D903AF
S11327300895809164049091650490629093650477
S113274080936404809167048B3018F081508093E7
S113275067046091670481E00E944D0961E082E0B2
S11327600E947F09089580916404909165049062A9
S1132770909365048093640480916704833618F40D
S11327808F5F809367046091670481E00E944D0924
S113279061E082E00E947F09089580916404909131
S11327A06504906290936504809364048091660448
S11327B08B3018F08150809366046091660480E049
S11327C00E944D0980E00E945E09029729F461E0AD
S11327D082E00E947F0904C061E080E00E947F09DA
S11327E08091D8038F5F8093D803823019F466E018
S11327F00E947F0908958091640490916504906219
S1132800909365048093640480916604833618F47D
S11328108F5F809366046091660480E00E944D0996
S113282080E00E945E09029729F461E082E00E9440
S11328307F0904C061E080E00E947F098091D80391
S11328408F5F8093D803823019F466E00E947F0979
S113285008950E946E098091640490916504977EA6
S113286090936504809364041092D9038091D803F3
S1132870882319F081508093D80380E00E945E0978
S1132880029729F461E082E00E947F09089561E0E3
S113289080E00E947F0908950E946E09809164047B
S11328A0909165048F779E7F909365048093640470
S11328B01092D9038091D803882319F08150809312
S11328C0D80380E00E945E09029729F461E082E067
S11328D00E947F09089561E080E00E947F090895C5
S11328E0E6E8F5E080916604808380916704818343
S11328F0BF0183E00E94BB1008958091640490910D
S113290065049062909365048093640480916604E6
S11329108A3038F48AE0809366046AE080E00E949A
S11329204D090E9470140E94F706892B39F40E9405
S11329301A07809167040E94B41108950E94020747
S11329400E94DF110895809164049091650490625F
S11329509093650480936404809167048A3038F40A
S11329608AE0809367046AE081E00E944D090E9436
S1132970A911892B19F00E94DF1108958091670431
S11329800E941E1208958AE695E19093DF048093D5
S1132990DE0460E082E00E947F090E94C50964E8C9
S11329A075E083E00E94FF108091850596EF980FF3
S11329B09A3510F4809367048091840596EF980FFC
S11329C09A3510F48093660408951092D80342E077
S11329D068EE73E080E090E00E94170B0E94DD0631
S11329E080E00E9476110E94DF0B0E94ED0E0E948F
S11329F0530581E090E09093650480936404E5E1DD
S1132A00F5E081E593E1968785878DEC93E19487E2
S1132A10838789E294E192878187E8EEF4E08FE589
S1132A2093E1968785878BEF93E1948783878CE482
S1132A3094E1928781878DE794E1909303058093D5
S1132A400205E6ECF4E08DE693E19687858787E757
S1132A5093E19287818789E993E194878387E6E00C
S1132A60F5E083E893E1968785878DE893E1928783
S1132A70818783EB93E19487838783EA94E190933E
S1132A80300580932F056091660480E00E944D0913
S1132A906091670481E00E944D0908951092D80363
S1132AA00E94F1060E9410130E94F40B0E94DF1191
S1132AB0109265041092640460E082E00E947F0931
S1132AC080916404909165048E7F90936504809353
S1132AD0640408950E9470148091640480FF03C00C
S1132AE00E944E1502C00E94E514809164049091E6
S1132AF06504906290936504809364040895409102
S1132B008A0550918B0560918C0570918D0580919B
S1132B10D0039091D103A091D203B091D303841731
S1132B209507A607B70708F09CC08091640485FF49
S1132B301DC0609167046336C8F46F5F60936704D7
S1132B4081E00E944D098091DC038F5F8093DC0358
S1132B508F3060F080916404909165048F7D80646F
S1132B6090936504809364041092DC038091640460
S1132B709091650491FF1DC0609167046623C9F0BC
S1132B8061506093670481E00E944D098091DB03EA
S1132B908F5F8093DB038F3060F0809164049091A9
S1132BA065049D7F946090936504809364041092FF
S1132BB0DB038091640487FF1DC060916604633663
S1132BC0C8F46F5F6093660480E00E944D098091B1
S1132BD0DA038F5F8093DA038F3060F080916404AE
S1132BE0909165048F779160909365048093640459
S1132BF01092DA03809164049091650493FF1DC0E0
S1132C00609166046B30C8F061506093660480E0A4
S1132C100E944D098091D9038F5F8093D9038F302F
S1132C2060F08091640490916504977F9061909323
S1132C306504809364041092D9038091D003909129
S1132C40D103A091D203B091D303805B9F4FAF4FC8
S1132C50BF4F8093D0039093D103A093D203B0933A
S1132C60D303089540918A0550918B0560918C059A
S1132C7070918D058091D4039091D503A091D603D2
S1132C80B091D70384179507A607B70708F051C07A
S1132C9060916704633650F48091640486FF06C033
S1132CA06F5F6093670481E00E944D09609167043F
S1132CB0662361F0809164049091650492FF06C0DC
S1132CC061506093670481E00E944D09609166043D
S1132CD0633660F4809164049091650490FF06C0AB
S1132CE06F5F6093660480E00E944D096091660402
S1132CF06B3060F0809164049091650494FF06C089
S1132D0061506093660480E00E944D098091D40371
S1132D109091D503A091D603B091D7034E96A11DEF
S1132D20B11D8093D4039093D503A093D603B0939D
S1132D30D70308950E94101308951F920F920FB69F
S1132D400F9211242F933F934F935F936F937F932D
S1132D508F939F93AF93BF93EF93FF93E8E8F5E0CE
S1132D6080819181C2969183808380819181883E04
S1132D70934088F082819381A481B5810196A11D3D
S1132D80B11D82839383A483B58380819181885EFE
S1132D909340918380838DED93E00E94DD08FF9141
S1132DA0EF91BF91AF919F918F917F916F915F91BF
S1132DB04F913F912F910F900FBE0F901F90189538
S1132DC093B7986093BF6CBF823099F028F488233E
S1132DD041F0813051F019C0833079F0843089F0AA
S1132DE014C083B7816083BF13C083B7826083BF7D
S1132DF00FC083B7836083BF0BC083B7846083BF76
S1132E0007C083B7856083BF03C083B7816083BF76
S1132E1089B7826089BF089523E0FC01248310826E
S1132E2011821282138208950F931F9321E0FC01F3
S1132E30248300918A0510918B0520918C05309193
S1132E408D05400F511F621F731F4083518362839E
S1132E5073831F910F91089521E030E0FC01848178
S1132E60813011F020E030E0C9010895FC01848133
S1132E708130B1F480918A0590918B05A0918C05E5
S1132E80B0918D0540815181628173814817590742
S1132E906A077B0740F482E0848381E090E0089530
S1132EA08FEF9FEF089580E090E0089521E030E0F7
S1132EB0FC018481833011F020E030E0C9010895E1
S1132EC0CF92DF92EF92FF920F931F93CF93DF93F2
S1132ED0EC016A017B018C81811106C083E08C8343
S1132EE0188219821A821B82CE010E9436178C0125
S1132EF0019731F4B701A601CE010E9414170DC049
S1132F008C81833041F4B701A601CE010E941417CD
S1132F1000E010E002C000E010E0C801DF91CF91B2
S1132F201F910F91FF90EF90DF90CF9008951F9223
S1132F300F920FB60F9211242F933F934F935F93E9
S1132F408F939F93EF93FF932BB13CB128718091A2
S1132F50E10390E001964091E00350E08417950767
S1132F6039F08093E103FC01EC51FC4F308301C044
S1132F7022E02093DF03FF91EF919F918F915F9166
S1132F804F913F912F910F900FBE0F901F90189566
S1132F901F920F920FB60F9211248F939F93EF936A
S1132FA0FF939091E3038091E203981771F080916D
S1132FB0E20390E001968F7799278093E203FC0166
S1132FC0EC51FC4F80818CB901C05598FF91EF9171
S1132FD09F918F910F900FBE0F901F901895F894AA
S1132FE01092E3031092E2031092E1031092E003C3
S1132FF0789499231CF422E02BB99F7790BD89B96A
S113300088E98AB986E880BD08954091E30350E0D9
S11330104F5F5F4F4F7755272091E20330E042170F
S11330205307D1F3FA01EC51FC4F80834093E3033F
S1133030559A0895CF93DF93EC018881882331F06A
S113304021960E94051889918111FBCFDF91CF91C0
S113305008955058BB27AA270E9441180C94B6190A
S11330600E94A81938F00E94AF1920F039F49F3F4C
S113307019F426F40C94A5190EF4E095E7FB0C94CE
S11330809F19E92F0E94C71958F3BA1762077307EB
S11330908407950720F079F4A6F50C94E9190EF449
S11330A0E0950B2EBA2FA02D0B01B90190010C0154
S11330B0CA01A0011124FF27591B99F0593F50F46C
S11330C0503E68F11A16F040A22F232F342F4427C4
S11330D0585FF3CF469537952795A795F0405395BC
S11330E0C9F77EF41F16BA0B620B730B840BBAF08C
S11330F09150A1F0FF0FBB1F661F771F881FC2F7F7
S11331000EC0BA0F621F731F841F48F4879577950A
S11331106795B795F7959E3F08F0B0CF9395880FC4
S113312008F09927EE0F9795879508950E94AA189D
S11331300C94B6190E94AF1958F00E94A81940F0D7
S113314029F45F3F29F00C949F1951110C94EA194A
S11331500C94A5190E94C71968F39923B1F3552358
S113316091F3951B550BBB27AA2762177307840796
S113317038F09F5F5F4F220F331F441FAA1FA9F32C
S113318035D00E2E3AF0E0E832D091505040E6951A
S1133190001CCAF72BD0FE2F29D0660F771F881F7B
S11331A0BB1F261737074807AB07B0E809F0BB0B6E
S11331B0802DBF01FF2793585F4F3AF09E3F510582
S11331C078F00C949F190C94EA195F3FE4F3983E4D
S11331D0D4F3869577956795B795F7959F5FC9F76B
S11331E0880F911D9695879597F90895E1E0660FEC
S11331F0771F881FBB1F621773078407BA0720F065
S1133200621B730B840BBA0BEE1F88F7E0950895CD
S11332100E940F196894B1110C94EA1908950E9440
S1133220CF1988F09F5798F0B92F9927B751B0F06C
S1133230E1F0660F771F881F991F1AF0BA95C9F736
S113324014C0B13091F00E94E919B1E008950C94D2
S1133250E919672F782F8827B85F39F0B93FCCF385
S1133260869577956795B395D9F73EF490958095B3
S1133270709561957F4F8F4F9F4F0895E89409C0D3
S113328097FB3EF490958095709561957F4F8F4F95
S11332909F4F9923A9F0F92F96E9BB279395F695AB
S11332A0879577956795B795F111F8CFFAF4BB0F29
S11332B011F460FF1BC06F5F7F4F8F4F9F4F16C08D
S11332C0882311F096E911C0772321F09EE8872F17
S11332D0762F05C0662371F096E8862F70E060E0D3
S11332E02AF09A95660F771F881FDAF7880F96954C
S11332F0879597F90895990F0008550FAA0BE0E8F0
S1133300FEEF16161706E807F907C0F012161306A3
S1133310E407F50798F0621B730B840B950B39F4E3
S11333200A2661F0232B242B252B21F408950A2649
S113333009F4A140A6958FEF811D811D089597F989
S11333409F6780E870E060E008959FEF80EC089547
S113335000240A9416161706180609060895002470
S11333600A9412161306140605060895092E0394EA
S1133370000C11F4882352F0BB0F40F4BF2B11F45E
S113338060FF04C06F5F7F4F8F4F9F4F089557FDBD
S11333909058440F551F59F05F3F71F04795880FBF
S11333A097FB991F61F09F3F79F087950895121656
S11333B013061406551FF2CF4695F1DF08C0161602
S11333C017061806991FF1CF8695710561050894B3
S11333D00895E894BB2766277727CB0197F90895CA
S11333E00E947B1908F48FEF08950E94081A0C9428
S11333F0B6190E94A81938F00E94AF1920F095233D
S113340011F00C949F190C94A51911240C94EA1929
S11334100E94C71970F3959FC1F3950F50E0551F93
S1133420629FF001729FBB27F00DB11D639FAA2715
S1133430F00DB11DAA1F649F6627B00DA11D661F64
S1133440829F2227B00DA11D621F739FB00DA11D85
S1133450621F839FA00D611D221F749F3327A00D3F
S1133460611D231F849F600D211D822F762F6A2FDB
S113347011249F5750409AF0F1F088234AF0EE0F40
S1133480FF1FBB1F661F771F881F91505040A9F76D
S11334909E3F510580F00C949F190C94EA195F3FEC
S11334A0E4F3983ED4F3869577956795B795F795A9
S11334B0E7959F5FC1F7FE2B880F911D9695879521
S11334C097F90895FA01EE0FFF1F30962105310593
S11334D0A1F16115710561F48038BFE39B0749F1DF
S11334E068949038810561F08038BFEF9B0741F004
S11334F099234AF5FF3FE1053105210519F1E894C7
S11335000894E795D901AA2329F4AB2FBE2FF85FBD
S1133510D0F310C0FF5F70F4A695E0F7F73950F0D0
S113352019F0FF3A38F49F779F930DD00F9007FC62
S11335309058089546F00C94A51960E070E080E876
S11335409FE308954FE79F775F934F933F932F93A4
S11335500E945D1B2F913F914F915F910E94F5193D
S11335600C94BA1A29F416F00C949F190C94E919C6
S11335700C94A5190E94CF19A8F39638A0F707F860
S11335800F92E8942BE33AEA48EB5FE70E940B1AA8
S11335900F920F920F924DB75EB70F920E94A51B28
S11335A0E2E5F2E00E94EC1A4F915F91EF91FF91F6
S11335B0E595EE1FFF1F49F0FE57E0684427EE0F24
S11335C0441FFA95E1F74195550B0E941F1B0F907C
S11335D007FE0C94131B0895DF93CF931F930F934F
S11335E0FF92EF92DF927B018C01689406C0DA2E81
S11335F0EF010E94081AFE01E894A59125913591E6
S113360045915591A6F3EF010E944118FE019701DF
S1133610A801DA9469F7DF90EF90FF900F911F9162
S1133620CF91DF9108959B01AC0160E070E080E8E8
S11336309FE30C9496180C949F190C94D91B0E9428
S1133640CF19D8F39923C9F3940F511DA3F39150C3
S1133650504094F059F0882332F0660F771F881F8A
S113366091505040C1F79E3F51052CF7880F911D92
S11336709695879597F908955F3FACF0983E9CF036
S1133680BB27869577956795B79508F4B1609395B0
S1133690C1F7BB0F58F711F460FFE8CF6F5F7F4F9E
S11336A08F4F9F4FE3CF0C94EA1916F00C94D91B5B
S11336B00C94A51968940C949F190E94CF19A8F32F
S11336C09923C1F3AEF3DF93CF931F930F93FF922C
S11336D0C92FDD2788232AF02197660F771F881FBB
S11336E0DAF720E030E040E85FEB9FE3883920F030
S11336F0803E38F021968F770E942A18EAE7F2E09C
S113370004C00E942A18E7EAF2E00E94EC1A8B0136
S1133710BE01EC01FB2E6F5771097595771F880B5D
S1133720990B0E94401928E132E741E35FE30E94CC
S1133730081AAF2D9801AE01FF900F911F91CF9100
S1133740DF910E9441180C94B619FA01DC01AA0F0A
S1133750BB1F9B01AC01BF5728F422273327442702
S1133760507820C0B75190F4AB2F0024469537957C
S11337702795011CA395D2F3002071F0220F331F6B
S1133780441FB395DAF30ED00C94291861307105F7
S1133790A0E88A07B94630F49B01AC016627772775
S11337A088279078309621F0208331834283538395
S11337B008959F3F31F0915020F487957795679550
S11337C0B795880F911D9695879597F90895A0E16F
S11337D0B0E0EDEEFBE10C94AF1F7C011B016A012C
S11337E0FC0117821682838181FF44C39E012F5FEF
S11337F03F4F3901F7019381F10193FD859193FFC7
S113380081911F01882309F431C3853239F493FD72
S1133810859193FF81911F01853239F4B70190E0BE
S11338200E94F52056016501E5CF10E0512C912C42
S1133830FFE1F915D8F08B3279F038F4803279F061
S11338408332A1F4F92DF0612EC08D3261F0803302
S113385069F4292D21602DC0392D3260932E892DD4
S11338608460982E2AC0E92DE86015C097FC2DC00D
S113387020ED280F2A3088F496FE06C03AE0139F04
S1133880200D1124122F19C08AE0589E200D1124F6
S1133890522EE92DE0629E2E10C08E3231F496FC39
S11338A0E5C2F92DF0649F2E08C08C3621F4292D31
S11338B02068922E02C0883641F4F10193FD85916F
S11338C093FF81911F018111B3CF9BEB980F93302C
S11338D020F4992D9061805E07C09BE9980F933086
S11338E008F066C1992D9F7E96FF16E09F73992E6E
S11338F0853619F49064992E08C0863621F4392F40
S11339003068932E02C01111115097FE07C01C336A
S113391050F444244394410E27E00BC0183038F08F
S113392027E017E005C027E09CE3492E02C0212FC1
S1133930412C560184E0A80EB11CF601608171810E
S113394082819381042DA3010E94FA1F6C01F981E5
S1133950FC87F0FF02C0F3FF06C091FC06C092FE94
S113396006C000E205C00DE203C00BE201C000E0A6
S11339708C858C7019F001115AC29BC297FE10C03D
S11339804C0CFC85F4FF04C08A81813309F44A9409
S1133990141474F528E0241578F588E0482E2CC01A
S11339A096FC2AC0812F90E08C159D059CF03CEF7D
S11339B0C3163FEFD30674F0892D8068982E0AC091
S11339C0E2E0F0E0EC0FFD1FE10FF11D8081803398
S11339D019F411501111F4CF97FE0EC044244394EE
S11339E0410E812F90E0C816D9062CF41C1904C08E
S11339F04424439401C010E097FE06C01C141D0427
S1133A0034F4C601019605C085E090E002C081E06F
S1133A1090E001110196112331F0212F30E02F5F46
S1133A203F4F820F931F252D30E08217930714F424
S1133A30581A01C0512C892D897049F4552039F048
S1133A40B70180E290E00E94F5205A94F7CF00235A
S1133A5029F0B701802F90E00E94F52093FC09C063
S1133A60552039F0B70180E390E00E94F5205A9484
S1133A70F7CF97FE4CC04601D7FE02C0812C912C93
S1133A80C60188199909F301E80FF91FFE87ED872C
S1133A90960124193109388B2F87012F10E01195D5
S1133AA0019511093FEF8316930629F4B7018EE2BD
S1133AB090E00E94F520C814D9044CF08F859889B1
S1133AC08815990524F4ED85FE85818101C080E384
S1133AD0F1E08F1A91082D853E852F5F3F4F3E8779
S1133AE02D87801691062CF0B70190E00E94F520F6
S1133AF0D9CFC814D90441F49A81963320F495336C
S1133B0019F43C8534FF81E3B70190E04EC08A810B
S1133B10813319F09C859F7E9C87B70190E00E94B9
S1133B20F520111105C094FC18C085E690E017C07B
S1133B30B7018EE290E00E94F5201E5F82E001E072
S1133B40080FF301E80FF11D8081B70190E00E9496
S1133B50F520802F0113F3CFE6CF85E490E0B70181
S1133B600E94F520D7FC06C0C114D10441F4EC85B1
S1133B70E4FF05C0D194C194D1088DE201C08BE269
S1133B80B70190E00E94F52080E32AE0C216D10438
S1133B902CF08F5FFAE0CF1AD108F7CFB70190E08D
S1133BA00E94F520B701C601C0960E94F52054C1B9
S1133BB0833631F0833779F0833509F056C020C05D
S1133BC0560132E0A30EB11CF6018081898301E025
S1133BD010E0630112C05601F2E0AF0EB11CF60111
S1133BE0C080D18096FE03C0612F70E002C06FEFE9
S1133BF07FEFC6010E94EA208C01F92DFF7714C0E3
S1133C00560122E0A20EB11CF601C080D18096FEBE
S1133C1003C0612F70E002C06FEF7FEFC6010E9406
S1133C20D2208C01F92DF0689F2EF3FD1AC0852D4A
S1133C3090E008171907A8F4B70180E290E00E9409
S1133C40F5205A94F4CFF60197FC859197FE819163
S1133C506F01B70190E00E94F52051105A94015071
S1133C6011090115110579F7F7C0843611F0893669
S1133C7061F5560197FE09C024E0A20EB11CF601BD
S1133C8060817181828193810AC0F2E0AF0EB11C20
S1133C90F60160817181072E000C880B990BF92DB8
S1133CA0FF769F2E97FF09C090958095709561953A
S1133CB07F4F8F4F9F4FF0689F2E2AE030E0A30183
S1133CC00E944D21C82EC6183FC0092D853721F406
S1133CD00F7E2AE030E01DC0097F8F3691F018F482
S1133CE0883559F0C3C0803719F0883711F0BEC049
S1133CF0006104FF09C0046007C094FE08C00660A8
S1133D0006C028E030E005C020E130E002C020E138
S1133D1032E0560107FF09C084E0A80EB11CF60189
S1133D20608171818281938108C0F2E0AF0EB11C81
S1133D30F6016081718180E090E0A3010E944D2131
S1133D40C82EC6180F77902E96FE0BC0092D0E7F35
S1133D50C11650F494FE0AC092FC08C0092D0E7ED0
S1133D6005C0DC2C092D03C0DC2C01C0D12E04FFBE
S1133D700DC0FE01EC0DF11D8081803311F4097E2C
S1133D8009C002FF06C0D394D39404C0802F867860
S1133D9009F0D39403FD11C000FF06C01C2DD514F7
S1133DA080F4150D1D190DC0D51458F4B70180E227
S1133DB090E00E94F520D394F7CFD51410F45D1849
S1133DC001C0512C04FF10C0B70180E390E00E94B1
S1133DD0F52002FF17C001FD03C088E790E002C090
S1133DE088E590E0B7010CC0802F867859F001FF78
S1133DF002C08BE201C080E207FD8DE2B70190E0D2
S1133E000E94F520C11638F4B70180E390E00E94C7
S1133E10F5201150F7CFCA94F301EC0DF11D808108
S1133E20B70190E00E94F520C110F5CF15C0F4E071
S1133E30F51560F584E0581A93FE1FC0011127C0E0
S1133E402C8523FF2AC004ED12E0392D3071932E06
S1133E50F8018491811124C0552009F4E4CCB70100
S1133E6080E290E00E94F5205A94F6CFF701868113
S1133E70978126C08FEF9FEF23C0B70180E290E0C7
S1133E800E94F5205A945110F8CFD8CF512CB70185
S1133E90802F90E00E94F520D3CF08ED12E0D5CF1B
S1133EA091108052B70190E00E94F5200F5F1F4FE0
S1133EB0CFCF23E0251510F483E0BDCF512CC0CF24
S1133EC06096E2E10C94CB1F97FB072E16F4009446
S1133ED007D077FD09D00E94E61F07FC05D03EF409
S1133EE0909581959F4F0895709561957F4F0895A2
S1133EF0A1E21A2EAA1BBB1BFD010DC0AA1FBB1FEA
S1133F00EE1FFF1FA217B307E407F50720F0A21B5B
S1133F10B30BE40BF50B661F771F881F991F1A94C8
S1133F2069F760957095809590959B01AC01BD01F2
S1133F30CF010895EE0FFF1F0590F491E02D099431
S1133F40A29FB001B39FC001A39F700D811D1124D6
S1133F50911DB29F700D811D1124911D08952F9202
S1133F603F924F925F926F927F928F929F92AF9205
S1133F70BF92CF92DF92EF92FF920F931F93CF9352
S1133F80DF93CDB7DEB7CA1BDB0B0FB6F894DEBFE9
S1133F900FBECDBF09942A88398848885F846E840F
S1133FA07D848C849B84AA84B984C884DF80EE8059
S1133FB0FD800C811B81AA81B981CE0FD11D0FB662
S1133FC0F894DEBF0FBECDBFED010895AA1BBB1B45
S1133FD051E107C0AA1FBB1FA617B70710F0A61B05
S1133FE0B70B881F991F5A95A9F780959095BC0126
S1133FF0CD010895283008F027E03327DA01990F1E
S1134000311D87FD916000966105710539F43260B8
S11340102E5F3D9330E32A95E1F708959F3F30F0FA
S113402080387105610509F03C5F3C5F3D93913038
S113403008F08068911DDF93CF931F930F93FF9235
S1134040EF92192F987F9695E92F96959695E90FFB
S1134050FF27EA5CFC4F99273327EE24FF24A701AE
S1134060E70105900894079428F4360FE71EF81E1C
S1134070491F511D660F771F881F991F0694A1F7CA
S11340800590079428F4E70EF81E491F561FC11D1A
S1134090770F881F991F661F0694A1F70590079450
S11340A028F4F80E491F561FC71FD11D880F991FEA
S11340B0661F771F0694A1F70590079420F4490F13
S11340C0561FC71FD81F990F661F771F881F069496
S11340D0A9F784911095177041F0D695C795579517
S11340E04795F794E7941A95C1F7ECEDF2E06894DC
S11340F01590159135916591959105907FE2739591
S1134100E118F10A430B560BC90BD009C0F7E10CB7
S1134110F11E431F561FC91FD01D7EF4703311F4C6
S11341208A95E6CFE894015030F0080F0AF400278E
S1134130021708F4202F2395022F7A3328F079E30D
S11341407D932A95E9F710C07D932A9589F6069404
S113415097956795379517951794E118F10A430BCE
S1134160560BC90BD00998F023957E9173957A3339
S113417008F070E37C932013B8F77E9170617D930F
S113418030F0839571E37D9370E32A95E1F7112470
S1134190EF90FF900F911F91CF91DF91992787FDA9
S11341A090950895FC010590615070400110D8F776
S11341B0809590958E0F9F1F0895FB01DC0104C02C
S11341C08D910190801921F441505040C8F7881B0B
S11341D0990B0895FC016150704001900110D8F7CB
S11341E0809590958E0F9F1F08950F931F93CF93E3
S11341F0DF93FB01238121FD03C08FEF9FEF2CC0D0
S113420022FF16C046815781248135814217530706
S113421044F4A081B1819D012F5F3F4F31832083FE
S11342208C93268137812F5F3F4F3783268314C0B9
S11342308B01EC01FB010084F185E02D0995892BAC
S1134240E1F6D80116968D919C91179701961796D1
S11342509C938E931697CE01DF91CF911F910F916E
S11342600895AEE0B0E0E7E3F1E20C94BD1F8C01E9
S113427086E08C831A8309838FEF9FE79E838D8367
S1134280CE0101960E94E71BEF81F885E00FF11F34
S113429010822E96E4E00C94D91FFA01AA27283044
S11342A051F1203181F1E8946F936E7F6E5F7F4FFF
S11342B08F4F9F4FAF4FB1E03ED0B4E03CD0670F7B
S11342C0781F891F9A1FA11D680F791F8A1F911DCE
S11342D0A11D6A0F711D811D911DA11D20D009F41E
S11342E068943F912AE0269F11243019305D319360
S11342F0DEF6CF010895462F4770405D4193B3E049
S11343000FD0C9F7F6CF462F4F70405D4A3318F0EF
S1134310495D31FD4052419302D0A9F7EACFB4E0A0
S1134320A6959795879577956795BA95C9F7009758
S11343306105710508959B01AC010A2E06945795F9
S1134340479537952795BA95C9F7620F731F841F50
S10D4350951FA01D0895F894FFCFF7
S113435A1505E804F704D504C6040605240533053F
S113436AA804B7040100010063326332FFFEF92F87
S113437A2D2D2D2D2D2D2D2D2D2D2D5354415254B2
S113438A2053595354454D2D2D2D2D2D2D2D2D2D85
S113439A2D2D2D2F0A0001000305040764636D6F98
S11343AA746F7220696E69740A0064636D6F746F46
S11343BA722073746F700A0064636D6F746F722075
S11343CA6572726F720A004552524F522053544119
S11343DA5455533A204552525F4D5F574149540A46
S11343EA0D00636F756E745F6D6F746F725F7469BD
S11343FA6D656F75745F776169743A2025640A0D77
S113440A00636F756E745F6D6F746F725F74696D3C
S113441A656F75745F6178656C65726174653A205D
S113442A25640A0D004552524F52205354415455A3
S113443A533A204552525F4D5F4158454C455241CB
S113444A54450A0D004552524F5220535441545573
S113445A533A204552525F4D5F4552524F520A0D0C
S113446A004552524F52205354415455533A2067EF
S113447A6F20746F206C617374206265666F726555
S113448A20776169740A0D004552524F52205354E1
S113449A415455533A204552525F4D5F4558495449
S11344AA0A0D004552524F52205354415455533A1F
S11344BA204552525F4D5F4F4B0A0D007365727669
S11344CA6F5F6572726F725F76616C75653A2025EB
S11344DA640A004552524F52205354415455533A98
S11344EA204552525F535F574149540A0D004552C1
S11344FA524F52205354415455533A204552525F15
S113450A535F5452590A0D004552524F5220535484
S113451A415455533A204552525F535F4F4B0A0D4B
S113452A004144435F6E6F742066696C74657265FA
S113453A643A20616363756D2025642C2073657267
S113454A766F2025642C206D6F746F722025640A9F
S113455A004D45415355524520534552564F204329
S113456A616C6962726174696F6E2076616C7565DB
S113457A203D2025640A00534552564F3A20696E5D
S113458A69740A00534552564F5F44454C41594594
S113459A445F4F50454E2025640A00534552564FF6
S11345AA5F434C4F5345442025640A0053455256F1
S11345BA4F5F4F5050454E45442025640A005345E9
S11345CA52564F5F5452592025640A005345525695
S11345DA4F3A205A65726F2074727920636E740A96
S10545EA0000CB
S9030000FC
