:100000000C94AA010C94C7010C94C7010C94C7016D
:100010000C94C7010C94C7010C94C7010C94C70140
:100020000C94C7010C94C7010C9482120C94C70164
:100030000C94C7010C947C130C94AD130C94C70161
:100040000C94C7010C94C7010C94C7010C94C70110
:100050000C94C70137063E06410647064D06520678
:1000600058065F0663066B06BA06BA06BA06BA06F3
:10007000BA06BA06BA06BA06BA06BA06BA06BA0680
:10008000BA06BA06BA06BA06BA06BA06BA06BA0670
:10009000BA06BA06BA06BA06BA06BA06BA06BA0660
:1000A000BA06BA06BA06BA06BA06BA06BA06BA0650
:1000B000BA06BA06BA06BA06BA06BA06BA06BA0640
:1000C000BA06BA06BA06BA06BA06BA06BA06BA0630
:1000D000BA06BA06BA06BA06BA06BA06BA06BA0620
:1000E000BA06BA06BA06BA06BA06BA06BA06BA0610
:1000F000BA06BA06BA06BA06BA06BA06BA06BA0600
:10010000BA06BA06BA06BA06BA06BA06BA06BA06EF
:10011000BA06BA06BA06720679067F0684068A0609
:100120009006BA06BA06BA06BA06BA06A906BA060A
:10013000BA0698069D06BA069506A306BA06BA063A
:10014000BA06BA06BA06BA06BA06BA06BA06BA06AF
:10015000BA06BA06BA06BA06BA06BA06BA06BA069F
:10016000BA06BA06BA06BA06BA06BA06BA06BA068F
:10017000BA06BA06BA06BA06BA06BA06BA06BA067F
:10018000BA06BA06BA06BA06BA06BA06BA06BA066F
:10019000BA06BA06BA06BA06BA06BA06BA06BA065F
:1001A000BA06BA06BA06BA06BA06BA06BA06BA064F
:1001B000BA06BA06BA06BA06BA06BA06BA06BA063F
:1001C000BA06BA06BA06BA06BA06BA06BA06BA062F
:1001D000BA06BA06BA06BA06BA06BA06BA06BA061F
:1001E000BA06BA06BA06BA06BA06BA06BA06BA060F
:1001F000BA06BA06BA06BA06BA06BA06BA06BA06FF
:10020000BA06BA06BA06BA06BA06BA06BA06BA06EE
:10021000BA06BA06BA06BA06BA06BA06BA06BA06DE
:10022000BA06BA06BA06BA06BA06BA06BA06BA06CE
:10023000BA06BA06BA06BA06BA06BA06BA06BA06BE
:10024000BA06BA06AD06B906B706B506B306B106D4
:10025000AF066E616E00696E660000407A10F35A58
:1002600000A0724E18090010A5D4E80000E87648F6
:10027000170000E40B54020000CA9A3B000000E1A2
:10028000F505000080969800000040420F00000035
:10029000A08601000000102700000000E803000015
:1002A00000006400000000000A00000000000100DF
:1002B000000000002C76D888DC674F0823DFC1DF00
:1002C000AE59E1B1B796E5E3E453C63AE651997603
:1002D00096E8E6C28426EB898C9B62ED407C6FFC3D
:1002E000EFBC9C9F40F2BAA56FA5F490055A2AF77F
:1002F0005C936B6CF9676DC11BFCE0E40D47FEF588
:1003000020E6B500D0ED902E0300943577050080EF
:10031000841E080000204E0A000000C80C3333334E
:10032000330F986E12831141EF8D2114893BE655EE
:1003300016CFFEE6DB18D1844B381BF77C1D901DD1
:10034000A4BBE424203284725E228100C9F124EC33
:10035000A1E53D2711241FBECFE5D8E0DEBFCDBF0C
:1003600011E0A0E6B0E0ECEBF7E302C005900D92DF
:10037000AC35B107D9F723E0ACE5B1E001C01D927F
:10038000A43CB207E1F70E94F8010C94DC1B0C942A
:100390000000CF93DF93CDB7DEB7AE014B5F5F4F69
:1003A000FA0161917191AF018FEA92E00E94621BA4
:1003B0008FEA92E00E94FF13DF91CF9108958C9A0B
:1003C0008E9ABD9A899A089562E381E00E94C512CF
:1003D0000E94EE050E94850488E090E00E94D413FC
:1003E0000E94AD100E94BC0B80B78B7F80BF089528
:1003F0000E94DF0178940E94E40187E790E09F93D8
:100400008F930E94C9010F900F900E94CD070E9408
:1004100029090E94DB030E9467110E941A12809131
:10042000AD020E9472058091AE020E94330E0E94BE
:10043000D0090E947E0B0E94DA0B0E9440020E94AB
:1004400089020E949C04E1CF83E00E94A40CBC01BD
:10045000660F771F660F771F860F971FBC0180E01E
:1004600090E00E94281526E636E646EB50E40E940E
:10047000DA1520E030E040E85AE30E94DA150895EA
:100480004091C0035091C1036091C2037091C303B6
:100490008091610190916201A0916301B09164012A
:1004A00084179507A607B70798F583E00E94A40C68
:1004B000893522E0920718F021E0209365018B38FE
:1004C00021E0920718F422E0209365018E3521E0A7
:1004D000920718F423E0209365018C5891408C3CDE
:1004E000910510F4109265018091C0039091C103B1
:1004F000A091C203B091C3038C599F4FAF4FBF4F20
:100500008093610190936201A0936301B0936401B1
:1005100008954091C0035091C1036091C20370914E
:10052000C30380915D0190915E01A0915F01B09144
:10053000600184179507A607B70708F086C0809169
:1005400065018130E9F030F0823099F1833009F4AF
:1005500067C00895C59880915D0190915E01A0915A
:100560005F01B091600188539F4FAF4FBF4F8093A1
:100570005D0190935E01A0935F01B09360010895C7
:1005800098B380E2892788BB80915D0190915E01DC
:10059000A0915F01B091600186509F4FAF4FBF4F58
:1005A00080935D0190935E01A0935F01B093600121
:1005B000089580915C01811119C081E080935C01F4
:1005C000C59A80915D0190915E01A0915F01B0910B
:1005D00060018C509E4FAF4FBF4F80935D01909351
:1005E0005E01A0935F01B09360010895813069F5C9
:1005F00010925C01C59880915D0190915E01A0917F
:100600005F01B091600184529A4FAF4FBF4F80930A
:100610005D0190935E01A0935F01B0936001089526
:10062000C59A80915D0190915E01A0915F01B091AA
:10063000600188519C4FAF4FBF4F80935D019093F5
:100640005E01A0935F01B09360010895379897B160
:10065000987F8770892B87B9379A0895369A36998B
:10066000FECF84B195B108950E9426030E942E0307
:100670000895DC011696ED91FC911797208130E0EA
:10068000F90118960C9002C0F595E7950A94E2F7E7
:10069000CF0181700895ECE5F3E0148281E0858359
:1006A00014861386128611861686158626E330E098
:1006B0003783268392E09087EFE2F3E0148285830C
:1006C000148613861286118616861586378326832E
:1006D0008087EEE3F3E01482858314861386128606
:1006E0001186168615863783268396E09087ECE17F
:1006F000F3E014828583148613861286118616868B
:10070000158640E350E05783468393E09087EDE001
:10071000F3E014828583148613861286118616866A
:100720001586378326839087EDE4F3E01482858372
:1007300014861386128611861686158669E370E084
:1007400077836683A4E0A087EBE6F3E014828583D9
:1007500014861386128611861686158643E350E0AA
:10076000578346838087EAE7F3E014828583148603
:100770001386128611861686158637832683A087F0
:10078000EFEEF2E0148285831486138612861186BA
:1007900016861586778366839087EEEFF2E01482E3
:1007A00085831486138612861186168615865783CE
:1007B000468310860895DF92EF92FF920F931F9366
:1007C000CF93DF934091C0035091C1036091C20366
:1007D0007091C30380912B0390912C03A0912D0362
:1007E000B0912E0384179507A607B70708F085C0B8
:1007F0008091C0039091C103A091C203B091C30343
:100800004496A11DB11D80932B0390932C03A093BC
:100810002D03B0932E03C0E6D0E00F2EF4E7EF2EA9
:10082000F0E0FF2EF02DDD24D3948E018881998194
:100830000E943903E881F98195818917E1F0858368
:10084000813061F488819981DC011996ED91FC91E8
:100850001A97309709F441C009953FC081113DC0F6
:1008600088819981DC011B96ED91FC911C97309752
:1008700021F0099502C0811130C0D801ED91FC91A1
:1008800080819181A281B3810196A11DB11D8083D8
:100890009183A283B383D801ED91FC9180819181F2
:1008A000A281B3818897A105B10510F184818130BF
:1008B000F9F00584F685E02D309719F08CE593E08A
:1008C0000995D801ED91FC91119710821182128245
:1008D0001382ED91FC91D4820BC0D801ED91FC9173
:1008E00011971082118212821382ED91FC91148271
:1008F0002296CE15DF0509F098CFDF91CF911F9199
:100900000F91FF90EF90DF9008950E944B03BA98EB
:10091000C29AB998C19ABE98C69A8B98939ABB9876
:10092000C39AD498DC9AA198A99ABC98C49AD398EF
:10093000DB9AA098A89A08954091C0035091C103F2
:100940006091C2037091C30380916A0190916B0121
:10095000A0916C01B0916D0184179507A607B707A8
:1009600008F059C08091AB029091AC0295FF37C05E
:100970008091660190916701A0916801B091690131
:10098000892B8A2B8B2B59F5C09A8091AB029091C1
:10099000AC029F7D9093AC028093AB0281E090E02B
:1009A000A0E0B0E08093660190936701A093680196
:1009B000B093690180916A0190916B01A0916C01E3
:1009C000B0916D018C599F4FAF4FBF4F80936A011B
:1009D00090936B01A0936C01B0936D010895C09842
:1009E00010926601109267011092680110926901DD
:1009F00080916A0190916B01A0916C01B0916D01A1
:100A0000C296A11DB11D80936A0190936B01A093C2
:100A10006C01B0936D010895B89AC09808958EE95D
:100A200090E09F938F930E94C9018DE893E00E940C
:100A3000F11281E080938903949815BC8F9A979A5C
:100A40000F900F9008951092890315BC979A94986F
:100A5000089590918903925021E030E0933010F096
:100A600020E030E0C90108950E942905009799F01F
:100A70008CEA90E09F938F930E94C90115BC979ACE
:100A80009498E9E8F3E08081818381E080830F908E
:100A90000F9081E090E00895809189038130D9F42E
:100AA000949A85B5806385BD85B5806485BD85B51F
:100AB000816085BDE9E8F3E08081818384E0808303
:100AC00048EE53E060E070E08DE893E00E94F91298
:100AD00081E090E0089580E090E0089580918C039B
:100AE00090E00895CF93C82F46E950E060E070E0B1
:100AF0008EE691E00E944513892B09F458C090912D
:100B000089039330E9F028F49130B9F0923041F044
:100B10004EC0943009F448C0953009F442C047C033
:100B2000C0938C032DECC29FC001112463E670E0DA
:100B30000E94C4196E5C63BD3AC010928C0337C02A
:100B4000C33378F484E18C0F80938C032DEC829F67
:100B5000C001112463E670E00E94C4196E5C63BD9D
:100B600026C08DEC8C0F843178F48FE08C0F80934D
:100B70008C032DEC829FC001112463E670E00E947B
:100B8000C4196E5C63BD13C0C0938C032DECC29F6F
:100B9000C001112463E670E00E94C4196E5C63BD5D
:100BA00006C015BC979A03C082E080938903CF9159
:100BB0000895AE9AAD9ADD9ADF9ADE9AAA9AAF9A14
:100BC0000895929A1092A003C79A1092AC03AC9A1F
:100BD00010929E03AB9A1092AA030895A69AA59A22
:100BE000D59AD79AD69AA29AA79A8A9AE1EAF3E076
:100BF0008FE993E091838083BF9A2BEA33E03383BC
:100C00002283A8E9B3E011963C932E9313969C930C
:100C10008E931297A49A2DE933E035832483A39A07
:100C200089EA93E097838683E3E9F3E031832083C5
:100C3000938382830E94E1050E94D9050895CF9392
:100C4000DF93FC01308120917400321709F495C0C4
:100C5000EC010E94D905E8818E2F90E08F3F91052D
:100C600008F088C0FC01E65DFF4F0C94D819AE98DF
:100C7000AD98DD98DF98DE98AA987CC0AD98DD9895
:100C800079C0AE98AD98AF98DE98DF9873C0AE98F3
:100C9000AD98AF98DD98DF986DC0AA98AF98AD98E1
:100CA000DD9868C0AE98AA98AF98DD98DF9862C0CA
:100CB000AE98AA98AF98DD98DF98DE985BC0AE98A2
:100CC000AD98DD9857C0AE98AD98DD98DF98DE9866
:100CD000AA98AF984FC0AE98AD98DD98DF98AA98C3
:100CE000AF9848C0AE98AD98DD98DE98AA98AF98B6
:100CF00041C0DD98DF98DE98AA98AF983BC0AE98C7
:100D0000DF98DE98AA9836C0AD98DD98DF98DE9817
:100D1000AF9830C0AE98DF98DE98AA98AF982AC0F6
:100D2000AE98DE98AA98AF9825C0DE98AF9822C0FA
:100D3000DD98DF98DE98AF981DC0AE98AD98DE982C
:100D4000AA98AF9817C0AE98DD98DF98AA98AF9888
:100D500011C0DF98DE98AA980DC0AF980BC0AA9872
:100D600009C0DE9807C0DF9805C0DD9803C0AD98C4
:100D700001C0AE98888180937400DF91CF9108956F
:100D8000CF93DF93EC010E94E105CE010E941F0684
:100D900083E0CF39D80729F4929881E08093A003AB
:100DA00019C083E0CB3AD80729F4C79881E0809333
:100DB000AC0310C083E0CD39D80729F4AC9881E0AA
:100DC00080939E0307C0C95AD34021F4AB9881E0B9
:100DD0008093AA03DF91CF910895EF92FF921F9322
:100DE000CF93DF93FC01C081D1812196D183C08351
:100DF0009E01ADECBCEC0E94DE1996958795969508
:100E00008795969587959C01220F331F880F991F10
:100E1000880F991F880F991F820F931FC817D90732
:100E200001F57F0110917301143058F4E12FF0E0C7
:100E3000EE0FFF1FEF55FC4F808191810E94C0068D
:100E400002C00E94E1051F5F153019F01093730175
:100E500002C010927301C039D14019F4F701118218
:100E60001082DF91CF911F91FF90EF900895FC01C8
:100E70006436F8F4611108C0A081B1811C9202802F
:100E8000F381E02D10820895A081B1819DEC699FCE
:100E9000912D11249695969596959C930280F381B9
:100EA000E02D892F880F982F990F990F890F681BB4
:100EB00060830895FC0160830895813039F018F053
:100EC000823039F0089560938F01089560938E0108
:100ED000089560938E0160938F010895882319F01F
:100EE000813029F008C080919C0390E008958091A2
:100EF000970390E008958FEF9FEF089580919C03F2
:100F0000863021F48091AD0380939C0380919703F8
:100F1000863021F48091AE03809397030895813049
:100F2000A1F018F0823009F10895663021F4809123
:100F30009C038093AD0380919C03863019F46093E9
:100F4000AD03089560939C030895663021F4809169
:100F500097038093AE0380919703863019F46093D2
:100F6000AE030895609397030895663041F480912D
:100F70009C038093AD03809197038093AE0380918F
:100F80009C03863029F46093AE036093AD0308950B
:100F900060939C036093970308958091C0039091A0
:100FA000C103A091C203B091C30340917801509155
:100FB000790160917A0170917B01481759076A079E
:100FC0007B0708F026C180919C03833009F459C047
:100FD00030F4882309F487C0813039F18EC0853020
:100FE00009F474C048F1863009F087C00E942402D9
:100FF00020E030E048EC52E40E94DA150E94F2143E
:1010000070938801609387019B01369527953695EB
:101010002795ABE7B4E10E94DE1996958795682F76
:1010200088E993E00E94370768C060918F0188E9E2
:1010300093E00E94370761C080919703843031F0BC
:1010400081E080939C038093970357C048515C4F85
:101050006F4F7F4F409378015093790160937A01ED
:1010600070937B0183E78093AB0381E680939F03BA
:1010700080E780939D0381E080939C038093970396
:10108000089580919703833031F081E080939C0331
:101090008093970332C048515C4F6F4F7F4F40930E
:1010A00078015093790160937A0170937B018CE60B
:1010B0008093AB038FE680939F0380E780939D032B
:1010C00081E080939C038093970317C085E680930B
:1010D000AB0382E780939F036091890183E993E0EA
:1010E0000E9437070AC068EF8FE993E00E945A0711
:1010F00068EF8BEA93E00E945A0780919703813052
:1011000019F148F1863019F08D3081F16FC04091AE
:101110008701509188019A01369527953695279534
:10112000ABE7B4E10E94DE199695879564E6689F67
:101130009001699F300D1124BA01621B730B83E982
:1011400093E00E94370752C060918E0183E993E0DB
:101150000E9437074BC068EF8DE993E00E945A0761
:1011600068EF89EA93E00E945A0740C044EF51E0DB
:1011700060E070E082E891E00E944513892BB1F1B4
:101180008091810181110EC081E08093810167EF20
:101190008DE993E00E945A0767EF89EA93E00E9485
:1011A0005A0724C01092810180917D0190917E01A7
:1011B000A0917F01B09180010097A105B10529F4AC
:1011C00061E081E00E948F0711C00197A109B10978
:1011D00080937D0190937E01A0937F01B093800165
:1011E00060917C0183E993E00E9437078091780148
:1011F00090917901A0917A01B0917B01C296A11DD5
:10120000B11D8093780190937901A0937A01B093F6
:101210007B0108950F931F930091C0031091C103A8
:101220002091C2033091C303DC01CB01800F911FD9
:10123000A21FB31F80938A0190938B01A0938C010E
:10124000B0938D0162E0842F0E948F071F910F9150
:10125000089580919C03823029F080919703823019
:1012600009F078C04091C0035091C1036091C2035E
:101270007091C3038091740190917501A0917601E2
:10128000B091770184179507A607B70708F062C0E9
:101290008091C0039091C103A091C203B091C30398
:1012A00081559F4FAF4FBF4F80937401909375014D
:1012B000A0937601B093770180919C03823061F412
:1012C000609176008FE993E00E945A076091760062
:1012D0008BEA93E00E945A0780919703823061F471
:1012E000609175008DE993E00E945A076091750046
:1012F00089EA93E00E945A074091C0035091C103CC
:101300006091C2037091C30380918A0190918B0117
:10131000A0918C01B0918D0184179507A607B7079E
:1013200028F461E082E00E948F07C59890917600D2
:101330009F5F909376008091750081508093750037
:101340009F3F19F499EF90937600883F19F48EEF40
:10135000809375000895E199FECF9FBB8EBB6DBB56
:10136000E29AE19A0895E199FECF9FBB8EBBE09A85
:101370008DB3089580EA91E00E943B1389E991E0E2
:101380000E943B131092AF03089580EA91E00E94FF
:101390003B1389E991E00E943B131092AF0308953B
:1013A000CF92DF92EF92FF92CF93DF934091C003F1
:1013B0005091C1036091C2037091C3038091950164
:1013C00090919601A0919701B0919801841795078B
:1013D000A607B70708F08BC18091AB0280FF87C1D9
:1013E0004091C0035091C1036091C2037091C30347
:1013F0004C505E4F6F4F7F4F409395015093960135
:10140000609397017093980181FD71C10E946E05F0
:10141000EC010E9424026B017C0120E030E040E1FD
:1014200051E40E947B14882344F40F2EC12CD12C4C
:10143000F0E1EF2EF1E4FF2EF02DCE010A97059793
:1014400078F520E030E040E151E4C701B6010E94A8
:101450000E146B017C01BE0180E090E00E94281513
:101460009B01AC01C701B6010E94DA1520E030E013
:1014700040EC50E40E9480146B017C01BE01660FB9
:10148000771F6F50710980E090E00E9428159B0142
:10149000AC01C701B6010E940F140E94F91400C1EB
:1014A000CE010F970A9778F520E030E040E151E453
:1014B000C701B6010E940E146B017C01BE0180E0E1
:1014C00090E00E9428159B01AC01C701B6010E9463
:1014D000DA1520E030E040EC50E40E9480146B010B
:1014E0007C01BE016A507048660F771F80E090E073
:1014F0000E9428159B01AC01C701B6010E940F1480
:101500000E94F914CDC0CE0149970F9778F520E0DD
:1015100030E040E151E4C701B6010E940E146B01B6
:101520007C01BE0180E090E00E9428159B01AC0187
:10153000C701B6010E94DA1520E030E040EC50E42B
:101540000E9480146B017C01BE01660F771F6951F8
:10155000710980E090E00E9428159B01AC01C70151
:10156000B6010E940F140E94F9149AC0CE01889708
:101570000A9778F520E030E040E151E4C701B60178
:101580000E940E146B017C01BE0180E090E00E947D
:1015900028159B01AC01C701B6010E94DA1520E0B5
:1015A00030E040EC50E40E9480146B017C01BE01ED
:1015B00065507048660F771F80E090E00E94281504
:1015C0009B01AC01C701B6010E940F140E94F914DF
:1015D00067C0CE01C297449778F520E030E040E143
:1015E00051E4C701B6010E940E146B017C01BE01DB
:1015F00080E090E00E9428159B01AC01C701B60174
:101600000E94DA1520E030E040EC50E40E948014A3
:101610006B017C01BE016B5F7F4F660F771F80E01F
:1016200090E00E9428159B01AC01C701B6010E9401
:101630000F140E94F91434C0C634D10578F120E0AB
:1016400030E040E151E4C701B6010E940E146B0185
:101650007C01BE0180E090E00E9428159B01AC0156
:10166000C701B6010E94DA1520E030E040EC50E4FA
:101670000E9480146B017C01BE01665F7F4F660F84
:10168000771F80E090E00E9428159B01AC01C70104
:10169000B6010E940F140E94F91402C06AE070E0C3
:1016A0006C597F4F70939F0160939E0180E00E9470
:1016B000A40CF82EE92E0E9424029F938F937F930F
:1016C0006F9380919F018F9380919E018F93EF92F2
:1016D000FF9289EC90E09F938F930E94C9018DB790
:1016E0009EB70A960FB6F8949EBF0FBE8DBFDF91CE
:1016F000CF91FF90EF90DF90CF9008954EE551E0AD
:1017000060E070E080E991E00E944513892B09F1C7
:101710008091AF03813071F492B380E1892782BB5D
:101720008091AB029091AC0290629093AC02809356
:10173000AB020895823069F492B380E4892782BBBA
:101740008091AB029091AC0290629093AC02809336
:10175000AB020895FC0120813181623058F032964D
:1017600091E041915191240F351F369527959F5F48
:101770006913F7CFC9010895E5EDF1E02DEF31E0F0
:1017800081EF91E0819391932E173F07D9F7E4EC15
:10179000F1E082ED91E0119211928E179F07D9F737
:1017A000ECEAF1E080EC91E0119211928E179F0724
:1017B000D9F70895CF92DF92EF92FF92CF93DF9304
:1017C0004091C0035091C1036091C2037091C30363
:1017D0008091A5019091A601A091A701B091A801C7
:1017E00084179507A607B70708F0A7C08091C00324
:1017F0009091C103A091C203B091C303C296A11DF1
:10180000B11D8093A5019093A601A093A701B09369
:10181000A80180E00E943403EC016091D201709134
:10182000D30180E090E00E94281521E73DE34AE8DB
:101830005EE30E94DA156B017C01BE0180E090E05E
:101840000E9428159B01AC01C701B6010E940F142C
:101850000E94F914709300026093FF01209101022D
:10186000E22FF0E0EE0FFF1FEB52FE4F718360831B
:1018700081E0820F8093010282E00E943403909302
:10188000C3018093C201E091D401F0E0EE0FFF1F8D
:10189000EC53FE4F9183808381E00E9434038835AE
:1018A00022E0920728F41092AA011092A90106C022
:1018B000885592409093AA018093A901C091AB01F1
:1018C000EC2FF0E0EE0FFF1FE455FE4F8091A901D1
:1018D0009091AA0191838083D091D401DF5FD0934E
:1018E000D401CF5FC093AB0164E185ED91E00E942C
:1018F000AA0B9093FE018093FD0167E084EC91E0D8
:101900000E94AA0B9093D3018093D2016AE08CEAE3
:1019100091E00E94AA0B9093C1018093C001809135
:101920000102843111F410920102CA3011F41092B4
:10193000AB01D73011F41092D401DF91CF91FF9019
:10194000EF90DF90CF900895833018F4813040F00D
:101950000CC0833079F48091FD019091FE010895CF
:101960008091D2019091D30108958091C00190910E
:10197000C101089580E090E00895EF92FF920F93E7
:101980001F93CF938B01823059F028F4882391F074
:10199000813019F130C0833029F1843031F02BC00F
:1019A00022E030E084E090E021C023E030E088E0F5
:1019B00090E01CC06894EE24E1F8F12CC0E0F8013E
:1019C00061918F018C2F90E00E94AB09CF5F8C2F2B
:1019D00090E08E159F059CF30EC022E030E082E07F
:1019E00090E004C022E030E086E090E0C82F79016A
:1019F000E80EF91EE4CFCF911F910F91FF90EF9069
:101A00000895EF92FF920F931F93CF938B01823033
:101A100059F028F4882391F0813019F130C08330D7
:101A200029F1843031F02BC022E030E084E090E0F6
:101A300021C023E030E088E090E01CC06894EE24F0
:101A4000E1F8F12CC0E08C2F90E00E94B309F8017E
:101A500081938F01CF5F8C2F90E08E159F059CF3B3
:101A60000EC022E030E082E090E004C022E030E0EE
:101A700086E090E0C82F7901E80EF91EE4CFCF91FF
:101A80001F910F91FF90EF900895811105C08CE692
:101A900097E09BBD8ABD0895823390F490E02227A1
:101AA0003327281B390B220F331F220F331F220F1E
:101AB000331F820F931F885F984F9BBD8ABD089587
:101AC000843668F490E0C297880F991F880F991F99
:101AD0002AEA35E0A901481B590B5BBD4ABD0895B0
:101AE000CF93DF932FE13EE437BD26BD81B3806302
:101AF00081BB19BC18BC1BBC1ABC8FB582608FBDE2
:101B00008EB588618EBD8FB580688FBD8EB58260C1
:101B10008EBD3BBD2ABD9698C0EBD3E081E08883A3
:101B20001B8284EB93E00E94F11219861092160238
:101B300082EF90E09F938F930E94C9010F900F90C6
:101B4000DF91CF9108959091B003925021E030E061
:101B5000923010F020E030E0C90108959091B00378
:101B60009130A1F4E0EBF3E093E0908383831F9244
:101B70008F938FEF90E09F938F930E94C9010F90F6
:101B80000F900F900F9081E090E0089580E090E03A
:101B900008950E94A30D0097C1F080E00E94450DBA
:101BA000E0EBF3E081E0808313821F921F9286E1D5
:101BB00091E09F938F930E94C90196980F900F9088
:101BC0000F900F9081E090E008952091B0032430B1
:101BD00021F40E94EE0D81E090E008958091B10320
:101BE000823029F48093B0030E94C90D09C081306E
:101BF00071F4E0EBF3E082E0808383810E94080EC1
:101C000010921602E0EBF3E081858F5F81870895E3
:101C1000CF93C82F8091B0039FEF980F9330C0F4FB
:101C2000E0EBF3E082E08083C3838C2F0E94450DBC
:101C30001F92CF9387E291E09F938F930E94C901F7
:101C4000969A0F900F900F900F9081E090E009C04E
:101C5000843029F40E94EE0D81E090E002C080E023
:101C600090E0CF910895CF93DF93C82F44EF51E0D8
:101C700060E070E081E192E00E944513892B09F455
:101C8000B6C08091B0038430A1F030F4823059F0B6
:101C9000833009F461C09BC0853009F477C0863079
:101CA00009F491C094C0C093B3038C2F0E94450DDA
:101CB0008EC080911602811113C044E650E060E0AE
:101CC00070E08CE092E00E94F912809116028F5F22
:101CD000809316029091B303890F0E94450D28C08E
:101CE00081508930C8F48CE092E00E941B13019768
:101CF000F9F444E650E060E070E08CE092E00E948D
:101D0000F912809116028F5F809316029091B303AF
:101D1000890F0E94450D0CC010921602C0EBD3E053
:101D20008B810E94450D8981888389858F5F898792
:101D30002091B3038091160290E0820F911D9F9332
:101D40008F9389E391E09F938F930E94C9010F9035
:101D50000F900F900F903BC087E092E00E9411130C
:101D6000892B59F087E092E00E941B13019779F5C7
:101D700082E08093B003969A2AC040ED57E060E07D
:101D800070E087E092E00E94F91221C082E092E0C8
:101D90000E941113892B71F082E092E00E941B13C4
:101DA0000197A9F486E08093B0038FE19EE49BBD88
:101DB0008ABD0DC040ED57E060E070E082E092E047
:101DC0000E94F91204C08FE19EE49BBD8ABD84EBA2
:101DD00093E00E941B13019751F41092B90387E41A
:101DE00091E09F938F930E94C9010F900F90DF9114
:101DF000CF910895ECE5F3E01686158612861186DC
:101E000014861386EFE2F3E0168615861286118695
:101E10001486138610924A0310924903EDE0F3E012
:101E2000168615861486138612861186EDE4F3E075
:101E300016861586148613861286118610927703ED
:101E400010927603EAE7F3E0148613861686158669
:101E500012861186EFEEF2E014861386168615863A
:101E600012861186EEEFF2E014861386168615862A
:101E700012861186089580911F02823049F0809168
:101E8000AB029091AC0298609093AC028093AB024D
:101E9000089580911F02823049F08091AB029091A9
:101EA000AC0280689093AC028093AB02089580915D
:101EB000AB029091AC0292609093AC028093AB0223
:101EC00008958091AB029091AC02997F9093AC02FF
:101ED0008093AB021092200208958091AB02909102
:101EE000AC0280629093AC028093AB020895809123
:101EF000AB029091AC028F799093AC028093AB02CD
:101F00001092200208958091AB029091AC029062F1
:101F10009093AC028093AB028091AE028B3018F0AC
:101F200081508093AE026091AE0281E00E945D0715
:101F300061E082E00E948F0708958091AB0290914A
:101F4000AC0290629093AC028093AB028091AE029F
:101F5000833618F48F5F8093AE026091AE0281E009
:101F60000E945D0761E082E00E948F0708958091E2
:101F7000AB029091AC0290629093AC028093AB0262
:101F80008091AD028B3018F081508093AD0260914A
:101F9000AD0280E00E945D0780E00E946E0702971C
:101FA00029F461E082E00E948F0704C061E080E0D4
:101FB0000E948F0780911F028F5F80931F028230E3
:101FC00019F466E00E948F0708958091AB0290910A
:101FD000AC0290629093AC028093AB028091AD0210
:101FE000833618F48F5F8093AD026091AD0280E07C
:101FF0000E945D0780E00E946E07029729F461E06D
:1020000082E00E948F0704C061E080E00E948F0799
:1020100080911F028F5F80931F02823019F466E067
:102020000E948F0708950E947E078091AB029091D5
:10203000AC02977E9093AC028093AB021092200288
:1020400080911F02882319F0815080931F0280E045
:102050000E946E07029729F461E082E00E948F07D8
:10206000089561E080E00E948F0708950E947E0736
:102070008091AB029091AC028F779E7F9093AC02DF
:102080008093AB021092200280911F02882319F0E6
:10209000815080931F0280E00E946E07029729F40E
:1020A00061E082E00E948F07089561E080E00E9475
:1020B0008F070895ECEBF3E08091AD02808380916F
:1020C000AE028183BF0183E00E94BD0C0895809120
:1020D000AB029091AC0290629093AC028093AB0201
:1020E0008091AD028A3038F48AE08093AD026AE0D4
:1020F00080E00E945D070E945A100E942905892BEA
:1021000039F40E944C058091AE020E94AE0D0895F4
:102110000E9434050E94C90D08958091AB029091F0
:10212000AC0290629093AC028093AB028091AE02BD
:102130008A3038F48AE08093AE026AE081E00E943F
:102140005D070E94A30D892B19F00E94C90D089507
:102150008091AE020E94080E089582E591E190936D
:1021600026038093250360E082E00E948F076AEBDC
:1021700073E083E00E94010D8091BB0396EF980FFE
:102180009A3510F48093AE028091BA0396EF980FBF
:102190009A3510F48093AD02089510921F0242E028
:1021A00068EE73E080E090E00E940A090E940F054B
:1021B00080E00E94700D0E94BA090E94BC0B0E9430
:1021C0000C0581E090E09093AC028093AB02ECE5CB
:1021D000F3E08BE39FE09687858787EB9FE094870A
:1021E000838783E190E192878187EFE2F3E089E4DE
:1021F0009FE09687858785EE9FE09487838786E3B7
:1022000090E19287818787E690E190934A038093DB
:102210004903EDE0F3E087E59FE09687858781E657
:102220009FE09287818783E89FE094878387EDE42E
:10223000F3E08DE69FE09687858787E79FE09287AA
:1022400081878DE99FE0948783878DE890E1909363
:102250007703809376036091AD0280E00E945D0772
:102260006091AE0281E00E945D07089510921F0206
:102270000E9423050E94FA0E0E94C5090E94C90D02
:102280001092AC021092AB0260E082E00E948F07D5
:102290008091AB029091AC028E7F9093AC028093C0
:1022A000AB0208950E945A108091AB0280FF03C0D8
:1022B0000E94361102C00E94CD108091AB02909115
:1022C000AC0290629093AC028093AB02089540916F
:1022D000C0035091C1036091C2037091C303809108
:1022E000170290911802A0911902B0911A02841756
:1022F0009507A607B70708F09CC08091AB0285FF41
:102300001DC06091AE026336C8F46F5F6093AE0289
:1023100081E00E945D07809123028F5F80932302FA
:102320008F3060F08091AB029091AC028F7D806421
:102330009093AC028093AB02109223028091AB0287
:102340009091AC0291FF1DC06091AE026623C9F06E
:1023500061506093AE0281E00E945D07809122028D
:102360008F5F809322028F3060F08091AB0290915A
:10237000AC029D7F94609093AC028093AB0210926C
:1023800022028091AB0287FF1DC06091AD026336CF
:10239000C8F46F5F6093AD0280E00E945D0780919A
:1023A00021028F5F809321028F3060F08091AB0219
:1023B0009091AC028F7791609093AC028093AB02C6
:1023C000109221028091AB029091AC0293FF1DC04C
:1023D0006091AD026B30C8F061506093AD0280E057
:1023E0000E945D07809120028F5F809320028F30D2
:1023F00060F08091AB029091AC02977F90619093D6
:10240000AC028093AB02109220028091170290914F
:102410001802A0911902B0911A02805B9F4FAF4F32
:10242000BF4F8093170290931802A0931902B093A4
:102430001A0208954091C0035091C1036091C203F4
:102440007091C30380911B0290911C02A0911D0208
:10245000B0911E0284179507A607B70708F051C070
:102460006091AE02633650F48091AB0286FF06C0E5
:102470006F5F6093AE0281E00E945D076091AE02E3
:10248000662361F08091AB029091AC0292FF06C08E
:1024900061506093AE0281E00E945D076091AD02E1
:1024A000633660F48091AB029091AC0290FF06C05D
:1024B0006F5F6093AD0280E00E945D076091AD02A6
:1024C0006B3060F08091AB029091AC0294FF06C03B
:1024D00061506093AD0280E00E945D0780911B0215
:1024E00090911C02A0911D02B0911E024E96A11D5A
:1024F000B11D80931B0290931C02A0931D02B09308
:102500001E0208951F920F920FB60F9211242F935F
:102510003F934F935F936F937F938F939F93AF936B
:10252000BF93EF93FF93EEEBF3E080819181C2962E
:102530009183808380819181883E934088F082815D
:102540009381A481B5810196A11DB11D82839383DE
:10255000A483B58380819181885E93409183808339
:1025600084E292E00E94ED06FF91EF91BF91AF915E
:102570009F918F917F916F915F914F913F912F919B
:102580000F900FBE0F901F90189593B7986093BF50
:102590006CBF823099F028F4882341F0813051F0EB
:1025A00019C0833079F0843089F014C083B781601A
:1025B00083BF13C083B7826083BF0FC083B78360BC
:1025C00083BF0BC083B7846083BF07C083B78560B8
:1025D00083BF03C083B7816083BF89B7826089BF2F
:1025E000089523E0FC012483108211821282138259
:1025F00008950F931F9321E0FC0124830091C003F1
:102600001091C1032091C2033091C303400F511FA9
:10261000621F731F40835183628373831F910F91E5
:10262000089521E030E0FC018481813011F020E048
:1026300030E0C9010895FC0184818130B1F48091BA
:10264000C0039091C103A091C203B091C303408124
:10265000518162817381481759076A077B0740F4EB
:1026600082E0848381E090E008958FEF9FEF0895EA
:1026700080E090E0089521E030E0FC018481833027
:1026800011F020E030E0C9010895CF92DF92EF927F
:10269000FF920F931F93CF93DF93EC016A017B01AD
:1026A0008C81811106C083E08C83188219821A8282
:1026B0001B82CE010E941B138C01019731F4B701DC
:1026C000A601CE010E94F9120DC08C81833041F425
:1026D000B701A601CE010E94F91200E010E002C08D
:1026E00000E010E0C801DF91CF911F910F91FF90A2
:1026F000EF90DF90CF9008951F920F920FB60F9238
:1027000011242F933F934F935F938F939F93EF9356
:10271000FF932BB13CB128718091280290E0019683
:102720004091270250E08417950739F080932802E2
:10273000FC01E55DFD4F308301C022E020932602BD
:10274000FF91EF919F918F915F914F913F912F91C9
:102750000F900FBE0F901F9018951F920F920FB6FB
:102760000F9211248F939F93EF93FF9390912A02DE
:1027700080912902981771F08091290290E00196CA
:102780008F77992780932902FC01E55DFD4F8081B9
:102790008CB901C05598FF91EF919F918F910F9047
:1027A0000FBE0F901F901895F89410922A02109265
:1027B00029021092280210922702789499231CF47F
:1027C00022E02BB99F7790BD89B988E98AB986E85C
:1027D00080BD089540912A0250E04F5F5F4F4F77D0
:1027E00055272091290230E042175307D1F3FA010F
:1027F000E55DFD4F808340932A02559A0895CF935B
:10280000DF93EC018881882331F021960E94EA133E
:1028100089918111FBCFDF91CF9108955058BB274B
:10282000AA270E9426140C94A0150E94921538F035
:102830000E94991520F039F49F3F19F426F40C9466
:102840008F150EF4E095E7FB0C948915E92F0E9493
:10285000B11558F3BA17620773078407950720F07C
:1028600079F4A6F50C94D3150EF4E0950B2EBA2F3F
:10287000A02D0B01B90190010C01CA01A001112486
:10288000FF27591B99F0593F50F4503E68F11A1632
:10289000F040A22F232F342F4427585FF3CF4695C3
:1028A00037952795A795F0405395C9F77EF41F16E5
:1028B000BA0B620B730B840BBAF09150A1F0FF0FAF
:1028C000BB1F661F771F881FC2F70EC0BA0F621F9B
:1028D000731F841F48F4879577956795B795F7958B
:1028E0009E3F08F0B0CF9395880F08F09927EE0F20
:1028F0009795879508950E94651508F481E00895DD
:102900000E9494140C94A0150E94991558F00E94EE
:10291000921540F029F45F3F29F00C94891551116C
:102920000C94D4150C948F150E94B11568F399235B
:10293000B1F3552391F3951B550BBB27AA276217BB
:102940007307840738F09F5F5F4F220F331F441FC8
:10295000AA1FA9F335D00E2E3AF0E0E832D09150FC
:102960005040E695001CCAF72BD0FE2F29D0660FE9
:10297000771F881FBB1F261737074807AB07B0E82C
:1029800009F0BB0B802DBF01FF2793585F4F3AF032
:102990009E3F510578F00C9489150C94D4155F3F37
:1029A000E4F3983ED4F3869577956795B795F795B8
:1029B0009F5FC9F7880F911D9695879597F90895A0
:1029C000E1E0660F771F881FBB1F6217730784073C
:1029D000BA0720F0621B730B840BBA0BEE1F88F74B
:1029E000E09508950E94F9146894B1110C94D415DF
:1029F00008950E94B91588F09F5798F0B92F99272C
:102A0000B751B0F0E1F0660F771F881F991F1AF0D9
:102A1000BA95C9F714C0B13091F00E94D315B1E056
:102A200008950C94D315672F782F8827B85F39F055
:102A3000B93FCCF3869577956795B395D9F73EF472
:102A400090958095709561957F4F8F4F9F4F08951A
:102A5000E89409C097FB3EF4909580957095619538
:102A60007F4F8F4F9F4F9923A9F0F92F96E9BB27EE
:102A70009395F695879577956795B795F111F8CF6A
:102A8000FAF4BB0F11F460FF1BC06F5F7F4F8F4FD5
:102A90009F4F16C0882311F096E911C0772321F0CB
:102AA0009EE8872F762F05C0662371F096E8862F63
:102AB00070E060E02AF09A95660F771F881FDAF7BA
:102AC000880F9695879597F90895990F0008550FE7
:102AD000AA0BE0E8FEEF16161706E807F907C0F0A4
:102AE00012161306E407F50798F0621B730B840BAC
:102AF000950B39F40A2661F0232B242B252B21F486
:102B000008950A2609F4A140A6958FEF811D811D25
:102B1000089597F99F6780E870E060E008959FEF5F
:102B200080EC089500240A94161617061806090664
:102B3000089500240A941216130614060506089533
:102B4000092E0394000C11F4882352F0BB0F40F4BB
:102B5000BF2B11F460FF04C06F5F7F4F8F4F9F4FFB
:102B6000089557FD9058440F551F59F05F3F71F07D
:102B70004795880F97FB991F61F09F3F79F08795E4
:102B80000895121613061406551FF2CF4695F1DF6D
:102B900008C0161617061806991FF1CF86957105FD
:102BA000610508940895E894BB2766277727CB0131
:102BB00097F908950E94ED150C94A0150E949215A6
:102BC00038F00E94991520F0952311F00C94891586
:102BD0000C948F1511240C94D4150E94B11570F328
:102BE000959FC1F3950F50E0551F629FF001729FB2
:102BF000BB27F00DB11D639FAA27F00DB11DAA1FC1
:102C0000649F6627B00DA11D661F829F2227B00D0D
:102C1000A11D621F739FB00DA11D621F839FA00D98
:102C2000611D221F749F3327A00D611D231F849FE8
:102C3000600D211D822F762F6A2F11249F5750403F
:102C40009AF0F1F088234AF0EE0FFF1FBB1F661FBA
:102C5000771F881F91505040A9F79E3F510580F083
:102C60000C9489150C94D4155F3FE4F3983ED4F38B
:102C7000869577956795B795F795E7959F5FC1F727
:102C8000FE2B880F911D9695879597F90895A0E1E1
:102C9000B0E0EDE4F6E10C94ED197C011B016A0152
:102CA000FC0117821682838181FF44C39E012F5F3E
:102CB0003F4F3901F7019381F10193FD859193FF16
:102CC00081911F01882309F431C3853239F493FDC2
:102CD000859193FF81911F01853239F4B70190E00E
:102CE0000E94261B56016501E5CF10E0512C912C66
:102CF000FFE1F915D8F08B3279F038F4803279F0B1
:102D00008332A1F4F92DF0612EC08D3261F0803351
:102D100069F4292D21602DC0392D3260932E892D23
:102D20008460982E2AC0E92DE86015C097FC2DC05C
:102D300020ED280F2A3088F496FE06C03AE0139F53
:102D4000200D1124122F19C08AE0589E200D112445
:102D5000522EE92DE0629E2E10C08E3231F496FC88
:102D6000E5C2F92DF0649F2E08C08C3621F4292D80
:102D70002068922E02C0883641F4F10193FD8591BE
:102D800093FF81911F018111B3CF9BEB980F93307B
:102D900020F4992D9061805E07C09BE9980F9330D5
:102DA00008F066C1992D9F7E96FF16E09F73992EBD
:102DB000853619F49064992E08C0863621F4392F8F
:102DC0003068932E02C01111115097FE07C01C33BA
:102DD00050F444244394410E27E00BC0183038F0DF
:102DE00027E017E005C027E09CE3492E02C0212F11
:102DF000412C560184E0A80EB11CF601608171815E
:102E000082819381042DA3010E94381A6C01F981FB
:102E1000FC87F0FF02C0F3FF06C091FC06C092FEE3
:102E200006C000E205C00DE203C00BE201C000E0F5
:102E30008C858C7019F001115AC29BC297FE10C08C
:102E40004C0CFC85F4FF04C08A81813309F44A9458
:102E5000141474F528E0241578F588E0482E2CC069
:102E600096FC2AC0812F90E08C159D059CF03CEFCC
:102E7000C3163FEFD30674F0892D8068982E0AC0E0
:102E8000E2E0F0E0EC0FFD1FE10FF11D80818033E7
:102E900019F411501111F4CF97FE0EC0442443943D
:102EA000410E812F90E0C816D9062CF41C1904C0DD
:102EB0004424439401C010E097FE06C01C141D0476
:102EC00034F4C601019605C085E090E002C081E0BF
:102ED00090E001110196112331F0212F30E02F5F96
:102EE0003F4F820F931F252D30E08217930714F474
:102EF000581A01C0512C892D897049F4552039F098
:102F0000B70180E290E00E94261B5A94F7CF00237D
:102F100029F0B701802F90E00E94261B93FC09C086
:102F2000552039F0B70180E390E00E94261B5A94A7
:102F3000F7CF97FE4CC04601D7FE02C0812C912CE2
:102F4000C60188199909F301E80FF91FFE87ED877B
:102F5000960124193109388B2F87012F10E0119524
:102F6000019511093FEF8316930629F4B7018EE20C
:102F700090E00E94261BC814D9044CF08F859889D4
:102F80008815990524F4ED85FE85818101C080E3D3
:102F9000F1E08F1A91082D853E852F5F3F4F3E87C8
:102FA0002D87801691062CF0B70190E00E94261B19
:102FB000D9CFC814D90441F49A81963320F49533BB
:102FC00019F43C8534FF81E3B70190E04EC08A815B
:102FD000813319F09C859F7E9C87B70190E00E9409
:102FE000261B111105C094FC18C085E690E017C09F
:102FF000B7018EE290E00E94261B1E5F82E001E096
:10300000080FF301E80FF11D8081B70190E00E94E5
:10301000261B802F0113F3CFE6CF85E490E0B701A4
:103020000E94261BD7FC06C0C114D10441F4EC85D4
:10303000E4FF05C0D194C194D1088DE201C08BE2B8
:10304000B70190E00E94261B80E32AE0C216D1045B
:103050002CF08F5FFAE0CF1AD108F7CFB70190E0DC
:103060000E94261BB701C601C0960E94261B54C1B0
:10307000833631F0833779F0833509F056C020C0AC
:10308000560132E0A30EB11CF6018081898301E074
:1030900010E0630112C05601F2E0AF0EB11CF60160
:1030A000C080D18096FE03C0612F70E002C06FEF38
:1030B0007FEFC6010E941B1B8C01F92DFF7714C006
:1030C000560122E0A20EB11CF601C080D18096FE0E
:1030D00003C0612F70E002C06FEF7FEFC6010E9456
:1030E000101B8C01F92DF0689F2EF3FD1AC0852D61
:1030F00090E008171907A8F4B70180E290E00E9459
:10310000261B5A94F4CFF60197FC859197FE819186
:103110006F01B70190E00E94261B51105A94015094
:1031200011090115110579F7F7C0843611F08936B8
:1031300061F5560197FE09C024E0A20EB11CF6010C
:1031400060817181828193810AC0F2E0AF0EB11C6F
:10315000F60160817181072E000C880B990BF92D07
:10316000FF769F2E97FF09C0909580957095619589
:103170007F4F8F4F9F4FF0689F2E2AE030E0A301D2
:103180000E947E1BC82EC6183FC0092D853721F42A
:103190000F7E2AE030E01DC0097F8F3691F018F4D1
:1031A000883559F0C3C0803719F0883711F0BEC098
:1031B000006104FF09C0046007C094FE08C00660F7
:1031C00006C028E030E005C020E130E002C020E188
:1031D00032E0560107FF09C084E0A80EB11CF601D9
:1031E000608171818281938108C0F2E0AF0EB11CD1
:1031F000F6016081718180E090E0A3010E947E1B56
:10320000C82EC6180F77902E96FE0BC0092D0E7F84
:10321000C11650F494FE0AC092FC08C0092D0E7E1F
:1032200005C0DC2C092D03C0DC2C01C0D12E04FF0D
:103230000DC0FE01EC0DF11D8081803311F4097E7B
:1032400009C002FF06C0D394D39404C0802F8678AF
:1032500009F0D39403FD11C000FF06C01C2DD51446
:1032600080F4150D1D190DC0D51458F4B70180E276
:1032700090E00E94261BD394F7CFD51410F45D186C
:1032800001C0512C04FF10C0B70180E390E00E9400
:10329000261B02FF17C001FD03C088E790E002C0B3
:1032A00088E590E0B7010CC0802F867859F001FFC7
:1032B00002C08BE201C080E207FD8DE2B70190E021
:1032C0000E94261BC11638F4B70180E390E00E94EB
:1032D000261B1150F7CFCA94F301EC0DF11D80812C
:1032E000B70190E00E94261BC110F5CF15C0F4E095
:1032F000F51560F584E0581A93FE1FC0011127C030
:103300002C8523FF2AC002E512E0392D3071932E5F
:10331000F8018491811124C0552009F4E4CCB7014F
:1033200080E290E00E94261B5A94F6CFF701868136
:10333000978126C08FEF9FEF23C0B70180E290E016
:103340000E94261B5A945110F8CFD8CF512CB701A8
:10335000802F90E00E94261BD3CF06E512E0D5CF48
:1033600091108052B70190E00E94261B0F5F1F4F03
:10337000CFCF23E0251510F483E0BDCF512CC0CF73
:103380006096E2E10C94091A97FB072E16F400945C
:1033900007D077FD09D00E94241A07FC05D03EF41F
:1033A000909581959F4F0895709561957F4F0895F1
:1033B000EE0FFF1F0590F491E02D0994A29FB0013C
:1033C000B39FC001A39F700D811D1124911DB29F59
:1033D000700D811D1124911D08952F923F924F92DF
:1033E0005F926F927F928F929F92AF92BF92CF9295
:1033F000DF92EF92FF920F931F93CF93DF93CDB79E
:10340000DEB7CA1BDB0B0FB6F894DEBF0FBECDBF15
:1034100009942A88398848885F846E847D848C84E6
:103420009B84AA84B984C884DF80EE80FD800C81EF
:103430001B81AA81B981CE0FD11D0FB6F894DEBFD2
:103440000FBECDBFED010895AA1BBB1B51E107C004
:10345000AA1FBB1FA617B70710F0A61BB70B881F24
:10346000991F5A95A9F780959095BC01CD010895B3
:10347000283008F027E03327DA01990F311D87FD46
:10348000916000966105710539F432602E5F3D93BD
:1034900030E32A95E1F708959F3F30F080387105B9
:1034A000610509F03C5F3C5F3D93913008F0806816
:1034B000911DDF93CF931F930F93FF92EF92192FDC
:1034C000987F9695E92F96959695E90FFF27EC54EE
:1034D000FD4F99273327EE24FF24A701E70105902C
:1034E0000894079428F4360FE71EF81E491F511D53
:1034F000660F771F881F991F0694A1F70590079400
:1035000028F4E70EF81E491F561FC11D770F881FAC
:10351000991F661F0694A1F70590079428F4F80EEA
:10352000491F561FC71FD11D880F991F661F771F80
:103530000694A1F70590079420F4490F561FC71F62
:10354000D81F990F661F771F881F0694A9F78491CB
:103550001095177041F0D695C79557954795F794F4
:10356000E7941A95C1F7EAE5F2E068941590159191
:1035700035916591959105907FE27395E118F10A77
:10358000430B560BC90BD009C0F7E10CF11E431FCA
:10359000561FC91FD01D7EF4703311F48A95E6CFF3
:1035A000E894015030F0080F0AF40027021708F4DD
:1035B000202F2395022F7A3328F079E37D932A95E3
:1035C000E9F710C07D932A9589F60694979567953B
:1035D000379517951794E118F10A430B560BC90B51
:1035E000D00998F023957E9173957A3308F070E3B3
:1035F0007C932013B8F77E9170617D9330F08395B2
:1036000071E37D9370E32A95E1F71124EF90FF9029
:103610000F911F91CF91DF91992787FD9095089584
:10362000FC010590615070400110D8F7809590958D
:103630008E0F9F1F0895FC01615070400190011092
:10364000D8F7809590958E0F9F1F08950F931F9325
:10365000CF93DF93FB01238121FD03C08FEF9FEF09
:103660002CC022FF16C04681578124813581421724
:10367000530744F4A081B1819D012F5F3F4F3183F7
:1036800020838C93268137812F5F3F4F378326839A
:1036900014C08B01EC01FB010084F185E02D09953C
:1036A000892BE1F6D80116968D919C91179701967A
:1036B00017969C938E931697CE01DF91CF911F9111
:1036C0000F910895AEE0B0E0E8E6FBE10C94FB1941
:1036D0008C0186E08C831A8309838FEF9FE79E839A
:1036E0008D83CE0101960E944716EF81F885E00F89
:1036F000F11F10822E96E4E00C94171AFA01AA2703
:10370000283051F1203181F1E8946F936E7F6E5F24
:103710007F4F8F4F9F4FAF4FB1E03ED0B4E03CD0D2
:10372000670F781F891F9A1FA11D680F791F8A1FB5
:10373000911DA11D6A0F711D811D911DA11D20D01C
:1037400009F468943F912AE0269F11243019305DD6
:103750003193DEF6CF010895462F4770405D4193C7
:10376000B3E00FD0C9F7F6CF462F4F70405D4A3314
:1037700018F0495D31FD4052419302D0A9F7EACFDC
:10378000B4E0A6959795879577956795BA95C9F70B
:1037900000976105710508959B01AC010A2E0694FE
:1037A0005795479537952795BA95C9F7620F731FB7
:0C37B000841F951FA01D0895F894FFCF02
:1037BC005C032F033E031C030D034D036B037A03C1
:1037CC00EF02FE02FFFEF92F2D2D2D2D2D2D2D2D6F
:1037DC002D2D2D53544152542053595354454D2D96
:1037EC002D2D2D2D2D2D2D2D2D2D2D2F0A006463DE
:1037FC006D6F746F7220696E69740A0064636D6F0B
:10380C00746F722073746F700A0064636D6F746FE1
:10381C0072206572726F720A004D4F544F522041E4
:10382C0044433A2025642C204144435F6D61783A2F
:10383C002025642C20766F6C746167653A202566B0
:10384C000A00534552564F3A20696E69740A005368
:10385C004552564F5F44454C415945445F4F504586
:10386C004E2025640A00534552564F5F434C4F532C
:10387C0045442025640A00534552564F5F4F505023
:10388C00454E45442025640A00534552564F5F541B
:10389C0052592025640A00534552564F3A205A6516
:0C38AC00726F2074727920636E740A0041
:00000001FF
