S01600006E6F77795F737465726F776E696B2E73726563FC
S11300000C94EB010C9408020C9408020C94080262
S11300100C9408020C9408020C9408020C94080234
S11300200C9408020C9408020C942F170C940802E8
S11300300C9408020C9429180C945A180C94080275
S11300400C9408020C9408020C9408020C94080204
S11300500C9408029D08A408A708AD08B308B808C2
S1130060BE08C508C908D1082009200920092009AB
S11300702009200920092009200920092009200934
S11300802009200920092009200920092009200924
S11300902009200920092009200920092009200914
S11300A02009200920092009200920092009200904
S11300B020092009200920092009200920092009F4
S11300C020092009200920092009200920092009E4
S11300D020092009200920092009200920092009D4
S11300E020092009200920092009200920092009C4
S11300F020092009200920092009200920092009B4
S113010020092009200920092009200920092009A3
S1130110200920092009D808DF08E508EA08F008C2
S1130120F608200920092009200920090F092009BF
S11301302009FE0803092009FB08090920092009F0
S11301402009200920092009200920092009200963
S11301502009200920092009200920092009200953
S11301602009200920092009200920092009200943
S11301702009200920092009200920092009200933
S11301802009200920092009200920092009200923
S11301902009200920092009200920092009200913
S11301A02009200920092009200920092009200903
S11301B020092009200920092009200920092009F3
S11301C020092009200920092009200920092009E3
S11301D020092009200920092009200920092009D3
S11301E020092009200920092009200920092009C3
S11301F020092009200920092009200920092009B3
S113020020092009200920092009200920092009A2
S11302102009200920092009200920092009200992
S11302202009200920092009200920092009200982
S11302302009200920092009200920092009200972
S11302402009200913091F091D091B091909170988
S1130250150907634236B79BD8A71A39685618AEF2
S1130260BAAB558C1D3CB7CC5763BD6DEDFD753EE7
S1130270F6177231BF000000803F08000000BE92F4
S11302802449123EABAAAA2ABECDCCCC4C3E0000D7
S11302900080BEABAAAAAA3E00000000BF00000076
S11302A0803F0000000000084178D3BB4387D1138E
S11302B03D190E3CC3BD4282AD2B3E68EC8276BE36
S11302C0D98FE1A93E4C80EFFFBE01C4FF7F3F0000
S11302D0000000006E616E00696E660000407A10D6
S11302E0F35A00A0724E18090010A5D4E80000E8E3
S11302F07648170000E40B54020000CA9A3B000041
S113030000E1F505000080969800000040420F00CF
S11303100000A08601000000102700000000E80390
S1130320000000006400000000000A00000000005B
S11303300100000000002C76D888DC674F0823DF1A
S1130340C1DFAE59E1B1B796E5E3E453C63AE651ED
S1130350997696E8E6C28426EB898C9B62ED407C14
S11303606FFCEFBC9C9F40F2BAA56FA5F490055AB0
S11303702AF75C936B6CF9676DC11BFCE0E40D47D5
S1130380FEF520E6B500D0ED902E030094357705F8
S11303900080841E080000204E0A000000C80C33B0
S11303A03333330F986E12831141EF8D2114893B3F
S11303B0E65516CFFEE6DB18D1844B381BF77C1DBF
S11303C0901DA4BBE424203284725E228100C9F112
S11303D024ECA1E53D2711241FBECFE5D8E0DEBF04
S11303E0CDBF13E0A0E6B0E0EEE7F4E402C0059070
S11303F00D92AA36B107D9F726E0AAE6B3E001C008
S11304001D92A230B207E1F70E9439020C943D22FA
S11304100C940000CF93DF93CDB7DEB7AE014B5FF2
S11304205F4FFA0161917191AF0180EE94E00E94F7
S1130430C32180EE94E00E94AC18DF91CF9108951F
S11304408C9A8E9ABD9A899A089588E090E00E94C9
S1130450811862E381E00E9472170E9454080E948E
S1130460CC040E9453150E945E0F80B78B7F80BF1F
S113047008950E94200278940E9425028FE790E05C
S11304809F938F930E940A020E94E0060E94B91073
S11304900F900F900E94500A0E94AC0B0E942204FD
S11304A00E9411160E94C4168091DE040E94D8078F
S11304B08091DF040E94D9120E945E060E947F0C84
S11304C00E94200F0E947C0F0E9487020E94D0028B
S11304D00E94E304DFCF83E00E94F510BC01660FA5
S11304E0771F660F771F860F971FBC0180E090E08F
S11304F00E94D01926E636E646EB50E40E94871A9D
S113050020E030E040E85AE30E94871A08954091C1
S1130510FE055091FF0560910006709101068091DF
S11305206F0390917003A0917103B09172038417CB
S11305309507A607B70798F583E00E94F51089355B
S113054022E0920718F021E0209373038B3821E016
S1130550920718F422E0209373038E3521E092076A
S113056018F423E0209373038C5891408C3C91053C
S113057010F4109273038091FE059091FF05A091F1
S11305800006B09101068C599F4FAF4FBF4F809327
S11305906F0390937003A0937103B0937203089553
S11305A04091FE055091FF0560910006709101068F
S11305B080916B0390916C03A0916D03B0916E03D5
S11305C084179507A607B70708F086C080917303C0
S11305D08130E9F030F0823099F1833009F467C05A
S11305E00895C59880916B0390916C03A0916D035D
S11305F0B0916E0388539F4FAF4FBF4F80936B03EF
S113060090936C03A0936D03B0936E03089598B315
S113061080E2892788BB80916B0390916C03A09141
S11306206D03B0916E0386509F4FAF4FBF4F8093C1
S11306306B0390936C03A0936D03B0936E030895C2
S113064080916A03811119C081E080936A03C59A7D
S113065080916B0390916C03A0916D03B0916E0334
S11306608C509E4FAF4FBF4F80936B0390936C039E
S1130670A0936D03B0936E030895813069F51092D1
S11306806A03C59880916B0390916C03A0916D03EC
S1130690B0916E0384529A4FAF4FBF4F80936B0358
S11306A090936C03A0936D03B0936E030895C59A61
S11306B080916B0390916C03A0916D03B0916E03D4
S11306C088519C4FAF4FBF4F80936B0390936C0343
S11306D0A0936D03B0936E030895379897B1987FF4
S11306E08770892B87B9379A0895369A3699FECF41
S11306F084B195B108950E946D030E947503089515
S1130700DC011696ED91FC911797208130E0F901F8
S113071018960C9002C0F595E7950A94E2F7CF017C
S113072081700895EDE8F5E0148281E085831486F4
S11307301386128611861686158626E330E03783E3
S1130740268392E09087E0E6F5E0148285831486A0
S1130750138612861186168615863783268380872C
S1130760EFE6F5E0148285831486138612861186DB
S1130770168615863783268396E09087EDE4F5E0A8
S1130780148285831486138612861186168615862E
S113079040E350E05783468393E09087EEE3F5E02F
S11307A0148285831486138612861186168615860E
S11307B0378326839087EEE7F5E0148285831486D9
S11307C01386128611861686158669E370E0778390
S11307D06683A4E0A087ECE9F5E01482858314869F
S11307E01386128611861686158643E350E05783D6
S11307F046838087EBEAF5E01482858314861386AA
S1130800128611861686158637832683A087E0E232
S1130810F5E0148285831486138612861186168663
S11308201586778366839087EFE2F5E014828583EB
S11308301486138612861186168615865783468378
S113084010860895DF92EF92FF920F931F93CF9338
S1130850DF934091FE055091FF0560910006709171
S1130860010680915C0590915D05A0915E05B091B3
S11308705F0584179507A607B70708F085C0809120
S1130880FE059091FF05A0910006B09101064496E3
S1130890A11DB11D80935C0590935D05A0935E0539
S11308A0B0935F05C0E6D0E00F2EF4E7EF2EF0E042
S11308B0FF2EF02DDD24D3948E01888199810E942E
S11308C08003E881F98195818917E1F0858381307E
S11308D061F488819981DC011996ED91FC911A9754
S11308E0309709F441C009953FC081113DC088810A
S11308F09981DC011B96ED91FC911C97309721F0B6
S1130900099502C0811130C0D801ED91FC9180811C
S11309109181A281B3810196A11DB11D8083918330
S1130920A283B383D801ED91FC9180819181A2814E
S1130930B3818897A105B10510F184818130F9F064
S11309400584F685E02D309719F08DE895E009953A
S1130950D801ED91FC9111971082118212821382B9
S1130960ED91FC91D4820BC0D801ED91FC911197CB
S11309701082118212821382ED91FC9114822296CC
S1130980CE15DF0509F098CFDF91CF911F910F911C
S1130990FF90EF90DF9008950E949203BA98C29A54
S11309A0B998C19ABE98C69A8B98939ABB98C39AE1
S11309B0D498DC9AA198A99ABC98C49AD398DB9A43
S11309C0A098A89A08954091FE055091FF05609162
S11309D00006709101068091780390917903A091AB
S11309E07A03B0917B0384179507A607B70708F02D
S11309F059C08091DC049091DD0495FF37C080914B
S1130A00740390917503A0917603B0917703892BB9
S1130A108A2B8B2B59F5C09A8091DC049091DD04CC
S1130A209F7D9093DD048093DC0481E090E0A0E05E
S1130A30B0E08093740390937503A0937603B0930E
S1130A4077038091780390917903A0917A03B09110
S1130A507B038C599F4FAF4FBF4F80937803909384
S1130A607903A0937A03B0937B030895C0981092FE
S1130A707403109275031092760310927703809199
S1130A80780390917903A0917A03B0917B03C29685
S1130A90A11DB11D8093780390937903A0937A03E9
S1130AA0B0937B030895B89AC0980895E0ECF5E0FC
S1130AB0A4E7B0E011968C911197808313968C91E2
S1130AC01397818315968C911597828317968C9131
S1130AD0838308958091C4051F928F9386EA90E0E2
S1130AE09F938F930E940A02E0ECF5E083811F92AA
S1130AF08F9382811F928F9381811F928F93808124
S1130B001F928F9380EB90E09F938F930E940A0231
S1130B108DB79EB70E960FB6F8949EBF0FBE8DBFCD
S1130B2008958091C40590E0FC01E054FA4F2081BF
S1130B30FC01EE0FFF1FEC58FF4F3081231728F400
S1130B40FC01E054FA4F2F5F20830E946A05089548
S1130B508091C40590E0FC01E054FA4F20812223E7
S1130B6029F0FC01E054FA4F215020830E946A05C9
S1130B7008958091C405833018F48F5F8093C40571
S1130B800E946A0508958091C405882319F0815054
S1130B908093C4050E946A05089560EC75E084E0C2
S1130BA00E944A1188E08093DA058093D5059498D1
S1130BB096980895CF93E091C50591E09E0F909388
S1130BC0C505F0E0E654FA4F80831F928F938FECB3
S1130BD090E09F938F930E940A02C091C5054C2F09
S1130BE050E06FE071E08AEB95E00E946F210F9076
S1130BF00F900F900F90892B91F088ED90E09F93C8
S1130C008F930E940A021092C50586E0EAEBF5E094
S1130C10DF011D928A95E9F70F900F9035C0C63019
S1130C2099F588EE90E09F938F930E940A0281E0E9
S1130C308093C60583EC95E090939905809398057D
S1130C4089EB95E090936C0580936B058DEC95E0B2
S1130C5090937B0580937A0588EA95E090934A0502
S1130C608093490581E995E090938A0580938905ED
S1130C7086E595E09093A8058093A70567E082E058
S1130C800E94F5090F900F90CF91089585E00E947E
S1130C90DA05089584E00E94DA05089583E00E944D
S1130CA0DA05089582E00E94DA05089581E00E9441
S1130CB0DA05089580E00E94DA0508954091FE0562
S1130CC05091FF05609100067091010680917C03AC
S1130CD090917D03A0917E03B0917F0384179507C3
S1130CE0A607B70708F06BC08091C605813009F0EC
S1130CF066C08091FE059091FF05A0910006B09119
S1130D000106C296A11DB11D80937C0390937D03BF
S1130D10A0937E03B0937F038091DA05873031F48A
S1130D206091C40586ED95E00E949D098091D505EA
S1130D30873051F4E091C405F0E0E054FA4F60814B
S1130D4081ED95E00E949D098091DA05883049F58E
S1130D508091D505883029F58091FE059091FF0595
S1130D60A0910006B091010688519C4FAF4FBF4F30
S1130D7080937C0390937D03A0937E03B0937F03C1
S1130D8083E78093E90581E68093DD0580E780931E
S1130D90DB051092E7058AE08093DA058093D50598
S1130DA008958091DA058A3051F48091D5058A300E
S1130DB031F41092DA051092D5051092C605089503
S1130DC08AE596E0909399058093980586E596E0E8
S1130DD090936C0580936B0582E596E090937B0578
S1130DE080937A058EE496E090934A0580934905B2
S1130DF08AE496E090938A058093890586E496E0D8
S1130E009093A8058093A70560EC75E084E00E94A8
S1130E108E11E0ECF5E083811F928F9382811F9203
S1130E208F9381811F928F9380811F928F9387EF7D
S1130E3090E09F938F930E940A02A0ECB5E0E4E750
S1130E40F0E04CE750E08DB79EB70A960FB6F894E1
S1130E509EBF0FBE8DBF20E09C918081891718F43E
S1130E6081818C932F5F11963296E417F507A1F7D1
S1130E70222329F060EC75E084E00E944A1110926C
S1130E80C50586E0EAEBF5E0DF011D928A95E9F7F6
S1130E900895843030F4E82FF0E0E054FA4F808174
S1130EA0089580E0089585E191E09F938F930E94D7
S1130EB00A028BEC95E00E949E1781E08093C7059F
S1130EC0949815BC8F9A979A0F900F90089510924A
S1130ED0C70515BC979A949808959091C7059250A8
S1130EE021E030E0933010F020E030E0C9010895B3
S1130EF00E946D07009799F083E291E09F938F938E
S1130F000E940A0215BC979A9498E7ECF5E0808158
S1130F10818381E080830F900F9081E090E00895B9
S1130F208091C7058130D9F4949A85B5806385BDD5
S1130F3085B5806485BD85B5816085BDE7ECF5E048
S1130F408081818384E0808348EE53E060E070E038
S1130F508BEC95E00E94A61781E090E0089580E074
S1130F6090E008958091CA0590E0089581E391E0AE
S1130F709F938F930E940A020E94780785E08093D2
S1130F80C7050F900F9008950E946D07009729F0F0
S1130F9083E08093C70581E090E008950E946D0787
S1130FA0009729F082E08093C70581E090E00895DE
S1130FB0CF93C82F46E950E060E070E080E893E00A
S1130FC00E94F217892B09F458C09091C7059330F9
S1130FD0E9F028F49130B9F0923041F04EC09430E9
S1130FE009F448C0953009F442C047C0C093CA050B
S1130FF02BEEC29FC001112463E670E00E94F61F2D
S11310006C5E63BD3AC01092CA0537C0C33378F42E
S113101084E18C0F8093CA052BEE829FC0011124BA
S113102063E670E00E94F61F6C5E63BD26C08DEC23
S11310308C0F843178F48FE08C0F8093CA052BEEEB
S1131040829FC001112463E670E00E94F61F6C5E6B
S113105063BD13C0C093CA052BEEC29FC001112407
S113106063E670E00E94F61F6C5E63BD06C015BCAB
S1131070979A03C082E08093C705CF910895AE9AF2
S1131080AD9ADD9ADF9ADE9AAA9AAF9A0895929A57
S11310901092DE05C79A1092EA05AC9A1092DC050C
S11310A0AB9A1092E8050895A69AA59AD59AD79A6C
S11310B0D69AA29AA79A8A9AEFEDF5E08DED95E07B
S11310C091838083BF9A29EE35E033832283A6ED92
S11310D0B5E011963C932E9313969C938E9312979E
S11310E0A49A2BED35E035832483A39A87EE95E00B
S11310F097838683E1EDF5E03183208393838283B4
S11311000E9447080E943F080895CF93DF93FC0193
S1131110308120917C00321709F495C0EC010E94C3
S11311203F08E8818E2F90E08F3F910508F088C03A
S1131130FC01E65DFF4F0C942C20AE98AD98DD9831
S1131140DF98DE98AA987CC0AD98DD9879C0AE98F7
S1131150AD98AF98DE98DF9873C0AE98AD98AF980D
S1131160DD98DF986DC0AA98AF98AD98DD9868C0F7
S1131170AE98AA98AF98DD98DF9862C0AE98AA9806
S1131180AF98DD98DF98DE985BC0AE98AD98DD9897
S113119057C0AE98AD98DD98DF98DE98AA98AF98BE
S11311A04FC0AE98AD98DD98DF98AA98AF9848C024
S11311B0AE98AD98DD98DE98AA98AF9841C0DD98B6
S11311C0DF98DE98AA98AF983BC0AE98DF98DE9877
S11311D0AA9836C0AD98DD98DF98DE98AF9830C0F5
S11311E0AE98DF98DE98AA98AF982AC0AE98DE9899
S11311F0AA98AF9825C0DE98AF9822C0DD98DF98F2
S1131200DE98AF981DC0AE98AD98DE98AA98AF98B6
S113121017C0AE98DD98DF98AA98AF9811C0DF98F0
S1131220DE98AA980DC0AF980BC0AA9809C0DE98A2
S113123007C0DF9805C0DD9803C0AD9801C0AE9823
S1131240888180937C00DF91CF910895CF93DF93C1
S1131250EC010E944708CE010E94850885E0CD3D3F
S1131260D80729F4929881E08093DE0519C085E0BF
S1131270C93ED80729F4C79881E08093EA0510C0D5
S113128085E0CB3DD80729F4AC9881E08093DC0558
S113129007C0C75ED54021F4AB9881E08093E80590
S11312A0DF91CF910895EF92FF921F93CF93DF9335
S11312B0FC01C081D1812196D183C0839E01ADEC14
S11312C0BCEC0E94322096958795969587959695C5
S11312D087959C01220F331F880F991F880F991F30
S11312E0880F991F820F931FC817D90701F57F0133
S11312F010918503143058F4E12FF0E0EE0FFF1F36
S1131300E152FA4F808191810E94260902C00E9415
S113131047081F5F153019F01093850302C010921F
S11313208503C039D14019F4F70111821082DF918D
S1131330CF911F91FF90EF900895FC016436F8F46B
S1131340611108C0A081B1811C920280F381E02D5B
S113135010820895A081B1819DEC699F912D112483
S11313609695969596959C930280F381E02D892F0E
S1131370880F982F990F990F890F681B6083089520
S1131380FC0160830895813039F018F0823039F01F
S113139008956093A10308956093A0030895609352
S11313A0A0036093A1030895882319F0813029F0E4
S11313B008C08091DA0590E008958091D50590E009
S11313C008958FEF9FEF08958091DA05863021F418
S11313D08091EB058093DA058091D505863021F460
S11313E08091EC058093D50508958130A1F018F023
S11313F0823009F10895663021F48091DA058093F2
S1131400EB058091DA05863019F46093EB050895B5
S11314106093DA050895663021F48091D5058093B0
S1131420EC058091D505863019F46093EC05089598
S11314306093D5050895663041F48091DA05809370
S1131440EB058091D5058093EC058091DA05863013
S113145029F46093EC056093EB0508956093DA0535
S11314606093D505089595E09093DA059093D5059A
S113147080939B03089568EF8DED95E00E94C00969
S113148068EF89EE95E00E94C00968EF8BED95E066
S11314900E94C00968EF87EE95E00E94C009089594
S11314A08091FE059091FF05A0910006B091010680
S11314B040918A0350918B0360918C0370918D034A
S11314C0481759076A077B0708F026C18091DA0597
S11314D0833009F459C030F4882309F487C081307B
S11314E039F18EC0853009F474C048F1863009F0B2
S11314F087C00E946B0220E030E048EC52E40E9476
S1131500871A0E949A1970939A03609399039B0116
S11315103695279536952795ABE7B4E10E9432209E
S113152096958795682F86ED95E00E949D0968C081
S11315306091A10386ED95E00E949D0961C08091B0
S1131540D505843031F081E08093DA058093D505A8
S113155057C048515C4F6F4F7F4F40938A0350935D
S11315608B0360938C0370938D0383E78093E90569
S113157081E68093DD0580E78093DB0581E080933D
S1131580DA058093D50508958091D505833031F02F
S113159081E08093DA058093D50532C048515C4FD1
S11315A06F4F7F4F40938A0350938B0360938C0358
S11315B070938D038CE68093E9058FE68093DD05B7
S11315C080E78093DB0581E08093DA058093D5057D
S11315D017C085E68093E90582E78093DD05609175
S11315E09B0381ED95E00E949D090AC068EF8DED93
S11315F095E00E94C00968EF89EE95E00E94C00959
S11316008091D505813019F148F1863019F08D307B
S113161081F16FC04091990350919A039A013695D4
S1131620279536952795ABE7B4E10E94322096952D
S1131630879564E6689F9001699F300D1124BA0173
S1131640621B730B81ED95E00E949D0952C060916D
S1131650A00381ED95E00E949D094BC068EF8BEDDE
S113166095E00E94C00968EF87EE95E00E94C009EA
S113167040C044EF51E060E070E084E993E00E94F0
S1131680F217892BB1F18091930381110EC081E08F
S11316908093930367EF8BED95E00E94C00967EF99
S11316A087EE95E00E94C00924C0109293038091B4
S11316B08F0390919003A0919103B09192030097AE
S11316C0A105B10529F461E081E00E94F50911C08A
S11316D00197A109B10980938F0390939003A0937C
S11316E09103B093920360918E0381ED95E00E9483
S11316F09D0980918A0390918B03A0918C03B091F2
S11317008D03C296A11DB11D80938A0390938B0310
S1131710A0938C03B0938D0308950F931F930091AE
S1131720FE051091FF052091000630910106DC01B1
S1131730CB01800F911FA21FB31F80939C03909332
S11317409D03A0939E03B0939F0362E0842F0E94A5
S1131750F5091F910F9108958091DA05823029F0DF
S11317608091D505823009F078C04091FE055091F2
S1131770FF056091000670910106809186039091A7
S11317808703A0918803B091890384179507A6075E
S1131790B70708F062C08091FE059091FF05A09103
S11317A00006B091010681559F4FAF4FBF4F809304
S11317B0860390938703A0938803B0938903809151
S11317C0DA05823061F460917E008DED95E00E942F
S11317D0C00960917E0089EE95E00E94C009809165
S11317E0D505823061F460917D008BED95E00E9417
S11317F0C00960917D0087EE95E00E94C009409188
S1131800FE055091FF0560910006709101068091DC
S11318109C0390919D03A0919E03B0919F03841714
S11318209507A607B70728F461E082E00E94F5094E
S1131830C59890917E009F5F90937E0080917D007B
S1131840815080937D009F3F19F499EF90937E001F
S1131850883F19F48EEF80937D000895E199FECFBF
S11318609FBB8EBB6DBBE29AE19A0895E199FECFCE
S11318709FBB8EBBE09A8DB30895CF93C82F809100
S1131880DC049091DD0482609093DD048093DC0499
S11318908C2F0E94330A0E94B6070E94FE110E94F8
S11318A02C17C093ED05CF9108951092BA031092AE
S11318B0B9031092B8031092B0031092B1038BEBEA
S11318C093E00E94E8178BEA93E00E94E8171092D5
S11318D0ED0508951092BA031092B9031092B8035B
S11318E01092B0031092B1038BEB93E00E94E817BF
S11318F08BEA93E00E94E8171092ED0508954F9249
S11319005F926F927F928F929F92AF92BF92CF928B
S1131910DF92EF92FF924091FE055091FF05609196
S11319200006709101068091A7039091A803A091ED
S1131930A903B091AA0384179507A607B70708F06F
S113194072C28091DC0480FF6EC24091FE0550910A
S1131950FF0560910006709101064C505E4F6F4F79
S11319607F4F4093A7035093A8036093A9037093F8
S1131970AA0381FD58C20E946B024B015C010E94C4
S1131980B207BC0180E090E00E94D0196B017C0199
S113199025E935E640ED5FE30E94F41A2B013C0192
S11319A0A7019601C501B4010E94871A20E030E026
S11319B048EC52E40E9428194B015C0123E333E311
S11319C043E651E4C701B6010E94871A20E030E0E3
S11319D048EC52E40E9428199B01AC01C501B401F2
S11319E00E94BB1820E030E040E450E40E94281933
S11319F04B015C0128E539E344E35CE3C301B20134
S1131A000E94871A9B01AC01C501B4010E94BC1855
S1131A104B015C0183E00E944907682F70E0625328
S1131A207109072E000C880B990B0E94D219A7018B
S1131A3096010E94871A20E030E048EC52E40E94AC
S1131A402819A50194010E94BC186093B4037093F3
S1131A50B5038093B6039093B70380E00E94F5101A
S1131A6042E05BE267E07DE380E00E940E1120919A
S1131A70B4033091B5034091B6035091B7030E946B
S1131A80821A181644F40E946D07892B21F081E014
S1131A908093B80302C01092B80381E00E94490702
S1131AA081110DC18091B803813009F0A8C08091E3
S1131AB0BA03823009F470C028F4882351F08130CD
S1131AC0A9F1FDC0833009F47AC0843009F47BC0E5
S1131AD0F6C081E08093BA0380E491E09F938F93F2
S1131AE00E940A020E94B2072EE1AC01249FC001A9
S1131AF0259F900D112448E853E17A01E81AF90A68
S1131B00FF92EF928BE591E09F938F930E940A02DC
S1131B10A70160E070E08BEB93E00E94A6170F90A2
S1131B200F900F900F900F900F90C9C08BEB93E024
S1131B300E94C817892B09F4C2C00E94C4070E94DE
S1131B40B2072EE1AC01249FC001259F900D112402
S1131B5048E853E17A01E81AF90AFF92EF928AE71A
S1131B6091E09F938F930E940A02A70160E070E0C6
S1131B708BEB93E00E94A61782E08093BA038EE970
S1131B8091E09F938F930E940A020F900F900F9001
S1131B900F900F900F9093C08BEB93E00E94C817A7
S1131BA0892B09F48CC083E08093BA038EEB91E017
S1131BB09F938F930E940A020F900F9080C081E040
S1131BC00E943D0C7CC08BEB93E00E94C817892BCC
S1131BD009F475C040ED57E060E070E08BEB93E0F2
S1131BE00E94A6178091B9038093BA038AED91E00D
S1131BF09F938F930E940A020F900F9060C0809170
S1131C00BA03823049F118F4813041F058C083306E
S1131C1009F441C0843009F442C051C08BEB93E015
S1131C200E94C817892B09F44AC040ED57E060E0D0
S1131C3070E08BEB93E00E94A61784E08093BA03D4
S1131C4081E08093B90381E092E09F938F930E9497
S1131C500A020F900F9033C08BEB93E00E94C817D9
S1131C60892B69F140ED57E060E070E08BEB93E085
S1131C700E94A6170E94CE0784E08093BA0382E0F4
S1131C808093B90381E092E09F938F930E940A02AC
S1131C900F900F9014C081E00E943D0C10C08BEB9C
S1131CA093E00E94C817892B51F08CE192E09F9336
S1131CB08F930E940A021092BA030F900F9080E053
S1131CC00E9449078111AFC082E00E94490790E059
S1131CD0C2969093B3038093B20381E00E94F510FF
S1131CE02091B2033091B30328173907D8F43F93F6
S1131CF02F9385E392E09F938F930E940A0281E0E1
S1131D008093B0030F900F900F900F908091B103C8
S1131D10813051F1A8F0823009F44BC0833009F4CA
S1131D2051C081C01092B0038091B103823009F494
S1131D3066C0833009F474C0813009F074C046C0B1
S1131D4081E08093B1038CE492E09F938F930E948F
S1131D500A0244EF51E060E070E08BEA93E00E94F5
S1131D60A6170F900F905FC08BEA93E00E94C817EC
S1131D70892B09F458C00E946B12049724F083E065
S1131D808093B10350C04CED55E060E070E08BEA05
S1131D9093E00E94A61782E08093B1030E945F1231
S1131DA087E692E09F938F930E940A020F900F9010
S1131DB03AC08BEA93E00E94C817892BA1F11092D4
S1131DC0B10331C082E00E943D0C2DC08BEA93E048
S1131DD00E94C817892B39F140ED57E060E070E0AC
S1131DE08BEA93E00E94A6171092B10381E892E077
S1131DF09F938F930E940A020F900F9014C08BEA56
S1131E0093E00E94C817892B71F01092B10381E806
S1131E1092E09F938F930E940A020F900F9003C049
S1131E2082E00E943D0CFF90EF90DF90CF90BF9036
S1131E30AF909F908F907F906F905F904F90089598
S1131E404EE551E060E070E082EA93E00E94F21710
S1131E50892B09F18091ED05813071F492B380E111
S1131E60892782BB8091DC049091DD049062909379
S1131E70DD048093DC040895823069F492B380E435
S1131E80892782BB8091DC049091DD049062909359
S1131E90DD048093DC040895FC01208131816230EB
S1131EA058F0329691E041915191240F351F3695A7
S1131EB027959F5F6913F7CFC9010895E6E0F4E021
S1131EC02EE234E081EF91E0819391932E173F0746
S1131ED0D9F7E5EEF3E083E094E0119211928E17C6
S1131EE09F07D9F7EDECF3E081EE93E011921192A4
S1131EF08E179F07D9F70895CF92DF92EF92FF9242
S1131F000F931F93CF93DF934091FE055091FF05EC
S1131F1060910006709101068091C4039091C503FD
S1131F20A091C603B091C70384179507A607B70706
S1131F3008F016C18091FE059091FF05A09100065E
S1131F40B09101064496A11DB11D8093C4039093E2
S1131F50C503A093C603B093C70380E00E947B032C
S1131F60EC01609103047091040480E090E00E940D
S1131F70D01921E73DE34AE85EE30E94871A6B012A
S1131F807C01BE0180E090E00E94D0199B01AC016D
S1131F90C701B6010E94BC180E94A11970933104B4
S1131FA06093300420913204E22FF0E0EE0FFF1F23
S1131FB0EA5FFB4F7183608381E0820F8093320478
S1131FC082E00E947B038032910530F04F9790931A
S1131FD0E4038093E30304C01092E4031092E30348
S1131FE0E0910504F0E0EE0FFF1FEB51FC4F8091F0
S1131FF0E3039091E4039183808381E00E947B0357
S11320009093CB038093CA03C091C803D091C903B2
S1132010209779F0C817D90728F41092CB031092AF
S1132020CA0307C09E01281B390B3093CB032093AE
S1132030CA038091CC031091CA030091CB03E82F0B
S1132040F0E0EE0FFF1FE353FC4F108301839091E8
S113205005049F5F909305048F5F8093CC0364E134
S113206086E094E00E944C0F90932F0480932E04FA
S11320706FE085EE93E00E944C0F909304048093EC
S113208003046AE08DEC93E00E944C0F9093E2030A
S11320908093E103C090C003D090C103E090C203D9
S11320A0F090C303C701B60120E530E040E050E002
S11320B00E940A20672B682B692B71F0C701B601B7
S11320C02AE030E040E050E00E940A20672B682BB1
S11320D0692B09F52097F9F4DF93CF938091E403FA
S11320E08F938091E3038F930F931F938091310417
S11320F08F93809130048F938AE992E09F938F931A
S11321000E940A022DB73EB7265F3F4F0FB6F894E0
S11321103EBF0FBE2DBF8091C0039091C103A0911B
S1132120C203B091C3030196A11DB11D8093C003E6
S11321309093C103A093C203B093C303809132046C
S1132140843111F4109232048091CC038A3011F45A
S11321501092CC03809105048F3011F41092050481
S1132160DF91CF911F910F91FF90EF90DF90CF906F
S11321700895CF92DF92EF92FF92CF93DF93C090B6
S1132180FE05D090FF05E0900006F09001068CED6E
S1132190C80E85E0D81EE11CF11CCCEFD5E00E94EE
S11321A07C0F8A819B81AC81BD81C816D906EA0661
S11321B0FB06A8F78091E1039091E2038093C803A2
S11321C09093C9039F938F938AED92E09F938F938B
S11321D00E940A020F900F900F900F90DF91CF9101
S11321E0FF90EF90DF90CF900895833018F4813002
S11321F040F00CC0833079F480912E0490912F0428
S11322000895809103049091040408958091E1035A
S11322109091E203089580E090E00895CF92DF92D8
S1132220EF92FF926A017B01833018F4813050F001
S113223010C08330A9F460912E0470912F0480E0C3
S113224090E011C0609103047091040480E090E078
S11322500AC06091E1037091E20380E090E003C062
S113226060E070E0CB010E94D01920E030E040E84B
S11322705AE30E94871A20E030E040EA50E40E94CA
S1132280871AA70196010E942819FF90EF90DF900A
S1132290CF900895EF92FF920F931F93CF938B01EA
S11322A0823059F028F4882391F0813019F130C03C
S11322B0833029F1843031F02BC022E030E084E017
S11322C090E021C024E030E088E090E01CC06894F5
S11322D0EE24E1F8F12CC0E0F80161918F018C2F1C
S11322E090E00E942E0CCF5F8C2F90E08E159F05FE
S11322F09CF30EC022E030E082E090E004C022E0D3
S113230030E086E090E0C82F7901E80EF91EE4CFB2
S1132310CF911F910F91FF90EF900895EF92FF924C
S11323200F931F93CF938B01823059F028F48823A5
S113233091F0813019F130C0833029F1843031F0CB
S11323402BC022E030E084E090E021C024E030E0C3
S113235088E090E01CC06894EE24E1F8F12CC0E021
S11323608C2F90E00E94360CF80181938F01CF5F8F
S11323708C2F90E08E159F059CF30EC022E030E078
S113238082E090E004C022E030E086E090E0C82FD4
S11323907901E80EF91EE4CFCF911F910F91FF90C0
S11323A0EF900895811105C08CE697E09BBD8ABD2E
S11323B00895823390F490E022273327281B390BA9
S11323C0220F331F220F331F220F331F820F931F3D
S11323D0885F984F9BBD8ABD0895843670F4282F7A
S11323E030E0225331094BEF4203C001439F900D6B
S11323F0112486559A4F9BBD8ABD089580E00E94A2
S1132400D211969885E08093EE050895CF93DF93DB
S11324102FE13EE437BD26BD81B3806381BB19BC87
S113242018BC1BBC1ABC8FB582608FBD8EB5886189
S11324308EBD8FB580688FBD8EB582608EBD3BBD6D
S11324402ABD9698CEEED5E081E088831B8282EF88
S113245095E00E949E1719861092470480E093E04D
S11324609F938F930E940A020F900F90DF91CF9158
S113247008959091EE05925021E030E0923010F0F2
S113248020E030E0C90108959091EE059130A1F467
S1132490EEEEF5E093E0908383831F928F938DE0BB
S11324A093E09F938F930E940A020F900F900F90D6
S11324B00F9081E090E0089580E090E0089580918D
S11324C0EE059FEF980F923028F4EEEEF5E081834D
S11324D084E0808308958091F70590E008950E9438
S11324E039120097C1F080E00E94D211EEEEF5E0BF
S11324F081E0808313821F921F9284E293E09F9372
S11325008F930E940A0296980F900F900F900F904D
S113251081E090E008952091EE05243021F40E949A
S1132520941281E090E008958091EF05823029F4BF
S11325308093EE050E946F1209C0813071F4EEEEB3
S1132540F5E082E0808383810E94AE1210924704FA
S1132550EEEEF5E081858F5F81870895CF93C82FD4
S11325608091EE059FEF980F9330C0F4EEEEF5E006
S113257082E08083C3838C2F0E94D2111F92CF9359
S113258085E393E09F938F930E940A02969A0F909B
S11325900F900F900F9081E090E009C0843029F4EF
S11325A00E94941281E090E002C080E090E0CF911C
S11325B00895CF93DF93C82F4BE450E060E070E0C0
S11325C082E494E00E94F217892B09F4B6C080914A
S11325D0EE058430A1F030F4823059F0833009F4F0
S11325E061C09BC0853009F477C0863009F491C07E
S11325F094C0C093F1058C2F0E94D2118EC080919B
S11326004704811113C044E650E060E070E08DE3BC
S113261094E00E94A617809147048F5F809347043B
S11326209091F105890F0E94D21128C08150893000
S1132630C8F48DE394E00E94C8170197F9F444E6C6
S113264050E060E070E08DE394E00E94A617809172
S113265047048F5F809347049091F105890F0E948E
S1132660D2110CC010924704CEEED5E08B810E94AB
S1132670D2118981888389858F5F89872091F105AB
S11326808091470490E0820F911D9F938F9387E47C
S113269093E09F938F930E940A020F900F900F90E4
S11326A00F903BC088E394E00E94BE17892B59F039
S11326B088E394E00E94C817019779F582E080933B
S11326C0EE05969A2AC040ED57E060E070E088E39A
S11326D094E00E94A61721C083E394E00E94BE17F1
S11326E0892B71F083E394E00E94C8170197A9F441
S11326F086E08093EE058FE19EE49BBD8ABD0DC00C
S113270040ED57E060E070E083E394E00E94A61798
S113271004C08FE19EE49BBD8ABD82EF95E00E94D8
S1132720C817019751F41092F70585E593E09F933C
S11327308F930E940A020F900F90DF91CF9108951A
S1132740EDE8F5E016861586128611861486138642
S1132750E0E6F5E016861586128611861486138641
S113276010927B0510927A05EEE3F5E01686158645
S11327701486138612861186EEE7F5E01686158612
S113278014861386128611861092A8051092A70546
S1132790EBEAF5E0148613861686158612861186F2
S11327A0E0E2F5E0148613861686158612861186F5
S11327B0EFE2F5E0148613861686158612861186D6
S11327C0089580915004823049F08091DC04909106
S11327D0DD0498609093DD048093DC040895809177
S11327E05004823049F08091DC049091DD048068CB
S11327F09093DD048093DC0408958091DC0490912F
S1132800DD0492609093DD048093DC04089580914C
S1132810DC049091DD04997F9093DD048093DC04C3
S11328201092510408958091DC049091DD0480623B
S11328309093DD048093DC0408958091DC049091EE
S1132840DD048F799093DD048093DC0410925104AD
S113285008958091DC049091DD0490629093DD04EE
S11328608093DC048091DF048B3018F081508093D6
S1132870DF046091DF0481E00E94C30961E082E02B
S11328800E94F50908958091DC049091DD04906222
S11328909093DD048093DC048091DF04833618F484
S11328A08F5F8093DF046091DF0481E00E94C3099D
S11328B061E082E00E94F50908958091DC04909122
S11328C0DD0490629093DD048093DC048091DE0447
S11328D08B3018F081508093DE046091DE0480E038
S11328E00E94C30980E00E94D409029729F461E0A0
S11328F082E00E94F50904C061E080E00E94F509CD
S1132900809150048F5F80935004823019F466E004
S11329100E94F50908958091DC049091DD04906291
S11329209093DD048093DC048091DE04833618F4F4
S11329308F5F8093DE046091DE0480E00E94C3090F
S113294080E00E94D409029729F461E082E00E94A9
S1132950F50904C061E080E00E94F509809150040B
S11329608F5F80935004823019F466E00E94F50969
S113297008950E94E4098091DC049091DD04977E1F
S11329809093DD048093DC041092510480915004F0
S1132990882319F081508093500480E00E94D40968
S11329A0029729F461E082E00E94F509089561E04C
S11329B080E00E94F50908950E94E4098091DC04F6
S11329C09091DD048F779E7F9093DD048093DC04E7
S11329D01092510480915004882319F081508093FF
S11329E0500480E00E94D409029729F461E082E057
S11329F00E94F509089561E080E00E94F5090895B8
S1132A00EAEFF5E08091DE0480838091DF04818326
S1132A10BF0183E00E944A1108958091DC049091E3
S1132A20DD0490629093DD048093DC048091DE04E5
S1132A308A3038F48AE08093DE046AE080E00E9401
S1132A40C3090E9400150E946D07892B39F40E9466
S1132A5090078091DF040E94441208950E94780731
S1132A600E946F1208958091DC049091DD049062BD
S1132A709093DD048093DC048091DF048A3038F481
S1132A808AE08093DF046AE081E00E94C3090E9427
S1132A903912892B19F00E946F1208958091DF0476
S1132AA00E94AE1208958CEF95E1909357058093A0
S1132AB0560560E082E00E94F5090E943B0A68EF37
S1132AC075E083E00E948E118091F90596EF980FCE
S1132AD09A3510F48093DF048091F80596EF980FEF
S1132AE09A3510F48093DE0408951092500442E065
S1132AF068EE73E080E090E00E948D0B0E94530723
S1132B0080E00E9406120E94550C0E945E0F0E94F3
S1132B10530581E090E09093DD048093DC04EDE8BC
S1132B20F5E081EE93E1968785878DE594E19487BE
S1132B30838789EB94E192878187E0E6F5E08FEE65
S1132B4093E1968785878BE894E1948783878CED5E
S1132B5094E1928781878DE095E190937B05809342
S1132B607A05EEE3F5E08DEF93E19687858787E0BC
S1132B7094E19287818789E294E194878387EEE7E1
S1132B80F5E083E194E1968785878DE194E192876E
S1132B90818783E494E19487838783E395E1909329
S1132BA0A8058093A7056091DE0480E00E94C30914
S1132BB06091DF0481E00E94C309089510925004DB
S1132BC00E9467070E94A0130E946A0C0E94E006FC
S1132BD00E946F121092DD041092DC0460E082E027
S1132BE00E94F5098091DC049091DD048E7F90931E
S1132BF0DD048093DC0408950E9400158091DC04B8
S1132C0080FF03C00E94DE1502C00E9475158091EA
S1132C10DC049091DD0490629093DD048093DC04E5
S1132C2008954091FE055091FF0560910006709152
S1132C3001068091480490914904A0914A04B091FE
S1132C404B0484179507A607B70708F09CC080912A
S1132C50DC0485FF1DC06091DF046336C8F46F5F38
S1132C606093DF0481E00E94C309809154048F5F64
S1132C70809354048F3060F08091DC049091DD04E3
S1132C808F7D80649093DD048093DC04109254045F
S1132C908091DC049091DD0491FF1DC06091DF04FC
S1132CA06623C9F061506093DF0481E00E94C30988
S1132CB0809153048F5F809353048F3060F0809130
S1132CC0DC049091DD049D7F94609093DD048093F7
S1132CD0DC04109253048091DC0487FF1DC06091D2
S1132CE0DE046336C8F46F5F6093DE0480E00E9404
S1132CF0C309809152048F5F809352048F3060F037
S1132D008091DC049091DD048F7791609093DD04D1
S1132D108093DC04109252048091DC049091DD04D1
S1132D2093FF1DC06091DE046B30C8F06150609366
S1132D30DE0480E00E94C309809151048F5F809378
S1132D4051048F3060F08091DC049091DD04977F12
S1132D5090619093DD048093DC041092510480917F
S1132D60480490914904A0914A04B0914B04805BBB
S1132D709F4FAF4FBF4F8093480490934904A09353
S1132D804A04B0934B0408954091FE055091FF0509
S1132D90609100067091010680914C0490914D045D
S1132DA0A0914E04B0914F0484179507A607B70766
S1132DB008F051C06091DF04633650F48091DC0464
S1132DC086FF06C06F5F6093DF0481E00E94C30941
S1132DD06091DF046B3060F08091DC049091DD043D
S1132DE092FF06C061506093DF0481E00E94C30932
S1132DF06091DE04633660F48091DC049091DD041C
S1132E0090FF06C06F5F6093DE0480E00E94C309F8
S1132E106091DE046B3060F08091DC049091DD04FD
S1132E2094FF06C061506093DE0480E00E94C309F1
S1132E3080914C0490914D04A0914E04B0914F04A4
S1132E404E96A11DB11D80934C0490934D04A09304
S1132E504E04B0934F0408950E94A01308951F9246
S1132E600F920FB60F9211242F933F934F935F93BA
S1132E706F937F938F939F93AF93BF93EF93FF933E
S1132E80ECEFF5E080819181C2969183808380810B
S1132E909181883E934088F082819381A481B58199
S1132EA00196A11DB11D82839383A483B583808180
S1132EB09181885E93409183808385E594E00E94AC
S1132EC05309FF91EF91BF91AF919F918F917F91A2
S1132ED06F915F914F913F912F910F900FBE0F9083
S1132EE01F90189593B7986093BF6CBF823099F088
S1132EF028F4882341F0813051F019C0833079F0EF
S1132F00843089F014C083B7816083BF13C083B752
S1132F10826083BF0FC083B7836083BF0BC083B756
S1132F20846083BF07C083B7856083BF03C083B752
S1132F30816083BF89B7826089BF089523E0FC0163
S1132F402483108211821282138208950F931F9397
S1132F5021E0FC0124830091FE051091FF052091DE
S1132F60000630910106400F511F621F731F4083FA
S1132F705183628373831F910F91089521E030E0A0
S1132F80FC018481813011F020E030E0C901089512
S1132F90FC0184818130B1F48091FE059091FF059C
S1132FA0A0910006B0910106408151816281738134
S1132FB0481759076A077B0740F482E0848381E05D
S1132FC090E008958FEF9FEF089580E090E00895DA
S1132FD021E030E0FC018481833011F020E030E016
S1132FE0C9010895CF92DF92EF92FF920F931F933E
S1132FF0CF93DF93EC016A017B018C81811106C0C0
S113300083E08C83188219821A821B82CE010E946B
S1133010C8178C01019731F4B701A601CE010E94B3
S1133020A6170DC08C81833041F4B701A601CE01EF
S11330300E94A61700E010E002C000E010E0C80102
S1133040DF91CF911F910F91FF90EF90DF90CF9080
S113305008951F920F920FB60F9211242F933F934E
S11330604F935F938F939F93EF93FF932BB13CB157
S113307028718091590490E001964091580450E0E1
S11330808417950739F080935904FC01E45AFB4FE7
S1133090308301C022E020935704FF91EF919F9168
S11330A08F915F914F913F912F910F900FBE0F9091
S11330B01F9018951F920F920FB60F9211248F93A1
S11330C09F93EF93FF9390915B0480915A04981718
S11330D071F080915A0490E001968F77992780933C
S11330E05A04FC01E45AFB4F80818CB901C0559805
S11330F0FF91EF919F918F910F900FBE0F901F90B2
S11331001895F89410925B0410925A041092590482
S113311010925804789499231CF422E02BB99F77D9
S113312090BD89B988E98AB986E880BD089540913F
S11331305B0450E04F5F5F4F4F77552720915A044F
S113314030E042175307D1F3FA01E45AFB4F80836E
S113315040935B04559A0895CF93DF93EC018881E3
S1133160882331F021960E94971889918111FBCF11
S1133170DF91CF9108955058BB27AA270E94D318F6
S11331800C94481A0E943A1A38F00E94411A20F00E
S113319039F49F3F19F426F40C94371A0EF4E09591
S11331A0E7FB0C94311AE92F0E94591A58F3BA1705
S11331B0620773078407950720F079F4A6F50C9449
S11331C07B1A0EF4E0950B2EBA2FA02D0B01B9013A
S11331D090010C01CA01A0011124FF27591B99F089
S11331E0593F50F4503E68F11A16F040A22F232F95
S11331F0342F4427585FF3CF469537952795A795E5
S1133200F0405395C9F77EF41F16BA0B620B730B8B
S1133210840BBAF09150A1F0FF0FBB1F661F771FFC
S1133220881FC2F70EC0BA0F621F731F841F48F4B1
S1133230879577956795B795F7959E3F08F0B0CF3A
S11332409395880F08F09927EE0F97958795089521
S11332500E943C190C94481A0E94411A58F00E948A
S11332603A1A40F029F45F3F29F00C94311A5111B5
S11332700C947C1A0C94371A0E94591A68F39923F7
S1133280B1F3552391F3951B550BBB27AA2762175E
S11332907307840738F09F5F5F4F220F331F441F6B
S11332A0AA1FA9F335D00E2E3AF0E0E832D091509F
S11332B05040E695001CCAF72BD0FE2F29D0660F8C
S11332C0771F881FBB1F261737074807AB07B0E8CF
S11332D009F0BB0B802DBF01FF2793585F4F3AF0D5
S11332E09E3F510578F00C94311A0C947C1A5F3F80
S11332F0E4F3983ED4F3869577956795B795F7955B
S11333009F5FC9F7880F911D9695879597F9089542
S1133310E1E0660F771F881FBB1F621773078407DE
S1133320BA0720F0621B730B840BBA0BEE1F88F7ED
S1133330E09508950E94A1196894B1110C947C1A27
S113334008950E94611A88F09F5798F0B92F992721
S1133350B751B0F0E1F0660F771F881F991F1AF07C
S1133360BA95C9F714C0B13091F00E947B1AB1E04C
S113337008950C947B1A672F782F8827B85F39F04B
S1133380B93FCCF3869577956795B395D9F73EF415
S113339090958095709561957F4F8F4F9F4F0895BD
S11333A0E89409C097FB3EF49095809570956195DB
S11333B07F4F8F4F9F4F9923A9F0F92F96E9BB2791
S11333C09395F695879577956795B795F111F8CF0D
S11333D0FAF4BB0F11F460FF1BC06F5F7F4F8F4F78
S11333E09F4F16C0882311F096E911C0772321F06E
S11333F09EE8872F762F05C0662371F096E8862F06
S113340070E060E02AF09A95660F771F881FDAF75C
S1133410880F9695879597F90895990F0008550F89
S1133420AA0BE0E8FEEF16161706E807F907C0F046
S113343012161306E407F50798F0621B730B840B4E
S1133440950B39F40A2661F0232B242B252B21F428
S113345008950A2609F4A140A6958FEF811D811DC8
S1133460089597F99F6780E870E060E008959FEF02
S113347080EC089500240A94161617061806090607
S1133480089500240A9412161306140605060895D6
S1133490092E0394000C11F4882352F0BB0F40F45E
S11334A0BF2B11F460FF04C06F5F7F4F8F4F9F4F9E
S11334B0089557FD9058440F551F59F05F3F71F020
S11334C04795880F97FB991F61F09F3F79F0879587
S11334D00895121613061406551FF2CF4695F1DF10
S11334E008C0161617061806991FF1CF86957105A0
S11334F0610508940895E894BB2766277727CB01D4
S113350097F908950E940D1A08F48FEF08950E9408
S11335109A1A0C94481A0E943A1A38F00E94411AD6
S113352020F0952311F00C94311A0C94371A1124BD
S11335300C947C1A0E94591A70F3959FC1F3950F4D
S113354050E0551F629FF001729FBB27F00DB11D23
S1133550639FAA27F00DB11DAA1F649F6627B00DB3
S1133560A11D661F829F2227B00DA11D621F739F9C
S1133570B00DA11D621F839FA00D611D221F749FAA
S11335803327A00D611D231F849F600D211D822FF1
S1133590762F6A2F11249F5750409AF0F1F0882318
S11335A04AF0EE0FFF1FBB1F661F771F881F915045
S11335B05040A9F79E3F510580F00C94311A0C94A9
S11335C07C1A5F3FE4F3983ED4F38695779567952C
S11335D0B795F795E7959F5FC1F7FE2B880F911D6F
S11335E09695879597F90895FA01EE0FFF1F309687
S11335F021053105A1F16115710561F48038BFE33E
S11336009B0749F168949038810561F08038BFEFD9
S11336109B0741F099234AF5FF3FE1053105210558
S113362019F1E8940894E795D901AA2329F4AB2F5A
S1133630BE2FF85FD0F310C0FF5F70F4A695E0F7DB
S1133640F73950F019F0FF3A38F49F779F930DD073
S11336500F9007FC9058089546F00C94371A60E0D8
S113366070E080E89FE308954FE79F775F934F935F
S11336703F932F930E94EF1B2F913F914F915F91A6
S11336800E94871A0C944C1B29F416F00C94311ADE
S11336900C947B1A0C94371A0E94611AA8F396387A
S11336A0A0F707F80F92E8942BE33AEA48EB5FE7B8
S11336B00E949D1A0F920F920F924DB75EB70F9210
S11336C00E94371CE2E5F2E00E947E1B4F915F915D
S11336D0EF91FF91E595EE1FFF1F49F0FE57E0685B
S11336E04427EE0F441FFA95E1F74195550B0E94CC
S11336F0B11B0F9007FE0C94A51B0895DF93CF9385
S11337001F930F93FF92EF92DF927B018C016894D9
S113371006C0DA2EEF010E949A1AFE01E894A591E0
S11337202591359145915591A6F3EF010E94D31847
S1133730FE019701A801DA9469F7DF90EF90FF90FA
S11337400F911F91CF91DF9108959B01AC0160E02F
S113375070E080E89FE30C9428190C94311A0C94BF
S11337606B1C0E94611AD8F39923C9F3940F511D5D
S1133770A3F39150504094F059F0882332F0660F2F
S1133780771F881F91505040C1F79E3F51052CF779
S1133790880F911D9695879597F908955F3FACF032
S11337A0983E9CF0BB27869577956795B79508F466
S11337B0B1609395C1F7BB0F58F711F460FFE8CFE0
S11337C06F5F7F4F8F4F9F4FE3CF0C947C1A16F09F
S11337D00C946B1C0C94371A68940C94311A0E9444
S11337E0611AA8F39923C1F3AEF3DF93CF931F9328
S11337F00F93FF92C92FDD2788232AF02197660FA4
S1133800771F881FDAF720E030E040E85FEB9FE3A2
S1133810883920F0803E38F021968F770E94BC18BA
S1133820EAE7F2E004C00E94BC18E7EAF2E00E9472
S11338307E1B8B01BE01EC01FB2E6F577109759540
S1133840771F880B990B0E94D21928E132E741E3D4
S11338505FE30E949A1AAF2D9801AE01FF900F9179
S11338601F91CF91DF910E94D3180C94481AFA014A
S1133870DC01AA0FBB1F9B01AC01BF5728F4222710
S113388033274427507820C0B75190F4AB2F00243D
S1133890469537952795011CA395D2F3002071F026
S11338A0220F331F441FB395DAF30ED00C94BB18C8
S11338B061307105A0E88A07B94630F49B01AC0178
S11338C06627772788279078309621F020833183E4
S11338D04283538308959F3F31F0915020F487959C
S11338E077956795B795880F911D9695879597F964
S11338F00895A0E1B0E0EFE7FCE10C9441207C01E5
S11339001B016A01FC0117821682838181FF44C373
S11339109E012F5F3F4F3901F7019381F10193FD20
S1133920859193FF81911F01882309F431C3853266
S113393039F493FD859193FF81911F01853239F408
S1133940B70190E00E94872156016501E5CF10E0A0
S1133950512C912CFFE1F915D8F08B3279F038F421
S1133960803279F08332A1F4F92DF0612EC08D32CA
S113397061F0803369F4292D21602DC0392D326026
S1133980932E892D8460982E2AC0E92DE86015C0F5
S113399097FC2DC020ED280F2A3088F496FE06C02F
S11339A03AE0139F200D1124122F19C08AE0589E6B
S11339B0200D1124522EE92DE0629E2E10C08E326D
S11339C031F496FCE5C2F92DF0649F2E08C08C36C4
S11339D021F4292D2068922E02C0883641F4F10189
S11339E093FD859193FF81911F018111B3CF9BEBCF
S11339F0980F933020F4992D9061805E07C09BE965
S1133A00980F933008F066C1992D9F7E96FF16E0BB
S1133A109F73992E853619F49064992E08C08636C2
S1133A2021F4392F3068932E02C01111115097FEE2
S1133A3007C01C3350F444244394410E27E00BC0C8
S1133A40183038F027E017E005C027E09CE3492E42
S1133A5002C0212F412C560184E0A80EB11CF601AE
S1133A606081718182819381042DA3010E948C2045
S1133A706C01F981FC87F0FF02C0F3FF06C091FCE2
S1133A8006C092FE06C000E205C00DE203C00BE2D0
S1133A9001C000E08C858C7019F001115AC29BC2E0
S1133AA097FE10C04C0CFC85F4FF04C08A8181335E
S1133AB009F44A94141474F528E0241578F588E080
S1133AC0482E2CC096FC2AC0812F90E08C159D05B1
S1133AD09CF03CEFC3163FEFD30674F0892D806849
S1133AE0982E0AC0E2E0F0E0EC0FFD1FE10FF11D9B
S1133AF08081803319F411501111F4CF97FE0EC058
S1133B0044244394410E812F90E0C816D9062CF426
S1133B101C1904C04424439401C010E097FE06C05D
S1133B201C141D0434F4C601019605C085E090E020
S1133B3002C081E090E001110196112331F0212FA0
S1133B4030E02F5F3F4F820F931F252D30E0821707
S1133B50930714F4581A01C0512C892D897049F423
S1133B60552039F0B70180E290E00E9487215A94F1
S1133B70F7CF002329F0B701802F90E00E9487211E
S1133B8093FC09C0552039F0B70180E390E00E940E
S1133B9087215A94F7CF97FE4CC04601D7FE02C046
S1133BA0812C912CC60188199909F301E80FF91F9A
S1133BB0FE87ED87960124193109388B2F87012F51
S1133BC010E01195019511093FEF8316930629F42E
S1133BD0B7018EE290E00E948721C814D9044CF00A
S1133BE08F8598898815990524F4ED85FE85818152
S1133BF001C080E3F1E08F1A91082D853E852F5F87
S1133C003F4F3E872D87801691062CF0B70190E038
S1133C100E948721D9CFC814D90441F49A819633DC
S1133C2020F4953319F43C8534FF81E3B70190E027
S1133C304EC08A81813319F09C859F7E9C87B70191
S1133C4090E00E948721111105C094FC18C085E6FC
S1133C5090E017C0B7018EE290E00E9487211E5FBA
S1133C6082E001E0080FF301E80FF11D8081B70144
S1133C7090E00E948721802F0113F3CFE6CF85E4E3
S1133C8090E0B7010E948721D7FC06C0C114D1047B
S1133C9041F4EC85E4FF05C0D194C194D1088DE2D0
S1133CA001C08BE2B70190E00E94872180E32AE003
S1133CB0C216D1042CF08F5FFAE0CF1AD108F7CFE7
S1133CC0B70190E00E948721B701C601C0960E9407
S1133CD0872154C1833631F0833779F0833509F075
S1133CE056C020C0560132E0A30EB11CF6018081FB
S1133CF0898301E010E0630112C05601F2E0AF0EC7
S1133D00B11CF601C080D18096FE03C0612F70E023
S1133D1002C06FEF7FEFC6010E947C218C01F92D58
S1133D20FF7714C0560122E0A20EB11CF601C08038
S1133D30D18096FE03C0612F70E002C06FEF7FEF69
S1133D40C6010E9464218C01F92DF0689F2EF3FDB9
S1133D501AC0852D90E008171907A8F4B70180E26E
S1133D6090E00E9487215A94F4CFF60197FC859144
S1133D7097FE81916F01B70190E00E948721511055
S1133D805A94015011090115110579F7F7C08436C9
S1133D9011F0893661F5560197FE09C024E0A20EA0
S1133DA0B11CF60160817181828193810AC0F2E0C5
S1133DB0AF0EB11CF60160817181072E000C880BD7
S1133DC0990BF92DFF769F2E97FF09C0909580954A
S1133DD0709561957F4F8F4F9F4FF0689F2E2AE01B
S1133DE030E0A3010E94DF21C82EC6183FC0092D70
S1133DF0853721F40F7E2AE030E01DC0097F8F361D
S1133E0091F018F4883559F0C3C0803719F0883719
S1133E1011F0BEC0006104FF09C0046007C094FE35
S1133E2008C0066006C028E030E005C020E130E0AC
S1133E3002C020E132E0560107FF09C084E0A80E69
S1133E40B11CF601608171818281938108C0F2E026
S1133E50AF0EB11CF6016081718180E090E0A30196
S1133E600E94DF21C82EC6180F77902E96FE0BC035
S1133E70092D0E7FC11650F494FE0AC092FC08C0AE
S1133E80092D0E7E05C0DC2C092D03C0DC2C01C0DD
S1133E90D12E04FF0DC0FE01EC0DF11D8081803395
S1133EA011F4097E09C002FF06C0D394D39404C060
S1133EB0802F867809F0D39403FD11C000FF06C05B
S1133EC01C2DD51480F4150D1D190DC0D51458F4EE
S1133ED0B70180E290E00E948721D394F7CFD514F4
S1133EE010F45D1801C0512C04FF10C0B70180E329
S1133EF090E00E94872102FF17C001FD03C088E7FC
S1133F0090E002C088E590E0B7010CC0802F86786D
S1133F1059F001FF02C08BE201C080E207FD8DE28F
S1133F20B70190E00E948721C11638F4B70180E3FD
S1133F3090E00E9487211150F7CFCA94F301EC0D51
S1133F40F11D8081B70190E00E948721C110F5CF57
S1133F5015C0F4E0F51560F584E0581A93FE1FC00F
S1133F60011127C02C8523FF2AC004ED12E0392D4E
S1133F703071932EF8018491811124C0552009F4E5
S1133F80E4CCB70180E290E00E9487215A94F6CFF6
S1133F90F7018681978126C08FEF9FEF23C0B70179
S1133FA080E290E00E9487215A945110F8CFD8CF34
S1133FB0512CB701802F90E00E948721D3CF08EDC8
S1133FC012E0D5CF91108052B70190E00E94872172
S1133FD00F5F1F4FCFCF23E0251510F483E0BDCF33
S1133FE0512CC0CF6096E2E10C945D2097FB072E24
S1133FF016F4009407D077FD09D00E94782007FCBE
S113400005D03EF4909581959F4F089570956195E4
S11340107F4F0895A1E21A2EAA1BBB1BFD010DC000
S1134020AA1FBB1FEE1FFF1FA217B307E407F50764
S113403020F0A21BB30BE40BF50B661F771F881F40
S1134040991F1A9469F760957095809590959B01D6
S1134050AC01BD01CF010895EE0FFF1F0590F4914F
S1134060E02D0994A29FB001B39FC001A39F700DDE
S1134070811D1124911DB29F700D811D1124911D6C
S113408008952F923F924F925F926F927F928F92F8
S11340909F92AF92BF92CF92DF92EF92FF920F93D3
S11340A01F93CF93DF93CDB7DEB7CA1BDB0B0FB6DD
S11340B0F894DEBF0FBECDBF09942A88398848889A
S11340C05F846E847D848C849B84AA84B984C88430
S11340D0DF80EE80FD800C811B81AA81B981CE0F27
S11340E0D11D0FB6F894DEBF0FBECDBFED0108950C
S11340F0AA1BBB1B51E107C0AA1FBB1FA617B7070A
S113410010F0A61BB70B881F991F5A95A9F7809525
S11341109095BC01CD010895283008F027E033279D
S1134120DA01990F311D87FD9160009661057105D3
S113413039F432602E5F3D9330E32A95E1F7089518
S11341409F3F30F080387105610509F03C5F3C5FAA
S11341503D93913008F08068911DDF93CF931F93B6
S11341600F93FF92EF92192F987F9695E92F9695CA
S11341709695E90FFF27EA5CFC4F99273327EE2435
S1134180FF24A701E70105900894079428F4360F4B
S1134190E71EF81E491F511D660F771F881F991FC0
S11341A00694A1F70590079428F4E70EF81E491F1A
S11341B0561FC11D770F881F991F661F0694A1F70C
S11341C00590079428F4F80E491F561FC71FD11DE8
S11341D0880F991F661F771F0694A1F7059007940F
S11341E020F4490F561FC71FD81F990F661F771F4A
S11341F0881F0694A9F784911095177041F0D695FD
S1134200C79557954795F794E7941A95C1F7ECED40
S1134210F2E068941590159135916591959105900A
S11342207FE27395E118F10A430B560BC90BD009D1
S1134230C0F7E10CF11E431F561FC91FD01D7EF4A9
S1134240703311F48A95E6CFE894015030F0080FEA
S11342500AF40027021708F4202F2395022F7A333B
S113426028F079E37D932A95E9F710C07D932A9588
S113427089F6069497956795379517951794E118DD
S1134280F10A430B560BC90BD00998F023957E9184
S113429073957A3308F070E37C932013B8F77E911A
S11342A070617D9330F0839571E37D9370E32A957B
S11342B0E1F71124EF90FF900F911F91CF91DF91BF
S11342C0992787FD90950895FC01059061507040F1
S11342D00110D8F7809590958E0F9F1F0895FB01CC
S11342E0DC0104C08D910190801921F441505040AB
S11342F0C8F7881B990B0895FC0161507040019028
S11343000110D8F7809590958E0F9F1F08950F93F5
S11343101F93CF93DF93FB01238121FD03C08FEF14
S11343209FEF2CC022FF16C046815781248135811E
S11343304217530744F4A081B1819D012F5F3F4F81
S1134340318320838C93268137812F5F3F4F3783BE
S1134350268314C08B01EC01FB010084F185E02D60
S11343600995892BE1F6D80116968D919C911797A2
S1134370019617969C938E931697CE01DF91CF9159
S11343801F910F910895AEE0B0E0E9ECF1E20C94D6
S11343904F208C0186E08C831A8309838FEF9FE77B
S11343A09E838D83CE0101960E94791CEF81F8854E
S11343B0E00FF11F10822E96E4E00C946B20FA01BA
S11343C0AA27283051F1203181F1E8946F936E7F50
S11343D06E5F7F4F8F4F9F4FAF4FB1E03ED0B4E041
S11343E03CD0670F781F891F9A1FA11D680F791F82
S11343F08A1F911DA11D6A0F711D811D911DA11D93
S113440020D009F468943F912AE0269F11243019A2
S1134410305D3193DEF6CF010895462F4770405D3D
S11344204193B3E00FD0C9F7F6CF462F4F70405DEC
S11344304A3318F0495D31FD4052419302D0A9F747
S1134440EACFB4E0A6959795879577956795BA9541
S1134450C9F700976105710508959B01AC010A2E07
S113446006945795479537952795BA95C9F7620FDE
S1114470731F841F951FA01D0895F894FFCF9D
S113447E8D0560056F054D053E057E059C05AB0556
S113448E20052F050100010063326332FFFEF92F70
S113449E2D2D2D2D2D2D2D2D2D2D2D53544152548D
S11344AE2053595354454D2D2D2D2D2D2D2D2D2D60
S11344BE2D2D2D2F0A00636F6E663A2025640A0097
S11344CE6D656E7520616674657220636865636BD5
S11344DE2025642025642025642025640A0D00709F
S11344EE6173732025640A00636C6561725F706189
S11344FE7373776F72640A00656E7465725F746F9E
S113450E5F6D656E750A006D656E755F72656164CB
S113451E2025642025642025642025640A0D0001CD
S113452E000204030564636D6F746F7220696E6913
S113453E740A0064636D6F746F722073746F700A03
S113454E0064636D6F746F72206572726F720A000D
S113455E4552524F52205354415455533A204552CA
S113456E525F4D5F574149540A0D00636F756E7467
S113457E5F6D6F746F725F74696D656F75745F775D
S113458E6169743A2025640A0D00636F756E745F59
S113459E6D6F746F725F74696D656F75745F61783A
S11345AE656C65726174653A2025640A0D00455286
S11345BE524F52205354415455533A204552525F50
S11345CE4D5F4158454C45524154450A0D004552E4
S11345DE524F52205354415455533A204552525F30
S11345EE4D5F4552524F520A0D004552524F5220C2
S11345FE5354415455533A20676F20746F206C61A5
S113460E7374206265666F726520776169740A0D32
S113461E004552524F52205354415455533A20455B
S113462E52525F4D5F455849540A0D004552524F40
S113463E52205354415455533A204552525F4D5FC4
S113464E4F4B0A0D00736572766F5F6572726F72EF
S113465E5F76616C75653A2025640A004552524FA7
S113466E52205354415455533A204552525F535F8E
S113467E574149540A0D004552524F52205354414A
S113468E5455533A204552525F535F5452590A0DB2
S113469E004552524F52205354415455533A2045DB
S11346AE52525F535F4F4B0A0D004144435F6E6F8E
S11346BE742066696C74657265643A20616363750F
S11346CE6D2025642C20736572766F2025642C2052
S11346DE6D6F746F722025642C2063616C69627235
S11346EE6174696F6E2025640A004D45415355521D
S11346FE4520534552564F2043616C696272617472
S113470E696F6E2076616C7565203D2025640A0004
S113471E534552564F3A20696E69740A00534552F6
S113472E564F5F44454C415945445F4F50454E20CA
S113473E25640A00534552564F5F434C4F5345442C
S113474E2025640A00534552564F5F4F5050454E34
S113475E45442025640A00534552564F5F5452591E
S113476E2025640A00534552564F3A205A65726FFB
S10D477E2074727920636E740A003F
S9030000FC
