S01600006E6F77795F737465726F776E696B2E73726563FC
S11300000C94AA010C94C7010C94C7010C94C70169
S11300100C94C7010C94C7010C94C7010C94C7013C
S11300200C94C7010C94C7010C946A160C94C70174
S11300300C94C7010C9464170C9495170C94C70185
S11300400C94C7010C94C7010C94C7010C94C7010C
S11300500C94C701100817081A08200826082B0852
S1130060310838083C084408930893089308930817
S113007093089308930893089308930893089308A4
S11300809308930893089308930893089308930894
S11300909308930893089308930893089308930884
S11300A09308930893089308930893089308930874
S11300B09308930893089308930893089308930864
S11300C09308930893089308930893089308930854
S11300D09308930893089308930893089308930844
S11300E09308930893089308930893089308930834
S11300F09308930893089308930893089308930824
S11301009308930893089308930893089308930813
S11301109308930893084B08520858085D0863082D
S1130120690893089308930893089308820893082E
S113013093087108760893086E087C08930893085E
S113014093089308930893089308930893089308D3
S113015093089308930893089308930893089308C3
S113016093089308930893089308930893089308B3
S113017093089308930893089308930893089308A3
S11301809308930893089308930893089308930893
S11301909308930893089308930893089308930883
S11301A09308930893089308930893089308930873
S11301B09308930893089308930893089308930863
S11301C09308930893089308930893089308930853
S11301D09308930893089308930893089308930843
S11301E09308930893089308930893089308930833
S11301F09308930893089308930893089308930823
S11302009308930893089308930893089308930812
S11302109308930893089308930893089308930802
S113022093089308930893089308930893089308F2
S113023093089308930893089308930893089308E2
S1130240930893088608920890088E088C088A08F8
S113025088086E616E00696E660000407A10F35A79
S113026000A0724E18090010A5D4E80000E87648F2
S1130270170000E40B54020000CA9A3B000000E19E
S1130280F505000080969800000040420F00000031
S1130290A08601000000102700000000E803000011
S11302A000006400000000000A00000000000100DB
S11302B0000000002C76D888DC674F0823DFC1DFFC
S11302C0AE59E1B1B796E5E3E453C63AE6519976FF
S11302D096E8E6C28426EB898C9B62ED407C6FFC39
S11302E0EFBC9C9F40F2BAA56FA5F490055A2AF77B
S11302F05C936B6CF9676DC11BFCE0E40D47FEF584
S113030020E6B500D0ED902E0300943577050080EB
S1130310841E080000204E0A000000C80C3333334A
S1130320330F986E12831141EF8D2114893BE655EA
S113033016CFFEE6DB18D1844B381BF77C1D901DCD
S1130340A4BBE424203284725E228100C9F124EC2F
S1130350A1E53D2711241FBECFE5D8E0DEBFCDBF08
S113036012E0A0E6B0E0ECE8FFE302C005900D92D5
S1130370A63BB107D9F725E0A6EBB2E001C01D9278
S1130380AE33B207E1F70E94FA010C94C41F0C9437
S11303900000CF93DF93CDB7DEB7AE014B5F5F4F65
S11303A0FA0161917191AF0185E294E00E944A1FC4
S11303B085E294E00E94E717DF91CF9108958C9A2B
S11303C08E9ABD9A899A08950E94850662E381E017
S11303D00E94AD160E94C7070E94890488E090E03D
S11303E00E94BC170E9492140E94890F80B78B7FD1
S11303F080BF08950E94DF0178940E94E40187E79A
S113040090E09F938F930E94C9010F900F900E94D8
S1130410AE090E940A0B0E94DF030E944C150E9441
S1130420FF15809123040E944B07809124040E94AD
S113043018120E941A060E94DD0B0E944B0F0E94A4
S1130440A70F0E9444020E948D020E94A004DFCFE5
S113045083E00E947110BC01660F771F660F771F3F
S1130460860F971FBC0180E090E00E94101926E6D9
S113047036E646EB50E40E94C21920E030E040E842
S11304805AE30E94C219089540913A0550913B05E0
S113049060913C0570913D058091BB029091BC0236
S11304A0A091BD02B091BE0284179507A607B707B5
S11304B098F583E00E947110893522E0920718F0C4
S11304C021E02093BF028B3821E0920718F422E048
S11304D02093BF028E3521E0920718F423E0209385
S11304E0BF028C5891408C3C910510F41092BF02CD
S11304F080913A0590913B05A0913C05B0913D0552
S11305008C599F4FAF4FBF4F8093BB029093BC0257
S1130510A093BD02B093BE02089540913A05509154
S11305203B0560913C0570913D058091B702909127
S1130530B802A091B902B091BA0284179507A60730
S1130540B70708F086C08091BF028130E9F030F02F
S1130550823099F1833009F467C00895C598809179
S1130560B7029091B802A091B902B091BA0288532F
S11305709F4FAF4FBF4F8093B7029093B802A093A1
S1130580B902B093BA02089598B380E2892788BB70
S11305908091B7029091B802A091B902B091BA02C9
S11305A086509F4FAF4FBF4F8093B7029093B802CE
S11305B0A093B902B093BA0208958091B602811152
S11305C019C081E08093B602C59A8091B7029091D8
S11305D0B802A091B902B091BA028C509E4FAF4FAD
S11305E0BF4F8093B7029093B802A093B902B0931F
S11305F0BA020895813069F51092B602C5988091C7
S1130600B7029091B802A091B902B091BA02845293
S11306109A4FAF4FBF4F8093B7029093B802A09305
S1130620B902B093BA020895C59A8091B702909125
S1130630B802A091B902B091BA0288519C4FAF4F51
S1130640BF4F8093B7029093B802A093B902B093BE
S1130650BA020895379897B1987F8770892B87B924
S1130660379A0895369A3699FECF84B195B1089594
S11306700E942A030E9432030895DC011696ED912C
S1130680FC911797208130E0F90118960C9002C074
S1130690F595E7950A94E2F7CF0181700895E2EDAC
S11306A0F4E0148281E08583148613861286118611
S11306B01686158626E330E03783268392E09087FA
S11306C0E5EAF4E014828583148613861286118683
S11306D016861586378326838087E4EBF4E014823C
S11306E085831486138612861186168615863783AB
S11306F0268396E09087E2E9F4E0148285831486E9
S11307001386128611861686158640E350E05783B9
S1130710468393E09087E3E8F4E0148285831486AB
S1130720138612861186168615863783268390874C
S1130730E3ECF4E014828583148613861286118612
S11307401686158669E370E077836683A4E0A08744
S1130750E1EEF4E0148285831486138612861186F2
S11307601686158643E350E0578346838087E0EF7F
S1130770F4E0148285831486138612861186168605
S1130780158637832683A087E5E6F4E01482858303
S113079014861386128611861686158677836683D9
S11307A09087E4E7F4E01482858314861386128626
S11307B01186168615865783468310860895DF9220
S11307C0EF92FF920F931F93CF93DF9340913A05DB
S11307D050913B0560913C0570913D058091A104C9
S11307E09091A204A091A304B091A4048417950746
S11307F0A607B70708F085C080913A0590913B059C
S1130800A0913C05B0913D054496A11DB11D809376
S1130810A1049093A204A093A304B093A404C0E6FB
S1130820D0E00F2EF4E7EF2EF0E0FF2EF02DDD24C4
S1130830D3948E01888199810E943D03E881F981D6
S113084095818917E1F08583813061F488819981EC
S1130850DC011996ED91FC911A97309709F441C087
S113086009953FC081113DC088819981DC011B96A7
S1130870ED91FC911C97309721F0099502C08111EC
S113088030C0D801ED91FC9180819181A281B38126
S11308900196A11DB11D80839183A283B383D801E6
S11308A0ED91FC9180819181A281B3818897A1050A
S11308B0B10510F184818130F9F00584F685E02DCD
S11308C0309719F082ED94E00995D801ED91FC91EF
S11308D011971082118212821382ED91FC91D482BD
S11308E00BC0D801ED91FC911197108211821282F4
S11308F01382ED91FC9114822296CE15DF0509F046
S113090098CFDF91CF911F910F91FF90EF90DF90DF
S113091008950E944F03BA98C29AB998C19ABE9892
S1130920C69A8B98939ABB98C39AD498DC9AA19848
S1130930A99ABC98C49AD398DB9AA098A89A0895C7
S113094040913A0550913B0560913C0570913D05FD
S11309508091C4029091C502A091C602B091C702D1
S113096084179507A607B70708F059C0809121049A
S11309709091220495FF37C08091C0029091C102EA
S1130980A091C202B091C302892B8A2B8B2B59F5FB
S1130990C09A80912104909122049F7D9093220417
S11309A08093210481E090E0A0E0B0E08093C00255
S11309B09093C102A093C202B093C3028091C40277
S11309C09091C502A091C602B091C7028C599F4F65
S11309D0AF4FBF4F8093C4029093C502A093C60249
S11309E0B093C7020895C0981092C0021092C10239
S11309F01092C2021092C3028091C4029091C50267
S1130A00A091C602B091C702C296A11DB11D8093E8
S1130A10C4029093C502A093C602B093C70208957E
S1130A20B89AC09808958091CC028A3041F480919C
S1130A30020581110BC088E08093CC020895809157
S1130A400205811103C01092CC0208958091020521
S1130A50813039F48091FF04823018F08150809302
S1130A60FF0408958091CC02811108C08091020591
S1130A7081110BC089E08093CC0208958091020516
S1130A80811103C01092CC02089580910205813037
S1130A9039F48091FF04833618F48F5F8093FF0448
S1130AA0089580910205813041F4909100059230BF
S1130AB010F19150909300051EC09091CC02973094
S1130AC0A9F481111CC081E0809302051092CC022C
S1130AD080910105813011F4969801C0969A949AF8
S1130AE087E080931605809311050895811107C04E
S1130AF01092CC0208959091CC029730B9F70895E2
S1130B008091CC02883041F48091020581110BC0A0
S1130B1086E08093CC02089580910205811103C080
S1130B201092CC02089580910205813039F48091AD
S1130B300005833618F48F5F809300050895809133
S1130B40CC02863041F48091020581110BC087E00C
S1130B508093CC02089580910205811103C0109204
S1130B60CC02089580910205813071F480910105D1
S1130B70811105C081E08093010596980895813024
S1130B8019F410920105969A089508950895089508
S1130B90CF93DF938091CC02893041F48091020598
S1130BA081110BC08AE08093CC022BC08091020596
S1130BB0811103C01092CC0224C0809102058130BF
S1130BC001F58091FF048436E0F4809100058436B9
S1130BD0C0F4CFEFD4E068818CE090E00E948C0BED
S1130BE069818DE090E00E948C0B6A818EE090E038
S1130BF00E948C0B88E080931605809311059498CD
S1130C009698DF91CF910895CF93DF938CE090E095
S1130C100E94940BCFEFD4E088838DE090E00E9493
S1130C20940B89838EE090E00E94940B8A83DF9179
S1130C30CF91089540913A0550913B0560913C0550
S1130C4070913D058091C8029091C902A091CA0299
S1130C50B091CB0284179507A607B70708F054C0D4
S1130C6080910205813009F04FC0809116058730CC
S1130C7031F46091FF0482E195E00E9410098091B3
S1130C801105873031F4609100058DE095E00E94F4
S1130C90100980911605883049F580911105883036
S1130CA029F580913A0590913B05A0913C05B091BE
S1130CB03D0588519C4FAF4FBF4F8093C80290931E
S1130CC0C902A093CA02B093CB0283E7809325059F
S1130CD081E68093190580E7809317051092230518
S1130CE08AE0809316058093110508958091160576
S1130CF08A3051F4809111058A3031F4109216052E
S1130D001092110510920205089583E195E09093E5
S1130D10DE048093DD0482E395E09093B104809334
S1130D20B00488EC95E09093C0048093BF0481E5FF
S1130D3095E090938F0480938E0480E895E09093DF
S1130D40CF048093CE048FE995E09093ED048093D3
S1130D50EC0485EC95E09093FC048093FB0486EC12
S1130D6095E0909371048093700487EC95E09093E0
S1130D70800480937F040E9404068091FF048436DB
S1130D8010F01092FF0480910005843610F0109248
S1130D90000580910105823010F01092010508953C
S1130DA08EE990E09F938F930E94C90187E095E0BC
S1130DB00E94D91681E080930305949815BC8F9AFC
S1130DC0979A0F900F9008951092030515BC979A67
S1130DD09498089590910305925021E030E0933067
S1130DE010F020E030E0C90108950E94EA0600975F
S1130DF099F08CEA90E09F938F930E94C90115BCEF
S1130E00979A9498E3E0F5E08081818381E0808380
S1130E100F900F9081E090E0089580910305813058
S1130E20D9F4949A85B5806385BD85B5806485BD04
S1130E3085B5816085BDE3E0F5E08081818384E050
S1130E40808348EE53E060E070E087E095E00E9424
S1130E50E11681E090E0089580E090E008958091AB
S1130E60060590E008958AEB90E09F938F930E948B
S1130E70C9010E94F50685E0809303050F900F9049
S1130E8008950E94EA06009729F083E08093030501
S1130E9081E090E00895CF93C82F46E950E060E0E8
S1130EA070E08DEC92E00E942D17892B09F458C054
S1130EB0909103059330E9F028F49130B9F0923021
S1130EC041F04EC0943009F448C0953009F442C052
S1130ED047C0C09306052BEEC29FC001112463E6F0
S1130EE070E00E94AC1D6C5E63BD3AC010920605B2
S1130EF037C0C33378F484E18C0F809306052BEE5E
S1130F00829FC001112463E670E00E94AC1D6C5EF8
S1130F1063BD26C08DEC8C0F843178F48FE08C0F88
S1130F20809306052BEE829FC001112463E670E0D6
S1130F300E94AC1D6C5E63BD13C0C09306052BEE0E
S1130F40C29FC001112463E670E00E94AC1D6C5E78
S1130F5063BD06C015BC979A03C082E08093030565
S1130F60CF910895AE9AAD9ADD9ADF9ADE9AAA9A45
S1130F70AF9A0895929A10921A05C79A109226056C
S1130F80AC9A10921805AB9A109224050895A69A6B
S1130F90A59AD59AD79AD69AA29AA79A8A9AEBE151
S1130FA0F5E089E195E091838083BF9A25E235E0FD
S1130FB033832283A2E1B5E011963C932E931396DA
S1130FC09C938E931297A49A27E135E0358324836A
S1130FD0A39A83E295E097838683EDE0F5E031837D
S1130FE02083938382830E94BA070E94B2070895E4
S1130FF0CF93DF93FC01308120917400321709F400
S113100095C0EC010E94B207E8818E2F90E08F3FDB
S1131010910508F088C0FC01E65DFF4F0C94C01DEB
S1131020AE98AD98DD98DF98DE98AA987CC0AD980C
S1131030DD9879C0AE98AD98AF98DE98DF9873C00C
S1131040AE98AD98AF98DD98DF986DC0AA98AF9828
S1131050AD98DD9868C0AE98AA98AF98DD98DF98EF
S113106062C0AE98AA98AF98DD98DF98DE985BC00E
S1131070AE98AD98DD9857C0AE98AD98DD98DF98DE
S1131080DE98AA98AF984FC0AE98AD98DD98DF98D7
S1131090AA98AF9848C0AE98AD98DD98DE98AA9803
S11310A0AF9841C0DD98DF98DE98AA98AF983BC00E
S11310B0AE98DF98DE98AA9836C0AD98DD98DF9890
S11310C0DE98AF9830C0AE98DF98DE98AA98AF98B3
S11310D02AC0AE98DE98AA98AF9825C0DE98AF983B
S11310E022C0DD98DF98DE98AF981DC0AE98AD9809
S11310F0DE98AA98AF9817C0AE98DD98DF98AA98A2
S1131100AF9811C0DF98DE98AA980DC0AF980BC0B5
S1131110AA9809C0DE9807C0DF9805C0DD9803C00F
S1131120AD9801C0AE98888180937400DF91CF910F
S11311300895CF93DF93EC010E94BA07CE010E9479
S1131140F80785E0C931D80729F4929881E08093A3
S11311501A0519C085E0C532D80729F4C79881E07B
S11311608093260510C085E0C731D80729F4AC98D0
S113117081E08093180507C0C352D54021F4AB9891
S113118081E080932405DF91CF910895EF92FF923F
S11311901F93CF93DF93FC01C081D1812196D1832A
S11311A0C0839E01ADECBCEC0E94C61D969587954C
S11311B096958795969587959C01220F331F880FE6
S11311C0991F880F991F880F991F820F931FC817A3
S11311D0D90701F57F011091D202143058F4E12FA0
S11311E0F0E0EE0FFF1FE55EFA4F808191810E94CF
S11311F0990802C00E94BA071F5F153019F01093B6
S1131200D20202C01092D202C039D14019F4F701BF
S113121011821082DF91CF911F91FF90EF9008957A
S1131220FC016436F8F4611108C0A081B1811C92FC
S11312300280F381E02D10820895A081B1819DEC9C
S1131240699F912D11249695969596959C9302806D
S1131250F381E02D892F880F982F990F990F890F0B
S1131260681B60830895FC0160830895813039F020
S113127018F0823039F008956093EE020895609377
S1131280ED0208956093ED026093EE0208958823C1
S113129019F0813029F008C08091160590E0089576
S11312A08091110590E008958FEF9FEF089580914C
S11312B01605863021F480912705809316058091C8
S11312C01105863021F48091280580931105089535
S11312D08130A1F018F0823009F10895663021F4CC
S11312E0809116058093270580911605863019F4A0
S11312F0609327050895609316050895663021F4D8
S1131300809111058093280580911105863019F488
S1131310609328050895609311050895663041F49B
S113132080911605809327058091110580932805E7
S113133080911605863029F460932805609327056B
S113134008956093160560931105089595E09093B0
S11313501605909311058093E802089580913A054B
S113136090913B05A0913C05B0913D054091D70279
S11313705091D8026091D9027091DA024817590746
S11313806A077B0708F026C180911605833009F4AB
S113139059C030F4882309F487C0813039F18EC0F4
S11313A0853009F474C048F1863009F087C00E9482
S11313B0280220E030E048EC52E40E94C2190E9466
S11313C0DA187093E7026093E6029B01369527953D
S11313D036952795ABE7B4E10E94C61D969587958F
S11313E0682F82E195E00E94100968C06091EE02C6
S11313F082E195E00E94100961C08091110584305A
S113140031F081E0809316058093110557C048514F
S11314105C4F6F4F7F4F4093D7025093D802609335
S1131420D9027093DA0283E78093250581E68093DD
S1131430190580E78093170581E080931605809352
S11314401105089580911105833031F081E0809376
S113145016058093110532C048515C4F6F4F7F4F82
S11314604093D7025093D8026093D9027093DA0262
S11314708CE6809325058FE68093190580E7809399
S1131480170581E0809316058093110517C085E642
S11314908093250582E7809319056091E8028DE029
S11314A095E00E9410090AC068EF89E195E00E9466
S11314B0330968EF85E295E00E94330980911105B4
S11314C0813019F148F1863019F08D3081F16FC007
S11314D04091E6025091E7029A0136952795369598
S11314E02795ABE7B4E10E94C61D9695879564E6FF
S11314F0689F9001699F300D1124BA01621B730B20
S11315008DE095E00E94100952C06091ED028DE0DB
S113151095E00E9410094BC068EF87E195E00E94B6
S1131520330968EF83E295E00E94330940C044EF39
S113153051E060E070E081EE92E00E942D17892B6B
S1131540B1F18091E00281110EC081E08093E0024C
S113155067EF87E195E00E94330967EF83E295E046
S11315600E94330924C01092E0028091DC02909121
S1131570DD02A091DE02B091DF020097A105B10562
S113158029F461E081E00E94680911C00197A10972
S1131590B1098093DC029093DD02A093DE02B09344
S11315A0DF026091DB028DE095E00E9410098091DA
S11315B0D7029091D802A091D902B091DA02C296D2
S11315C0A11DB11D8093D7029093D802A093D90294
S11315D0B093DA0208950F931F9300913A05109186
S11315E03B0520913C0530913D05DC01CB01800F8A
S11315F0911FA21FB31F8093E9029093EA02A09364
S1131600EB02B093EC0262E0842F0E9468091F9100
S11316100F91089580911605823029F0809111056B
S1131620823009F078C040913A0550913B056091B1
S11316303C0570913D058091D3029091D402A09114
S1131640D502B091D60284179507A607B70708F00C
S113165062C080913A0590913B05A0913C05B09100
S11316603D0581559F4FAF4FBF4F8093D302909359
S1131670D402A093D502B093D6028091160582308D
S113168061F46091760089E195E00E9433096091EC
S1131690760085E295E00E9433098091110582303D
S11316A061F46091750087E195E00E9433096091CF
S11316B0750083E295E00E94330940913A05509108
S11316C03B0560913C0570913D058091E902909144
S11316D0EA02A091EB02B091EC0284179507A607E9
S11316E0B70728F461E082E00E946809C5989091E8
S11316F076009F5F9093760080917500815080936F
S113170075009F3F19F499EF90937600883F19F480
S11317108EEF809375000895E199FECF9FBB8EBB39
S11317206DBBE29AE19A0895E199FECF9FBB8EBB0F
S1131730E09A8DB30895CF93C82F8091210490919E
S11317402204826090932204809321048C2F0E94AF
S1131750A6090E9433070E943D110E946716C09398
S11317602905CF9108951092050310920403109255
S113177003031092FD021092FE0286E093E00E94A1
S1131780231788EF92E00E942317109229050895E9
S11317901092050310920403109203031092FD02A9
S11317A01092FE0286E093E00E94231788EF92E0F5
S11317B00E942317109229050895CF92DF92EF9289
S11317C0FF92CF93DF9340913A0550913B0560918E
S11317D03C0570913D058091F4029091F502A09131
S11317E0F602B091F70284179507A607B70708F029
S11317F04BC38091210480FF47C340913A05509127
S11318003B0560913C0570913D054C505E4F6F4F18
S11318107F4F4093F4025093F5026093F602709365
S1131820F70281FD31C30E942F07EC010E942802B8
S11318306B017C0120E030E040E151E40E94631838
S1131840882344F40F2EC12CD12CF0E1EF2EF1E4C7
S1131850FF2EF02DCE010A97059778F520E030E0B1
S113186040E151E4C701B6010E94F6176B017C0107
S1131870BE0180E090E00E9410199B01AC01C701F9
S1131880B6010E94C21920E030E040EC50E40E940E
S113189068186B017C01BE01660F771F6F507109D8
S11318A080E090E00E9410199B01AC01C701B601D1
S11318B00E94F7170E94E11800C1CE010F970A9702
S11318C078F520E030E040E151E4C701B6010E9420
S11318D0F6176B017C01BE0180E090E00E941019B4
S11318E09B01AC01C701B6010E94C21920E030E09F
S11318F040EC50E40E9468186B017C01BE016A5000
S11319007048660F771F80E090E00E9410199B01D9
S1131910AC01C701B6010E94F7170E94E118CDC0BF
S1131920CE0149970F9778F520E030E040E151E48B
S1131930C701B6010E94F6176B017C01BE0180E06D
S113194090E00E9410199B01AC01C701B6010E94EE
S1131950C21920E030E040EC50E40E9468186B01AA
S11319607C01BE01660F771F6951710980E090E028
S11319700E9410199B01AC01C701B6010E94F71720
S11319800E94E1189AC0CE0188970A9778F520E062
S113199030E040E151E4C701B6010E94F6176B0143
S11319A07C01BE0180E090E00E9410199B01AC0113
S11319B0C701B6010E94C21920E030E040EC50E4B7
S11319C00E9468186B017C01BE0165507048660F67
S11319D0771F80E090E00E9410199B01AC01C701C1
S11319E0B6010E94F7170E94E11867C0CE01C297A2
S11319F0449778F520E030E040E151E4C701B601B6
S1131A000E94F6176B017C01BE0180E090E00E9409
S1131A1010199B01AC01C701B6010E94C21920E054
S1131A2030E040EC50E40E9468186B017C01BE0178
S1131A306B5F7F4F660F771F80E090E00E94101964
S1131A409B01AC01C701B6010E94F7170E94E1187F
S1131A5034C0C634D10578F120E030E040E151E4EF
S1131A60C701B6010E94F6176B017C01BE0180E03C
S1131A7090E00E9410199B01AC01C701B6010E94BD
S1131A80C21920E030E040EC50E40E9468186B0179
S1131A907C01BE01665F7F4F660F771F80E090E098
S1131AA00E9410199B01AC01C701B6010E94F717EF
S1131AB00E94E11802C06AE070E06C597F4F709395
S1131AC002036093010380E00E947110EC010E9404
S1131AD028029F938F937F936F93809102038F9338
S1131AE0809101038F93DF93CF9389EC90E09F93D0
S1131AF08F930E94C9018DB79EB70A960FB6F894CA
S1131B009EBF0FBE8DBF80910103909102038C177D
S1131B109D07B0F481E08093030380910503823034
S1131B2009F484C030F48823F1F0813009F448C00A
S1131B30FFC0833009F48DC0843009F48EC0F8C02E
S1131B401092030380910503823009F4C0C020F48D
S1131B50813009F49EC0ECC0833009F4D5C08430D0
S1131B6009F4D6C0E5C081E08093050382EF90E0DC
S1131B709F938F930E94C9010E942F072EE1AC010D
S1131B80249FC001259F900D112448E853E1EA01E8
S1131B90C81BD90BDF93CF938DE091E09F938F9374
S1131BA00E94C901AE0160E070E086E093E00E940B
S1131BB0E1160F900F900F900F900F900F90B8C0F8
S1131BC086E093E00E940317892B09F4B1C00E94B8
S1131BD041070E942F072EE1AC01249FC001259FDD
S1131BE0900D112448E853E1EA01C81BD90BDF9397
S1131BF0CF938CE291E09F938F930E94C901AE0131
S1131C0060E070E086E093E00E94E11682E0809359
S1131C10050380E591E09F938F930E94C9010F9083
S1131C200F900F900F900F900F9082C086E093E07A
S1131C300E940317892B09F47BC083E0809305037A
S1131C4080E791E09F938F930E94C9010F900F90BA
S1131C506FC081E00E949B0B6BC086E093E00E9402
S1131C600317892B09F464C040ED57E060E070E08D
S1131C7086E093E00E94E1168091040380930503BB
S1131C808CE891E09F938F930E94C9010F900F906D
S1131C904FC086E093E00E940317892B09F448C0E3
S1131CA040ED57E060E070E086E093E00E94E116CA
S1131CB084E08093050381E08093040383EB91E047
S1131CC09F938F930E94C9010F900F9031C086E0BB
S1131CD093E00E940317892B59F140ED57E060E02F
S1131CE070E086E093E00E94E11684E080930503AF
S1131CF082E08093040383EB91E09F938F930E948F
S1131D00C9010F900F9014C081E00E949B0B10C07A
S1131D1086E093E00E940317892B51F08EEC91E04A
S1131D209F938F930E94C901109205030F900F9007
S1131D3084E690E0909300038093FF0281E00E9488
S1131D4071102091FF023091000328173907D8F44D
S1131D503F932F9387EE91E09F938F930E94C90145
S1131D6081E08093FD020F900F900F900F9080916F
S1131D70FE02813051F1A8F0823009F44BC0833067
S1131D8009F451C081C01092FD028091FE0282309C
S1131D9009F466C0833009F474C0813009F074C05A
S1131DA046C081E08093FE028EEF91E09F938F9373
S1131DB00E94C90144EF51E060E070E088EF92E0D6
S1131DC00E94E1160F900F905FC088EF92E00E948E
S1131DD00317892B09F458C00E94AA11049724F010
S1131DE083E08093FE0250C04CED55E060E070E06B
S1131DF088EF92E00E94E11682E08093FE020E9446
S1131E009E1189E192E09F938F930E94C9010F90E4
S1131E100F903AC088EF92E00E940317892BA1F13A
S1131E201092FE0231C082E00E949B0B2DC088EF0D
S1131E3092E00E940317892B39F140ED57E060E0EE
S1131E4070E088EF92E00E94E1161092FE0283E3B4
S1131E5092E09F938F930E94C9010F900F9014C03A
S1131E6088EF92E00E940317892B71F01092FE0212
S1131E7083E392E09F938F930E94C9010F900F9088
S1131E8003C082E00E949B0BDF91CF91FF90EF9003
S1131E90DF90CF9008954EE551E060E070E08FEE62
S1131EA092E00E942D17892B09F180912905813038
S1131EB071F492B380E1892782BB809121049091CF
S1131EC02204906290932204809321040895823026
S1131ED069F492B380E4892782BB809121049091B4
S1131EE02204906290932204809321040895FC01BB
S1131EF020813181623058F0329691E041915191C4
S1131F00240F351F369527959F5F6913F7CFC901B5
S1131F100895EBE4F3E023E733E081EF91E081936C
S1131F2091932E173F07D9F7EAE2F3E088E493E0B0
S1131F30119211928E179F07D9F7E2E1F3E086E23E
S1131F4093E0119211928E179F07D9F70895CF92BB
S1131F50DF92EF92FF92CF93DF9340913A05509135
S1131F603B0560913C0570913D0580910B03909178
S1131F700C03A0910D03B0910E0384179507A607D7
S1131F80B70708F0A7C080913A0590913B05A0914E
S1131F903C05B0913D05C296A11DB11D80930B0374
S1131FA090930C03A0930D03B0930E0380E00E9462
S1131FB03803EC01609148037091490380E090E09C
S1131FC00E94101921E73DE34AE85EE30E94C2192A
S1131FD06B017C01BE0180E090E00E9410199B011E
S1131FE0AC01C701B6010E94F7170E94E118709373
S1131FF076036093750320917703E22FF0E0EE0FF0
S1132000FF1FE55BFC4F7183608381E0820F809347
S1132010770382E00E943803909329038093280376
S1132020E0914A03F0E0EE0FFF1FE65DFC4F918361
S1132030808381E00E943803883522E0920728F4E7
S11320401092100310920F0306C08855924090938B
S1132050100380930F03C0911103EC2FF0E0EE0FF7
S1132060FF1FEE5EFC4F80910F039091100391834C
S11320708083D0914A03DF5FD0934A03CF5FC0933C
S1132080110364E18BE493E00E94770F909374034F
S1132090809373036FE08AE293E00E94770F90933A
S11320A04903809348036AE082E193E00E94770F3A
S11320B0909327038093260380917703843111F44E
S11320C010927703CA3011F410921103DF3011F427
S11320D010924A03DF91CF91FF90EF90DF90CF9061
S11320E00895833018F4813040F00CC0833079F4C3
S11320F080917303909174030895809148039091A3
S1132100490308958091260390912703089580E060
S113211090E00895EF92FF920F931F93CF938B015A
S1132120823059F028F4882391F0813019F130C0BD
S1132130833029F1843031F02BC022E030E084E098
S113214090E021C023E030E088E090E01CC0689477
S1132150EE24E1F8F12CC0E0F80161918F018C2F9D
S113216090E00E948C0BCF5F8C2F90E08E159F0522
S11321709CF30EC022E030E082E090E004C022E054
S113218030E086E090E0C82F7901E80EF91EE4CF34
S1132190CF911F910F91FF90EF900895EF92FF92CE
S11321A00F931F93CF938B01823059F028F4882327
S11321B091F0813019F130C0833029F1843031F04D
S11321C02BC022E030E084E090E021C023E030E046
S11321D088E090E01CC06894EE24E1F8F12CC0E0A3
S11321E08C2F90E00E94940BF80181938F01CF5FB4
S11321F08C2F90E08E159F059CF30EC022E030E0FA
S113220082E090E004C022E030E086E090E0C82F55
S11322107901E80EF91EE4CFCF911F910F91FF9041
S1132220EF900895811105C08CE697E09BBD8ABDAF
S11322300895823390F490E022273327281B390B2A
S1132240220F331F220F331F220F331F820F931FBE
S1132250885F984F9BBD8ABD0895843668F490E0EA
S1132260C297880F991F880F991F2AEA35E0A901A0
S1132270481B590B5BBD4ABD089580E00E941211B2
S1132280969885E080932A050895CF93DF932FE1F4
S11322903EE437BD26BD81B3806381BB19BC18BC45
S11322A01BBC1ABC8FB582608FBD8EB588618EBD94
S11322B08FB580688FBD8EB582608EBD3BBD2ABD53
S11322C09698CAE2D5E081E088831B828EE295E08D
S11322D00E94D916198610928C038CE492E09F9385
S11322E08F930E94C9010F900F90DF91CF910895B1
S11322F090912A05925021E030E0923010F020E0D5
S113230030E0C901089590912A059130A1F4EAE2E0
S1132310F5E093E0908383831F928F9389E592E0A5
S11323209F938F930E94C9010F900F900F900F906D
S113233081E090E0089580E090E0089580912A057E
S11323409FEF980F923028F4EAE2F5E0818384E06D
S1132350808308958091330590E008950E94781158
S11323600097C1F080E00E941211EAE2F5E081E0FA
S1132370808313821F921F9280E792E09F938F9332
S11323800E94C90196980F900F900F900F9081E0D2
S113239090E0089520912A05243021F40E94D3115D
S11323A081E090E0089580912B05823029F4809398
S11323B02A050E94AE1109C0813071F4EAE2F5E009
S11323C082E0808383810E94ED1110928C03EAE203
S11323D0F5E081858F5F81870895CF93C82F809121
S11323E02A059FEF980F9330C0F4EAE2F5E082E00B
S11323F08083C3838C2F0E9412111F92CF9381E894
S113240092E09F938F930E94C901969A0F900F9028
S11324100F900F9081E090E009C0843029F40E946D
S1132420D31181E090E002C080E090E0CF91089564
S1132430CF93DF93C82F4BE450E060E070E087E86F
S113244093E00E942D17892B09F4B6C080912A05C8
S11324508430A1F030F4823059F0833009F461C043
S11324609BC0853009F477C0863009F491C094C0CC
S1132470C0932D058C2F0E9412118EC080918C0365
S1132480811113C044E650E060E070E082E893E01C
S11324900E94E11680918C038F5F80938C0390914E
S11324A02D05890F0E94121128C081508930C8F46B
S11324B082E893E00E9403170197F9F444E650E0A0
S11324C060E070E082E893E00E94E11680918C0362
S11324D08F5F80938C0390912D05890F0E941211B8
S11324E00CC010928C03CAE2D5E08B810E941211B9
S11324F08981888389858F5F898720912D058091C3
S11325008C0390E0820F911D9F938F9383E992E057
S11325109F938F930E94C9010F900F900F900F907B
S11325203BC08DE793E00E94F916892B59F08DE7A3
S113253093E00E940317019779F582E080932A05BE
S1132540969A2AC040ED57E060E070E08DE793E092
S11325500E94E11621C088E793E00E94F916892BB6
S113256071F088E793E00E9403170197A9F486E0CD
S113257080932A058FE19EE49BBD8ABD0DC040ED8A
S113258057E060E070E088E793E00E94E11604C041
S11325908FE19EE49BBD8ABD8EE295E00E94031705
S11325A0019751F41092330581EA92E09F938F933F
S11325B00E94C9010F900F90DF91CF910895E2ED31
S11325C0F4E0168615861286118614861386E5EACB
S11325D0F4E01686158612861186148613861092E8
S11325E0C0041092BF04E3E8F4E01686158614864E
S11325F0138612861186E3ECF4E01686158614869B
S11326001386128611861092ED041092EC04E0EF0A
S1132610F4E0148613861686158612861186E5E67E
S1132620F4E0148613861686158612861186E4E76E
S1132630F4E014861386168615861286118608958C
S113264080919503823049F0809121049091220475
S113265098609093220480932104089580919503B7
S1132660823049F0809121049091220480689093F3
S113267022048093210408958091210490912204DE
S11326809260909322048093210408958091210400
S113269090912204997F90932204809321041092B4
S11326A0960308958091210490912204806290936E
S11326B0220480932104089580912104909122049E
S11326C08F799093220480932104109296030895A5
S11326D0809121049091220490629093220480932B
S11326E02104809124048B3018F0815080932404B9
S11326F06091240481E00E94360961E082E00E9436
S11327006809089580912104909122049062909325
S113271022048093210480912404833618F48F5F6B
S1132720809324046091240481E00E94360961E0CE
S113273082E00E9468090895809121049091220406
S113274090629093220480932104809123048B301F
S113275018F08150809323046091230480E00E9448
S1132760360980E00E944709029729F461E082E07B
S11327700E94680904C061E080E00E9468098091B9
S113278095038F5F80939503823019F466E00E946D
S11327906809089580912104909122049062909395
S11327A022048093210480912304833618F48F5FDC
S11327B0809323046091230480E00E94360980E022
S11327C00E944709029729F461E082E00E946809A7
S11327D004C061E080E00E946809809195038F5FE6
S11327E080939503823019F466E00E946809089585
S11327F00E9457098091210490912204977E90931E
S113280022048093210410929603809195038823D7
S113281019F081508093950380E00E944709029744
S113282029F461E082E00E946809089561E080E093
S11328300E94680908950E9457098091210490918B
S113284022048F779E7F9093220480932104109218
S1132850960380919503882319F081508093950302
S113286080E00E944709029729F461E082E00E9417
S11328706809089561E080E00E9468090895E6E32C
S1132880F5E0809123048083809124048183BF0137
S113289083E00E948A10089580912104909122047B
S11328A090629093220480932104809123048A30BF
S11328B038F48AE0809323046AE080E00E943609B9
S11328C00E943F140E94EA06892B39F40E940D07E6
S11328D0809124040E94831108950E94F5060E94A9
S11328E0AE110895809121049091220490629093F6
S11328F0220480932104809124048A3038F48AE0ED
S1132900809324046AE081E00E9436090E947811D1
S1132910892B19F00E94AE110895809124040E941D
S1132920ED11089587E395E190939C0480939B04B3
S113293060E082E00E94680964E375E083E00E943D
S1132940CE108091350596EF980F9A3510F4809348
S113295024048091340596EF980F9A3510F48093EF
S1132960230408951092950342E068EE73E080E03A
S113297090E00E94EB0A0E94D00680E00E9445117C
S11329800E94B30B0E94890F0E94100581E090E021
S11329909093220480932104E2EDF4E080E293E139
S11329A0968785878CE993E19487838788EF93E101
S11329B092878187E5EAF4E08EE293E19687858742
S11329C08AEC93E1948783878BE194E192878187F2
S11329D08CE494E19093C0048093BF04E3E8F4E0B2
S11329E08CE393E19687858786E493E192878187D8
S11329F088E693E194878387E3ECF4E082E593E14E
S1132A00968785878CE593E19287818782E893E1B5
S1132A109487838782E794E19093ED048093EC0498
S1132A206091230480E00E9436096091240481E0CF
S1132A300E9436090895109295030E94E4060E94AC
S1132A40DF120E94C80B0E94AE1110922204109251
S1132A50210460E082E00E94680980912104909141
S1132A6022048E7F909322048093210408950E946F
S1132A703F148091210480FF03C00E941B1502C0F3
S1132A800E94B21480912104909122049062909348
S1132A90220480932104089540913A0550913B0506
S1132AA060913C0570913D0580918D0390918E035A
S1132AB0A0918F03B091900384179507A607B707D9
S1132AC008F09CC08091210485FF1DC060912404FE
S1132AD06336C8F46F5F6093240481E00E94360972
S1132AE0809199038F5F809399038F3060F0809178
S1132AF02104909122048F7D80649093220480931A
S1132B00210410929903809121049091220491FF51
S1132B101DC0609124046623C9F0615060932404AD
S1132B2081E00E943609809198038F5F8093980317
S1132B308F3060F080912104909122049D7F9460F5
S1132B40909322048093210410929803809121048D
S1132B5087FF1DC0609123046336C8F46F5F6093E0
S1132B60230480E00E943609809197038F5F80934D
S1132B7097038F3060F080912104909122048F7725
S1132B809160909322048093210410929703809182
S1132B9021049091220493FF1DC0609123046B30A3
S1132BA0C8F061506093230480E00E94360980914C
S1132BB096038F5F809396038F3060F08091210499
S1132BC090912204977F9061909322048093210432
S1132BD01092960380918D0390918E03A0918F03A0
S1132BE0B0919003805B9F4FAF4FBF4F80938D0395
S1132BF090938E03A0938F03B09390030895409114
S1132C003A0550913B0560913C0570913D058091DA
S1132C10910390919203A0919303B091940384172C
S1132C209507A607B70708F051C0609124046336DE
S1132C3050F48091210486FF06C06F5F60932404E2
S1132C4081E00E94360960912404662361F080913A
S1132C5021049091220492FF06C0615060932404E1
S1132C6081E00E94360960912304633660F4809108
S1132C7021049091220490FF06C06F5F60932304A7
S1132C8080E00E943609609123046B3060F08091EB
S1132C9021049091220494FF06C0615060932304A0
S1132CA080E00E9436098091910390919203A09153
S1132CB09303B09194034E96A11DB11D809391038B
S1132CC090939203A0939303B093940308950E9466
S1132CD0DF1208951F920F920FB60F9211242F93B3
S1132CE03F934F935F936F937F938F939F93AF9390
S1132CF0BF93EF93FF93E8E3F5E080819181C2965F
S1132D009183808380819181883E934088F0828181
S1132D109381A481B5810196A11DB11D8283938302
S1132D20A483B58380819181885E9340918380835D
S1132D308AE993E00E94C608FF91EF91BF91AF9199
S1132D409F918F917F916F915F914F913F912F91BF
S1132D500F900FBE0F901F90189593B7986093BF74
S1132D606CBF823099F028F4882341F0813051F00F
S1132D7019C0833079F0843089F014C083B781603E
S1132D8083BF13C083B7826083BF0FC083B78360E0
S1132D9083BF0BC083B7846083BF07C083B78560DC
S1132DA083BF03C083B7816083BF89B7826089BF53
S1132DB0089523E0FC01248310821182128213827D
S1132DC008950F931F9321E0FC01248300913A0599
S1132DD010913B0520913C0530913D05400F511F5A
S1132DE0621F731F40835183628373831F910F910A
S1132DF0089521E030E0FC018481813011F020E06D
S1132E0030E0C9010895FC0184818130B1F48091DE
S1132E103A0590913B05A0913C05B0913D05408158
S1132E20518162817381481759076A077B0740F40F
S1132E3082E0848381E090E008958FEF9FEF08950E
S1132E4080E090E0089521E030E0FC01848183304B
S1132E5011F020E030E0C9010895CF92DF92EF92A3
S1132E60FF920F931F93CF93DF93EC016A017B01D1
S1132E708C81811106C083E08C83188219821A82A6
S1132E801B82CE010E9403178C01019731F4B70114
S1132E90A601CE010E94E1160DC08C81833041F45D
S1132EA0B701A601CE010E94E11600E010E002C0C5
S1132EB000E010E0C801DF91CF911F910F91FF90C6
S1132EC0EF90DF90CF9008951F920F920FB60F925C
S1132ED011242F933F934F935F938F939F93EF937B
S1132EE0FF932BB13CB1287180919E0390E0019631
S1132EF040919D0350E08417950739F080939E0319
S1132F00FC01EF55FC4F308301C022E020939C0369
S1132F10FF91EF919F918F915F914F913F912F91ED
S1132F200F900FBE0F901F9018951F920F920FB61F
S1132F300F9211248F939F93EF93FF939091A0038B
S1132F4080919F03981771F080919F0390E0019600
S1132F508F77992780939F03FC01EF55FC4F808165
S1132F608CB901C05598FF91EF919F918F910F906B
S1132F700FBE0F901F901895F8941092A003109212
S1132F809F0310929E0310929D03789499231CF43E
S1132F9022E02BB99F7790BD89B988E98AB986E880
S1132FA080BD08954091A00350E04F5F5F4F4F777D
S1132FB0552720919F0330E042175307D1F3FA01BC
S1132FC0EF55FC4F80834093A003559A0895CF9307
S1132FD0DF93EC018881882331F021960E94D21777
S1132FE089918111FBCFDF91CF9108955058BB2770
S1132FF0AA270E940E180C9488190E947A1938F096
S11330000E94811920F039F49F3F19F426F40C949E
S113301077190EF4E095E7FB0C947119E92F0E94DF
S1133020991958F3BA17620773078407950720F0B4
S113303079F4A6F50C94BB190EF4E0950B2EBA2F77
S1133040A02D0B01B90190010C01CA01A0011124AA
S1133050FF27591B99F0593F50F4503E68F11A1656
S1133060F040A22F232F342F4427585FF3CF4695E7
S113307037952795A795F0405395C9F77EF41F1609
S1133080BA0B620B730B840BBAF09150A1F0FF0FD3
S1133090BB1F661F771F881FC2F70EC0BA0F621FBF
S11330A0731F841F48F4879577956795B795F795AF
S11330B09E3F08F0B0CF9395880F08F09927EE0F44
S11330C09795879508950E944D1908F481E0089515
S11330D00E947C180C9488190E94811958F00E944F
S11330E07A1940F029F45F3F29F00C9471195111B9
S11330F00C94BC190C9477190E94991968F39923BC
S1133100B1F3552391F3951B550BBB27AA276217DF
S11331107307840738F09F5F5F4F220F331F441FEC
S1133120AA1FA9F335D00E2E3AF0E0E832D0915020
S11331305040E695001CCAF72BD0FE2F29D0660F0D
S1133140771F881FBB1F261737074807AB07B0E850
S113315009F0BB0B802DBF01FF2793585F4F3AF056
S11331609E3F510578F00C9471190C94BC195F3F83
S1133170E4F3983ED4F3869577956795B795F795DC
S11331809F5FC9F7880F911D9695879597F90895C4
S1133190E1E0660F771F881FBB1F62177307840760
S11331A0BA0720F0621B730B840BBA0BEE1F88F76F
S11331B0E09508950E94E1186894B1110C94BC192B
S11331C008950E94A11988F09F5798F0B92F992764
S11331D0B751B0F0E1F0660F771F881F991F1AF0FE
S11331E0BA95C9F714C0B13091F00E94BB19B1E08F
S11331F008950C94BB19672F782F8827B85F39F08E
S1133200B93FCCF3869577956795B395D9F73EF496
S113321090958095709561957F4F8F4F9F4F08953E
S1133220E89409C097FB3EF490958095709561955C
S11332307F4F8F4F9F4F9923A9F0F92F96E9BB2712
S11332409395F695879577956795B795F111F8CF8E
S1133250FAF4BB0F11F460FF1BC06F5F7F4F8F4FF9
S11332609F4F16C0882311F096E911C0772321F0EF
S11332709EE8872F762F05C0662371F096E8862F87
S113328070E060E02AF09A95660F771F881FDAF7DE
S1133290880F9695879597F90895990F0008550F0B
S11332A0AA0BE0E8FEEF16161706E807F907C0F0C8
S11332B012161306E407F50798F0621B730B840BD0
S11332C0950B39F40A2661F0232B242B252B21F4AA
S11332D008950A2609F4A140A6958FEF811D811D4A
S11332E0089597F99F6780E870E060E008959FEF84
S11332F080EC089500240A94161617061806090689
S1133300089500240A941216130614060506089557
S1133310092E0394000C11F4882352F0BB0F40F4DF
S1133320BF2B11F460FF04C06F5F7F4F8F4F9F4F1F
S1133330089557FD9058440F551F59F05F3F71F0A1
S11333404795880F97FB991F61F09F3F79F0879508
S11333500895121613061406551FF2CF4695F1DF91
S113336008C0161617061806991FF1CF8695710521
S1133370610508940895E894BB2766277727CB0155
S113338097F908950E94D5190C9488190E947A1906
S113339038F00E94811920F0952311F00C947119D2
S11333A00C94771911240C94BC190E94991970F388
S11333B0959FC1F3950F50E0551F629FF001729FD6
S11333C0BB27F00DB11D639FAA27F00DB11DAA1FE5
S11333D0649F6627B00DA11D661F829F2227B00D32
S11333E0A11D621F739FB00DA11D621F839FA00DBD
S11333F0611D221F749F3327A00D611D231F849F0D
S1133400600D211D822F762F6A2F11249F57504063
S11334109AF0F1F088234AF0EE0FFF1FBB1F661FDE
S1133420771F881F91505040A9F79E3F510580F0A7
S11334300C9471190C94BC195F3FE4F3983ED4F3D7
S1133440869577956795B795F795E7959F5FC1F74B
S1133450FE2B880F911D9695879597F90895A0E105
S1133460B0E0E5E3FAE10C94D51D7C011B016A018F
S1133470FC0117821682838181FF44C39E012F5F62
S11334803F4F3901F7019381F10193FD859193FF3A
S113349081911F01882309F431C3853239F493FDE6
S11334A0859193FF81911F01853239F4B70190E032
S11334B00E940E1F56016501E5CF10E0512C912C9E
S11334C0FFE1F915D8F08B3279F038F4803279F0D5
S11334D08332A1F4F92DF0612EC08D3261F0803376
S11334E069F4292D21602DC0392D3260932E892D48
S11334F08460982E2AC0E92DE86015C097FC2DC081
S113350020ED280F2A3088F496FE06C03AE0139F77
S1133510200D1124122F19C08AE0589E200D112469
S1133520522EE92DE0629E2E10C08E3231F496FCAC
S1133530E5C2F92DF0649F2E08C08C3621F4292DA4
S11335402068922E02C0883641F4F10193FD8591E2
S113355093FF81911F018111B3CF9BEB980F93309F
S113356020F4992D9061805E07C09BE9980F9330F9
S113357008F066C1992D9F7E96FF16E09F73992EE1
S1133580853619F49064992E08C0863621F4392FB3
S11335903068932E02C01111115097FE07C01C33DE
S11335A050F444244394410E27E00BC0183038F003
S11335B027E017E005C027E09CE3492E02C0212F35
S11335C0412C560184E0A80EB11CF6016081718182
S11335D082819381042DA3010E94201E6C01F98134
S11335E0FC87F0FF02C0F3FF06C091FC06C092FE08
S11335F006C000E205C00DE203C00BE201C000E01A
S11336008C858C7019F001115AC29BC297FE10C0B0
S11336104C0CFC85F4FF04C08A81813309F44A947C
S1133620141474F528E0241578F588E0482E2CC08D
S113363096FC2AC0812F90E08C159D059CF03CEFF0
S1133640C3163FEFD30674F0892D8068982E0AC004
S1133650E2E0F0E0EC0FFD1FE10FF11D808180330B
S113366019F411501111F4CF97FE0EC04424439461
S1133670410E812F90E0C816D9062CF41C1904C001
S11336804424439401C010E097FE06C01C141D049A
S113369034F4C601019605C085E090E002C081E0E3
S11336A090E001110196112331F0212F30E02F5FBA
S11336B03F4F820F931F252D30E08217930714F498
S11336C0581A01C0512C892D897049F4552039F0BC
S11336D0B70180E290E00E940E1F5A94F7CF0023B6
S11336E029F0B701802F90E00E940E1F93FC09C0BF
S11336F0552039F0B70180E390E00E940E1F5A94E0
S1133700F7CF97FE4CC04601D7FE02C0812C912C06
S1133710C60188199909F301E80FF91FFE87ED879F
S1133720960124193109388B2F87012F10E0119548
S1133730019511093FEF8316930629F4B7018EE230
S113374090E00E940E1FC814D9044CF08F8598890C
S11337508815990524F4ED85FE85818101C080E3F7
S1133760F1E08F1A91082D853E852F5F3F4F3E87EC
S11337702D87801691062CF0B70190E00E940E1F51
S1133780D9CFC814D90441F49A81963320F49533DF
S113379019F43C8534FF81E3B70190E04EC08A817F
S11337A0813319F09C859F7E9C87B70190E00E942D
S11337B00E1F111105C094FC18C085E690E017C0D7
S11337C0B7018EE290E00E940E1F1E5F82E001E0CE
S11337D0080FF301E80FF11D8081B70190E00E940A
S11337E00E1F802F0113F3CFE6CF85E490E0B701DD
S11337F00E940E1FD7FC06C0C114D10441F4EC850D
S1133800E4FF05C0D194C194D1088DE201C08BE2DC
S1133810B70190E00E940E1F80E32AE0C216D10493
S11338202CF08F5FFAE0CF1AD108F7CFB70190E000
S11338300E940E1FB701C601C0960E940E1F54C1FC
S1133840833631F0833779F0833509F056C020C0D0
S1133850560132E0A30EB11CF6018081898301E098
S113386010E0630112C05601F2E0AF0EB11CF60184
S1133870C080D18096FE03C0612F70E002C06FEF5C
S11338807FEFC6010E94031F8C01F92DFF7714C03E
S1133890560122E0A20EB11CF601C080D18096FE32
S11338A003C0612F70E002C06FEF7FEFC6010E947A
S11338B0F81E8C01F92DF0689F2EF3FD1AC0852D9A
S11338C090E008171907A8F4B70180E290E00E947D
S11338D00E1F5A94F4CFF60197FC859197FE8191BF
S11338E06F01B70190E00E940E1F51105A940150CD
S11338F011090115110579F7F7C0843611F08936DD
S113390061F5560197FE09C024E0A20EB11CF60130
S113391060817181828193810AC0F2E0AF0EB11C93
S1133920F60160817181072E000C880B990BF92D2B
S1133930FF769F2E97FF09C09095809570956195AD
S11339407F4F8F4F9F4FF0689F2E2AE030E0A301F6
S11339500E94661FC82EC6183FC0092D853721F462
S11339600F7E2AE030E01DC0097F8F3691F018F4F5
S1133970883559F0C3C0803719F0883711F0BEC0BC
S1133980006104FF09C0046007C094FE08C006601B
S113399006C028E030E005C020E130E002C020E1AC
S11339A032E0560107FF09C084E0A80EB11CF601FD
S11339B0608171818281938108C0F2E0AF0EB11CF5
S11339C0F6016081718180E090E0A3010E94661F8E
S11339D0C82EC6180F77902E96FE0BC0092D0E7FA9
S11339E0C11650F494FE0AC092FC08C0092D0E7E44
S11339F005C0DC2C092D03C0DC2C01C0D12E04FF32
S1133A000DC0FE01EC0DF11D8081803311F4097E9F
S1133A1009C002FF06C0D394D39404C0802F8678D3
S1133A2009F0D39403FD11C000FF06C01C2DD5146A
S1133A3080F4150D1D190DC0D51458F4B70180E29A
S1133A4090E00E940E1FD394F7CFD51410F45D18A4
S1133A5001C0512C04FF10C0B70180E390E00E9424
S1133A600E1F02FF17C001FD03C088E790E002C0EB
S1133A7088E590E0B7010CC0802F867859F001FFEB
S1133A8002C08BE201C080E207FD8DE2B70190E045
S1133A900E940E1FC11638F4B70180E390E00E9423
S1133AA00E1F1150F7CFCA94F301EC0DF11D808164
S1133AB0B70190E00E940E1FC110F5CF15C0F4E0CD
S1133AC0F51560F584E0581A93FE1FC0011127C054
S1133AD02C8523FF2AC002E512E0392D3071932E84
S1133AE0F8018491811124C0552009F4E4CCB70174
S1133AF080E290E00E940E1F5A94F6CFF70186816F
S1133B00978126C08FEF9FEF23C0B70180E290E03A
S1133B100E940E1F5A945110F8CFD8CF512CB701E0
S1133B20802F90E00E940E1FD3CF06E512E0D5CF80
S1133B3091108052B70190E00E940E1F0F5F1F4F3B
S1133B40CFCF23E0251510F483E0BDCF512CC0CF97
S1133B506096E2E10C94F11D97FB072E16F4009495
S1133B6007D077FD09D00E940C1E07FC05D03EF457
S1133B70909581959F4F0895709561957F4F089515
S1133B80EE0FFF1F0590F491E02D0994A29FB00160
S1133B90B39FC001A39F700D811D1124911DB29F7D
S1133BA0700D811D1124911D08952F923F924F9203
S1133BB05F926F927F928F929F92AF92BF92CF92B9
S1133BC0DF92EF92FF920F931F93CF93DF93CDB7C2
S1133BD0DEB7CA1BDB0B0FB6F894DEBF0FBECDBF3A
S1133BE009942A88398848885F846E847D848C840B
S1133BF09B84AA84B984C884DF80EE80FD800C8114
S1133C001B81AA81B981CE0FD11D0FB6F894DEBFF6
S1133C100FBECDBFED010895AA1BBB1B51E107C028
S1133C20AA1FBB1FA617B70710F0A61BB70B881F48
S1133C30991F5A95A9F780959095BC01CD010895D7
S1133C40283008F027E03327DA01990F311D87FD6A
S1133C50916000966105710539F432602E5F3D93E1
S1133C6030E32A95E1F708959F3F30F080387105DD
S1133C70610509F03C5F3C5F3D93913008F080683A
S1133C80911DDF93CF931F930F93FF92EF92192F00
S1133C90987F9695E92F96959695E90FFF27EC5412
S1133CA0FD4F99273327EE24FF24A701E701059050
S1133CB00894079428F4360FE71EF81E491F511D77
S1133CC0660F771F881F991F0694A1F70590079424
S1133CD028F4E70EF81E491F561FC11D770F881FD1
S1133CE0991F661F0694A1F70590079428F4F80E0F
S1133CF0491F561FC71FD11D880F991F661F771FA5
S1133D000694A1F70590079420F4490F561FC71F86
S1133D10D81F990F661F771F881F0694A9F78491EF
S1133D201095177041F0D695C79557954795F79418
S1133D30E7941A95C1F7EAE5F2E0689415901591B5
S1133D4035916591959105907FE27395E118F10A9B
S1133D50430B560BC90BD009C0F7E10CF11E431FEE
S1133D60561FC91FD01D7EF4703311F48A95E6CF17
S1133D70E894015030F0080F0AF40027021708F401
S1133D80202F2395022F7A3328F079E37D932A9507
S1133D90E9F710C07D932A9589F60694979567955F
S1133DA0379517951794E118F10A430B560BC90B75
S1133DB0D00998F023957E9173957A3308F070E3D7
S1133DC07C932013B8F77E9170617D9330F08395D6
S1133DD071E37D9370E32A95E1F71124EF90FF904E
S1133DE00F911F91CF91DF91992787FD90950895A9
S1133DF0FC010590615070400110D8F780959095B2
S1133E008E0F9F1F0895FC016150704001900110B6
S1133E10D8F7809590958E0F9F1F08950F931F9349
S1133E20CF93DF93FB01238121FD03C08FEF9FEF2D
S1133E302CC022FF16C04681578124813581421748
S1133E40530744F4A081B1819D012F5F3F4F31831B
S1133E5020838C93268137812F5F3F4F37832683BE
S1133E6014C08B01EC01FB010084F185E02D099560
S1133E70892BE1F6D80116968D919C91179701969E
S1133E8017969C938E931697CE01DF91CF911F9135
S1133E900F910895AEE0B0E0E0E5FFE10C94E31D7E
S1133EA08C0186E08C831A8309838FEF9FE79E83BE
S1133EB08D83CE0101960E942F1AEF81F885E00FC1
S1133EC0F11F10822E96E4E00C94FF1DFA01AA273C
S1133ED0283051F1203181F1E8946F936E7F6E5F49
S1133EE07F4F8F4F9F4FAF4FB1E03ED0B4E03CD0F7
S1133EF0670F781F891F9A1FA11D680F791F8A1FDA
S1133F00911DA11D6A0F711D811D911DA11D20D040
S1133F1009F468943F912AE0269F11243019305DFA
S1133F203193DEF6CF010895462F4770405D4193EB
S1133F30B3E00FD0C9F7F6CF462F4F70405D4A3338
S1133F4018F0495D31FD4052419302D0A9F7EACF00
S1133F50B4E0A6959795879577956795BA95C9F72F
S1133F6000976105710508959B01AC010A2E069422
S1133F705795479537952795BA95C9F7620F731FDB
S10F3F80841F951FA01D0895F894FFCF26
S1133F8CD204A504B40492048304C304E104F0042D
S1133F9C65047404FFFEF92F2D2D2D2D2D2D2D2DA3
S1133FAC2D2D2D53544152542053595354454D2DBA
S1133FBC2D2D2D2D2D2D2D2D2D2D2D2F0A00646302
S1133FCC6D6F746F7220696E69740A0064636D6F2F
S1133FDC746F722073746F700A0064636D6F746F06
S1133FEC72206572726F720A004D4F544F52204109
S1133FFC44433A2025642C204144435F6D61783A54
S113400C2025642C20766F6C746167653A202566D4
S113401C0A004552524F52205354415455533A209E
S113402C4552525F4D5F574149540A0D00636F75F9
S113403C6E745F6D6F746F725F74696D656F757498
S113404C5F776169743A2025640A0D00636F756E9D
S113405C745F6D6F746F725F74696D656F75745F87
S113406C6178656C65726174653A2025640A0D008B
S113407C4552524F52205354415455533A204552B1
S113408C525F4D5F4158454C45524154450A0D0011
S113409C4552524F52205354415455533A20455291
S11340AC525F4D5F4552524F520A0D004552524FCA
S11340BC52205354415455533A20676F20746F2047
S11340CC6C617374206265666F72652077616974C4
S11340DC0A0D004552524F52205354415455533AF1
S11340EC204552525F4D5F455849540A0D004552C4
S11340FC524F52205354415455533A204552525F17
S113410C4D5F4F4B0A0D00736572766F5F6572726B
S113411C6F725F76616C75653A2025640A004552AE
S113412C524F52205354415455533A204552525FE6
S113413C535F574149540A0D004552524F52205374
S113414C54415455533A204552525F535F5452597B
S113415C0A0D004552524F52205354415455533A70
S113416C204552525F535F4F4B0A0D005345525634
S113417C4F3A20696E69740A00534552564F5F4496
S113418C454C415945445F4F50454E2025640A0027
S113419C534552564F5F434C4F5345442025640AB4
S11341AC00534552564F5F4F5050454E45442025C1
S11341BC640A00534552564F5F5452592025640AE1
S11341CC00534552564F3A205A65726F20747279D7
S10941DC20636E740A006A
S9030000FC
