S01600006E6F77795F737465726F776E696B2E73726563FC
S11300000C94EB010C9408020C9408020C94080262
S11300100C9408020C9408020C9408020C94080234
S11300200C9408020C9408020C94A7170C94080270
S11300300C9408020C94A1180C94D2180C94080285
S11300400C9408020C9408020C9408020C94080204
S11300500C9408029F08A608A908AF08B508BA08B6
S1130060C008C708CB08D30822092209220922099B
S11300702209220922092209220922092209220924
S11300802209220922092209220922092209220914
S11300902209220922092209220922092209220904
S11300A022092209220922092209220922092209F4
S11300B022092209220922092209220922092209E4
S11300C022092209220922092209220922092209D4
S11300D022092209220922092209220922092209C4
S11300E022092209220922092209220922092209B4
S11300F022092209220922092209220922092209A4
S11301002209220922092209220922092209220993
S1130110220922092209DA08E108E708EC08F208B2
S1130120F8082209220922092209220911092209AF
S11301302209000905092209FD080B0922092209DF
S11301402209220922092209220922092209220953
S11301502209220922092209220922092209220943
S11301602209220922092209220922092209220933
S11301702209220922092209220922092209220923
S11301802209220922092209220922092209220913
S11301902209220922092209220922092209220903
S11301A022092209220922092209220922092209F3
S11301B022092209220922092209220922092209E3
S11301C022092209220922092209220922092209D3
S11301D022092209220922092209220922092209C3
S11301E022092209220922092209220922092209B3
S11301F022092209220922092209220922092209A3
S11302002209220922092209220922092209220992
S11302102209220922092209220922092209220982
S11302202209220922092209220922092209220972
S11302302209220922092209220922092209220962
S113024022092209150921091F091D091B09190978
S1130250170907634236B79BD8A71A39685618AEF0
S1130260BAAB558C1D3CB7CC5763BD6DEDFD753EE7
S1130270F6177231BF000000803F08000000BE92F4
S11302802449123EABAAAA2ABECDCCCC4C3E0000D7
S11302900080BEABAAAAAA3E00000000BF00000076
S11302A0803F0000000000084178D3BB4387D1138E
S11302B03D190E3CC3BD4282AD2B3E68EC8276BE36
S11302C0D98FE1A93E4C80EFFFBE01C4FF7F3F0000
S11302D0000000006E616E00696E660000407A10D6
S11302E0F35A00A0724E18090010A5D4E80000E8E3
S11302F07648170000E40B54020000CA9A3B000041
S113030000E1F505000080969800000040420F00CF
S11303100000A08601000000102700000000E80390
S1130320000000006400000000000A00000000005B
S11303300100000000002C76D888DC674F0823DF1A
S1130340C1DFAE59E1B1B796E5E3E453C63AE651ED
S1130350997696E8E6C28426EB898C9B62ED407C14
S11303606FFCEFBC9C9F40F2BAA56FA5F490055AB0
S11303702AF75C936B6CF9676DC11BFCE0E40D47D5
S1130380FEF520E6B500D0ED902E030094357705F8
S11303900080841E080000204E0A000000C80C33B0
S11303A03333330F986E12831141EF8D2114893B3F
S11303B0E65516CFFEE6DB18D1844B381BF77C1DBF
S11303C0901DA4BBE424203284725E228100C9F112
S11303D024ECA1E53D2711241FBECFE5D8E0DEBF04
S11303E0CDBF13E0A0E6B0E0EEE6F5E402C0059070
S11303F00D92AA3AB107D9F726E0AAEAB3E001C000
S11304001D92A734B207E1F70E9439020C94B52279
S11304100C940000CF93DF93CDB7DEB7AE014B5FF2
S11304205F4FFA0161917191AF0184E295E00E94FE
S11304303B2284E295E00E942419DF91CF91089534
S11304408C9A8E9ABD9A899A089588E090E00E94C9
S1130450F91862E381E00E94EA170E9456080E949C
S1130460CC040E94BD150E94AC0F80B78B7F80BF67
S113047008950E94200278940E94250281E890E069
S11304809F938F930E940A020E94E2060E94071122
S11304900F900F900E94520A0E94AE0B0E942204F9
S11304A00E947B160E943617809122050E94DA076B
S11304B0809123050E943F130E9460060E949E0CB7
S11304C00E946E0F0E94CA0F0E9487020E94D002EF
S11304D00E94E304DFCF83E00E944311BC01660F56
S11304E0771F660F771F860F971FBC0180E090E08F
S11304F00E94481A26E636E646EB50E40E94FF1AAC
S113050020E030E040E85AE30E94FF1A0895409149
S113051043065091440660914506709146068091C9
S1130520AF039091B003A091B103B091B2038417CB
S11305309507A607B70798F583E00E94431189350C
S113054022E0920718F021E02093B3038B3821E0D6
S1130550920718F422E02093B3038E3521E092072A
S113056018F423E02093B3038C5891408C3C9105FC
S113057010F41092B3038091430690914406A09125
S11305804506B09146068C599F4FAF4FBF4F80939D
S1130590AF039093B003A093B103B093B203089553
S11305A04091430650914406609145067091460679
S11305B08091AB039091AC03A091AD03B091AE03D5
S11305C084179507A607B70708F086C08091B30380
S11305D08130E9F030F0823099F1833009F467C05A
S11305E00895C5988091AB039091AC03A091AD039D
S11305F0B091AE0388539F4FAF4FBF4F8093AB036F
S11306009093AC03A093AD03B093AE03089598B355
S113061080E2892788BB8091AB039091AC03A091C1
S1130620AD03B091AE0386509F4FAF4FBF4F809341
S1130630AB039093AC03A093AD03B093AE030895C2
S11306408091AA03811119C081E08093AA03C59AFD
S11306508091AB039091AC03A091AD03B091AE0334
S11306608C509E4FAF4FBF4F8093AB039093AC031E
S1130670A093AD03B093AE030895813069F5109251
S1130680AA03C5988091AB039091AC03A091AD03EC
S1130690B091AE0384529A4FAF4FBF4F8093AB03D8
S11306A09093AC03A093AD03B093AE030895C59AA1
S11306B08091AB039091AC03A091AD03B091AE03D4
S11306C088519C4FAF4FBF4F8093AB039093AC03C3
S11306D0A093AD03B093AE030895379897B1987F74
S11306E08770892B87B9379A0895369A3699FECF41
S11306F084B195B108950E946D030E947503089515
S1130700DC011696ED91FC911797208130E0F901F8
S113071018960C9002C0F595E7950A94E2F7CF017C
S113072081700895E1EDF5E0148281E085831486FB
S11307301386128611861686158626E330E03783E3
S1130740268392E09087E4EAF5E014828583148698
S1130750138612861186168615863783268380872C
S1130760E3EBF5E0148285831486138612861186E2
S1130770168615863783268396E09087E1E9F5E0AF
S1130780148285831486138612861186168615862E
S113079040E350E05783468393E09087E2E8F5E036
S11307A0148285831486138612861186168615860E
S11307B0378326839087E2ECF5E0148285831486E0
S11307C01386128611861686158669E370E0778390
S11307D06683A4E0A087E0EEF5E0148285831486A6
S11307E01386128611861686158643E350E05783D6
S11307F046838087EFEEF5E01482858314861386A2
S1130800128611861686158637832683A087E4E62A
S1130810F5E0148285831486138612861186168663
S11308201586778366839087E3E7F5E014828583F2
S11308301486138612861186168615865783468378
S113084010860895DF92EF92FF920F931F93CF9338
S1130850DF934091430650914406609145067091A0
S113086046068091A0059091A105A091A205B091A2
S1130870A30584179507A607B70708F085C08091DC
S1130880430690914406A0914506B09146064496CD
S1130890A11DB11D8093A0059093A105A093A2056D
S11308A0B093A305C0E6D0E00F2EF4E7EF2EF0E0FE
S11308B0FF2EF02DDD24D3948E01888199810E942E
S11308C08003E881F98195818917E1F0858381307E
S11308D061F488819981DC011996ED91FC911A9754
S11308E0309709F441C009953FC081113DC088810A
S11308F09981DC011B96ED91FC911C97309721F0B6
S1130900099502C0811130C0D801ED91FC9180811C
S11309109181A281B3810196A11DB11D8083918330
S1130920A283B383D801ED91FC9180819181A2814E
S1130930B3818897A105B10510F184818130F9F064
S11309400584F685E02D309719F081ED95E0099541
S1130950D801ED91FC9111971082118212821382B9
S1130960ED91FC91D4820BC0D801ED91FC911197CB
S11309701082118212821382ED91FC9114822296CC
S1130980CE15DF0509F098CFDF91CF911F910F911C
S1130990FF90EF90DF9008950E949203BA98C29A54
S11309A0B998C19ABE98C69A8B98939ABB98C39AE1
S11309B0D498DC9AA198A99ABC98C49AD398DB9A43
S11309C0A098A89A089540914306509144066091D6
S11309D04506709146068091B8039091B903A091A1
S11309E0BA03B091BB0384179507A607B70708F0AD
S11309F05EC084E00E944B07811159C0809120059C
S1130A009091210595FF37C08091B4039091B5036F
S1130A10A091B603B091B703892B8A2B8B2B59F580
S1130A20C09A80912005909121059F7D9093210586
S1130A308093200581E090E0A0E0B0E08093B403CF
S1130A409093B503A093B603B093B7038091B80312
S1130A509091B903A091BA03B091BB038C599F4FF5
S1130A60AF4FBF4F8093B8039093B903A093BA03D9
S1130A70B093BB030895C0981092B4031092B503C9
S1130A801092B6031092B7038091B8039091B90302
S1130A90A091BA03B091BB03C296A11DB11D80936E
S1130AA0B8039093B903A093BA03B093BB0308951A
S1130AB0B89AC0980895A4E7B0E0E4E0F6E029E02D
S1130AC036E011968C91119781931296E217F307F1
S1130AD0C1F70895809109061F928F9388EA90E0E8
S1130AE09F938F930E940A02E4E0F6E083811F92B1
S1130AF08F9382811F928F9381811F928F93808124
S1130B001F928F9382EB90E09F938F930E940A022F
S1130B108DB79EB70E960FB6F8949EBF0FBE8DBFCD
S1130B2008958091090690E0FC01EC5FF94F208163
S1130B30FC01EE0FFF1FEC58FF4F3081231728F400
S1130B40FC01EC5FF94F2F5F20830E946A05089532
S1130B508091090690E0FC01EC5FF94F208122238B
S1130B6029F0FC01EC5FF94F215020830E946A05B3
S1130B70089580910906843018F48F5F80930906E4
S1130B800E946A05089580910906882319F081500E
S1130B90809309060E946A05089564E076E084E083
S1130BA00E94981188E080931F0680931A069498F7
S1130BB096980895CF93E0910A0691E09E0F909342
S1130BC00A06F0E0E250FA4F80831F928F9381ED82
S1130BD090E09F938F930E940A02C0910A064C2FC3
S1130BE050E061E171E08EEF95E00E94E7210F9003
S1130BF00F900F900F90892B91F08AED90E09F93C6
S1130C008F930E940A0210920A0686E0EEEFF5E046
S1130C10DF011D928A95E9F70F900F9035C0C63019
S1130C2099F58AEE90E09F938F930E940A0281E0E7
S1130C3080930B0683EC95E09093DD058093DC05AF
S1130C4089EB95E09093B0058093AF058DEC95E02A
S1130C509093BF058093BE0588EA95E090938E0536
S1130C6080938D0581E995E09093CE058093CD0521
S1130C708BE595E09093EC058093EB0567E082E0CB
S1130C800E94F7090F900F90CF91089585E00E947C
S1130C90DA05089584E00E94DA05089583E00E944D
S1130CA0DA05089582E00E94DA05089581E00E9441
S1130CB0DA05089580E00E94DA05089585E0089534
S1130CC04091430650914406609145067091460652
S1130CD08091BC039091BD03A091BE03B091BF036A
S1130CE084179507A607B70708F06BC080910B0619
S1130CF0813009F066C08091430690914406A0912A
S1130D004506B0914606C296A11DB11D8093BC0351
S1130D109093BD03A093BE03B093BF0380911F06BD
S1130D20873031F4609109068BE196E00E949F09B7
S1130D3080911A06873051F4E0910906F0E0EC5FE7
S1130D40F94F608186E196E00E949F0980911F0619
S1130D50883049F580911A06883029F58091430638
S1130D6090914406A0914506B091460688519C4F47
S1130D70AF4FBF4F8093BC039093BD03A093BE03BA
S1130D80B093BF0383E780932E0681E68093220607
S1130D9080E78093200610922C068AE080931F0639
S1130DA080931A06089580911F068A3051F4809129
S1130DB01A068A3031F410921F0610921A06109205
S1130DC00B0608958AE596E09093DD058093DC0593
S1130DD086E596E09093B0058093AF0582E596E0B2
S1130DE09093BF058093BE058EE496E090938E05A4
S1130DF080938D058AE496E09093CE058093CD058B
S1130E0086E496E09093EC058093EB0564E076E04D
S1130E1084E00E94E011E4E0F6E083811F928F9366
S1130E2082811F928F9381811F928F9380811F9261
S1130E308F9389EF90E09F938F930E940A02A4E01E
S1130E40B6E0E4E7F0E04EE750E08DB79EB70A96CF
S1130E500FB6F8949EBF0FBE8DBF20E09C91808199
S1130E60891718F481818C932F5F11963296E417B9
S1130E70F507A1F7222329F064E076E084E00E94DC
S1130E80981110920A0686E0EEEFF5E0DF011D925C
S1130E908A95E9F70895853030F4E82FF0E0EC5FA7
S1130EA0F94F8081089580E0089587E191E09F9350
S1130EB08F930E940A0280E196E00E94161881E056
S1130EC080930C06949815BC8F9A979A0F900F9064
S1130ED0089510920C0615BC979A949808959091D1
S1130EE00C06925021E030E0933010F020E030E026
S1130EF0C90108950E946F07009799F085E291E077
S1130F009F938F930E940A0215BC979A9498ECE0E1
S1130F10F6E08081818381E080830F900F9081E0EF
S1130F2090E0089580910C068130D9F4949A85B5A7
S1130F30806385BD85B5806485BD85B5816085BDCB
S1130F40ECE0F6E08081818384E0808348EE53E026
S1130F5060E070E080E196E00E941E1881E090E07D
S1130F60089580E090E0089580910F0690E0089540
S1130F7083E391E09F938F930E940A020E947A0771
S1130F8085E080930C060F900F9008950E946F07E0
S1130F90009729F083E080930C0681E090E00895A7
S1130FA00E946F07009729F082E080930C0681E08D
S1130FB090E00895CF93C82F46E950E060E070E0D8
S1130FC080EC93E00E946A18892B09F458C0909130
S1130FD00C069330E9F028F49130B9F0923041F0E6
S1130FE04EC0943009F448C0953009F442C047C05B
S1130FF0C0930F062BEEC29FC001112463E670E07C
S11310000E946E206C5E63BD3AC010920F0637C01A
S1131010C33378F484E18C0F80930F062BEE829F08
S1131020C001112463E670E00E946E206C5E63BD13
S113103026C08DEC8C0F843178F48FE08C0F809374
S11310400F062BEE829FC001112463E670E00E941C
S11310506E206C5E63BD13C0C0930F062BEEC29F5F
S1131060C001112463E670E00E946E206C5E63BDD3
S113107006C015BC979A03C082E080930C06CF91FA
S11310800895AE9AAD9ADD9ADF9ADE9AAA9AAF9A3B
S11310900895929A10922306C79A10922F06AC9A3A
S11310A010922106AB9A10922D060895A69AA59A3D
S11310B0D59AD79AD69AA29AA79A8A9AE4E2F6E09F
S11310C082E296E091838083BF9A2EE236E03383F6
S11310D02283ABE1B6E011963C932E9313969C9336
S11310E08E931297A49A20E236E035832483A39A40
S11310F08CE296E097838683E6E1F6E031832083F1
S1131100938382830E9449080E9441080895CF93E3
S1131110DF93FC01308120917E00321709F495C0E1
S1131120EC010E944108E8818E2F90E08F3F9105E9
S113113008F088C0FC01E65DFF4F0C94A420AE9833
S1131140AD98DD98DF98DE98AA987CC0AD98DD98BC
S113115079C0AE98AD98AF98DE98DF9873C0AE981A
S1131160AD98AF98DD98DF986DC0AA98AF98AD9808
S1131170DD9868C0AE98AA98AF98DD98DF9862C0F1
S1131180AE98AA98AF98DD98DF98DE985BC0AE98C9
S1131190AD98DD9857C0AE98AD98DD98DF98DE988D
S11311A0AA98AF984FC0AE98AD98DD98DF98AA98EA
S11311B0AF9848C0AE98AD98DD98DE98AA98AF98DD
S11311C041C0DD98DF98DE98AA98AF983BC0AE98EE
S11311D0DF98DE98AA9836C0AD98DD98DF98DE983F
S11311E0AF9830C0AE98DF98DE98AA98AF982AC01E
S11311F0AE98DE98AA98AF9825C0DE98AF9822C022
S1131200DD98DF98DE98AF981DC0AE98AD98DE9853
S1131210AA98AF9817C0AE98DD98DF98AA98AF98AF
S113122011C0DF98DE98AA980DC0AF980BC0AA9899
S113123009C0DE9807C0DF9805C0DD9803C0AD98EB
S113124001C0AE98888180937E00DF91CF9108958C
S1131250CF93DF93EC010E944908CE010E948708D6
S113126086E0C232D80729F4929881E0809323065D
S113127019C086E0CE32D80729F4C79881E080935C
S11312802F0610C086E0C032D80729F4AC9881E05C
S11312908093210607C0CC52D64021F4AB9881E05C
S11312A080932D06DF91CF910895EF92FF921F93C3
S11312B0CF93DF93FC01C081D1812196D183C08378
S11312C09E01ADECBCEC0E94AA209695879596955C
S11312D08795969587959C01220F331F880F991F38
S11312E0880F991F880F991F820F931FC817D9075A
S11312F001F57F011091C503143058F4E12FF0E09B
S1131300EE0FFF1FEC5DF94F808191810E94280947
S113131002C00E9449081F5F153019F01093C503DD
S113132002C01092C503C039D14019F4F7011182EB
S11313301082DF91CF911F91FF90EF900895FC01EF
S11313406436F8F4611108C0A081B1811C92028056
S1131350F381E02D10820895A081B1819DEC699FF5
S1131360912D11249695969596959C930280F381E0
S1131370E02D892F880F982F990F990F890F681BDB
S113138060830895FC0160830895813039F018F07A
S1131390823039F008956093E10308956093E00387
S11313A008956093E0036093E1030895882319F09E
S11313B0813029F008C080911F0690E00895809143
S11313C01A0690E008958FEF9FEF089580911F060D
S11313D0863021F48091300680931F0680911A068E
S11313E0863021F48091310680931A060895813065
S11313F0A1F018F0823009F10895663021F480914B
S11314001F068093300680911F06863019F460937E
S11314103006089560931F060895663021F4809184
S11314201A068093310680911A06863019F4609367
S11314303106089560931A060895663041F4809148
S11314401F068093300680911A068093310680919E
S11314501F06863029F460933106609330060895A0
S113146060931F0660931A06089595E090931F06F3
S113147090931A068093DB03089568EF82E296E066
S11314800E94C20968EF8EE296E00E94C20968EFEA
S113149080E296E00E94C20968EF8CE296E00E9426
S11314A0C20908958091430690914406A09145068F
S11314B0B09146064091CA035091CB036091CC038E
S11314C07091CD03481759076A077B0708F026C1B6
S11314D080911F06833009F459C030F4882309F43D
S11314E087C0813039F18EC0853009F474C048F169
S11314F0863009F087C00E946B0220E030E048EC9F
S113150052E40E94FF1A0E94121A7093DA03609345
S1131510D9039B013695279536952795ABE7B4E11A
S11315200E94AA2096958795682F8BE196E00E94E9
S11315309F0968C06091E1038BE196E00E949F09D6
S113154061C080911A06843031F081E080931F06D7
S113155080931A0657C048515C4F6F4F7F4F40939A
S1131560CA035093CB036093CC037093CD0383E7FA
S113157080932E0681E68093220680E780932006DE
S113158081E080931F0680931A06089580911A06BD
S1131590833031F081E080931F0680931A0632C0B5
S11315A048515C4F6F4F7F4F4093CA035093CB0316
S11315B06093CC037093CD038CE680932E068FE664
S11315C08093220680E78093200681E080931F06A3
S11315D080931A0617C085E680932E0682E78093CF
S11315E022066091DB0386E196E00E949F090AC00F
S11315F068EF82E296E00E94C20968EF8EE296E00C
S11316000E94C20980911A06813019F148F186308E
S113161019F08D3081F16FC04091D9035091DA03F4
S11316209A013695279536952795ABE7B4E10E9444
S1131630AA209695879564E6689F9001699F300D6E
S11316401124BA01621B730B86E196E00E949F0984
S113165052C06091E00386E196E00E949F094BC06E
S113166068EF80E296E00E94C20968EF8CE296E09F
S11316700E94C20940C044EF51E060E070E084ED94
S113168093E00E946A18892BB1F18091D3038111F0
S11316900EC081E08093D30367EF80E296E00E945E
S11316A0C20967EF8CE296E00E94C20924C010923E
S11316B0D3038091CF039091D003A091D103B09133
S11316C0D2030097A105B10529F461E081E00E94ED
S11316D0F70911C00197A109B1098093CF03909331
S11316E0D003A093D103B093D2036091CE0386E1DB
S11316F096E00E949F098091CA039091CB03A09128
S1131700CC03B091CD03C296A11DB11D8093CA0331
S11317109093CB03A093CC03B093CD0308950F9380
S11317201F93009143061091440620914506309181
S11317304606DC01CB01800F911FA21FB31F8093CB
S1131740DC039093DD03A093DE03B093DF0362E038
S1131750842F0E94F7091F910F91089580911F060D
S1131760823029F080911A06823009F078C04091C5
S11317704306509144066091450670914606809157
S1131780C6039091C703A091C803B091C9038417FD
S11317909507A607B70708F062C0809143069091A9
S11317A04406A0914506B091460681559F4FAF4F20
S11317B0BF4F8093C6039093C703A093C803B0930D
S11317C0C90380911F06823061F46091800082E237
S11317D096E00E94C209609180008EE296E00E9429
S11317E0C20980911A06823061F460917F0080E220
S11317F096E00E94C20960917F008CE296E00E940C
S1131800C209409143065091440660914506709187
S113181046068091DC039091DD03A091DE03B09134
S1131820DF0384179507A607B70728F461E082E071
S11318300E94F709C598909180009F5F9093800063
S113184080917F00815080937F009F3F19F499EF2E
S113185090938000883F19F48EEF80937F00089561
S1131860E199FECF9FBB8EBB6DBBE29AE19A0895CE
S1131870E199FECF9FBB8EBBE09A8DB30895CF93C1
S1131880C82F8091200590912105826090932105B5
S1131890809320058C2F0E94350A0E94B8070E946D
S11318A055120E94A417C0933206CF910895109246
S11318B0FE031092FD031092FC031092F4031092A5
S11318C0F5038FEF93E00E9460188FEE93E00E947F
S11318D060181092320608951092FE031092FD03D0
S11318E01092FC031092F4031092F5038FEF93E02F
S11318F00E9460188FEE93E00E94601810923206E6
S1131900089582E491E09F938F930E940A0280914C
S1131910430690914406A0914506B0914606805333
S1131920984FAF4FBF4F8093EB039093EC03A0937A
S1131930ED03B093EE030F900F9008954F925F92D2
S11319406F927F928F929F92AF92BF92CF92DF92CB
S1131950EF92FF92409143065091440660914506F0
S1131960709146068091E7039091E803A091E90302
S1131970B091EA0384179507A607B70708F0A1C238
S11319808091200580FF9DC24091430650914406FA
S1131990609145067091460646505F4F6F4F7F4FEA
S11319A04093E7035093E8036093E9037093EA03D9
S11319B081FD87C20E946B024B015C010E94B40747
S11319C0BC0180E090E00E94481A6B017C0125E98B
S11319D035E640ED5FE30E946C1B2B013C01A7013F
S11319E09601C501B4010E94FF1A20E030E048ECE2
S11319F052E40E94A0194B015C0123E333E343E664
S1131A0051E4C701B6010E94FF1A20E030E048EC1F
S1131A1052E40E94A0199B01AC01C501B4010E94CB
S1131A20331920E030E040E450E40E94A0194B0157
S1131A305C0128E539E344E35CE3C301B2010E949D
S1131A40FF1A9B01AC01C501B4010E9434194B017A
S1131A505C0183E00E944B07682F70E062537109B8
S1131A60072E000C880B990B0E944A1AA7019601B5
S1131A700E94FF1A20E030E048EC52E40E94A019D2
S1131A80A50194010E9434196093F8037093F9033B
S1131A908093FA039093FB0380E00E94431142E099
S1131AA05BE267E07DE380E00E945C112091F80333
S1131AB03091F9034091FA035091FB030E94FA1A02
S1131AC0181644F40E946F07892B21F081E080935B
S1131AD0FC0302C01092FC0381E00E944B078111B9
S1131AE00DC18091FC03813009F0A8C08091FE03F0
S1131AF0823009F470C028F4882351F08130A9F1B0
S1131B00FDC0833009F47AC0843009F47BC0F6C088
S1131B1081E08093FE0385E591E09F938F930E947B
S1131B200A020E94B4072EE1AC01249FC001259F44
S1131B30900D112448E853E17A01E81AF90AFF925A
S1131B40EF9280E791E09F938F930E940A02A7018E
S1131B5060E070E08FEF93E00E941E180F900F90EA
S1131B600F900F900F900F90C9C08FEF93E00E94D9
S1131B704018892B09F4C2C00E94C6070E94B4070A
S1131B802EE1AC01249FC001259F900D112448E84B
S1131B9053E17A01E81AF90AFF92EF928FE891E093
S1131BA09F938F930E940A02A70160E070E08FEF79
S1131BB093E00E941E1882E08093FE0383EB91E081
S1131BC09F938F930E940A020F900F900F900F9093
S1131BD00F900F9093C08FEF93E00E944018892BD1
S1131BE009F48CC083E08093FE0383ED91E09F931E
S1131BF08F930E940A020F900F9080C081E00E9490
S1131C003F0C7CC08FEF93E00E944018892B09F4AD
S1131C1075C040ED57E060E070E08FEF93E00E9404
S1131C201E188091FD038093FE038FEE91E09F9335
S1131C308F930E940A020F900F9060C08091FE0360
S1131C40823049F118F4813041F058C0833009F4EE
S1131C5041C0843009F442C051C08FEF93E00E9428
S1131C604018892B09F44AC040ED57E060E070E069
S1131C708FEF93E00E941E1884E08093FE0381E0BE
S1131C808093FD0386E192E09F938F930E940A0262
S1131C900F900F9033C08FEF93E00E944018892B70
S1131CA069F140ED57E060E070E08FEF93E00E944F
S1131CB01E180E94D00784E08093FE0382E0809384
S1131CC0FD0386E192E09F938F930E940A020F9096
S1131CD00F9014C081E00E943F0C10C08FEF93E07E
S1131CE00E944018892B51F081E392E09F938F93D7
S1131CF00E940A021092FE030F900F9080E00E944F
S1131D004B078111DEC082E00E944B0790E0909364
S1131D10F7038093F60381E00E9443117C01FF9254
S1131D208F938091F7038F938091F6038F938AE4C6
S1131D3092E09F938F930E940A028091F603909100
S1131D40F7030F900F900F900F900F900F908E1538
S1131D509F0580F5C0904306D0904406E090450668
S1131D60F09046064091EB035091EC036091ED0333
S1131D707091EE034C155D056E057F05D8F49F93B5
S1131D808F9385E792E09F938F930E940A0281E0EC
S1131D908093F4030F900F900F900F908091F503B0
S1131DA0813051F1A8F0823009F44BC0833009F43A
S1131DB051C087C01092F4038091F503823009F476
S1131DC066C0833009F47AC0813009F07AC046C015
S1131DD081E08093F5038CE892E09F938F930E94B7
S1131DE00A024CED55E060E070E08FEE93E00E9453
S1131DF01E180F900F9065C08FEE93E00E9440185C
S1131E00892B09F45EC00E94C212049724F083E077
S1131E108093F50356C040ED57E060E070E08FEE2C
S1131E2093E00E941E1882E08093F5030E94B6128C
S1131E3087EA92E09F938F930E940A020F900F907B
S1131E4040C08FEE93E00E944018892BD1F110928C
S1131E50F50337C082E00E943F0C33C08FEE93E05D
S1131E600E944018892B69F140ED57E060E070E072
S1131E708FEE93E00E941E181092F50381EC92E01D
S1131E809F938F930E940A020F900F901AC08FEEB7
S1131E9093E00E944018892BA1F01092F50381EC85
S1131EA092E09F938F930E940A026CEA7DE080E0A7
S1131EB090E00E9438130F900F9003C082E00E94BC
S1131EC03F0CFF90EF90DF90CF90BF90AF909F902A
S1131ED08F907F906F905F904F9008954EE551E002
S1131EE060E070E082EE93E00E946A18892B09F1A9
S1131EF080913206813071F492B380E1892782BBEC
S1131F008091200590912105906290932105809302
S1131F1020050895823069F492B380E4892782BB56
S1131F2080912005909121059062909321058093E2
S1131F3020050895FC0120813181623058F03296E9
S1131F4091E041915191240F351F369527959F5F5C
S1131F506913F7CFC9010895EAE4F4E022E734E015
S1131F6081EF91E0819391932E173F07D9F7E9E22E
S1131F70F4E087E494E0119211928E179F07D9F749
S1131F80E1E1F4E085E294E0119211928E179F074B
S1131F90D9F70895CF92DF92EF92FF920F931F9398
S1131FA0CF93DF93409143065091440660914506D8
S1131FB0709146068091080490910904A0910A0446
S1131FC0B0910B0484179507A607B70708F016C14C
S1131FD08091430690914406A0914506B09146062F
S1131FE04496A11DB11D8093080490930904A09305
S1131FF00A04B0930B0480E00E947B03EC0160911F
S113200047047091480480E090E00E94481A21E758
S11320103DE34AE85EE30E94FF1A6B017C01BE01C6
S113202080E090E00E94481A9B01AC01C701B60110
S11320300E9434190E94191A7093750460937404F1
S113204020917604E22FF0E0EE0FFF1FE65BFB4FDA
S11320507183608381E0820F8093760482E00E9422
S11320607B038032910530F04F979093280480933E
S1132070270404C01092280410922704E091490414
S1132080F0E0EE0FFF1FE75DFB4F80912704909176
S113209028049183808381E00E947B0390930F0442
S11320A080930E04C0910C04D0910D04209779F014
S11320B0C817D90728F410920F0410920E0407C011
S11320C09E01281B390B30930F0420930E0480913A
S11320D0100410910E0400910F04E82FF0E0EE0FAD
S11320E0FF1FEF5EFB4F10830183909149049F5FB4
S11320F0909349048F5F8093100464E18AE494E030
S11321000E949A0F90937304809372046FE089E2A3
S113211094E00E949A0F90934804809347046AE0E5
S113212081E194E00E949A0F909326048093250401
S1132130C0900404D0900504E0900604F0900704D5
S1132140C701B60120EA30E040E050E00E9482205E
S1132150672B682B692B71F0C701B6012AE030E0C8
S113216040E050E00E948220672B682B692B09F520
S11321702097F9F4DF93CF93809128048F93809173
S113218027048F930F931F93809175048F938091ED
S113219074048F938AED92E09F938F930E940A02B6
S11321A02DB73EB7265F3F4F0FB6F8943EBF0FBE24
S11321B02DBF8091040490910504A0910604B09170
S11321C007040196A11DB11D809304049093050496
S11321D0A0930604B093070480917604843111F42B
S11321E010927604809110048A3011F41092100435
S11321F0809149048F3011F410924904DF91CF91FA
S11322001F910F91FF90EF90DF90CF900895CF92A0
S1132210DF92EF92FF92CF93DF93C0904306D0906A
S11322204406E0904506F09046068CEDC80E85E025
S1132230D81EE11CF11CC1E4D6E00E94CA0F8A81B9
S11322409B81AC81BD81C816D906EA06FB06A8F7B6
S1132250809125049091260480930C0490930D049E
S11322609F938F938AE193E09F938F930E940A0236
S11322700F900F900F900F90DF91CF91FF90EF9000
S1132280DF90CF900895833018F4813040F00CC073
S1132290833079F48091720490917304089580914D
S11322A04704909148040895809125049091260450
S11322B0089580E090E00895CF92DF92EF92FF922C
S11322C06A017B01833018F4813050F010C08330F0
S11322D0A9F4609172047091730480E090E011C0DD
S11322E0609147047091480480E090E00AC06091D6
S11322F025047091260480E090E003C060E070E063
S1132300CB010E94481A20E030E040E85AE30E94E2
S1132310FF1A20E030E040EA50E40E94FF1AA701CF
S113232096010E94A019FF90EF90DF90CF9008953E
S1132330EF92FF920F931F93CF938B01823059F04A
S113234028F4882391F0813051F134C0833051F165
S1132350843021F02FC084E090E026C00E945E0605
S1132360282F30E088E090E004C022E030E080E0F4
S113237090E0C82F7C01E20EF31E99278E159F056D
S1132380CCF4F80161918F018C2F90E00E94300C05
S1132390CF5F8C2F90E08E159F059CF30BC082E0DD
S11323A090E002C086E090E0C82F7C01F2E0EF0EDE
S11323B0F11CE7CFCF911F910F91FF90EF900895FB
S11323C0EF92FF920F931F93CF938B01823059F0BA
S11323D028F4882391F0813051F134C0833051F1D5
S11323E0843021F02FC084E090E026C00E945E0675
S11323F0282F30E088E090E004C022E030E080E064
S113240090E0C82F7C01E20EF31E99278E159F05DC
S1132410CCF48C2F90E00E94380CF80181938F014A
S1132420CF5F8C2F90E08E159F059CF30BC082E04C
S113243090E002C086E090E0C82F7C01F2E0EF0E4D
S1132440F11CE7CFCF911F910F91FF90EF9008956A
S1132450811105C08CE697E09BBD8ABD0895823347
S113246098F490E00A9722273327281B390B220F70
S1132470331F220F331F220F331F820F931F885FD6
S1132480984F9BBD8ABD0895843670F4282F30E0A0
S1132490225331094BEF4203C001439F900D112495
S11324A086559A4F9BBD8ABD089580E00E942812EC
S11324B0969885E0809333060895CF93DF932FE1B8
S11324C03EE437BD26BD81B3806381BB19BC18BC13
S11324D01BBC1ABC8FB582608FBD8EB588618EBD62
S11324E08FB580688FBD8EB582608EBD3BBD2ABD21
S11324F09698C3E3D6E081E088831B8287E396E065
S11325000E941618198610928B0480E493E09F931E
S11325108F930E940A020F900F90DF91CF9108953C
S113252090913306925021E030E0923010F020E098
S113253030E0C9010895909133069130A1F4E3E3AA
S1132540F6E093E0908383831F928F938DE493E06E
S11325509F938F930E940A020F900F900F900F90F9
S113256081E090E0089580E090E008958091330642
S11325709FEF980F923028F4E3E3F6E0818384E040
S11325808083089580913C0690E008950E94901203
S11325900097D1F080E00E942812E3E3F6E081E0A6
S11325A0808313821F921F9284E693E09F938F93FC
S11325B00E940A0296980E94810C0F900F900F902F
S11325C00F9081E090E0089520913306243031F497
S11325D00E94EF120E94810C81E090E008958091A6
S11325E03406823029F4809333060E94C61209C04F
S11325F0813071F4E3E3F6E082E0808383810E941A
S1132600091310928B04E3E3F6E081858F5F8187E1
S11326100895CF93C82F809133069FEF980F93307E
S1132620D0F4E3E3F6E082E08083C3838C2F0E943E
S113263028121F92CF9385E793E09F938F930E9474
S11326400A02969A0E94810C0F900F900F900F909F
S113265081E090E00BC0843039F40E94EF120E94B4
S1132660810C81E090E002C080E090E0CF91089579
S1132670AB01BC0187E396E00E941E180895CF9336
S1132680DF93C82F4BE450E060E070E086E894E00C
S11326900E946A18892B09F4B8C0809133068430EB
S11326A0A1F030F4823059F0833009F463C09DC046
S11326B0853009F479C0863009F493C096C0C0937C
S11326C036068C2F0E94281290C080918B048111B1
S11326D013C04AEF50E060E070E081E894E00E94AB
S11326E01E1880918B048F5F80938B049091360623
S11326F0890F0E9428122AC081508930D8F481E8B9
S113270094E00E944018019709F54AEF50E060E018
S113271070E081E894E00E941E1880918B048F5F22
S113272080938B04880F880F90913606890F0E943E
S113273028120CC010928B04C3E3D6E08B810E9454
S113274028128981888389858F5F8987209136063D
S113275080918B0490E0820F911D9F938F9387E863
S113276093E09F938F930E940A020F900F900F9013
S11327700F903BC08CE794E00E943618892B59F0E7
S11327808CE794E00E944018019779F582E08093E9
S11327903306969A2AC040ED57E060E070E08CE77B
S11327A094E00E941E1821C087E794E00E94361826
S11327B0892B71F087E794E00E9440180197A9F4EF
S11327C086E0809333068FE19EE49BBD8ABD0DC0F5
S11327D04CEA5DE060E070E087E794E00E941E1838
S11327E004C08FE19EE49BBD8ABD87E396E00E940E
S11327F04018019751F410923C0685E993E09F93A9
S11328008F930E940A020F900F90DF91CF91089549
S1132810E1EDF5E016861586128611861486138678
S1132820E4EAF5E016861586128611861486138668
S11328301092BF051092BE05E2E8F5E016861586F3
S11328401486138612861186E2ECF5E01686158648
S113285014861386128611861092EC051092EB05ED
S1132860EFEEF5E014861386168615861286118619
S1132870E4E6F5E01486138616861586128611861C
S1132880E3E7F5E01486138616861586128611860C
S1132890089580919404823049F0809120059091AC
S11328A021059860909321058093200508958091D7
S11328B09404823049F0809120059091210580682C
S11328C0909321058093200508958091200590918F
S11328D021059260909321058093200508958091AD
S11328E0200590912105997F9093210580932005DF
S11328F0109295040895809120059091210580629D
S1132900909321058093200508958091200590914E
S113291021058F79909321058093200510929504C9
S1132920089580912005909121059062909321054E
S113293080932005809123058B3018F0815080937B
S113294023056091230581E00E94C50961E082E0CE
S11329500E94F709089580912005909121059062C5
S11329609093210580932005809122058B3018F0E7
S11329708150809322056091220580E00E94C50960
S113298080E00E94D609029729F461E082E00E9467
S1132990F70904C061E080E00E94F7098091940483
S11329A08F5F80939404823019F466E00E94F709E3
S11329B008958091200590912105906290932105BE
S11329C08093200580912205833618F48F5F8093CD
S11329D022056091220580E00E94C50980E00E94E2
S11329E0D609029729F461E082E00E94F70904C045
S11329F061E080E00E94F709809194048F5F8093E6
S1132A009404823019F466E00E94F70908950E9444
S1132A10E6098091200590912105977E90932105E8
S1132A20809320051092950480919404882319F0D2
S1132A3081508093940480E00E94D609029729F47F
S1132A4061E082E00E94F709089561E080E00E945D
S1132A50F70908950E94E6098091200590912105C7
S1132A608F779E7F90932105809320051092950483
S1132A7080919404882319F081508093940480E019
S1132A800E94D609029729F461E082E00E94F709C6
S1132A90089561E080E00E94F7090895809120057F
S1132AA09091210590629093210580932005809157
S1132AB02305833628F48F5F809323050E94810CBD
S1132AC06091230581E00E94C50961E082E00E94D3
S1132AD0F7090895EFE3F6E0809122058083809161
S1132AE023058183BF0183E00E949811089580919A
S1132AF020059091210590629093210580932005F3
S1132B00809122058A3038F48AE0809322056AE0B5
S1132B1080E00E94C5090E946A150E946F07892BF4
S1132B2039F40E949207809123050E949B12089514
S1132B300E947A070E94C612089580912005909100
S1132B4021059062909321058093200580912305AF
S1132B508A3038F48AE0809323056AE081E00E9499
S1132B60C5090E949012892B19F00E94C61208957B
S1132B70809123050E940913089586E696E19093B7
S1132B809B0580939A0560E082E00E94F7090E9409
S1132B903D0A6DE376E083E00E94E01180913E06F9
S1132BA096EF980F9A3510F48093230580913D0693
S1132BB096EF980F9A3510F4809322050895109299
S1132BC0940442E068EE73E080E090E00E948F0B92
S1132BD00E94550780E00E945D120E94570C0E94DB
S1132BE0AC0F0E94580581E090E0909321058093FA
S1132BF02005E1EDF5E089E494E1968785878BEA89
S1132C0094E19487838787E095E192878187E4EA5A
S1132C10F5E087E594E19687858789ED94E19487CB
S1132C2083878AE295E19287818787E795E190938C
S1132C30BF058093BE05E2E8F5E085E694E196875A
S1132C4085878FE694E19287818781E994E194876F
S1132C508387E2ECF5E08BE794E19687858785E846
S1132C6094E1928781878EE495E1948783878DE947
S1132C7095E19093EC058093EB056091220580E04B
S1132C800E94C5096091230581E00E94C509089549
S1132C90109294040E9469070E9408140E946C0C0C
S1132CA00E94E2060E94C61210922105109220058D
S1132CB060E082E00E94F70980912005909121054F
S1132CC08E7F909321058093200508950E946A15B4
S1132CD08091200580FF03C00E94481602C00E9414
S1132CE0DF15809120059091210590629093210534
S1132CF080932005089540914306509144066091C5
S1132D0045067091460680918C0490918D04A091A3
S1132D108E04B0918F0484179507A607B70708F0AF
S1132D20A4C08091200585FF21C0609123056336EE
S1132D30E8F46B3040F06F5F6093230581E00E94FC
S1132D40C5090E94810C809198048F5F8093980438
S1132D508F3060F080912005909121058F7D8064F3
S1132D60909321058093200510929804809120056A
S1132D709091210591FF21C0609123056623E9F01C
S1132D806B3040F061506093230581E00E94C509D7
S1132D900E94810C809197048F5F809397048F30F9
S1132DA060F080912005909121059D7F946090931F
S1132DB0210580932005109297048091200587FFB8
S1132DC01DC0609122056336C8F46F5F60932205CD
S1132DD080E00E94C509809196048F5F80939604D9
S1132DE08F3060F080912005909121058F7791605C
S1132DF090932105809320051092960480912005DC
S1132E009091210593FF1DC0609122056B30C8F09D
S1132E1061506093220580E00E94C5098091950469
S1132E208F5F809395048F3060F08091200590919E
S1132E302105977F9061909321058093200510923E
S1132E40950480918C0490918D04A0918E04B0918E
S1132E508F04805B9F4FAF4FBF4F80938C04909340
S1132E608D04A0938E04B0938F040895409143067B
S1132E7050914406609145067091460680919004F5
S1132E8090919104A0919204B091930484179507B2
S1132E90A607B70708F057C080912305833670F45E
S1132EA08091200586FF0AC00E94810C6091230551
S1132EB06F5F6093230581E00E94C509609123053B
S1132EC06B3070F0809120059091210592FF08C02D
S1132ED061506093230581E00E94C5090E94810C22
S1132EE060912205633660F480912005909121055C
S1132EF090FF06C06F5F6093220580E00E94C509C1
S1132F00609122056B3060F080912005909121053D
S1132F1094FF06C061506093220580E00E94C509B9
S1132F208091900490919104A0919204B0919304A3
S1132F304E96A11DB11D8093900490939104A0938B
S1132F409204B093930408950E94081408951F9264
S1132F500F920FB60F9211242F933F934F935F93C9
S1132F606F937F938F939F93AF93BF93EF93FF934D
S1132F70E1E4F6E080819181C2969183808380812F
S1132F809181883E934088F082819381A481B581A8
S1132F900196A11DB11D82839383A483B58380818F
S1132FA09181885E93409183808389E994E00E94B3
S1132FB05509FF91EF91BF91AF919F918F917F91AF
S1132FC06F915F914F913F912F910F900FBE0F9092
S1132FD01F90189593B7986093BF6CBF823099F097
S1132FE028F4882341F0813051F019C0833079F0FE
S1132FF0843089F014C083B7816083BF13C083B762
S1133000826083BF0FC083B7836083BF0BC083B765
S1133010846083BF07C083B7856083BF03C083B761
S1133020816083BF89B7826089BF089523E0FC0172
S11330302483108211821282138208950F931F93A6
S113304021E0FC0124830091430610914406209161
S1133050450630914606400F511F621F731F40837F
S11330605183628373831F910F91089521E030E0AF
S1133070FC018481813011F020E030E0C901089521
S1133080FC0184818130B1F480914306909144061F
S1133090A0914506B09146064081518162817381B9
S11330A0481759076A077B0740F482E0848381E06C
S11330B090E008958FEF9FEF089580E090E00895E9
S11330C021E030E0FC018481833011F020E030E025
S11330D0C9010895CF92DF92EF92FF920F931F934D
S11330E0CF93DF93EC016A017B018C81811106C0CF
S11330F083E08C83188219821A821B82CE010E947B
S113310040188C01019731F4B701A601CE010E9449
S11331101E180DC08C81833041F4B701A601CE0185
S11331200E941E1800E010E002C000E010E0C80198
S1133130DF91CF911F910F91FF90EF90DF90CF908F
S113314008951F920F920FB60F9211242F933F935D
S11331504F935F938F939F93EF93FF932BB13CB166
S1133160287180919D0490E0019640919C0450E068
S11331708417950739F080939D04FC01E056FB4FBA
S1133180308301C022E020939B04FF91EF919F9133
S11331908F915F914F913F912F910F900FBE0F90A0
S11331A01F9018951F920F920FB60F9211248F93B0
S11331B09F93EF93FF9390919F0480919E0498179F
S11331C071F080919E0490E001968F779927809307
S11331D09E04FC01E056FB4F80818CB901C05598D8
S11331E0FF91EF919F918F910F900FBE0F901F90C1
S11331F01895F89410929F0410929E0410929D04C6
S113320010929C04789499231CF422E02BB99F77A4
S113321090BD89B988E98AB986E880BD089540914E
S11332209F0450E04F5F5F4F4F77552720919E04D6
S113323030E042175307D1F3FA01E056FB4F808385
S113324040939F04559A0895CF93DF93EC018881AE
S1133250882331F021960E940F1989918111FBCFA7
S1133260DF91CF9108955058BB27AA270E944B198C
S11332700C94C01A0E94B21A38F00E94B91A20F0B5
S113328039F49F3F19F426F40C94AF1A0EF4E09528
S1133290E7FB0C94A91AE92F0E94D11A58F3BA1724
S11332A0620773078407950720F079F4A6F50C9458
S11332B0F31A0EF4E0950B2EBA2FA02D0B01B901D1
S11332C090010C01CA01A0011124FF27591B99F098
S11332D0593F50F4503E68F11A16F040A22F232FA4
S11332E0342F4427585FF3CF469537952795A795F4
S11332F0F0405395C9F77EF41F16BA0B620B730B9B
S1133300840BBAF09150A1F0FF0FBB1F661F771F0B
S1133310881FC2F70EC0BA0F621F731F841F48F4C0
S1133320879577956795B795F7959E3F08F0B0CF49
S11333309395880F08F09927EE0F97958795089530
S11333400E94B4190C94C01A0E94B91A58F00E9431
S1133350B21A40F029F45F3F29F00C94A91A5111D4
S11333600C94F41A0C94AF1A0E94D11A68F399239E
S1133370B1F3552391F3951B550BBB27AA2762176D
S11333807307840738F09F5F5F4F220F331F441F7A
S1133390AA1FA9F335D00E2E3AF0E0E832D09150AE
S11333A05040E695001CCAF72BD0FE2F29D0660F9B
S11333B0771F881FBB1F261737074807AB07B0E8DE
S11333C009F0BB0B802DBF01FF2793585F4F3AF0E4
S11333D09E3F510578F00C94A91A0C94F41A5F3F9F
S11333E0E4F3983ED4F3869577956795B795F7956A
S11333F09F5FC9F7880F911D9695879597F9089552
S1133400E1E0660F771F881FBB1F621773078407ED
S1133410BA0720F0621B730B840BBA0BEE1F88F7FC
S1133420E09508950E94191A6894B1110C94F41A45
S113343008950E94D91A88F09F5798F0B92F9927B8
S1133440B751B0F0E1F0660F771F881F991F1AF08B
S1133450BA95C9F714C0B13091F00E94F31AB1E0E3
S113346008950C94F31A672F782F8827B85F39F0E2
S1133470B93FCCF3869577956795B395D9F73EF424
S113348090958095709561957F4F8F4F9F4F0895CC
S1133490E89409C097FB3EF49095809570956195EA
S11334A07F4F8F4F9F4F9923A9F0F92F96E9BB27A0
S11334B09395F695879577956795B795F111F8CF1C
S11334C0FAF4BB0F11F460FF1BC06F5F7F4F8F4F87
S11334D09F4F16C0882311F096E911C0772321F07D
S11334E09EE8872F762F05C0662371F096E8862F15
S11334F070E060E02AF09A95660F771F881FDAF76C
S1133500880F9695879597F90895990F0008550F98
S1133510AA0BE0E8FEEF16161706E807F907C0F055
S113352012161306E407F50798F0621B730B840B5D
S1133530950B39F40A2661F0232B242B252B21F437
S113354008950A2609F4A140A6958FEF811D811DD7
S1133550089597F99F6780E870E060E008959FEF11
S113356080EC089500240A94161617061806090616
S1133570089500240A9412161306140605060895E5
S1133580092E0394000C11F4882352F0BB0F40F46D
S1133590BF2B11F460FF04C06F5F7F4F8F4F9F4FAD
S11335A0089557FD9058440F551F59F05F3F71F02F
S11335B04795880F97FB991F61F09F3F79F0879596
S11335C00895121613061406551FF2CF4695F1DF1F
S11335D008C0161617061806991FF1CF86957105AF
S11335E0610508940895E894BB2766277727CB01E3
S11335F097F908950E94851A08F48FEF08950E94A0
S1133600121B0C94C01A0E94B21A38F00E94B91A04
S113361020F0952311F00C94A91A0C94AF1A1124DC
S11336200C94F41A0E94D11A70F3959FC1F3950F6C
S113363050E0551F629FF001729FBB27F00DB11D32
S1133640639FAA27F00DB11DAA1F649F6627B00DC2
S1133650A11D661F829F2227B00DA11D621F739FAB
S1133660B00DA11D621F839FA00D611D221F749FB9
S11336703327A00D611D231F849F600D211D822F00
S1133680762F6A2F11249F5750409AF0F1F0882327
S11336904AF0EE0FFF1FBB1F661F771F881F915054
S11336A05040A9F79E3F510580F00C94A91A0C9440
S11336B0F41A5F3FE4F3983ED4F3869577956795C3
S11336C0B795F795E7959F5FC1F7FE2B880F911D7E
S11336D09695879597F90895FA01EE0FFF1F309696
S11336E021053105A1F16115710561F48038BFE34D
S11336F09B0749F168949038810561F08038BFEFE9
S11337009B0741F099234AF5FF3FE1053105210567
S113371019F1E8940894E795D901AA2329F4AB2F69
S1133720BE2FF85FD0F310C0FF5F70F4A695E0F7EA
S1133730F73950F019F0FF3A38F49F779F930DD082
S11337400F9007FC9058089546F00C94AF1A60E06F
S113375070E080E89FE308954FE79F775F934F936E
S11337603F932F930E94671C2F913F914F915F913C
S11337700E94FF1A0C94C41B29F416F00C94A91A85
S11337800C94F31A0C94AF1A0E94D91AA8F3963821
S1133790A0F707F80F92E8942BE33AEA48EB5FE7C7
S11337A00E94151B0F920F920F924DB75EB70F92A6
S11337B00E94AF1CE2E5F2E00E94F61B4F915F917C
S11337C0EF91FF91E595EE1FFF1F49F0FE57E0686A
S11337D04427EE0F441FFA95E1F74195550B0E94DB
S11337E0291C0F9007FE0C941D1C0895DF93CF93A2
S11337F01F930F93FF92EF92DF927B018C016894E9
S113380006C0DA2EEF010E94121BFE01E894A59176
S11338102591359145915591A6F3EF010E944B19DD
S1133820FE019701A801DA9469F7DF90EF90FF9009
S11338300F911F91CF91DF9108959B01AC0160E03E
S113384070E080E89FE30C94A0190C94A91A0C94DE
S1133850E31C0E94D91AD8F39923C9F3940F511D7C
S1133860A3F39150504094F059F0882332F0660F3E
S1133870771F881F91505040C1F79E3F51052CF788
S1133880880F911D9695879597F908955F3FACF041
S1133890983E9CF0BB27869577956795B79508F475
S11338A0B1609395C1F7BB0F58F711F460FFE8CFEF
S11338B06F5F7F4F8F4F9F4FE3CF0C94F41A16F036
S11338C00C94E31C0C94AF1A68940C94A91A0E94EB
S11338D0D91AA8F39923C1F3AEF3DF93CF931F93BF
S11338E00F93FF92C92FDD2788232AF02197660FB3
S11338F0771F881FDAF720E030E040E85FEB9FE3B2
S1133900883920F0803E38F021968F770E94341950
S1133910EAE7F2E004C00E943419E7EAF2E00E9408
S1133920F61B8B01BE01EC01FB2E6F5771097595D7
S1133930771F880B990B0E944A1A28E132E741E36A
S11339405FE30E94121BAF2D9801AE01FF900F910F
S11339501F91CF91DF910E944B190C94C01AFA0168
S1133960DC01AA0FBB1F9B01AC01BF5728F422271F
S113397033274427507820C0B75190F4AB2F00244C
S1133980469537952795011CA395D2F3002071F035
S1133990220F331F441FB395DAF30ED00C9433195E
S11339A061307105A0E88A07B94630F49B01AC0187
S11339B06627772788279078309621F020833183F3
S11339C04283538308959F3F31F0915020F48795AB
S11339D077956795B795880F911D9695879597F973
S11339E00895A0E1B0E0E7EFFCE10C94B9207C017C
S11339F01B016A01FC0117821682838181FF44C383
S1133A009E012F5F3F4F3901F7019381F10193FD2F
S1133A10859193FF81911F01882309F431C3853275
S1133A2039F493FD859193FF81911F01853239F417
S1133A30B70190E00E94FF2156016501E5CF10E037
S1133A40512C912CFFE1F915D8F08B3279F038F430
S1133A50803279F08332A1F4F92DF0612EC08D32D9
S1133A6061F0803369F4292D21602DC0392D326035
S1133A70932E892D8460982E2AC0E92DE86015C004
S1133A8097FC2DC020ED280F2A3088F496FE06C03E
S1133A903AE0139F200D1124122F19C08AE0589E7A
S1133AA0200D1124522EE92DE0629E2E10C08E327C
S1133AB031F496FCE5C2F92DF0649F2E08C08C36D3
S1133AC021F4292D2068922E02C0883641F4F10198
S1133AD093FD859193FF81911F018111B3CF9BEBDE
S1133AE0980F933020F4992D9061805E07C09BE974
S1133AF0980F933008F066C1992D9F7E96FF16E0CB
S1133B009F73992E853619F49064992E08C08636D1
S1133B1021F4392F3068932E02C01111115097FEF1
S1133B2007C01C3350F444244394410E27E00BC0D7
S1133B30183038F027E017E005C027E09CE3492E51
S1133B4002C0212F412C560184E0A80EB11CF601BD
S1133B506081718182819381042DA3010E940421DB
S1133B606C01F981FC87F0FF02C0F3FF06C091FCF1
S1133B7006C092FE06C000E205C00DE203C00BE2DF
S1133B8001C000E08C858C7019F001115AC29BC2EF
S1133B9097FE10C04C0CFC85F4FF04C08A8181336D
S1133BA009F44A94141474F528E0241578F588E08F
S1133BB0482E2CC096FC2AC0812F90E08C159D05C0
S1133BC09CF03CEFC3163FEFD30674F0892D806858
S1133BD0982E0AC0E2E0F0E0EC0FFD1FE10FF11DAA
S1133BE08081803319F411501111F4CF97FE0EC067
S1133BF044244394410E812F90E0C816D9062CF436
S1133C001C1904C04424439401C010E097FE06C06C
S1133C101C141D0434F4C601019605C085E090E02F
S1133C2002C081E090E001110196112331F0212FAF
S1133C3030E02F5F3F4F820F931F252D30E0821716
S1133C40930714F4581A01C0512C892D897049F432
S1133C50552039F0B70180E290E00E94FF215A9488
S1133C60F7CF002329F0B701802F90E00E94FF21B5
S1133C7093FC09C0552039F0B70180E390E00E941D
S1133C80FF215A94F7CF97FE4CC04601D7FE02C0DD
S1133C90812C912CC60188199909F301E80FF91FA9
S1133CA0FE87ED87960124193109388B2F87012F60
S1133CB010E01195019511093FEF8316930629F43D
S1133CC0B7018EE290E00E94FF21C814D9044CF0A1
S1133CD08F8598898815990524F4ED85FE85818161
S1133CE001C080E3F1E08F1A91082D853E852F5F96
S1133CF03F4F3E872D87801691062CF0B70190E048
S1133D000E94FF21D9CFC814D90441F49A81963373
S1133D1020F4953319F43C8534FF81E3B70190E036
S1133D204EC08A81813319F09C859F7E9C87B701A0
S1133D3090E00E94FF21111105C094FC18C085E693
S1133D4090E017C0B7018EE290E00E94FF211E5F51
S1133D5082E001E0080FF301E80FF11D8081B70153
S1133D6090E00E94FF21802F0113F3CFE6CF85E47A
S1133D7090E0B7010E94FF21D7FC06C0C114D10412
S1133D8041F4EC85E4FF05C0D194C194D1088DE2DF
S1133D9001C08BE2B70190E00E94FF2180E32AE09A
S1133DA0C216D1042CF08F5FFAE0CF1AD108F7CFF6
S1133DB0B70190E00E94FF21B701C601C0960E949E
S1133DC0FF2154C1833631F0833779F0833509F00C
S1133DD056C020C0560132E0A30EB11CF60180810A
S1133DE0898301E010E0630112C05601F2E0AF0ED6
S1133DF0B11CF601C080D18096FE03C0612F70E033
S1133E0002C06FEF7FEFC6010E94F4218C01F92DEF
S1133E10FF7714C0560122E0A20EB11CF601C08047
S1133E20D18096FE03C0612F70E002C06FEF7FEF78
S1133E30C6010E94DC218C01F92DF0689F2EF3FD50
S1133E401AC0852D90E008171907A8F4B70180E27D
S1133E5090E00E94FF215A94F4CFF60197FC8591DB
S1133E6097FE81916F01B70190E00E94FF215110EC
S1133E705A94015011090115110579F7F7C08436D8
S1133E8011F0893661F5560197FE09C024E0A20EAF
S1133E90B11CF60160817181828193810AC0F2E0D4
S1133EA0AF0EB11CF60160817181072E000C880BE6
S1133EB0990BF92DFF769F2E97FF09C09095809559
S1133EC0709561957F4F8F4F9F4FF0689F2E2AE02A
S1133ED030E0A3010E945722C82EC6183FC0092D06
S1133EE0853721F40F7E2AE030E01DC0097F8F362C
S1133EF091F018F4883559F0C3C0803719F0883729
S1133F0011F0BEC0006104FF09C0046007C094FE44
S1133F1008C0066006C028E030E005C020E130E0BB
S1133F2002C020E132E0560107FF09C084E0A80E78
S1133F30B11CF601608171818281938108C0F2E035
S1133F40AF0EB11CF6016081718180E090E0A301A5
S1133F500E945722C82EC6180F77902E96FE0BC0CB
S1133F60092D0E7FC11650F494FE0AC092FC08C0BD
S1133F70092D0E7E05C0DC2C092D03C0DC2C01C0EC
S1133F80D12E04FF0DC0FE01EC0DF11D80818033A4
S1133F9011F4097E09C002FF06C0D394D39404C06F
S1133FA0802F867809F0D39403FD11C000FF06C06A
S1133FB01C2DD51480F4150D1D190DC0D51458F4FD
S1133FC0B70180E290E00E94FF21D394F7CFD5148B
S1133FD010F45D1801C0512C04FF10C0B70180E338
S1133FE090E00E94FF2102FF17C001FD03C088E793
S1133FF090E002C088E590E0B7010CC0802F86787D
S113400059F001FF02C08BE201C080E207FD8DE29E
S1134010B70190E00E94FF21C11638F4B70180E394
S113402090E00E94FF211150F7CFCA94F301EC0DE8
S1134030F11D8081B70190E00E94FF21C110F5CFEE
S113404015C0F4E0F51560F584E0581A93FE1FC01E
S1134050011127C02C8523FF2AC004ED12E0392D5D
S11340603071932EF8018491811124C0552009F4F4
S1134070E4CCB70180E290E00E94FF215A94F6CF8D
S1134080F7018681978126C08FEF9FEF23C0B70188
S113409080E290E00E94FF215A945110F8CFD8CFCB
S11340A0512CB701802F90E00E94FF21D3CF08ED5F
S11340B012E0D5CF91108052B70190E00E94FF2109
S11340C00F5F1F4FCFCF23E0251510F483E0BDCF42
S11340D0512CC0CF6096E2E10C94D52097FB072EBB
S11340E016F4009407D077FD09D00E94F02007FC55
S11340F005D03EF4909581959F4F089570956195F4
S11341007F4F0895A1E21A2EAA1BBB1BFD010DC00F
S1134110AA1FBB1FEE1FFF1FA217B307E407F50773
S113412020F0A21BB30BE40BF50B661F771F881F4F
S1134130991F1A9469F760957095809590959B01E5
S1134140AC01BD01CF010895EE0FFF1F0590F4915E
S1134150E02D0994A29FB001B39FC001A39F700DED
S1134160811D1124911DB29F700D811D1124911D7B
S113417008952F923F924F925F926F927F928F9207
S11341809F92AF92BF92CF92DF92EF92FF920F93E2
S11341901F93CF93DF93CDB7DEB7CA1BDB0B0FB6EC
S11341A0F894DEBF0FBECDBF09942A8839884888A9
S11341B05F846E847D848C849B84AA84B984C8843F
S11341C0DF80EE80FD800C811B81AA81B981CE0F36
S11341D0D11D0FB6F894DEBF0FBECDBFED0108951B
S11341E0AA1BBB1B51E107C0AA1FBB1FA617B70719
S11341F010F0A61BB70B881F991F5A95A9F7809535
S11342009095BC01CD010895283008F027E03327AC
S1134210DA01990F311D87FD9160009661057105E2
S113422039F432602E5F3D9330E32A95E1F7089527
S11342309F3F30F080387105610509F03C5F3C5FB9
S11342403D93913008F08068911DDF93CF931F93C5
S11342500F93FF92EF92192F987F9695E92F9695D9
S11342609695E90FFF27EA5CFC4F99273327EE2444
S1134270FF24A701E70105900894079428F4360F5A
S1134280E71EF81E491F511D660F771F881F991FCF
S11342900694A1F70590079428F4E70EF81E491F29
S11342A0561FC11D770F881F991F661F0694A1F71B
S11342B00590079428F4F80E491F561FC71FD11DF7
S11342C0880F991F661F771F0694A1F7059007941E
S11342D020F4490F561FC71FD81F990F661F771F59
S11342E0881F0694A9F784911095177041F0D6950C
S11342F0C79557954795F794E7941A95C1F7ECED50
S1134300F2E0689415901591359165919591059019
S11343107FE27395E118F10A430B560BC90BD009E0
S1134320C0F7E10CF11E431F561FC91FD01D7EF4B8
S1134330703311F48A95E6CFE894015030F0080FF9
S11343400AF40027021708F4202F2395022F7A334A
S113435028F079E37D932A95E9F710C07D932A9597
S113436089F6069497956795379517951794E118EC
S1134370F10A430B560BC90BD00998F023957E9193
S113438073957A3308F070E37C932013B8F77E9129
S113439070617D9330F0839571E37D9370E32A958A
S11343A0E1F71124EF90FF900F911F91CF91DF91CE
S11343B0992787FD90950895FC0105906150704000
S11343C00110D8F7809590958E0F9F1F0895FB01DB
S11343D0DC0104C08D910190801921F441505040BA
S11343E0C8F7881B990B0895FC0161507040019037
S11343F00110D8F7809590958E0F9F1F08950F9305
S11344001F93CF93DF93FB01238121FD03C08FEF23
S11344109FEF2CC022FF16C046815781248135812D
S11344204217530744F4A081B1819D012F5F3F4F90
S1134430318320838C93268137812F5F3F4F3783CD
S1134440268314C08B01EC01FB010084F185E02D6F
S11344500995892BE1F6D80116968D919C911797B1
S1134460019617969C938E931697CE01DF91CF9168
S11344701F910F910895AEE0B0E0E1E4F2E20C94F4
S1134480C7208C0186E08C831A8309838FEF9FE712
S11344909E838D83CE0101960E94F11CEF81F885E5
S11344A0E00FF11F10822E96E4E00C94E320FA0151
S11344B0AA27283051F1203181F1E8946F936E7F5F
S11344C06E5F7F4F8F4F9F4FAF4FB1E03ED0B4E050
S11344D03CD0670F781F891F9A1FA11D680F791F91
S11344E08A1F911DA11D6A0F711D811D911DA11DA2
S11344F020D009F468943F912AE0269F11243019B2
S1134500305D3193DEF6CF010895462F4770405D4C
S11345104193B3E00FD0C9F7F6CF462F4F70405DFB
S11345204A3318F0495D31FD4052419302D0A9F756
S1134530EACFB4E0A6959795879577956795BA9550
S1134540C9F700976105710508959B01AC010A2E16
S113455006945795479537952795BA95C9F7620FED
S1114560731F841F951FA01D0895F894FFCFAC
S113456ED105A405B30591058205C205E005EF0545
S113457E6405730501000100631463320100FFFE3C
S113458EF92F2D2D2D2D2D2D2D2D2D2D2D5354411A
S113459E52542053595354454D2D2D2D2D2D2D2D23
S11345AE2D2D2D2D2D2F0A00636F6E663A20256456
S11345BE0A006D656E7520616674657220636865A8
S11345CE636B2025642025642025642025640A0D50
S11345DE00706173732025640A00636C6561725FF9
S11345EE70617373776F72640A00656E7465725FBF
S11345FE746F5F6D656E750A006D656E755F7265BD
S113460E61642025642025642025642025640A0D18
S113461E0001000204030564636D6F746F722069F8
S113462E6E69740A0064636D6F746F722073746FB5
S113463E700A0064636D6F746F72206572726F72AC
S113464E0A004552524F523A2072657365742074B3
S113465E696D6572004552524F5220535441545560
S113466E533A204552525F4D5F574149540A0D004B
S113467E636F756E745F6D6F746F725F74696D6561
S113468E6F75745F776169743A2025640A0D00634F
S113469E6F756E745F6D6F746F725F74696D656F35
S11346AE75745F6178656C65726174653A20256412
S11346BE0A0D004552524F52205354415455533A09
S11346CE204552525F4D5F4158454C455241544529
S11346DE0A0D004552524F52205354415455533AE9
S11346EE204552525F4D5F4552524F520A0D0045BE
S11346FE52524F52205354415455533A20676F200F
S113470E746F206C617374206265666F72652077B6
S113471E6169740A0D004552524F5220535441544C
S113472E55533A204552525F4D5F455849540A0D30
S113473E004552524F52205354415455533A20453A
S113474E52525F4D5F4F4B0A0D00736572766F5F69
S113475E6572726F725F76616C75653A2025642C92
S113476E2066696C74657265642076616C75653A51
S113477E2025640A00736572766F5F6572726F72BC
S113478E5F76616C75653A2025640A004552524F76
S113479E52205354415455533A204552525F535F5D
S11347AE574149540A0D004552524F522053544119
S11347BE5455533A204552525F535F5452590A0D81
S11347CE004552524F52205354415455533A2045AA
S11347DE52525F535F4F4B0A0D004144435F6E6F5D
S11347EE742066696C74657265643A2061636375DE
S11347FE6D2025642C20736572766F2025642C2021
S113480E6D6F746F722025642C2063616C69627203
S113481E6174696F6E2025640A004D4541535552EB
S113482E4520534552564F2043616C696272617440
S113483E696F6E2076616C7565203D2025640A00D3
S113484E534552564F3A20696E69740A00534552C5
S113485E564F5F44454C415945445F4F50454E2099
S113486E25640A00534552564F5F434C4F534544FB
S113487E2025640A00534552564F5F4F5050454E03
S113488E45442025640A00534552564F5F545259ED
S113489E2025640A00534552564F3A205A65726FCA
S10D48AE2074727920636E740A000E
S9030000FC
